{
	"contracts/Marketplace.sol": {
		"Marketplace": {
			"abi": [
				{
					"inputs": [],
					"stateMutability": "nonpayable",
					"type": "constructor"
				},
				{
					"inputs": [],
					"name": "ReentrancyGuardReentrantCall",
					"type": "error"
				},
				{
					"anonymous": false,
					"inputs": [
						{
							"indexed": false,
							"internalType": "address",
							"name": "nftContract",
							"type": "address"
						},
						{
							"indexed": false,
							"internalType": "uint256",
							"name": "tokenId",
							"type": "uint256"
						},
						{
							"indexed": false,
							"internalType": "address",
							"name": "seller",
							"type": "address"
						},
						{
							"indexed": false,
							"internalType": "address",
							"name": "owner",
							"type": "address"
						},
						{
							"indexed": false,
							"internalType": "uint256",
							"name": "price",
							"type": "uint256"
						}
					],
					"name": "NFTListed",
					"type": "event"
				},
				{
					"anonymous": false,
					"inputs": [
						{
							"indexed": false,
							"internalType": "address",
							"name": "nftContract",
							"type": "address"
						},
						{
							"indexed": false,
							"internalType": "uint256",
							"name": "tokenId",
							"type": "uint256"
						},
						{
							"indexed": false,
							"internalType": "address",
							"name": "seller",
							"type": "address"
						},
						{
							"indexed": false,
							"internalType": "address",
							"name": "owner",
							"type": "address"
						},
						{
							"indexed": false,
							"internalType": "uint256",
							"name": "price",
							"type": "uint256"
						}
					],
					"name": "NFTSold",
					"type": "event"
				},
				{
					"inputs": [],
					"name": "LISTING_FEE",
					"outputs": [
						{
							"internalType": "uint256",
							"name": "",
							"type": "uint256"
						}
					],
					"stateMutability": "view",
					"type": "function"
				},
				{
					"inputs": [
						{
							"internalType": "address",
							"name": "_nftContract",
							"type": "address"
						},
						{
							"internalType": "uint256",
							"name": "_tokenId",
							"type": "uint256"
						}
					],
					"name": "buyNft",
					"outputs": [],
					"stateMutability": "payable",
					"type": "function"
				},
				{
					"inputs": [],
					"name": "getListedNfts",
					"outputs": [
						{
							"components": [
								{
									"internalType": "address",
									"name": "nftContract",
									"type": "address"
								},
								{
									"internalType": "uint256",
									"name": "tokenId",
									"type": "uint256"
								},
								{
									"internalType": "address payable",
									"name": "seller",
									"type": "address"
								},
								{
									"internalType": "address payable",
									"name": "owner",
									"type": "address"
								},
								{
									"internalType": "uint256",
									"name": "price",
									"type": "uint256"
								},
								{
									"internalType": "bool",
									"name": "listed",
									"type": "bool"
								}
							],
							"internalType": "struct Marketplace.NFT[]",
							"name": "",
							"type": "tuple[]"
						}
					],
					"stateMutability": "view",
					"type": "function"
				},
				{
					"inputs": [],
					"name": "getMyListedNfts",
					"outputs": [
						{
							"components": [
								{
									"internalType": "address",
									"name": "nftContract",
									"type": "address"
								},
								{
									"internalType": "uint256",
									"name": "tokenId",
									"type": "uint256"
								},
								{
									"internalType": "address payable",
									"name": "seller",
									"type": "address"
								},
								{
									"internalType": "address payable",
									"name": "owner",
									"type": "address"
								},
								{
									"internalType": "uint256",
									"name": "price",
									"type": "uint256"
								},
								{
									"internalType": "bool",
									"name": "listed",
									"type": "bool"
								}
							],
							"internalType": "struct Marketplace.NFT[]",
							"name": "",
							"type": "tuple[]"
						}
					],
					"stateMutability": "view",
					"type": "function"
				},
				{
					"inputs": [],
					"name": "getMyNfts",
					"outputs": [
						{
							"components": [
								{
									"internalType": "address",
									"name": "nftContract",
									"type": "address"
								},
								{
									"internalType": "uint256",
									"name": "tokenId",
									"type": "uint256"
								},
								{
									"internalType": "address payable",
									"name": "seller",
									"type": "address"
								},
								{
									"internalType": "address payable",
									"name": "owner",
									"type": "address"
								},
								{
									"internalType": "uint256",
									"name": "price",
									"type": "uint256"
								},
								{
									"internalType": "bool",
									"name": "listed",
									"type": "bool"
								}
							],
							"internalType": "struct Marketplace.NFT[]",
							"name": "",
							"type": "tuple[]"
						}
					],
					"stateMutability": "view",
					"type": "function"
				},
				{
					"inputs": [
						{
							"internalType": "address",
							"name": "_nftContract",
							"type": "address"
						},
						{
							"internalType": "uint256",
							"name": "_tokenId",
							"type": "uint256"
						},
						{
							"internalType": "uint256",
							"name": "_price",
							"type": "uint256"
						}
					],
					"name": "listNft",
					"outputs": [],
					"stateMutability": "payable",
					"type": "function"
				},
				{
					"inputs": [
						{
							"internalType": "address",
							"name": "_nftContract",
							"type": "address"
						},
						{
							"internalType": "uint256",
							"name": "_tokenId",
							"type": "uint256"
						},
						{
							"internalType": "uint256",
							"name": "_price",
							"type": "uint256"
						}
					],
					"name": "resellNft",
					"outputs": [],
					"stateMutability": "payable",
					"type": "function"
				}
			],
			"devdoc": {
				"errors": {
					"ReentrancyGuardReentrantCall()": [
						{
							"details": "Unauthorized reentrant call."
						}
					]
				},
				"kind": "dev",
				"methods": {},
				"version": 1
			},
			"evm": {
				"assembly": "    /* \"contracts/Marketplace.sol\":183:4336  contract Marketplace is ReentrancyGuard {... */\n  mstore(0x40, 0x80)\n    /* \"contracts/Marketplace.sol\":317:318  0 */\n  0x00\n    /* \"contracts/Marketplace.sol\":288:318  uint256 public LISTING_FEE = 0 */\n  0x03\n  sstore\n    /* \"contracts/Marketplace.sol\":841:902  constructor() {... */\n  callvalue\n  dup1\n  iszero\n  tag_1\n  jumpi\n  0x00\n  dup1\n  revert\ntag_1:\n  pop\n    /* \"@openzeppelin/contracts/utils/ReentrancyGuard.sol\":1746:1747  1 */\n  0x01\n    /* \"@openzeppelin/contracts/utils/ReentrancyGuard.sol\":1961:1968  _status */\n  0x00\n    /* \"@openzeppelin/contracts/utils/ReentrancyGuard.sol\":1961:1982  _status = NOT_ENTERED */\n  dup2\n  swap1\n  sstore\n  pop\n    /* \"contracts/Marketplace.sol\":885:895  msg.sender */\n  caller\n    /* \"contracts/Marketplace.sol\":862:874  _marketOwner */\n  0x04\n  0x00\n    /* \"contracts/Marketplace.sol\":862:896  _marketOwner = payable(msg.sender) */\n  0x0100\n  exp\n  dup2\n  sload\n  dup2\n  0xffffffffffffffffffffffffffffffffffffffff\n  mul\n  not\n  and\n  swap1\n  dup4\n  0xffffffffffffffffffffffffffffffffffffffff\n  and\n  mul\n  or\n  swap1\n  sstore\n  pop\n    /* \"contracts/Marketplace.sol\":183:4336  contract Marketplace is ReentrancyGuard {... */\n  dataSize(sub_0)\n  dup1\n  dataOffset(sub_0)\n  0x00\n  codecopy\n  0x00\n  return\nstop\n\nsub_0: assembly {\n        /* \"contracts/Marketplace.sol\":183:4336  contract Marketplace is ReentrancyGuard {... */\n      mstore(0x40, 0x80)\n      jumpi(tag_1, lt(calldatasize, 0x04))\n      shr(0xe0, calldataload(0x00))\n      dup1\n      0x34f5b624\n      gt\n      tag_9\n      jumpi\n      dup1\n      0x34f5b624\n      eq\n      tag_5\n      jumpi\n      dup1\n      0x4ddf4f8f\n      eq\n      tag_6\n      jumpi\n      dup1\n      0x8d6cb3fb\n      eq\n      tag_7\n      jumpi\n      dup1\n      0xc922b17c\n      eq\n      tag_8\n      jumpi\n      jump(tag_1)\n    tag_9:\n      dup1\n      0x047b07bf\n      eq\n      tag_2\n      jumpi\n      dup1\n      0x1f4cc4db\n      eq\n      tag_3\n      jumpi\n      dup1\n      0x2b86ae38\n      eq\n      tag_4\n      jumpi\n    tag_1:\n      0x00\n      dup1\n      revert\n        /* \"contracts/Marketplace.sol\":3209:3729  function getMyNfts() public view returns (NFT[] memory) {... */\n    tag_2:\n      callvalue\n      dup1\n      iszero\n      tag_10\n      jumpi\n      0x00\n      dup1\n      revert\n    tag_10:\n      pop\n      tag_11\n      tag_12\n      jump\t// in\n    tag_11:\n      mload(0x40)\n      tag_13\n      swap2\n      swap1\n      tag_14\n      jump\t// in\n    tag_13:\n      mload(0x40)\n      dup1\n      swap2\n      sub\n      swap1\n      return\n        /* \"contracts/Marketplace.sol\":3735:4333  function getMyListedNfts() public view returns (NFT[] memory) {... */\n    tag_3:\n      callvalue\n      dup1\n      iszero\n      tag_15\n      jumpi\n      0x00\n      dup1\n      revert\n    tag_15:\n      pop\n      tag_16\n      tag_17\n      jump\t// in\n    tag_16:\n      mload(0x40)\n      tag_18\n      swap2\n      swap1\n      tag_14\n      jump\t// in\n    tag_18:\n      mload(0x40)\n      dup1\n      swap2\n      sub\n      swap1\n      return\n        /* \"contracts/Marketplace.sol\":288:318  uint256 public LISTING_FEE = 0 */\n    tag_4:\n      callvalue\n      dup1\n      iszero\n      tag_19\n      jumpi\n      0x00\n      dup1\n      revert\n    tag_19:\n      pop\n      tag_20\n      tag_21\n      jump\t// in\n    tag_20:\n      mload(0x40)\n      tag_22\n      swap2\n      swap1\n      tag_23\n      jump\t// in\n    tag_22:\n      mload(0x40)\n      dup1\n      swap2\n      sub\n      swap1\n      return\n        /* \"contracts/Marketplace.sol\":2186:2783  function resellNft(address _nftContract, uint256 _tokenId, uint256 _price) public payable nonReentrant {... */\n    tag_5:\n      tag_24\n      0x04\n      dup1\n      calldatasize\n      sub\n      dup2\n      add\n      swap1\n      tag_25\n      swap2\n      swap1\n      tag_26\n      jump\t// in\n    tag_25:\n      tag_27\n      jump\t// in\n    tag_24:\n      stop\n        /* \"contracts/Marketplace.sol\":1597:2129  function buyNft(address _nftContract, uint256 _tokenId) public payable nonReentrant {... */\n    tag_6:\n      tag_28\n      0x04\n      dup1\n      calldatasize\n      sub\n      dup2\n      add\n      swap1\n      tag_29\n      swap2\n      swap1\n      tag_30\n      jump\t// in\n    tag_29:\n      tag_31\n      jump\t// in\n    tag_28:\n      stop\n        /* \"contracts/Marketplace.sol\":2789:3203  function getListedNfts() public view returns (NFT[] memory) {... */\n    tag_7:\n      callvalue\n      dup1\n      iszero\n      tag_32\n      jumpi\n      0x00\n      dup1\n      revert\n    tag_32:\n      pop\n      tag_33\n      tag_34\n      jump\t// in\n    tag_33:\n      mload(0x40)\n      tag_35\n      swap2\n      swap1\n      tag_14\n      jump\t// in\n    tag_35:\n      mload(0x40)\n      dup1\n      swap2\n      sub\n      swap1\n      return\n        /* \"contracts/Marketplace.sol\":946:1574  function listNft(address _nftContract, uint256 _tokenId, uint256 _price) public payable nonReentrant {... */\n    tag_8:\n      tag_36\n      0x04\n      dup1\n      calldatasize\n      sub\n      dup2\n      add\n      swap1\n      tag_37\n      swap2\n      swap1\n      tag_26\n      jump\t// in\n    tag_37:\n      tag_38\n      jump\t// in\n    tag_36:\n      stop\n        /* \"contracts/Marketplace.sol\":3209:3729  function getMyNfts() public view returns (NFT[] memory) {... */\n    tag_12:\n        /* \"contracts/Marketplace.sol\":3251:3263  NFT[] memory */\n      0x60\n        /* \"contracts/Marketplace.sol\":3272:3285  uint nftCount */\n      0x00\n        /* \"contracts/Marketplace.sol\":3288:3297  _nftCount */\n      sload(0x02)\n        /* \"contracts/Marketplace.sol\":3272:3297  uint nftCount = _nftCount */\n      swap1\n      pop\n        /* \"contracts/Marketplace.sol\":3304:3319  uint myNftCount */\n      0x00\n        /* \"contracts/Marketplace.sol\":3335:3341  uint i */\n      dup1\n        /* \"contracts/Marketplace.sol\":3330:3456  for (uint i = 0; i < nftCount; i++) {... */\n    tag_40:\n        /* \"contracts/Marketplace.sol\":3351:3359  nftCount */\n      dup3\n        /* \"contracts/Marketplace.sol\":3347:3348  i */\n      dup2\n        /* \"contracts/Marketplace.sol\":3347:3359  i < nftCount */\n      lt\n        /* \"contracts/Marketplace.sol\":3330:3456  for (uint i = 0; i < nftCount; i++) {... */\n      iszero\n      tag_41\n      jumpi\n        /* \"contracts/Marketplace.sol\":3404:3414  msg.sender */\n      caller\n        /* \"contracts/Marketplace.sol\":3379:3414  _idToNFT[i + 1].owner == msg.sender */\n      0xffffffffffffffffffffffffffffffffffffffff\n      and\n        /* \"contracts/Marketplace.sol\":3379:3387  _idToNFT */\n      0x05\n        /* \"contracts/Marketplace.sol\":3379:3394  _idToNFT[i + 1] */\n      0x00\n        /* \"contracts/Marketplace.sol\":3392:3393  1 */\n      0x01\n        /* \"contracts/Marketplace.sol\":3388:3389  i */\n      dup5\n        /* \"contracts/Marketplace.sol\":3388:3393  i + 1 */\n      tag_43\n      swap2\n      swap1\n      tag_44\n      jump\t// in\n    tag_43:\n        /* \"contracts/Marketplace.sol\":3379:3394  _idToNFT[i + 1] */\n      dup2\n      mstore\n      0x20\n      add\n      swap1\n      dup2\n      mstore\n      0x20\n      add\n      0x00\n      keccak256\n        /* \"contracts/Marketplace.sol\":3379:3400  _idToNFT[i + 1].owner */\n      0x03\n      add\n      0x00\n      swap1\n      sload\n      swap1\n      0x0100\n      exp\n      swap1\n      div\n      0xffffffffffffffffffffffffffffffffffffffff\n      and\n        /* \"contracts/Marketplace.sol\":3379:3414  _idToNFT[i + 1].owner == msg.sender */\n      0xffffffffffffffffffffffffffffffffffffffff\n      and\n      sub\n        /* \"contracts/Marketplace.sol\":3375:3449  if (_idToNFT[i + 1].owner == msg.sender) {... */\n      tag_45\n      jumpi\n        /* \"contracts/Marketplace.sol\":3427:3439  myNftCount++ */\n      dup2\n      dup1\n      tag_46\n      swap1\n      tag_47\n      jump\t// in\n    tag_46:\n      swap3\n      pop\n      pop\n        /* \"contracts/Marketplace.sol\":3375:3449  if (_idToNFT[i + 1].owner == msg.sender) {... */\n    tag_45:\n        /* \"contracts/Marketplace.sol\":3361:3364  i++ */\n      dup1\n      dup1\n      0x01\n      add\n      swap2\n      pop\n      pop\n        /* \"contracts/Marketplace.sol\":3330:3456  for (uint i = 0; i < nftCount; i++) {... */\n      jump(tag_40)\n    tag_41:\n      pop\n        /* \"contracts/Marketplace.sol\":3464:3481  NFT[] memory nfts */\n      0x00\n        /* \"contracts/Marketplace.sol\":3494:3504  myNftCount */\n      dup2\n        /* \"contracts/Marketplace.sol\":3484:3505  new NFT[](myNftCount) */\n      0xffffffffffffffff\n      dup2\n      gt\n      iszero\n      tag_48\n      jumpi\n      tag_49\n      tag_50\n      jump\t// in\n    tag_49:\n    tag_48:\n      mload(0x40)\n      swap1\n      dup1\n      dup3\n      mstore\n      dup1\n      0x20\n      mul\n      0x20\n      add\n      dup3\n      add\n      0x40\n      mstore\n      dup1\n      iszero\n      tag_51\n      jumpi\n      dup2\n      0x20\n      add\n    tag_52:\n      tag_53\n      tag_54\n      jump\t// in\n    tag_53:\n      dup2\n      mstore\n      0x20\n      add\n      swap1\n      0x01\n      swap1\n      sub\n      swap1\n      dup2\n      tag_52\n      jumpi\n      swap1\n      pop\n    tag_51:\n      pop\n        /* \"contracts/Marketplace.sol\":3464:3505  NFT[] memory nfts = new NFT[](myNftCount) */\n      swap1\n      pop\n        /* \"contracts/Marketplace.sol\":3512:3526  uint nftsIndex */\n      0x00\n        /* \"contracts/Marketplace.sol\":3542:3548  uint i */\n      dup1\n        /* \"contracts/Marketplace.sol\":3537:3706  for (uint i = 0; i < nftCount; i++) {... */\n    tag_55:\n        /* \"contracts/Marketplace.sol\":3558:3566  nftCount */\n      dup5\n        /* \"contracts/Marketplace.sol\":3554:3555  i */\n      dup2\n        /* \"contracts/Marketplace.sol\":3554:3566  i < nftCount */\n      lt\n        /* \"contracts/Marketplace.sol\":3537:3706  for (uint i = 0; i < nftCount; i++) {... */\n      iszero\n      tag_56\n      jumpi\n        /* \"contracts/Marketplace.sol\":3611:3621  msg.sender */\n      caller\n        /* \"contracts/Marketplace.sol\":3586:3621  _idToNFT[i + 1].owner == msg.sender */\n      0xffffffffffffffffffffffffffffffffffffffff\n      and\n        /* \"contracts/Marketplace.sol\":3586:3594  _idToNFT */\n      0x05\n        /* \"contracts/Marketplace.sol\":3586:3601  _idToNFT[i + 1] */\n      0x00\n        /* \"contracts/Marketplace.sol\":3599:3600  1 */\n      0x01\n        /* \"contracts/Marketplace.sol\":3595:3596  i */\n      dup5\n        /* \"contracts/Marketplace.sol\":3595:3600  i + 1 */\n      tag_58\n      swap2\n      swap1\n      tag_44\n      jump\t// in\n    tag_58:\n        /* \"contracts/Marketplace.sol\":3586:3601  _idToNFT[i + 1] */\n      dup2\n      mstore\n      0x20\n      add\n      swap1\n      dup2\n      mstore\n      0x20\n      add\n      0x00\n      keccak256\n        /* \"contracts/Marketplace.sol\":3586:3607  _idToNFT[i + 1].owner */\n      0x03\n      add\n      0x00\n      swap1\n      sload\n      swap1\n      0x0100\n      exp\n      swap1\n      div\n      0xffffffffffffffffffffffffffffffffffffffff\n      and\n        /* \"contracts/Marketplace.sol\":3586:3621  _idToNFT[i + 1].owner == msg.sender */\n      0xffffffffffffffffffffffffffffffffffffffff\n      and\n      sub\n        /* \"contracts/Marketplace.sol\":3582:3699  if (_idToNFT[i + 1].owner == msg.sender) {... */\n      tag_59\n      jumpi\n        /* \"contracts/Marketplace.sol\":3652:3660  _idToNFT */\n      0x05\n        /* \"contracts/Marketplace.sol\":3652:3667  _idToNFT[i + 1] */\n      0x00\n        /* \"contracts/Marketplace.sol\":3665:3666  1 */\n      0x01\n        /* \"contracts/Marketplace.sol\":3661:3662  i */\n      dup4\n        /* \"contracts/Marketplace.sol\":3661:3666  i + 1 */\n      tag_60\n      swap2\n      swap1\n      tag_44\n      jump\t// in\n    tag_60:\n        /* \"contracts/Marketplace.sol\":3652:3667  _idToNFT[i + 1] */\n      dup2\n      mstore\n      0x20\n      add\n      swap1\n      dup2\n      mstore\n      0x20\n      add\n      0x00\n      keccak256\n        /* \"contracts/Marketplace.sol\":3634:3667  nfts[nftsIndex] = _idToNFT[i + 1] */\n      mload(0x40)\n      dup1\n      0xc0\n      add\n      0x40\n      mstore\n      swap1\n      dup2\n      0x00\n      dup3\n      add\n      0x00\n      swap1\n      sload\n      swap1\n      0x0100\n      exp\n      swap1\n      div\n      0xffffffffffffffffffffffffffffffffffffffff\n      and\n      0xffffffffffffffffffffffffffffffffffffffff\n      and\n      0xffffffffffffffffffffffffffffffffffffffff\n      and\n      dup2\n      mstore\n      0x20\n      add\n      0x01\n      dup3\n      add\n      sload\n      dup2\n      mstore\n      0x20\n      add\n      0x02\n      dup3\n      add\n      0x00\n      swap1\n      sload\n      swap1\n      0x0100\n      exp\n      swap1\n      div\n      0xffffffffffffffffffffffffffffffffffffffff\n      and\n      0xffffffffffffffffffffffffffffffffffffffff\n      and\n      0xffffffffffffffffffffffffffffffffffffffff\n      and\n      dup2\n      mstore\n      0x20\n      add\n      0x03\n      dup3\n      add\n      0x00\n      swap1\n      sload\n      swap1\n      0x0100\n      exp\n      swap1\n      div\n      0xffffffffffffffffffffffffffffffffffffffff\n      and\n      0xffffffffffffffffffffffffffffffffffffffff\n      and\n      0xffffffffffffffffffffffffffffffffffffffff\n      and\n      dup2\n      mstore\n      0x20\n      add\n      0x04\n      dup3\n      add\n      sload\n      dup2\n      mstore\n      0x20\n      add\n      0x05\n      dup3\n      add\n      0x00\n      swap1\n      sload\n      swap1\n      0x0100\n      exp\n      swap1\n      div\n      0xff\n      and\n      iszero\n      iszero\n      iszero\n      iszero\n      dup2\n      mstore\n      pop\n      pop\n        /* \"contracts/Marketplace.sol\":3634:3638  nfts */\n      dup4\n        /* \"contracts/Marketplace.sol\":3639:3648  nftsIndex */\n      dup4\n        /* \"contracts/Marketplace.sol\":3634:3649  nfts[nftsIndex] */\n      dup2\n      mload\n      dup2\n      lt\n      tag_61\n      jumpi\n      tag_62\n      tag_63\n      jump\t// in\n    tag_62:\n    tag_61:\n      0x20\n      mul\n      0x20\n      add\n      add\n        /* \"contracts/Marketplace.sol\":3634:3667  nfts[nftsIndex] = _idToNFT[i + 1] */\n      dup2\n      swap1\n      mstore\n      pop\n        /* \"contracts/Marketplace.sol\":3678:3689  nftsIndex++ */\n      dup2\n      dup1\n      tag_64\n      swap1\n      tag_47\n      jump\t// in\n    tag_64:\n      swap3\n      pop\n      pop\n        /* \"contracts/Marketplace.sol\":3582:3699  if (_idToNFT[i + 1].owner == msg.sender) {... */\n    tag_59:\n        /* \"contracts/Marketplace.sol\":3568:3571  i++ */\n      dup1\n      dup1\n      0x01\n      add\n      swap2\n      pop\n      pop\n        /* \"contracts/Marketplace.sol\":3537:3706  for (uint i = 0; i < nftCount; i++) {... */\n      jump(tag_55)\n    tag_56:\n      pop\n        /* \"contracts/Marketplace.sol\":3719:3723  nfts */\n      dup2\n        /* \"contracts/Marketplace.sol\":3712:3723  return nfts */\n      swap5\n      pop\n      pop\n      pop\n      pop\n      pop\n        /* \"contracts/Marketplace.sol\":3209:3729  function getMyNfts() public view returns (NFT[] memory) {... */\n      swap1\n      jump\t// out\n        /* \"contracts/Marketplace.sol\":3735:4333  function getMyListedNfts() public view returns (NFT[] memory) {... */\n    tag_17:\n        /* \"contracts/Marketplace.sol\":3783:3795  NFT[] memory */\n      0x60\n        /* \"contracts/Marketplace.sol\":3804:3817  uint nftCount */\n      0x00\n        /* \"contracts/Marketplace.sol\":3820:3829  _nftCount */\n      sload(0x02)\n        /* \"contracts/Marketplace.sol\":3804:3829  uint nftCount = _nftCount */\n      swap1\n      pop\n        /* \"contracts/Marketplace.sol\":3836:3857  uint myListedNftCount */\n      0x00\n        /* \"contracts/Marketplace.sol\":3873:3879  uint i */\n      dup1\n        /* \"contracts/Marketplace.sol\":3868:4027  for (uint i = 0; i < nftCount; i++) {... */\n    tag_66:\n        /* \"contracts/Marketplace.sol\":3889:3897  nftCount */\n      dup3\n        /* \"contracts/Marketplace.sol\":3885:3886  i */\n      dup2\n        /* \"contracts/Marketplace.sol\":3885:3897  i < nftCount */\n      lt\n        /* \"contracts/Marketplace.sol\":3868:4027  for (uint i = 0; i < nftCount; i++) {... */\n      iszero\n      tag_67\n      jumpi\n        /* \"contracts/Marketplace.sol\":3943:3953  msg.sender */\n      caller\n        /* \"contracts/Marketplace.sol\":3917:3953  _idToNFT[i + 1].seller == msg.sender */\n      0xffffffffffffffffffffffffffffffffffffffff\n      and\n        /* \"contracts/Marketplace.sol\":3917:3925  _idToNFT */\n      0x05\n        /* \"contracts/Marketplace.sol\":3917:3932  _idToNFT[i + 1] */\n      0x00\n        /* \"contracts/Marketplace.sol\":3930:3931  1 */\n      0x01\n        /* \"contracts/Marketplace.sol\":3926:3927  i */\n      dup5\n        /* \"contracts/Marketplace.sol\":3926:3931  i + 1 */\n      tag_69\n      swap2\n      swap1\n      tag_44\n      jump\t// in\n    tag_69:\n        /* \"contracts/Marketplace.sol\":3917:3932  _idToNFT[i + 1] */\n      dup2\n      mstore\n      0x20\n      add\n      swap1\n      dup2\n      mstore\n      0x20\n      add\n      0x00\n      keccak256\n        /* \"contracts/Marketplace.sol\":3917:3939  _idToNFT[i + 1].seller */\n      0x02\n      add\n      0x00\n      swap1\n      sload\n      swap1\n      0x0100\n      exp\n      swap1\n      div\n      0xffffffffffffffffffffffffffffffffffffffff\n      and\n        /* \"contracts/Marketplace.sol\":3917:3953  _idToNFT[i + 1].seller == msg.sender */\n      0xffffffffffffffffffffffffffffffffffffffff\n      and\n      eq\n        /* \"contracts/Marketplace.sol\":3917:3979  _idToNFT[i + 1].seller == msg.sender && _idToNFT[i + 1].listed */\n      dup1\n      iszero\n      tag_70\n      jumpi\n      pop\n        /* \"contracts/Marketplace.sol\":3957:3965  _idToNFT */\n      0x05\n        /* \"contracts/Marketplace.sol\":3957:3972  _idToNFT[i + 1] */\n      0x00\n        /* \"contracts/Marketplace.sol\":3970:3971  1 */\n      0x01\n        /* \"contracts/Marketplace.sol\":3966:3967  i */\n      dup4\n        /* \"contracts/Marketplace.sol\":3966:3971  i + 1 */\n      tag_71\n      swap2\n      swap1\n      tag_44\n      jump\t// in\n    tag_71:\n        /* \"contracts/Marketplace.sol\":3957:3972  _idToNFT[i + 1] */\n      dup2\n      mstore\n      0x20\n      add\n      swap1\n      dup2\n      mstore\n      0x20\n      add\n      0x00\n      keccak256\n        /* \"contracts/Marketplace.sol\":3957:3979  _idToNFT[i + 1].listed */\n      0x05\n      add\n      0x00\n      swap1\n      sload\n      swap1\n      0x0100\n      exp\n      swap1\n      div\n      0xff\n      and\n        /* \"contracts/Marketplace.sol\":3917:3979  _idToNFT[i + 1].seller == msg.sender && _idToNFT[i + 1].listed */\n    tag_70:\n        /* \"contracts/Marketplace.sol\":3913:4020  if (_idToNFT[i + 1].seller == msg.sender && _idToNFT[i + 1].listed) {... */\n      iszero\n      tag_72\n      jumpi\n        /* \"contracts/Marketplace.sol\":3992:4010  myListedNftCount++ */\n      dup2\n      dup1\n      tag_73\n      swap1\n      tag_47\n      jump\t// in\n    tag_73:\n      swap3\n      pop\n      pop\n        /* \"contracts/Marketplace.sol\":3913:4020  if (_idToNFT[i + 1].seller == msg.sender && _idToNFT[i + 1].listed) {... */\n    tag_72:\n        /* \"contracts/Marketplace.sol\":3899:3902  i++ */\n      dup1\n      dup1\n      0x01\n      add\n      swap2\n      pop\n      pop\n        /* \"contracts/Marketplace.sol\":3868:4027  for (uint i = 0; i < nftCount; i++) {... */\n      jump(tag_66)\n    tag_67:\n      pop\n        /* \"contracts/Marketplace.sol\":4035:4052  NFT[] memory nfts */\n      0x00\n        /* \"contracts/Marketplace.sol\":4065:4081  myListedNftCount */\n      dup2\n        /* \"contracts/Marketplace.sol\":4055:4082  new NFT[](myListedNftCount) */\n      0xffffffffffffffff\n      dup2\n      gt\n      iszero\n      tag_74\n      jumpi\n      tag_75\n      tag_50\n      jump\t// in\n    tag_75:\n    tag_74:\n      mload(0x40)\n      swap1\n      dup1\n      dup3\n      mstore\n      dup1\n      0x20\n      mul\n      0x20\n      add\n      dup3\n      add\n      0x40\n      mstore\n      dup1\n      iszero\n      tag_76\n      jumpi\n      dup2\n      0x20\n      add\n    tag_77:\n      tag_78\n      tag_54\n      jump\t// in\n    tag_78:\n      dup2\n      mstore\n      0x20\n      add\n      swap1\n      0x01\n      swap1\n      sub\n      swap1\n      dup2\n      tag_77\n      jumpi\n      swap1\n      pop\n    tag_76:\n      pop\n        /* \"contracts/Marketplace.sol\":4035:4082  NFT[] memory nfts = new NFT[](myListedNftCount) */\n      swap1\n      pop\n        /* \"contracts/Marketplace.sol\":4089:4103  uint nftsIndex */\n      0x00\n        /* \"contracts/Marketplace.sol\":4119:4125  uint i */\n      dup1\n        /* \"contracts/Marketplace.sol\":4114:4310  for (uint i = 0; i < nftCount; i++) {... */\n    tag_79:\n        /* \"contracts/Marketplace.sol\":4135:4143  nftCount */\n      dup5\n        /* \"contracts/Marketplace.sol\":4131:4132  i */\n      dup2\n        /* \"contracts/Marketplace.sol\":4131:4143  i < nftCount */\n      lt\n        /* \"contracts/Marketplace.sol\":4114:4310  for (uint i = 0; i < nftCount; i++) {... */\n      iszero\n      tag_80\n      jumpi\n        /* \"contracts/Marketplace.sol\":4189:4199  msg.sender */\n      caller\n        /* \"contracts/Marketplace.sol\":4163:4199  _idToNFT[i + 1].seller == msg.sender */\n      0xffffffffffffffffffffffffffffffffffffffff\n      and\n        /* \"contracts/Marketplace.sol\":4163:4171  _idToNFT */\n      0x05\n        /* \"contracts/Marketplace.sol\":4163:4178  _idToNFT[i + 1] */\n      0x00\n        /* \"contracts/Marketplace.sol\":4176:4177  1 */\n      0x01\n        /* \"contracts/Marketplace.sol\":4172:4173  i */\n      dup5\n        /* \"contracts/Marketplace.sol\":4172:4177  i + 1 */\n      tag_82\n      swap2\n      swap1\n      tag_44\n      jump\t// in\n    tag_82:\n        /* \"contracts/Marketplace.sol\":4163:4178  _idToNFT[i + 1] */\n      dup2\n      mstore\n      0x20\n      add\n      swap1\n      dup2\n      mstore\n      0x20\n      add\n      0x00\n      keccak256\n        /* \"contracts/Marketplace.sol\":4163:4185  _idToNFT[i + 1].seller */\n      0x02\n      add\n      0x00\n      swap1\n      sload\n      swap1\n      0x0100\n      exp\n      swap1\n      div\n      0xffffffffffffffffffffffffffffffffffffffff\n      and\n        /* \"contracts/Marketplace.sol\":4163:4199  _idToNFT[i + 1].seller == msg.sender */\n      0xffffffffffffffffffffffffffffffffffffffff\n      and\n      eq\n        /* \"contracts/Marketplace.sol\":4163:4225  _idToNFT[i + 1].seller == msg.sender && _idToNFT[i + 1].listed */\n      dup1\n      iszero\n      tag_83\n      jumpi\n      pop\n        /* \"contracts/Marketplace.sol\":4203:4211  _idToNFT */\n      0x05\n        /* \"contracts/Marketplace.sol\":4203:4218  _idToNFT[i + 1] */\n      0x00\n        /* \"contracts/Marketplace.sol\":4216:4217  1 */\n      0x01\n        /* \"contracts/Marketplace.sol\":4212:4213  i */\n      dup4\n        /* \"contracts/Marketplace.sol\":4212:4217  i + 1 */\n      tag_84\n      swap2\n      swap1\n      tag_44\n      jump\t// in\n    tag_84:\n        /* \"contracts/Marketplace.sol\":4203:4218  _idToNFT[i + 1] */\n      dup2\n      mstore\n      0x20\n      add\n      swap1\n      dup2\n      mstore\n      0x20\n      add\n      0x00\n      keccak256\n        /* \"contracts/Marketplace.sol\":4203:4225  _idToNFT[i + 1].listed */\n      0x05\n      add\n      0x00\n      swap1\n      sload\n      swap1\n      0x0100\n      exp\n      swap1\n      div\n      0xff\n      and\n        /* \"contracts/Marketplace.sol\":4163:4225  _idToNFT[i + 1].seller == msg.sender && _idToNFT[i + 1].listed */\n    tag_83:\n        /* \"contracts/Marketplace.sol\":4159:4303  if (_idToNFT[i + 1].seller == msg.sender && _idToNFT[i + 1].listed) {... */\n      iszero\n      tag_85\n      jumpi\n        /* \"contracts/Marketplace.sol\":4256:4264  _idToNFT */\n      0x05\n        /* \"contracts/Marketplace.sol\":4256:4271  _idToNFT[i + 1] */\n      0x00\n        /* \"contracts/Marketplace.sol\":4269:4270  1 */\n      0x01\n        /* \"contracts/Marketplace.sol\":4265:4266  i */\n      dup4\n        /* \"contracts/Marketplace.sol\":4265:4270  i + 1 */\n      tag_86\n      swap2\n      swap1\n      tag_44\n      jump\t// in\n    tag_86:\n        /* \"contracts/Marketplace.sol\":4256:4271  _idToNFT[i + 1] */\n      dup2\n      mstore\n      0x20\n      add\n      swap1\n      dup2\n      mstore\n      0x20\n      add\n      0x00\n      keccak256\n        /* \"contracts/Marketplace.sol\":4238:4271  nfts[nftsIndex] = _idToNFT[i + 1] */\n      mload(0x40)\n      dup1\n      0xc0\n      add\n      0x40\n      mstore\n      swap1\n      dup2\n      0x00\n      dup3\n      add\n      0x00\n      swap1\n      sload\n      swap1\n      0x0100\n      exp\n      swap1\n      div\n      0xffffffffffffffffffffffffffffffffffffffff\n      and\n      0xffffffffffffffffffffffffffffffffffffffff\n      and\n      0xffffffffffffffffffffffffffffffffffffffff\n      and\n      dup2\n      mstore\n      0x20\n      add\n      0x01\n      dup3\n      add\n      sload\n      dup2\n      mstore\n      0x20\n      add\n      0x02\n      dup3\n      add\n      0x00\n      swap1\n      sload\n      swap1\n      0x0100\n      exp\n      swap1\n      div\n      0xffffffffffffffffffffffffffffffffffffffff\n      and\n      0xffffffffffffffffffffffffffffffffffffffff\n      and\n      0xffffffffffffffffffffffffffffffffffffffff\n      and\n      dup2\n      mstore\n      0x20\n      add\n      0x03\n      dup3\n      add\n      0x00\n      swap1\n      sload\n      swap1\n      0x0100\n      exp\n      swap1\n      div\n      0xffffffffffffffffffffffffffffffffffffffff\n      and\n      0xffffffffffffffffffffffffffffffffffffffff\n      and\n      0xffffffffffffffffffffffffffffffffffffffff\n      and\n      dup2\n      mstore\n      0x20\n      add\n      0x04\n      dup3\n      add\n      sload\n      dup2\n      mstore\n      0x20\n      add\n      0x05\n      dup3\n      add\n      0x00\n      swap1\n      sload\n      swap1\n      0x0100\n      exp\n      swap1\n      div\n      0xff\n      and\n      iszero\n      iszero\n      iszero\n      iszero\n      dup2\n      mstore\n      pop\n      pop\n        /* \"contracts/Marketplace.sol\":4238:4242  nfts */\n      dup4\n        /* \"contracts/Marketplace.sol\":4243:4252  nftsIndex */\n      dup4\n        /* \"contracts/Marketplace.sol\":4238:4253  nfts[nftsIndex] */\n      dup2\n      mload\n      dup2\n      lt\n      tag_87\n      jumpi\n      tag_88\n      tag_63\n      jump\t// in\n    tag_88:\n    tag_87:\n      0x20\n      mul\n      0x20\n      add\n      add\n        /* \"contracts/Marketplace.sol\":4238:4271  nfts[nftsIndex] = _idToNFT[i + 1] */\n      dup2\n      swap1\n      mstore\n      pop\n        /* \"contracts/Marketplace.sol\":4282:4293  nftsIndex++ */\n      dup2\n      dup1\n      tag_89\n      swap1\n      tag_47\n      jump\t// in\n    tag_89:\n      swap3\n      pop\n      pop\n        /* \"contracts/Marketplace.sol\":4159:4303  if (_idToNFT[i + 1].seller == msg.sender && _idToNFT[i + 1].listed) {... */\n    tag_85:\n        /* \"contracts/Marketplace.sol\":4145:4148  i++ */\n      dup1\n      dup1\n      0x01\n      add\n      swap2\n      pop\n      pop\n        /* \"contracts/Marketplace.sol\":4114:4310  for (uint i = 0; i < nftCount; i++) {... */\n      jump(tag_79)\n    tag_80:\n      pop\n        /* \"contracts/Marketplace.sol\":4323:4327  nfts */\n      dup2\n        /* \"contracts/Marketplace.sol\":4316:4327  return nfts */\n      swap5\n      pop\n      pop\n      pop\n      pop\n      pop\n        /* \"contracts/Marketplace.sol\":3735:4333  function getMyListedNfts() public view returns (NFT[] memory) {... */\n      swap1\n      jump\t// out\n        /* \"contracts/Marketplace.sol\":288:318  uint256 public LISTING_FEE = 0 */\n    tag_21:\n      sload(0x03)\n      dup2\n      jump\t// out\n        /* \"contracts/Marketplace.sol\":2186:2783  function resellNft(address _nftContract, uint256 _tokenId, uint256 _price) public payable nonReentrant {... */\n    tag_27:\n        /* \"@openzeppelin/contracts/utils/ReentrancyGuard.sol\":2411:2432  _nonReentrantBefore() */\n      tag_91\n        /* \"@openzeppelin/contracts/utils/ReentrancyGuard.sol\":2411:2430  _nonReentrantBefore */\n      tag_92\n        /* \"@openzeppelin/contracts/utils/ReentrancyGuard.sol\":2411:2432  _nonReentrantBefore() */\n      jump\t// in\n    tag_91:\n        /* \"contracts/Marketplace.sol\":2313:2314  0 */\n      0x00\n        /* \"contracts/Marketplace.sol\":2304:2310  _price */\n      dup2\n        /* \"contracts/Marketplace.sol\":2304:2314  _price > 0 */\n      gt\n        /* \"contracts/Marketplace.sol\":2296:2347  require(_price > 0, \"Price must be at least 1 wei\") */\n      tag_94\n      jumpi\n      mload(0x40)\n      0x08c379a000000000000000000000000000000000000000000000000000000000\n      dup2\n      mstore\n      0x04\n      add\n      tag_95\n      swap1\n      tag_96\n      jump\t// in\n    tag_95:\n      mload(0x40)\n      dup1\n      swap2\n      sub\n      swap1\n      revert\n    tag_94:\n        /* \"contracts/Marketplace.sol\":2375:2386  LISTING_FEE */\n      sload(0x03)\n        /* \"contracts/Marketplace.sol\":2362:2371  msg.value */\n      callvalue\n        /* \"contracts/Marketplace.sol\":2362:2386  msg.value == LISTING_FEE */\n      eq\n        /* \"contracts/Marketplace.sol\":2354:2423  require(msg.value == LISTING_FEE, \"Not enough ether for listing fee\") */\n      tag_97\n      jumpi\n      mload(0x40)\n      0x08c379a000000000000000000000000000000000000000000000000000000000\n      dup2\n      mstore\n      0x04\n      add\n      tag_98\n      swap1\n      tag_99\n      jump\t// in\n    tag_98:\n      mload(0x40)\n      dup1\n      swap2\n      sub\n      swap1\n      revert\n    tag_97:\n        /* \"contracts/Marketplace.sol\":2440:2452  _nftContract */\n      dup3\n        /* \"contracts/Marketplace.sol\":2432:2466  IERC721(_nftContract).transferFrom */\n      0xffffffffffffffffffffffffffffffffffffffff\n      and\n      0x23b872dd\n        /* \"contracts/Marketplace.sol\":2467:2477  msg.sender */\n      caller\n        /* \"contracts/Marketplace.sol\":2487:2491  this */\n      address\n        /* \"contracts/Marketplace.sol\":2494:2502  _tokenId */\n      dup6\n        /* \"contracts/Marketplace.sol\":2432:2503  IERC721(_nftContract).transferFrom(msg.sender, address(this), _tokenId) */\n      mload(0x40)\n      dup5\n      0xffffffff\n      and\n      0xe0\n      shl\n      dup2\n      mstore\n      0x04\n      add\n      tag_100\n      swap4\n      swap3\n      swap2\n      swap1\n      tag_101\n      jump\t// in\n    tag_100:\n      0x00\n      mload(0x40)\n      dup1\n      dup4\n      sub\n      dup2\n      0x00\n      dup8\n      dup1\n      extcodesize\n      iszero\n      dup1\n      iszero\n      tag_102\n      jumpi\n      0x00\n      dup1\n      revert\n    tag_102:\n      pop\n      gas\n      call\n      iszero\n      dup1\n      iszero\n      tag_104\n      jumpi\n      returndatasize\n      0x00\n      dup1\n      returndatacopy\n      revert(0x00, returndatasize)\n    tag_104:\n      pop\n      pop\n      pop\n      pop\n        /* \"contracts/Marketplace.sol\":2512:2527  NFT storage nft */\n      0x00\n        /* \"contracts/Marketplace.sol\":2530:2538  _idToNFT */\n      0x05\n        /* \"contracts/Marketplace.sol\":2530:2548  _idToNFT[_tokenId] */\n      0x00\n        /* \"contracts/Marketplace.sol\":2539:2547  _tokenId */\n      dup5\n        /* \"contracts/Marketplace.sol\":2530:2548  _idToNFT[_tokenId] */\n      dup2\n      mstore\n      0x20\n      add\n      swap1\n      dup2\n      mstore\n      0x20\n      add\n      0x00\n      keccak256\n        /* \"contracts/Marketplace.sol\":2512:2548  NFT storage nft = _idToNFT[_tokenId] */\n      swap1\n      pop\n        /* \"contracts/Marketplace.sol\":2576:2586  msg.sender */\n      caller\n        /* \"contracts/Marketplace.sol\":2555:2558  nft */\n      dup2\n        /* \"contracts/Marketplace.sol\":2555:2565  nft.seller */\n      0x02\n      add\n      0x00\n        /* \"contracts/Marketplace.sol\":2555:2587  nft.seller = payable(msg.sender) */\n      0x0100\n      exp\n      dup2\n      sload\n      dup2\n      0xffffffffffffffffffffffffffffffffffffffff\n      mul\n      not\n      and\n      swap1\n      dup4\n      0xffffffffffffffffffffffffffffffffffffffff\n      and\n      mul\n      or\n      swap1\n      sstore\n      pop\n        /* \"contracts/Marketplace.sol\":2622:2626  this */\n      address\n        /* \"contracts/Marketplace.sol\":2594:2597  nft */\n      dup2\n        /* \"contracts/Marketplace.sol\":2594:2603  nft.owner */\n      0x03\n      add\n      0x00\n        /* \"contracts/Marketplace.sol\":2594:2628  nft.owner = payable(address(this)) */\n      0x0100\n      exp\n      dup2\n      sload\n      dup2\n      0xffffffffffffffffffffffffffffffffffffffff\n      mul\n      not\n      and\n      swap1\n      dup4\n      0xffffffffffffffffffffffffffffffffffffffff\n      and\n      mul\n      or\n      swap1\n      sstore\n      pop\n        /* \"contracts/Marketplace.sol\":2648:2652  true */\n      0x01\n        /* \"contracts/Marketplace.sol\":2635:2638  nft */\n      dup2\n        /* \"contracts/Marketplace.sol\":2635:2645  nft.listed */\n      0x05\n      add\n      0x00\n        /* \"contracts/Marketplace.sol\":2635:2652  nft.listed = true */\n      0x0100\n      exp\n      dup2\n      sload\n      dup2\n      0xff\n      mul\n      not\n      and\n      swap1\n      dup4\n      iszero\n      iszero\n      mul\n      or\n      swap1\n      sstore\n      pop\n        /* \"contracts/Marketplace.sol\":2671:2677  _price */\n      dup2\n        /* \"contracts/Marketplace.sol\":2659:2662  nft */\n      dup2\n        /* \"contracts/Marketplace.sol\":2659:2668  nft.price */\n      0x04\n      add\n        /* \"contracts/Marketplace.sol\":2659:2677  nft.price = _price */\n      dup2\n      swap1\n      sstore\n      pop\n        /* \"contracts/Marketplace.sol\":2686:2695  _nftsSold */\n      0x01\n      0x00\n        /* \"contracts/Marketplace.sol\":2686:2697  _nftsSold-- */\n      dup2\n      sload\n      dup1\n      swap3\n      swap2\n      swap1\n      tag_105\n      swap1\n      tag_106\n      jump\t// in\n    tag_105:\n      swap2\n      swap1\n      pop\n      sstore\n      pop\n        /* \"contracts/Marketplace.sol\":2709:2777  NFTListed(_nftContract, _tokenId, msg.sender, address(this), _price) */\n      0xa0c6c0d02d86fdacecbaa5fdf5894bab204e31a778250474108540733a9b8d19\n        /* \"contracts/Marketplace.sol\":2719:2731  _nftContract */\n      dup5\n        /* \"contracts/Marketplace.sol\":2733:2741  _tokenId */\n      dup5\n        /* \"contracts/Marketplace.sol\":2743:2753  msg.sender */\n      caller\n        /* \"contracts/Marketplace.sol\":2763:2767  this */\n      address\n        /* \"contracts/Marketplace.sol\":2770:2776  _price */\n      dup7\n        /* \"contracts/Marketplace.sol\":2709:2777  NFTListed(_nftContract, _tokenId, msg.sender, address(this), _price) */\n      mload(0x40)\n      tag_107\n      swap6\n      swap5\n      swap4\n      swap3\n      swap2\n      swap1\n      tag_108\n      jump\t// in\n    tag_107:\n      mload(0x40)\n      dup1\n      swap2\n      sub\n      swap1\n      log1\n        /* \"contracts/Marketplace.sol\":2289:2783  {... */\n      pop\n        /* \"@openzeppelin/contracts/utils/ReentrancyGuard.sol\":2455:2475  _nonReentrantAfter() */\n      tag_109\n        /* \"@openzeppelin/contracts/utils/ReentrancyGuard.sol\":2455:2473  _nonReentrantAfter */\n      tag_110\n        /* \"@openzeppelin/contracts/utils/ReentrancyGuard.sol\":2455:2475  _nonReentrantAfter() */\n      jump\t// in\n    tag_109:\n        /* \"contracts/Marketplace.sol\":2186:2783  function resellNft(address _nftContract, uint256 _tokenId, uint256 _price) public payable nonReentrant {... */\n      pop\n      pop\n      pop\n      jump\t// out\n        /* \"contracts/Marketplace.sol\":1597:2129  function buyNft(address _nftContract, uint256 _tokenId) public payable nonReentrant {... */\n    tag_31:\n        /* \"@openzeppelin/contracts/utils/ReentrancyGuard.sol\":2411:2432  _nonReentrantBefore() */\n      tag_112\n        /* \"@openzeppelin/contracts/utils/ReentrancyGuard.sol\":2411:2430  _nonReentrantBefore */\n      tag_92\n        /* \"@openzeppelin/contracts/utils/ReentrancyGuard.sol\":2411:2432  _nonReentrantBefore() */\n      jump\t// in\n    tag_112:\n        /* \"contracts/Marketplace.sol\":1688:1703  NFT storage nft */\n      0x00\n        /* \"contracts/Marketplace.sol\":1706:1714  _idToNFT */\n      0x05\n        /* \"contracts/Marketplace.sol\":1706:1724  _idToNFT[_tokenId] */\n      0x00\n        /* \"contracts/Marketplace.sol\":1715:1723  _tokenId */\n      dup4\n        /* \"contracts/Marketplace.sol\":1706:1724  _idToNFT[_tokenId] */\n      dup2\n      mstore\n      0x20\n      add\n      swap1\n      dup2\n      mstore\n      0x20\n      add\n      0x00\n      keccak256\n        /* \"contracts/Marketplace.sol\":1688:1724  NFT storage nft = _idToNFT[_tokenId] */\n      swap1\n      pop\n        /* \"contracts/Marketplace.sol\":1752:1755  nft */\n      dup1\n        /* \"contracts/Marketplace.sol\":1752:1761  nft.price */\n      0x04\n      add\n      sload\n        /* \"contracts/Marketplace.sol\":1739:1748  msg.value */\n      callvalue\n        /* \"contracts/Marketplace.sol\":1739:1761  msg.value >= nft.price */\n      lt\n      iszero\n        /* \"contracts/Marketplace.sol\":1731:1804  require(msg.value >= nft.price, \"Not enough ether to cover asking price\") */\n      tag_114\n      jumpi\n      mload(0x40)\n      0x08c379a000000000000000000000000000000000000000000000000000000000\n      dup2\n      mstore\n      0x04\n      add\n      tag_115\n      swap1\n      tag_116\n      jump\t// in\n    tag_115:\n      mload(0x40)\n      dup1\n      swap2\n      sub\n      swap1\n      revert\n    tag_114:\n        /* \"contracts/Marketplace.sol\":1813:1834  address payable buyer */\n      0x00\n        /* \"contracts/Marketplace.sol\":1845:1855  msg.sender */\n      caller\n        /* \"contracts/Marketplace.sol\":1813:1856  address payable buyer = payable(msg.sender) */\n      swap1\n      pop\n        /* \"contracts/Marketplace.sol\":1871:1874  nft */\n      dup2\n        /* \"contracts/Marketplace.sol\":1871:1881  nft.seller */\n      0x02\n      add\n      0x00\n      swap1\n      sload\n      swap1\n      0x0100\n      exp\n      swap1\n      div\n      0xffffffffffffffffffffffffffffffffffffffff\n      and\n        /* \"contracts/Marketplace.sol\":1863:1891  payable(nft.seller).transfer */\n      0xffffffffffffffffffffffffffffffffffffffff\n      and\n        /* \"contracts/Marketplace.sol\":1863:1902  payable(nft.seller).transfer(msg.value) */\n      0x08fc\n        /* \"contracts/Marketplace.sol\":1892:1901  msg.value */\n      callvalue\n        /* \"contracts/Marketplace.sol\":1863:1902  payable(nft.seller).transfer(msg.value) */\n      swap1\n      dup2\n      iszero\n      mul\n      swap1\n      mload(0x40)\n      0x00\n      mload(0x40)\n      dup1\n      dup4\n      sub\n      dup2\n      dup6\n      dup9\n      dup9\n      call\n      swap4\n      pop\n      pop\n      pop\n      pop\n      iszero\n      dup1\n      iszero\n      tag_118\n      jumpi\n      returndatasize\n      0x00\n      dup1\n      returndatacopy\n      revert(0x00, returndatasize)\n    tag_118:\n      pop\n        /* \"contracts/Marketplace.sol\":1917:1929  _nftContract */\n      dup4\n        /* \"contracts/Marketplace.sol\":1909:1943  IERC721(_nftContract).transferFrom */\n      0xffffffffffffffffffffffffffffffffffffffff\n      and\n      0x23b872dd\n        /* \"contracts/Marketplace.sol\":1952:1956  this */\n      address\n        /* \"contracts/Marketplace.sol\":1959:1964  buyer */\n      dup4\n        /* \"contracts/Marketplace.sol\":1966:1969  nft */\n      dup6\n        /* \"contracts/Marketplace.sol\":1966:1977  nft.tokenId */\n      0x01\n      add\n      sload\n        /* \"contracts/Marketplace.sol\":1909:1978  IERC721(_nftContract).transferFrom(address(this), buyer, nft.tokenId) */\n      mload(0x40)\n      dup5\n      0xffffffff\n      and\n      0xe0\n      shl\n      dup2\n      mstore\n      0x04\n      add\n      tag_119\n      swap4\n      swap3\n      swap2\n      swap1\n      tag_120\n      jump\t// in\n    tag_119:\n      0x00\n      mload(0x40)\n      dup1\n      dup4\n      sub\n      dup2\n      0x00\n      dup8\n      dup1\n      extcodesize\n      iszero\n      dup1\n      iszero\n      tag_121\n      jumpi\n      0x00\n      dup1\n      revert\n    tag_121:\n      pop\n      gas\n      call\n      iszero\n      dup1\n      iszero\n      tag_123\n      jumpi\n      returndatasize\n      0x00\n      dup1\n      returndatacopy\n      revert(0x00, returndatasize)\n    tag_123:\n      pop\n      pop\n      pop\n      pop\n        /* \"contracts/Marketplace.sol\":1997:2002  buyer */\n      dup1\n        /* \"contracts/Marketplace.sol\":1985:1988  nft */\n      dup3\n        /* \"contracts/Marketplace.sol\":1985:1994  nft.owner */\n      0x03\n      add\n      0x00\n        /* \"contracts/Marketplace.sol\":1985:2002  nft.owner = buyer */\n      0x0100\n      exp\n      dup2\n      sload\n      dup2\n      0xffffffffffffffffffffffffffffffffffffffff\n      mul\n      not\n      and\n      swap1\n      dup4\n      0xffffffffffffffffffffffffffffffffffffffff\n      and\n      mul\n      or\n      swap1\n      sstore\n      pop\n        /* \"contracts/Marketplace.sol\":2022:2027  false */\n      0x00\n        /* \"contracts/Marketplace.sol\":2009:2012  nft */\n      dup3\n        /* \"contracts/Marketplace.sol\":2009:2019  nft.listed */\n      0x05\n      add\n      0x00\n        /* \"contracts/Marketplace.sol\":2009:2027  nft.listed = false */\n      0x0100\n      exp\n      dup2\n      sload\n      dup2\n      0xff\n      mul\n      not\n      and\n      swap1\n      dup4\n      iszero\n      iszero\n      mul\n      or\n      swap1\n      sstore\n      pop\n        /* \"contracts/Marketplace.sol\":2036:2045  _nftsSold */\n      0x01\n      0x00\n        /* \"contracts/Marketplace.sol\":2036:2047  _nftsSold++ */\n      dup2\n      sload\n      dup1\n      swap3\n      swap2\n      swap1\n      tag_124\n      swap1\n      tag_47\n      jump\t// in\n    tag_124:\n      swap2\n      swap1\n      pop\n      sstore\n      pop\n        /* \"contracts/Marketplace.sol\":2059:2123  NFTSold(_nftContract, nft.tokenId, nft.seller, buyer, msg.value) */\n      0x16f1dbd97e6bf646d429ed186cce832f1f7fd9907814293b83181e9970ab7bd2\n        /* \"contracts/Marketplace.sol\":2067:2079  _nftContract */\n      dup5\n        /* \"contracts/Marketplace.sol\":2081:2084  nft */\n      dup4\n        /* \"contracts/Marketplace.sol\":2081:2092  nft.tokenId */\n      0x01\n      add\n      sload\n        /* \"contracts/Marketplace.sol\":2094:2097  nft */\n      dup5\n        /* \"contracts/Marketplace.sol\":2094:2104  nft.seller */\n      0x02\n      add\n      0x00\n      swap1\n      sload\n      swap1\n      0x0100\n      exp\n      swap1\n      div\n      0xffffffffffffffffffffffffffffffffffffffff\n      and\n        /* \"contracts/Marketplace.sol\":2106:2111  buyer */\n      dup5\n        /* \"contracts/Marketplace.sol\":2113:2122  msg.value */\n      callvalue\n        /* \"contracts/Marketplace.sol\":2059:2123  NFTSold(_nftContract, nft.tokenId, nft.seller, buyer, msg.value) */\n      mload(0x40)\n      tag_125\n      swap6\n      swap5\n      swap4\n      swap3\n      swap2\n      swap1\n      tag_126\n      jump\t// in\n    tag_125:\n      mload(0x40)\n      dup1\n      swap2\n      sub\n      swap1\n      log1\n        /* \"contracts/Marketplace.sol\":1681:2129  {... */\n      pop\n      pop\n        /* \"@openzeppelin/contracts/utils/ReentrancyGuard.sol\":2455:2475  _nonReentrantAfter() */\n      tag_127\n        /* \"@openzeppelin/contracts/utils/ReentrancyGuard.sol\":2455:2473  _nonReentrantAfter */\n      tag_110\n        /* \"@openzeppelin/contracts/utils/ReentrancyGuard.sol\":2455:2475  _nonReentrantAfter() */\n      jump\t// in\n    tag_127:\n        /* \"contracts/Marketplace.sol\":1597:2129  function buyNft(address _nftContract, uint256 _tokenId) public payable nonReentrant {... */\n      pop\n      pop\n      jump\t// out\n        /* \"contracts/Marketplace.sol\":2789:3203  function getListedNfts() public view returns (NFT[] memory) {... */\n    tag_34:\n        /* \"contracts/Marketplace.sol\":2835:2847  NFT[] memory */\n      0x60\n        /* \"contracts/Marketplace.sol\":2856:2872  uint256 nftCount */\n      0x00\n        /* \"contracts/Marketplace.sol\":2875:2884  _nftCount */\n      sload(0x02)\n        /* \"contracts/Marketplace.sol\":2856:2884  uint256 nftCount = _nftCount */\n      swap1\n      pop\n        /* \"contracts/Marketplace.sol\":2891:2914  uint256 unsoldNftsCount */\n      0x00\n        /* \"contracts/Marketplace.sol\":2928:2937  _nftsSold */\n      sload(0x01)\n        /* \"contracts/Marketplace.sol\":2917:2925  nftCount */\n      dup3\n        /* \"contracts/Marketplace.sol\":2917:2937  nftCount - _nftsSold */\n      tag_129\n      swap2\n      swap1\n      tag_130\n      jump\t// in\n    tag_129:\n        /* \"contracts/Marketplace.sol\":2891:2937  uint256 unsoldNftsCount = nftCount - _nftsSold */\n      swap1\n      pop\n        /* \"contracts/Marketplace.sol\":2946:2963  NFT[] memory nfts */\n      0x00\n        /* \"contracts/Marketplace.sol\":2976:2991  unsoldNftsCount */\n      dup2\n        /* \"contracts/Marketplace.sol\":2966:2992  new NFT[](unsoldNftsCount) */\n      0xffffffffffffffff\n      dup2\n      gt\n      iszero\n      tag_131\n      jumpi\n      tag_132\n      tag_50\n      jump\t// in\n    tag_132:\n    tag_131:\n      mload(0x40)\n      swap1\n      dup1\n      dup3\n      mstore\n      dup1\n      0x20\n      mul\n      0x20\n      add\n      dup3\n      add\n      0x40\n      mstore\n      dup1\n      iszero\n      tag_133\n      jumpi\n      dup2\n      0x20\n      add\n    tag_134:\n      tag_135\n      tag_54\n      jump\t// in\n    tag_135:\n      dup2\n      mstore\n      0x20\n      add\n      swap1\n      0x01\n      swap1\n      sub\n      swap1\n      dup2\n      tag_134\n      jumpi\n      swap1\n      pop\n    tag_133:\n      pop\n        /* \"contracts/Marketplace.sol\":2946:2992  NFT[] memory nfts = new NFT[](unsoldNftsCount) */\n      swap1\n      pop\n        /* \"contracts/Marketplace.sol\":2999:3013  uint nftsIndex */\n      0x00\n        /* \"contracts/Marketplace.sol\":3029:3035  uint i */\n      dup1\n        /* \"contracts/Marketplace.sol\":3024:3180  for (uint i = 0; i < nftCount; i++) {... */\n    tag_136:\n        /* \"contracts/Marketplace.sol\":3045:3053  nftCount */\n      dup5\n        /* \"contracts/Marketplace.sol\":3041:3042  i */\n      dup2\n        /* \"contracts/Marketplace.sol\":3041:3053  i < nftCount */\n      lt\n        /* \"contracts/Marketplace.sol\":3024:3180  for (uint i = 0; i < nftCount; i++) {... */\n      iszero\n      tag_137\n      jumpi\n        /* \"contracts/Marketplace.sol\":3073:3081  _idToNFT */\n      0x05\n        /* \"contracts/Marketplace.sol\":3073:3088  _idToNFT[i + 1] */\n      0x00\n        /* \"contracts/Marketplace.sol\":3086:3087  1 */\n      0x01\n        /* \"contracts/Marketplace.sol\":3082:3083  i */\n      dup4\n        /* \"contracts/Marketplace.sol\":3082:3087  i + 1 */\n      tag_139\n      swap2\n      swap1\n      tag_44\n      jump\t// in\n    tag_139:\n        /* \"contracts/Marketplace.sol\":3073:3088  _idToNFT[i + 1] */\n      dup2\n      mstore\n      0x20\n      add\n      swap1\n      dup2\n      mstore\n      0x20\n      add\n      0x00\n      keccak256\n        /* \"contracts/Marketplace.sol\":3073:3095  _idToNFT[i + 1].listed */\n      0x05\n      add\n      0x00\n      swap1\n      sload\n      swap1\n      0x0100\n      exp\n      swap1\n      div\n      0xff\n      and\n        /* \"contracts/Marketplace.sol\":3069:3173  if (_idToNFT[i + 1].listed) {... */\n      iszero\n      tag_140\n      jumpi\n        /* \"contracts/Marketplace.sol\":3126:3134  _idToNFT */\n      0x05\n        /* \"contracts/Marketplace.sol\":3126:3141  _idToNFT[i + 1] */\n      0x00\n        /* \"contracts/Marketplace.sol\":3139:3140  1 */\n      0x01\n        /* \"contracts/Marketplace.sol\":3135:3136  i */\n      dup4\n        /* \"contracts/Marketplace.sol\":3135:3140  i + 1 */\n      tag_141\n      swap2\n      swap1\n      tag_44\n      jump\t// in\n    tag_141:\n        /* \"contracts/Marketplace.sol\":3126:3141  _idToNFT[i + 1] */\n      dup2\n      mstore\n      0x20\n      add\n      swap1\n      dup2\n      mstore\n      0x20\n      add\n      0x00\n      keccak256\n        /* \"contracts/Marketplace.sol\":3108:3141  nfts[nftsIndex] = _idToNFT[i + 1] */\n      mload(0x40)\n      dup1\n      0xc0\n      add\n      0x40\n      mstore\n      swap1\n      dup2\n      0x00\n      dup3\n      add\n      0x00\n      swap1\n      sload\n      swap1\n      0x0100\n      exp\n      swap1\n      div\n      0xffffffffffffffffffffffffffffffffffffffff\n      and\n      0xffffffffffffffffffffffffffffffffffffffff\n      and\n      0xffffffffffffffffffffffffffffffffffffffff\n      and\n      dup2\n      mstore\n      0x20\n      add\n      0x01\n      dup3\n      add\n      sload\n      dup2\n      mstore\n      0x20\n      add\n      0x02\n      dup3\n      add\n      0x00\n      swap1\n      sload\n      swap1\n      0x0100\n      exp\n      swap1\n      div\n      0xffffffffffffffffffffffffffffffffffffffff\n      and\n      0xffffffffffffffffffffffffffffffffffffffff\n      and\n      0xffffffffffffffffffffffffffffffffffffffff\n      and\n      dup2\n      mstore\n      0x20\n      add\n      0x03\n      dup3\n      add\n      0x00\n      swap1\n      sload\n      swap1\n      0x0100\n      exp\n      swap1\n      div\n      0xffffffffffffffffffffffffffffffffffffffff\n      and\n      0xffffffffffffffffffffffffffffffffffffffff\n      and\n      0xffffffffffffffffffffffffffffffffffffffff\n      and\n      dup2\n      mstore\n      0x20\n      add\n      0x04\n      dup3\n      add\n      sload\n      dup2\n      mstore\n      0x20\n      add\n      0x05\n      dup3\n      add\n      0x00\n      swap1\n      sload\n      swap1\n      0x0100\n      exp\n      swap1\n      div\n      0xff\n      and\n      iszero\n      iszero\n      iszero\n      iszero\n      dup2\n      mstore\n      pop\n      pop\n        /* \"contracts/Marketplace.sol\":3108:3112  nfts */\n      dup4\n        /* \"contracts/Marketplace.sol\":3113:3122  nftsIndex */\n      dup4\n        /* \"contracts/Marketplace.sol\":3108:3123  nfts[nftsIndex] */\n      dup2\n      mload\n      dup2\n      lt\n      tag_142\n      jumpi\n      tag_143\n      tag_63\n      jump\t// in\n    tag_143:\n    tag_142:\n      0x20\n      mul\n      0x20\n      add\n      add\n        /* \"contracts/Marketplace.sol\":3108:3141  nfts[nftsIndex] = _idToNFT[i + 1] */\n      dup2\n      swap1\n      mstore\n      pop\n        /* \"contracts/Marketplace.sol\":3152:3163  nftsIndex++ */\n      dup2\n      dup1\n      tag_144\n      swap1\n      tag_47\n      jump\t// in\n    tag_144:\n      swap3\n      pop\n      pop\n        /* \"contracts/Marketplace.sol\":3069:3173  if (_idToNFT[i + 1].listed) {... */\n    tag_140:\n        /* \"contracts/Marketplace.sol\":3055:3058  i++ */\n      dup1\n      dup1\n      0x01\n      add\n      swap2\n      pop\n      pop\n        /* \"contracts/Marketplace.sol\":3024:3180  for (uint i = 0; i < nftCount; i++) {... */\n      jump(tag_136)\n    tag_137:\n      pop\n        /* \"contracts/Marketplace.sol\":3193:3197  nfts */\n      dup2\n        /* \"contracts/Marketplace.sol\":3186:3197  return nfts */\n      swap5\n      pop\n      pop\n      pop\n      pop\n      pop\n        /* \"contracts/Marketplace.sol\":2789:3203  function getListedNfts() public view returns (NFT[] memory) {... */\n      swap1\n      jump\t// out\n        /* \"contracts/Marketplace.sol\":946:1574  function listNft(address _nftContract, uint256 _tokenId, uint256 _price) public payable nonReentrant {... */\n    tag_38:\n        /* \"@openzeppelin/contracts/utils/ReentrancyGuard.sol\":2411:2432  _nonReentrantBefore() */\n      tag_146\n        /* \"@openzeppelin/contracts/utils/ReentrancyGuard.sol\":2411:2430  _nonReentrantBefore */\n      tag_92\n        /* \"@openzeppelin/contracts/utils/ReentrancyGuard.sol\":2411:2432  _nonReentrantBefore() */\n      jump\t// in\n    tag_146:\n        /* \"contracts/Marketplace.sol\":1071:1072  0 */\n      0x00\n        /* \"contracts/Marketplace.sol\":1062:1068  _price */\n      dup2\n        /* \"contracts/Marketplace.sol\":1062:1072  _price > 0 */\n      gt\n        /* \"contracts/Marketplace.sol\":1054:1105  require(_price > 0, \"Price must be at least 1 wei\") */\n      tag_148\n      jumpi\n      mload(0x40)\n      0x08c379a000000000000000000000000000000000000000000000000000000000\n      dup2\n      mstore\n      0x04\n      add\n      tag_149\n      swap1\n      tag_96\n      jump\t// in\n    tag_149:\n      mload(0x40)\n      dup1\n      swap2\n      sub\n      swap1\n      revert\n    tag_148:\n        /* \"contracts/Marketplace.sol\":1133:1144  LISTING_FEE */\n      sload(0x03)\n        /* \"contracts/Marketplace.sol\":1120:1129  msg.value */\n      callvalue\n        /* \"contracts/Marketplace.sol\":1120:1144  msg.value == LISTING_FEE */\n      eq\n        /* \"contracts/Marketplace.sol\":1112:1181  require(msg.value == LISTING_FEE, \"Not enough ether for listing fee\") */\n      tag_150\n      jumpi\n      mload(0x40)\n      0x08c379a000000000000000000000000000000000000000000000000000000000\n      dup2\n      mstore\n      0x04\n      add\n      tag_151\n      swap1\n      tag_99\n      jump\t// in\n    tag_151:\n      mload(0x40)\n      dup1\n      swap2\n      sub\n      swap1\n      revert\n    tag_150:\n        /* \"contracts/Marketplace.sol\":1198:1210  _nftContract */\n      dup3\n        /* \"contracts/Marketplace.sol\":1190:1224  IERC721(_nftContract).transferFrom */\n      0xffffffffffffffffffffffffffffffffffffffff\n      and\n      0x23b872dd\n        /* \"contracts/Marketplace.sol\":1225:1235  msg.sender */\n      caller\n        /* \"contracts/Marketplace.sol\":1245:1249  this */\n      address\n        /* \"contracts/Marketplace.sol\":1252:1260  _tokenId */\n      dup6\n        /* \"contracts/Marketplace.sol\":1190:1261  IERC721(_nftContract).transferFrom(msg.sender, address(this), _tokenId) */\n      mload(0x40)\n      dup5\n      0xffffffff\n      and\n      0xe0\n      shl\n      dup2\n      mstore\n      0x04\n      add\n      tag_152\n      swap4\n      swap3\n      swap2\n      swap1\n      tag_101\n      jump\t// in\n    tag_152:\n      0x00\n      mload(0x40)\n      dup1\n      dup4\n      sub\n      dup2\n      0x00\n      dup8\n      dup1\n      extcodesize\n      iszero\n      dup1\n      iszero\n      tag_153\n      jumpi\n      0x00\n      dup1\n      revert\n    tag_153:\n      pop\n      gas\n      call\n      iszero\n      dup1\n      iszero\n      tag_155\n      jumpi\n      returndatasize\n      0x00\n      dup1\n      returndatacopy\n      revert(0x00, returndatasize)\n    tag_155:\n      pop\n      pop\n      pop\n      pop\n        /* \"contracts/Marketplace.sol\":1268:1280  _marketOwner */\n      0x04\n      0x00\n      swap1\n      sload\n      swap1\n      0x0100\n      exp\n      swap1\n      div\n      0xffffffffffffffffffffffffffffffffffffffff\n      and\n        /* \"contracts/Marketplace.sol\":1268:1289  _marketOwner.transfer */\n      0xffffffffffffffffffffffffffffffffffffffff\n      and\n        /* \"contracts/Marketplace.sol\":1268:1302  _marketOwner.transfer(LISTING_FEE) */\n      0x08fc\n        /* \"contracts/Marketplace.sol\":1290:1301  LISTING_FEE */\n      sload(0x03)\n        /* \"contracts/Marketplace.sol\":1268:1302  _marketOwner.transfer(LISTING_FEE) */\n      swap1\n      dup2\n      iszero\n      mul\n      swap1\n      mload(0x40)\n      0x00\n      mload(0x40)\n      dup1\n      dup4\n      sub\n      dup2\n      dup6\n      dup9\n      dup9\n      call\n      swap4\n      pop\n      pop\n      pop\n      pop\n      iszero\n      dup1\n      iszero\n      tag_157\n      jumpi\n      returndatasize\n      0x00\n      dup1\n      returndatacopy\n      revert(0x00, returndatasize)\n    tag_157:\n      pop\n        /* \"contracts/Marketplace.sol\":1309:1318  _nftCount */\n      0x02\n      0x00\n        /* \"contracts/Marketplace.sol\":1309:1320  _nftCount++ */\n      dup2\n      sload\n      dup1\n      swap3\n      swap2\n      swap1\n      tag_158\n      swap1\n      tag_47\n      jump\t// in\n    tag_158:\n      swap2\n      swap1\n      pop\n      sstore\n      pop\n        /* \"contracts/Marketplace.sol\":1350:1486  NFT(... */\n      mload(0x40)\n      dup1\n      0xc0\n      add\n      0x40\n      mstore\n      dup1\n        /* \"contracts/Marketplace.sol\":1362:1374  _nftContract */\n      dup5\n        /* \"contracts/Marketplace.sol\":1350:1486  NFT(... */\n      0xffffffffffffffffffffffffffffffffffffffff\n      and\n      dup2\n      mstore\n      0x20\n      add\n        /* \"contracts/Marketplace.sol\":1383:1391  _tokenId */\n      dup4\n        /* \"contracts/Marketplace.sol\":1350:1486  NFT(... */\n      dup2\n      mstore\n      0x20\n      add\n        /* \"contracts/Marketplace.sol\":1409:1419  msg.sender */\n      caller\n        /* \"contracts/Marketplace.sol\":1350:1486  NFT(... */\n      0xffffffffffffffffffffffffffffffffffffffff\n      and\n      dup2\n      mstore\n      0x20\n      add\n        /* \"contracts/Marketplace.sol\":1445:1449  this */\n      address\n        /* \"contracts/Marketplace.sol\":1350:1486  NFT(... */\n      0xffffffffffffffffffffffffffffffffffffffff\n      and\n      dup2\n      mstore\n      0x20\n      add\n        /* \"contracts/Marketplace.sol\":1460:1466  _price */\n      dup3\n        /* \"contracts/Marketplace.sol\":1350:1486  NFT(... */\n      dup2\n      mstore\n      0x20\n      add\n        /* \"contracts/Marketplace.sol\":1475:1479  true */\n      0x01\n        /* \"contracts/Marketplace.sol\":1350:1486  NFT(... */\n      iszero\n      iszero\n      dup2\n      mstore\n      pop\n        /* \"contracts/Marketplace.sol\":1329:1337  _idToNFT */\n      0x05\n        /* \"contracts/Marketplace.sol\":1329:1347  _idToNFT[_tokenId] */\n      0x00\n        /* \"contracts/Marketplace.sol\":1338:1346  _tokenId */\n      dup5\n        /* \"contracts/Marketplace.sol\":1329:1347  _idToNFT[_tokenId] */\n      dup2\n      mstore\n      0x20\n      add\n      swap1\n      dup2\n      mstore\n      0x20\n      add\n      0x00\n      keccak256\n        /* \"contracts/Marketplace.sol\":1329:1486  _idToNFT[_tokenId] = NFT(... */\n      0x00\n      dup3\n      add\n      mload\n      dup2\n      0x00\n      add\n      exp(0x0100, 0x00)\n      dup2\n      sload\n      dup2\n      0xffffffffffffffffffffffffffffffffffffffff\n      mul\n      not\n      and\n      swap1\n      dup4\n      0xffffffffffffffffffffffffffffffffffffffff\n      and\n      mul\n      or\n      swap1\n      sstore\n      pop\n      0x20\n      dup3\n      add\n      mload\n      dup2\n      0x01\n      add\n      sstore\n      0x40\n      dup3\n      add\n      mload\n      dup2\n      0x02\n      add\n      exp(0x0100, 0x00)\n      dup2\n      sload\n      dup2\n      0xffffffffffffffffffffffffffffffffffffffff\n      mul\n      not\n      and\n      swap1\n      dup4\n      0xffffffffffffffffffffffffffffffffffffffff\n      and\n      mul\n      or\n      swap1\n      sstore\n      pop\n      0x60\n      dup3\n      add\n      mload\n      dup2\n      0x03\n      add\n      exp(0x0100, 0x00)\n      dup2\n      sload\n      dup2\n      0xffffffffffffffffffffffffffffffffffffffff\n      mul\n      not\n      and\n      swap1\n      dup4\n      0xffffffffffffffffffffffffffffffffffffffff\n      and\n      mul\n      or\n      swap1\n      sstore\n      pop\n      0x80\n      dup3\n      add\n      mload\n      dup2\n      0x04\n      add\n      sstore\n      0xa0\n      dup3\n      add\n      mload\n      dup2\n      0x05\n      add\n      exp(0x0100, 0x00)\n      dup2\n      sload\n      dup2\n      0xff\n      mul\n      not\n      and\n      swap1\n      dup4\n      iszero\n      iszero\n      mul\n      or\n      swap1\n      sstore\n      pop\n      swap1\n      pop\n      pop\n        /* \"contracts/Marketplace.sol\":1500:1568  NFTListed(_nftContract, _tokenId, msg.sender, address(this), _price) */\n      0xa0c6c0d02d86fdacecbaa5fdf5894bab204e31a778250474108540733a9b8d19\n        /* \"contracts/Marketplace.sol\":1510:1522  _nftContract */\n      dup4\n        /* \"contracts/Marketplace.sol\":1524:1532  _tokenId */\n      dup4\n        /* \"contracts/Marketplace.sol\":1534:1544  msg.sender */\n      caller\n        /* \"contracts/Marketplace.sol\":1554:1558  this */\n      address\n        /* \"contracts/Marketplace.sol\":1561:1567  _price */\n      dup6\n        /* \"contracts/Marketplace.sol\":1500:1568  NFTListed(_nftContract, _tokenId, msg.sender, address(this), _price) */\n      mload(0x40)\n      tag_159\n      swap6\n      swap5\n      swap4\n      swap3\n      swap2\n      swap1\n      tag_108\n      jump\t// in\n    tag_159:\n      mload(0x40)\n      dup1\n      swap2\n      sub\n      swap1\n      log1\n        /* \"@openzeppelin/contracts/utils/ReentrancyGuard.sol\":2455:2475  _nonReentrantAfter() */\n      tag_160\n        /* \"@openzeppelin/contracts/utils/ReentrancyGuard.sol\":2455:2473  _nonReentrantAfter */\n      tag_110\n        /* \"@openzeppelin/contracts/utils/ReentrancyGuard.sol\":2455:2475  _nonReentrantAfter() */\n      jump\t// in\n    tag_160:\n        /* \"contracts/Marketplace.sol\":946:1574  function listNft(address _nftContract, uint256 _tokenId, uint256 _price) public payable nonReentrant {... */\n      pop\n      pop\n      pop\n      jump\t// out\n        /* \"@openzeppelin/contracts/utils/ReentrancyGuard.sol\":2491:2806  function _nonReentrantBefore() private {... */\n    tag_92:\n        /* \"@openzeppelin/contracts/utils/ReentrancyGuard.sol\":1789:1790  2 */\n      0x02\n        /* \"@openzeppelin/contracts/utils/ReentrancyGuard.sol\":2620:2627  _status */\n      sload(0x00)\n        /* \"@openzeppelin/contracts/utils/ReentrancyGuard.sol\":2620:2638  _status == ENTERED */\n      sub\n        /* \"@openzeppelin/contracts/utils/ReentrancyGuard.sol\":2616:2704  if (_status == ENTERED) {... */\n      tag_162\n      jumpi\n        /* \"@openzeppelin/contracts/utils/ReentrancyGuard.sol\":2662:2692  ReentrancyGuardReentrantCall() */\n      mload(0x40)\n      0x3ee5aeb500000000000000000000000000000000000000000000000000000000\n      dup2\n      mstore\n      0x04\n      add\n      mload(0x40)\n      dup1\n      swap2\n      sub\n      swap1\n      revert\n        /* \"@openzeppelin/contracts/utils/ReentrancyGuard.sol\":2616:2704  if (_status == ENTERED) {... */\n    tag_162:\n        /* \"@openzeppelin/contracts/utils/ReentrancyGuard.sol\":1789:1790  2 */\n      0x02\n        /* \"@openzeppelin/contracts/utils/ReentrancyGuard.sol\":2781:2788  _status */\n      0x00\n        /* \"@openzeppelin/contracts/utils/ReentrancyGuard.sol\":2781:2798  _status = ENTERED */\n      dup2\n      swap1\n      sstore\n      pop\n        /* \"@openzeppelin/contracts/utils/ReentrancyGuard.sol\":2491:2806  function _nonReentrantBefore() private {... */\n      jump\t// out\n        /* \"@openzeppelin/contracts/utils/ReentrancyGuard.sol\":2814:3026  function _nonReentrantAfter() private {... */\n    tag_110:\n        /* \"@openzeppelin/contracts/utils/ReentrancyGuard.sol\":1746:1747  1 */\n      0x01\n        /* \"@openzeppelin/contracts/utils/ReentrancyGuard.sol\":2997:3004  _status */\n      0x00\n        /* \"@openzeppelin/contracts/utils/ReentrancyGuard.sol\":2997:3018  _status = NOT_ENTERED */\n      dup2\n      swap1\n      sstore\n      pop\n        /* \"@openzeppelin/contracts/utils/ReentrancyGuard.sol\":2814:3026  function _nonReentrantAfter() private {... */\n      jump\t// out\n    tag_54:\n      mload(0x40)\n      dup1\n      0xc0\n      add\n      0x40\n      mstore\n      dup1\n      and(0xffffffffffffffffffffffffffffffffffffffff, 0x00)\n      dup2\n      mstore\n      0x20\n      add\n      0x00\n      dup2\n      mstore\n      0x20\n      add\n      and(0xffffffffffffffffffffffffffffffffffffffff, 0x00)\n      dup2\n      mstore\n      0x20\n      add\n      and(0xffffffffffffffffffffffffffffffffffffffff, 0x00)\n      dup2\n      mstore\n      0x20\n      add\n      0x00\n      dup2\n      mstore\n      0x20\n      add\n      iszero(iszero(0x00))\n      dup2\n      mstore\n      pop\n      swap1\n      jump\t// out\n        /* \"#utility.yul\":7:142   */\n    tag_164:\n        /* \"#utility.yul\":95:101   */\n      0x00\n        /* \"#utility.yul\":129:134   */\n      dup2\n        /* \"#utility.yul\":123:135   */\n      mload\n        /* \"#utility.yul\":113:135   */\n      swap1\n      pop\n        /* \"#utility.yul\":7:142   */\n      swap2\n      swap1\n      pop\n      jump\t// out\n        /* \"#utility.yul\":148:353   */\n    tag_165:\n        /* \"#utility.yul\":268:279   */\n      0x00\n        /* \"#utility.yul\":302:308   */\n      dup3\n        /* \"#utility.yul\":297:300   */\n      dup3\n        /* \"#utility.yul\":290:309   */\n      mstore\n        /* \"#utility.yul\":342:346   */\n      0x20\n        /* \"#utility.yul\":337:340   */\n      dup3\n        /* \"#utility.yul\":333:347   */\n      add\n        /* \"#utility.yul\":318:347   */\n      swap1\n      pop\n        /* \"#utility.yul\":148:353   */\n      swap3\n      swap2\n      pop\n      pop\n      jump\t// out\n        /* \"#utility.yul\":359:512   */\n    tag_166:\n        /* \"#utility.yul\":447:451   */\n      0x00\n        /* \"#utility.yul\":470:473   */\n      dup2\n        /* \"#utility.yul\":462:473   */\n      swap1\n      pop\n        /* \"#utility.yul\":500:504   */\n      0x20\n        /* \"#utility.yul\":495:498   */\n      dup3\n        /* \"#utility.yul\":491:505   */\n      add\n        /* \"#utility.yul\":483:505   */\n      swap1\n      pop\n        /* \"#utility.yul\":359:512   */\n      swap2\n      swap1\n      pop\n      jump\t// out\n        /* \"#utility.yul\":518:644   */\n    tag_167:\n        /* \"#utility.yul\":555:562   */\n      0x00\n        /* \"#utility.yul\":595:637   */\n      0xffffffffffffffffffffffffffffffffffffffff\n        /* \"#utility.yul\":588:593   */\n      dup3\n        /* \"#utility.yul\":584:638   */\n      and\n        /* \"#utility.yul\":573:638   */\n      swap1\n      pop\n        /* \"#utility.yul\":518:644   */\n      swap2\n      swap1\n      pop\n      jump\t// out\n        /* \"#utility.yul\":650:746   */\n    tag_168:\n        /* \"#utility.yul\":687:694   */\n      0x00\n        /* \"#utility.yul\":716:740   */\n      tag_208\n        /* \"#utility.yul\":734:739   */\n      dup3\n        /* \"#utility.yul\":716:740   */\n      tag_167\n      jump\t// in\n    tag_208:\n        /* \"#utility.yul\":705:740   */\n      swap1\n      pop\n        /* \"#utility.yul\":650:746   */\n      swap2\n      swap1\n      pop\n      jump\t// out\n        /* \"#utility.yul\":752:860   */\n    tag_169:\n        /* \"#utility.yul\":829:853   */\n      tag_210\n        /* \"#utility.yul\":847:852   */\n      dup2\n        /* \"#utility.yul\":829:853   */\n      tag_168\n      jump\t// in\n    tag_210:\n        /* \"#utility.yul\":824:827   */\n      dup3\n        /* \"#utility.yul\":817:854   */\n      mstore\n        /* \"#utility.yul\":752:860   */\n      pop\n      pop\n      jump\t// out\n        /* \"#utility.yul\":866:943   */\n    tag_170:\n        /* \"#utility.yul\":903:910   */\n      0x00\n        /* \"#utility.yul\":932:937   */\n      dup2\n        /* \"#utility.yul\":921:937   */\n      swap1\n      pop\n        /* \"#utility.yul\":866:943   */\n      swap2\n      swap1\n      pop\n      jump\t// out\n        /* \"#utility.yul\":949:1057   */\n    tag_171:\n        /* \"#utility.yul\":1026:1050   */\n      tag_213\n        /* \"#utility.yul\":1044:1049   */\n      dup2\n        /* \"#utility.yul\":1026:1050   */\n      tag_170\n      jump\t// in\n    tag_213:\n        /* \"#utility.yul\":1021:1024   */\n      dup3\n        /* \"#utility.yul\":1014:1051   */\n      mstore\n        /* \"#utility.yul\":949:1057   */\n      pop\n      pop\n      jump\t// out\n        /* \"#utility.yul\":1063:1167   */\n    tag_172:\n        /* \"#utility.yul\":1108:1115   */\n      0x00\n        /* \"#utility.yul\":1137:1161   */\n      tag_215\n        /* \"#utility.yul\":1155:1160   */\n      dup3\n        /* \"#utility.yul\":1137:1161   */\n      tag_167\n      jump\t// in\n    tag_215:\n        /* \"#utility.yul\":1126:1161   */\n      swap1\n      pop\n        /* \"#utility.yul\":1063:1167   */\n      swap2\n      swap1\n      pop\n      jump\t// out\n        /* \"#utility.yul\":1173:1305   */\n    tag_173:\n        /* \"#utility.yul\":1266:1298   */\n      tag_217\n        /* \"#utility.yul\":1292:1297   */\n      dup2\n        /* \"#utility.yul\":1266:1298   */\n      tag_172\n      jump\t// in\n    tag_217:\n        /* \"#utility.yul\":1261:1264   */\n      dup3\n        /* \"#utility.yul\":1254:1299   */\n      mstore\n        /* \"#utility.yul\":1173:1305   */\n      pop\n      pop\n      jump\t// out\n        /* \"#utility.yul\":1311:1401   */\n    tag_174:\n        /* \"#utility.yul\":1345:1352   */\n      0x00\n        /* \"#utility.yul\":1388:1393   */\n      dup2\n        /* \"#utility.yul\":1381:1394   */\n      iszero\n        /* \"#utility.yul\":1374:1395   */\n      iszero\n        /* \"#utility.yul\":1363:1395   */\n      swap1\n      pop\n        /* \"#utility.yul\":1311:1401   */\n      swap2\n      swap1\n      pop\n      jump\t// out\n        /* \"#utility.yul\":1407:1506   */\n    tag_175:\n        /* \"#utility.yul\":1478:1499   */\n      tag_220\n        /* \"#utility.yul\":1493:1498   */\n      dup2\n        /* \"#utility.yul\":1478:1499   */\n      tag_174\n      jump\t// in\n    tag_220:\n        /* \"#utility.yul\":1473:1476   */\n      dup3\n        /* \"#utility.yul\":1466:1500   */\n      mstore\n        /* \"#utility.yul\":1407:1506   */\n      pop\n      pop\n      jump\t// out\n        /* \"#utility.yul\":1568:2795   */\n    tag_176:\n        /* \"#utility.yul\":1697:1701   */\n      0xc0\n        /* \"#utility.yul\":1692:1695   */\n      dup3\n        /* \"#utility.yul\":1688:1702   */\n      add\n        /* \"#utility.yul\":1791:1795   */\n      0x00\n        /* \"#utility.yul\":1784:1789   */\n      dup3\n        /* \"#utility.yul\":1780:1796   */\n      add\n        /* \"#utility.yul\":1774:1797   */\n      mload\n        /* \"#utility.yul\":1810:1873   */\n      tag_222\n        /* \"#utility.yul\":1867:1871   */\n      0x00\n        /* \"#utility.yul\":1862:1865   */\n      dup6\n        /* \"#utility.yul\":1858:1872   */\n      add\n        /* \"#utility.yul\":1844:1856   */\n      dup3\n        /* \"#utility.yul\":1810:1873   */\n      tag_169\n      jump\t// in\n    tag_222:\n        /* \"#utility.yul\":1712:1883   */\n      pop\n        /* \"#utility.yul\":1968:1972   */\n      0x20\n        /* \"#utility.yul\":1961:1966   */\n      dup3\n        /* \"#utility.yul\":1957:1973   */\n      add\n        /* \"#utility.yul\":1951:1974   */\n      mload\n        /* \"#utility.yul\":1987:2050   */\n      tag_223\n        /* \"#utility.yul\":2044:2048   */\n      0x20\n        /* \"#utility.yul\":2039:2042   */\n      dup6\n        /* \"#utility.yul\":2035:2049   */\n      add\n        /* \"#utility.yul\":2021:2033   */\n      dup3\n        /* \"#utility.yul\":1987:2050   */\n      tag_171\n      jump\t// in\n    tag_223:\n        /* \"#utility.yul\":1893:2060   */\n      pop\n        /* \"#utility.yul\":2144:2148   */\n      0x40\n        /* \"#utility.yul\":2137:2142   */\n      dup3\n        /* \"#utility.yul\":2133:2149   */\n      add\n        /* \"#utility.yul\":2127:2150   */\n      mload\n        /* \"#utility.yul\":2163:2242   */\n      tag_224\n        /* \"#utility.yul\":2236:2240   */\n      0x40\n        /* \"#utility.yul\":2231:2234   */\n      dup6\n        /* \"#utility.yul\":2227:2241   */\n      add\n        /* \"#utility.yul\":2213:2225   */\n      dup3\n        /* \"#utility.yul\":2163:2242   */\n      tag_173\n      jump\t// in\n    tag_224:\n        /* \"#utility.yul\":2070:2252   */\n      pop\n        /* \"#utility.yul\":2335:2339   */\n      0x60\n        /* \"#utility.yul\":2328:2333   */\n      dup3\n        /* \"#utility.yul\":2324:2340   */\n      add\n        /* \"#utility.yul\":2318:2341   */\n      mload\n        /* \"#utility.yul\":2354:2433   */\n      tag_225\n        /* \"#utility.yul\":2427:2431   */\n      0x60\n        /* \"#utility.yul\":2422:2425   */\n      dup6\n        /* \"#utility.yul\":2418:2432   */\n      add\n        /* \"#utility.yul\":2404:2416   */\n      dup3\n        /* \"#utility.yul\":2354:2433   */\n      tag_173\n      jump\t// in\n    tag_225:\n        /* \"#utility.yul\":2262:2443   */\n      pop\n        /* \"#utility.yul\":2526:2530   */\n      0x80\n        /* \"#utility.yul\":2519:2524   */\n      dup3\n        /* \"#utility.yul\":2515:2531   */\n      add\n        /* \"#utility.yul\":2509:2532   */\n      mload\n        /* \"#utility.yul\":2545:2608   */\n      tag_226\n        /* \"#utility.yul\":2602:2606   */\n      0x80\n        /* \"#utility.yul\":2597:2600   */\n      dup6\n        /* \"#utility.yul\":2593:2607   */\n      add\n        /* \"#utility.yul\":2579:2591   */\n      dup3\n        /* \"#utility.yul\":2545:2608   */\n      tag_171\n      jump\t// in\n    tag_226:\n        /* \"#utility.yul\":2453:2618   */\n      pop\n        /* \"#utility.yul\":2702:2706   */\n      0xa0\n        /* \"#utility.yul\":2695:2700   */\n      dup3\n        /* \"#utility.yul\":2691:2707   */\n      add\n        /* \"#utility.yul\":2685:2708   */\n      mload\n        /* \"#utility.yul\":2721:2778   */\n      tag_227\n        /* \"#utility.yul\":2772:2776   */\n      0xa0\n        /* \"#utility.yul\":2767:2770   */\n      dup6\n        /* \"#utility.yul\":2763:2777   */\n      add\n        /* \"#utility.yul\":2749:2761   */\n      dup3\n        /* \"#utility.yul\":2721:2778   */\n      tag_175\n      jump\t// in\n    tag_227:\n        /* \"#utility.yul\":2628:2788   */\n      pop\n        /* \"#utility.yul\":1666:2795   */\n      pop\n        /* \"#utility.yul\":1568:2795   */\n      pop\n      pop\n      jump\t// out\n        /* \"#utility.yul\":2801:3064   */\n    tag_177:\n        /* \"#utility.yul\":2912:2922   */\n      0x00\n        /* \"#utility.yul\":2933:3021   */\n      tag_229\n        /* \"#utility.yul\":3017:3020   */\n      dup4\n        /* \"#utility.yul\":3009:3015   */\n      dup4\n        /* \"#utility.yul\":2933:3021   */\n      tag_176\n      jump\t// in\n    tag_229:\n        /* \"#utility.yul\":3053:3057   */\n      0xc0\n        /* \"#utility.yul\":3048:3051   */\n      dup4\n        /* \"#utility.yul\":3044:3058   */\n      add\n        /* \"#utility.yul\":3030:3058   */\n      swap1\n      pop\n        /* \"#utility.yul\":2801:3064   */\n      swap3\n      swap2\n      pop\n      pop\n      jump\t// out\n        /* \"#utility.yul\":3070:3204   */\n    tag_178:\n        /* \"#utility.yul\":3161:3165   */\n      0x00\n        /* \"#utility.yul\":3193:3197   */\n      0x20\n        /* \"#utility.yul\":3188:3191   */\n      dup3\n        /* \"#utility.yul\":3184:3198   */\n      add\n        /* \"#utility.yul\":3176:3198   */\n      swap1\n      pop\n        /* \"#utility.yul\":3070:3204   */\n      swap2\n      swap1\n      pop\n      jump\t// out\n        /* \"#utility.yul\":3270:4170   */\n    tag_179:\n        /* \"#utility.yul\":3431:3434   */\n      0x00\n        /* \"#utility.yul\":3460:3535   */\n      tag_232\n        /* \"#utility.yul\":3529:3534   */\n      dup3\n        /* \"#utility.yul\":3460:3535   */\n      tag_164\n      jump\t// in\n    tag_232:\n        /* \"#utility.yul\":3551:3658   */\n      tag_233\n        /* \"#utility.yul\":3651:3657   */\n      dup2\n        /* \"#utility.yul\":3646:3649   */\n      dup6\n        /* \"#utility.yul\":3551:3658   */\n      tag_165\n      jump\t// in\n    tag_233:\n        /* \"#utility.yul\":3544:3658   */\n      swap4\n      pop\n        /* \"#utility.yul\":3682:3759   */\n      tag_234\n        /* \"#utility.yul\":3753:3758   */\n      dup4\n        /* \"#utility.yul\":3682:3759   */\n      tag_166\n      jump\t// in\n    tag_234:\n        /* \"#utility.yul\":3782:3789   */\n      dup1\n        /* \"#utility.yul\":3813:3814   */\n      0x00\n        /* \"#utility.yul\":3798:4145   */\n    tag_235:\n        /* \"#utility.yul\":3823:3829   */\n      dup4\n        /* \"#utility.yul\":3820:3821   */\n      dup2\n        /* \"#utility.yul\":3817:3830   */\n      lt\n        /* \"#utility.yul\":3798:4145   */\n      iszero\n      tag_237\n      jumpi\n        /* \"#utility.yul\":3899:3905   */\n      dup2\n        /* \"#utility.yul\":3893:3906   */\n      mload\n        /* \"#utility.yul\":3926:4031   */\n      tag_238\n        /* \"#utility.yul\":4027:4030   */\n      dup9\n        /* \"#utility.yul\":4012:4025   */\n      dup3\n        /* \"#utility.yul\":3926:4031   */\n      tag_177\n      jump\t// in\n    tag_238:\n        /* \"#utility.yul\":3919:4031   */\n      swap8\n      pop\n        /* \"#utility.yul\":4054:4135   */\n      tag_239\n        /* \"#utility.yul\":4128:4134   */\n      dup4\n        /* \"#utility.yul\":4054:4135   */\n      tag_178\n      jump\t// in\n    tag_239:\n        /* \"#utility.yul\":4044:4135   */\n      swap3\n      pop\n        /* \"#utility.yul\":3858:4145   */\n      pop\n        /* \"#utility.yul\":3845:3846   */\n      0x01\n        /* \"#utility.yul\":3842:3843   */\n      dup2\n        /* \"#utility.yul\":3838:3847   */\n      add\n        /* \"#utility.yul\":3833:3847   */\n      swap1\n      pop\n        /* \"#utility.yul\":3798:4145   */\n      jump(tag_235)\n    tag_237:\n        /* \"#utility.yul\":3802:3816   */\n      pop\n        /* \"#utility.yul\":4161:4164   */\n      dup6\n        /* \"#utility.yul\":4154:4164   */\n      swap4\n      pop\n        /* \"#utility.yul\":3436:4170   */\n      pop\n      pop\n      pop\n        /* \"#utility.yul\":3270:4170   */\n      swap3\n      swap2\n      pop\n      pop\n      jump\t// out\n        /* \"#utility.yul\":4176:4633   */\n    tag_14:\n        /* \"#utility.yul\":4361:4365   */\n      0x00\n        /* \"#utility.yul\":4399:4401   */\n      0x20\n        /* \"#utility.yul\":4388:4397   */\n      dup3\n        /* \"#utility.yul\":4384:4402   */\n      add\n        /* \"#utility.yul\":4376:4402   */\n      swap1\n      pop\n        /* \"#utility.yul\":4448:4457   */\n      dup2\n        /* \"#utility.yul\":4442:4446   */\n      dup2\n        /* \"#utility.yul\":4438:4458   */\n      sub\n        /* \"#utility.yul\":4434:4435   */\n      0x00\n        /* \"#utility.yul\":4423:4432   */\n      dup4\n        /* \"#utility.yul\":4419:4436   */\n      add\n        /* \"#utility.yul\":4412:4459   */\n      mstore\n        /* \"#utility.yul\":4476:4626   */\n      tag_241\n        /* \"#utility.yul\":4621:4625   */\n      dup2\n        /* \"#utility.yul\":4612:4618   */\n      dup5\n        /* \"#utility.yul\":4476:4626   */\n      tag_179\n      jump\t// in\n    tag_241:\n        /* \"#utility.yul\":4468:4626   */\n      swap1\n      pop\n        /* \"#utility.yul\":4176:4633   */\n      swap3\n      swap2\n      pop\n      pop\n      jump\t// out\n        /* \"#utility.yul\":4639:4757   */\n    tag_180:\n        /* \"#utility.yul\":4726:4750   */\n      tag_243\n        /* \"#utility.yul\":4744:4749   */\n      dup2\n        /* \"#utility.yul\":4726:4750   */\n      tag_170\n      jump\t// in\n    tag_243:\n        /* \"#utility.yul\":4721:4724   */\n      dup3\n        /* \"#utility.yul\":4714:4751   */\n      mstore\n        /* \"#utility.yul\":4639:4757   */\n      pop\n      pop\n      jump\t// out\n        /* \"#utility.yul\":4763:4985   */\n    tag_23:\n        /* \"#utility.yul\":4856:4860   */\n      0x00\n        /* \"#utility.yul\":4894:4896   */\n      0x20\n        /* \"#utility.yul\":4883:4892   */\n      dup3\n        /* \"#utility.yul\":4879:4897   */\n      add\n        /* \"#utility.yul\":4871:4897   */\n      swap1\n      pop\n        /* \"#utility.yul\":4907:4978   */\n      tag_245\n        /* \"#utility.yul\":4975:4976   */\n      0x00\n        /* \"#utility.yul\":4964:4973   */\n      dup4\n        /* \"#utility.yul\":4960:4977   */\n      add\n        /* \"#utility.yul\":4951:4957   */\n      dup5\n        /* \"#utility.yul\":4907:4978   */\n      tag_180\n      jump\t// in\n    tag_245:\n        /* \"#utility.yul\":4763:4985   */\n      swap3\n      swap2\n      pop\n      pop\n      jump\t// out\n        /* \"#utility.yul\":5072:5189   */\n    tag_182:\n        /* \"#utility.yul\":5181:5182   */\n      0x00\n        /* \"#utility.yul\":5178:5179   */\n      dup1\n        /* \"#utility.yul\":5171:5183   */\n      revert\n        /* \"#utility.yul\":5318:5440   */\n    tag_184:\n        /* \"#utility.yul\":5391:5415   */\n      tag_250\n        /* \"#utility.yul\":5409:5414   */\n      dup2\n        /* \"#utility.yul\":5391:5415   */\n      tag_168\n      jump\t// in\n    tag_250:\n        /* \"#utility.yul\":5384:5389   */\n      dup2\n        /* \"#utility.yul\":5381:5416   */\n      eq\n        /* \"#utility.yul\":5371:5434   */\n      tag_251\n      jumpi\n        /* \"#utility.yul\":5430:5431   */\n      0x00\n        /* \"#utility.yul\":5427:5428   */\n      dup1\n        /* \"#utility.yul\":5420:5432   */\n      revert\n        /* \"#utility.yul\":5371:5434   */\n    tag_251:\n        /* \"#utility.yul\":5318:5440   */\n      pop\n      jump\t// out\n        /* \"#utility.yul\":5446:5585   */\n    tag_185:\n        /* \"#utility.yul\":5492:5497   */\n      0x00\n        /* \"#utility.yul\":5530:5536   */\n      dup2\n        /* \"#utility.yul\":5517:5537   */\n      calldataload\n        /* \"#utility.yul\":5508:5537   */\n      swap1\n      pop\n        /* \"#utility.yul\":5546:5579   */\n      tag_253\n        /* \"#utility.yul\":5573:5578   */\n      dup2\n        /* \"#utility.yul\":5546:5579   */\n      tag_184\n      jump\t// in\n    tag_253:\n        /* \"#utility.yul\":5446:5585   */\n      swap3\n      swap2\n      pop\n      pop\n      jump\t// out\n        /* \"#utility.yul\":5591:5713   */\n    tag_186:\n        /* \"#utility.yul\":5664:5688   */\n      tag_255\n        /* \"#utility.yul\":5682:5687   */\n      dup2\n        /* \"#utility.yul\":5664:5688   */\n      tag_170\n      jump\t// in\n    tag_255:\n        /* \"#utility.yul\":5657:5662   */\n      dup2\n        /* \"#utility.yul\":5654:5689   */\n      eq\n        /* \"#utility.yul\":5644:5707   */\n      tag_256\n      jumpi\n        /* \"#utility.yul\":5703:5704   */\n      0x00\n        /* \"#utility.yul\":5700:5701   */\n      dup1\n        /* \"#utility.yul\":5693:5705   */\n      revert\n        /* \"#utility.yul\":5644:5707   */\n    tag_256:\n        /* \"#utility.yul\":5591:5713   */\n      pop\n      jump\t// out\n        /* \"#utility.yul\":5719:5858   */\n    tag_187:\n        /* \"#utility.yul\":5765:5770   */\n      0x00\n        /* \"#utility.yul\":5803:5809   */\n      dup2\n        /* \"#utility.yul\":5790:5810   */\n      calldataload\n        /* \"#utility.yul\":5781:5810   */\n      swap1\n      pop\n        /* \"#utility.yul\":5819:5852   */\n      tag_258\n        /* \"#utility.yul\":5846:5851   */\n      dup2\n        /* \"#utility.yul\":5819:5852   */\n      tag_186\n      jump\t// in\n    tag_258:\n        /* \"#utility.yul\":5719:5858   */\n      swap3\n      swap2\n      pop\n      pop\n      jump\t// out\n        /* \"#utility.yul\":5864:6483   */\n    tag_26:\n        /* \"#utility.yul\":5941:5947   */\n      0x00\n        /* \"#utility.yul\":5949:5955   */\n      dup1\n        /* \"#utility.yul\":5957:5963   */\n      0x00\n        /* \"#utility.yul\":6006:6008   */\n      0x60\n        /* \"#utility.yul\":5994:6003   */\n      dup5\n        /* \"#utility.yul\":5985:5992   */\n      dup7\n        /* \"#utility.yul\":5981:6004   */\n      sub\n        /* \"#utility.yul\":5977:6009   */\n      slt\n        /* \"#utility.yul\":5974:6093   */\n      iszero\n      tag_260\n      jumpi\n        /* \"#utility.yul\":6012:6091   */\n      tag_261\n      tag_182\n      jump\t// in\n    tag_261:\n        /* \"#utility.yul\":5974:6093   */\n    tag_260:\n        /* \"#utility.yul\":6132:6133   */\n      0x00\n        /* \"#utility.yul\":6157:6210   */\n      tag_262\n        /* \"#utility.yul\":6202:6209   */\n      dup7\n        /* \"#utility.yul\":6193:6199   */\n      dup3\n        /* \"#utility.yul\":6182:6191   */\n      dup8\n        /* \"#utility.yul\":6178:6200   */\n      add\n        /* \"#utility.yul\":6157:6210   */\n      tag_185\n      jump\t// in\n    tag_262:\n        /* \"#utility.yul\":6147:6210   */\n      swap4\n      pop\n        /* \"#utility.yul\":6103:6220   */\n      pop\n        /* \"#utility.yul\":6259:6261   */\n      0x20\n        /* \"#utility.yul\":6285:6338   */\n      tag_263\n        /* \"#utility.yul\":6330:6337   */\n      dup7\n        /* \"#utility.yul\":6321:6327   */\n      dup3\n        /* \"#utility.yul\":6310:6319   */\n      dup8\n        /* \"#utility.yul\":6306:6328   */\n      add\n        /* \"#utility.yul\":6285:6338   */\n      tag_187\n      jump\t// in\n    tag_263:\n        /* \"#utility.yul\":6275:6338   */\n      swap3\n      pop\n        /* \"#utility.yul\":6230:6348   */\n      pop\n        /* \"#utility.yul\":6387:6389   */\n      0x40\n        /* \"#utility.yul\":6413:6466   */\n      tag_264\n        /* \"#utility.yul\":6458:6465   */\n      dup7\n        /* \"#utility.yul\":6449:6455   */\n      dup3\n        /* \"#utility.yul\":6438:6447   */\n      dup8\n        /* \"#utility.yul\":6434:6456   */\n      add\n        /* \"#utility.yul\":6413:6466   */\n      tag_187\n      jump\t// in\n    tag_264:\n        /* \"#utility.yul\":6403:6466   */\n      swap2\n      pop\n        /* \"#utility.yul\":6358:6476   */\n      pop\n        /* \"#utility.yul\":5864:6483   */\n      swap3\n      pop\n      swap3\n      pop\n      swap3\n      jump\t// out\n        /* \"#utility.yul\":6489:6963   */\n    tag_30:\n        /* \"#utility.yul\":6557:6563   */\n      0x00\n        /* \"#utility.yul\":6565:6571   */\n      dup1\n        /* \"#utility.yul\":6614:6616   */\n      0x40\n        /* \"#utility.yul\":6602:6611   */\n      dup4\n        /* \"#utility.yul\":6593:6600   */\n      dup6\n        /* \"#utility.yul\":6589:6612   */\n      sub\n        /* \"#utility.yul\":6585:6617   */\n      slt\n        /* \"#utility.yul\":6582:6701   */\n      iszero\n      tag_266\n      jumpi\n        /* \"#utility.yul\":6620:6699   */\n      tag_267\n      tag_182\n      jump\t// in\n    tag_267:\n        /* \"#utility.yul\":6582:6701   */\n    tag_266:\n        /* \"#utility.yul\":6740:6741   */\n      0x00\n        /* \"#utility.yul\":6765:6818   */\n      tag_268\n        /* \"#utility.yul\":6810:6817   */\n      dup6\n        /* \"#utility.yul\":6801:6807   */\n      dup3\n        /* \"#utility.yul\":6790:6799   */\n      dup7\n        /* \"#utility.yul\":6786:6808   */\n      add\n        /* \"#utility.yul\":6765:6818   */\n      tag_185\n      jump\t// in\n    tag_268:\n        /* \"#utility.yul\":6755:6818   */\n      swap3\n      pop\n        /* \"#utility.yul\":6711:6828   */\n      pop\n        /* \"#utility.yul\":6867:6869   */\n      0x20\n        /* \"#utility.yul\":6893:6946   */\n      tag_269\n        /* \"#utility.yul\":6938:6945   */\n      dup6\n        /* \"#utility.yul\":6929:6935   */\n      dup3\n        /* \"#utility.yul\":6918:6927   */\n      dup7\n        /* \"#utility.yul\":6914:6936   */\n      add\n        /* \"#utility.yul\":6893:6946   */\n      tag_187\n      jump\t// in\n    tag_269:\n        /* \"#utility.yul\":6883:6946   */\n      swap2\n      pop\n        /* \"#utility.yul\":6838:6956   */\n      pop\n        /* \"#utility.yul\":6489:6963   */\n      swap3\n      pop\n      swap3\n      swap1\n      pop\n      jump\t// out\n        /* \"#utility.yul\":6969:7149   */\n    tag_188:\n        /* \"#utility.yul\":7017:7094   */\n      0x4e487b7100000000000000000000000000000000000000000000000000000000\n        /* \"#utility.yul\":7014:7015   */\n      0x00\n        /* \"#utility.yul\":7007:7095   */\n      mstore\n        /* \"#utility.yul\":7114:7118   */\n      0x11\n        /* \"#utility.yul\":7111:7112   */\n      0x04\n        /* \"#utility.yul\":7104:7119   */\n      mstore\n        /* \"#utility.yul\":7138:7142   */\n      0x24\n        /* \"#utility.yul\":7135:7136   */\n      0x00\n        /* \"#utility.yul\":7128:7143   */\n      revert\n        /* \"#utility.yul\":7155:7346   */\n    tag_44:\n        /* \"#utility.yul\":7195:7198   */\n      0x00\n        /* \"#utility.yul\":7214:7234   */\n      tag_272\n        /* \"#utility.yul\":7232:7233   */\n      dup3\n        /* \"#utility.yul\":7214:7234   */\n      tag_170\n      jump\t// in\n    tag_272:\n        /* \"#utility.yul\":7209:7234   */\n      swap2\n      pop\n        /* \"#utility.yul\":7248:7268   */\n      tag_273\n        /* \"#utility.yul\":7266:7267   */\n      dup4\n        /* \"#utility.yul\":7248:7268   */\n      tag_170\n      jump\t// in\n    tag_273:\n        /* \"#utility.yul\":7243:7268   */\n      swap3\n      pop\n        /* \"#utility.yul\":7291:7292   */\n      dup3\n        /* \"#utility.yul\":7288:7289   */\n      dup3\n        /* \"#utility.yul\":7284:7293   */\n      add\n        /* \"#utility.yul\":7277:7293   */\n      swap1\n      pop\n        /* \"#utility.yul\":7312:7315   */\n      dup1\n        /* \"#utility.yul\":7309:7310   */\n      dup3\n        /* \"#utility.yul\":7306:7316   */\n      gt\n        /* \"#utility.yul\":7303:7339   */\n      iszero\n      tag_274\n      jumpi\n        /* \"#utility.yul\":7319:7337   */\n      tag_275\n      tag_188\n      jump\t// in\n    tag_275:\n        /* \"#utility.yul\":7303:7339   */\n    tag_274:\n        /* \"#utility.yul\":7155:7346   */\n      swap3\n      swap2\n      pop\n      pop\n      jump\t// out\n        /* \"#utility.yul\":7352:7585   */\n    tag_47:\n        /* \"#utility.yul\":7391:7394   */\n      0x00\n        /* \"#utility.yul\":7414:7438   */\n      tag_277\n        /* \"#utility.yul\":7432:7437   */\n      dup3\n        /* \"#utility.yul\":7414:7438   */\n      tag_170\n      jump\t// in\n    tag_277:\n        /* \"#utility.yul\":7405:7438   */\n      swap2\n      pop\n        /* \"#utility.yul\":7460:7526   */\n      0xffffffffffffffffffffffffffffffffffffffffffffffffffffffffffffffff\n        /* \"#utility.yul\":7453:7458   */\n      dup3\n        /* \"#utility.yul\":7450:7527   */\n      sub\n        /* \"#utility.yul\":7447:7550   */\n      tag_278\n      jumpi\n        /* \"#utility.yul\":7530:7548   */\n      tag_279\n      tag_188\n      jump\t// in\n    tag_279:\n        /* \"#utility.yul\":7447:7550   */\n    tag_278:\n        /* \"#utility.yul\":7577:7578   */\n      0x01\n        /* \"#utility.yul\":7570:7575   */\n      dup3\n        /* \"#utility.yul\":7566:7579   */\n      add\n        /* \"#utility.yul\":7559:7579   */\n      swap1\n      pop\n        /* \"#utility.yul\":7352:7585   */\n      swap2\n      swap1\n      pop\n      jump\t// out\n        /* \"#utility.yul\":7591:7771   */\n    tag_50:\n        /* \"#utility.yul\":7639:7716   */\n      0x4e487b7100000000000000000000000000000000000000000000000000000000\n        /* \"#utility.yul\":7636:7637   */\n      0x00\n        /* \"#utility.yul\":7629:7717   */\n      mstore\n        /* \"#utility.yul\":7736:7740   */\n      0x41\n        /* \"#utility.yul\":7733:7734   */\n      0x04\n        /* \"#utility.yul\":7726:7741   */\n      mstore\n        /* \"#utility.yul\":7760:7764   */\n      0x24\n        /* \"#utility.yul\":7757:7758   */\n      0x00\n        /* \"#utility.yul\":7750:7765   */\n      revert\n        /* \"#utility.yul\":7777:7957   */\n    tag_63:\n        /* \"#utility.yul\":7825:7902   */\n      0x4e487b7100000000000000000000000000000000000000000000000000000000\n        /* \"#utility.yul\":7822:7823   */\n      0x00\n        /* \"#utility.yul\":7815:7903   */\n      mstore\n        /* \"#utility.yul\":7922:7926   */\n      0x32\n        /* \"#utility.yul\":7919:7920   */\n      0x04\n        /* \"#utility.yul\":7912:7927   */\n      mstore\n        /* \"#utility.yul\":7946:7950   */\n      0x24\n        /* \"#utility.yul\":7943:7944   */\n      0x00\n        /* \"#utility.yul\":7936:7951   */\n      revert\n        /* \"#utility.yul\":7963:8132   */\n    tag_189:\n        /* \"#utility.yul\":8047:8058   */\n      0x00\n        /* \"#utility.yul\":8081:8087   */\n      dup3\n        /* \"#utility.yul\":8076:8079   */\n      dup3\n        /* \"#utility.yul\":8069:8088   */\n      mstore\n        /* \"#utility.yul\":8121:8125   */\n      0x20\n        /* \"#utility.yul\":8116:8119   */\n      dup3\n        /* \"#utility.yul\":8112:8126   */\n      add\n        /* \"#utility.yul\":8097:8126   */\n      swap1\n      pop\n        /* \"#utility.yul\":7963:8132   */\n      swap3\n      swap2\n      pop\n      pop\n      jump\t// out\n        /* \"#utility.yul\":8138:8316   */\n    tag_190:\n        /* \"#utility.yul\":8278:8308   */\n      0x5072696365206d757374206265206174206c6561737420312077656900000000\n        /* \"#utility.yul\":8274:8275   */\n      0x00\n        /* \"#utility.yul\":8266:8272   */\n      dup3\n        /* \"#utility.yul\":8262:8276   */\n      add\n        /* \"#utility.yul\":8255:8309   */\n      mstore\n        /* \"#utility.yul\":8138:8316   */\n      pop\n      jump\t// out\n        /* \"#utility.yul\":8322:8688   */\n    tag_191:\n        /* \"#utility.yul\":8464:8467   */\n      0x00\n        /* \"#utility.yul\":8485:8552   */\n      tag_285\n        /* \"#utility.yul\":8549:8551   */\n      0x1c\n        /* \"#utility.yul\":8544:8547   */\n      dup4\n        /* \"#utility.yul\":8485:8552   */\n      tag_189\n      jump\t// in\n    tag_285:\n        /* \"#utility.yul\":8478:8552   */\n      swap2\n      pop\n        /* \"#utility.yul\":8561:8654   */\n      tag_286\n        /* \"#utility.yul\":8650:8653   */\n      dup3\n        /* \"#utility.yul\":8561:8654   */\n      tag_190\n      jump\t// in\n    tag_286:\n        /* \"#utility.yul\":8679:8681   */\n      0x20\n        /* \"#utility.yul\":8674:8677   */\n      dup3\n        /* \"#utility.yul\":8670:8682   */\n      add\n        /* \"#utility.yul\":8663:8682   */\n      swap1\n      pop\n        /* \"#utility.yul\":8322:8688   */\n      swap2\n      swap1\n      pop\n      jump\t// out\n        /* \"#utility.yul\":8694:9113   */\n    tag_96:\n        /* \"#utility.yul\":8860:8864   */\n      0x00\n        /* \"#utility.yul\":8898:8900   */\n      0x20\n        /* \"#utility.yul\":8887:8896   */\n      dup3\n        /* \"#utility.yul\":8883:8901   */\n      add\n        /* \"#utility.yul\":8875:8901   */\n      swap1\n      pop\n        /* \"#utility.yul\":8947:8956   */\n      dup2\n        /* \"#utility.yul\":8941:8945   */\n      dup2\n        /* \"#utility.yul\":8937:8957   */\n      sub\n        /* \"#utility.yul\":8933:8934   */\n      0x00\n        /* \"#utility.yul\":8922:8931   */\n      dup4\n        /* \"#utility.yul\":8918:8935   */\n      add\n        /* \"#utility.yul\":8911:8958   */\n      mstore\n        /* \"#utility.yul\":8975:9106   */\n      tag_288\n        /* \"#utility.yul\":9101:9105   */\n      dup2\n        /* \"#utility.yul\":8975:9106   */\n      tag_191\n      jump\t// in\n    tag_288:\n        /* \"#utility.yul\":8967:9106   */\n      swap1\n      pop\n        /* \"#utility.yul\":8694:9113   */\n      swap2\n      swap1\n      pop\n      jump\t// out\n        /* \"#utility.yul\":9119:9301   */\n    tag_192:\n        /* \"#utility.yul\":9259:9293   */\n      0x4e6f7420656e6f75676820657468657220666f72206c697374696e6720666565\n        /* \"#utility.yul\":9255:9256   */\n      0x00\n        /* \"#utility.yul\":9247:9253   */\n      dup3\n        /* \"#utility.yul\":9243:9257   */\n      add\n        /* \"#utility.yul\":9236:9294   */\n      mstore\n        /* \"#utility.yul\":9119:9301   */\n      pop\n      jump\t// out\n        /* \"#utility.yul\":9307:9673   */\n    tag_193:\n        /* \"#utility.yul\":9449:9452   */\n      0x00\n        /* \"#utility.yul\":9470:9537   */\n      tag_291\n        /* \"#utility.yul\":9534:9536   */\n      0x20\n        /* \"#utility.yul\":9529:9532   */\n      dup4\n        /* \"#utility.yul\":9470:9537   */\n      tag_189\n      jump\t// in\n    tag_291:\n        /* \"#utility.yul\":9463:9537   */\n      swap2\n      pop\n        /* \"#utility.yul\":9546:9639   */\n      tag_292\n        /* \"#utility.yul\":9635:9638   */\n      dup3\n        /* \"#utility.yul\":9546:9639   */\n      tag_192\n      jump\t// in\n    tag_292:\n        /* \"#utility.yul\":9664:9666   */\n      0x20\n        /* \"#utility.yul\":9659:9662   */\n      dup3\n        /* \"#utility.yul\":9655:9667   */\n      add\n        /* \"#utility.yul\":9648:9667   */\n      swap1\n      pop\n        /* \"#utility.yul\":9307:9673   */\n      swap2\n      swap1\n      pop\n      jump\t// out\n        /* \"#utility.yul\":9679:10098   */\n    tag_99:\n        /* \"#utility.yul\":9845:9849   */\n      0x00\n        /* \"#utility.yul\":9883:9885   */\n      0x20\n        /* \"#utility.yul\":9872:9881   */\n      dup3\n        /* \"#utility.yul\":9868:9886   */\n      add\n        /* \"#utility.yul\":9860:9886   */\n      swap1\n      pop\n        /* \"#utility.yul\":9932:9941   */\n      dup2\n        /* \"#utility.yul\":9926:9930   */\n      dup2\n        /* \"#utility.yul\":9922:9942   */\n      sub\n        /* \"#utility.yul\":9918:9919   */\n      0x00\n        /* \"#utility.yul\":9907:9916   */\n      dup4\n        /* \"#utility.yul\":9903:9920   */\n      add\n        /* \"#utility.yul\":9896:9943   */\n      mstore\n        /* \"#utility.yul\":9960:10091   */\n      tag_294\n        /* \"#utility.yul\":10086:10090   */\n      dup2\n        /* \"#utility.yul\":9960:10091   */\n      tag_193\n      jump\t// in\n    tag_294:\n        /* \"#utility.yul\":9952:10091   */\n      swap1\n      pop\n        /* \"#utility.yul\":9679:10098   */\n      swap2\n      swap1\n      pop\n      jump\t// out\n        /* \"#utility.yul\":10104:10222   */\n    tag_194:\n        /* \"#utility.yul\":10191:10215   */\n      tag_296\n        /* \"#utility.yul\":10209:10214   */\n      dup2\n        /* \"#utility.yul\":10191:10215   */\n      tag_168\n      jump\t// in\n    tag_296:\n        /* \"#utility.yul\":10186:10189   */\n      dup3\n        /* \"#utility.yul\":10179:10216   */\n      mstore\n        /* \"#utility.yul\":10104:10222   */\n      pop\n      pop\n      jump\t// out\n        /* \"#utility.yul\":10228:10670   */\n    tag_101:\n        /* \"#utility.yul\":10377:10381   */\n      0x00\n        /* \"#utility.yul\":10415:10417   */\n      0x60\n        /* \"#utility.yul\":10404:10413   */\n      dup3\n        /* \"#utility.yul\":10400:10418   */\n      add\n        /* \"#utility.yul\":10392:10418   */\n      swap1\n      pop\n        /* \"#utility.yul\":10428:10499   */\n      tag_298\n        /* \"#utility.yul\":10496:10497   */\n      0x00\n        /* \"#utility.yul\":10485:10494   */\n      dup4\n        /* \"#utility.yul\":10481:10498   */\n      add\n        /* \"#utility.yul\":10472:10478   */\n      dup7\n        /* \"#utility.yul\":10428:10499   */\n      tag_194\n      jump\t// in\n    tag_298:\n        /* \"#utility.yul\":10509:10581   */\n      tag_299\n        /* \"#utility.yul\":10577:10579   */\n      0x20\n        /* \"#utility.yul\":10566:10575   */\n      dup4\n        /* \"#utility.yul\":10562:10580   */\n      add\n        /* \"#utility.yul\":10553:10559   */\n      dup6\n        /* \"#utility.yul\":10509:10581   */\n      tag_194\n      jump\t// in\n    tag_299:\n        /* \"#utility.yul\":10591:10663   */\n      tag_300\n        /* \"#utility.yul\":10659:10661   */\n      0x40\n        /* \"#utility.yul\":10648:10657   */\n      dup4\n        /* \"#utility.yul\":10644:10662   */\n      add\n        /* \"#utility.yul\":10635:10641   */\n      dup5\n        /* \"#utility.yul\":10591:10663   */\n      tag_180\n      jump\t// in\n    tag_300:\n        /* \"#utility.yul\":10228:10670   */\n      swap5\n      swap4\n      pop\n      pop\n      pop\n      pop\n      jump\t// out\n        /* \"#utility.yul\":10676:10847   */\n    tag_106:\n        /* \"#utility.yul\":10715:10718   */\n      0x00\n        /* \"#utility.yul\":10738:10762   */\n      tag_302\n        /* \"#utility.yul\":10756:10761   */\n      dup3\n        /* \"#utility.yul\":10738:10762   */\n      tag_170\n      jump\t// in\n    tag_302:\n        /* \"#utility.yul\":10729:10762   */\n      swap2\n      pop\n        /* \"#utility.yul\":10784:10788   */\n      0x00\n        /* \"#utility.yul\":10777:10782   */\n      dup3\n        /* \"#utility.yul\":10774:10789   */\n      sub\n        /* \"#utility.yul\":10771:10812   */\n      tag_303\n      jumpi\n        /* \"#utility.yul\":10792:10810   */\n      tag_304\n      tag_188\n      jump\t// in\n    tag_304:\n        /* \"#utility.yul\":10771:10812   */\n    tag_303:\n        /* \"#utility.yul\":10839:10840   */\n      0x01\n        /* \"#utility.yul\":10832:10837   */\n      dup3\n        /* \"#utility.yul\":10828:10841   */\n      sub\n        /* \"#utility.yul\":10821:10841   */\n      swap1\n      pop\n        /* \"#utility.yul\":10676:10847   */\n      swap2\n      swap1\n      pop\n      jump\t// out\n        /* \"#utility.yul\":10853:11517   */\n    tag_108:\n        /* \"#utility.yul\":11058:11062   */\n      0x00\n        /* \"#utility.yul\":11096:11099   */\n      0xa0\n        /* \"#utility.yul\":11085:11094   */\n      dup3\n        /* \"#utility.yul\":11081:11100   */\n      add\n        /* \"#utility.yul\":11073:11100   */\n      swap1\n      pop\n        /* \"#utility.yul\":11110:11181   */\n      tag_306\n        /* \"#utility.yul\":11178:11179   */\n      0x00\n        /* \"#utility.yul\":11167:11176   */\n      dup4\n        /* \"#utility.yul\":11163:11180   */\n      add\n        /* \"#utility.yul\":11154:11160   */\n      dup9\n        /* \"#utility.yul\":11110:11181   */\n      tag_194\n      jump\t// in\n    tag_306:\n        /* \"#utility.yul\":11191:11263   */\n      tag_307\n        /* \"#utility.yul\":11259:11261   */\n      0x20\n        /* \"#utility.yul\":11248:11257   */\n      dup4\n        /* \"#utility.yul\":11244:11262   */\n      add\n        /* \"#utility.yul\":11235:11241   */\n      dup8\n        /* \"#utility.yul\":11191:11263   */\n      tag_180\n      jump\t// in\n    tag_307:\n        /* \"#utility.yul\":11273:11345   */\n      tag_308\n        /* \"#utility.yul\":11341:11343   */\n      0x40\n        /* \"#utility.yul\":11330:11339   */\n      dup4\n        /* \"#utility.yul\":11326:11344   */\n      add\n        /* \"#utility.yul\":11317:11323   */\n      dup7\n        /* \"#utility.yul\":11273:11345   */\n      tag_194\n      jump\t// in\n    tag_308:\n        /* \"#utility.yul\":11355:11427   */\n      tag_309\n        /* \"#utility.yul\":11423:11425   */\n      0x60\n        /* \"#utility.yul\":11412:11421   */\n      dup4\n        /* \"#utility.yul\":11408:11426   */\n      add\n        /* \"#utility.yul\":11399:11405   */\n      dup6\n        /* \"#utility.yul\":11355:11427   */\n      tag_194\n      jump\t// in\n    tag_309:\n        /* \"#utility.yul\":11437:11510   */\n      tag_310\n        /* \"#utility.yul\":11505:11508   */\n      0x80\n        /* \"#utility.yul\":11494:11503   */\n      dup4\n        /* \"#utility.yul\":11490:11509   */\n      add\n        /* \"#utility.yul\":11481:11487   */\n      dup5\n        /* \"#utility.yul\":11437:11510   */\n      tag_180\n      jump\t// in\n    tag_310:\n        /* \"#utility.yul\":10853:11517   */\n      swap7\n      swap6\n      pop\n      pop\n      pop\n      pop\n      pop\n      pop\n      jump\t// out\n        /* \"#utility.yul\":11523:11748   */\n    tag_195:\n        /* \"#utility.yul\":11663:11697   */\n      0x4e6f7420656e6f75676820657468657220746f20636f7665722061736b696e67\n        /* \"#utility.yul\":11659:11660   */\n      0x00\n        /* \"#utility.yul\":11651:11657   */\n      dup3\n        /* \"#utility.yul\":11647:11661   */\n      add\n        /* \"#utility.yul\":11640:11698   */\n      mstore\n        /* \"#utility.yul\":11732:11740   */\n      0x2070726963650000000000000000000000000000000000000000000000000000\n        /* \"#utility.yul\":11727:11729   */\n      0x20\n        /* \"#utility.yul\":11719:11725   */\n      dup3\n        /* \"#utility.yul\":11715:11730   */\n      add\n        /* \"#utility.yul\":11708:11741   */\n      mstore\n        /* \"#utility.yul\":11523:11748   */\n      pop\n      jump\t// out\n        /* \"#utility.yul\":11754:12120   */\n    tag_196:\n        /* \"#utility.yul\":11896:11899   */\n      0x00\n        /* \"#utility.yul\":11917:11984   */\n      tag_313\n        /* \"#utility.yul\":11981:11983   */\n      0x26\n        /* \"#utility.yul\":11976:11979   */\n      dup4\n        /* \"#utility.yul\":11917:11984   */\n      tag_189\n      jump\t// in\n    tag_313:\n        /* \"#utility.yul\":11910:11984   */\n      swap2\n      pop\n        /* \"#utility.yul\":11993:12086   */\n      tag_314\n        /* \"#utility.yul\":12082:12085   */\n      dup3\n        /* \"#utility.yul\":11993:12086   */\n      tag_195\n      jump\t// in\n    tag_314:\n        /* \"#utility.yul\":12111:12113   */\n      0x40\n        /* \"#utility.yul\":12106:12109   */\n      dup3\n        /* \"#utility.yul\":12102:12114   */\n      add\n        /* \"#utility.yul\":12095:12114   */\n      swap1\n      pop\n        /* \"#utility.yul\":11754:12120   */\n      swap2\n      swap1\n      pop\n      jump\t// out\n        /* \"#utility.yul\":12126:12545   */\n    tag_116:\n        /* \"#utility.yul\":12292:12296   */\n      0x00\n        /* \"#utility.yul\":12330:12332   */\n      0x20\n        /* \"#utility.yul\":12319:12328   */\n      dup3\n        /* \"#utility.yul\":12315:12333   */\n      add\n        /* \"#utility.yul\":12307:12333   */\n      swap1\n      pop\n        /* \"#utility.yul\":12379:12388   */\n      dup2\n        /* \"#utility.yul\":12373:12377   */\n      dup2\n        /* \"#utility.yul\":12369:12389   */\n      sub\n        /* \"#utility.yul\":12365:12366   */\n      0x00\n        /* \"#utility.yul\":12354:12363   */\n      dup4\n        /* \"#utility.yul\":12350:12367   */\n      add\n        /* \"#utility.yul\":12343:12390   */\n      mstore\n        /* \"#utility.yul\":12407:12538   */\n      tag_316\n        /* \"#utility.yul\":12533:12537   */\n      dup2\n        /* \"#utility.yul\":12407:12538   */\n      tag_196\n      jump\t// in\n    tag_316:\n        /* \"#utility.yul\":12399:12538   */\n      swap1\n      pop\n        /* \"#utility.yul\":12126:12545   */\n      swap2\n      swap1\n      pop\n      jump\t// out\n        /* \"#utility.yul\":12551:12611   */\n    tag_197:\n        /* \"#utility.yul\":12579:12582   */\n      0x00\n        /* \"#utility.yul\":12600:12605   */\n      dup2\n        /* \"#utility.yul\":12593:12605   */\n      swap1\n      pop\n        /* \"#utility.yul\":12551:12611   */\n      swap2\n      swap1\n      pop\n      jump\t// out\n        /* \"#utility.yul\":12617:12759   */\n    tag_198:\n        /* \"#utility.yul\":12667:12676   */\n      0x00\n        /* \"#utility.yul\":12700:12753   */\n      tag_319\n        /* \"#utility.yul\":12718:12752   */\n      tag_320\n        /* \"#utility.yul\":12727:12751   */\n      tag_321\n        /* \"#utility.yul\":12745:12750   */\n      dup5\n        /* \"#utility.yul\":12727:12751   */\n      tag_167\n      jump\t// in\n    tag_321:\n        /* \"#utility.yul\":12718:12752   */\n      tag_197\n      jump\t// in\n    tag_320:\n        /* \"#utility.yul\":12700:12753   */\n      tag_167\n      jump\t// in\n    tag_319:\n        /* \"#utility.yul\":12687:12753   */\n      swap1\n      pop\n        /* \"#utility.yul\":12617:12759   */\n      swap2\n      swap1\n      pop\n      jump\t// out\n        /* \"#utility.yul\":12765:12891   */\n    tag_199:\n        /* \"#utility.yul\":12815:12824   */\n      0x00\n        /* \"#utility.yul\":12848:12885   */\n      tag_323\n        /* \"#utility.yul\":12879:12884   */\n      dup3\n        /* \"#utility.yul\":12848:12885   */\n      tag_198\n      jump\t// in\n    tag_323:\n        /* \"#utility.yul\":12835:12885   */\n      swap1\n      pop\n        /* \"#utility.yul\":12765:12891   */\n      swap2\n      swap1\n      pop\n      jump\t// out\n        /* \"#utility.yul\":12897:13031   */\n    tag_200:\n        /* \"#utility.yul\":12955:12964   */\n      0x00\n        /* \"#utility.yul\":12988:13025   */\n      tag_325\n        /* \"#utility.yul\":13019:13024   */\n      dup3\n        /* \"#utility.yul\":12988:13025   */\n      tag_199\n      jump\t// in\n    tag_325:\n        /* \"#utility.yul\":12975:13025   */\n      swap1\n      pop\n        /* \"#utility.yul\":12897:13031   */\n      swap2\n      swap1\n      pop\n      jump\t// out\n        /* \"#utility.yul\":13037:13184   */\n    tag_201:\n        /* \"#utility.yul\":13132:13177   */\n      tag_327\n        /* \"#utility.yul\":13171:13176   */\n      dup2\n        /* \"#utility.yul\":13132:13177   */\n      tag_200\n      jump\t// in\n    tag_327:\n        /* \"#utility.yul\":13127:13130   */\n      dup3\n        /* \"#utility.yul\":13120:13178   */\n      mstore\n        /* \"#utility.yul\":13037:13184   */\n      pop\n      pop\n      jump\t// out\n        /* \"#utility.yul\":13190:13648   */\n    tag_120:\n        /* \"#utility.yul\":13347:13351   */\n      0x00\n        /* \"#utility.yul\":13385:13387   */\n      0x60\n        /* \"#utility.yul\":13374:13383   */\n      dup3\n        /* \"#utility.yul\":13370:13388   */\n      add\n        /* \"#utility.yul\":13362:13388   */\n      swap1\n      pop\n        /* \"#utility.yul\":13398:13469   */\n      tag_329\n        /* \"#utility.yul\":13466:13467   */\n      0x00\n        /* \"#utility.yul\":13455:13464   */\n      dup4\n        /* \"#utility.yul\":13451:13468   */\n      add\n        /* \"#utility.yul\":13442:13448   */\n      dup7\n        /* \"#utility.yul\":13398:13469   */\n      tag_194\n      jump\t// in\n    tag_329:\n        /* \"#utility.yul\":13479:13559   */\n      tag_330\n        /* \"#utility.yul\":13555:13557   */\n      0x20\n        /* \"#utility.yul\":13544:13553   */\n      dup4\n        /* \"#utility.yul\":13540:13558   */\n      add\n        /* \"#utility.yul\":13531:13537   */\n      dup6\n        /* \"#utility.yul\":13479:13559   */\n      tag_201\n      jump\t// in\n    tag_330:\n        /* \"#utility.yul\":13569:13641   */\n      tag_331\n        /* \"#utility.yul\":13637:13639   */\n      0x40\n        /* \"#utility.yul\":13626:13635   */\n      dup4\n        /* \"#utility.yul\":13622:13640   */\n      add\n        /* \"#utility.yul\":13613:13619   */\n      dup5\n        /* \"#utility.yul\":13569:13641   */\n      tag_180\n      jump\t// in\n    tag_331:\n        /* \"#utility.yul\":13190:13648   */\n      swap5\n      swap4\n      pop\n      pop\n      pop\n      pop\n      jump\t// out\n        /* \"#utility.yul\":13654:14350   */\n    tag_126:\n        /* \"#utility.yul\":13875:13879   */\n      0x00\n        /* \"#utility.yul\":13913:13916   */\n      0xa0\n        /* \"#utility.yul\":13902:13911   */\n      dup3\n        /* \"#utility.yul\":13898:13917   */\n      add\n        /* \"#utility.yul\":13890:13917   */\n      swap1\n      pop\n        /* \"#utility.yul\":13927:13998   */\n      tag_333\n        /* \"#utility.yul\":13995:13996   */\n      0x00\n        /* \"#utility.yul\":13984:13993   */\n      dup4\n        /* \"#utility.yul\":13980:13997   */\n      add\n        /* \"#utility.yul\":13971:13977   */\n      dup9\n        /* \"#utility.yul\":13927:13998   */\n      tag_194\n      jump\t// in\n    tag_333:\n        /* \"#utility.yul\":14008:14080   */\n      tag_334\n        /* \"#utility.yul\":14076:14078   */\n      0x20\n        /* \"#utility.yul\":14065:14074   */\n      dup4\n        /* \"#utility.yul\":14061:14079   */\n      add\n        /* \"#utility.yul\":14052:14058   */\n      dup8\n        /* \"#utility.yul\":14008:14080   */\n      tag_180\n      jump\t// in\n    tag_334:\n        /* \"#utility.yul\":14090:14170   */\n      tag_335\n        /* \"#utility.yul\":14166:14168   */\n      0x40\n        /* \"#utility.yul\":14155:14164   */\n      dup4\n        /* \"#utility.yul\":14151:14169   */\n      add\n        /* \"#utility.yul\":14142:14148   */\n      dup7\n        /* \"#utility.yul\":14090:14170   */\n      tag_201\n      jump\t// in\n    tag_335:\n        /* \"#utility.yul\":14180:14260   */\n      tag_336\n        /* \"#utility.yul\":14256:14258   */\n      0x60\n        /* \"#utility.yul\":14245:14254   */\n      dup4\n        /* \"#utility.yul\":14241:14259   */\n      add\n        /* \"#utility.yul\":14232:14238   */\n      dup6\n        /* \"#utility.yul\":14180:14260   */\n      tag_201\n      jump\t// in\n    tag_336:\n        /* \"#utility.yul\":14270:14343   */\n      tag_337\n        /* \"#utility.yul\":14338:14341   */\n      0x80\n        /* \"#utility.yul\":14327:14336   */\n      dup4\n        /* \"#utility.yul\":14323:14342   */\n      add\n        /* \"#utility.yul\":14314:14320   */\n      dup5\n        /* \"#utility.yul\":14270:14343   */\n      tag_180\n      jump\t// in\n    tag_337:\n        /* \"#utility.yul\":13654:14350   */\n      swap7\n      swap6\n      pop\n      pop\n      pop\n      pop\n      pop\n      pop\n      jump\t// out\n        /* \"#utility.yul\":14356:14550   */\n    tag_130:\n        /* \"#utility.yul\":14396:14400   */\n      0x00\n        /* \"#utility.yul\":14416:14436   */\n      tag_339\n        /* \"#utility.yul\":14434:14435   */\n      dup3\n        /* \"#utility.yul\":14416:14436   */\n      tag_170\n      jump\t// in\n    tag_339:\n        /* \"#utility.yul\":14411:14436   */\n      swap2\n      pop\n        /* \"#utility.yul\":14450:14470   */\n      tag_340\n        /* \"#utility.yul\":14468:14469   */\n      dup4\n        /* \"#utility.yul\":14450:14470   */\n      tag_170\n      jump\t// in\n    tag_340:\n        /* \"#utility.yul\":14445:14470   */\n      swap3\n      pop\n        /* \"#utility.yul\":14494:14495   */\n      dup3\n        /* \"#utility.yul\":14491:14492   */\n      dup3\n        /* \"#utility.yul\":14487:14496   */\n      sub\n        /* \"#utility.yul\":14479:14496   */\n      swap1\n      pop\n        /* \"#utility.yul\":14518:14519   */\n      dup2\n        /* \"#utility.yul\":14512:14516   */\n      dup2\n        /* \"#utility.yul\":14509:14520   */\n      gt\n        /* \"#utility.yul\":14506:14543   */\n      iszero\n      tag_341\n      jumpi\n        /* \"#utility.yul\":14523:14541   */\n      tag_342\n      tag_188\n      jump\t// in\n    tag_342:\n        /* \"#utility.yul\":14506:14543   */\n    tag_341:\n        /* \"#utility.yul\":14356:14550   */\n      swap3\n      swap2\n      pop\n      pop\n      jump\t// out\n\n    auxdata: 0xa2646970667358221220e4ffa062a6d229a4c5913d3c5afc5982a845a7443aea272a1183b48a92a3c31464736f6c63430008160033\n}\n",
				"bytecode": {
					"linkReferences": {},
					"object": "60806040525f600355348015610013575f80fd5b5060015f819055503360045f6101000a81548173ffffffffffffffffffffffffffffffffffffffff021916908373ffffffffffffffffffffffffffffffffffffffff1602179055506119e3806100685f395ff3fe60806040526004361061006f575f3560e01c806334f5b6241161004d57806334f5b624146100f15780634ddf4f8f1461010d5780638d6cb3fb14610129578063c922b17c146101535761006f565b8063047b07bf146100735780631f4cc4db1461009d5780632b86ae38146100c7575b5f80fd5b34801561007e575f80fd5b5061008761016f565b6040516100949190611440565b60405180910390f35b3480156100a8575f80fd5b506100b161047e565b6040516100be9190611440565b60405180910390f35b3480156100d2575f80fd5b506100db6107f9565b6040516100e8919061146f565b60405180910390f35b61010b600480360381019061010691906114e0565b6107ff565b005b61012760048036038101906101229190611530565b610a18565b005b348015610134575f80fd5b5061013d610c3c565b60405161014a9190611440565b60405180910390f35b61016d600480360381019061016891906114e0565b610e82565b005b60605f60025490505f805b82811015610210573373ffffffffffffffffffffffffffffffffffffffff1660055f6001846101a9919061159b565b81526020019081526020015f206003015f9054906101000a900473ffffffffffffffffffffffffffffffffffffffff1673ffffffffffffffffffffffffffffffffffffffff16036102035781806101ff906115ce565b9250505b808060010191505061017a565b505f8167ffffffffffffffff81111561022c5761022b611615565b5b60405190808252806020026020018201604052801561026557816020015b61025261121a565b81526020019060019003908161024a5790505b5090505f805b84811015610473573373ffffffffffffffffffffffffffffffffffffffff1660055f60018461029a919061159b565b81526020019081526020015f206003015f9054906101000a900473ffffffffffffffffffffffffffffffffffffffff1673ffffffffffffffffffffffffffffffffffffffff16036104665760055f6001836102f5919061159b565b81526020019081526020015f206040518060c00160405290815f82015f9054906101000a900473ffffffffffffffffffffffffffffffffffffffff1673ffffffffffffffffffffffffffffffffffffffff1673ffffffffffffffffffffffffffffffffffffffff16815260200160018201548152602001600282015f9054906101000a900473ffffffffffffffffffffffffffffffffffffffff1673ffffffffffffffffffffffffffffffffffffffff1673ffffffffffffffffffffffffffffffffffffffff168152602001600382015f9054906101000a900473ffffffffffffffffffffffffffffffffffffffff1673ffffffffffffffffffffffffffffffffffffffff1673ffffffffffffffffffffffffffffffffffffffff16815260200160048201548152602001600582015f9054906101000a900460ff16151515158152505083838151811061044c5761044b611642565b5b60200260200101819052508180610462906115ce565b9250505b808060010191505061026b565b508194505050505090565b60605f60025490505f805b82811015610555573373ffffffffffffffffffffffffffffffffffffffff1660055f6001846104b8919061159b565b81526020019081526020015f206002015f9054906101000a900473ffffffffffffffffffffffffffffffffffffffff1673ffffffffffffffffffffffffffffffffffffffff16148015610534575060055f600183610516919061159b565b81526020019081526020015f206005015f9054906101000a900460ff165b15610548578180610544906115ce565b9250505b8080600101915050610489565b505f8167ffffffffffffffff81111561057157610570611615565b5b6040519080825280602002602001820160405280156105aa57816020015b61059761121a565b81526020019060019003908161058f5790505b5090505f805b848110156107ee573373ffffffffffffffffffffffffffffffffffffffff1660055f6001846105df919061159b565b81526020019081526020015f206002015f9054906101000a900473ffffffffffffffffffffffffffffffffffffffff1673ffffffffffffffffffffffffffffffffffffffff1614801561065b575060055f60018361063d919061159b565b81526020019081526020015f206005015f9054906101000a900460ff165b156107e15760055f600183610670919061159b565b81526020019081526020015f206040518060c00160405290815f82015f9054906101000a900473ffffffffffffffffffffffffffffffffffffffff1673ffffffffffffffffffffffffffffffffffffffff1673ffffffffffffffffffffffffffffffffffffffff16815260200160018201548152602001600282015f9054906101000a900473ffffffffffffffffffffffffffffffffffffffff1673ffffffffffffffffffffffffffffffffffffffff1673ffffffffffffffffffffffffffffffffffffffff168152602001600382015f9054906101000a900473ffffffffffffffffffffffffffffffffffffffff1673ffffffffffffffffffffffffffffffffffffffff1673ffffffffffffffffffffffffffffffffffffffff16815260200160048201548152602001600582015f9054906101000a900460ff1615151515815250508383815181106107c7576107c6611642565b5b602002602001018190525081806107dd906115ce565b9250505b80806001019150506105b0565b508194505050505090565b60035481565b6108076111cd565b5f8111610849576040517f08c379a0000000000000000000000000000000000000000000000000000000008152600401610840906116c9565b60405180910390fd5b600354341461088d576040517f08c379a000000000000000000000000000000000000000000000000000000000815260040161088490611731565b60405180910390fd5b8273ffffffffffffffffffffffffffffffffffffffff166323b872dd3330856040518463ffffffff1660e01b81526004016108ca9392919061175e565b5f604051808303815f87803b1580156108e1575f80fd5b505af11580156108f3573d5f803e3d5ffd5b505050505f60055f8481526020019081526020015f20905033816002015f6101000a81548173ffffffffffffffffffffffffffffffffffffffff021916908373ffffffffffffffffffffffffffffffffffffffff16021790555030816003015f6101000a81548173ffffffffffffffffffffffffffffffffffffffff021916908373ffffffffffffffffffffffffffffffffffffffff1602179055506001816005015f6101000a81548160ff02191690831515021790555081816004018190555060015f8154809291906109c690611793565b91905055507fa0c6c0d02d86fdacecbaa5fdf5894bab204e31a778250474108540733a9b8d198484333086604051610a029594939291906117ba565b60405180910390a150610a13611211565b505050565b610a206111cd565b5f60055f8381526020019081526020015f2090508060040154341015610a7b576040517f08c379a0000000000000000000000000000000000000000000000000000000008152600401610a729061187b565b60405180910390fd5b5f339050816002015f9054906101000a900473ffffffffffffffffffffffffffffffffffffffff1673ffffffffffffffffffffffffffffffffffffffff166108fc3490811502906040515f60405180830381858888f19350505050158015610ae5573d5f803e3d5ffd5b508373ffffffffffffffffffffffffffffffffffffffff166323b872dd308385600101546040518463ffffffff1660e01b8152600401610b27939291906118f4565b5f604051808303815f87803b158015610b3e575f80fd5b505af1158015610b50573d5f803e3d5ffd5b5050505080826003015f6101000a81548173ffffffffffffffffffffffffffffffffffffffff021916908373ffffffffffffffffffffffffffffffffffffffff1602179055505f826005015f6101000a81548160ff02191690831515021790555060015f815480929190610bc3906115ce565b91905055507f16f1dbd97e6bf646d429ed186cce832f1f7fd9907814293b83181e9970ab7bd2848360010154846002015f9054906101000a900473ffffffffffffffffffffffffffffffffffffffff168434604051610c26959493929190611929565b60405180910390a15050610c38611211565b5050565b60605f60025490505f60015482610c53919061197a565b90505f8167ffffffffffffffff811115610c7057610c6f611615565b5b604051908082528060200260200182016040528015610ca957816020015b610c9661121a565b815260200190600190039081610c8e5790505b5090505f805b84811015610e775760055f600183610cc7919061159b565b81526020019081526020015f206005015f9054906101000a900460ff1615610e6a5760055f600183610cf9919061159b565b81526020019081526020015f206040518060c00160405290815f82015f9054906101000a900473ffffffffffffffffffffffffffffffffffffffff1673ffffffffffffffffffffffffffffffffffffffff1673ffffffffffffffffffffffffffffffffffffffff16815260200160018201548152602001600282015f9054906101000a900473ffffffffffffffffffffffffffffffffffffffff1673ffffffffffffffffffffffffffffffffffffffff1673ffffffffffffffffffffffffffffffffffffffff168152602001600382015f9054906101000a900473ffffffffffffffffffffffffffffffffffffffff1673ffffffffffffffffffffffffffffffffffffffff1673ffffffffffffffffffffffffffffffffffffffff16815260200160048201548152602001600582015f9054906101000a900460ff161515151581525050838381518110610e5057610e4f611642565b5b60200260200101819052508180610e66906115ce565b9250505b8080600101915050610caf565b508194505050505090565b610e8a6111cd565b5f8111610ecc576040517f08c379a0000000000000000000000000000000000000000000000000000000008152600401610ec3906116c9565b60405180910390fd5b6003543414610f10576040517f08c379a0000000000000000000000000000000000000000000000000000000008152600401610f0790611731565b60405180910390fd5b8273ffffffffffffffffffffffffffffffffffffffff166323b872dd3330856040518463ffffffff1660e01b8152600401610f4d9392919061175e565b5f604051808303815f87803b158015610f64575f80fd5b505af1158015610f76573d5f803e3d5ffd5b5050505060045f9054906101000a900473ffffffffffffffffffffffffffffffffffffffff1673ffffffffffffffffffffffffffffffffffffffff166108fc60035490811502906040515f60405180830381858888f19350505050158015610fe0573d5f803e3d5ffd5b5060025f815480929190610ff3906115ce565b91905055506040518060c001604052808473ffffffffffffffffffffffffffffffffffffffff1681526020018381526020013373ffffffffffffffffffffffffffffffffffffffff1681526020013073ffffffffffffffffffffffffffffffffffffffff1681526020018281526020016001151581525060055f8481526020019081526020015f205f820151815f015f6101000a81548173ffffffffffffffffffffffffffffffffffffffff021916908373ffffffffffffffffffffffffffffffffffffffff160217905550602082015181600101556040820151816002015f6101000a81548173ffffffffffffffffffffffffffffffffffffffff021916908373ffffffffffffffffffffffffffffffffffffffff1602179055506060820151816003015f6101000a81548173ffffffffffffffffffffffffffffffffffffffff021916908373ffffffffffffffffffffffffffffffffffffffff1602179055506080820151816004015560a0820151816005015f6101000a81548160ff0219169083151502179055509050507fa0c6c0d02d86fdacecbaa5fdf5894bab204e31a778250474108540733a9b8d1983833330856040516111b89594939291906117ba565b60405180910390a16111c8611211565b505050565b60025f5403611208576040517f3ee5aeb500000000000000000000000000000000000000000000000000000000815260040160405180910390fd5b60025f81905550565b60015f81905550565b6040518060c001604052805f73ffffffffffffffffffffffffffffffffffffffff1681526020015f81526020015f73ffffffffffffffffffffffffffffffffffffffff1681526020015f73ffffffffffffffffffffffffffffffffffffffff1681526020015f81526020015f151581525090565b5f81519050919050565b5f82825260208201905092915050565b5f819050602082019050919050565b5f73ffffffffffffffffffffffffffffffffffffffff82169050919050565b5f6112e0826112b7565b9050919050565b6112f0816112d6565b82525050565b5f819050919050565b611308816112f6565b82525050565b5f611318826112b7565b9050919050565b6113288161130e565b82525050565b5f8115159050919050565b6113428161132e565b82525050565b60c082015f82015161135c5f8501826112e7565b50602082015161136f60208501826112ff565b506040820151611382604085018261131f565b506060820151611395606085018261131f565b5060808201516113a860808501826112ff565b5060a08201516113bb60a0850182611339565b50505050565b5f6113cc8383611348565b60c08301905092915050565b5f602082019050919050565b5f6113ee8261128e565b6113f88185611298565b9350611403836112a8565b805f5b8381101561143357815161141a88826113c1565b9750611425836113d8565b925050600181019050611406565b5085935050505092915050565b5f6020820190508181035f83015261145881846113e4565b905092915050565b611469816112f6565b82525050565b5f6020820190506114825f830184611460565b92915050565b5f80fd5b611495816112d6565b811461149f575f80fd5b50565b5f813590506114b08161148c565b92915050565b6114bf816112f6565b81146114c9575f80fd5b50565b5f813590506114da816114b6565b92915050565b5f805f606084860312156114f7576114f6611488565b5b5f611504868287016114a2565b9350506020611515868287016114cc565b9250506040611526868287016114cc565b9150509250925092565b5f806040838503121561154657611545611488565b5b5f611553858286016114a2565b9250506020611564858286016114cc565b9150509250929050565b7f4e487b71000000000000000000000000000000000000000000000000000000005f52601160045260245ffd5b5f6115a5826112f6565b91506115b0836112f6565b92508282019050808211156115c8576115c761156e565b5b92915050565b5f6115d8826112f6565b91507fffffffffffffffffffffffffffffffffffffffffffffffffffffffffffffffff820361160a5761160961156e565b5b600182019050919050565b7f4e487b71000000000000000000000000000000000000000000000000000000005f52604160045260245ffd5b7f4e487b71000000000000000000000000000000000000000000000000000000005f52603260045260245ffd5b5f82825260208201905092915050565b7f5072696365206d757374206265206174206c65617374203120776569000000005f82015250565b5f6116b3601c8361166f565b91506116be8261167f565b602082019050919050565b5f6020820190508181035f8301526116e0816116a7565b9050919050565b7f4e6f7420656e6f75676820657468657220666f72206c697374696e67206665655f82015250565b5f61171b60208361166f565b9150611726826116e7565b602082019050919050565b5f6020820190508181035f8301526117488161170f565b9050919050565b611758816112d6565b82525050565b5f6060820190506117715f83018661174f565b61177e602083018561174f565b61178b6040830184611460565b949350505050565b5f61179d826112f6565b91505f82036117af576117ae61156e565b5b600182039050919050565b5f60a0820190506117cd5f83018861174f565b6117da6020830187611460565b6117e7604083018661174f565b6117f4606083018561174f565b6118016080830184611460565b9695505050505050565b7f4e6f7420656e6f75676820657468657220746f20636f7665722061736b696e675f8201527f2070726963650000000000000000000000000000000000000000000000000000602082015250565b5f61186560268361166f565b91506118708261180b565b604082019050919050565b5f6020820190508181035f83015261189281611859565b9050919050565b5f819050919050565b5f6118bc6118b76118b2846112b7565b611899565b6112b7565b9050919050565b5f6118cd826118a2565b9050919050565b5f6118de826118c3565b9050919050565b6118ee816118d4565b82525050565b5f6060820190506119075f83018661174f565b61191460208301856118e5565b6119216040830184611460565b949350505050565b5f60a08201905061193c5f83018861174f565b6119496020830187611460565b61195660408301866118e5565b61196360608301856118e5565b6119706080830184611460565b9695505050505050565b5f611984826112f6565b915061198f836112f6565b92508282039050818111156119a7576119a661156e565b5b9291505056fea2646970667358221220e4ffa062a6d229a4c5913d3c5afc5982a845a7443aea272a1183b48a92a3c31464736f6c63430008160033",
					"opcodes": "PUSH1 0x80 PUSH1 0x40 MSTORE PUSH0 PUSH1 0x3 SSTORE CALLVALUE DUP1 ISZERO PUSH2 0x13 JUMPI PUSH0 DUP1 REVERT JUMPDEST POP PUSH1 0x1 PUSH0 DUP2 SWAP1 SSTORE POP CALLER PUSH1 0x4 PUSH0 PUSH2 0x100 EXP DUP2 SLOAD DUP2 PUSH20 0xFFFFFFFFFFFFFFFFFFFFFFFFFFFFFFFFFFFFFFFF MUL NOT AND SWAP1 DUP4 PUSH20 0xFFFFFFFFFFFFFFFFFFFFFFFFFFFFFFFFFFFFFFFF AND MUL OR SWAP1 SSTORE POP PUSH2 0x19E3 DUP1 PUSH2 0x68 PUSH0 CODECOPY PUSH0 RETURN INVALID PUSH1 0x80 PUSH1 0x40 MSTORE PUSH1 0x4 CALLDATASIZE LT PUSH2 0x6F JUMPI PUSH0 CALLDATALOAD PUSH1 0xE0 SHR DUP1 PUSH4 0x34F5B624 GT PUSH2 0x4D JUMPI DUP1 PUSH4 0x34F5B624 EQ PUSH2 0xF1 JUMPI DUP1 PUSH4 0x4DDF4F8F EQ PUSH2 0x10D JUMPI DUP1 PUSH4 0x8D6CB3FB EQ PUSH2 0x129 JUMPI DUP1 PUSH4 0xC922B17C EQ PUSH2 0x153 JUMPI PUSH2 0x6F JUMP JUMPDEST DUP1 PUSH4 0x47B07BF EQ PUSH2 0x73 JUMPI DUP1 PUSH4 0x1F4CC4DB EQ PUSH2 0x9D JUMPI DUP1 PUSH4 0x2B86AE38 EQ PUSH2 0xC7 JUMPI JUMPDEST PUSH0 DUP1 REVERT JUMPDEST CALLVALUE DUP1 ISZERO PUSH2 0x7E JUMPI PUSH0 DUP1 REVERT JUMPDEST POP PUSH2 0x87 PUSH2 0x16F JUMP JUMPDEST PUSH1 0x40 MLOAD PUSH2 0x94 SWAP2 SWAP1 PUSH2 0x1440 JUMP JUMPDEST PUSH1 0x40 MLOAD DUP1 SWAP2 SUB SWAP1 RETURN JUMPDEST CALLVALUE DUP1 ISZERO PUSH2 0xA8 JUMPI PUSH0 DUP1 REVERT JUMPDEST POP PUSH2 0xB1 PUSH2 0x47E JUMP JUMPDEST PUSH1 0x40 MLOAD PUSH2 0xBE SWAP2 SWAP1 PUSH2 0x1440 JUMP JUMPDEST PUSH1 0x40 MLOAD DUP1 SWAP2 SUB SWAP1 RETURN JUMPDEST CALLVALUE DUP1 ISZERO PUSH2 0xD2 JUMPI PUSH0 DUP1 REVERT JUMPDEST POP PUSH2 0xDB PUSH2 0x7F9 JUMP JUMPDEST PUSH1 0x40 MLOAD PUSH2 0xE8 SWAP2 SWAP1 PUSH2 0x146F JUMP JUMPDEST PUSH1 0x40 MLOAD DUP1 SWAP2 SUB SWAP1 RETURN JUMPDEST PUSH2 0x10B PUSH1 0x4 DUP1 CALLDATASIZE SUB DUP2 ADD SWAP1 PUSH2 0x106 SWAP2 SWAP1 PUSH2 0x14E0 JUMP JUMPDEST PUSH2 0x7FF JUMP JUMPDEST STOP JUMPDEST PUSH2 0x127 PUSH1 0x4 DUP1 CALLDATASIZE SUB DUP2 ADD SWAP1 PUSH2 0x122 SWAP2 SWAP1 PUSH2 0x1530 JUMP JUMPDEST PUSH2 0xA18 JUMP JUMPDEST STOP JUMPDEST CALLVALUE DUP1 ISZERO PUSH2 0x134 JUMPI PUSH0 DUP1 REVERT JUMPDEST POP PUSH2 0x13D PUSH2 0xC3C JUMP JUMPDEST PUSH1 0x40 MLOAD PUSH2 0x14A SWAP2 SWAP1 PUSH2 0x1440 JUMP JUMPDEST PUSH1 0x40 MLOAD DUP1 SWAP2 SUB SWAP1 RETURN JUMPDEST PUSH2 0x16D PUSH1 0x4 DUP1 CALLDATASIZE SUB DUP2 ADD SWAP1 PUSH2 0x168 SWAP2 SWAP1 PUSH2 0x14E0 JUMP JUMPDEST PUSH2 0xE82 JUMP JUMPDEST STOP JUMPDEST PUSH1 0x60 PUSH0 PUSH1 0x2 SLOAD SWAP1 POP PUSH0 DUP1 JUMPDEST DUP3 DUP2 LT ISZERO PUSH2 0x210 JUMPI CALLER PUSH20 0xFFFFFFFFFFFFFFFFFFFFFFFFFFFFFFFFFFFFFFFF AND PUSH1 0x5 PUSH0 PUSH1 0x1 DUP5 PUSH2 0x1A9 SWAP2 SWAP1 PUSH2 0x159B JUMP JUMPDEST DUP2 MSTORE PUSH1 0x20 ADD SWAP1 DUP2 MSTORE PUSH1 0x20 ADD PUSH0 KECCAK256 PUSH1 0x3 ADD PUSH0 SWAP1 SLOAD SWAP1 PUSH2 0x100 EXP SWAP1 DIV PUSH20 0xFFFFFFFFFFFFFFFFFFFFFFFFFFFFFFFFFFFFFFFF AND PUSH20 0xFFFFFFFFFFFFFFFFFFFFFFFFFFFFFFFFFFFFFFFF AND SUB PUSH2 0x203 JUMPI DUP2 DUP1 PUSH2 0x1FF SWAP1 PUSH2 0x15CE JUMP JUMPDEST SWAP3 POP POP JUMPDEST DUP1 DUP1 PUSH1 0x1 ADD SWAP2 POP POP PUSH2 0x17A JUMP JUMPDEST POP PUSH0 DUP2 PUSH8 0xFFFFFFFFFFFFFFFF DUP2 GT ISZERO PUSH2 0x22C JUMPI PUSH2 0x22B PUSH2 0x1615 JUMP JUMPDEST JUMPDEST PUSH1 0x40 MLOAD SWAP1 DUP1 DUP3 MSTORE DUP1 PUSH1 0x20 MUL PUSH1 0x20 ADD DUP3 ADD PUSH1 0x40 MSTORE DUP1 ISZERO PUSH2 0x265 JUMPI DUP2 PUSH1 0x20 ADD JUMPDEST PUSH2 0x252 PUSH2 0x121A JUMP JUMPDEST DUP2 MSTORE PUSH1 0x20 ADD SWAP1 PUSH1 0x1 SWAP1 SUB SWAP1 DUP2 PUSH2 0x24A JUMPI SWAP1 POP JUMPDEST POP SWAP1 POP PUSH0 DUP1 JUMPDEST DUP5 DUP2 LT ISZERO PUSH2 0x473 JUMPI CALLER PUSH20 0xFFFFFFFFFFFFFFFFFFFFFFFFFFFFFFFFFFFFFFFF AND PUSH1 0x5 PUSH0 PUSH1 0x1 DUP5 PUSH2 0x29A SWAP2 SWAP1 PUSH2 0x159B JUMP JUMPDEST DUP2 MSTORE PUSH1 0x20 ADD SWAP1 DUP2 MSTORE PUSH1 0x20 ADD PUSH0 KECCAK256 PUSH1 0x3 ADD PUSH0 SWAP1 SLOAD SWAP1 PUSH2 0x100 EXP SWAP1 DIV PUSH20 0xFFFFFFFFFFFFFFFFFFFFFFFFFFFFFFFFFFFFFFFF AND PUSH20 0xFFFFFFFFFFFFFFFFFFFFFFFFFFFFFFFFFFFFFFFF AND SUB PUSH2 0x466 JUMPI PUSH1 0x5 PUSH0 PUSH1 0x1 DUP4 PUSH2 0x2F5 SWAP2 SWAP1 PUSH2 0x159B JUMP JUMPDEST DUP2 MSTORE PUSH1 0x20 ADD SWAP1 DUP2 MSTORE PUSH1 0x20 ADD PUSH0 KECCAK256 PUSH1 0x40 MLOAD DUP1 PUSH1 0xC0 ADD PUSH1 0x40 MSTORE SWAP1 DUP2 PUSH0 DUP3 ADD PUSH0 SWAP1 SLOAD SWAP1 PUSH2 0x100 EXP SWAP1 DIV PUSH20 0xFFFFFFFFFFFFFFFFFFFFFFFFFFFFFFFFFFFFFFFF AND PUSH20 0xFFFFFFFFFFFFFFFFFFFFFFFFFFFFFFFFFFFFFFFF AND PUSH20 0xFFFFFFFFFFFFFFFFFFFFFFFFFFFFFFFFFFFFFFFF AND DUP2 MSTORE PUSH1 0x20 ADD PUSH1 0x1 DUP3 ADD SLOAD DUP2 MSTORE PUSH1 0x20 ADD PUSH1 0x2 DUP3 ADD PUSH0 SWAP1 SLOAD SWAP1 PUSH2 0x100 EXP SWAP1 DIV PUSH20 0xFFFFFFFFFFFFFFFFFFFFFFFFFFFFFFFFFFFFFFFF AND PUSH20 0xFFFFFFFFFFFFFFFFFFFFFFFFFFFFFFFFFFFFFFFF AND PUSH20 0xFFFFFFFFFFFFFFFFFFFFFFFFFFFFFFFFFFFFFFFF AND DUP2 MSTORE PUSH1 0x20 ADD PUSH1 0x3 DUP3 ADD PUSH0 SWAP1 SLOAD SWAP1 PUSH2 0x100 EXP SWAP1 DIV PUSH20 0xFFFFFFFFFFFFFFFFFFFFFFFFFFFFFFFFFFFFFFFF AND PUSH20 0xFFFFFFFFFFFFFFFFFFFFFFFFFFFFFFFFFFFFFFFF AND PUSH20 0xFFFFFFFFFFFFFFFFFFFFFFFFFFFFFFFFFFFFFFFF AND DUP2 MSTORE PUSH1 0x20 ADD PUSH1 0x4 DUP3 ADD SLOAD DUP2 MSTORE PUSH1 0x20 ADD PUSH1 0x5 DUP3 ADD PUSH0 SWAP1 SLOAD SWAP1 PUSH2 0x100 EXP SWAP1 DIV PUSH1 0xFF AND ISZERO ISZERO ISZERO ISZERO DUP2 MSTORE POP POP DUP4 DUP4 DUP2 MLOAD DUP2 LT PUSH2 0x44C JUMPI PUSH2 0x44B PUSH2 0x1642 JUMP JUMPDEST JUMPDEST PUSH1 0x20 MUL PUSH1 0x20 ADD ADD DUP2 SWAP1 MSTORE POP DUP2 DUP1 PUSH2 0x462 SWAP1 PUSH2 0x15CE JUMP JUMPDEST SWAP3 POP POP JUMPDEST DUP1 DUP1 PUSH1 0x1 ADD SWAP2 POP POP PUSH2 0x26B JUMP JUMPDEST POP DUP2 SWAP5 POP POP POP POP POP SWAP1 JUMP JUMPDEST PUSH1 0x60 PUSH0 PUSH1 0x2 SLOAD SWAP1 POP PUSH0 DUP1 JUMPDEST DUP3 DUP2 LT ISZERO PUSH2 0x555 JUMPI CALLER PUSH20 0xFFFFFFFFFFFFFFFFFFFFFFFFFFFFFFFFFFFFFFFF AND PUSH1 0x5 PUSH0 PUSH1 0x1 DUP5 PUSH2 0x4B8 SWAP2 SWAP1 PUSH2 0x159B JUMP JUMPDEST DUP2 MSTORE PUSH1 0x20 ADD SWAP1 DUP2 MSTORE PUSH1 0x20 ADD PUSH0 KECCAK256 PUSH1 0x2 ADD PUSH0 SWAP1 SLOAD SWAP1 PUSH2 0x100 EXP SWAP1 DIV PUSH20 0xFFFFFFFFFFFFFFFFFFFFFFFFFFFFFFFFFFFFFFFF AND PUSH20 0xFFFFFFFFFFFFFFFFFFFFFFFFFFFFFFFFFFFFFFFF AND EQ DUP1 ISZERO PUSH2 0x534 JUMPI POP PUSH1 0x5 PUSH0 PUSH1 0x1 DUP4 PUSH2 0x516 SWAP2 SWAP1 PUSH2 0x159B JUMP JUMPDEST DUP2 MSTORE PUSH1 0x20 ADD SWAP1 DUP2 MSTORE PUSH1 0x20 ADD PUSH0 KECCAK256 PUSH1 0x5 ADD PUSH0 SWAP1 SLOAD SWAP1 PUSH2 0x100 EXP SWAP1 DIV PUSH1 0xFF AND JUMPDEST ISZERO PUSH2 0x548 JUMPI DUP2 DUP1 PUSH2 0x544 SWAP1 PUSH2 0x15CE JUMP JUMPDEST SWAP3 POP POP JUMPDEST DUP1 DUP1 PUSH1 0x1 ADD SWAP2 POP POP PUSH2 0x489 JUMP JUMPDEST POP PUSH0 DUP2 PUSH8 0xFFFFFFFFFFFFFFFF DUP2 GT ISZERO PUSH2 0x571 JUMPI PUSH2 0x570 PUSH2 0x1615 JUMP JUMPDEST JUMPDEST PUSH1 0x40 MLOAD SWAP1 DUP1 DUP3 MSTORE DUP1 PUSH1 0x20 MUL PUSH1 0x20 ADD DUP3 ADD PUSH1 0x40 MSTORE DUP1 ISZERO PUSH2 0x5AA JUMPI DUP2 PUSH1 0x20 ADD JUMPDEST PUSH2 0x597 PUSH2 0x121A JUMP JUMPDEST DUP2 MSTORE PUSH1 0x20 ADD SWAP1 PUSH1 0x1 SWAP1 SUB SWAP1 DUP2 PUSH2 0x58F JUMPI SWAP1 POP JUMPDEST POP SWAP1 POP PUSH0 DUP1 JUMPDEST DUP5 DUP2 LT ISZERO PUSH2 0x7EE JUMPI CALLER PUSH20 0xFFFFFFFFFFFFFFFFFFFFFFFFFFFFFFFFFFFFFFFF AND PUSH1 0x5 PUSH0 PUSH1 0x1 DUP5 PUSH2 0x5DF SWAP2 SWAP1 PUSH2 0x159B JUMP JUMPDEST DUP2 MSTORE PUSH1 0x20 ADD SWAP1 DUP2 MSTORE PUSH1 0x20 ADD PUSH0 KECCAK256 PUSH1 0x2 ADD PUSH0 SWAP1 SLOAD SWAP1 PUSH2 0x100 EXP SWAP1 DIV PUSH20 0xFFFFFFFFFFFFFFFFFFFFFFFFFFFFFFFFFFFFFFFF AND PUSH20 0xFFFFFFFFFFFFFFFFFFFFFFFFFFFFFFFFFFFFFFFF AND EQ DUP1 ISZERO PUSH2 0x65B JUMPI POP PUSH1 0x5 PUSH0 PUSH1 0x1 DUP4 PUSH2 0x63D SWAP2 SWAP1 PUSH2 0x159B JUMP JUMPDEST DUP2 MSTORE PUSH1 0x20 ADD SWAP1 DUP2 MSTORE PUSH1 0x20 ADD PUSH0 KECCAK256 PUSH1 0x5 ADD PUSH0 SWAP1 SLOAD SWAP1 PUSH2 0x100 EXP SWAP1 DIV PUSH1 0xFF AND JUMPDEST ISZERO PUSH2 0x7E1 JUMPI PUSH1 0x5 PUSH0 PUSH1 0x1 DUP4 PUSH2 0x670 SWAP2 SWAP1 PUSH2 0x159B JUMP JUMPDEST DUP2 MSTORE PUSH1 0x20 ADD SWAP1 DUP2 MSTORE PUSH1 0x20 ADD PUSH0 KECCAK256 PUSH1 0x40 MLOAD DUP1 PUSH1 0xC0 ADD PUSH1 0x40 MSTORE SWAP1 DUP2 PUSH0 DUP3 ADD PUSH0 SWAP1 SLOAD SWAP1 PUSH2 0x100 EXP SWAP1 DIV PUSH20 0xFFFFFFFFFFFFFFFFFFFFFFFFFFFFFFFFFFFFFFFF AND PUSH20 0xFFFFFFFFFFFFFFFFFFFFFFFFFFFFFFFFFFFFFFFF AND PUSH20 0xFFFFFFFFFFFFFFFFFFFFFFFFFFFFFFFFFFFFFFFF AND DUP2 MSTORE PUSH1 0x20 ADD PUSH1 0x1 DUP3 ADD SLOAD DUP2 MSTORE PUSH1 0x20 ADD PUSH1 0x2 DUP3 ADD PUSH0 SWAP1 SLOAD SWAP1 PUSH2 0x100 EXP SWAP1 DIV PUSH20 0xFFFFFFFFFFFFFFFFFFFFFFFFFFFFFFFFFFFFFFFF AND PUSH20 0xFFFFFFFFFFFFFFFFFFFFFFFFFFFFFFFFFFFFFFFF AND PUSH20 0xFFFFFFFFFFFFFFFFFFFFFFFFFFFFFFFFFFFFFFFF AND DUP2 MSTORE PUSH1 0x20 ADD PUSH1 0x3 DUP3 ADD PUSH0 SWAP1 SLOAD SWAP1 PUSH2 0x100 EXP SWAP1 DIV PUSH20 0xFFFFFFFFFFFFFFFFFFFFFFFFFFFFFFFFFFFFFFFF AND PUSH20 0xFFFFFFFFFFFFFFFFFFFFFFFFFFFFFFFFFFFFFFFF AND PUSH20 0xFFFFFFFFFFFFFFFFFFFFFFFFFFFFFFFFFFFFFFFF AND DUP2 MSTORE PUSH1 0x20 ADD PUSH1 0x4 DUP3 ADD SLOAD DUP2 MSTORE PUSH1 0x20 ADD PUSH1 0x5 DUP3 ADD PUSH0 SWAP1 SLOAD SWAP1 PUSH2 0x100 EXP SWAP1 DIV PUSH1 0xFF AND ISZERO ISZERO ISZERO ISZERO DUP2 MSTORE POP POP DUP4 DUP4 DUP2 MLOAD DUP2 LT PUSH2 0x7C7 JUMPI PUSH2 0x7C6 PUSH2 0x1642 JUMP JUMPDEST JUMPDEST PUSH1 0x20 MUL PUSH1 0x20 ADD ADD DUP2 SWAP1 MSTORE POP DUP2 DUP1 PUSH2 0x7DD SWAP1 PUSH2 0x15CE JUMP JUMPDEST SWAP3 POP POP JUMPDEST DUP1 DUP1 PUSH1 0x1 ADD SWAP2 POP POP PUSH2 0x5B0 JUMP JUMPDEST POP DUP2 SWAP5 POP POP POP POP POP SWAP1 JUMP JUMPDEST PUSH1 0x3 SLOAD DUP2 JUMP JUMPDEST PUSH2 0x807 PUSH2 0x11CD JUMP JUMPDEST PUSH0 DUP2 GT PUSH2 0x849 JUMPI PUSH1 0x40 MLOAD PUSH32 0x8C379A000000000000000000000000000000000000000000000000000000000 DUP2 MSTORE PUSH1 0x4 ADD PUSH2 0x840 SWAP1 PUSH2 0x16C9 JUMP JUMPDEST PUSH1 0x40 MLOAD DUP1 SWAP2 SUB SWAP1 REVERT JUMPDEST PUSH1 0x3 SLOAD CALLVALUE EQ PUSH2 0x88D JUMPI PUSH1 0x40 MLOAD PUSH32 0x8C379A000000000000000000000000000000000000000000000000000000000 DUP2 MSTORE PUSH1 0x4 ADD PUSH2 0x884 SWAP1 PUSH2 0x1731 JUMP JUMPDEST PUSH1 0x40 MLOAD DUP1 SWAP2 SUB SWAP1 REVERT JUMPDEST DUP3 PUSH20 0xFFFFFFFFFFFFFFFFFFFFFFFFFFFFFFFFFFFFFFFF AND PUSH4 0x23B872DD CALLER ADDRESS DUP6 PUSH1 0x40 MLOAD DUP5 PUSH4 0xFFFFFFFF AND PUSH1 0xE0 SHL DUP2 MSTORE PUSH1 0x4 ADD PUSH2 0x8CA SWAP4 SWAP3 SWAP2 SWAP1 PUSH2 0x175E JUMP JUMPDEST PUSH0 PUSH1 0x40 MLOAD DUP1 DUP4 SUB DUP2 PUSH0 DUP8 DUP1 EXTCODESIZE ISZERO DUP1 ISZERO PUSH2 0x8E1 JUMPI PUSH0 DUP1 REVERT JUMPDEST POP GAS CALL ISZERO DUP1 ISZERO PUSH2 0x8F3 JUMPI RETURNDATASIZE PUSH0 DUP1 RETURNDATACOPY RETURNDATASIZE PUSH0 REVERT JUMPDEST POP POP POP POP PUSH0 PUSH1 0x5 PUSH0 DUP5 DUP2 MSTORE PUSH1 0x20 ADD SWAP1 DUP2 MSTORE PUSH1 0x20 ADD PUSH0 KECCAK256 SWAP1 POP CALLER DUP2 PUSH1 0x2 ADD PUSH0 PUSH2 0x100 EXP DUP2 SLOAD DUP2 PUSH20 0xFFFFFFFFFFFFFFFFFFFFFFFFFFFFFFFFFFFFFFFF MUL NOT AND SWAP1 DUP4 PUSH20 0xFFFFFFFFFFFFFFFFFFFFFFFFFFFFFFFFFFFFFFFF AND MUL OR SWAP1 SSTORE POP ADDRESS DUP2 PUSH1 0x3 ADD PUSH0 PUSH2 0x100 EXP DUP2 SLOAD DUP2 PUSH20 0xFFFFFFFFFFFFFFFFFFFFFFFFFFFFFFFFFFFFFFFF MUL NOT AND SWAP1 DUP4 PUSH20 0xFFFFFFFFFFFFFFFFFFFFFFFFFFFFFFFFFFFFFFFF AND MUL OR SWAP1 SSTORE POP PUSH1 0x1 DUP2 PUSH1 0x5 ADD PUSH0 PUSH2 0x100 EXP DUP2 SLOAD DUP2 PUSH1 0xFF MUL NOT AND SWAP1 DUP4 ISZERO ISZERO MUL OR SWAP1 SSTORE POP DUP2 DUP2 PUSH1 0x4 ADD DUP2 SWAP1 SSTORE POP PUSH1 0x1 PUSH0 DUP2 SLOAD DUP1 SWAP3 SWAP2 SWAP1 PUSH2 0x9C6 SWAP1 PUSH2 0x1793 JUMP JUMPDEST SWAP2 SWAP1 POP SSTORE POP PUSH32 0xA0C6C0D02D86FDACECBAA5FDF5894BAB204E31A778250474108540733A9B8D19 DUP5 DUP5 CALLER ADDRESS DUP7 PUSH1 0x40 MLOAD PUSH2 0xA02 SWAP6 SWAP5 SWAP4 SWAP3 SWAP2 SWAP1 PUSH2 0x17BA JUMP JUMPDEST PUSH1 0x40 MLOAD DUP1 SWAP2 SUB SWAP1 LOG1 POP PUSH2 0xA13 PUSH2 0x1211 JUMP JUMPDEST POP POP POP JUMP JUMPDEST PUSH2 0xA20 PUSH2 0x11CD JUMP JUMPDEST PUSH0 PUSH1 0x5 PUSH0 DUP4 DUP2 MSTORE PUSH1 0x20 ADD SWAP1 DUP2 MSTORE PUSH1 0x20 ADD PUSH0 KECCAK256 SWAP1 POP DUP1 PUSH1 0x4 ADD SLOAD CALLVALUE LT ISZERO PUSH2 0xA7B JUMPI PUSH1 0x40 MLOAD PUSH32 0x8C379A000000000000000000000000000000000000000000000000000000000 DUP2 MSTORE PUSH1 0x4 ADD PUSH2 0xA72 SWAP1 PUSH2 0x187B JUMP JUMPDEST PUSH1 0x40 MLOAD DUP1 SWAP2 SUB SWAP1 REVERT JUMPDEST PUSH0 CALLER SWAP1 POP DUP2 PUSH1 0x2 ADD PUSH0 SWAP1 SLOAD SWAP1 PUSH2 0x100 EXP SWAP1 DIV PUSH20 0xFFFFFFFFFFFFFFFFFFFFFFFFFFFFFFFFFFFFFFFF AND PUSH20 0xFFFFFFFFFFFFFFFFFFFFFFFFFFFFFFFFFFFFFFFF AND PUSH2 0x8FC CALLVALUE SWAP1 DUP2 ISZERO MUL SWAP1 PUSH1 0x40 MLOAD PUSH0 PUSH1 0x40 MLOAD DUP1 DUP4 SUB DUP2 DUP6 DUP9 DUP9 CALL SWAP4 POP POP POP POP ISZERO DUP1 ISZERO PUSH2 0xAE5 JUMPI RETURNDATASIZE PUSH0 DUP1 RETURNDATACOPY RETURNDATASIZE PUSH0 REVERT JUMPDEST POP DUP4 PUSH20 0xFFFFFFFFFFFFFFFFFFFFFFFFFFFFFFFFFFFFFFFF AND PUSH4 0x23B872DD ADDRESS DUP4 DUP6 PUSH1 0x1 ADD SLOAD PUSH1 0x40 MLOAD DUP5 PUSH4 0xFFFFFFFF AND PUSH1 0xE0 SHL DUP2 MSTORE PUSH1 0x4 ADD PUSH2 0xB27 SWAP4 SWAP3 SWAP2 SWAP1 PUSH2 0x18F4 JUMP JUMPDEST PUSH0 PUSH1 0x40 MLOAD DUP1 DUP4 SUB DUP2 PUSH0 DUP8 DUP1 EXTCODESIZE ISZERO DUP1 ISZERO PUSH2 0xB3E JUMPI PUSH0 DUP1 REVERT JUMPDEST POP GAS CALL ISZERO DUP1 ISZERO PUSH2 0xB50 JUMPI RETURNDATASIZE PUSH0 DUP1 RETURNDATACOPY RETURNDATASIZE PUSH0 REVERT JUMPDEST POP POP POP POP DUP1 DUP3 PUSH1 0x3 ADD PUSH0 PUSH2 0x100 EXP DUP2 SLOAD DUP2 PUSH20 0xFFFFFFFFFFFFFFFFFFFFFFFFFFFFFFFFFFFFFFFF MUL NOT AND SWAP1 DUP4 PUSH20 0xFFFFFFFFFFFFFFFFFFFFFFFFFFFFFFFFFFFFFFFF AND MUL OR SWAP1 SSTORE POP PUSH0 DUP3 PUSH1 0x5 ADD PUSH0 PUSH2 0x100 EXP DUP2 SLOAD DUP2 PUSH1 0xFF MUL NOT AND SWAP1 DUP4 ISZERO ISZERO MUL OR SWAP1 SSTORE POP PUSH1 0x1 PUSH0 DUP2 SLOAD DUP1 SWAP3 SWAP2 SWAP1 PUSH2 0xBC3 SWAP1 PUSH2 0x15CE JUMP JUMPDEST SWAP2 SWAP1 POP SSTORE POP PUSH32 0x16F1DBD97E6BF646D429ED186CCE832F1F7FD9907814293B83181E9970AB7BD2 DUP5 DUP4 PUSH1 0x1 ADD SLOAD DUP5 PUSH1 0x2 ADD PUSH0 SWAP1 SLOAD SWAP1 PUSH2 0x100 EXP SWAP1 DIV PUSH20 0xFFFFFFFFFFFFFFFFFFFFFFFFFFFFFFFFFFFFFFFF AND DUP5 CALLVALUE PUSH1 0x40 MLOAD PUSH2 0xC26 SWAP6 SWAP5 SWAP4 SWAP3 SWAP2 SWAP1 PUSH2 0x1929 JUMP JUMPDEST PUSH1 0x40 MLOAD DUP1 SWAP2 SUB SWAP1 LOG1 POP POP PUSH2 0xC38 PUSH2 0x1211 JUMP JUMPDEST POP POP JUMP JUMPDEST PUSH1 0x60 PUSH0 PUSH1 0x2 SLOAD SWAP1 POP PUSH0 PUSH1 0x1 SLOAD DUP3 PUSH2 0xC53 SWAP2 SWAP1 PUSH2 0x197A JUMP JUMPDEST SWAP1 POP PUSH0 DUP2 PUSH8 0xFFFFFFFFFFFFFFFF DUP2 GT ISZERO PUSH2 0xC70 JUMPI PUSH2 0xC6F PUSH2 0x1615 JUMP JUMPDEST JUMPDEST PUSH1 0x40 MLOAD SWAP1 DUP1 DUP3 MSTORE DUP1 PUSH1 0x20 MUL PUSH1 0x20 ADD DUP3 ADD PUSH1 0x40 MSTORE DUP1 ISZERO PUSH2 0xCA9 JUMPI DUP2 PUSH1 0x20 ADD JUMPDEST PUSH2 0xC96 PUSH2 0x121A JUMP JUMPDEST DUP2 MSTORE PUSH1 0x20 ADD SWAP1 PUSH1 0x1 SWAP1 SUB SWAP1 DUP2 PUSH2 0xC8E JUMPI SWAP1 POP JUMPDEST POP SWAP1 POP PUSH0 DUP1 JUMPDEST DUP5 DUP2 LT ISZERO PUSH2 0xE77 JUMPI PUSH1 0x5 PUSH0 PUSH1 0x1 DUP4 PUSH2 0xCC7 SWAP2 SWAP1 PUSH2 0x159B JUMP JUMPDEST DUP2 MSTORE PUSH1 0x20 ADD SWAP1 DUP2 MSTORE PUSH1 0x20 ADD PUSH0 KECCAK256 PUSH1 0x5 ADD PUSH0 SWAP1 SLOAD SWAP1 PUSH2 0x100 EXP SWAP1 DIV PUSH1 0xFF AND ISZERO PUSH2 0xE6A JUMPI PUSH1 0x5 PUSH0 PUSH1 0x1 DUP4 PUSH2 0xCF9 SWAP2 SWAP1 PUSH2 0x159B JUMP JUMPDEST DUP2 MSTORE PUSH1 0x20 ADD SWAP1 DUP2 MSTORE PUSH1 0x20 ADD PUSH0 KECCAK256 PUSH1 0x40 MLOAD DUP1 PUSH1 0xC0 ADD PUSH1 0x40 MSTORE SWAP1 DUP2 PUSH0 DUP3 ADD PUSH0 SWAP1 SLOAD SWAP1 PUSH2 0x100 EXP SWAP1 DIV PUSH20 0xFFFFFFFFFFFFFFFFFFFFFFFFFFFFFFFFFFFFFFFF AND PUSH20 0xFFFFFFFFFFFFFFFFFFFFFFFFFFFFFFFFFFFFFFFF AND PUSH20 0xFFFFFFFFFFFFFFFFFFFFFFFFFFFFFFFFFFFFFFFF AND DUP2 MSTORE PUSH1 0x20 ADD PUSH1 0x1 DUP3 ADD SLOAD DUP2 MSTORE PUSH1 0x20 ADD PUSH1 0x2 DUP3 ADD PUSH0 SWAP1 SLOAD SWAP1 PUSH2 0x100 EXP SWAP1 DIV PUSH20 0xFFFFFFFFFFFFFFFFFFFFFFFFFFFFFFFFFFFFFFFF AND PUSH20 0xFFFFFFFFFFFFFFFFFFFFFFFFFFFFFFFFFFFFFFFF AND PUSH20 0xFFFFFFFFFFFFFFFFFFFFFFFFFFFFFFFFFFFFFFFF AND DUP2 MSTORE PUSH1 0x20 ADD PUSH1 0x3 DUP3 ADD PUSH0 SWAP1 SLOAD SWAP1 PUSH2 0x100 EXP SWAP1 DIV PUSH20 0xFFFFFFFFFFFFFFFFFFFFFFFFFFFFFFFFFFFFFFFF AND PUSH20 0xFFFFFFFFFFFFFFFFFFFFFFFFFFFFFFFFFFFFFFFF AND PUSH20 0xFFFFFFFFFFFFFFFFFFFFFFFFFFFFFFFFFFFFFFFF AND DUP2 MSTORE PUSH1 0x20 ADD PUSH1 0x4 DUP3 ADD SLOAD DUP2 MSTORE PUSH1 0x20 ADD PUSH1 0x5 DUP3 ADD PUSH0 SWAP1 SLOAD SWAP1 PUSH2 0x100 EXP SWAP1 DIV PUSH1 0xFF AND ISZERO ISZERO ISZERO ISZERO DUP2 MSTORE POP POP DUP4 DUP4 DUP2 MLOAD DUP2 LT PUSH2 0xE50 JUMPI PUSH2 0xE4F PUSH2 0x1642 JUMP JUMPDEST JUMPDEST PUSH1 0x20 MUL PUSH1 0x20 ADD ADD DUP2 SWAP1 MSTORE POP DUP2 DUP1 PUSH2 0xE66 SWAP1 PUSH2 0x15CE JUMP JUMPDEST SWAP3 POP POP JUMPDEST DUP1 DUP1 PUSH1 0x1 ADD SWAP2 POP POP PUSH2 0xCAF JUMP JUMPDEST POP DUP2 SWAP5 POP POP POP POP POP SWAP1 JUMP JUMPDEST PUSH2 0xE8A PUSH2 0x11CD JUMP JUMPDEST PUSH0 DUP2 GT PUSH2 0xECC JUMPI PUSH1 0x40 MLOAD PUSH32 0x8C379A000000000000000000000000000000000000000000000000000000000 DUP2 MSTORE PUSH1 0x4 ADD PUSH2 0xEC3 SWAP1 PUSH2 0x16C9 JUMP JUMPDEST PUSH1 0x40 MLOAD DUP1 SWAP2 SUB SWAP1 REVERT JUMPDEST PUSH1 0x3 SLOAD CALLVALUE EQ PUSH2 0xF10 JUMPI PUSH1 0x40 MLOAD PUSH32 0x8C379A000000000000000000000000000000000000000000000000000000000 DUP2 MSTORE PUSH1 0x4 ADD PUSH2 0xF07 SWAP1 PUSH2 0x1731 JUMP JUMPDEST PUSH1 0x40 MLOAD DUP1 SWAP2 SUB SWAP1 REVERT JUMPDEST DUP3 PUSH20 0xFFFFFFFFFFFFFFFFFFFFFFFFFFFFFFFFFFFFFFFF AND PUSH4 0x23B872DD CALLER ADDRESS DUP6 PUSH1 0x40 MLOAD DUP5 PUSH4 0xFFFFFFFF AND PUSH1 0xE0 SHL DUP2 MSTORE PUSH1 0x4 ADD PUSH2 0xF4D SWAP4 SWAP3 SWAP2 SWAP1 PUSH2 0x175E JUMP JUMPDEST PUSH0 PUSH1 0x40 MLOAD DUP1 DUP4 SUB DUP2 PUSH0 DUP8 DUP1 EXTCODESIZE ISZERO DUP1 ISZERO PUSH2 0xF64 JUMPI PUSH0 DUP1 REVERT JUMPDEST POP GAS CALL ISZERO DUP1 ISZERO PUSH2 0xF76 JUMPI RETURNDATASIZE PUSH0 DUP1 RETURNDATACOPY RETURNDATASIZE PUSH0 REVERT JUMPDEST POP POP POP POP PUSH1 0x4 PUSH0 SWAP1 SLOAD SWAP1 PUSH2 0x100 EXP SWAP1 DIV PUSH20 0xFFFFFFFFFFFFFFFFFFFFFFFFFFFFFFFFFFFFFFFF AND PUSH20 0xFFFFFFFFFFFFFFFFFFFFFFFFFFFFFFFFFFFFFFFF AND PUSH2 0x8FC PUSH1 0x3 SLOAD SWAP1 DUP2 ISZERO MUL SWAP1 PUSH1 0x40 MLOAD PUSH0 PUSH1 0x40 MLOAD DUP1 DUP4 SUB DUP2 DUP6 DUP9 DUP9 CALL SWAP4 POP POP POP POP ISZERO DUP1 ISZERO PUSH2 0xFE0 JUMPI RETURNDATASIZE PUSH0 DUP1 RETURNDATACOPY RETURNDATASIZE PUSH0 REVERT JUMPDEST POP PUSH1 0x2 PUSH0 DUP2 SLOAD DUP1 SWAP3 SWAP2 SWAP1 PUSH2 0xFF3 SWAP1 PUSH2 0x15CE JUMP JUMPDEST SWAP2 SWAP1 POP SSTORE POP PUSH1 0x40 MLOAD DUP1 PUSH1 0xC0 ADD PUSH1 0x40 MSTORE DUP1 DUP5 PUSH20 0xFFFFFFFFFFFFFFFFFFFFFFFFFFFFFFFFFFFFFFFF AND DUP2 MSTORE PUSH1 0x20 ADD DUP4 DUP2 MSTORE PUSH1 0x20 ADD CALLER PUSH20 0xFFFFFFFFFFFFFFFFFFFFFFFFFFFFFFFFFFFFFFFF AND DUP2 MSTORE PUSH1 0x20 ADD ADDRESS PUSH20 0xFFFFFFFFFFFFFFFFFFFFFFFFFFFFFFFFFFFFFFFF AND DUP2 MSTORE PUSH1 0x20 ADD DUP3 DUP2 MSTORE PUSH1 0x20 ADD PUSH1 0x1 ISZERO ISZERO DUP2 MSTORE POP PUSH1 0x5 PUSH0 DUP5 DUP2 MSTORE PUSH1 0x20 ADD SWAP1 DUP2 MSTORE PUSH1 0x20 ADD PUSH0 KECCAK256 PUSH0 DUP3 ADD MLOAD DUP2 PUSH0 ADD PUSH0 PUSH2 0x100 EXP DUP2 SLOAD DUP2 PUSH20 0xFFFFFFFFFFFFFFFFFFFFFFFFFFFFFFFFFFFFFFFF MUL NOT AND SWAP1 DUP4 PUSH20 0xFFFFFFFFFFFFFFFFFFFFFFFFFFFFFFFFFFFFFFFF AND MUL OR SWAP1 SSTORE POP PUSH1 0x20 DUP3 ADD MLOAD DUP2 PUSH1 0x1 ADD SSTORE PUSH1 0x40 DUP3 ADD MLOAD DUP2 PUSH1 0x2 ADD PUSH0 PUSH2 0x100 EXP DUP2 SLOAD DUP2 PUSH20 0xFFFFFFFFFFFFFFFFFFFFFFFFFFFFFFFFFFFFFFFF MUL NOT AND SWAP1 DUP4 PUSH20 0xFFFFFFFFFFFFFFFFFFFFFFFFFFFFFFFFFFFFFFFF AND MUL OR SWAP1 SSTORE POP PUSH1 0x60 DUP3 ADD MLOAD DUP2 PUSH1 0x3 ADD PUSH0 PUSH2 0x100 EXP DUP2 SLOAD DUP2 PUSH20 0xFFFFFFFFFFFFFFFFFFFFFFFFFFFFFFFFFFFFFFFF MUL NOT AND SWAP1 DUP4 PUSH20 0xFFFFFFFFFFFFFFFFFFFFFFFFFFFFFFFFFFFFFFFF AND MUL OR SWAP1 SSTORE POP PUSH1 0x80 DUP3 ADD MLOAD DUP2 PUSH1 0x4 ADD SSTORE PUSH1 0xA0 DUP3 ADD MLOAD DUP2 PUSH1 0x5 ADD PUSH0 PUSH2 0x100 EXP DUP2 SLOAD DUP2 PUSH1 0xFF MUL NOT AND SWAP1 DUP4 ISZERO ISZERO MUL OR SWAP1 SSTORE POP SWAP1 POP POP PUSH32 0xA0C6C0D02D86FDACECBAA5FDF5894BAB204E31A778250474108540733A9B8D19 DUP4 DUP4 CALLER ADDRESS DUP6 PUSH1 0x40 MLOAD PUSH2 0x11B8 SWAP6 SWAP5 SWAP4 SWAP3 SWAP2 SWAP1 PUSH2 0x17BA JUMP JUMPDEST PUSH1 0x40 MLOAD DUP1 SWAP2 SUB SWAP1 LOG1 PUSH2 0x11C8 PUSH2 0x1211 JUMP JUMPDEST POP POP POP JUMP JUMPDEST PUSH1 0x2 PUSH0 SLOAD SUB PUSH2 0x1208 JUMPI PUSH1 0x40 MLOAD PUSH32 0x3EE5AEB500000000000000000000000000000000000000000000000000000000 DUP2 MSTORE PUSH1 0x4 ADD PUSH1 0x40 MLOAD DUP1 SWAP2 SUB SWAP1 REVERT JUMPDEST PUSH1 0x2 PUSH0 DUP2 SWAP1 SSTORE POP JUMP JUMPDEST PUSH1 0x1 PUSH0 DUP2 SWAP1 SSTORE POP JUMP JUMPDEST PUSH1 0x40 MLOAD DUP1 PUSH1 0xC0 ADD PUSH1 0x40 MSTORE DUP1 PUSH0 PUSH20 0xFFFFFFFFFFFFFFFFFFFFFFFFFFFFFFFFFFFFFFFF AND DUP2 MSTORE PUSH1 0x20 ADD PUSH0 DUP2 MSTORE PUSH1 0x20 ADD PUSH0 PUSH20 0xFFFFFFFFFFFFFFFFFFFFFFFFFFFFFFFFFFFFFFFF AND DUP2 MSTORE PUSH1 0x20 ADD PUSH0 PUSH20 0xFFFFFFFFFFFFFFFFFFFFFFFFFFFFFFFFFFFFFFFF AND DUP2 MSTORE PUSH1 0x20 ADD PUSH0 DUP2 MSTORE PUSH1 0x20 ADD PUSH0 ISZERO ISZERO DUP2 MSTORE POP SWAP1 JUMP JUMPDEST PUSH0 DUP2 MLOAD SWAP1 POP SWAP2 SWAP1 POP JUMP JUMPDEST PUSH0 DUP3 DUP3 MSTORE PUSH1 0x20 DUP3 ADD SWAP1 POP SWAP3 SWAP2 POP POP JUMP JUMPDEST PUSH0 DUP2 SWAP1 POP PUSH1 0x20 DUP3 ADD SWAP1 POP SWAP2 SWAP1 POP JUMP JUMPDEST PUSH0 PUSH20 0xFFFFFFFFFFFFFFFFFFFFFFFFFFFFFFFFFFFFFFFF DUP3 AND SWAP1 POP SWAP2 SWAP1 POP JUMP JUMPDEST PUSH0 PUSH2 0x12E0 DUP3 PUSH2 0x12B7 JUMP JUMPDEST SWAP1 POP SWAP2 SWAP1 POP JUMP JUMPDEST PUSH2 0x12F0 DUP2 PUSH2 0x12D6 JUMP JUMPDEST DUP3 MSTORE POP POP JUMP JUMPDEST PUSH0 DUP2 SWAP1 POP SWAP2 SWAP1 POP JUMP JUMPDEST PUSH2 0x1308 DUP2 PUSH2 0x12F6 JUMP JUMPDEST DUP3 MSTORE POP POP JUMP JUMPDEST PUSH0 PUSH2 0x1318 DUP3 PUSH2 0x12B7 JUMP JUMPDEST SWAP1 POP SWAP2 SWAP1 POP JUMP JUMPDEST PUSH2 0x1328 DUP2 PUSH2 0x130E JUMP JUMPDEST DUP3 MSTORE POP POP JUMP JUMPDEST PUSH0 DUP2 ISZERO ISZERO SWAP1 POP SWAP2 SWAP1 POP JUMP JUMPDEST PUSH2 0x1342 DUP2 PUSH2 0x132E JUMP JUMPDEST DUP3 MSTORE POP POP JUMP JUMPDEST PUSH1 0xC0 DUP3 ADD PUSH0 DUP3 ADD MLOAD PUSH2 0x135C PUSH0 DUP6 ADD DUP3 PUSH2 0x12E7 JUMP JUMPDEST POP PUSH1 0x20 DUP3 ADD MLOAD PUSH2 0x136F PUSH1 0x20 DUP6 ADD DUP3 PUSH2 0x12FF JUMP JUMPDEST POP PUSH1 0x40 DUP3 ADD MLOAD PUSH2 0x1382 PUSH1 0x40 DUP6 ADD DUP3 PUSH2 0x131F JUMP JUMPDEST POP PUSH1 0x60 DUP3 ADD MLOAD PUSH2 0x1395 PUSH1 0x60 DUP6 ADD DUP3 PUSH2 0x131F JUMP JUMPDEST POP PUSH1 0x80 DUP3 ADD MLOAD PUSH2 0x13A8 PUSH1 0x80 DUP6 ADD DUP3 PUSH2 0x12FF JUMP JUMPDEST POP PUSH1 0xA0 DUP3 ADD MLOAD PUSH2 0x13BB PUSH1 0xA0 DUP6 ADD DUP3 PUSH2 0x1339 JUMP JUMPDEST POP POP POP POP JUMP JUMPDEST PUSH0 PUSH2 0x13CC DUP4 DUP4 PUSH2 0x1348 JUMP JUMPDEST PUSH1 0xC0 DUP4 ADD SWAP1 POP SWAP3 SWAP2 POP POP JUMP JUMPDEST PUSH0 PUSH1 0x20 DUP3 ADD SWAP1 POP SWAP2 SWAP1 POP JUMP JUMPDEST PUSH0 PUSH2 0x13EE DUP3 PUSH2 0x128E JUMP JUMPDEST PUSH2 0x13F8 DUP2 DUP6 PUSH2 0x1298 JUMP JUMPDEST SWAP4 POP PUSH2 0x1403 DUP4 PUSH2 0x12A8 JUMP JUMPDEST DUP1 PUSH0 JUMPDEST DUP4 DUP2 LT ISZERO PUSH2 0x1433 JUMPI DUP2 MLOAD PUSH2 0x141A DUP9 DUP3 PUSH2 0x13C1 JUMP JUMPDEST SWAP8 POP PUSH2 0x1425 DUP4 PUSH2 0x13D8 JUMP JUMPDEST SWAP3 POP POP PUSH1 0x1 DUP2 ADD SWAP1 POP PUSH2 0x1406 JUMP JUMPDEST POP DUP6 SWAP4 POP POP POP POP SWAP3 SWAP2 POP POP JUMP JUMPDEST PUSH0 PUSH1 0x20 DUP3 ADD SWAP1 POP DUP2 DUP2 SUB PUSH0 DUP4 ADD MSTORE PUSH2 0x1458 DUP2 DUP5 PUSH2 0x13E4 JUMP JUMPDEST SWAP1 POP SWAP3 SWAP2 POP POP JUMP JUMPDEST PUSH2 0x1469 DUP2 PUSH2 0x12F6 JUMP JUMPDEST DUP3 MSTORE POP POP JUMP JUMPDEST PUSH0 PUSH1 0x20 DUP3 ADD SWAP1 POP PUSH2 0x1482 PUSH0 DUP4 ADD DUP5 PUSH2 0x1460 JUMP JUMPDEST SWAP3 SWAP2 POP POP JUMP JUMPDEST PUSH0 DUP1 REVERT JUMPDEST PUSH2 0x1495 DUP2 PUSH2 0x12D6 JUMP JUMPDEST DUP2 EQ PUSH2 0x149F JUMPI PUSH0 DUP1 REVERT JUMPDEST POP JUMP JUMPDEST PUSH0 DUP2 CALLDATALOAD SWAP1 POP PUSH2 0x14B0 DUP2 PUSH2 0x148C JUMP JUMPDEST SWAP3 SWAP2 POP POP JUMP JUMPDEST PUSH2 0x14BF DUP2 PUSH2 0x12F6 JUMP JUMPDEST DUP2 EQ PUSH2 0x14C9 JUMPI PUSH0 DUP1 REVERT JUMPDEST POP JUMP JUMPDEST PUSH0 DUP2 CALLDATALOAD SWAP1 POP PUSH2 0x14DA DUP2 PUSH2 0x14B6 JUMP JUMPDEST SWAP3 SWAP2 POP POP JUMP JUMPDEST PUSH0 DUP1 PUSH0 PUSH1 0x60 DUP5 DUP7 SUB SLT ISZERO PUSH2 0x14F7 JUMPI PUSH2 0x14F6 PUSH2 0x1488 JUMP JUMPDEST JUMPDEST PUSH0 PUSH2 0x1504 DUP7 DUP3 DUP8 ADD PUSH2 0x14A2 JUMP JUMPDEST SWAP4 POP POP PUSH1 0x20 PUSH2 0x1515 DUP7 DUP3 DUP8 ADD PUSH2 0x14CC JUMP JUMPDEST SWAP3 POP POP PUSH1 0x40 PUSH2 0x1526 DUP7 DUP3 DUP8 ADD PUSH2 0x14CC JUMP JUMPDEST SWAP2 POP POP SWAP3 POP SWAP3 POP SWAP3 JUMP JUMPDEST PUSH0 DUP1 PUSH1 0x40 DUP4 DUP6 SUB SLT ISZERO PUSH2 0x1546 JUMPI PUSH2 0x1545 PUSH2 0x1488 JUMP JUMPDEST JUMPDEST PUSH0 PUSH2 0x1553 DUP6 DUP3 DUP7 ADD PUSH2 0x14A2 JUMP JUMPDEST SWAP3 POP POP PUSH1 0x20 PUSH2 0x1564 DUP6 DUP3 DUP7 ADD PUSH2 0x14CC JUMP JUMPDEST SWAP2 POP POP SWAP3 POP SWAP3 SWAP1 POP JUMP JUMPDEST PUSH32 0x4E487B7100000000000000000000000000000000000000000000000000000000 PUSH0 MSTORE PUSH1 0x11 PUSH1 0x4 MSTORE PUSH1 0x24 PUSH0 REVERT JUMPDEST PUSH0 PUSH2 0x15A5 DUP3 PUSH2 0x12F6 JUMP JUMPDEST SWAP2 POP PUSH2 0x15B0 DUP4 PUSH2 0x12F6 JUMP JUMPDEST SWAP3 POP DUP3 DUP3 ADD SWAP1 POP DUP1 DUP3 GT ISZERO PUSH2 0x15C8 JUMPI PUSH2 0x15C7 PUSH2 0x156E JUMP JUMPDEST JUMPDEST SWAP3 SWAP2 POP POP JUMP JUMPDEST PUSH0 PUSH2 0x15D8 DUP3 PUSH2 0x12F6 JUMP JUMPDEST SWAP2 POP PUSH32 0xFFFFFFFFFFFFFFFFFFFFFFFFFFFFFFFFFFFFFFFFFFFFFFFFFFFFFFFFFFFFFFFF DUP3 SUB PUSH2 0x160A JUMPI PUSH2 0x1609 PUSH2 0x156E JUMP JUMPDEST JUMPDEST PUSH1 0x1 DUP3 ADD SWAP1 POP SWAP2 SWAP1 POP JUMP JUMPDEST PUSH32 0x4E487B7100000000000000000000000000000000000000000000000000000000 PUSH0 MSTORE PUSH1 0x41 PUSH1 0x4 MSTORE PUSH1 0x24 PUSH0 REVERT JUMPDEST PUSH32 0x4E487B7100000000000000000000000000000000000000000000000000000000 PUSH0 MSTORE PUSH1 0x32 PUSH1 0x4 MSTORE PUSH1 0x24 PUSH0 REVERT JUMPDEST PUSH0 DUP3 DUP3 MSTORE PUSH1 0x20 DUP3 ADD SWAP1 POP SWAP3 SWAP2 POP POP JUMP JUMPDEST PUSH32 0x5072696365206D757374206265206174206C6561737420312077656900000000 PUSH0 DUP3 ADD MSTORE POP JUMP JUMPDEST PUSH0 PUSH2 0x16B3 PUSH1 0x1C DUP4 PUSH2 0x166F JUMP JUMPDEST SWAP2 POP PUSH2 0x16BE DUP3 PUSH2 0x167F JUMP JUMPDEST PUSH1 0x20 DUP3 ADD SWAP1 POP SWAP2 SWAP1 POP JUMP JUMPDEST PUSH0 PUSH1 0x20 DUP3 ADD SWAP1 POP DUP2 DUP2 SUB PUSH0 DUP4 ADD MSTORE PUSH2 0x16E0 DUP2 PUSH2 0x16A7 JUMP JUMPDEST SWAP1 POP SWAP2 SWAP1 POP JUMP JUMPDEST PUSH32 0x4E6F7420656E6F75676820657468657220666F72206C697374696E6720666565 PUSH0 DUP3 ADD MSTORE POP JUMP JUMPDEST PUSH0 PUSH2 0x171B PUSH1 0x20 DUP4 PUSH2 0x166F JUMP JUMPDEST SWAP2 POP PUSH2 0x1726 DUP3 PUSH2 0x16E7 JUMP JUMPDEST PUSH1 0x20 DUP3 ADD SWAP1 POP SWAP2 SWAP1 POP JUMP JUMPDEST PUSH0 PUSH1 0x20 DUP3 ADD SWAP1 POP DUP2 DUP2 SUB PUSH0 DUP4 ADD MSTORE PUSH2 0x1748 DUP2 PUSH2 0x170F JUMP JUMPDEST SWAP1 POP SWAP2 SWAP1 POP JUMP JUMPDEST PUSH2 0x1758 DUP2 PUSH2 0x12D6 JUMP JUMPDEST DUP3 MSTORE POP POP JUMP JUMPDEST PUSH0 PUSH1 0x60 DUP3 ADD SWAP1 POP PUSH2 0x1771 PUSH0 DUP4 ADD DUP7 PUSH2 0x174F JUMP JUMPDEST PUSH2 0x177E PUSH1 0x20 DUP4 ADD DUP6 PUSH2 0x174F JUMP JUMPDEST PUSH2 0x178B PUSH1 0x40 DUP4 ADD DUP5 PUSH2 0x1460 JUMP JUMPDEST SWAP5 SWAP4 POP POP POP POP JUMP JUMPDEST PUSH0 PUSH2 0x179D DUP3 PUSH2 0x12F6 JUMP JUMPDEST SWAP2 POP PUSH0 DUP3 SUB PUSH2 0x17AF JUMPI PUSH2 0x17AE PUSH2 0x156E JUMP JUMPDEST JUMPDEST PUSH1 0x1 DUP3 SUB SWAP1 POP SWAP2 SWAP1 POP JUMP JUMPDEST PUSH0 PUSH1 0xA0 DUP3 ADD SWAP1 POP PUSH2 0x17CD PUSH0 DUP4 ADD DUP9 PUSH2 0x174F JUMP JUMPDEST PUSH2 0x17DA PUSH1 0x20 DUP4 ADD DUP8 PUSH2 0x1460 JUMP JUMPDEST PUSH2 0x17E7 PUSH1 0x40 DUP4 ADD DUP7 PUSH2 0x174F JUMP JUMPDEST PUSH2 0x17F4 PUSH1 0x60 DUP4 ADD DUP6 PUSH2 0x174F JUMP JUMPDEST PUSH2 0x1801 PUSH1 0x80 DUP4 ADD DUP5 PUSH2 0x1460 JUMP JUMPDEST SWAP7 SWAP6 POP POP POP POP POP POP JUMP JUMPDEST PUSH32 0x4E6F7420656E6F75676820657468657220746F20636F7665722061736B696E67 PUSH0 DUP3 ADD MSTORE PUSH32 0x2070726963650000000000000000000000000000000000000000000000000000 PUSH1 0x20 DUP3 ADD MSTORE POP JUMP JUMPDEST PUSH0 PUSH2 0x1865 PUSH1 0x26 DUP4 PUSH2 0x166F JUMP JUMPDEST SWAP2 POP PUSH2 0x1870 DUP3 PUSH2 0x180B JUMP JUMPDEST PUSH1 0x40 DUP3 ADD SWAP1 POP SWAP2 SWAP1 POP JUMP JUMPDEST PUSH0 PUSH1 0x20 DUP3 ADD SWAP1 POP DUP2 DUP2 SUB PUSH0 DUP4 ADD MSTORE PUSH2 0x1892 DUP2 PUSH2 0x1859 JUMP JUMPDEST SWAP1 POP SWAP2 SWAP1 POP JUMP JUMPDEST PUSH0 DUP2 SWAP1 POP SWAP2 SWAP1 POP JUMP JUMPDEST PUSH0 PUSH2 0x18BC PUSH2 0x18B7 PUSH2 0x18B2 DUP5 PUSH2 0x12B7 JUMP JUMPDEST PUSH2 0x1899 JUMP JUMPDEST PUSH2 0x12B7 JUMP JUMPDEST SWAP1 POP SWAP2 SWAP1 POP JUMP JUMPDEST PUSH0 PUSH2 0x18CD DUP3 PUSH2 0x18A2 JUMP JUMPDEST SWAP1 POP SWAP2 SWAP1 POP JUMP JUMPDEST PUSH0 PUSH2 0x18DE DUP3 PUSH2 0x18C3 JUMP JUMPDEST SWAP1 POP SWAP2 SWAP1 POP JUMP JUMPDEST PUSH2 0x18EE DUP2 PUSH2 0x18D4 JUMP JUMPDEST DUP3 MSTORE POP POP JUMP JUMPDEST PUSH0 PUSH1 0x60 DUP3 ADD SWAP1 POP PUSH2 0x1907 PUSH0 DUP4 ADD DUP7 PUSH2 0x174F JUMP JUMPDEST PUSH2 0x1914 PUSH1 0x20 DUP4 ADD DUP6 PUSH2 0x18E5 JUMP JUMPDEST PUSH2 0x1921 PUSH1 0x40 DUP4 ADD DUP5 PUSH2 0x1460 JUMP JUMPDEST SWAP5 SWAP4 POP POP POP POP JUMP JUMPDEST PUSH0 PUSH1 0xA0 DUP3 ADD SWAP1 POP PUSH2 0x193C PUSH0 DUP4 ADD DUP9 PUSH2 0x174F JUMP JUMPDEST PUSH2 0x1949 PUSH1 0x20 DUP4 ADD DUP8 PUSH2 0x1460 JUMP JUMPDEST PUSH2 0x1956 PUSH1 0x40 DUP4 ADD DUP7 PUSH2 0x18E5 JUMP JUMPDEST PUSH2 0x1963 PUSH1 0x60 DUP4 ADD DUP6 PUSH2 0x18E5 JUMP JUMPDEST PUSH2 0x1970 PUSH1 0x80 DUP4 ADD DUP5 PUSH2 0x1460 JUMP JUMPDEST SWAP7 SWAP6 POP POP POP POP POP POP JUMP JUMPDEST PUSH0 PUSH2 0x1984 DUP3 PUSH2 0x12F6 JUMP JUMPDEST SWAP2 POP PUSH2 0x198F DUP4 PUSH2 0x12F6 JUMP JUMPDEST SWAP3 POP DUP3 DUP3 SUB SWAP1 POP DUP2 DUP2 GT ISZERO PUSH2 0x19A7 JUMPI PUSH2 0x19A6 PUSH2 0x156E JUMP JUMPDEST JUMPDEST SWAP3 SWAP2 POP POP JUMP INVALID LOG2 PUSH5 0x6970667358 0x22 SLT KECCAK256 0xE4 SELFDESTRUCT LOG0 PUSH3 0xA6D229 LOG4 0xC5 SWAP2 RETURNDATASIZE EXTCODECOPY GAS 0xFC MSIZE DUP3 0xA8 GASLIMIT 0xA7 PREVRANDAO GASPRICE 0xEA 0x27 0x2A GT DUP4 0xB4 DUP11 SWAP3 LOG3 0xC3 EQ PUSH5 0x736F6C6343 STOP ADDMOD AND STOP CALLER "
				},
				"gasEstimates": {
					"creation": {
						"codeDepositCost": "1325400",
						"executionCost": "52764",
						"totalCost": "1378164"
					},
					"external": {
						"LISTING_FEE()": "2470",
						"buyNft(address,uint256)": "infinite",
						"getListedNfts()": "infinite",
						"getMyListedNfts()": "infinite",
						"getMyNfts()": "infinite",
						"listNft(address,uint256,uint256)": "infinite",
						"resellNft(address,uint256,uint256)": "infinite"
					}
				},
				"methodIdentifiers": {
					"LISTING_FEE()": "2b86ae38",
					"buyNft(address,uint256)": "4ddf4f8f",
					"getListedNfts()": "8d6cb3fb",
					"getMyListedNfts()": "1f4cc4db",
					"getMyNfts()": "047b07bf",
					"listNft(address,uint256,uint256)": "c922b17c",
					"resellNft(address,uint256,uint256)": "34f5b624"
				}
			},
			"storageLayout": {
				"storage": [
					{
						"astId": 1341,
						"contract": "contracts/Marketplace.sol:Marketplace",
						"label": "_status",
						"offset": 0,
						"slot": "0",
						"type": "t_uint256"
					},
					{
						"astId": 2857,
						"contract": "contracts/Marketplace.sol:Marketplace",
						"label": "_nftsSold",
						"offset": 0,
						"slot": "1",
						"type": "t_uint256"
					},
					{
						"astId": 2859,
						"contract": "contracts/Marketplace.sol:Marketplace",
						"label": "_nftCount",
						"offset": 0,
						"slot": "2",
						"type": "t_uint256"
					},
					{
						"astId": 2862,
						"contract": "contracts/Marketplace.sol:Marketplace",
						"label": "LISTING_FEE",
						"offset": 0,
						"slot": "3",
						"type": "t_uint256"
					},
					{
						"astId": 2864,
						"contract": "contracts/Marketplace.sol:Marketplace",
						"label": "_marketOwner",
						"offset": 0,
						"slot": "4",
						"type": "t_address_payable"
					},
					{
						"astId": 2869,
						"contract": "contracts/Marketplace.sol:Marketplace",
						"label": "_idToNFT",
						"offset": 0,
						"slot": "5",
						"type": "t_mapping(t_uint256,t_struct(NFT)2882_storage)"
					}
				],
				"types": {
					"t_address": {
						"encoding": "inplace",
						"label": "address",
						"numberOfBytes": "20"
					},
					"t_address_payable": {
						"encoding": "inplace",
						"label": "address payable",
						"numberOfBytes": "20"
					},
					"t_bool": {
						"encoding": "inplace",
						"label": "bool",
						"numberOfBytes": "1"
					},
					"t_mapping(t_uint256,t_struct(NFT)2882_storage)": {
						"encoding": "mapping",
						"key": "t_uint256",
						"label": "mapping(uint256 => struct Marketplace.NFT)",
						"numberOfBytes": "32",
						"value": "t_struct(NFT)2882_storage"
					},
					"t_struct(NFT)2882_storage": {
						"encoding": "inplace",
						"label": "struct Marketplace.NFT",
						"members": [
							{
								"astId": 2871,
								"contract": "contracts/Marketplace.sol:Marketplace",
								"label": "nftContract",
								"offset": 0,
								"slot": "0",
								"type": "t_address"
							},
							{
								"astId": 2873,
								"contract": "contracts/Marketplace.sol:Marketplace",
								"label": "tokenId",
								"offset": 0,
								"slot": "1",
								"type": "t_uint256"
							},
							{
								"astId": 2875,
								"contract": "contracts/Marketplace.sol:Marketplace",
								"label": "seller",
								"offset": 0,
								"slot": "2",
								"type": "t_address_payable"
							},
							{
								"astId": 2877,
								"contract": "contracts/Marketplace.sol:Marketplace",
								"label": "owner",
								"offset": 0,
								"slot": "3",
								"type": "t_address_payable"
							},
							{
								"astId": 2879,
								"contract": "contracts/Marketplace.sol:Marketplace",
								"label": "price",
								"offset": 0,
								"slot": "4",
								"type": "t_uint256"
							},
							{
								"astId": 2881,
								"contract": "contracts/Marketplace.sol:Marketplace",
								"label": "listed",
								"offset": 0,
								"slot": "5",
								"type": "t_bool"
							}
						],
						"numberOfBytes": "192"
					},
					"t_uint256": {
						"encoding": "inplace",
						"label": "uint256",
						"numberOfBytes": "32"
					}
				}
			},
			"userdoc": {
				"kind": "user",
				"methods": {},
				"version": 1
			}
		}
	}
}