{
	"contracts/Item.sol": {
		"Item": {
			"abi": [
				{
					"inputs": [
						{
							"internalType": "string",
							"name": "_itemName",
							"type": "string"
						},
						{
							"internalType": "uint256",
							"name": "_initialPrice",
							"type": "uint256"
						}
					],
					"stateMutability": "nonpayable",
					"type": "constructor"
				},
				{
					"inputs": [
						{
							"internalType": "address",
							"name": "owner",
							"type": "address"
						}
					],
					"name": "OwnableInvalidOwner",
					"type": "error"
				},
				{
					"inputs": [
						{
							"internalType": "address",
							"name": "account",
							"type": "address"
						}
					],
					"name": "OwnableUnauthorizedAccount",
					"type": "error"
				},
				{
					"anonymous": false,
					"inputs": [
						{
							"indexed": false,
							"internalType": "uint256",
							"name": "newPrice",
							"type": "uint256"
						}
					],
					"name": "ItemPriceUpdated",
					"type": "event"
				},
				{
					"anonymous": false,
					"inputs": [
						{
							"indexed": false,
							"internalType": "bool",
							"name": "forSaleStatus",
							"type": "bool"
						}
					],
					"name": "ItemStatusChanged",
					"type": "event"
				},
				{
					"anonymous": false,
					"inputs": [
						{
							"indexed": true,
							"internalType": "address",
							"name": "previousOwner",
							"type": "address"
						},
						{
							"indexed": true,
							"internalType": "address",
							"name": "newOwner",
							"type": "address"
						},
						{
							"indexed": false,
							"internalType": "uint256",
							"name": "price",
							"type": "uint256"
						}
					],
					"name": "ItemTransferred",
					"type": "event"
				},
				{
					"anonymous": false,
					"inputs": [
						{
							"indexed": true,
							"internalType": "address",
							"name": "previousOwner",
							"type": "address"
						},
						{
							"indexed": true,
							"internalType": "address",
							"name": "newOwner",
							"type": "address"
						}
					],
					"name": "OwnershipTransferred",
					"type": "event"
				},
				{
					"inputs": [],
					"name": "buyItem",
					"outputs": [],
					"stateMutability": "payable",
					"type": "function"
				},
				{
					"inputs": [
						{
							"internalType": "uint256",
							"name": "_newPrice",
							"type": "uint256"
						}
					],
					"name": "changePrice",
					"outputs": [],
					"stateMutability": "nonpayable",
					"type": "function"
				},
				{
					"inputs": [
						{
							"internalType": "bool",
							"name": "_forSale",
							"type": "bool"
						}
					],
					"name": "changeSaleStatus",
					"outputs": [],
					"stateMutability": "nonpayable",
					"type": "function"
				},
				{
					"inputs": [],
					"name": "forSale",
					"outputs": [
						{
							"internalType": "bool",
							"name": "",
							"type": "bool"
						}
					],
					"stateMutability": "view",
					"type": "function"
				},
				{
					"inputs": [],
					"name": "getItemDetails",
					"outputs": [
						{
							"internalType": "string",
							"name": "",
							"type": "string"
						},
						{
							"internalType": "address",
							"name": "",
							"type": "address"
						},
						{
							"internalType": "uint256",
							"name": "",
							"type": "uint256"
						},
						{
							"internalType": "bool",
							"name": "",
							"type": "bool"
						}
					],
					"stateMutability": "view",
					"type": "function"
				},
				{
					"inputs": [],
					"name": "itemName",
					"outputs": [
						{
							"internalType": "string",
							"name": "",
							"type": "string"
						}
					],
					"stateMutability": "view",
					"type": "function"
				},
				{
					"inputs": [],
					"name": "owner",
					"outputs": [
						{
							"internalType": "address",
							"name": "",
							"type": "address"
						}
					],
					"stateMutability": "view",
					"type": "function"
				},
				{
					"inputs": [],
					"name": "price",
					"outputs": [
						{
							"internalType": "uint256",
							"name": "",
							"type": "uint256"
						}
					],
					"stateMutability": "view",
					"type": "function"
				},
				{
					"inputs": [],
					"name": "renounceOwnership",
					"outputs": [],
					"stateMutability": "nonpayable",
					"type": "function"
				},
				{
					"inputs": [
						{
							"internalType": "address",
							"name": "newOwner",
							"type": "address"
						}
					],
					"name": "transferOwnership",
					"outputs": [],
					"stateMutability": "nonpayable",
					"type": "function"
				},
				{
					"inputs": [
						{
							"internalType": "address",
							"name": "newOwner",
							"type": "address"
						}
					],
					"name": "transferOwnershipNewAddress",
					"outputs": [],
					"stateMutability": "nonpayable",
					"type": "function"
				}
			],
			"devdoc": {
				"errors": {
					"OwnableInvalidOwner(address)": [
						{
							"details": "The owner is not a valid owner account. (eg. `address(0)`)"
						}
					],
					"OwnableUnauthorizedAccount(address)": [
						{
							"details": "The caller account is not authorized to perform an operation."
						}
					]
				},
				"kind": "dev",
				"methods": {
					"owner()": {
						"details": "Returns the address of the current owner."
					},
					"renounceOwnership()": {
						"details": "Leaves the contract without owner. It will not be possible to call `onlyOwner` functions. Can only be called by the current owner. NOTE: Renouncing ownership will leave the contract without an owner, thereby disabling any functionality that is only available to the owner."
					},
					"transferOwnership(address)": {
						"details": "Transfers ownership of the contract to a new account (`newOwner`). Can only be called by the current owner."
					}
				},
				"version": 1
			},
			"evm": {
				"assembly": "    /* \"contracts/Item.sol\":130:2110  contract Item is Ownable {... */\n  mstore(0x40, 0x80)\n    /* \"contracts/Item.sol\":498:674  constructor(string memory _itemName, uint256 _initialPrice) Ownable(msg.sender){... */\n  callvalue\n  dup1\n  iszero\n  tag_1\n  jumpi\n  0x00\n  dup1\n  revert\ntag_1:\n  pop\n  mload(0x40)\n  sub(codesize, bytecodeSize)\n  dup1\n  bytecodeSize\n  dup4\n  codecopy\n  dup2\n  dup2\n  add\n  0x40\n  mstore\n  dup2\n  add\n  swap1\n  tag_2\n  swap2\n  swap1\n  tag_3\n  jump\t// in\ntag_2:\n    /* \"contracts/Item.sol\":566:576  msg.sender */\n  caller\n    /* \"@openzeppelin/contracts/access/Ownable.sol\":1297:1298  0 */\n  0x00\n    /* \"@openzeppelin/contracts/access/Ownable.sol\":1273:1299  initialOwner == address(0) */\n  0xffffffffffffffffffffffffffffffffffffffff\n  and\n    /* \"@openzeppelin/contracts/access/Ownable.sol\":1273:1285  initialOwner */\n  dup2\n    /* \"@openzeppelin/contracts/access/Ownable.sol\":1273:1299  initialOwner == address(0) */\n  0xffffffffffffffffffffffffffffffffffffffff\n  and\n  sub\n    /* \"@openzeppelin/contracts/access/Ownable.sol\":1269:1364  if (initialOwner == address(0)) {... */\n  tag_7\n  jumpi\n    /* \"@openzeppelin/contracts/access/Ownable.sol\":1350:1351  0 */\n  0x00\n    /* \"@openzeppelin/contracts/access/Ownable.sol\":1322:1353  OwnableInvalidOwner(address(0)) */\n  mload(0x40)\n  0x1e4fbdf700000000000000000000000000000000000000000000000000000000\n  dup2\n  mstore\n  0x04\n  add\n  tag_8\n  swap2\n  swap1\n  tag_9\n  jump\t// in\ntag_8:\n  mload(0x40)\n  dup1\n  swap2\n  sub\n  swap1\n  revert\n    /* \"@openzeppelin/contracts/access/Ownable.sol\":1269:1364  if (initialOwner == address(0)) {... */\ntag_7:\n    /* \"@openzeppelin/contracts/access/Ownable.sol\":1373:1405  _transferOwnership(initialOwner) */\n  tag_10\n    /* \"@openzeppelin/contracts/access/Ownable.sol\":1392:1404  initialOwner */\n  dup2\n    /* \"@openzeppelin/contracts/access/Ownable.sol\":1373:1391  _transferOwnership */\n  shl(0x20, tag_11)\n    /* \"@openzeppelin/contracts/access/Ownable.sol\":1373:1405  _transferOwnership(initialOwner) */\n  0x20\n  shr\n  jump\t// in\ntag_10:\n    /* \"@openzeppelin/contracts/access/Ownable.sol\":1225:1412  constructor(address initialOwner) {... */\n  pop\n    /* \"contracts/Item.sol\":599:608  _itemName */\n  dup2\n    /* \"contracts/Item.sol\":588:596  itemName */\n  0x01\n    /* \"contracts/Item.sol\":588:608  itemName = _itemName */\n  swap1\n  dup2\n  tag_13\n  swap2\n  swap1\n  tag_14\n  jump\t// in\ntag_13:\n  pop\n    /* \"contracts/Item.sol\":627:640  _initialPrice */\n  dup1\n    /* \"contracts/Item.sol\":619:624  price */\n  0x02\n    /* \"contracts/Item.sol\":619:640  price = _initialPrice */\n  dup2\n  swap1\n  sstore\n  pop\n    /* \"contracts/Item.sol\":661:666  false */\n  0x00\n    /* \"contracts/Item.sol\":651:658  forSale */\n  0x03\n  0x00\n    /* \"contracts/Item.sol\":651:666  forSale = false */\n  0x0100\n  exp\n  dup2\n  sload\n  dup2\n  0xff\n  mul\n  not\n  and\n  swap1\n  dup4\n  iszero\n  iszero\n  mul\n  or\n  swap1\n  sstore\n  pop\n    /* \"contracts/Item.sol\":498:674  constructor(string memory _itemName, uint256 _initialPrice) Ownable(msg.sender){... */\n  pop\n  pop\n    /* \"contracts/Item.sol\":130:2110  contract Item is Ownable {... */\n  jump(tag_15)\n    /* \"@openzeppelin/contracts/access/Ownable.sol\":2912:3099  function _transferOwnership(address newOwner) internal virtual {... */\ntag_11:\n    /* \"@openzeppelin/contracts/access/Ownable.sol\":2985:3001  address oldOwner */\n  0x00\n    /* \"@openzeppelin/contracts/access/Ownable.sol\":3004:3010  _owner */\n  dup1\n  0x00\n  swap1\n  sload\n  swap1\n  0x0100\n  exp\n  swap1\n  div\n  0xffffffffffffffffffffffffffffffffffffffff\n  and\n    /* \"@openzeppelin/contracts/access/Ownable.sol\":2985:3010  address oldOwner = _owner */\n  swap1\n  pop\n    /* \"@openzeppelin/contracts/access/Ownable.sol\":3029:3037  newOwner */\n  dup2\n    /* \"@openzeppelin/contracts/access/Ownable.sol\":3020:3026  _owner */\n  0x00\n  dup1\n    /* \"@openzeppelin/contracts/access/Ownable.sol\":3020:3037  _owner = newOwner */\n  0x0100\n  exp\n  dup2\n  sload\n  dup2\n  0xffffffffffffffffffffffffffffffffffffffff\n  mul\n  not\n  and\n  swap1\n  dup4\n  0xffffffffffffffffffffffffffffffffffffffff\n  and\n  mul\n  or\n  swap1\n  sstore\n  pop\n    /* \"@openzeppelin/contracts/access/Ownable.sol\":3083:3091  newOwner */\n  dup2\n    /* \"@openzeppelin/contracts/access/Ownable.sol\":3052:3092  OwnershipTransferred(oldOwner, newOwner) */\n  0xffffffffffffffffffffffffffffffffffffffff\n  and\n    /* \"@openzeppelin/contracts/access/Ownable.sol\":3073:3081  oldOwner */\n  dup2\n    /* \"@openzeppelin/contracts/access/Ownable.sol\":3052:3092  OwnershipTransferred(oldOwner, newOwner) */\n  0xffffffffffffffffffffffffffffffffffffffff\n  and\n  0x8be0079c531659141344cd1fd0a4f28419497f9722a3daafe3b4186f6b6457e0\n  mload(0x40)\n  mload(0x40)\n  dup1\n  swap2\n  sub\n  swap1\n  log3\n    /* \"@openzeppelin/contracts/access/Ownable.sol\":2975:3099  {... */\n  pop\n    /* \"@openzeppelin/contracts/access/Ownable.sol\":2912:3099  function _transferOwnership(address newOwner) internal virtual {... */\n  pop\n  jump\t// out\n    /* \"#utility.yul\":7:82   */\ntag_17:\n    /* \"#utility.yul\":40:46   */\n  0x00\n    /* \"#utility.yul\":73:75   */\n  0x40\n    /* \"#utility.yul\":67:76   */\n  mload\n    /* \"#utility.yul\":57:76   */\n  swap1\n  pop\n    /* \"#utility.yul\":7:82   */\n  swap1\n  jump\t// out\n    /* \"#utility.yul\":88:205   */\ntag_18:\n    /* \"#utility.yul\":197:198   */\n  0x00\n    /* \"#utility.yul\":194:195   */\n  dup1\n    /* \"#utility.yul\":187:199   */\n  revert\n    /* \"#utility.yul\":211:328   */\ntag_19:\n    /* \"#utility.yul\":320:321   */\n  0x00\n    /* \"#utility.yul\":317:318   */\n  dup1\n    /* \"#utility.yul\":310:322   */\n  revert\n    /* \"#utility.yul\":334:451   */\ntag_20:\n    /* \"#utility.yul\":443:444   */\n  0x00\n    /* \"#utility.yul\":440:441   */\n  dup1\n    /* \"#utility.yul\":433:445   */\n  revert\n    /* \"#utility.yul\":457:574   */\ntag_21:\n    /* \"#utility.yul\":566:567   */\n  0x00\n    /* \"#utility.yul\":563:564   */\n  dup1\n    /* \"#utility.yul\":556:568   */\n  revert\n    /* \"#utility.yul\":580:682   */\ntag_22:\n    /* \"#utility.yul\":621:627   */\n  0x00\n    /* \"#utility.yul\":672:674   */\n  0x1f\n    /* \"#utility.yul\":668:675   */\n  not\n    /* \"#utility.yul\":663:665   */\n  0x1f\n    /* \"#utility.yul\":656:661   */\n  dup4\n    /* \"#utility.yul\":652:666   */\n  add\n    /* \"#utility.yul\":648:676   */\n  and\n    /* \"#utility.yul\":638:676   */\n  swap1\n  pop\n    /* \"#utility.yul\":580:682   */\n  swap2\n  swap1\n  pop\n  jump\t// out\n    /* \"#utility.yul\":688:868   */\ntag_23:\n    /* \"#utility.yul\":736:813   */\n  0x4e487b7100000000000000000000000000000000000000000000000000000000\n    /* \"#utility.yul\":733:734   */\n  0x00\n    /* \"#utility.yul\":726:814   */\n  mstore\n    /* \"#utility.yul\":833:837   */\n  0x41\n    /* \"#utility.yul\":830:831   */\n  0x04\n    /* \"#utility.yul\":823:838   */\n  mstore\n    /* \"#utility.yul\":857:861   */\n  0x24\n    /* \"#utility.yul\":854:855   */\n  0x00\n    /* \"#utility.yul\":847:862   */\n  revert\n    /* \"#utility.yul\":874:1155   */\ntag_24:\n    /* \"#utility.yul\":957:984   */\n  tag_63\n    /* \"#utility.yul\":979:983   */\n  dup3\n    /* \"#utility.yul\":957:984   */\n  tag_22\n  jump\t// in\ntag_63:\n    /* \"#utility.yul\":949:955   */\n  dup2\n    /* \"#utility.yul\":945:985   */\n  add\n    /* \"#utility.yul\":1087:1093   */\n  dup2\n    /* \"#utility.yul\":1075:1085   */\n  dup2\n    /* \"#utility.yul\":1072:1094   */\n  lt\n    /* \"#utility.yul\":1051:1069   */\n  0xffffffffffffffff\n    /* \"#utility.yul\":1039:1049   */\n  dup3\n    /* \"#utility.yul\":1036:1070   */\n  gt\n    /* \"#utility.yul\":1033:1095   */\n  or\n    /* \"#utility.yul\":1030:1118   */\n  iszero\n  tag_64\n  jumpi\n    /* \"#utility.yul\":1098:1116   */\n  tag_65\n  tag_23\n  jump\t// in\ntag_65:\n    /* \"#utility.yul\":1030:1118   */\ntag_64:\n    /* \"#utility.yul\":1138:1148   */\n  dup1\n    /* \"#utility.yul\":1134:1136   */\n  0x40\n    /* \"#utility.yul\":1127:1149   */\n  mstore\n    /* \"#utility.yul\":917:1155   */\n  pop\n    /* \"#utility.yul\":874:1155   */\n  pop\n  pop\n  jump\t// out\n    /* \"#utility.yul\":1161:1290   */\ntag_25:\n    /* \"#utility.yul\":1195:1201   */\n  0x00\n    /* \"#utility.yul\":1222:1242   */\n  tag_67\n  tag_17\n  jump\t// in\ntag_67:\n    /* \"#utility.yul\":1212:1242   */\n  swap1\n  pop\n    /* \"#utility.yul\":1251:1284   */\n  tag_68\n    /* \"#utility.yul\":1279:1283   */\n  dup3\n    /* \"#utility.yul\":1271:1277   */\n  dup3\n    /* \"#utility.yul\":1251:1284   */\n  tag_24\n  jump\t// in\ntag_68:\n    /* \"#utility.yul\":1161:1290   */\n  swap2\n  swap1\n  pop\n  jump\t// out\n    /* \"#utility.yul\":1296:1604   */\ntag_26:\n    /* \"#utility.yul\":1358:1362   */\n  0x00\n    /* \"#utility.yul\":1448:1466   */\n  0xffffffffffffffff\n    /* \"#utility.yul\":1440:1446   */\n  dup3\n    /* \"#utility.yul\":1437:1467   */\n  gt\n    /* \"#utility.yul\":1434:1490   */\n  iszero\n  tag_70\n  jumpi\n    /* \"#utility.yul\":1470:1488   */\n  tag_71\n  tag_23\n  jump\t// in\ntag_71:\n    /* \"#utility.yul\":1434:1490   */\ntag_70:\n    /* \"#utility.yul\":1508:1537   */\n  tag_72\n    /* \"#utility.yul\":1530:1536   */\n  dup3\n    /* \"#utility.yul\":1508:1537   */\n  tag_22\n  jump\t// in\ntag_72:\n    /* \"#utility.yul\":1500:1537   */\n  swap1\n  pop\n    /* \"#utility.yul\":1592:1596   */\n  0x20\n    /* \"#utility.yul\":1586:1590   */\n  dup2\n    /* \"#utility.yul\":1582:1597   */\n  add\n    /* \"#utility.yul\":1574:1597   */\n  swap1\n  pop\n    /* \"#utility.yul\":1296:1604   */\n  swap2\n  swap1\n  pop\n  jump\t// out\n    /* \"#utility.yul\":1610:1856   */\ntag_27:\n    /* \"#utility.yul\":1691:1692   */\n  0x00\n    /* \"#utility.yul\":1701:1814   */\ntag_74:\n    /* \"#utility.yul\":1715:1721   */\n  dup4\n    /* \"#utility.yul\":1712:1713   */\n  dup2\n    /* \"#utility.yul\":1709:1722   */\n  lt\n    /* \"#utility.yul\":1701:1814   */\n  iszero\n  tag_76\n  jumpi\n    /* \"#utility.yul\":1800:1801   */\n  dup1\n    /* \"#utility.yul\":1795:1798   */\n  dup3\n    /* \"#utility.yul\":1791:1802   */\n  add\n    /* \"#utility.yul\":1785:1803   */\n  mload\n    /* \"#utility.yul\":1781:1782   */\n  dup2\n    /* \"#utility.yul\":1776:1779   */\n  dup5\n    /* \"#utility.yul\":1772:1783   */\n  add\n    /* \"#utility.yul\":1765:1804   */\n  mstore\n    /* \"#utility.yul\":1737:1739   */\n  0x20\n    /* \"#utility.yul\":1734:1735   */\n  dup2\n    /* \"#utility.yul\":1730:1740   */\n  add\n    /* \"#utility.yul\":1725:1740   */\n  swap1\n  pop\n    /* \"#utility.yul\":1701:1814   */\n  jump(tag_74)\ntag_76:\n    /* \"#utility.yul\":1848:1849   */\n  0x00\n    /* \"#utility.yul\":1839:1845   */\n  dup5\n    /* \"#utility.yul\":1834:1837   */\n  dup5\n    /* \"#utility.yul\":1830:1846   */\n  add\n    /* \"#utility.yul\":1823:1850   */\n  mstore\n    /* \"#utility.yul\":1672:1856   */\n  pop\n    /* \"#utility.yul\":1610:1856   */\n  pop\n  pop\n  pop\n  jump\t// out\n    /* \"#utility.yul\":1862:2296   */\ntag_28:\n    /* \"#utility.yul\":1951:1956   */\n  0x00\n    /* \"#utility.yul\":1976:2042   */\n  tag_78\n    /* \"#utility.yul\":1992:2041   */\n  tag_79\n    /* \"#utility.yul\":2034:2040   */\n  dup5\n    /* \"#utility.yul\":1992:2041   */\n  tag_26\n  jump\t// in\ntag_79:\n    /* \"#utility.yul\":1976:2042   */\n  tag_25\n  jump\t// in\ntag_78:\n    /* \"#utility.yul\":1967:2042   */\n  swap1\n  pop\n    /* \"#utility.yul\":2065:2071   */\n  dup3\n    /* \"#utility.yul\":2058:2063   */\n  dup2\n    /* \"#utility.yul\":2051:2072   */\n  mstore\n    /* \"#utility.yul\":2103:2107   */\n  0x20\n    /* \"#utility.yul\":2096:2101   */\n  dup2\n    /* \"#utility.yul\":2092:2108   */\n  add\n    /* \"#utility.yul\":2141:2144   */\n  dup5\n    /* \"#utility.yul\":2132:2138   */\n  dup5\n    /* \"#utility.yul\":2127:2130   */\n  dup5\n    /* \"#utility.yul\":2123:2139   */\n  add\n    /* \"#utility.yul\":2120:2145   */\n  gt\n    /* \"#utility.yul\":2117:2229   */\n  iszero\n  tag_80\n  jumpi\n    /* \"#utility.yul\":2148:2227   */\n  tag_81\n  tag_21\n  jump\t// in\ntag_81:\n    /* \"#utility.yul\":2117:2229   */\ntag_80:\n    /* \"#utility.yul\":2238:2290   */\n  tag_82\n    /* \"#utility.yul\":2283:2289   */\n  dup5\n    /* \"#utility.yul\":2278:2281   */\n  dup3\n    /* \"#utility.yul\":2273:2276   */\n  dup6\n    /* \"#utility.yul\":2238:2290   */\n  tag_27\n  jump\t// in\ntag_82:\n    /* \"#utility.yul\":1957:2296   */\n  pop\n    /* \"#utility.yul\":1862:2296   */\n  swap4\n  swap3\n  pop\n  pop\n  pop\n  jump\t// out\n    /* \"#utility.yul\":2316:2671   */\ntag_29:\n    /* \"#utility.yul\":2383:2388   */\n  0x00\n    /* \"#utility.yul\":2432:2435   */\n  dup3\n    /* \"#utility.yul\":2425:2429   */\n  0x1f\n    /* \"#utility.yul\":2417:2423   */\n  dup4\n    /* \"#utility.yul\":2413:2430   */\n  add\n    /* \"#utility.yul\":2409:2436   */\n  slt\n    /* \"#utility.yul\":2399:2521   */\n  tag_84\n  jumpi\n    /* \"#utility.yul\":2440:2519   */\n  tag_85\n  tag_20\n  jump\t// in\ntag_85:\n    /* \"#utility.yul\":2399:2521   */\ntag_84:\n    /* \"#utility.yul\":2550:2556   */\n  dup2\n    /* \"#utility.yul\":2544:2557   */\n  mload\n    /* \"#utility.yul\":2575:2665   */\n  tag_86\n    /* \"#utility.yul\":2661:2664   */\n  dup5\n    /* \"#utility.yul\":2653:2659   */\n  dup3\n    /* \"#utility.yul\":2646:2650   */\n  0x20\n    /* \"#utility.yul\":2638:2644   */\n  dup7\n    /* \"#utility.yul\":2634:2651   */\n  add\n    /* \"#utility.yul\":2575:2665   */\n  tag_28\n  jump\t// in\ntag_86:\n    /* \"#utility.yul\":2566:2665   */\n  swap2\n  pop\n    /* \"#utility.yul\":2389:2671   */\n  pop\n    /* \"#utility.yul\":2316:2671   */\n  swap3\n  swap2\n  pop\n  pop\n  jump\t// out\n    /* \"#utility.yul\":2677:2754   */\ntag_30:\n    /* \"#utility.yul\":2714:2721   */\n  0x00\n    /* \"#utility.yul\":2743:2748   */\n  dup2\n    /* \"#utility.yul\":2732:2748   */\n  swap1\n  pop\n    /* \"#utility.yul\":2677:2754   */\n  swap2\n  swap1\n  pop\n  jump\t// out\n    /* \"#utility.yul\":2760:2882   */\ntag_31:\n    /* \"#utility.yul\":2833:2857   */\n  tag_89\n    /* \"#utility.yul\":2851:2856   */\n  dup2\n    /* \"#utility.yul\":2833:2857   */\n  tag_30\n  jump\t// in\ntag_89:\n    /* \"#utility.yul\":2826:2831   */\n  dup2\n    /* \"#utility.yul\":2823:2858   */\n  eq\n    /* \"#utility.yul\":2813:2876   */\n  tag_90\n  jumpi\n    /* \"#utility.yul\":2872:2873   */\n  0x00\n    /* \"#utility.yul\":2869:2870   */\n  dup1\n    /* \"#utility.yul\":2862:2874   */\n  revert\n    /* \"#utility.yul\":2813:2876   */\ntag_90:\n    /* \"#utility.yul\":2760:2882   */\n  pop\n  jump\t// out\n    /* \"#utility.yul\":2888:3031   */\ntag_32:\n    /* \"#utility.yul\":2945:2950   */\n  0x00\n    /* \"#utility.yul\":2976:2982   */\n  dup2\n    /* \"#utility.yul\":2970:2983   */\n  mload\n    /* \"#utility.yul\":2961:2983   */\n  swap1\n  pop\n    /* \"#utility.yul\":2992:3025   */\n  tag_92\n    /* \"#utility.yul\":3019:3024   */\n  dup2\n    /* \"#utility.yul\":2992:3025   */\n  tag_31\n  jump\t// in\ntag_92:\n    /* \"#utility.yul\":2888:3031   */\n  swap3\n  swap2\n  pop\n  pop\n  jump\t// out\n    /* \"#utility.yul\":3037:3717   */\ntag_3:\n    /* \"#utility.yul\":3126:3132   */\n  0x00\n    /* \"#utility.yul\":3134:3140   */\n  dup1\n    /* \"#utility.yul\":3183:3185   */\n  0x40\n    /* \"#utility.yul\":3171:3180   */\n  dup4\n    /* \"#utility.yul\":3162:3169   */\n  dup6\n    /* \"#utility.yul\":3158:3181   */\n  sub\n    /* \"#utility.yul\":3154:3186   */\n  slt\n    /* \"#utility.yul\":3151:3270   */\n  iszero\n  tag_94\n  jumpi\n    /* \"#utility.yul\":3189:3268   */\n  tag_95\n  tag_18\n  jump\t// in\ntag_95:\n    /* \"#utility.yul\":3151:3270   */\ntag_94:\n    /* \"#utility.yul\":3330:3331   */\n  0x00\n    /* \"#utility.yul\":3319:3328   */\n  dup4\n    /* \"#utility.yul\":3315:3332   */\n  add\n    /* \"#utility.yul\":3309:3333   */\n  mload\n    /* \"#utility.yul\":3360:3378   */\n  0xffffffffffffffff\n    /* \"#utility.yul\":3352:3358   */\n  dup2\n    /* \"#utility.yul\":3349:3379   */\n  gt\n    /* \"#utility.yul\":3346:3463   */\n  iszero\n  tag_96\n  jumpi\n    /* \"#utility.yul\":3382:3461   */\n  tag_97\n  tag_19\n  jump\t// in\ntag_97:\n    /* \"#utility.yul\":3346:3463   */\ntag_96:\n    /* \"#utility.yul\":3487:3561   */\n  tag_98\n    /* \"#utility.yul\":3553:3560   */\n  dup6\n    /* \"#utility.yul\":3544:3550   */\n  dup3\n    /* \"#utility.yul\":3533:3542   */\n  dup7\n    /* \"#utility.yul\":3529:3551   */\n  add\n    /* \"#utility.yul\":3487:3561   */\n  tag_29\n  jump\t// in\ntag_98:\n    /* \"#utility.yul\":3477:3561   */\n  swap3\n  pop\n    /* \"#utility.yul\":3280:3571   */\n  pop\n    /* \"#utility.yul\":3610:3612   */\n  0x20\n    /* \"#utility.yul\":3636:3700   */\n  tag_99\n    /* \"#utility.yul\":3692:3699   */\n  dup6\n    /* \"#utility.yul\":3683:3689   */\n  dup3\n    /* \"#utility.yul\":3672:3681   */\n  dup7\n    /* \"#utility.yul\":3668:3690   */\n  add\n    /* \"#utility.yul\":3636:3700   */\n  tag_32\n  jump\t// in\ntag_99:\n    /* \"#utility.yul\":3626:3700   */\n  swap2\n  pop\n    /* \"#utility.yul\":3581:3710   */\n  pop\n    /* \"#utility.yul\":3037:3717   */\n  swap3\n  pop\n  swap3\n  swap1\n  pop\n  jump\t// out\n    /* \"#utility.yul\":3723:3849   */\ntag_33:\n    /* \"#utility.yul\":3760:3767   */\n  0x00\n    /* \"#utility.yul\":3800:3842   */\n  0xffffffffffffffffffffffffffffffffffffffff\n    /* \"#utility.yul\":3793:3798   */\n  dup3\n    /* \"#utility.yul\":3789:3843   */\n  and\n    /* \"#utility.yul\":3778:3843   */\n  swap1\n  pop\n    /* \"#utility.yul\":3723:3849   */\n  swap2\n  swap1\n  pop\n  jump\t// out\n    /* \"#utility.yul\":3855:3951   */\ntag_34:\n    /* \"#utility.yul\":3892:3899   */\n  0x00\n    /* \"#utility.yul\":3921:3945   */\n  tag_102\n    /* \"#utility.yul\":3939:3944   */\n  dup3\n    /* \"#utility.yul\":3921:3945   */\n  tag_33\n  jump\t// in\ntag_102:\n    /* \"#utility.yul\":3910:3945   */\n  swap1\n  pop\n    /* \"#utility.yul\":3855:3951   */\n  swap2\n  swap1\n  pop\n  jump\t// out\n    /* \"#utility.yul\":3957:4075   */\ntag_35:\n    /* \"#utility.yul\":4044:4068   */\n  tag_104\n    /* \"#utility.yul\":4062:4067   */\n  dup2\n    /* \"#utility.yul\":4044:4068   */\n  tag_34\n  jump\t// in\ntag_104:\n    /* \"#utility.yul\":4039:4042   */\n  dup3\n    /* \"#utility.yul\":4032:4069   */\n  mstore\n    /* \"#utility.yul\":3957:4075   */\n  pop\n  pop\n  jump\t// out\n    /* \"#utility.yul\":4081:4303   */\ntag_9:\n    /* \"#utility.yul\":4174:4178   */\n  0x00\n    /* \"#utility.yul\":4212:4214   */\n  0x20\n    /* \"#utility.yul\":4201:4210   */\n  dup3\n    /* \"#utility.yul\":4197:4215   */\n  add\n    /* \"#utility.yul\":4189:4215   */\n  swap1\n  pop\n    /* \"#utility.yul\":4225:4296   */\n  tag_106\n    /* \"#utility.yul\":4293:4294   */\n  0x00\n    /* \"#utility.yul\":4282:4291   */\n  dup4\n    /* \"#utility.yul\":4278:4295   */\n  add\n    /* \"#utility.yul\":4269:4275   */\n  dup5\n    /* \"#utility.yul\":4225:4296   */\n  tag_35\n  jump\t// in\ntag_106:\n    /* \"#utility.yul\":4081:4303   */\n  swap3\n  swap2\n  pop\n  pop\n  jump\t// out\n    /* \"#utility.yul\":4309:4408   */\ntag_36:\n    /* \"#utility.yul\":4361:4367   */\n  0x00\n    /* \"#utility.yul\":4395:4400   */\n  dup2\n    /* \"#utility.yul\":4389:4401   */\n  mload\n    /* \"#utility.yul\":4379:4401   */\n  swap1\n  pop\n    /* \"#utility.yul\":4309:4408   */\n  swap2\n  swap1\n  pop\n  jump\t// out\n    /* \"#utility.yul\":4414:4594   */\ntag_37:\n    /* \"#utility.yul\":4462:4539   */\n  0x4e487b7100000000000000000000000000000000000000000000000000000000\n    /* \"#utility.yul\":4459:4460   */\n  0x00\n    /* \"#utility.yul\":4452:4540   */\n  mstore\n    /* \"#utility.yul\":4559:4563   */\n  0x22\n    /* \"#utility.yul\":4556:4557   */\n  0x04\n    /* \"#utility.yul\":4549:4564   */\n  mstore\n    /* \"#utility.yul\":4583:4587   */\n  0x24\n    /* \"#utility.yul\":4580:4581   */\n  0x00\n    /* \"#utility.yul\":4573:4588   */\n  revert\n    /* \"#utility.yul\":4600:4920   */\ntag_38:\n    /* \"#utility.yul\":4644:4650   */\n  0x00\n    /* \"#utility.yul\":4681:4682   */\n  0x02\n    /* \"#utility.yul\":4675:4679   */\n  dup3\n    /* \"#utility.yul\":4671:4683   */\n  div\n    /* \"#utility.yul\":4661:4683   */\n  swap1\n  pop\n    /* \"#utility.yul\":4728:4729   */\n  0x01\n    /* \"#utility.yul\":4722:4726   */\n  dup3\n    /* \"#utility.yul\":4718:4730   */\n  and\n    /* \"#utility.yul\":4749:4767   */\n  dup1\n    /* \"#utility.yul\":4739:4820   */\n  tag_110\n  jumpi\n    /* \"#utility.yul\":4805:4809   */\n  0x7f\n    /* \"#utility.yul\":4797:4803   */\n  dup3\n    /* \"#utility.yul\":4793:4810   */\n  and\n    /* \"#utility.yul\":4783:4810   */\n  swap2\n  pop\n    /* \"#utility.yul\":4739:4820   */\ntag_110:\n    /* \"#utility.yul\":4867:4869   */\n  0x20\n    /* \"#utility.yul\":4859:4865   */\n  dup3\n    /* \"#utility.yul\":4856:4870   */\n  lt\n    /* \"#utility.yul\":4836:4854   */\n  dup2\n    /* \"#utility.yul\":4833:4871   */\n  sub\n    /* \"#utility.yul\":4830:4914   */\n  tag_111\n  jumpi\n    /* \"#utility.yul\":4886:4904   */\n  tag_112\n  tag_37\n  jump\t// in\ntag_112:\n    /* \"#utility.yul\":4830:4914   */\ntag_111:\n    /* \"#utility.yul\":4651:4920   */\n  pop\n    /* \"#utility.yul\":4600:4920   */\n  swap2\n  swap1\n  pop\n  jump\t// out\n    /* \"#utility.yul\":4926:5067   */\ntag_39:\n    /* \"#utility.yul\":4975:4979   */\n  0x00\n    /* \"#utility.yul\":4998:5001   */\n  dup2\n    /* \"#utility.yul\":4990:5001   */\n  swap1\n  pop\n    /* \"#utility.yul\":5021:5024   */\n  dup2\n    /* \"#utility.yul\":5018:5019   */\n  0x00\n    /* \"#utility.yul\":5011:5025   */\n  mstore\n    /* \"#utility.yul\":5055:5059   */\n  0x20\n    /* \"#utility.yul\":5052:5053   */\n  0x00\n    /* \"#utility.yul\":5042:5060   */\n  keccak256\n    /* \"#utility.yul\":5034:5060   */\n  swap1\n  pop\n    /* \"#utility.yul\":4926:5067   */\n  swap2\n  swap1\n  pop\n  jump\t// out\n    /* \"#utility.yul\":5073:5166   */\ntag_40:\n    /* \"#utility.yul\":5110:5116   */\n  0x00\n    /* \"#utility.yul\":5157:5159   */\n  0x20\n    /* \"#utility.yul\":5152:5154   */\n  0x1f\n    /* \"#utility.yul\":5145:5150   */\n  dup4\n    /* \"#utility.yul\":5141:5155   */\n  add\n    /* \"#utility.yul\":5137:5160   */\n  div\n    /* \"#utility.yul\":5127:5160   */\n  swap1\n  pop\n    /* \"#utility.yul\":5073:5166   */\n  swap2\n  swap1\n  pop\n  jump\t// out\n    /* \"#utility.yul\":5172:5279   */\ntag_41:\n    /* \"#utility.yul\":5216:5224   */\n  0x00\n    /* \"#utility.yul\":5266:5271   */\n  dup3\n    /* \"#utility.yul\":5260:5264   */\n  dup3\n    /* \"#utility.yul\":5256:5272   */\n  shl\n    /* \"#utility.yul\":5235:5272   */\n  swap1\n  pop\n    /* \"#utility.yul\":5172:5279   */\n  swap3\n  swap2\n  pop\n  pop\n  jump\t// out\n    /* \"#utility.yul\":5285:5678   */\ntag_42:\n    /* \"#utility.yul\":5354:5360   */\n  0x00\n    /* \"#utility.yul\":5404:5405   */\n  0x08\n    /* \"#utility.yul\":5392:5402   */\n  dup4\n    /* \"#utility.yul\":5388:5406   */\n  mul\n    /* \"#utility.yul\":5427:5524   */\n  tag_117\n    /* \"#utility.yul\":5457:5523   */\n  0xffffffffffffffffffffffffffffffffffffffffffffffffffffffffffffffff\n    /* \"#utility.yul\":5446:5455   */\n  dup3\n    /* \"#utility.yul\":5427:5524   */\n  tag_41\n  jump\t// in\ntag_117:\n    /* \"#utility.yul\":5545:5584   */\n  tag_118\n    /* \"#utility.yul\":5575:5583   */\n  dup7\n    /* \"#utility.yul\":5564:5573   */\n  dup4\n    /* \"#utility.yul\":5545:5584   */\n  tag_41\n  jump\t// in\ntag_118:\n    /* \"#utility.yul\":5533:5584   */\n  swap6\n  pop\n    /* \"#utility.yul\":5617:5621   */\n  dup1\n    /* \"#utility.yul\":5613:5622   */\n  not\n    /* \"#utility.yul\":5606:5611   */\n  dup5\n    /* \"#utility.yul\":5602:5623   */\n  and\n    /* \"#utility.yul\":5593:5623   */\n  swap4\n  pop\n    /* \"#utility.yul\":5666:5670   */\n  dup1\n    /* \"#utility.yul\":5656:5664   */\n  dup7\n    /* \"#utility.yul\":5652:5671   */\n  and\n    /* \"#utility.yul\":5645:5650   */\n  dup5\n    /* \"#utility.yul\":5642:5672   */\n  or\n    /* \"#utility.yul\":5632:5672   */\n  swap3\n  pop\n    /* \"#utility.yul\":5361:5678   */\n  pop\n  pop\n    /* \"#utility.yul\":5285:5678   */\n  swap4\n  swap3\n  pop\n  pop\n  pop\n  jump\t// out\n    /* \"#utility.yul\":5684:5744   */\ntag_43:\n    /* \"#utility.yul\":5712:5715   */\n  0x00\n    /* \"#utility.yul\":5733:5738   */\n  dup2\n    /* \"#utility.yul\":5726:5738   */\n  swap1\n  pop\n    /* \"#utility.yul\":5684:5744   */\n  swap2\n  swap1\n  pop\n  jump\t// out\n    /* \"#utility.yul\":5750:5892   */\ntag_44:\n    /* \"#utility.yul\":5800:5809   */\n  0x00\n    /* \"#utility.yul\":5833:5886   */\n  tag_121\n    /* \"#utility.yul\":5851:5885   */\n  tag_122\n    /* \"#utility.yul\":5860:5884   */\n  tag_123\n    /* \"#utility.yul\":5878:5883   */\n  dup5\n    /* \"#utility.yul\":5860:5884   */\n  tag_30\n  jump\t// in\ntag_123:\n    /* \"#utility.yul\":5851:5885   */\n  tag_43\n  jump\t// in\ntag_122:\n    /* \"#utility.yul\":5833:5886   */\n  tag_30\n  jump\t// in\ntag_121:\n    /* \"#utility.yul\":5820:5886   */\n  swap1\n  pop\n    /* \"#utility.yul\":5750:5892   */\n  swap2\n  swap1\n  pop\n  jump\t// out\n    /* \"#utility.yul\":5898:5973   */\ntag_45:\n    /* \"#utility.yul\":5941:5944   */\n  0x00\n    /* \"#utility.yul\":5962:5967   */\n  dup2\n    /* \"#utility.yul\":5955:5967   */\n  swap1\n  pop\n    /* \"#utility.yul\":5898:5973   */\n  swap2\n  swap1\n  pop\n  jump\t// out\n    /* \"#utility.yul\":5979:6248   */\ntag_46:\n    /* \"#utility.yul\":6089:6128   */\n  tag_126\n    /* \"#utility.yul\":6120:6127   */\n  dup4\n    /* \"#utility.yul\":6089:6128   */\n  tag_44\n  jump\t// in\ntag_126:\n    /* \"#utility.yul\":6150:6241   */\n  tag_127\n    /* \"#utility.yul\":6199:6240   */\n  tag_128\n    /* \"#utility.yul\":6223:6239   */\n  dup3\n    /* \"#utility.yul\":6199:6240   */\n  tag_45\n  jump\t// in\ntag_128:\n    /* \"#utility.yul\":6191:6197   */\n  dup5\n    /* \"#utility.yul\":6184:6188   */\n  dup5\n    /* \"#utility.yul\":6178:6189   */\n  sload\n    /* \"#utility.yul\":6150:6241   */\n  tag_42\n  jump\t// in\ntag_127:\n    /* \"#utility.yul\":6144:6148   */\n  dup3\n    /* \"#utility.yul\":6137:6242   */\n  sstore\n    /* \"#utility.yul\":6055:6248   */\n  pop\n    /* \"#utility.yul\":5979:6248   */\n  pop\n  pop\n  pop\n  jump\t// out\n    /* \"#utility.yul\":6254:6327   */\ntag_47:\n    /* \"#utility.yul\":6299:6302   */\n  0x00\n    /* \"#utility.yul\":6254:6327   */\n  swap1\n  jump\t// out\n    /* \"#utility.yul\":6333:6522   */\ntag_48:\n    /* \"#utility.yul\":6410:6442   */\n  tag_131\n  tag_47\n  jump\t// in\ntag_131:\n    /* \"#utility.yul\":6451:6516   */\n  tag_132\n    /* \"#utility.yul\":6509:6515   */\n  dup2\n    /* \"#utility.yul\":6501:6507   */\n  dup5\n    /* \"#utility.yul\":6495:6499   */\n  dup5\n    /* \"#utility.yul\":6451:6516   */\n  tag_46\n  jump\t// in\ntag_132:\n    /* \"#utility.yul\":6386:6522   */\n  pop\n    /* \"#utility.yul\":6333:6522   */\n  pop\n  pop\n  jump\t// out\n    /* \"#utility.yul\":6528:6714   */\ntag_49:\n    /* \"#utility.yul\":6588:6708   */\ntag_134:\n    /* \"#utility.yul\":6605:6608   */\n  dup2\n    /* \"#utility.yul\":6598:6603   */\n  dup2\n    /* \"#utility.yul\":6595:6609   */\n  lt\n    /* \"#utility.yul\":6588:6708   */\n  iszero\n  tag_136\n  jumpi\n    /* \"#utility.yul\":6659:6698   */\n  tag_137\n    /* \"#utility.yul\":6696:6697   */\n  0x00\n    /* \"#utility.yul\":6689:6694   */\n  dup3\n    /* \"#utility.yul\":6659:6698   */\n  tag_48\n  jump\t// in\ntag_137:\n    /* \"#utility.yul\":6632:6633   */\n  0x01\n    /* \"#utility.yul\":6625:6630   */\n  dup2\n    /* \"#utility.yul\":6621:6634   */\n  add\n    /* \"#utility.yul\":6612:6634   */\n  swap1\n  pop\n    /* \"#utility.yul\":6588:6708   */\n  jump(tag_134)\ntag_136:\n    /* \"#utility.yul\":6528:6714   */\n  pop\n  pop\n  jump\t// out\n    /* \"#utility.yul\":6720:7263   */\ntag_50:\n    /* \"#utility.yul\":6821:6823   */\n  0x1f\n    /* \"#utility.yul\":6816:6819   */\n  dup3\n    /* \"#utility.yul\":6813:6824   */\n  gt\n    /* \"#utility.yul\":6810:7256   */\n  iszero\n  tag_139\n  jumpi\n    /* \"#utility.yul\":6855:6893   */\n  tag_140\n    /* \"#utility.yul\":6887:6892   */\n  dup2\n    /* \"#utility.yul\":6855:6893   */\n  tag_39\n  jump\t// in\ntag_140:\n    /* \"#utility.yul\":6939:6968   */\n  tag_141\n    /* \"#utility.yul\":6957:6967   */\n  dup5\n    /* \"#utility.yul\":6939:6968   */\n  tag_40\n  jump\t// in\ntag_141:\n    /* \"#utility.yul\":6929:6937   */\n  dup2\n    /* \"#utility.yul\":6925:6969   */\n  add\n    /* \"#utility.yul\":7122:7124   */\n  0x20\n    /* \"#utility.yul\":7110:7120   */\n  dup6\n    /* \"#utility.yul\":7107:7125   */\n  lt\n    /* \"#utility.yul\":7104:7153   */\n  iszero\n  tag_142\n  jumpi\n    /* \"#utility.yul\":7143:7151   */\n  dup2\n    /* \"#utility.yul\":7128:7151   */\n  swap1\n  pop\n    /* \"#utility.yul\":7104:7153   */\ntag_142:\n    /* \"#utility.yul\":7166:7246   */\n  tag_143\n    /* \"#utility.yul\":7222:7244   */\n  tag_144\n    /* \"#utility.yul\":7240:7243   */\n  dup6\n    /* \"#utility.yul\":7222:7244   */\n  tag_40\n  jump\t// in\ntag_144:\n    /* \"#utility.yul\":7212:7220   */\n  dup4\n    /* \"#utility.yul\":7208:7245   */\n  add\n    /* \"#utility.yul\":7195:7206   */\n  dup3\n    /* \"#utility.yul\":7166:7246   */\n  tag_49\n  jump\t// in\ntag_143:\n    /* \"#utility.yul\":6825:7256   */\n  pop\n  pop\n    /* \"#utility.yul\":6810:7256   */\ntag_139:\n    /* \"#utility.yul\":6720:7263   */\n  pop\n  pop\n  pop\n  jump\t// out\n    /* \"#utility.yul\":7269:7386   */\ntag_51:\n    /* \"#utility.yul\":7323:7331   */\n  0x00\n    /* \"#utility.yul\":7373:7378   */\n  dup3\n    /* \"#utility.yul\":7367:7371   */\n  dup3\n    /* \"#utility.yul\":7363:7379   */\n  shr\n    /* \"#utility.yul\":7342:7379   */\n  swap1\n  pop\n    /* \"#utility.yul\":7269:7386   */\n  swap3\n  swap2\n  pop\n  pop\n  jump\t// out\n    /* \"#utility.yul\":7392:7561   */\ntag_52:\n    /* \"#utility.yul\":7436:7442   */\n  0x00\n    /* \"#utility.yul\":7469:7520   */\n  tag_147\n    /* \"#utility.yul\":7517:7518   */\n  0x00\n    /* \"#utility.yul\":7513:7519   */\n  not\n    /* \"#utility.yul\":7505:7510   */\n  dup5\n    /* \"#utility.yul\":7502:7503   */\n  0x08\n    /* \"#utility.yul\":7498:7511   */\n  mul\n    /* \"#utility.yul\":7469:7520   */\n  tag_51\n  jump\t// in\ntag_147:\n    /* \"#utility.yul\":7465:7521   */\n  not\n    /* \"#utility.yul\":7550:7554   */\n  dup1\n    /* \"#utility.yul\":7544:7548   */\n  dup4\n    /* \"#utility.yul\":7540:7555   */\n  and\n    /* \"#utility.yul\":7530:7555   */\n  swap2\n  pop\n    /* \"#utility.yul\":7443:7561   */\n  pop\n    /* \"#utility.yul\":7392:7561   */\n  swap3\n  swap2\n  pop\n  pop\n  jump\t// out\n    /* \"#utility.yul\":7566:7861   */\ntag_53:\n    /* \"#utility.yul\":7642:7646   */\n  0x00\n    /* \"#utility.yul\":7788:7817   */\n  tag_149\n    /* \"#utility.yul\":7813:7816   */\n  dup4\n    /* \"#utility.yul\":7807:7811   */\n  dup4\n    /* \"#utility.yul\":7788:7817   */\n  tag_52\n  jump\t// in\ntag_149:\n    /* \"#utility.yul\":7780:7817   */\n  swap2\n  pop\n    /* \"#utility.yul\":7850:7853   */\n  dup3\n    /* \"#utility.yul\":7847:7848   */\n  0x02\n    /* \"#utility.yul\":7843:7854   */\n  mul\n    /* \"#utility.yul\":7837:7841   */\n  dup3\n    /* \"#utility.yul\":7834:7855   */\n  or\n    /* \"#utility.yul\":7826:7855   */\n  swap1\n  pop\n    /* \"#utility.yul\":7566:7861   */\n  swap3\n  swap2\n  pop\n  pop\n  jump\t// out\n    /* \"#utility.yul\":7866:9261   */\ntag_14:\n    /* \"#utility.yul\":7983:8020   */\n  tag_151\n    /* \"#utility.yul\":8016:8019   */\n  dup3\n    /* \"#utility.yul\":7983:8020   */\n  tag_36\n  jump\t// in\ntag_151:\n    /* \"#utility.yul\":8085:8103   */\n  0xffffffffffffffff\n    /* \"#utility.yul\":8077:8083   */\n  dup2\n    /* \"#utility.yul\":8074:8104   */\n  gt\n    /* \"#utility.yul\":8071:8127   */\n  iszero\n  tag_152\n  jumpi\n    /* \"#utility.yul\":8107:8125   */\n  tag_153\n  tag_23\n  jump\t// in\ntag_153:\n    /* \"#utility.yul\":8071:8127   */\ntag_152:\n    /* \"#utility.yul\":8151:8189   */\n  tag_154\n    /* \"#utility.yul\":8183:8187   */\n  dup3\n    /* \"#utility.yul\":8177:8188   */\n  sload\n    /* \"#utility.yul\":8151:8189   */\n  tag_38\n  jump\t// in\ntag_154:\n    /* \"#utility.yul\":8236:8303   */\n  tag_155\n    /* \"#utility.yul\":8296:8302   */\n  dup3\n    /* \"#utility.yul\":8288:8294   */\n  dup3\n    /* \"#utility.yul\":8282:8286   */\n  dup6\n    /* \"#utility.yul\":8236:8303   */\n  tag_50\n  jump\t// in\ntag_155:\n    /* \"#utility.yul\":8330:8331   */\n  0x00\n    /* \"#utility.yul\":8354:8358   */\n  0x20\n    /* \"#utility.yul\":8341:8358   */\n  swap1\n  pop\n    /* \"#utility.yul\":8386:8388   */\n  0x1f\n    /* \"#utility.yul\":8378:8384   */\n  dup4\n    /* \"#utility.yul\":8375:8389   */\n  gt\n    /* \"#utility.yul\":8403:8404   */\n  0x01\n    /* \"#utility.yul\":8398:9016   */\n  dup2\n  eq\n  tag_157\n  jumpi\n    /* \"#utility.yul\":9060:9061   */\n  0x00\n    /* \"#utility.yul\":9077:9083   */\n  dup5\n    /* \"#utility.yul\":9074:9151   */\n  iszero\n  tag_158\n  jumpi\n    /* \"#utility.yul\":9126:9135   */\n  dup3\n    /* \"#utility.yul\":9121:9124   */\n  dup8\n    /* \"#utility.yul\":9117:9136   */\n  add\n    /* \"#utility.yul\":9111:9137   */\n  mload\n    /* \"#utility.yul\":9102:9137   */\n  swap1\n  pop\n    /* \"#utility.yul\":9074:9151   */\ntag_158:\n    /* \"#utility.yul\":9177:9244   */\n  tag_159\n    /* \"#utility.yul\":9237:9243   */\n  dup6\n    /* \"#utility.yul\":9230:9235   */\n  dup3\n    /* \"#utility.yul\":9177:9244   */\n  tag_53\n  jump\t// in\ntag_159:\n    /* \"#utility.yul\":9171:9175   */\n  dup7\n    /* \"#utility.yul\":9164:9245   */\n  sstore\n    /* \"#utility.yul\":9033:9255   */\n  pop\n    /* \"#utility.yul\":8368:9255   */\n  jump(tag_156)\n    /* \"#utility.yul\":8398:9016   */\ntag_157:\n    /* \"#utility.yul\":8450:8454   */\n  0x1f\n    /* \"#utility.yul\":8446:8455   */\n  not\n    /* \"#utility.yul\":8438:8444   */\n  dup5\n    /* \"#utility.yul\":8434:8456   */\n  and\n    /* \"#utility.yul\":8484:8521   */\n  tag_160\n    /* \"#utility.yul\":8516:8520   */\n  dup7\n    /* \"#utility.yul\":8484:8521   */\n  tag_39\n  jump\t// in\ntag_160:\n    /* \"#utility.yul\":8543:8544   */\n  0x00\n    /* \"#utility.yul\":8557:8765   */\ntag_161:\n    /* \"#utility.yul\":8571:8578   */\n  dup3\n    /* \"#utility.yul\":8568:8569   */\n  dup2\n    /* \"#utility.yul\":8565:8579   */\n  lt\n    /* \"#utility.yul\":8557:8765   */\n  iszero\n  tag_163\n  jumpi\n    /* \"#utility.yul\":8650:8659   */\n  dup5\n    /* \"#utility.yul\":8645:8648   */\n  dup10\n    /* \"#utility.yul\":8641:8660   */\n  add\n    /* \"#utility.yul\":8635:8661   */\n  mload\n    /* \"#utility.yul\":8627:8633   */\n  dup3\n    /* \"#utility.yul\":8620:8662   */\n  sstore\n    /* \"#utility.yul\":8701:8702   */\n  0x01\n    /* \"#utility.yul\":8693:8699   */\n  dup3\n    /* \"#utility.yul\":8689:8703   */\n  add\n    /* \"#utility.yul\":8679:8703   */\n  swap2\n  pop\n    /* \"#utility.yul\":8748:8750   */\n  0x20\n    /* \"#utility.yul\":8737:8746   */\n  dup6\n    /* \"#utility.yul\":8733:8751   */\n  add\n    /* \"#utility.yul\":8720:8751   */\n  swap5\n  pop\n    /* \"#utility.yul\":8594:8598   */\n  0x20\n    /* \"#utility.yul\":8591:8592   */\n  dup2\n    /* \"#utility.yul\":8587:8599   */\n  add\n    /* \"#utility.yul\":8582:8599   */\n  swap1\n  pop\n    /* \"#utility.yul\":8557:8765   */\n  jump(tag_161)\ntag_163:\n    /* \"#utility.yul\":8793:8799   */\n  dup7\n    /* \"#utility.yul\":8784:8791   */\n  dup4\n    /* \"#utility.yul\":8781:8800   */\n  lt\n    /* \"#utility.yul\":8778:8957   */\n  iszero\n  tag_164\n  jumpi\n    /* \"#utility.yul\":8851:8860   */\n  dup5\n    /* \"#utility.yul\":8846:8849   */\n  dup10\n    /* \"#utility.yul\":8842:8861   */\n  add\n    /* \"#utility.yul\":8836:8862   */\n  mload\n    /* \"#utility.yul\":8894:8942   */\n  tag_165\n    /* \"#utility.yul\":8936:8940   */\n  0x1f\n    /* \"#utility.yul\":8928:8934   */\n  dup10\n    /* \"#utility.yul\":8924:8941   */\n  and\n    /* \"#utility.yul\":8913:8922   */\n  dup3\n    /* \"#utility.yul\":8894:8942   */\n  tag_52\n  jump\t// in\ntag_165:\n    /* \"#utility.yul\":8886:8892   */\n  dup4\n    /* \"#utility.yul\":8879:8943   */\n  sstore\n    /* \"#utility.yul\":8801:8957   */\n  pop\n    /* \"#utility.yul\":8778:8957   */\ntag_164:\n    /* \"#utility.yul\":9003:9004   */\n  0x01\n    /* \"#utility.yul\":8999:9000   */\n  0x02\n    /* \"#utility.yul\":8991:8997   */\n  dup9\n    /* \"#utility.yul\":8987:9001   */\n  mul\n    /* \"#utility.yul\":8983:9005   */\n  add\n    /* \"#utility.yul\":8977:8981   */\n  dup9\n    /* \"#utility.yul\":8970:9006   */\n  sstore\n    /* \"#utility.yul\":8405:9016   */\n  pop\n  pop\n  pop\n    /* \"#utility.yul\":8368:9255   */\ntag_156:\n  pop\n    /* \"#utility.yul\":7958:9261   */\n  pop\n  pop\n  pop\n    /* \"#utility.yul\":7866:9261   */\n  pop\n  pop\n  jump\t// out\n    /* \"contracts/Item.sol\":130:2110  contract Item is Ownable {... */\ntag_15:\n  dataSize(sub_0)\n  dup1\n  dataOffset(sub_0)\n  0x00\n  codecopy\n  0x00\n  return\nstop\n\nsub_0: assembly {\n        /* \"contracts/Item.sol\":130:2110  contract Item is Ownable {... */\n      mstore(0x40, 0x80)\n      jumpi(tag_1, lt(calldatasize, 0x04))\n      shr(0xe0, calldataload(0x00))\n      dup1\n      0x8aca1205\n      gt\n      tag_13\n      jumpi\n      dup1\n      0x8aca1205\n      eq\n      tag_7\n      jumpi\n      dup1\n      0x8da5cb5b\n      eq\n      tag_8\n      jumpi\n      dup1\n      0xa035b1fe\n      eq\n      tag_9\n      jumpi\n      dup1\n      0xa2b40d19\n      eq\n      tag_10\n      jumpi\n      dup1\n      0xa70c1dde\n      eq\n      tag_11\n      jumpi\n      dup1\n      0xf2fde38b\n      eq\n      tag_12\n      jumpi\n      jump(tag_1)\n    tag_13:\n      dup1\n      0x40401fea\n      eq\n      tag_2\n      jumpi\n      dup1\n      0x466ccac0\n      eq\n      tag_3\n      jumpi\n      dup1\n      0x715018a6\n      eq\n      tag_4\n      jumpi\n      dup1\n      0x795612d6\n      eq\n      tag_5\n      jumpi\n      dup1\n      0x7c81d123\n      eq\n      tag_6\n      jumpi\n    tag_1:\n      0x00\n      dup1\n      revert\n        /* \"contracts/Item.sol\":180:202  string public itemName */\n    tag_2:\n      callvalue\n      dup1\n      iszero\n      tag_14\n      jumpi\n      0x00\n      dup1\n      revert\n    tag_14:\n      pop\n      tag_15\n      tag_16\n      jump\t// in\n    tag_15:\n      mload(0x40)\n      tag_17\n      swap2\n      swap1\n      tag_18\n      jump\t// in\n    tag_17:\n      mload(0x40)\n      dup1\n      swap2\n      sub\n      swap1\n      return\n        /* \"contracts/Item.sol\":236:255  bool public forSale */\n    tag_3:\n      callvalue\n      dup1\n      iszero\n      tag_19\n      jumpi\n      0x00\n      dup1\n      revert\n    tag_19:\n      pop\n      tag_20\n      tag_21\n      jump\t// in\n    tag_20:\n      mload(0x40)\n      tag_22\n      swap2\n      swap1\n      tag_23\n      jump\t// in\n    tag_22:\n      mload(0x40)\n      dup1\n      swap2\n      sub\n      swap1\n      return\n        /* \"@openzeppelin/contracts/access/Ownable.sol\":2293:2394  function renounceOwnership() public virtual onlyOwner {... */\n    tag_4:\n      callvalue\n      dup1\n      iszero\n      tag_24\n      jumpi\n      0x00\n      dup1\n      revert\n    tag_24:\n      pop\n      tag_25\n      tag_26\n      jump\t// in\n    tag_25:\n      stop\n        /* \"contracts/Item.sol\":1340:1907  function buyItem() external payable {... */\n    tag_5:\n      tag_27\n      tag_28\n      jump\t// in\n    tag_27:\n      stop\n        /* \"contracts/Item.sol\":1915:2107  function getItemDetails() external view returns (... */\n    tag_6:\n      callvalue\n      dup1\n      iszero\n      tag_29\n      jumpi\n      0x00\n      dup1\n      revert\n    tag_29:\n      pop\n      tag_30\n      tag_31\n      jump\t// in\n    tag_30:\n      mload(0x40)\n      tag_32\n      swap5\n      swap4\n      swap3\n      swap2\n      swap1\n      tag_33\n      jump\t// in\n    tag_32:\n      mload(0x40)\n      dup1\n      swap2\n      sub\n      swap1\n      return\n        /* \"contracts/Item.sol\":682:1032  function transferOwnershipNewAddress(address newOwner) external onlyOwner {... */\n    tag_7:\n      callvalue\n      dup1\n      iszero\n      tag_34\n      jumpi\n      0x00\n      dup1\n      revert\n    tag_34:\n      pop\n      tag_35\n      0x04\n      dup1\n      calldatasize\n      sub\n      dup2\n      add\n      swap1\n      tag_36\n      swap2\n      swap1\n      tag_37\n      jump\t// in\n    tag_36:\n      tag_38\n      jump\t// in\n    tag_35:\n      stop\n        /* \"@openzeppelin/contracts/access/Ownable.sol\":1638:1723  function owner() public view virtual returns (address) {... */\n    tag_8:\n      callvalue\n      dup1\n      iszero\n      tag_39\n      jumpi\n      0x00\n      dup1\n      revert\n    tag_39:\n      pop\n      tag_40\n      tag_41\n      jump\t// in\n    tag_40:\n      mload(0x40)\n      tag_42\n      swap2\n      swap1\n      tag_43\n      jump\t// in\n    tag_42:\n      mload(0x40)\n      dup1\n      swap2\n      sub\n      swap1\n      return\n        /* \"contracts/Item.sol\":209:229  uint256 public price */\n    tag_9:\n      callvalue\n      dup1\n      iszero\n      tag_44\n      jumpi\n      0x00\n      dup1\n      revert\n    tag_44:\n      pop\n      tag_45\n      tag_46\n      jump\t// in\n    tag_45:\n      mload(0x40)\n      tag_47\n      swap2\n      swap1\n      tag_48\n      jump\t// in\n    tag_47:\n      mload(0x40)\n      dup1\n      swap2\n      sub\n      swap1\n      return\n        /* \"contracts/Item.sol\":1046:1184  function changePrice(uint256 _newPrice) external onlyOwner {... */\n    tag_10:\n      callvalue\n      dup1\n      iszero\n      tag_49\n      jumpi\n      0x00\n      dup1\n      revert\n    tag_49:\n      pop\n      tag_50\n      0x04\n      dup1\n      calldatasize\n      sub\n      dup2\n      add\n      swap1\n      tag_51\n      swap2\n      swap1\n      tag_52\n      jump\t// in\n    tag_51:\n      tag_53\n      jump\t// in\n    tag_50:\n      stop\n        /* \"contracts/Item.sol\":1192:1332  function changeSaleStatus(bool _forSale) external onlyOwner {... */\n    tag_11:\n      callvalue\n      dup1\n      iszero\n      tag_54\n      jumpi\n      0x00\n      dup1\n      revert\n    tag_54:\n      pop\n      tag_55\n      0x04\n      dup1\n      calldatasize\n      sub\n      dup2\n      add\n      swap1\n      tag_56\n      swap2\n      swap1\n      tag_57\n      jump\t// in\n    tag_56:\n      tag_58\n      jump\t// in\n    tag_55:\n      stop\n        /* \"@openzeppelin/contracts/access/Ownable.sol\":2543:2758  function transferOwnership(address newOwner) public virtual onlyOwner {... */\n    tag_12:\n      callvalue\n      dup1\n      iszero\n      tag_59\n      jumpi\n      0x00\n      dup1\n      revert\n    tag_59:\n      pop\n      tag_60\n      0x04\n      dup1\n      calldatasize\n      sub\n      dup2\n      add\n      swap1\n      tag_61\n      swap2\n      swap1\n      tag_37\n      jump\t// in\n    tag_61:\n      tag_62\n      jump\t// in\n    tag_60:\n      stop\n        /* \"contracts/Item.sol\":180:202  string public itemName */\n    tag_16:\n      0x01\n      dup1\n      sload\n      tag_63\n      swap1\n      tag_64\n      jump\t// in\n    tag_63:\n      dup1\n      0x1f\n      add\n      0x20\n      dup1\n      swap2\n      div\n      mul\n      0x20\n      add\n      mload(0x40)\n      swap1\n      dup2\n      add\n      0x40\n      mstore\n      dup1\n      swap3\n      swap2\n      swap1\n      dup2\n      dup2\n      mstore\n      0x20\n      add\n      dup3\n      dup1\n      sload\n      tag_65\n      swap1\n      tag_64\n      jump\t// in\n    tag_65:\n      dup1\n      iszero\n      tag_66\n      jumpi\n      dup1\n      0x1f\n      lt\n      tag_67\n      jumpi\n      0x0100\n      dup1\n      dup4\n      sload\n      div\n      mul\n      dup4\n      mstore\n      swap2\n      0x20\n      add\n      swap2\n      jump(tag_66)\n    tag_67:\n      dup3\n      add\n      swap2\n      swap1\n      0x00\n      mstore\n      keccak256(0x00, 0x20)\n      swap1\n    tag_68:\n      dup2\n      sload\n      dup2\n      mstore\n      swap1\n      0x01\n      add\n      swap1\n      0x20\n      add\n      dup1\n      dup4\n      gt\n      tag_68\n      jumpi\n      dup3\n      swap1\n      sub\n      0x1f\n      and\n      dup3\n      add\n      swap2\n    tag_66:\n      pop\n      pop\n      pop\n      pop\n      pop\n      dup2\n      jump\t// out\n        /* \"contracts/Item.sol\":236:255  bool public forSale */\n    tag_21:\n      0x03\n      0x00\n      swap1\n      sload\n      swap1\n      0x0100\n      exp\n      swap1\n      div\n      0xff\n      and\n      dup2\n      jump\t// out\n        /* \"@openzeppelin/contracts/access/Ownable.sol\":2293:2394  function renounceOwnership() public virtual onlyOwner {... */\n    tag_26:\n        /* \"@openzeppelin/contracts/access/Ownable.sol\":1531:1544  _checkOwner() */\n      tag_70\n        /* \"@openzeppelin/contracts/access/Ownable.sol\":1531:1542  _checkOwner */\n      tag_71\n        /* \"@openzeppelin/contracts/access/Ownable.sol\":1531:1544  _checkOwner() */\n      jump\t// in\n    tag_70:\n        /* \"@openzeppelin/contracts/access/Ownable.sol\":2357:2387  _transferOwnership(address(0)) */\n      tag_73\n        /* \"@openzeppelin/contracts/access/Ownable.sol\":2384:2385  0 */\n      0x00\n        /* \"@openzeppelin/contracts/access/Ownable.sol\":2357:2375  _transferOwnership */\n      tag_74\n        /* \"@openzeppelin/contracts/access/Ownable.sol\":2357:2387  _transferOwnership(address(0)) */\n      jump\t// in\n    tag_73:\n        /* \"@openzeppelin/contracts/access/Ownable.sol\":2293:2394  function renounceOwnership() public virtual onlyOwner {... */\n      jump\t// out\n        /* \"contracts/Item.sol\":1340:1907  function buyItem() external payable {... */\n    tag_28:\n        /* \"contracts/Item.sol\":1395:1402  forSale */\n      0x03\n      0x00\n      swap1\n      sload\n      swap1\n      0x0100\n      exp\n      swap1\n      div\n      0xff\n      and\n        /* \"contracts/Item.sol\":1387:1427  require(forSale, \"Item is not for sale\") */\n      tag_76\n      jumpi\n      mload(0x40)\n      0x08c379a000000000000000000000000000000000000000000000000000000000\n      dup2\n      mstore\n      0x04\n      add\n      tag_77\n      swap1\n      tag_78\n      jump\t// in\n    tag_77:\n      mload(0x40)\n      dup1\n      swap2\n      sub\n      swap1\n      revert\n    tag_76:\n        /* \"contracts/Item.sol\":1459:1464  price */\n      sload(0x02)\n        /* \"contracts/Item.sol\":1446:1455  msg.value */\n      callvalue\n        /* \"contracts/Item.sol\":1446:1464  msg.value >= price */\n      lt\n      iszero\n        /* \"contracts/Item.sol\":1438:1487  require(msg.value >= price, \"Insufficient funds\") */\n      tag_79\n      jumpi\n      mload(0x40)\n      0x08c379a000000000000000000000000000000000000000000000000000000000\n      dup2\n      mstore\n      0x04\n      add\n      tag_80\n      swap1\n      tag_81\n      jump\t// in\n    tag_80:\n      mload(0x40)\n      dup1\n      swap2\n      sub\n      swap1\n      revert\n    tag_79:\n        /* \"contracts/Item.sol\":1500:1529  address payable previousOwner */\n      0x00\n        /* \"contracts/Item.sol\":1540:1547  owner() */\n      tag_82\n        /* \"contracts/Item.sol\":1540:1545  owner */\n      tag_41\n        /* \"contracts/Item.sol\":1540:1547  owner() */\n      jump\t// in\n    tag_82:\n        /* \"contracts/Item.sol\":1500:1548  address payable previousOwner = payable(owner()) */\n      swap1\n      pop\n        /* \"contracts/Item.sol\":1661:1666  false */\n      0x00\n        /* \"contracts/Item.sol\":1651:1658  forSale */\n      0x03\n      0x00\n        /* \"contracts/Item.sol\":1651:1666  forSale = false */\n      0x0100\n      exp\n      dup2\n      sload\n      dup2\n      0xff\n      mul\n      not\n      and\n      swap1\n      dup4\n      iszero\n      iszero\n      mul\n      or\n      swap1\n      sstore\n      pop\n        /* \"contracts/Item.sol\":1677:1690  previousOwner */\n      dup1\n        /* \"contracts/Item.sol\":1677:1699  previousOwner.transfer */\n      0xffffffffffffffffffffffffffffffffffffffff\n      and\n        /* \"contracts/Item.sol\":1677:1706  previousOwner.transfer(price) */\n      0x08fc\n        /* \"contracts/Item.sol\":1700:1705  price */\n      sload(0x02)\n        /* \"contracts/Item.sol\":1677:1706  previousOwner.transfer(price) */\n      swap1\n      dup2\n      iszero\n      mul\n      swap1\n      mload(0x40)\n      0x00\n      mload(0x40)\n      dup1\n      dup4\n      sub\n      dup2\n      dup6\n      dup9\n      dup9\n      call\n      swap4\n      pop\n      pop\n      pop\n      pop\n      iszero\n      dup1\n      iszero\n      tag_84\n      jumpi\n      returndatasize\n      0x00\n      dup1\n      returndatacopy\n      revert(0x00, returndatasize)\n    tag_84:\n      pop\n        /* \"contracts/Item.sol\":1881:1891  msg.sender */\n      caller\n        /* \"contracts/Item.sol\":1856:1899  ItemTransferred(owner(), msg.sender, price) */\n      0xffffffffffffffffffffffffffffffffffffffff\n      and\n        /* \"contracts/Item.sol\":1872:1879  owner() */\n      tag_85\n        /* \"contracts/Item.sol\":1872:1877  owner */\n      tag_41\n        /* \"contracts/Item.sol\":1872:1879  owner() */\n      jump\t// in\n    tag_85:\n        /* \"contracts/Item.sol\":1856:1899  ItemTransferred(owner(), msg.sender, price) */\n      0xffffffffffffffffffffffffffffffffffffffff\n      and\n      0x59fd71f186972d8c7ae2506b28030f0dcf9fb2357a61d2004fa5fd53333b27df\n        /* \"contracts/Item.sol\":1893:1898  price */\n      sload(0x02)\n        /* \"contracts/Item.sol\":1856:1899  ItemTransferred(owner(), msg.sender, price) */\n      mload(0x40)\n      tag_86\n      swap2\n      swap1\n      tag_48\n      jump\t// in\n    tag_86:\n      mload(0x40)\n      dup1\n      swap2\n      sub\n      swap1\n      log3\n        /* \"contracts/Item.sol\":1376:1907  {... */\n      pop\n        /* \"contracts/Item.sol\":1340:1907  function buyItem() external payable {... */\n      jump\t// out\n        /* \"contracts/Item.sol\":1915:2107  function getItemDetails() external view returns (... */\n    tag_31:\n        /* \"contracts/Item.sol\":1974:1987  string memory */\n      0x60\n        /* \"contracts/Item.sol\":1998:2005  address */\n      0x00\n        /* \"contracts/Item.sol\":2016:2023  uint256 */\n      dup1\n        /* \"contracts/Item.sol\":2034:2038  bool */\n      0x00\n        /* \"contracts/Item.sol\":2065:2073  itemName */\n      0x01\n        /* \"contracts/Item.sol\":2075:2082  owner() */\n      tag_88\n        /* \"contracts/Item.sol\":2075:2080  owner */\n      tag_41\n        /* \"contracts/Item.sol\":2075:2082  owner() */\n      jump\t// in\n    tag_88:\n        /* \"contracts/Item.sol\":2084:2089  price */\n      sload(0x02)\n        /* \"contracts/Item.sol\":2091:2098  forSale */\n      0x03\n      0x00\n      swap1\n      sload\n      swap1\n      0x0100\n      exp\n      swap1\n      div\n      0xff\n      and\n        /* \"contracts/Item.sol\":2057:2099  return (itemName, owner(), price, forSale) */\n      dup4\n      dup1\n      sload\n      tag_89\n      swap1\n      tag_64\n      jump\t// in\n    tag_89:\n      dup1\n      0x1f\n      add\n      0x20\n      dup1\n      swap2\n      div\n      mul\n      0x20\n      add\n      mload(0x40)\n      swap1\n      dup2\n      add\n      0x40\n      mstore\n      dup1\n      swap3\n      swap2\n      swap1\n      dup2\n      dup2\n      mstore\n      0x20\n      add\n      dup3\n      dup1\n      sload\n      tag_90\n      swap1\n      tag_64\n      jump\t// in\n    tag_90:\n      dup1\n      iszero\n      tag_91\n      jumpi\n      dup1\n      0x1f\n      lt\n      tag_92\n      jumpi\n      0x0100\n      dup1\n      dup4\n      sload\n      div\n      mul\n      dup4\n      mstore\n      swap2\n      0x20\n      add\n      swap2\n      jump(tag_91)\n    tag_92:\n      dup3\n      add\n      swap2\n      swap1\n      0x00\n      mstore\n      keccak256(0x00, 0x20)\n      swap1\n    tag_93:\n      dup2\n      sload\n      dup2\n      mstore\n      swap1\n      0x01\n      add\n      swap1\n      0x20\n      add\n      dup1\n      dup4\n      gt\n      tag_93\n      jumpi\n      dup3\n      swap1\n      sub\n      0x1f\n      and\n      dup3\n      add\n      swap2\n    tag_91:\n      pop\n      pop\n      pop\n      pop\n      pop\n      swap4\n      pop\n      swap4\n      pop\n      swap4\n      pop\n      swap4\n      pop\n      swap4\n      pop\n        /* \"contracts/Item.sol\":1915:2107  function getItemDetails() external view returns (... */\n      swap1\n      swap2\n      swap3\n      swap4\n      jump\t// out\n        /* \"contracts/Item.sol\":682:1032  function transferOwnershipNewAddress(address newOwner) external onlyOwner {... */\n    tag_38:\n        /* \"@openzeppelin/contracts/access/Ownable.sol\":1531:1544  _checkOwner() */\n      tag_95\n        /* \"@openzeppelin/contracts/access/Ownable.sol\":1531:1542  _checkOwner */\n      tag_71\n        /* \"@openzeppelin/contracts/access/Ownable.sol\":1531:1544  _checkOwner() */\n      jump\t// in\n    tag_95:\n        /* \"contracts/Item.sol\":830:835  false */\n      0x00\n        /* \"contracts/Item.sol\":820:827  forSale */\n      0x03\n      0x00\n        /* \"contracts/Item.sol\":820:835  forSale = false */\n      0x0100\n      exp\n      dup2\n      sload\n      dup2\n      0xff\n      mul\n      not\n      and\n      swap1\n      dup4\n      iszero\n      iszero\n      mul\n      or\n      swap1\n      sstore\n      pop\n        /* \"contracts/Item.sol\":846:873  transferOwnership(newOwner) */\n      tag_97\n        /* \"contracts/Item.sol\":864:872  newOwner */\n      dup2\n        /* \"contracts/Item.sol\":846:863  transferOwnership */\n      tag_62\n        /* \"contracts/Item.sol\":846:873  transferOwnership(newOwner) */\n      jump\t// in\n    tag_97:\n        /* \"contracts/Item.sol\":682:1032  function transferOwnershipNewAddress(address newOwner) external onlyOwner {... */\n      pop\n      jump\t// out\n        /* \"@openzeppelin/contracts/access/Ownable.sol\":1638:1723  function owner() public view virtual returns (address) {... */\n    tag_41:\n        /* \"@openzeppelin/contracts/access/Ownable.sol\":1684:1691  address */\n      0x00\n        /* \"@openzeppelin/contracts/access/Ownable.sol\":1710:1716  _owner */\n      dup1\n      0x00\n      swap1\n      sload\n      swap1\n      0x0100\n      exp\n      swap1\n      div\n      0xffffffffffffffffffffffffffffffffffffffff\n      and\n        /* \"@openzeppelin/contracts/access/Ownable.sol\":1703:1716  return _owner */\n      swap1\n      pop\n        /* \"@openzeppelin/contracts/access/Ownable.sol\":1638:1723  function owner() public view virtual returns (address) {... */\n      swap1\n      jump\t// out\n        /* \"contracts/Item.sol\":209:229  uint256 public price */\n    tag_46:\n      sload(0x02)\n      dup2\n      jump\t// out\n        /* \"contracts/Item.sol\":1046:1184  function changePrice(uint256 _newPrice) external onlyOwner {... */\n    tag_53:\n        /* \"@openzeppelin/contracts/access/Ownable.sol\":1531:1544  _checkOwner() */\n      tag_100\n        /* \"@openzeppelin/contracts/access/Ownable.sol\":1531:1542  _checkOwner */\n      tag_71\n        /* \"@openzeppelin/contracts/access/Ownable.sol\":1531:1544  _checkOwner() */\n      jump\t// in\n    tag_100:\n        /* \"contracts/Item.sol\":1124:1133  _newPrice */\n      dup1\n        /* \"contracts/Item.sol\":1116:1121  price */\n      0x02\n        /* \"contracts/Item.sol\":1116:1133  price = _newPrice */\n      dup2\n      swap1\n      sstore\n      pop\n        /* \"contracts/Item.sol\":1149:1176  ItemPriceUpdated(_newPrice) */\n      0x2a1e389e63b71f6266c42f7d1cb8cb6055b3041628ad15e02016e2542c072eb6\n        /* \"contracts/Item.sol\":1166:1175  _newPrice */\n      dup2\n        /* \"contracts/Item.sol\":1149:1176  ItemPriceUpdated(_newPrice) */\n      mload(0x40)\n      tag_102\n      swap2\n      swap1\n      tag_48\n      jump\t// in\n    tag_102:\n      mload(0x40)\n      dup1\n      swap2\n      sub\n      swap1\n      log1\n        /* \"contracts/Item.sol\":1046:1184  function changePrice(uint256 _newPrice) external onlyOwner {... */\n      pop\n      jump\t// out\n        /* \"contracts/Item.sol\":1192:1332  function changeSaleStatus(bool _forSale) external onlyOwner {... */\n    tag_58:\n        /* \"@openzeppelin/contracts/access/Ownable.sol\":1531:1544  _checkOwner() */\n      tag_104\n        /* \"@openzeppelin/contracts/access/Ownable.sol\":1531:1542  _checkOwner */\n      tag_71\n        /* \"@openzeppelin/contracts/access/Ownable.sol\":1531:1544  _checkOwner() */\n      jump\t// in\n    tag_104:\n        /* \"contracts/Item.sol\":1273:1281  _forSale */\n      dup1\n        /* \"contracts/Item.sol\":1263:1270  forSale */\n      0x03\n      0x00\n        /* \"contracts/Item.sol\":1263:1281  forSale = _forSale */\n      0x0100\n      exp\n      dup2\n      sload\n      dup2\n      0xff\n      mul\n      not\n      and\n      swap1\n      dup4\n      iszero\n      iszero\n      mul\n      or\n      swap1\n      sstore\n      pop\n        /* \"contracts/Item.sol\":1297:1324  ItemStatusChanged(_forSale) */\n      0x08713aa0295a698db01fa2ce0a14257bd2223f4f63ac2bf1fc571b9ac9f59fba\n        /* \"contracts/Item.sol\":1315:1323  _forSale */\n      dup2\n        /* \"contracts/Item.sol\":1297:1324  ItemStatusChanged(_forSale) */\n      mload(0x40)\n      tag_106\n      swap2\n      swap1\n      tag_23\n      jump\t// in\n    tag_106:\n      mload(0x40)\n      dup1\n      swap2\n      sub\n      swap1\n      log1\n        /* \"contracts/Item.sol\":1192:1332  function changeSaleStatus(bool _forSale) external onlyOwner {... */\n      pop\n      jump\t// out\n        /* \"@openzeppelin/contracts/access/Ownable.sol\":2543:2758  function transferOwnership(address newOwner) public virtual onlyOwner {... */\n    tag_62:\n        /* \"@openzeppelin/contracts/access/Ownable.sol\":1531:1544  _checkOwner() */\n      tag_108\n        /* \"@openzeppelin/contracts/access/Ownable.sol\":1531:1542  _checkOwner */\n      tag_71\n        /* \"@openzeppelin/contracts/access/Ownable.sol\":1531:1544  _checkOwner() */\n      jump\t// in\n    tag_108:\n        /* \"@openzeppelin/contracts/access/Ownable.sol\":2647:2648  0 */\n      0x00\n        /* \"@openzeppelin/contracts/access/Ownable.sol\":2627:2649  newOwner == address(0) */\n      0xffffffffffffffffffffffffffffffffffffffff\n      and\n        /* \"@openzeppelin/contracts/access/Ownable.sol\":2627:2635  newOwner */\n      dup2\n        /* \"@openzeppelin/contracts/access/Ownable.sol\":2627:2649  newOwner == address(0) */\n      0xffffffffffffffffffffffffffffffffffffffff\n      and\n      sub\n        /* \"@openzeppelin/contracts/access/Ownable.sol\":2623:2714  if (newOwner == address(0)) {... */\n      tag_110\n      jumpi\n        /* \"@openzeppelin/contracts/access/Ownable.sol\":2700:2701  0 */\n      0x00\n        /* \"@openzeppelin/contracts/access/Ownable.sol\":2672:2703  OwnableInvalidOwner(address(0)) */\n      mload(0x40)\n      0x1e4fbdf700000000000000000000000000000000000000000000000000000000\n      dup2\n      mstore\n      0x04\n      add\n      tag_111\n      swap2\n      swap1\n      tag_43\n      jump\t// in\n    tag_111:\n      mload(0x40)\n      dup1\n      swap2\n      sub\n      swap1\n      revert\n        /* \"@openzeppelin/contracts/access/Ownable.sol\":2623:2714  if (newOwner == address(0)) {... */\n    tag_110:\n        /* \"@openzeppelin/contracts/access/Ownable.sol\":2723:2751  _transferOwnership(newOwner) */\n      tag_112\n        /* \"@openzeppelin/contracts/access/Ownable.sol\":2742:2750  newOwner */\n      dup2\n        /* \"@openzeppelin/contracts/access/Ownable.sol\":2723:2741  _transferOwnership */\n      tag_74\n        /* \"@openzeppelin/contracts/access/Ownable.sol\":2723:2751  _transferOwnership(newOwner) */\n      jump\t// in\n    tag_112:\n        /* \"@openzeppelin/contracts/access/Ownable.sol\":2543:2758  function transferOwnership(address newOwner) public virtual onlyOwner {... */\n      pop\n      jump\t// out\n        /* \"@openzeppelin/contracts/access/Ownable.sol\":1796:1958  function _checkOwner() internal view virtual {... */\n    tag_71:\n        /* \"@openzeppelin/contracts/access/Ownable.sol\":1866:1878  _msgSender() */\n      tag_114\n        /* \"@openzeppelin/contracts/access/Ownable.sol\":1866:1876  _msgSender */\n      tag_115\n        /* \"@openzeppelin/contracts/access/Ownable.sol\":1866:1878  _msgSender() */\n      jump\t// in\n    tag_114:\n        /* \"@openzeppelin/contracts/access/Ownable.sol\":1855:1878  owner() != _msgSender() */\n      0xffffffffffffffffffffffffffffffffffffffff\n      and\n        /* \"@openzeppelin/contracts/access/Ownable.sol\":1855:1862  owner() */\n      tag_116\n        /* \"@openzeppelin/contracts/access/Ownable.sol\":1855:1860  owner */\n      tag_41\n        /* \"@openzeppelin/contracts/access/Ownable.sol\":1855:1862  owner() */\n      jump\t// in\n    tag_116:\n        /* \"@openzeppelin/contracts/access/Ownable.sol\":1855:1878  owner() != _msgSender() */\n      0xffffffffffffffffffffffffffffffffffffffff\n      and\n      eq\n        /* \"@openzeppelin/contracts/access/Ownable.sol\":1851:1952  if (owner() != _msgSender()) {... */\n      tag_117\n      jumpi\n        /* \"@openzeppelin/contracts/access/Ownable.sol\":1928:1940  _msgSender() */\n      tag_118\n        /* \"@openzeppelin/contracts/access/Ownable.sol\":1928:1938  _msgSender */\n      tag_115\n        /* \"@openzeppelin/contracts/access/Ownable.sol\":1928:1940  _msgSender() */\n      jump\t// in\n    tag_118:\n        /* \"@openzeppelin/contracts/access/Ownable.sol\":1901:1941  OwnableUnauthorizedAccount(_msgSender()) */\n      mload(0x40)\n      0x118cdaa700000000000000000000000000000000000000000000000000000000\n      dup2\n      mstore\n      0x04\n      add\n      tag_119\n      swap2\n      swap1\n      tag_43\n      jump\t// in\n    tag_119:\n      mload(0x40)\n      dup1\n      swap2\n      sub\n      swap1\n      revert\n        /* \"@openzeppelin/contracts/access/Ownable.sol\":1851:1952  if (owner() != _msgSender()) {... */\n    tag_117:\n        /* \"@openzeppelin/contracts/access/Ownable.sol\":1796:1958  function _checkOwner() internal view virtual {... */\n      jump\t// out\n        /* \"@openzeppelin/contracts/access/Ownable.sol\":2912:3099  function _transferOwnership(address newOwner) internal virtual {... */\n    tag_74:\n        /* \"@openzeppelin/contracts/access/Ownable.sol\":2985:3001  address oldOwner */\n      0x00\n        /* \"@openzeppelin/contracts/access/Ownable.sol\":3004:3010  _owner */\n      dup1\n      0x00\n      swap1\n      sload\n      swap1\n      0x0100\n      exp\n      swap1\n      div\n      0xffffffffffffffffffffffffffffffffffffffff\n      and\n        /* \"@openzeppelin/contracts/access/Ownable.sol\":2985:3010  address oldOwner = _owner */\n      swap1\n      pop\n        /* \"@openzeppelin/contracts/access/Ownable.sol\":3029:3037  newOwner */\n      dup2\n        /* \"@openzeppelin/contracts/access/Ownable.sol\":3020:3026  _owner */\n      0x00\n      dup1\n        /* \"@openzeppelin/contracts/access/Ownable.sol\":3020:3037  _owner = newOwner */\n      0x0100\n      exp\n      dup2\n      sload\n      dup2\n      0xffffffffffffffffffffffffffffffffffffffff\n      mul\n      not\n      and\n      swap1\n      dup4\n      0xffffffffffffffffffffffffffffffffffffffff\n      and\n      mul\n      or\n      swap1\n      sstore\n      pop\n        /* \"@openzeppelin/contracts/access/Ownable.sol\":3083:3091  newOwner */\n      dup2\n        /* \"@openzeppelin/contracts/access/Ownable.sol\":3052:3092  OwnershipTransferred(oldOwner, newOwner) */\n      0xffffffffffffffffffffffffffffffffffffffff\n      and\n        /* \"@openzeppelin/contracts/access/Ownable.sol\":3073:3081  oldOwner */\n      dup2\n        /* \"@openzeppelin/contracts/access/Ownable.sol\":3052:3092  OwnershipTransferred(oldOwner, newOwner) */\n      0xffffffffffffffffffffffffffffffffffffffff\n      and\n      0x8be0079c531659141344cd1fd0a4f28419497f9722a3daafe3b4186f6b6457e0\n      mload(0x40)\n      mload(0x40)\n      dup1\n      swap2\n      sub\n      swap1\n      log3\n        /* \"@openzeppelin/contracts/access/Ownable.sol\":2975:3099  {... */\n      pop\n        /* \"@openzeppelin/contracts/access/Ownable.sol\":2912:3099  function _transferOwnership(address newOwner) internal virtual {... */\n      pop\n      jump\t// out\n        /* \"@openzeppelin/contracts/utils/Context.sol\":656:752  function _msgSender() internal view virtual returns (address) {... */\n    tag_115:\n        /* \"@openzeppelin/contracts/utils/Context.sol\":709:716  address */\n      0x00\n        /* \"@openzeppelin/contracts/utils/Context.sol\":735:745  msg.sender */\n      caller\n        /* \"@openzeppelin/contracts/utils/Context.sol\":728:745  return msg.sender */\n      swap1\n      pop\n        /* \"@openzeppelin/contracts/utils/Context.sol\":656:752  function _msgSender() internal view virtual returns (address) {... */\n      swap1\n      jump\t// out\n        /* \"#utility.yul\":7:106   */\n    tag_122:\n        /* \"#utility.yul\":59:65   */\n      0x00\n        /* \"#utility.yul\":93:98   */\n      dup2\n        /* \"#utility.yul\":87:99   */\n      mload\n        /* \"#utility.yul\":77:99   */\n      swap1\n      pop\n        /* \"#utility.yul\":7:106   */\n      swap2\n      swap1\n      pop\n      jump\t// out\n        /* \"#utility.yul\":112:281   */\n    tag_123:\n        /* \"#utility.yul\":196:207   */\n      0x00\n        /* \"#utility.yul\":230:236   */\n      dup3\n        /* \"#utility.yul\":225:228   */\n      dup3\n        /* \"#utility.yul\":218:237   */\n      mstore\n        /* \"#utility.yul\":270:274   */\n      0x20\n        /* \"#utility.yul\":265:268   */\n      dup3\n        /* \"#utility.yul\":261:275   */\n      add\n        /* \"#utility.yul\":246:275   */\n      swap1\n      pop\n        /* \"#utility.yul\":112:281   */\n      swap3\n      swap2\n      pop\n      pop\n      jump\t// out\n        /* \"#utility.yul\":287:533   */\n    tag_124:\n        /* \"#utility.yul\":368:369   */\n      0x00\n        /* \"#utility.yul\":378:491   */\n    tag_152:\n        /* \"#utility.yul\":392:398   */\n      dup4\n        /* \"#utility.yul\":389:390   */\n      dup2\n        /* \"#utility.yul\":386:399   */\n      lt\n        /* \"#utility.yul\":378:491   */\n      iszero\n      tag_154\n      jumpi\n        /* \"#utility.yul\":477:478   */\n      dup1\n        /* \"#utility.yul\":472:475   */\n      dup3\n        /* \"#utility.yul\":468:479   */\n      add\n        /* \"#utility.yul\":462:480   */\n      mload\n        /* \"#utility.yul\":458:459   */\n      dup2\n        /* \"#utility.yul\":453:456   */\n      dup5\n        /* \"#utility.yul\":449:460   */\n      add\n        /* \"#utility.yul\":442:481   */\n      mstore\n        /* \"#utility.yul\":414:416   */\n      0x20\n        /* \"#utility.yul\":411:412   */\n      dup2\n        /* \"#utility.yul\":407:417   */\n      add\n        /* \"#utility.yul\":402:417   */\n      swap1\n      pop\n        /* \"#utility.yul\":378:491   */\n      jump(tag_152)\n    tag_154:\n        /* \"#utility.yul\":525:526   */\n      0x00\n        /* \"#utility.yul\":516:522   */\n      dup5\n        /* \"#utility.yul\":511:514   */\n      dup5\n        /* \"#utility.yul\":507:523   */\n      add\n        /* \"#utility.yul\":500:527   */\n      mstore\n        /* \"#utility.yul\":349:533   */\n      pop\n        /* \"#utility.yul\":287:533   */\n      pop\n      pop\n      pop\n      jump\t// out\n        /* \"#utility.yul\":539:641   */\n    tag_125:\n        /* \"#utility.yul\":580:586   */\n      0x00\n        /* \"#utility.yul\":631:633   */\n      0x1f\n        /* \"#utility.yul\":627:634   */\n      not\n        /* \"#utility.yul\":622:624   */\n      0x1f\n        /* \"#utility.yul\":615:620   */\n      dup4\n        /* \"#utility.yul\":611:625   */\n      add\n        /* \"#utility.yul\":607:635   */\n      and\n        /* \"#utility.yul\":597:635   */\n      swap1\n      pop\n        /* \"#utility.yul\":539:641   */\n      swap2\n      swap1\n      pop\n      jump\t// out\n        /* \"#utility.yul\":647:1024   */\n    tag_126:\n        /* \"#utility.yul\":735:738   */\n      0x00\n        /* \"#utility.yul\":763:802   */\n      tag_157\n        /* \"#utility.yul\":796:801   */\n      dup3\n        /* \"#utility.yul\":763:802   */\n      tag_122\n      jump\t// in\n    tag_157:\n        /* \"#utility.yul\":818:889   */\n      tag_158\n        /* \"#utility.yul\":882:888   */\n      dup2\n        /* \"#utility.yul\":877:880   */\n      dup6\n        /* \"#utility.yul\":818:889   */\n      tag_123\n      jump\t// in\n    tag_158:\n        /* \"#utility.yul\":811:889   */\n      swap4\n      pop\n        /* \"#utility.yul\":898:963   */\n      tag_159\n        /* \"#utility.yul\":956:962   */\n      dup2\n        /* \"#utility.yul\":951:954   */\n      dup6\n        /* \"#utility.yul\":944:948   */\n      0x20\n        /* \"#utility.yul\":937:942   */\n      dup7\n        /* \"#utility.yul\":933:949   */\n      add\n        /* \"#utility.yul\":898:963   */\n      tag_124\n      jump\t// in\n    tag_159:\n        /* \"#utility.yul\":988:1017   */\n      tag_160\n        /* \"#utility.yul\":1010:1016   */\n      dup2\n        /* \"#utility.yul\":988:1017   */\n      tag_125\n      jump\t// in\n    tag_160:\n        /* \"#utility.yul\":983:986   */\n      dup5\n        /* \"#utility.yul\":979:1018   */\n      add\n        /* \"#utility.yul\":972:1018   */\n      swap2\n      pop\n        /* \"#utility.yul\":739:1024   */\n      pop\n        /* \"#utility.yul\":647:1024   */\n      swap3\n      swap2\n      pop\n      pop\n      jump\t// out\n        /* \"#utility.yul\":1030:1343   */\n    tag_18:\n        /* \"#utility.yul\":1143:1147   */\n      0x00\n        /* \"#utility.yul\":1181:1183   */\n      0x20\n        /* \"#utility.yul\":1170:1179   */\n      dup3\n        /* \"#utility.yul\":1166:1184   */\n      add\n        /* \"#utility.yul\":1158:1184   */\n      swap1\n      pop\n        /* \"#utility.yul\":1230:1239   */\n      dup2\n        /* \"#utility.yul\":1224:1228   */\n      dup2\n        /* \"#utility.yul\":1220:1240   */\n      sub\n        /* \"#utility.yul\":1216:1217   */\n      0x00\n        /* \"#utility.yul\":1205:1214   */\n      dup4\n        /* \"#utility.yul\":1201:1218   */\n      add\n        /* \"#utility.yul\":1194:1241   */\n      mstore\n        /* \"#utility.yul\":1258:1336   */\n      tag_162\n        /* \"#utility.yul\":1331:1335   */\n      dup2\n        /* \"#utility.yul\":1322:1328   */\n      dup5\n        /* \"#utility.yul\":1258:1336   */\n      tag_126\n      jump\t// in\n    tag_162:\n        /* \"#utility.yul\":1250:1336   */\n      swap1\n      pop\n        /* \"#utility.yul\":1030:1343   */\n      swap3\n      swap2\n      pop\n      pop\n      jump\t// out\n        /* \"#utility.yul\":1349:1439   */\n    tag_127:\n        /* \"#utility.yul\":1383:1390   */\n      0x00\n        /* \"#utility.yul\":1426:1431   */\n      dup2\n        /* \"#utility.yul\":1419:1432   */\n      iszero\n        /* \"#utility.yul\":1412:1433   */\n      iszero\n        /* \"#utility.yul\":1401:1433   */\n      swap1\n      pop\n        /* \"#utility.yul\":1349:1439   */\n      swap2\n      swap1\n      pop\n      jump\t// out\n        /* \"#utility.yul\":1445:1554   */\n    tag_128:\n        /* \"#utility.yul\":1526:1547   */\n      tag_165\n        /* \"#utility.yul\":1541:1546   */\n      dup2\n        /* \"#utility.yul\":1526:1547   */\n      tag_127\n      jump\t// in\n    tag_165:\n        /* \"#utility.yul\":1521:1524   */\n      dup3\n        /* \"#utility.yul\":1514:1548   */\n      mstore\n        /* \"#utility.yul\":1445:1554   */\n      pop\n      pop\n      jump\t// out\n        /* \"#utility.yul\":1560:1770   */\n    tag_23:\n        /* \"#utility.yul\":1647:1651   */\n      0x00\n        /* \"#utility.yul\":1685:1687   */\n      0x20\n        /* \"#utility.yul\":1674:1683   */\n      dup3\n        /* \"#utility.yul\":1670:1688   */\n      add\n        /* \"#utility.yul\":1662:1688   */\n      swap1\n      pop\n        /* \"#utility.yul\":1698:1763   */\n      tag_167\n        /* \"#utility.yul\":1760:1761   */\n      0x00\n        /* \"#utility.yul\":1749:1758   */\n      dup4\n        /* \"#utility.yul\":1745:1762   */\n      add\n        /* \"#utility.yul\":1736:1742   */\n      dup5\n        /* \"#utility.yul\":1698:1763   */\n      tag_128\n      jump\t// in\n    tag_167:\n        /* \"#utility.yul\":1560:1770   */\n      swap3\n      swap2\n      pop\n      pop\n      jump\t// out\n        /* \"#utility.yul\":1776:1902   */\n    tag_129:\n        /* \"#utility.yul\":1813:1820   */\n      0x00\n        /* \"#utility.yul\":1853:1895   */\n      0xffffffffffffffffffffffffffffffffffffffff\n        /* \"#utility.yul\":1846:1851   */\n      dup3\n        /* \"#utility.yul\":1842:1896   */\n      and\n        /* \"#utility.yul\":1831:1896   */\n      swap1\n      pop\n        /* \"#utility.yul\":1776:1902   */\n      swap2\n      swap1\n      pop\n      jump\t// out\n        /* \"#utility.yul\":1908:2004   */\n    tag_130:\n        /* \"#utility.yul\":1945:1952   */\n      0x00\n        /* \"#utility.yul\":1974:1998   */\n      tag_170\n        /* \"#utility.yul\":1992:1997   */\n      dup3\n        /* \"#utility.yul\":1974:1998   */\n      tag_129\n      jump\t// in\n    tag_170:\n        /* \"#utility.yul\":1963:1998   */\n      swap1\n      pop\n        /* \"#utility.yul\":1908:2004   */\n      swap2\n      swap1\n      pop\n      jump\t// out\n        /* \"#utility.yul\":2010:2128   */\n    tag_131:\n        /* \"#utility.yul\":2097:2121   */\n      tag_172\n        /* \"#utility.yul\":2115:2120   */\n      dup2\n        /* \"#utility.yul\":2097:2121   */\n      tag_130\n      jump\t// in\n    tag_172:\n        /* \"#utility.yul\":2092:2095   */\n      dup3\n        /* \"#utility.yul\":2085:2122   */\n      mstore\n        /* \"#utility.yul\":2010:2128   */\n      pop\n      pop\n      jump\t// out\n        /* \"#utility.yul\":2134:2211   */\n    tag_132:\n        /* \"#utility.yul\":2171:2178   */\n      0x00\n        /* \"#utility.yul\":2200:2205   */\n      dup2\n        /* \"#utility.yul\":2189:2205   */\n      swap1\n      pop\n        /* \"#utility.yul\":2134:2211   */\n      swap2\n      swap1\n      pop\n      jump\t// out\n        /* \"#utility.yul\":2217:2335   */\n    tag_133:\n        /* \"#utility.yul\":2304:2328   */\n      tag_175\n        /* \"#utility.yul\":2322:2327   */\n      dup2\n        /* \"#utility.yul\":2304:2328   */\n      tag_132\n      jump\t// in\n    tag_175:\n        /* \"#utility.yul\":2299:2302   */\n      dup3\n        /* \"#utility.yul\":2292:2329   */\n      mstore\n        /* \"#utility.yul\":2217:2335   */\n      pop\n      pop\n      jump\t// out\n        /* \"#utility.yul\":2341:2973   */\n    tag_33:\n        /* \"#utility.yul\":2532:2536   */\n      0x00\n        /* \"#utility.yul\":2570:2573   */\n      0x80\n        /* \"#utility.yul\":2559:2568   */\n      dup3\n        /* \"#utility.yul\":2555:2574   */\n      add\n        /* \"#utility.yul\":2547:2574   */\n      swap1\n      pop\n        /* \"#utility.yul\":2620:2629   */\n      dup2\n        /* \"#utility.yul\":2614:2618   */\n      dup2\n        /* \"#utility.yul\":2610:2630   */\n      sub\n        /* \"#utility.yul\":2606:2607   */\n      0x00\n        /* \"#utility.yul\":2595:2604   */\n      dup4\n        /* \"#utility.yul\":2591:2608   */\n      add\n        /* \"#utility.yul\":2584:2631   */\n      mstore\n        /* \"#utility.yul\":2648:2726   */\n      tag_177\n        /* \"#utility.yul\":2721:2725   */\n      dup2\n        /* \"#utility.yul\":2712:2718   */\n      dup8\n        /* \"#utility.yul\":2648:2726   */\n      tag_126\n      jump\t// in\n    tag_177:\n        /* \"#utility.yul\":2640:2726   */\n      swap1\n      pop\n        /* \"#utility.yul\":2736:2808   */\n      tag_178\n        /* \"#utility.yul\":2804:2806   */\n      0x20\n        /* \"#utility.yul\":2793:2802   */\n      dup4\n        /* \"#utility.yul\":2789:2807   */\n      add\n        /* \"#utility.yul\":2780:2786   */\n      dup7\n        /* \"#utility.yul\":2736:2808   */\n      tag_131\n      jump\t// in\n    tag_178:\n        /* \"#utility.yul\":2818:2890   */\n      tag_179\n        /* \"#utility.yul\":2886:2888   */\n      0x40\n        /* \"#utility.yul\":2875:2884   */\n      dup4\n        /* \"#utility.yul\":2871:2889   */\n      add\n        /* \"#utility.yul\":2862:2868   */\n      dup6\n        /* \"#utility.yul\":2818:2890   */\n      tag_133\n      jump\t// in\n    tag_179:\n        /* \"#utility.yul\":2900:2966   */\n      tag_180\n        /* \"#utility.yul\":2962:2964   */\n      0x60\n        /* \"#utility.yul\":2951:2960   */\n      dup4\n        /* \"#utility.yul\":2947:2965   */\n      add\n        /* \"#utility.yul\":2938:2944   */\n      dup5\n        /* \"#utility.yul\":2900:2966   */\n      tag_128\n      jump\t// in\n    tag_180:\n        /* \"#utility.yul\":2341:2973   */\n      swap6\n      swap5\n      pop\n      pop\n      pop\n      pop\n      pop\n      jump\t// out\n        /* \"#utility.yul\":3060:3177   */\n    tag_135:\n        /* \"#utility.yul\":3169:3170   */\n      0x00\n        /* \"#utility.yul\":3166:3167   */\n      dup1\n        /* \"#utility.yul\":3159:3171   */\n      revert\n        /* \"#utility.yul\":3306:3428   */\n    tag_137:\n        /* \"#utility.yul\":3379:3403   */\n      tag_185\n        /* \"#utility.yul\":3397:3402   */\n      dup2\n        /* \"#utility.yul\":3379:3403   */\n      tag_130\n      jump\t// in\n    tag_185:\n        /* \"#utility.yul\":3372:3377   */\n      dup2\n        /* \"#utility.yul\":3369:3404   */\n      eq\n        /* \"#utility.yul\":3359:3422   */\n      tag_186\n      jumpi\n        /* \"#utility.yul\":3418:3419   */\n      0x00\n        /* \"#utility.yul\":3415:3416   */\n      dup1\n        /* \"#utility.yul\":3408:3420   */\n      revert\n        /* \"#utility.yul\":3359:3422   */\n    tag_186:\n        /* \"#utility.yul\":3306:3428   */\n      pop\n      jump\t// out\n        /* \"#utility.yul\":3434:3573   */\n    tag_138:\n        /* \"#utility.yul\":3480:3485   */\n      0x00\n        /* \"#utility.yul\":3518:3524   */\n      dup2\n        /* \"#utility.yul\":3505:3525   */\n      calldataload\n        /* \"#utility.yul\":3496:3525   */\n      swap1\n      pop\n        /* \"#utility.yul\":3534:3567   */\n      tag_188\n        /* \"#utility.yul\":3561:3566   */\n      dup2\n        /* \"#utility.yul\":3534:3567   */\n      tag_137\n      jump\t// in\n    tag_188:\n        /* \"#utility.yul\":3434:3573   */\n      swap3\n      swap2\n      pop\n      pop\n      jump\t// out\n        /* \"#utility.yul\":3579:3908   */\n    tag_37:\n        /* \"#utility.yul\":3638:3644   */\n      0x00\n        /* \"#utility.yul\":3687:3689   */\n      0x20\n        /* \"#utility.yul\":3675:3684   */\n      dup3\n        /* \"#utility.yul\":3666:3673   */\n      dup5\n        /* \"#utility.yul\":3662:3685   */\n      sub\n        /* \"#utility.yul\":3658:3690   */\n      slt\n        /* \"#utility.yul\":3655:3774   */\n      iszero\n      tag_190\n      jumpi\n        /* \"#utility.yul\":3693:3772   */\n      tag_191\n      tag_135\n      jump\t// in\n    tag_191:\n        /* \"#utility.yul\":3655:3774   */\n    tag_190:\n        /* \"#utility.yul\":3813:3814   */\n      0x00\n        /* \"#utility.yul\":3838:3891   */\n      tag_192\n        /* \"#utility.yul\":3883:3890   */\n      dup5\n        /* \"#utility.yul\":3874:3880   */\n      dup3\n        /* \"#utility.yul\":3863:3872   */\n      dup6\n        /* \"#utility.yul\":3859:3881   */\n      add\n        /* \"#utility.yul\":3838:3891   */\n      tag_138\n      jump\t// in\n    tag_192:\n        /* \"#utility.yul\":3828:3891   */\n      swap2\n      pop\n        /* \"#utility.yul\":3784:3901   */\n      pop\n        /* \"#utility.yul\":3579:3908   */\n      swap3\n      swap2\n      pop\n      pop\n      jump\t// out\n        /* \"#utility.yul\":3914:4136   */\n    tag_43:\n        /* \"#utility.yul\":4007:4011   */\n      0x00\n        /* \"#utility.yul\":4045:4047   */\n      0x20\n        /* \"#utility.yul\":4034:4043   */\n      dup3\n        /* \"#utility.yul\":4030:4048   */\n      add\n        /* \"#utility.yul\":4022:4048   */\n      swap1\n      pop\n        /* \"#utility.yul\":4058:4129   */\n      tag_194\n        /* \"#utility.yul\":4126:4127   */\n      0x00\n        /* \"#utility.yul\":4115:4124   */\n      dup4\n        /* \"#utility.yul\":4111:4128   */\n      add\n        /* \"#utility.yul\":4102:4108   */\n      dup5\n        /* \"#utility.yul\":4058:4129   */\n      tag_131\n      jump\t// in\n    tag_194:\n        /* \"#utility.yul\":3914:4136   */\n      swap3\n      swap2\n      pop\n      pop\n      jump\t// out\n        /* \"#utility.yul\":4142:4364   */\n    tag_48:\n        /* \"#utility.yul\":4235:4239   */\n      0x00\n        /* \"#utility.yul\":4273:4275   */\n      0x20\n        /* \"#utility.yul\":4262:4271   */\n      dup3\n        /* \"#utility.yul\":4258:4276   */\n      add\n        /* \"#utility.yul\":4250:4276   */\n      swap1\n      pop\n        /* \"#utility.yul\":4286:4357   */\n      tag_196\n        /* \"#utility.yul\":4354:4355   */\n      0x00\n        /* \"#utility.yul\":4343:4352   */\n      dup4\n        /* \"#utility.yul\":4339:4356   */\n      add\n        /* \"#utility.yul\":4330:4336   */\n      dup5\n        /* \"#utility.yul\":4286:4357   */\n      tag_133\n      jump\t// in\n    tag_196:\n        /* \"#utility.yul\":4142:4364   */\n      swap3\n      swap2\n      pop\n      pop\n      jump\t// out\n        /* \"#utility.yul\":4370:4492   */\n    tag_139:\n        /* \"#utility.yul\":4443:4467   */\n      tag_198\n        /* \"#utility.yul\":4461:4466   */\n      dup2\n        /* \"#utility.yul\":4443:4467   */\n      tag_132\n      jump\t// in\n    tag_198:\n        /* \"#utility.yul\":4436:4441   */\n      dup2\n        /* \"#utility.yul\":4433:4468   */\n      eq\n        /* \"#utility.yul\":4423:4486   */\n      tag_199\n      jumpi\n        /* \"#utility.yul\":4482:4483   */\n      0x00\n        /* \"#utility.yul\":4479:4480   */\n      dup1\n        /* \"#utility.yul\":4472:4484   */\n      revert\n        /* \"#utility.yul\":4423:4486   */\n    tag_199:\n        /* \"#utility.yul\":4370:4492   */\n      pop\n      jump\t// out\n        /* \"#utility.yul\":4498:4637   */\n    tag_140:\n        /* \"#utility.yul\":4544:4549   */\n      0x00\n        /* \"#utility.yul\":4582:4588   */\n      dup2\n        /* \"#utility.yul\":4569:4589   */\n      calldataload\n        /* \"#utility.yul\":4560:4589   */\n      swap1\n      pop\n        /* \"#utility.yul\":4598:4631   */\n      tag_201\n        /* \"#utility.yul\":4625:4630   */\n      dup2\n        /* \"#utility.yul\":4598:4631   */\n      tag_139\n      jump\t// in\n    tag_201:\n        /* \"#utility.yul\":4498:4637   */\n      swap3\n      swap2\n      pop\n      pop\n      jump\t// out\n        /* \"#utility.yul\":4643:4972   */\n    tag_52:\n        /* \"#utility.yul\":4702:4708   */\n      0x00\n        /* \"#utility.yul\":4751:4753   */\n      0x20\n        /* \"#utility.yul\":4739:4748   */\n      dup3\n        /* \"#utility.yul\":4730:4737   */\n      dup5\n        /* \"#utility.yul\":4726:4749   */\n      sub\n        /* \"#utility.yul\":4722:4754   */\n      slt\n        /* \"#utility.yul\":4719:4838   */\n      iszero\n      tag_203\n      jumpi\n        /* \"#utility.yul\":4757:4836   */\n      tag_204\n      tag_135\n      jump\t// in\n    tag_204:\n        /* \"#utility.yul\":4719:4838   */\n    tag_203:\n        /* \"#utility.yul\":4877:4878   */\n      0x00\n        /* \"#utility.yul\":4902:4955   */\n      tag_205\n        /* \"#utility.yul\":4947:4954   */\n      dup5\n        /* \"#utility.yul\":4938:4944   */\n      dup3\n        /* \"#utility.yul\":4927:4936   */\n      dup6\n        /* \"#utility.yul\":4923:4945   */\n      add\n        /* \"#utility.yul\":4902:4955   */\n      tag_140\n      jump\t// in\n    tag_205:\n        /* \"#utility.yul\":4892:4955   */\n      swap2\n      pop\n        /* \"#utility.yul\":4848:4965   */\n      pop\n        /* \"#utility.yul\":4643:4972   */\n      swap3\n      swap2\n      pop\n      pop\n      jump\t// out\n        /* \"#utility.yul\":4978:5094   */\n    tag_141:\n        /* \"#utility.yul\":5048:5069   */\n      tag_207\n        /* \"#utility.yul\":5063:5068   */\n      dup2\n        /* \"#utility.yul\":5048:5069   */\n      tag_127\n      jump\t// in\n    tag_207:\n        /* \"#utility.yul\":5041:5046   */\n      dup2\n        /* \"#utility.yul\":5038:5070   */\n      eq\n        /* \"#utility.yul\":5028:5088   */\n      tag_208\n      jumpi\n        /* \"#utility.yul\":5084:5085   */\n      0x00\n        /* \"#utility.yul\":5081:5082   */\n      dup1\n        /* \"#utility.yul\":5074:5086   */\n      revert\n        /* \"#utility.yul\":5028:5088   */\n    tag_208:\n        /* \"#utility.yul\":4978:5094   */\n      pop\n      jump\t// out\n        /* \"#utility.yul\":5100:5233   */\n    tag_142:\n        /* \"#utility.yul\":5143:5148   */\n      0x00\n        /* \"#utility.yul\":5181:5187   */\n      dup2\n        /* \"#utility.yul\":5168:5188   */\n      calldataload\n        /* \"#utility.yul\":5159:5188   */\n      swap1\n      pop\n        /* \"#utility.yul\":5197:5227   */\n      tag_210\n        /* \"#utility.yul\":5221:5226   */\n      dup2\n        /* \"#utility.yul\":5197:5227   */\n      tag_141\n      jump\t// in\n    tag_210:\n        /* \"#utility.yul\":5100:5233   */\n      swap3\n      swap2\n      pop\n      pop\n      jump\t// out\n        /* \"#utility.yul\":5239:5562   */\n    tag_57:\n        /* \"#utility.yul\":5295:5301   */\n      0x00\n        /* \"#utility.yul\":5344:5346   */\n      0x20\n        /* \"#utility.yul\":5332:5341   */\n      dup3\n        /* \"#utility.yul\":5323:5330   */\n      dup5\n        /* \"#utility.yul\":5319:5342   */\n      sub\n        /* \"#utility.yul\":5315:5347   */\n      slt\n        /* \"#utility.yul\":5312:5431   */\n      iszero\n      tag_212\n      jumpi\n        /* \"#utility.yul\":5350:5429   */\n      tag_213\n      tag_135\n      jump\t// in\n    tag_213:\n        /* \"#utility.yul\":5312:5431   */\n    tag_212:\n        /* \"#utility.yul\":5470:5471   */\n      0x00\n        /* \"#utility.yul\":5495:5545   */\n      tag_214\n        /* \"#utility.yul\":5537:5544   */\n      dup5\n        /* \"#utility.yul\":5528:5534   */\n      dup3\n        /* \"#utility.yul\":5517:5526   */\n      dup6\n        /* \"#utility.yul\":5513:5535   */\n      add\n        /* \"#utility.yul\":5495:5545   */\n      tag_142\n      jump\t// in\n    tag_214:\n        /* \"#utility.yul\":5485:5545   */\n      swap2\n      pop\n        /* \"#utility.yul\":5441:5555   */\n      pop\n        /* \"#utility.yul\":5239:5562   */\n      swap3\n      swap2\n      pop\n      pop\n      jump\t// out\n        /* \"#utility.yul\":5568:5748   */\n    tag_143:\n        /* \"#utility.yul\":5616:5693   */\n      0x4e487b7100000000000000000000000000000000000000000000000000000000\n        /* \"#utility.yul\":5613:5614   */\n      0x00\n        /* \"#utility.yul\":5606:5694   */\n      mstore\n        /* \"#utility.yul\":5713:5717   */\n      0x22\n        /* \"#utility.yul\":5710:5711   */\n      0x04\n        /* \"#utility.yul\":5703:5718   */\n      mstore\n        /* \"#utility.yul\":5737:5741   */\n      0x24\n        /* \"#utility.yul\":5734:5735   */\n      0x00\n        /* \"#utility.yul\":5727:5742   */\n      revert\n        /* \"#utility.yul\":5754:6074   */\n    tag_64:\n        /* \"#utility.yul\":5798:5804   */\n      0x00\n        /* \"#utility.yul\":5835:5836   */\n      0x02\n        /* \"#utility.yul\":5829:5833   */\n      dup3\n        /* \"#utility.yul\":5825:5837   */\n      div\n        /* \"#utility.yul\":5815:5837   */\n      swap1\n      pop\n        /* \"#utility.yul\":5882:5883   */\n      0x01\n        /* \"#utility.yul\":5876:5880   */\n      dup3\n        /* \"#utility.yul\":5872:5884   */\n      and\n        /* \"#utility.yul\":5903:5921   */\n      dup1\n        /* \"#utility.yul\":5893:5974   */\n      tag_217\n      jumpi\n        /* \"#utility.yul\":5959:5963   */\n      0x7f\n        /* \"#utility.yul\":5951:5957   */\n      dup3\n        /* \"#utility.yul\":5947:5964   */\n      and\n        /* \"#utility.yul\":5937:5964   */\n      swap2\n      pop\n        /* \"#utility.yul\":5893:5974   */\n    tag_217:\n        /* \"#utility.yul\":6021:6023   */\n      0x20\n        /* \"#utility.yul\":6013:6019   */\n      dup3\n        /* \"#utility.yul\":6010:6024   */\n      lt\n        /* \"#utility.yul\":5990:6008   */\n      dup2\n        /* \"#utility.yul\":5987:6025   */\n      sub\n        /* \"#utility.yul\":5984:6068   */\n      tag_218\n      jumpi\n        /* \"#utility.yul\":6040:6058   */\n      tag_219\n      tag_143\n      jump\t// in\n    tag_219:\n        /* \"#utility.yul\":5984:6068   */\n    tag_218:\n        /* \"#utility.yul\":5805:6074   */\n      pop\n        /* \"#utility.yul\":5754:6074   */\n      swap2\n      swap1\n      pop\n      jump\t// out\n        /* \"#utility.yul\":6080:6250   */\n    tag_144:\n        /* \"#utility.yul\":6220:6242   */\n      0x4974656d206973206e6f7420666f722073616c65000000000000000000000000\n        /* \"#utility.yul\":6216:6217   */\n      0x00\n        /* \"#utility.yul\":6208:6214   */\n      dup3\n        /* \"#utility.yul\":6204:6218   */\n      add\n        /* \"#utility.yul\":6197:6243   */\n      mstore\n        /* \"#utility.yul\":6080:6250   */\n      pop\n      jump\t// out\n        /* \"#utility.yul\":6256:6622   */\n    tag_145:\n        /* \"#utility.yul\":6398:6401   */\n      0x00\n        /* \"#utility.yul\":6419:6486   */\n      tag_222\n        /* \"#utility.yul\":6483:6485   */\n      0x14\n        /* \"#utility.yul\":6478:6481   */\n      dup4\n        /* \"#utility.yul\":6419:6486   */\n      tag_123\n      jump\t// in\n    tag_222:\n        /* \"#utility.yul\":6412:6486   */\n      swap2\n      pop\n        /* \"#utility.yul\":6495:6588   */\n      tag_223\n        /* \"#utility.yul\":6584:6587   */\n      dup3\n        /* \"#utility.yul\":6495:6588   */\n      tag_144\n      jump\t// in\n    tag_223:\n        /* \"#utility.yul\":6613:6615   */\n      0x20\n        /* \"#utility.yul\":6608:6611   */\n      dup3\n        /* \"#utility.yul\":6604:6616   */\n      add\n        /* \"#utility.yul\":6597:6616   */\n      swap1\n      pop\n        /* \"#utility.yul\":6256:6622   */\n      swap2\n      swap1\n      pop\n      jump\t// out\n        /* \"#utility.yul\":6628:7047   */\n    tag_78:\n        /* \"#utility.yul\":6794:6798   */\n      0x00\n        /* \"#utility.yul\":6832:6834   */\n      0x20\n        /* \"#utility.yul\":6821:6830   */\n      dup3\n        /* \"#utility.yul\":6817:6835   */\n      add\n        /* \"#utility.yul\":6809:6835   */\n      swap1\n      pop\n        /* \"#utility.yul\":6881:6890   */\n      dup2\n        /* \"#utility.yul\":6875:6879   */\n      dup2\n        /* \"#utility.yul\":6871:6891   */\n      sub\n        /* \"#utility.yul\":6867:6868   */\n      0x00\n        /* \"#utility.yul\":6856:6865   */\n      dup4\n        /* \"#utility.yul\":6852:6869   */\n      add\n        /* \"#utility.yul\":6845:6892   */\n      mstore\n        /* \"#utility.yul\":6909:7040   */\n      tag_225\n        /* \"#utility.yul\":7035:7039   */\n      dup2\n        /* \"#utility.yul\":6909:7040   */\n      tag_145\n      jump\t// in\n    tag_225:\n        /* \"#utility.yul\":6901:7040   */\n      swap1\n      pop\n        /* \"#utility.yul\":6628:7047   */\n      swap2\n      swap1\n      pop\n      jump\t// out\n        /* \"#utility.yul\":7053:7221   */\n    tag_146:\n        /* \"#utility.yul\":7193:7213   */\n      0x496e73756666696369656e742066756e64730000000000000000000000000000\n        /* \"#utility.yul\":7189:7190   */\n      0x00\n        /* \"#utility.yul\":7181:7187   */\n      dup3\n        /* \"#utility.yul\":7177:7191   */\n      add\n        /* \"#utility.yul\":7170:7214   */\n      mstore\n        /* \"#utility.yul\":7053:7221   */\n      pop\n      jump\t// out\n        /* \"#utility.yul\":7227:7593   */\n    tag_147:\n        /* \"#utility.yul\":7369:7372   */\n      0x00\n        /* \"#utility.yul\":7390:7457   */\n      tag_228\n        /* \"#utility.yul\":7454:7456   */\n      0x12\n        /* \"#utility.yul\":7449:7452   */\n      dup4\n        /* \"#utility.yul\":7390:7457   */\n      tag_123\n      jump\t// in\n    tag_228:\n        /* \"#utility.yul\":7383:7457   */\n      swap2\n      pop\n        /* \"#utility.yul\":7466:7559   */\n      tag_229\n        /* \"#utility.yul\":7555:7558   */\n      dup3\n        /* \"#utility.yul\":7466:7559   */\n      tag_146\n      jump\t// in\n    tag_229:\n        /* \"#utility.yul\":7584:7586   */\n      0x20\n        /* \"#utility.yul\":7579:7582   */\n      dup3\n        /* \"#utility.yul\":7575:7587   */\n      add\n        /* \"#utility.yul\":7568:7587   */\n      swap1\n      pop\n        /* \"#utility.yul\":7227:7593   */\n      swap2\n      swap1\n      pop\n      jump\t// out\n        /* \"#utility.yul\":7599:8018   */\n    tag_81:\n        /* \"#utility.yul\":7765:7769   */\n      0x00\n        /* \"#utility.yul\":7803:7805   */\n      0x20\n        /* \"#utility.yul\":7792:7801   */\n      dup3\n        /* \"#utility.yul\":7788:7806   */\n      add\n        /* \"#utility.yul\":7780:7806   */\n      swap1\n      pop\n        /* \"#utility.yul\":7852:7861   */\n      dup2\n        /* \"#utility.yul\":7846:7850   */\n      dup2\n        /* \"#utility.yul\":7842:7862   */\n      sub\n        /* \"#utility.yul\":7838:7839   */\n      0x00\n        /* \"#utility.yul\":7827:7836   */\n      dup4\n        /* \"#utility.yul\":7823:7840   */\n      add\n        /* \"#utility.yul\":7816:7863   */\n      mstore\n        /* \"#utility.yul\":7880:8011   */\n      tag_231\n        /* \"#utility.yul\":8006:8010   */\n      dup2\n        /* \"#utility.yul\":7880:8011   */\n      tag_147\n      jump\t// in\n    tag_231:\n        /* \"#utility.yul\":7872:8011   */\n      swap1\n      pop\n        /* \"#utility.yul\":7599:8018   */\n      swap2\n      swap1\n      pop\n      jump\t// out\n\n    auxdata: 0xa2646970667358221220ec204369a34d89a033296da6de77628264f5ffa4659a19599e24c0792901cc5064736f6c63430008160033\n}\n",
				"bytecode": {
					"linkReferences": {},
					"object": "608060405234801562000010575f80fd5b506040516200134938038062001349833981810160405281019062000036919062000374565b335f73ffffffffffffffffffffffffffffffffffffffff168173ffffffffffffffffffffffffffffffffffffffff1603620000aa575f6040517f1e4fbdf7000000000000000000000000000000000000000000000000000000008152600401620000a191906200041b565b60405180910390fd5b620000bb81620000f660201b60201c565b508160019081620000cd919062000664565b50806002819055505f60035f6101000a81548160ff021916908315150217905550505062000748565b5f805f9054906101000a900473ffffffffffffffffffffffffffffffffffffffff169050815f806101000a81548173ffffffffffffffffffffffffffffffffffffffff021916908373ffffffffffffffffffffffffffffffffffffffff1602179055508173ffffffffffffffffffffffffffffffffffffffff168173ffffffffffffffffffffffffffffffffffffffff167f8be0079c531659141344cd1fd0a4f28419497f9722a3daafe3b4186f6b6457e060405160405180910390a35050565b5f604051905090565b5f80fd5b5f80fd5b5f80fd5b5f80fd5b5f601f19601f8301169050919050565b7f4e487b71000000000000000000000000000000000000000000000000000000005f52604160045260245ffd5b6200021882620001d0565b810181811067ffffffffffffffff821117156200023a5762000239620001e0565b5b80604052505050565b5f6200024e620001b7565b90506200025c82826200020d565b919050565b5f67ffffffffffffffff8211156200027e576200027d620001e0565b5b6200028982620001d0565b9050602081019050919050565b5f5b83811015620002b557808201518184015260208101905062000298565b5f8484015250505050565b5f620002d6620002d08462000261565b62000243565b905082815260208101848484011115620002f557620002f4620001cc565b5b6200030284828562000296565b509392505050565b5f82601f830112620003215762000320620001c8565b5b815162000333848260208601620002c0565b91505092915050565b5f819050919050565b62000350816200033c565b81146200035b575f80fd5b50565b5f815190506200036e8162000345565b92915050565b5f80604083850312156200038d576200038c620001c0565b5b5f83015167ffffffffffffffff811115620003ad57620003ac620001c4565b5b620003bb858286016200030a565b9250506020620003ce858286016200035e565b9150509250929050565b5f73ffffffffffffffffffffffffffffffffffffffff82169050919050565b5f6200040382620003d8565b9050919050565b6200041581620003f7565b82525050565b5f602082019050620004305f8301846200040a565b92915050565b5f81519050919050565b7f4e487b71000000000000000000000000000000000000000000000000000000005f52602260045260245ffd5b5f60028204905060018216806200048557607f821691505b6020821081036200049b576200049a62000440565b5b50919050565b5f819050815f5260205f209050919050565b5f6020601f8301049050919050565b5f82821b905092915050565b5f60088302620004ff7fffffffffffffffffffffffffffffffffffffffffffffffffffffffffffffffff82620004c2565b6200050b8683620004c2565b95508019841693508086168417925050509392505050565b5f819050919050565b5f6200054c6200054662000540846200033c565b62000523565b6200033c565b9050919050565b5f819050919050565b62000567836200052c565b6200057f620005768262000553565b848454620004ce565b825550505050565b5f90565b6200059562000587565b620005a28184846200055c565b505050565b5b81811015620005c957620005bd5f826200058b565b600181019050620005a8565b5050565b601f8211156200061857620005e281620004a1565b620005ed84620004b3565b81016020851015620005fd578190505b620006156200060c85620004b3565b830182620005a7565b50505b505050565b5f82821c905092915050565b5f6200063a5f19846008026200061d565b1980831691505092915050565b5f62000654838362000629565b9150826002028217905092915050565b6200066f8262000436565b67ffffffffffffffff8111156200068b576200068a620001e0565b5b6200069782546200046d565b620006a4828285620005cd565b5f60209050601f831160018114620006da575f8415620006c5578287015190505b620006d1858262000647565b86555062000740565b601f198416620006ea86620004a1565b5f5b828110156200071357848901518255600182019150602085019450602081019050620006ec565b868310156200073357848901516200072f601f89168262000629565b8355505b6001600288020188555050505b505050505050565b610bf380620007565f395ff3fe60806040526004361061009b575f3560e01c80638aca1205116100635780638aca1205146101405780638da5cb5b14610168578063a035b1fe14610192578063a2b40d19146101bc578063a70c1dde146101e4578063f2fde38b1461020c5761009b565b806340401fea1461009f578063466ccac0146100c9578063715018a6146100f3578063795612d6146101095780637c81d12314610113575b5f80fd5b3480156100aa575f80fd5b506100b3610234565b6040516100c09190610867565b60405180910390f35b3480156100d4575f80fd5b506100dd6102c0565b6040516100ea91906108a1565b60405180910390f35b3480156100fe575f80fd5b506101076102d2565b005b6101116102e5565b005b34801561011e575f80fd5b50610127610453565b6040516101379493929190610911565b60405180910390f35b34801561014b575f80fd5b5061016660048036038101906101619190610989565b61050c565b005b348015610173575f80fd5b5061017c610539565b60405161018991906109b4565b60405180910390f35b34801561019d575f80fd5b506101a6610560565b6040516101b391906109cd565b60405180910390f35b3480156101c7575f80fd5b506101e260048036038101906101dd9190610a10565b610566565b005b3480156101ef575f80fd5b5061020a60048036038101906102059190610a65565b6105af565b005b348015610217575f80fd5b50610232600480360381019061022d9190610989565b61060a565b005b6001805461024190610abd565b80601f016020809104026020016040519081016040528092919081815260200182805461026d90610abd565b80156102b85780601f1061028f576101008083540402835291602001916102b8565b820191905f5260205f20905b81548152906001019060200180831161029b57829003601f168201915b505050505081565b60035f9054906101000a900460ff1681565b6102da61068e565b6102e35f610715565b565b60035f9054906101000a900460ff16610333576040517f08c379a000000000000000000000000000000000000000000000000000000000815260040161032a90610b37565b60405180910390fd5b600254341015610378576040517f08c379a000000000000000000000000000000000000000000000000000000000815260040161036f90610b9f565b60405180910390fd5b5f610381610539565b90505f60035f6101000a81548160ff0219169083151502179055508073ffffffffffffffffffffffffffffffffffffffff166108fc60025490811502906040515f60405180830381858888f193505050501580156103e1573d5f803e3d5ffd5b503373ffffffffffffffffffffffffffffffffffffffff16610401610539565b73ffffffffffffffffffffffffffffffffffffffff167f59fd71f186972d8c7ae2506b28030f0dcf9fb2357a61d2004fa5fd53333b27df60025460405161044891906109cd565b60405180910390a350565b60605f805f6001610462610539565b60025460035f9054906101000a900460ff1683805461048090610abd565b80601f01602080910402602001604051908101604052809291908181526020018280546104ac90610abd565b80156104f75780601f106104ce576101008083540402835291602001916104f7565b820191905f5260205f20905b8154815290600101906020018083116104da57829003601f168201915b50505050509350935093509350935090919293565b61051461068e565b5f60035f6101000a81548160ff0219169083151502179055506105368161060a565b50565b5f805f9054906101000a900473ffffffffffffffffffffffffffffffffffffffff16905090565b60025481565b61056e61068e565b806002819055507f2a1e389e63b71f6266c42f7d1cb8cb6055b3041628ad15e02016e2542c072eb6816040516105a491906109cd565b60405180910390a150565b6105b761068e565b8060035f6101000a81548160ff0219169083151502179055507f08713aa0295a698db01fa2ce0a14257bd2223f4f63ac2bf1fc571b9ac9f59fba816040516105ff91906108a1565b60405180910390a150565b61061261068e565b5f73ffffffffffffffffffffffffffffffffffffffff168173ffffffffffffffffffffffffffffffffffffffff1603610682575f6040517f1e4fbdf700000000000000000000000000000000000000000000000000000000815260040161067991906109b4565b60405180910390fd5b61068b81610715565b50565b6106966107d6565b73ffffffffffffffffffffffffffffffffffffffff166106b4610539565b73ffffffffffffffffffffffffffffffffffffffff1614610713576106d76107d6565b6040517f118cdaa700000000000000000000000000000000000000000000000000000000815260040161070a91906109b4565b60405180910390fd5b565b5f805f9054906101000a900473ffffffffffffffffffffffffffffffffffffffff169050815f806101000a81548173ffffffffffffffffffffffffffffffffffffffff021916908373ffffffffffffffffffffffffffffffffffffffff1602179055508173ffffffffffffffffffffffffffffffffffffffff168173ffffffffffffffffffffffffffffffffffffffff167f8be0079c531659141344cd1fd0a4f28419497f9722a3daafe3b4186f6b6457e060405160405180910390a35050565b5f33905090565b5f81519050919050565b5f82825260208201905092915050565b5f5b838110156108145780820151818401526020810190506107f9565b5f8484015250505050565b5f601f19601f8301169050919050565b5f610839826107dd565b61084381856107e7565b93506108538185602086016107f7565b61085c8161081f565b840191505092915050565b5f6020820190508181035f83015261087f818461082f565b905092915050565b5f8115159050919050565b61089b81610887565b82525050565b5f6020820190506108b45f830184610892565b92915050565b5f73ffffffffffffffffffffffffffffffffffffffff82169050919050565b5f6108e3826108ba565b9050919050565b6108f3816108d9565b82525050565b5f819050919050565b61090b816108f9565b82525050565b5f6080820190508181035f830152610929818761082f565b905061093860208301866108ea565b6109456040830185610902565b6109526060830184610892565b95945050505050565b5f80fd5b610968816108d9565b8114610972575f80fd5b50565b5f813590506109838161095f565b92915050565b5f6020828403121561099e5761099d61095b565b5b5f6109ab84828501610975565b91505092915050565b5f6020820190506109c75f8301846108ea565b92915050565b5f6020820190506109e05f830184610902565b92915050565b6109ef816108f9565b81146109f9575f80fd5b50565b5f81359050610a0a816109e6565b92915050565b5f60208284031215610a2557610a2461095b565b5b5f610a32848285016109fc565b91505092915050565b610a4481610887565b8114610a4e575f80fd5b50565b5f81359050610a5f81610a3b565b92915050565b5f60208284031215610a7a57610a7961095b565b5b5f610a8784828501610a51565b91505092915050565b7f4e487b71000000000000000000000000000000000000000000000000000000005f52602260045260245ffd5b5f6002820490506001821680610ad457607f821691505b602082108103610ae757610ae6610a90565b5b50919050565b7f4974656d206973206e6f7420666f722073616c650000000000000000000000005f82015250565b5f610b216014836107e7565b9150610b2c82610aed565b602082019050919050565b5f6020820190508181035f830152610b4e81610b15565b9050919050565b7f496e73756666696369656e742066756e647300000000000000000000000000005f82015250565b5f610b896012836107e7565b9150610b9482610b55565b602082019050919050565b5f6020820190508181035f830152610bb681610b7d565b905091905056fea2646970667358221220ec204369a34d89a033296da6de77628264f5ffa4659a19599e24c0792901cc5064736f6c63430008160033",
					"opcodes": "PUSH1 0x80 PUSH1 0x40 MSTORE CALLVALUE DUP1 ISZERO PUSH3 0x10 JUMPI PUSH0 DUP1 REVERT JUMPDEST POP PUSH1 0x40 MLOAD PUSH3 0x1349 CODESIZE SUB DUP1 PUSH3 0x1349 DUP4 CODECOPY DUP2 DUP2 ADD PUSH1 0x40 MSTORE DUP2 ADD SWAP1 PUSH3 0x36 SWAP2 SWAP1 PUSH3 0x374 JUMP JUMPDEST CALLER PUSH0 PUSH20 0xFFFFFFFFFFFFFFFFFFFFFFFFFFFFFFFFFFFFFFFF AND DUP2 PUSH20 0xFFFFFFFFFFFFFFFFFFFFFFFFFFFFFFFFFFFFFFFF AND SUB PUSH3 0xAA JUMPI PUSH0 PUSH1 0x40 MLOAD PUSH32 0x1E4FBDF700000000000000000000000000000000000000000000000000000000 DUP2 MSTORE PUSH1 0x4 ADD PUSH3 0xA1 SWAP2 SWAP1 PUSH3 0x41B JUMP JUMPDEST PUSH1 0x40 MLOAD DUP1 SWAP2 SUB SWAP1 REVERT JUMPDEST PUSH3 0xBB DUP2 PUSH3 0xF6 PUSH1 0x20 SHL PUSH1 0x20 SHR JUMP JUMPDEST POP DUP2 PUSH1 0x1 SWAP1 DUP2 PUSH3 0xCD SWAP2 SWAP1 PUSH3 0x664 JUMP JUMPDEST POP DUP1 PUSH1 0x2 DUP2 SWAP1 SSTORE POP PUSH0 PUSH1 0x3 PUSH0 PUSH2 0x100 EXP DUP2 SLOAD DUP2 PUSH1 0xFF MUL NOT AND SWAP1 DUP4 ISZERO ISZERO MUL OR SWAP1 SSTORE POP POP POP PUSH3 0x748 JUMP JUMPDEST PUSH0 DUP1 PUSH0 SWAP1 SLOAD SWAP1 PUSH2 0x100 EXP SWAP1 DIV PUSH20 0xFFFFFFFFFFFFFFFFFFFFFFFFFFFFFFFFFFFFFFFF AND SWAP1 POP DUP2 PUSH0 DUP1 PUSH2 0x100 EXP DUP2 SLOAD DUP2 PUSH20 0xFFFFFFFFFFFFFFFFFFFFFFFFFFFFFFFFFFFFFFFF MUL NOT AND SWAP1 DUP4 PUSH20 0xFFFFFFFFFFFFFFFFFFFFFFFFFFFFFFFFFFFFFFFF AND MUL OR SWAP1 SSTORE POP DUP2 PUSH20 0xFFFFFFFFFFFFFFFFFFFFFFFFFFFFFFFFFFFFFFFF AND DUP2 PUSH20 0xFFFFFFFFFFFFFFFFFFFFFFFFFFFFFFFFFFFFFFFF AND PUSH32 0x8BE0079C531659141344CD1FD0A4F28419497F9722A3DAAFE3B4186F6B6457E0 PUSH1 0x40 MLOAD PUSH1 0x40 MLOAD DUP1 SWAP2 SUB SWAP1 LOG3 POP POP JUMP JUMPDEST PUSH0 PUSH1 0x40 MLOAD SWAP1 POP SWAP1 JUMP JUMPDEST PUSH0 DUP1 REVERT JUMPDEST PUSH0 DUP1 REVERT JUMPDEST PUSH0 DUP1 REVERT JUMPDEST PUSH0 DUP1 REVERT JUMPDEST PUSH0 PUSH1 0x1F NOT PUSH1 0x1F DUP4 ADD AND SWAP1 POP SWAP2 SWAP1 POP JUMP JUMPDEST PUSH32 0x4E487B7100000000000000000000000000000000000000000000000000000000 PUSH0 MSTORE PUSH1 0x41 PUSH1 0x4 MSTORE PUSH1 0x24 PUSH0 REVERT JUMPDEST PUSH3 0x218 DUP3 PUSH3 0x1D0 JUMP JUMPDEST DUP2 ADD DUP2 DUP2 LT PUSH8 0xFFFFFFFFFFFFFFFF DUP3 GT OR ISZERO PUSH3 0x23A JUMPI PUSH3 0x239 PUSH3 0x1E0 JUMP JUMPDEST JUMPDEST DUP1 PUSH1 0x40 MSTORE POP POP POP JUMP JUMPDEST PUSH0 PUSH3 0x24E PUSH3 0x1B7 JUMP JUMPDEST SWAP1 POP PUSH3 0x25C DUP3 DUP3 PUSH3 0x20D JUMP JUMPDEST SWAP2 SWAP1 POP JUMP JUMPDEST PUSH0 PUSH8 0xFFFFFFFFFFFFFFFF DUP3 GT ISZERO PUSH3 0x27E JUMPI PUSH3 0x27D PUSH3 0x1E0 JUMP JUMPDEST JUMPDEST PUSH3 0x289 DUP3 PUSH3 0x1D0 JUMP JUMPDEST SWAP1 POP PUSH1 0x20 DUP2 ADD SWAP1 POP SWAP2 SWAP1 POP JUMP JUMPDEST PUSH0 JUMPDEST DUP4 DUP2 LT ISZERO PUSH3 0x2B5 JUMPI DUP1 DUP3 ADD MLOAD DUP2 DUP5 ADD MSTORE PUSH1 0x20 DUP2 ADD SWAP1 POP PUSH3 0x298 JUMP JUMPDEST PUSH0 DUP5 DUP5 ADD MSTORE POP POP POP POP JUMP JUMPDEST PUSH0 PUSH3 0x2D6 PUSH3 0x2D0 DUP5 PUSH3 0x261 JUMP JUMPDEST PUSH3 0x243 JUMP JUMPDEST SWAP1 POP DUP3 DUP2 MSTORE PUSH1 0x20 DUP2 ADD DUP5 DUP5 DUP5 ADD GT ISZERO PUSH3 0x2F5 JUMPI PUSH3 0x2F4 PUSH3 0x1CC JUMP JUMPDEST JUMPDEST PUSH3 0x302 DUP5 DUP3 DUP6 PUSH3 0x296 JUMP JUMPDEST POP SWAP4 SWAP3 POP POP POP JUMP JUMPDEST PUSH0 DUP3 PUSH1 0x1F DUP4 ADD SLT PUSH3 0x321 JUMPI PUSH3 0x320 PUSH3 0x1C8 JUMP JUMPDEST JUMPDEST DUP2 MLOAD PUSH3 0x333 DUP5 DUP3 PUSH1 0x20 DUP7 ADD PUSH3 0x2C0 JUMP JUMPDEST SWAP2 POP POP SWAP3 SWAP2 POP POP JUMP JUMPDEST PUSH0 DUP2 SWAP1 POP SWAP2 SWAP1 POP JUMP JUMPDEST PUSH3 0x350 DUP2 PUSH3 0x33C JUMP JUMPDEST DUP2 EQ PUSH3 0x35B JUMPI PUSH0 DUP1 REVERT JUMPDEST POP JUMP JUMPDEST PUSH0 DUP2 MLOAD SWAP1 POP PUSH3 0x36E DUP2 PUSH3 0x345 JUMP JUMPDEST SWAP3 SWAP2 POP POP JUMP JUMPDEST PUSH0 DUP1 PUSH1 0x40 DUP4 DUP6 SUB SLT ISZERO PUSH3 0x38D JUMPI PUSH3 0x38C PUSH3 0x1C0 JUMP JUMPDEST JUMPDEST PUSH0 DUP4 ADD MLOAD PUSH8 0xFFFFFFFFFFFFFFFF DUP2 GT ISZERO PUSH3 0x3AD JUMPI PUSH3 0x3AC PUSH3 0x1C4 JUMP JUMPDEST JUMPDEST PUSH3 0x3BB DUP6 DUP3 DUP7 ADD PUSH3 0x30A JUMP JUMPDEST SWAP3 POP POP PUSH1 0x20 PUSH3 0x3CE DUP6 DUP3 DUP7 ADD PUSH3 0x35E JUMP JUMPDEST SWAP2 POP POP SWAP3 POP SWAP3 SWAP1 POP JUMP JUMPDEST PUSH0 PUSH20 0xFFFFFFFFFFFFFFFFFFFFFFFFFFFFFFFFFFFFFFFF DUP3 AND SWAP1 POP SWAP2 SWAP1 POP JUMP JUMPDEST PUSH0 PUSH3 0x403 DUP3 PUSH3 0x3D8 JUMP JUMPDEST SWAP1 POP SWAP2 SWAP1 POP JUMP JUMPDEST PUSH3 0x415 DUP2 PUSH3 0x3F7 JUMP JUMPDEST DUP3 MSTORE POP POP JUMP JUMPDEST PUSH0 PUSH1 0x20 DUP3 ADD SWAP1 POP PUSH3 0x430 PUSH0 DUP4 ADD DUP5 PUSH3 0x40A JUMP JUMPDEST SWAP3 SWAP2 POP POP JUMP JUMPDEST PUSH0 DUP2 MLOAD SWAP1 POP SWAP2 SWAP1 POP JUMP JUMPDEST PUSH32 0x4E487B7100000000000000000000000000000000000000000000000000000000 PUSH0 MSTORE PUSH1 0x22 PUSH1 0x4 MSTORE PUSH1 0x24 PUSH0 REVERT JUMPDEST PUSH0 PUSH1 0x2 DUP3 DIV SWAP1 POP PUSH1 0x1 DUP3 AND DUP1 PUSH3 0x485 JUMPI PUSH1 0x7F DUP3 AND SWAP2 POP JUMPDEST PUSH1 0x20 DUP3 LT DUP2 SUB PUSH3 0x49B JUMPI PUSH3 0x49A PUSH3 0x440 JUMP JUMPDEST JUMPDEST POP SWAP2 SWAP1 POP JUMP JUMPDEST PUSH0 DUP2 SWAP1 POP DUP2 PUSH0 MSTORE PUSH1 0x20 PUSH0 KECCAK256 SWAP1 POP SWAP2 SWAP1 POP JUMP JUMPDEST PUSH0 PUSH1 0x20 PUSH1 0x1F DUP4 ADD DIV SWAP1 POP SWAP2 SWAP1 POP JUMP JUMPDEST PUSH0 DUP3 DUP3 SHL SWAP1 POP SWAP3 SWAP2 POP POP JUMP JUMPDEST PUSH0 PUSH1 0x8 DUP4 MUL PUSH3 0x4FF PUSH32 0xFFFFFFFFFFFFFFFFFFFFFFFFFFFFFFFFFFFFFFFFFFFFFFFFFFFFFFFFFFFFFFFF DUP3 PUSH3 0x4C2 JUMP JUMPDEST PUSH3 0x50B DUP7 DUP4 PUSH3 0x4C2 JUMP JUMPDEST SWAP6 POP DUP1 NOT DUP5 AND SWAP4 POP DUP1 DUP7 AND DUP5 OR SWAP3 POP POP POP SWAP4 SWAP3 POP POP POP JUMP JUMPDEST PUSH0 DUP2 SWAP1 POP SWAP2 SWAP1 POP JUMP JUMPDEST PUSH0 PUSH3 0x54C PUSH3 0x546 PUSH3 0x540 DUP5 PUSH3 0x33C JUMP JUMPDEST PUSH3 0x523 JUMP JUMPDEST PUSH3 0x33C JUMP JUMPDEST SWAP1 POP SWAP2 SWAP1 POP JUMP JUMPDEST PUSH0 DUP2 SWAP1 POP SWAP2 SWAP1 POP JUMP JUMPDEST PUSH3 0x567 DUP4 PUSH3 0x52C JUMP JUMPDEST PUSH3 0x57F PUSH3 0x576 DUP3 PUSH3 0x553 JUMP JUMPDEST DUP5 DUP5 SLOAD PUSH3 0x4CE JUMP JUMPDEST DUP3 SSTORE POP POP POP POP JUMP JUMPDEST PUSH0 SWAP1 JUMP JUMPDEST PUSH3 0x595 PUSH3 0x587 JUMP JUMPDEST PUSH3 0x5A2 DUP2 DUP5 DUP5 PUSH3 0x55C JUMP JUMPDEST POP POP POP JUMP JUMPDEST JUMPDEST DUP2 DUP2 LT ISZERO PUSH3 0x5C9 JUMPI PUSH3 0x5BD PUSH0 DUP3 PUSH3 0x58B JUMP JUMPDEST PUSH1 0x1 DUP2 ADD SWAP1 POP PUSH3 0x5A8 JUMP JUMPDEST POP POP JUMP JUMPDEST PUSH1 0x1F DUP3 GT ISZERO PUSH3 0x618 JUMPI PUSH3 0x5E2 DUP2 PUSH3 0x4A1 JUMP JUMPDEST PUSH3 0x5ED DUP5 PUSH3 0x4B3 JUMP JUMPDEST DUP2 ADD PUSH1 0x20 DUP6 LT ISZERO PUSH3 0x5FD JUMPI DUP2 SWAP1 POP JUMPDEST PUSH3 0x615 PUSH3 0x60C DUP6 PUSH3 0x4B3 JUMP JUMPDEST DUP4 ADD DUP3 PUSH3 0x5A7 JUMP JUMPDEST POP POP JUMPDEST POP POP POP JUMP JUMPDEST PUSH0 DUP3 DUP3 SHR SWAP1 POP SWAP3 SWAP2 POP POP JUMP JUMPDEST PUSH0 PUSH3 0x63A PUSH0 NOT DUP5 PUSH1 0x8 MUL PUSH3 0x61D JUMP JUMPDEST NOT DUP1 DUP4 AND SWAP2 POP POP SWAP3 SWAP2 POP POP JUMP JUMPDEST PUSH0 PUSH3 0x654 DUP4 DUP4 PUSH3 0x629 JUMP JUMPDEST SWAP2 POP DUP3 PUSH1 0x2 MUL DUP3 OR SWAP1 POP SWAP3 SWAP2 POP POP JUMP JUMPDEST PUSH3 0x66F DUP3 PUSH3 0x436 JUMP JUMPDEST PUSH8 0xFFFFFFFFFFFFFFFF DUP2 GT ISZERO PUSH3 0x68B JUMPI PUSH3 0x68A PUSH3 0x1E0 JUMP JUMPDEST JUMPDEST PUSH3 0x697 DUP3 SLOAD PUSH3 0x46D JUMP JUMPDEST PUSH3 0x6A4 DUP3 DUP3 DUP6 PUSH3 0x5CD JUMP JUMPDEST PUSH0 PUSH1 0x20 SWAP1 POP PUSH1 0x1F DUP4 GT PUSH1 0x1 DUP2 EQ PUSH3 0x6DA JUMPI PUSH0 DUP5 ISZERO PUSH3 0x6C5 JUMPI DUP3 DUP8 ADD MLOAD SWAP1 POP JUMPDEST PUSH3 0x6D1 DUP6 DUP3 PUSH3 0x647 JUMP JUMPDEST DUP7 SSTORE POP PUSH3 0x740 JUMP JUMPDEST PUSH1 0x1F NOT DUP5 AND PUSH3 0x6EA DUP7 PUSH3 0x4A1 JUMP JUMPDEST PUSH0 JUMPDEST DUP3 DUP2 LT ISZERO PUSH3 0x713 JUMPI DUP5 DUP10 ADD MLOAD DUP3 SSTORE PUSH1 0x1 DUP3 ADD SWAP2 POP PUSH1 0x20 DUP6 ADD SWAP5 POP PUSH1 0x20 DUP2 ADD SWAP1 POP PUSH3 0x6EC JUMP JUMPDEST DUP7 DUP4 LT ISZERO PUSH3 0x733 JUMPI DUP5 DUP10 ADD MLOAD PUSH3 0x72F PUSH1 0x1F DUP10 AND DUP3 PUSH3 0x629 JUMP JUMPDEST DUP4 SSTORE POP JUMPDEST PUSH1 0x1 PUSH1 0x2 DUP9 MUL ADD DUP9 SSTORE POP POP POP JUMPDEST POP POP POP POP POP POP JUMP JUMPDEST PUSH2 0xBF3 DUP1 PUSH3 0x756 PUSH0 CODECOPY PUSH0 RETURN INVALID PUSH1 0x80 PUSH1 0x40 MSTORE PUSH1 0x4 CALLDATASIZE LT PUSH2 0x9B JUMPI PUSH0 CALLDATALOAD PUSH1 0xE0 SHR DUP1 PUSH4 0x8ACA1205 GT PUSH2 0x63 JUMPI DUP1 PUSH4 0x8ACA1205 EQ PUSH2 0x140 JUMPI DUP1 PUSH4 0x8DA5CB5B EQ PUSH2 0x168 JUMPI DUP1 PUSH4 0xA035B1FE EQ PUSH2 0x192 JUMPI DUP1 PUSH4 0xA2B40D19 EQ PUSH2 0x1BC JUMPI DUP1 PUSH4 0xA70C1DDE EQ PUSH2 0x1E4 JUMPI DUP1 PUSH4 0xF2FDE38B EQ PUSH2 0x20C JUMPI PUSH2 0x9B JUMP JUMPDEST DUP1 PUSH4 0x40401FEA EQ PUSH2 0x9F JUMPI DUP1 PUSH4 0x466CCAC0 EQ PUSH2 0xC9 JUMPI DUP1 PUSH4 0x715018A6 EQ PUSH2 0xF3 JUMPI DUP1 PUSH4 0x795612D6 EQ PUSH2 0x109 JUMPI DUP1 PUSH4 0x7C81D123 EQ PUSH2 0x113 JUMPI JUMPDEST PUSH0 DUP1 REVERT JUMPDEST CALLVALUE DUP1 ISZERO PUSH2 0xAA JUMPI PUSH0 DUP1 REVERT JUMPDEST POP PUSH2 0xB3 PUSH2 0x234 JUMP JUMPDEST PUSH1 0x40 MLOAD PUSH2 0xC0 SWAP2 SWAP1 PUSH2 0x867 JUMP JUMPDEST PUSH1 0x40 MLOAD DUP1 SWAP2 SUB SWAP1 RETURN JUMPDEST CALLVALUE DUP1 ISZERO PUSH2 0xD4 JUMPI PUSH0 DUP1 REVERT JUMPDEST POP PUSH2 0xDD PUSH2 0x2C0 JUMP JUMPDEST PUSH1 0x40 MLOAD PUSH2 0xEA SWAP2 SWAP1 PUSH2 0x8A1 JUMP JUMPDEST PUSH1 0x40 MLOAD DUP1 SWAP2 SUB SWAP1 RETURN JUMPDEST CALLVALUE DUP1 ISZERO PUSH2 0xFE JUMPI PUSH0 DUP1 REVERT JUMPDEST POP PUSH2 0x107 PUSH2 0x2D2 JUMP JUMPDEST STOP JUMPDEST PUSH2 0x111 PUSH2 0x2E5 JUMP JUMPDEST STOP JUMPDEST CALLVALUE DUP1 ISZERO PUSH2 0x11E JUMPI PUSH0 DUP1 REVERT JUMPDEST POP PUSH2 0x127 PUSH2 0x453 JUMP JUMPDEST PUSH1 0x40 MLOAD PUSH2 0x137 SWAP5 SWAP4 SWAP3 SWAP2 SWAP1 PUSH2 0x911 JUMP JUMPDEST PUSH1 0x40 MLOAD DUP1 SWAP2 SUB SWAP1 RETURN JUMPDEST CALLVALUE DUP1 ISZERO PUSH2 0x14B JUMPI PUSH0 DUP1 REVERT JUMPDEST POP PUSH2 0x166 PUSH1 0x4 DUP1 CALLDATASIZE SUB DUP2 ADD SWAP1 PUSH2 0x161 SWAP2 SWAP1 PUSH2 0x989 JUMP JUMPDEST PUSH2 0x50C JUMP JUMPDEST STOP JUMPDEST CALLVALUE DUP1 ISZERO PUSH2 0x173 JUMPI PUSH0 DUP1 REVERT JUMPDEST POP PUSH2 0x17C PUSH2 0x539 JUMP JUMPDEST PUSH1 0x40 MLOAD PUSH2 0x189 SWAP2 SWAP1 PUSH2 0x9B4 JUMP JUMPDEST PUSH1 0x40 MLOAD DUP1 SWAP2 SUB SWAP1 RETURN JUMPDEST CALLVALUE DUP1 ISZERO PUSH2 0x19D JUMPI PUSH0 DUP1 REVERT JUMPDEST POP PUSH2 0x1A6 PUSH2 0x560 JUMP JUMPDEST PUSH1 0x40 MLOAD PUSH2 0x1B3 SWAP2 SWAP1 PUSH2 0x9CD JUMP JUMPDEST PUSH1 0x40 MLOAD DUP1 SWAP2 SUB SWAP1 RETURN JUMPDEST CALLVALUE DUP1 ISZERO PUSH2 0x1C7 JUMPI PUSH0 DUP1 REVERT JUMPDEST POP PUSH2 0x1E2 PUSH1 0x4 DUP1 CALLDATASIZE SUB DUP2 ADD SWAP1 PUSH2 0x1DD SWAP2 SWAP1 PUSH2 0xA10 JUMP JUMPDEST PUSH2 0x566 JUMP JUMPDEST STOP JUMPDEST CALLVALUE DUP1 ISZERO PUSH2 0x1EF JUMPI PUSH0 DUP1 REVERT JUMPDEST POP PUSH2 0x20A PUSH1 0x4 DUP1 CALLDATASIZE SUB DUP2 ADD SWAP1 PUSH2 0x205 SWAP2 SWAP1 PUSH2 0xA65 JUMP JUMPDEST PUSH2 0x5AF JUMP JUMPDEST STOP JUMPDEST CALLVALUE DUP1 ISZERO PUSH2 0x217 JUMPI PUSH0 DUP1 REVERT JUMPDEST POP PUSH2 0x232 PUSH1 0x4 DUP1 CALLDATASIZE SUB DUP2 ADD SWAP1 PUSH2 0x22D SWAP2 SWAP1 PUSH2 0x989 JUMP JUMPDEST PUSH2 0x60A JUMP JUMPDEST STOP JUMPDEST PUSH1 0x1 DUP1 SLOAD PUSH2 0x241 SWAP1 PUSH2 0xABD JUMP JUMPDEST DUP1 PUSH1 0x1F ADD PUSH1 0x20 DUP1 SWAP2 DIV MUL PUSH1 0x20 ADD PUSH1 0x40 MLOAD SWAP1 DUP2 ADD PUSH1 0x40 MSTORE DUP1 SWAP3 SWAP2 SWAP1 DUP2 DUP2 MSTORE PUSH1 0x20 ADD DUP3 DUP1 SLOAD PUSH2 0x26D SWAP1 PUSH2 0xABD JUMP JUMPDEST DUP1 ISZERO PUSH2 0x2B8 JUMPI DUP1 PUSH1 0x1F LT PUSH2 0x28F JUMPI PUSH2 0x100 DUP1 DUP4 SLOAD DIV MUL DUP4 MSTORE SWAP2 PUSH1 0x20 ADD SWAP2 PUSH2 0x2B8 JUMP JUMPDEST DUP3 ADD SWAP2 SWAP1 PUSH0 MSTORE PUSH1 0x20 PUSH0 KECCAK256 SWAP1 JUMPDEST DUP2 SLOAD DUP2 MSTORE SWAP1 PUSH1 0x1 ADD SWAP1 PUSH1 0x20 ADD DUP1 DUP4 GT PUSH2 0x29B JUMPI DUP3 SWAP1 SUB PUSH1 0x1F AND DUP3 ADD SWAP2 JUMPDEST POP POP POP POP POP DUP2 JUMP JUMPDEST PUSH1 0x3 PUSH0 SWAP1 SLOAD SWAP1 PUSH2 0x100 EXP SWAP1 DIV PUSH1 0xFF AND DUP2 JUMP JUMPDEST PUSH2 0x2DA PUSH2 0x68E JUMP JUMPDEST PUSH2 0x2E3 PUSH0 PUSH2 0x715 JUMP JUMPDEST JUMP JUMPDEST PUSH1 0x3 PUSH0 SWAP1 SLOAD SWAP1 PUSH2 0x100 EXP SWAP1 DIV PUSH1 0xFF AND PUSH2 0x333 JUMPI PUSH1 0x40 MLOAD PUSH32 0x8C379A000000000000000000000000000000000000000000000000000000000 DUP2 MSTORE PUSH1 0x4 ADD PUSH2 0x32A SWAP1 PUSH2 0xB37 JUMP JUMPDEST PUSH1 0x40 MLOAD DUP1 SWAP2 SUB SWAP1 REVERT JUMPDEST PUSH1 0x2 SLOAD CALLVALUE LT ISZERO PUSH2 0x378 JUMPI PUSH1 0x40 MLOAD PUSH32 0x8C379A000000000000000000000000000000000000000000000000000000000 DUP2 MSTORE PUSH1 0x4 ADD PUSH2 0x36F SWAP1 PUSH2 0xB9F JUMP JUMPDEST PUSH1 0x40 MLOAD DUP1 SWAP2 SUB SWAP1 REVERT JUMPDEST PUSH0 PUSH2 0x381 PUSH2 0x539 JUMP JUMPDEST SWAP1 POP PUSH0 PUSH1 0x3 PUSH0 PUSH2 0x100 EXP DUP2 SLOAD DUP2 PUSH1 0xFF MUL NOT AND SWAP1 DUP4 ISZERO ISZERO MUL OR SWAP1 SSTORE POP DUP1 PUSH20 0xFFFFFFFFFFFFFFFFFFFFFFFFFFFFFFFFFFFFFFFF AND PUSH2 0x8FC PUSH1 0x2 SLOAD SWAP1 DUP2 ISZERO MUL SWAP1 PUSH1 0x40 MLOAD PUSH0 PUSH1 0x40 MLOAD DUP1 DUP4 SUB DUP2 DUP6 DUP9 DUP9 CALL SWAP4 POP POP POP POP ISZERO DUP1 ISZERO PUSH2 0x3E1 JUMPI RETURNDATASIZE PUSH0 DUP1 RETURNDATACOPY RETURNDATASIZE PUSH0 REVERT JUMPDEST POP CALLER PUSH20 0xFFFFFFFFFFFFFFFFFFFFFFFFFFFFFFFFFFFFFFFF AND PUSH2 0x401 PUSH2 0x539 JUMP JUMPDEST PUSH20 0xFFFFFFFFFFFFFFFFFFFFFFFFFFFFFFFFFFFFFFFF AND PUSH32 0x59FD71F186972D8C7AE2506B28030F0DCF9FB2357A61D2004FA5FD53333B27DF PUSH1 0x2 SLOAD PUSH1 0x40 MLOAD PUSH2 0x448 SWAP2 SWAP1 PUSH2 0x9CD JUMP JUMPDEST PUSH1 0x40 MLOAD DUP1 SWAP2 SUB SWAP1 LOG3 POP JUMP JUMPDEST PUSH1 0x60 PUSH0 DUP1 PUSH0 PUSH1 0x1 PUSH2 0x462 PUSH2 0x539 JUMP JUMPDEST PUSH1 0x2 SLOAD PUSH1 0x3 PUSH0 SWAP1 SLOAD SWAP1 PUSH2 0x100 EXP SWAP1 DIV PUSH1 0xFF AND DUP4 DUP1 SLOAD PUSH2 0x480 SWAP1 PUSH2 0xABD JUMP JUMPDEST DUP1 PUSH1 0x1F ADD PUSH1 0x20 DUP1 SWAP2 DIV MUL PUSH1 0x20 ADD PUSH1 0x40 MLOAD SWAP1 DUP2 ADD PUSH1 0x40 MSTORE DUP1 SWAP3 SWAP2 SWAP1 DUP2 DUP2 MSTORE PUSH1 0x20 ADD DUP3 DUP1 SLOAD PUSH2 0x4AC SWAP1 PUSH2 0xABD JUMP JUMPDEST DUP1 ISZERO PUSH2 0x4F7 JUMPI DUP1 PUSH1 0x1F LT PUSH2 0x4CE JUMPI PUSH2 0x100 DUP1 DUP4 SLOAD DIV MUL DUP4 MSTORE SWAP2 PUSH1 0x20 ADD SWAP2 PUSH2 0x4F7 JUMP JUMPDEST DUP3 ADD SWAP2 SWAP1 PUSH0 MSTORE PUSH1 0x20 PUSH0 KECCAK256 SWAP1 JUMPDEST DUP2 SLOAD DUP2 MSTORE SWAP1 PUSH1 0x1 ADD SWAP1 PUSH1 0x20 ADD DUP1 DUP4 GT PUSH2 0x4DA JUMPI DUP3 SWAP1 SUB PUSH1 0x1F AND DUP3 ADD SWAP2 JUMPDEST POP POP POP POP POP SWAP4 POP SWAP4 POP SWAP4 POP SWAP4 POP SWAP4 POP SWAP1 SWAP2 SWAP3 SWAP4 JUMP JUMPDEST PUSH2 0x514 PUSH2 0x68E JUMP JUMPDEST PUSH0 PUSH1 0x3 PUSH0 PUSH2 0x100 EXP DUP2 SLOAD DUP2 PUSH1 0xFF MUL NOT AND SWAP1 DUP4 ISZERO ISZERO MUL OR SWAP1 SSTORE POP PUSH2 0x536 DUP2 PUSH2 0x60A JUMP JUMPDEST POP JUMP JUMPDEST PUSH0 DUP1 PUSH0 SWAP1 SLOAD SWAP1 PUSH2 0x100 EXP SWAP1 DIV PUSH20 0xFFFFFFFFFFFFFFFFFFFFFFFFFFFFFFFFFFFFFFFF AND SWAP1 POP SWAP1 JUMP JUMPDEST PUSH1 0x2 SLOAD DUP2 JUMP JUMPDEST PUSH2 0x56E PUSH2 0x68E JUMP JUMPDEST DUP1 PUSH1 0x2 DUP2 SWAP1 SSTORE POP PUSH32 0x2A1E389E63B71F6266C42F7D1CB8CB6055B3041628AD15E02016E2542C072EB6 DUP2 PUSH1 0x40 MLOAD PUSH2 0x5A4 SWAP2 SWAP1 PUSH2 0x9CD JUMP JUMPDEST PUSH1 0x40 MLOAD DUP1 SWAP2 SUB SWAP1 LOG1 POP JUMP JUMPDEST PUSH2 0x5B7 PUSH2 0x68E JUMP JUMPDEST DUP1 PUSH1 0x3 PUSH0 PUSH2 0x100 EXP DUP2 SLOAD DUP2 PUSH1 0xFF MUL NOT AND SWAP1 DUP4 ISZERO ISZERO MUL OR SWAP1 SSTORE POP PUSH32 0x8713AA0295A698DB01FA2CE0A14257BD2223F4F63AC2BF1FC571B9AC9F59FBA DUP2 PUSH1 0x40 MLOAD PUSH2 0x5FF SWAP2 SWAP1 PUSH2 0x8A1 JUMP JUMPDEST PUSH1 0x40 MLOAD DUP1 SWAP2 SUB SWAP1 LOG1 POP JUMP JUMPDEST PUSH2 0x612 PUSH2 0x68E JUMP JUMPDEST PUSH0 PUSH20 0xFFFFFFFFFFFFFFFFFFFFFFFFFFFFFFFFFFFFFFFF AND DUP2 PUSH20 0xFFFFFFFFFFFFFFFFFFFFFFFFFFFFFFFFFFFFFFFF AND SUB PUSH2 0x682 JUMPI PUSH0 PUSH1 0x40 MLOAD PUSH32 0x1E4FBDF700000000000000000000000000000000000000000000000000000000 DUP2 MSTORE PUSH1 0x4 ADD PUSH2 0x679 SWAP2 SWAP1 PUSH2 0x9B4 JUMP JUMPDEST PUSH1 0x40 MLOAD DUP1 SWAP2 SUB SWAP1 REVERT JUMPDEST PUSH2 0x68B DUP2 PUSH2 0x715 JUMP JUMPDEST POP JUMP JUMPDEST PUSH2 0x696 PUSH2 0x7D6 JUMP JUMPDEST PUSH20 0xFFFFFFFFFFFFFFFFFFFFFFFFFFFFFFFFFFFFFFFF AND PUSH2 0x6B4 PUSH2 0x539 JUMP JUMPDEST PUSH20 0xFFFFFFFFFFFFFFFFFFFFFFFFFFFFFFFFFFFFFFFF AND EQ PUSH2 0x713 JUMPI PUSH2 0x6D7 PUSH2 0x7D6 JUMP JUMPDEST PUSH1 0x40 MLOAD PUSH32 0x118CDAA700000000000000000000000000000000000000000000000000000000 DUP2 MSTORE PUSH1 0x4 ADD PUSH2 0x70A SWAP2 SWAP1 PUSH2 0x9B4 JUMP JUMPDEST PUSH1 0x40 MLOAD DUP1 SWAP2 SUB SWAP1 REVERT JUMPDEST JUMP JUMPDEST PUSH0 DUP1 PUSH0 SWAP1 SLOAD SWAP1 PUSH2 0x100 EXP SWAP1 DIV PUSH20 0xFFFFFFFFFFFFFFFFFFFFFFFFFFFFFFFFFFFFFFFF AND SWAP1 POP DUP2 PUSH0 DUP1 PUSH2 0x100 EXP DUP2 SLOAD DUP2 PUSH20 0xFFFFFFFFFFFFFFFFFFFFFFFFFFFFFFFFFFFFFFFF MUL NOT AND SWAP1 DUP4 PUSH20 0xFFFFFFFFFFFFFFFFFFFFFFFFFFFFFFFFFFFFFFFF AND MUL OR SWAP1 SSTORE POP DUP2 PUSH20 0xFFFFFFFFFFFFFFFFFFFFFFFFFFFFFFFFFFFFFFFF AND DUP2 PUSH20 0xFFFFFFFFFFFFFFFFFFFFFFFFFFFFFFFFFFFFFFFF AND PUSH32 0x8BE0079C531659141344CD1FD0A4F28419497F9722A3DAAFE3B4186F6B6457E0 PUSH1 0x40 MLOAD PUSH1 0x40 MLOAD DUP1 SWAP2 SUB SWAP1 LOG3 POP POP JUMP JUMPDEST PUSH0 CALLER SWAP1 POP SWAP1 JUMP JUMPDEST PUSH0 DUP2 MLOAD SWAP1 POP SWAP2 SWAP1 POP JUMP JUMPDEST PUSH0 DUP3 DUP3 MSTORE PUSH1 0x20 DUP3 ADD SWAP1 POP SWAP3 SWAP2 POP POP JUMP JUMPDEST PUSH0 JUMPDEST DUP4 DUP2 LT ISZERO PUSH2 0x814 JUMPI DUP1 DUP3 ADD MLOAD DUP2 DUP5 ADD MSTORE PUSH1 0x20 DUP2 ADD SWAP1 POP PUSH2 0x7F9 JUMP JUMPDEST PUSH0 DUP5 DUP5 ADD MSTORE POP POP POP POP JUMP JUMPDEST PUSH0 PUSH1 0x1F NOT PUSH1 0x1F DUP4 ADD AND SWAP1 POP SWAP2 SWAP1 POP JUMP JUMPDEST PUSH0 PUSH2 0x839 DUP3 PUSH2 0x7DD JUMP JUMPDEST PUSH2 0x843 DUP2 DUP6 PUSH2 0x7E7 JUMP JUMPDEST SWAP4 POP PUSH2 0x853 DUP2 DUP6 PUSH1 0x20 DUP7 ADD PUSH2 0x7F7 JUMP JUMPDEST PUSH2 0x85C DUP2 PUSH2 0x81F JUMP JUMPDEST DUP5 ADD SWAP2 POP POP SWAP3 SWAP2 POP POP JUMP JUMPDEST PUSH0 PUSH1 0x20 DUP3 ADD SWAP1 POP DUP2 DUP2 SUB PUSH0 DUP4 ADD MSTORE PUSH2 0x87F DUP2 DUP5 PUSH2 0x82F JUMP JUMPDEST SWAP1 POP SWAP3 SWAP2 POP POP JUMP JUMPDEST PUSH0 DUP2 ISZERO ISZERO SWAP1 POP SWAP2 SWAP1 POP JUMP JUMPDEST PUSH2 0x89B DUP2 PUSH2 0x887 JUMP JUMPDEST DUP3 MSTORE POP POP JUMP JUMPDEST PUSH0 PUSH1 0x20 DUP3 ADD SWAP1 POP PUSH2 0x8B4 PUSH0 DUP4 ADD DUP5 PUSH2 0x892 JUMP JUMPDEST SWAP3 SWAP2 POP POP JUMP JUMPDEST PUSH0 PUSH20 0xFFFFFFFFFFFFFFFFFFFFFFFFFFFFFFFFFFFFFFFF DUP3 AND SWAP1 POP SWAP2 SWAP1 POP JUMP JUMPDEST PUSH0 PUSH2 0x8E3 DUP3 PUSH2 0x8BA JUMP JUMPDEST SWAP1 POP SWAP2 SWAP1 POP JUMP JUMPDEST PUSH2 0x8F3 DUP2 PUSH2 0x8D9 JUMP JUMPDEST DUP3 MSTORE POP POP JUMP JUMPDEST PUSH0 DUP2 SWAP1 POP SWAP2 SWAP1 POP JUMP JUMPDEST PUSH2 0x90B DUP2 PUSH2 0x8F9 JUMP JUMPDEST DUP3 MSTORE POP POP JUMP JUMPDEST PUSH0 PUSH1 0x80 DUP3 ADD SWAP1 POP DUP2 DUP2 SUB PUSH0 DUP4 ADD MSTORE PUSH2 0x929 DUP2 DUP8 PUSH2 0x82F JUMP JUMPDEST SWAP1 POP PUSH2 0x938 PUSH1 0x20 DUP4 ADD DUP7 PUSH2 0x8EA JUMP JUMPDEST PUSH2 0x945 PUSH1 0x40 DUP4 ADD DUP6 PUSH2 0x902 JUMP JUMPDEST PUSH2 0x952 PUSH1 0x60 DUP4 ADD DUP5 PUSH2 0x892 JUMP JUMPDEST SWAP6 SWAP5 POP POP POP POP POP JUMP JUMPDEST PUSH0 DUP1 REVERT JUMPDEST PUSH2 0x968 DUP2 PUSH2 0x8D9 JUMP JUMPDEST DUP2 EQ PUSH2 0x972 JUMPI PUSH0 DUP1 REVERT JUMPDEST POP JUMP JUMPDEST PUSH0 DUP2 CALLDATALOAD SWAP1 POP PUSH2 0x983 DUP2 PUSH2 0x95F JUMP JUMPDEST SWAP3 SWAP2 POP POP JUMP JUMPDEST PUSH0 PUSH1 0x20 DUP3 DUP5 SUB SLT ISZERO PUSH2 0x99E JUMPI PUSH2 0x99D PUSH2 0x95B JUMP JUMPDEST JUMPDEST PUSH0 PUSH2 0x9AB DUP5 DUP3 DUP6 ADD PUSH2 0x975 JUMP JUMPDEST SWAP2 POP POP SWAP3 SWAP2 POP POP JUMP JUMPDEST PUSH0 PUSH1 0x20 DUP3 ADD SWAP1 POP PUSH2 0x9C7 PUSH0 DUP4 ADD DUP5 PUSH2 0x8EA JUMP JUMPDEST SWAP3 SWAP2 POP POP JUMP JUMPDEST PUSH0 PUSH1 0x20 DUP3 ADD SWAP1 POP PUSH2 0x9E0 PUSH0 DUP4 ADD DUP5 PUSH2 0x902 JUMP JUMPDEST SWAP3 SWAP2 POP POP JUMP JUMPDEST PUSH2 0x9EF DUP2 PUSH2 0x8F9 JUMP JUMPDEST DUP2 EQ PUSH2 0x9F9 JUMPI PUSH0 DUP1 REVERT JUMPDEST POP JUMP JUMPDEST PUSH0 DUP2 CALLDATALOAD SWAP1 POP PUSH2 0xA0A DUP2 PUSH2 0x9E6 JUMP JUMPDEST SWAP3 SWAP2 POP POP JUMP JUMPDEST PUSH0 PUSH1 0x20 DUP3 DUP5 SUB SLT ISZERO PUSH2 0xA25 JUMPI PUSH2 0xA24 PUSH2 0x95B JUMP JUMPDEST JUMPDEST PUSH0 PUSH2 0xA32 DUP5 DUP3 DUP6 ADD PUSH2 0x9FC JUMP JUMPDEST SWAP2 POP POP SWAP3 SWAP2 POP POP JUMP JUMPDEST PUSH2 0xA44 DUP2 PUSH2 0x887 JUMP JUMPDEST DUP2 EQ PUSH2 0xA4E JUMPI PUSH0 DUP1 REVERT JUMPDEST POP JUMP JUMPDEST PUSH0 DUP2 CALLDATALOAD SWAP1 POP PUSH2 0xA5F DUP2 PUSH2 0xA3B JUMP JUMPDEST SWAP3 SWAP2 POP POP JUMP JUMPDEST PUSH0 PUSH1 0x20 DUP3 DUP5 SUB SLT ISZERO PUSH2 0xA7A JUMPI PUSH2 0xA79 PUSH2 0x95B JUMP JUMPDEST JUMPDEST PUSH0 PUSH2 0xA87 DUP5 DUP3 DUP6 ADD PUSH2 0xA51 JUMP JUMPDEST SWAP2 POP POP SWAP3 SWAP2 POP POP JUMP JUMPDEST PUSH32 0x4E487B7100000000000000000000000000000000000000000000000000000000 PUSH0 MSTORE PUSH1 0x22 PUSH1 0x4 MSTORE PUSH1 0x24 PUSH0 REVERT JUMPDEST PUSH0 PUSH1 0x2 DUP3 DIV SWAP1 POP PUSH1 0x1 DUP3 AND DUP1 PUSH2 0xAD4 JUMPI PUSH1 0x7F DUP3 AND SWAP2 POP JUMPDEST PUSH1 0x20 DUP3 LT DUP2 SUB PUSH2 0xAE7 JUMPI PUSH2 0xAE6 PUSH2 0xA90 JUMP JUMPDEST JUMPDEST POP SWAP2 SWAP1 POP JUMP JUMPDEST PUSH32 0x4974656D206973206E6F7420666F722073616C65000000000000000000000000 PUSH0 DUP3 ADD MSTORE POP JUMP JUMPDEST PUSH0 PUSH2 0xB21 PUSH1 0x14 DUP4 PUSH2 0x7E7 JUMP JUMPDEST SWAP2 POP PUSH2 0xB2C DUP3 PUSH2 0xAED JUMP JUMPDEST PUSH1 0x20 DUP3 ADD SWAP1 POP SWAP2 SWAP1 POP JUMP JUMPDEST PUSH0 PUSH1 0x20 DUP3 ADD SWAP1 POP DUP2 DUP2 SUB PUSH0 DUP4 ADD MSTORE PUSH2 0xB4E DUP2 PUSH2 0xB15 JUMP JUMPDEST SWAP1 POP SWAP2 SWAP1 POP JUMP JUMPDEST PUSH32 0x496E73756666696369656E742066756E64730000000000000000000000000000 PUSH0 DUP3 ADD MSTORE POP JUMP JUMPDEST PUSH0 PUSH2 0xB89 PUSH1 0x12 DUP4 PUSH2 0x7E7 JUMP JUMPDEST SWAP2 POP PUSH2 0xB94 DUP3 PUSH2 0xB55 JUMP JUMPDEST PUSH1 0x20 DUP3 ADD SWAP1 POP SWAP2 SWAP1 POP JUMP JUMPDEST PUSH0 PUSH1 0x20 DUP3 ADD SWAP1 POP DUP2 DUP2 SUB PUSH0 DUP4 ADD MSTORE PUSH2 0xBB6 DUP2 PUSH2 0xB7D JUMP JUMPDEST SWAP1 POP SWAP2 SWAP1 POP JUMP INVALID LOG2 PUSH5 0x6970667358 0x22 SLT KECCAK256 0xEC KECCAK256 NUMBER PUSH10 0xA34D89A033296DA6DE77 PUSH3 0x8264F5 SELFDESTRUCT LOG4 PUSH6 0x9A19599E24C0 PUSH26 0x2901CC5064736F6C634300081600330000000000000000000000 "
				},
				"gasEstimates": {
					"creation": {
						"codeDepositCost": "611800",
						"executionCost": "infinite",
						"totalCost": "infinite"
					},
					"external": {
						"buyItem()": "infinite",
						"changePrice(uint256)": "infinite",
						"changeSaleStatus(bool)": "infinite",
						"forSale()": "2489",
						"getItemDetails()": "infinite",
						"itemName()": "infinite",
						"owner()": "2537",
						"price()": "2469",
						"renounceOwnership()": "infinite",
						"transferOwnership(address)": "infinite",
						"transferOwnershipNewAddress(address)": "infinite"
					}
				},
				"methodIdentifiers": {
					"buyItem()": "795612d6",
					"changePrice(uint256)": "a2b40d19",
					"changeSaleStatus(bool)": "a70c1dde",
					"forSale()": "466ccac0",
					"getItemDetails()": "7c81d123",
					"itemName()": "40401fea",
					"owner()": "8da5cb5b",
					"price()": "a035b1fe",
					"renounceOwnership()": "715018a6",
					"transferOwnership(address)": "f2fde38b",
					"transferOwnershipNewAddress(address)": "8aca1205"
				}
			},
			"storageLayout": {
				"storage": [
					{
						"astId": 8,
						"contract": "contracts/Item.sol:Item",
						"label": "_owner",
						"offset": 0,
						"slot": "0",
						"type": "t_address"
					},
					{
						"astId": 176,
						"contract": "contracts/Item.sol:Item",
						"label": "itemName",
						"offset": 0,
						"slot": "1",
						"type": "t_string_storage"
					},
					{
						"astId": 178,
						"contract": "contracts/Item.sol:Item",
						"label": "price",
						"offset": 0,
						"slot": "2",
						"type": "t_uint256"
					},
					{
						"astId": 180,
						"contract": "contracts/Item.sol:Item",
						"label": "forSale",
						"offset": 0,
						"slot": "3",
						"type": "t_bool"
					}
				],
				"types": {
					"t_address": {
						"encoding": "inplace",
						"label": "address",
						"numberOfBytes": "20"
					},
					"t_bool": {
						"encoding": "inplace",
						"label": "bool",
						"numberOfBytes": "1"
					},
					"t_string_storage": {
						"encoding": "bytes",
						"label": "string",
						"numberOfBytes": "32"
					},
					"t_uint256": {
						"encoding": "inplace",
						"label": "uint256",
						"numberOfBytes": "32"
					}
				}
			},
			"userdoc": {
				"kind": "user",
				"methods": {},
				"version": 1
			}
		}
	}
}