{
	"contracts/NewMarketplace.sol": {
		"Marketplace": {
			"abi": [
				{
					"inputs": [],
					"stateMutability": "nonpayable",
					"type": "constructor"
				},
				{
					"inputs": [],
					"name": "ReentrancyGuardReentrantCall",
					"type": "error"
				},
				{
					"anonymous": false,
					"inputs": [
						{
							"indexed": false,
							"internalType": "address",
							"name": "itemContract",
							"type": "address"
						},
						{
							"indexed": false,
							"internalType": "uint256",
							"name": "tokenId",
							"type": "uint256"
						},
						{
							"indexed": false,
							"internalType": "address",
							"name": "seller",
							"type": "address"
						},
						{
							"indexed": false,
							"internalType": "address",
							"name": "owner",
							"type": "address"
						},
						{
							"indexed": false,
							"internalType": "uint256",
							"name": "price",
							"type": "uint256"
						}
					],
					"name": "ItemListed",
					"type": "event"
				},
				{
					"anonymous": false,
					"inputs": [
						{
							"indexed": false,
							"internalType": "address",
							"name": "itemContract",
							"type": "address"
						},
						{
							"indexed": false,
							"internalType": "uint256",
							"name": "tokenId",
							"type": "uint256"
						},
						{
							"indexed": false,
							"internalType": "address",
							"name": "seller",
							"type": "address"
						},
						{
							"indexed": false,
							"internalType": "address",
							"name": "owner",
							"type": "address"
						},
						{
							"indexed": false,
							"internalType": "uint256",
							"name": "price",
							"type": "uint256"
						},
						{
							"indexed": false,
							"internalType": "uint256",
							"name": "duration",
							"type": "uint256"
						}
					],
					"name": "ItemListedRent",
					"type": "event"
				},
				{
					"anonymous": false,
					"inputs": [
						{
							"indexed": false,
							"internalType": "address",
							"name": "itemContract",
							"type": "address"
						},
						{
							"indexed": false,
							"internalType": "uint256",
							"name": "tokenId",
							"type": "uint256"
						},
						{
							"indexed": false,
							"internalType": "address",
							"name": "seller",
							"type": "address"
						},
						{
							"indexed": false,
							"internalType": "address",
							"name": "owner",
							"type": "address"
						},
						{
							"indexed": false,
							"internalType": "uint256",
							"name": "price",
							"type": "uint256"
						},
						{
							"indexed": false,
							"internalType": "uint256",
							"name": "duration",
							"type": "uint256"
						}
					],
					"name": "ItemRented",
					"type": "event"
				},
				{
					"anonymous": false,
					"inputs": [
						{
							"indexed": false,
							"internalType": "address",
							"name": "itemContract",
							"type": "address"
						},
						{
							"indexed": false,
							"internalType": "uint256",
							"name": "tokenId",
							"type": "uint256"
						},
						{
							"indexed": false,
							"internalType": "address",
							"name": "seller",
							"type": "address"
						},
						{
							"indexed": false,
							"internalType": "address",
							"name": "owner",
							"type": "address"
						},
						{
							"indexed": false,
							"internalType": "uint256",
							"name": "price",
							"type": "uint256"
						}
					],
					"name": "ItemSold",
					"type": "event"
				},
				{
					"inputs": [],
					"name": "LISTING_FEE",
					"outputs": [
						{
							"internalType": "uint256",
							"name": "",
							"type": "uint256"
						}
					],
					"stateMutability": "view",
					"type": "function"
				},
				{
					"inputs": [
						{
							"internalType": "address",
							"name": "_itemContract",
							"type": "address"
						},
						{
							"internalType": "uint256",
							"name": "_tokenId",
							"type": "uint256"
						}
					],
					"name": "buyItem",
					"outputs": [],
					"stateMutability": "payable",
					"type": "function"
				},
				{
					"inputs": [],
					"name": "getListedItems",
					"outputs": [
						{
							"components": [
								{
									"internalType": "address",
									"name": "itemContract",
									"type": "address"
								},
								{
									"internalType": "uint256",
									"name": "tokenId",
									"type": "uint256"
								},
								{
									"internalType": "address payable",
									"name": "seller",
									"type": "address"
								},
								{
									"internalType": "address payable",
									"name": "owner",
									"type": "address"
								},
								{
									"internalType": "uint256",
									"name": "price",
									"type": "uint256"
								},
								{
									"internalType": "bool",
									"name": "listed",
									"type": "bool"
								},
								{
									"internalType": "bool",
									"name": "rentable",
									"type": "bool"
								},
								{
									"internalType": "uint256",
									"name": "duration",
									"type": "uint256"
								}
							],
							"internalType": "struct Marketplace.Item[]",
							"name": "",
							"type": "tuple[]"
						}
					],
					"stateMutability": "view",
					"type": "function"
				},
				{
					"inputs": [],
					"name": "getMyItems",
					"outputs": [
						{
							"components": [
								{
									"internalType": "address",
									"name": "itemContract",
									"type": "address"
								},
								{
									"internalType": "uint256",
									"name": "tokenId",
									"type": "uint256"
								},
								{
									"internalType": "address payable",
									"name": "seller",
									"type": "address"
								},
								{
									"internalType": "address payable",
									"name": "owner",
									"type": "address"
								},
								{
									"internalType": "uint256",
									"name": "price",
									"type": "uint256"
								},
								{
									"internalType": "bool",
									"name": "listed",
									"type": "bool"
								},
								{
									"internalType": "bool",
									"name": "rentable",
									"type": "bool"
								},
								{
									"internalType": "uint256",
									"name": "duration",
									"type": "uint256"
								}
							],
							"internalType": "struct Marketplace.Item[]",
							"name": "",
							"type": "tuple[]"
						}
					],
					"stateMutability": "view",
					"type": "function"
				},
				{
					"inputs": [],
					"name": "getMyListedItems",
					"outputs": [
						{
							"components": [
								{
									"internalType": "address",
									"name": "itemContract",
									"type": "address"
								},
								{
									"internalType": "uint256",
									"name": "tokenId",
									"type": "uint256"
								},
								{
									"internalType": "address payable",
									"name": "seller",
									"type": "address"
								},
								{
									"internalType": "address payable",
									"name": "owner",
									"type": "address"
								},
								{
									"internalType": "uint256",
									"name": "price",
									"type": "uint256"
								},
								{
									"internalType": "bool",
									"name": "listed",
									"type": "bool"
								},
								{
									"internalType": "bool",
									"name": "rentable",
									"type": "bool"
								},
								{
									"internalType": "uint256",
									"name": "duration",
									"type": "uint256"
								}
							],
							"internalType": "struct Marketplace.Item[]",
							"name": "",
							"type": "tuple[]"
						}
					],
					"stateMutability": "view",
					"type": "function"
				},
				{
					"inputs": [
						{
							"internalType": "address",
							"name": "_itemContract",
							"type": "address"
						},
						{
							"internalType": "uint256",
							"name": "_tokenId",
							"type": "uint256"
						},
						{
							"internalType": "uint256",
							"name": "_price",
							"type": "uint256"
						}
					],
					"name": "listItem",
					"outputs": [],
					"stateMutability": "payable",
					"type": "function"
				},
				{
					"inputs": [
						{
							"internalType": "address",
							"name": "_itemContract",
							"type": "address"
						},
						{
							"internalType": "uint256",
							"name": "_tokenId",
							"type": "uint256"
						},
						{
							"internalType": "uint256",
							"name": "_price",
							"type": "uint256"
						},
						{
							"internalType": "uint256",
							"name": "rentSeconds",
							"type": "uint256"
						}
					],
					"name": "listItemForRent",
					"outputs": [],
					"stateMutability": "payable",
					"type": "function"
				},
				{
					"inputs": [
						{
							"internalType": "uint256",
							"name": "_tokenId",
							"type": "uint256"
						}
					],
					"name": "recallItem",
					"outputs": [],
					"stateMutability": "payable",
					"type": "function"
				},
				{
					"inputs": [
						{
							"internalType": "address",
							"name": "_itemContract",
							"type": "address"
						},
						{
							"internalType": "uint256",
							"name": "_tokenId",
							"type": "uint256"
						}
					],
					"name": "rentItem",
					"outputs": [],
					"stateMutability": "payable",
					"type": "function"
				},
				{
					"inputs": [
						{
							"internalType": "address",
							"name": "_itemContract",
							"type": "address"
						},
						{
							"internalType": "uint256",
							"name": "_tokenId",
							"type": "uint256"
						},
						{
							"internalType": "uint256",
							"name": "_price",
							"type": "uint256"
						}
					],
					"name": "resellItem",
					"outputs": [],
					"stateMutability": "payable",
					"type": "function"
				}
			],
			"devdoc": {
				"errors": {
					"ReentrancyGuardReentrantCall()": [
						{
							"details": "Unauthorized reentrant call."
						}
					]
				},
				"kind": "dev",
				"methods": {},
				"version": 1
			},
			"evm": {
				"assembly": "    /* \"contracts/NewMarketplace.sol\":183:6783  contract Marketplace is ReentrancyGuard {... */\n  mstore(0x40, 0x80)\n    /* \"contracts/NewMarketplace.sol\":319:326  0 ether */\n  0x00\n    /* \"contracts/NewMarketplace.sol\":290:326  uint256 public LISTING_FEE = 0 ether */\n  0x03\n  sstore\n    /* \"contracts/NewMarketplace.sol\":1370:1431  constructor() {... */\n  callvalue\n  dup1\n  iszero\n  tag_1\n  jumpi\n  0x00\n  dup1\n  revert\ntag_1:\n  pop\n    /* \"@openzeppelin/contracts/utils/ReentrancyGuard.sol\":1746:1747  1 */\n  0x01\n    /* \"@openzeppelin/contracts/utils/ReentrancyGuard.sol\":1961:1968  _status */\n  0x00\n    /* \"@openzeppelin/contracts/utils/ReentrancyGuard.sol\":1961:1982  _status = NOT_ENTERED */\n  dup2\n  swap1\n  sstore\n  pop\n    /* \"contracts/NewMarketplace.sol\":1414:1424  msg.sender */\n  caller\n    /* \"contracts/NewMarketplace.sol\":1391:1403  _marketOwner */\n  0x04\n  0x00\n    /* \"contracts/NewMarketplace.sol\":1391:1425  _marketOwner = payable(msg.sender) */\n  0x0100\n  exp\n  dup2\n  sload\n  dup2\n  0xffffffffffffffffffffffffffffffffffffffff\n  mul\n  not\n  and\n  swap1\n  dup4\n  0xffffffffffffffffffffffffffffffffffffffff\n  and\n  mul\n  or\n  swap1\n  sstore\n  pop\n    /* \"contracts/NewMarketplace.sol\":183:6783  contract Marketplace is ReentrancyGuard {... */\n  dataSize(sub_0)\n  dup1\n  dataOffset(sub_0)\n  0x00\n  codecopy\n  0x00\n  return\nstop\n\nsub_0: assembly {\n        /* \"contracts/NewMarketplace.sol\":183:6783  contract Marketplace is ReentrancyGuard {... */\n      mstore(0x40, 0x80)\n      jumpi(tag_1, lt(calldatasize, 0x04))\n      shr(0xe0, calldataload(0x00))\n      dup1\n      0x89bfd38f\n      gt\n      tag_12\n      jumpi\n      dup1\n      0x89bfd38f\n      eq\n      tag_7\n      jumpi\n      dup1\n      0x8f0af0f9\n      eq\n      tag_8\n      jumpi\n      dup1\n      0x9f37092a\n      eq\n      tag_9\n      jumpi\n      dup1\n      0xc5fb207d\n      eq\n      tag_10\n      jumpi\n      dup1\n      0xcaf50690\n      eq\n      tag_11\n      jumpi\n      jump(tag_1)\n    tag_12:\n      dup1\n      0x2b86ae38\n      eq\n      tag_2\n      jumpi\n      dup1\n      0x36a4009c\n      eq\n      tag_3\n      jumpi\n      dup1\n      0x49b5d297\n      eq\n      tag_4\n      jumpi\n      dup1\n      0x5e2107ff\n      eq\n      tag_5\n      jumpi\n      dup1\n      0x8749e2a0\n      eq\n      tag_6\n      jumpi\n    tag_1:\n      0x00\n      dup1\n      revert\n        /* \"contracts/NewMarketplace.sol\":290:326  uint256 public LISTING_FEE = 0 ether */\n    tag_2:\n      callvalue\n      dup1\n      iszero\n      tag_13\n      jumpi\n      0x00\n      dup1\n      revert\n    tag_13:\n      pop\n      tag_14\n      tag_15\n      jump\t// in\n    tag_14:\n      mload(0x40)\n      tag_16\n      swap2\n      swap1\n      tag_17\n      jump\t// in\n    tag_16:\n      mload(0x40)\n      dup1\n      swap2\n      sub\n      swap1\n      return\n        /* \"contracts/NewMarketplace.sol\":6160:6780  function getMyListedItems() public view returns (Item[] memory) {... */\n    tag_3:\n      callvalue\n      dup1\n      iszero\n      tag_18\n      jumpi\n      0x00\n      dup1\n      revert\n    tag_18:\n      pop\n      tag_19\n      tag_20\n      jump\t// in\n    tag_19:\n      mload(0x40)\n      tag_21\n      swap2\n      swap1\n      tag_22\n      jump\t// in\n    tag_21:\n      mload(0x40)\n      dup1\n      swap2\n      sub\n      swap1\n      return\n        /* \"contracts/NewMarketplace.sol\":2207:2930  function listItemForRent(address _itemContract, uint256 _tokenId, uint256 _price, uint256 rentSeconds) public payable nonReentrant {... */\n    tag_4:\n      tag_23\n      0x04\n      dup1\n      calldatasize\n      sub\n      dup2\n      add\n      swap1\n      tag_24\n      swap2\n      swap1\n      tag_25\n      jump\t// in\n    tag_24:\n      tag_26\n      jump\t// in\n    tag_23:\n      stop\n        /* \"contracts/NewMarketplace.sol\":4150:4533  function recallItem(uint256 _tokenId) public payable nonReentrant {... */\n    tag_5:\n      tag_27\n      0x04\n      dup1\n      calldatasize\n      sub\n      dup2\n      add\n      swap1\n      tag_28\n      swap2\n      swap1\n      tag_29\n      jump\t// in\n    tag_28:\n      tag_30\n      jump\t// in\n    tag_27:\n      stop\n        /* \"contracts/NewMarketplace.sol\":3521:4119  function rentItem(address _itemContract, uint256 _tokenId) public payable nonReentrant {... */\n    tag_6:\n      tag_31\n      0x04\n      dup1\n      calldatasize\n      sub\n      dup2\n      add\n      swap1\n      tag_32\n      swap2\n      swap1\n      tag_33\n      jump\t// in\n    tag_32:\n      tag_34\n      jump\t// in\n    tag_31:\n      stop\n        /* \"contracts/NewMarketplace.sol\":1468:2159  function listItem(address _itemContract, uint256 _tokenId, uint256 _price) public payable nonReentrant {... */\n    tag_7:\n      tag_35\n      0x04\n      dup1\n      calldatasize\n      sub\n      dup2\n      add\n      swap1\n      tag_36\n      swap2\n      swap1\n      tag_37\n      jump\t// in\n    tag_36:\n      tag_38\n      jump\t// in\n    tag_35:\n      stop\n        /* \"contracts/NewMarketplace.sol\":4559:5169  function resellItem(address _itemContract, uint256 _tokenId, uint256 _price) public payable nonReentrant {... */\n    tag_8:\n      tag_39\n      0x04\n      dup1\n      calldatasize\n      sub\n      dup2\n      add\n      swap1\n      tag_40\n      swap2\n      swap1\n      tag_37\n      jump\t// in\n    tag_40:\n      tag_41\n      jump\t// in\n    tag_39:\n      stop\n        /* \"contracts/NewMarketplace.sol\":2953:3499  function buyItem(address _itemContract, uint256 _tokenId) public payable nonReentrant {... */\n    tag_9:\n      tag_42\n      0x04\n      dup1\n      calldatasize\n      sub\n      dup2\n      add\n      swap1\n      tag_43\n      swap2\n      swap1\n      tag_33\n      jump\t// in\n    tag_43:\n      tag_44\n      jump\t// in\n    tag_42:\n      stop\n        /* \"contracts/NewMarketplace.sol\":5614:6154  function getMyItems() public view returns (Item[] memory) {... */\n    tag_10:\n      callvalue\n      dup1\n      iszero\n      tag_45\n      jumpi\n      0x00\n      dup1\n      revert\n    tag_45:\n      pop\n      tag_46\n      tag_47\n      jump\t// in\n    tag_46:\n      mload(0x40)\n      tag_48\n      swap2\n      swap1\n      tag_22\n      jump\t// in\n    tag_48:\n      mload(0x40)\n      dup1\n      swap2\n      sub\n      swap1\n      return\n        /* \"contracts/NewMarketplace.sol\":5175:5608  function getListedItems() public view returns (Item[] memory) {... */\n    tag_11:\n      callvalue\n      dup1\n      iszero\n      tag_49\n      jumpi\n      0x00\n      dup1\n      revert\n    tag_49:\n      pop\n      tag_50\n      tag_51\n      jump\t// in\n    tag_50:\n      mload(0x40)\n      tag_52\n      swap2\n      swap1\n      tag_22\n      jump\t// in\n    tag_52:\n      mload(0x40)\n      dup1\n      swap2\n      sub\n      swap1\n      return\n        /* \"contracts/NewMarketplace.sol\":290:326  uint256 public LISTING_FEE = 0 ether */\n    tag_15:\n      sload(0x03)\n      dup2\n      jump\t// out\n        /* \"contracts/NewMarketplace.sol\":6160:6780  function getMyListedItems() public view returns (Item[] memory) {... */\n    tag_20:\n        /* \"contracts/NewMarketplace.sol\":6209:6222  Item[] memory */\n      0x60\n        /* \"contracts/NewMarketplace.sol\":6231:6245  uint itemCount */\n      0x00\n        /* \"contracts/NewMarketplace.sol\":6248:6258  _itemCount */\n      sload(0x02)\n        /* \"contracts/NewMarketplace.sol\":6231:6258  uint itemCount = _itemCount */\n      swap1\n      pop\n        /* \"contracts/NewMarketplace.sol\":6265:6287  uint myListedItemCount */\n      0x00\n        /* \"contracts/NewMarketplace.sol\":6303:6309  uint i */\n      dup1\n        /* \"contracts/NewMarketplace.sol\":6298:6461  for (uint i = 0; i < itemCount; i++) {... */\n    tag_54:\n        /* \"contracts/NewMarketplace.sol\":6319:6328  itemCount */\n      dup3\n        /* \"contracts/NewMarketplace.sol\":6315:6316  i */\n      dup2\n        /* \"contracts/NewMarketplace.sol\":6315:6328  i < itemCount */\n      lt\n        /* \"contracts/NewMarketplace.sol\":6298:6461  for (uint i = 0; i < itemCount; i++) {... */\n      iszero\n      tag_55\n      jumpi\n        /* \"contracts/NewMarketplace.sol\":6375:6385  msg.sender */\n      caller\n        /* \"contracts/NewMarketplace.sol\":6348:6385  _idToItem[i + 1].seller == msg.sender */\n      0xffffffffffffffffffffffffffffffffffffffff\n      and\n        /* \"contracts/NewMarketplace.sol\":6348:6357  _idToItem */\n      0x05\n        /* \"contracts/NewMarketplace.sol\":6348:6364  _idToItem[i + 1] */\n      0x00\n        /* \"contracts/NewMarketplace.sol\":6362:6363  1 */\n      0x01\n        /* \"contracts/NewMarketplace.sol\":6358:6359  i */\n      dup5\n        /* \"contracts/NewMarketplace.sol\":6358:6363  i + 1 */\n      tag_57\n      swap2\n      swap1\n      tag_58\n      jump\t// in\n    tag_57:\n        /* \"contracts/NewMarketplace.sol\":6348:6364  _idToItem[i + 1] */\n      dup2\n      mstore\n      0x20\n      add\n      swap1\n      dup2\n      mstore\n      0x20\n      add\n      0x00\n      keccak256\n        /* \"contracts/NewMarketplace.sol\":6348:6371  _idToItem[i + 1].seller */\n      0x02\n      add\n      0x00\n      swap1\n      sload\n      swap1\n      0x0100\n      exp\n      swap1\n      div\n      0xffffffffffffffffffffffffffffffffffffffff\n      and\n        /* \"contracts/NewMarketplace.sol\":6348:6385  _idToItem[i + 1].seller == msg.sender */\n      0xffffffffffffffffffffffffffffffffffffffff\n      and\n      eq\n        /* \"contracts/NewMarketplace.sol\":6348:6412  _idToItem[i + 1].seller == msg.sender && _idToItem[i + 1].listed */\n      dup1\n      iszero\n      tag_59\n      jumpi\n      pop\n        /* \"contracts/NewMarketplace.sol\":6389:6398  _idToItem */\n      0x05\n        /* \"contracts/NewMarketplace.sol\":6389:6405  _idToItem[i + 1] */\n      0x00\n        /* \"contracts/NewMarketplace.sol\":6403:6404  1 */\n      0x01\n        /* \"contracts/NewMarketplace.sol\":6399:6400  i */\n      dup4\n        /* \"contracts/NewMarketplace.sol\":6399:6404  i + 1 */\n      tag_60\n      swap2\n      swap1\n      tag_58\n      jump\t// in\n    tag_60:\n        /* \"contracts/NewMarketplace.sol\":6389:6405  _idToItem[i + 1] */\n      dup2\n      mstore\n      0x20\n      add\n      swap1\n      dup2\n      mstore\n      0x20\n      add\n      0x00\n      keccak256\n        /* \"contracts/NewMarketplace.sol\":6389:6412  _idToItem[i + 1].listed */\n      0x05\n      add\n      0x00\n      swap1\n      sload\n      swap1\n      0x0100\n      exp\n      swap1\n      div\n      0xff\n      and\n        /* \"contracts/NewMarketplace.sol\":6348:6412  _idToItem[i + 1].seller == msg.sender && _idToItem[i + 1].listed */\n    tag_59:\n        /* \"contracts/NewMarketplace.sol\":6344:6454  if (_idToItem[i + 1].seller == msg.sender && _idToItem[i + 1].listed) {... */\n      iszero\n      tag_61\n      jumpi\n        /* \"contracts/NewMarketplace.sol\":6425:6444  myListedItemCount++ */\n      dup2\n      dup1\n      tag_62\n      swap1\n      tag_63\n      jump\t// in\n    tag_62:\n      swap3\n      pop\n      pop\n        /* \"contracts/NewMarketplace.sol\":6344:6454  if (_idToItem[i + 1].seller == msg.sender && _idToItem[i + 1].listed) {... */\n    tag_61:\n        /* \"contracts/NewMarketplace.sol\":6330:6333  i++ */\n      dup1\n      dup1\n      0x01\n      add\n      swap2\n      pop\n      pop\n        /* \"contracts/NewMarketplace.sol\":6298:6461  for (uint i = 0; i < itemCount; i++) {... */\n      jump(tag_54)\n    tag_55:\n      pop\n        /* \"contracts/NewMarketplace.sol\":6469:6488  Item[] memory items */\n      0x00\n        /* \"contracts/NewMarketplace.sol\":6502:6519  myListedItemCount */\n      dup2\n        /* \"contracts/NewMarketplace.sol\":6491:6520  new Item[](myListedItemCount) */\n      0xffffffffffffffff\n      dup2\n      gt\n      iszero\n      tag_64\n      jumpi\n      tag_65\n      tag_66\n      jump\t// in\n    tag_65:\n    tag_64:\n      mload(0x40)\n      swap1\n      dup1\n      dup3\n      mstore\n      dup1\n      0x20\n      mul\n      0x20\n      add\n      dup3\n      add\n      0x40\n      mstore\n      dup1\n      iszero\n      tag_67\n      jumpi\n      dup2\n      0x20\n      add\n    tag_68:\n      tag_69\n      tag_70\n      jump\t// in\n    tag_69:\n      dup2\n      mstore\n      0x20\n      add\n      swap1\n      0x01\n      swap1\n      sub\n      swap1\n      dup2\n      tag_68\n      jumpi\n      swap1\n      pop\n    tag_67:\n      pop\n        /* \"contracts/NewMarketplace.sol\":6469:6520  Item[] memory items = new Item[](myListedItemCount) */\n      swap1\n      pop\n        /* \"contracts/NewMarketplace.sol\":6527:6542  uint itemsIndex */\n      0x00\n        /* \"contracts/NewMarketplace.sol\":6558:6564  uint i */\n      dup1\n        /* \"contracts/NewMarketplace.sol\":6553:6756  for (uint i = 0; i < itemCount; i++) {... */\n    tag_71:\n        /* \"contracts/NewMarketplace.sol\":6574:6583  itemCount */\n      dup5\n        /* \"contracts/NewMarketplace.sol\":6570:6571  i */\n      dup2\n        /* \"contracts/NewMarketplace.sol\":6570:6583  i < itemCount */\n      lt\n        /* \"contracts/NewMarketplace.sol\":6553:6756  for (uint i = 0; i < itemCount; i++) {... */\n      iszero\n      tag_72\n      jumpi\n        /* \"contracts/NewMarketplace.sol\":6630:6640  msg.sender */\n      caller\n        /* \"contracts/NewMarketplace.sol\":6603:6640  _idToItem[i + 1].seller == msg.sender */\n      0xffffffffffffffffffffffffffffffffffffffff\n      and\n        /* \"contracts/NewMarketplace.sol\":6603:6612  _idToItem */\n      0x05\n        /* \"contracts/NewMarketplace.sol\":6603:6619  _idToItem[i + 1] */\n      0x00\n        /* \"contracts/NewMarketplace.sol\":6617:6618  1 */\n      0x01\n        /* \"contracts/NewMarketplace.sol\":6613:6614  i */\n      dup5\n        /* \"contracts/NewMarketplace.sol\":6613:6618  i + 1 */\n      tag_74\n      swap2\n      swap1\n      tag_58\n      jump\t// in\n    tag_74:\n        /* \"contracts/NewMarketplace.sol\":6603:6619  _idToItem[i + 1] */\n      dup2\n      mstore\n      0x20\n      add\n      swap1\n      dup2\n      mstore\n      0x20\n      add\n      0x00\n      keccak256\n        /* \"contracts/NewMarketplace.sol\":6603:6626  _idToItem[i + 1].seller */\n      0x02\n      add\n      0x00\n      swap1\n      sload\n      swap1\n      0x0100\n      exp\n      swap1\n      div\n      0xffffffffffffffffffffffffffffffffffffffff\n      and\n        /* \"contracts/NewMarketplace.sol\":6603:6640  _idToItem[i + 1].seller == msg.sender */\n      0xffffffffffffffffffffffffffffffffffffffff\n      and\n      eq\n        /* \"contracts/NewMarketplace.sol\":6603:6667  _idToItem[i + 1].seller == msg.sender && _idToItem[i + 1].listed */\n      dup1\n      iszero\n      tag_75\n      jumpi\n      pop\n        /* \"contracts/NewMarketplace.sol\":6644:6653  _idToItem */\n      0x05\n        /* \"contracts/NewMarketplace.sol\":6644:6660  _idToItem[i + 1] */\n      0x00\n        /* \"contracts/NewMarketplace.sol\":6658:6659  1 */\n      0x01\n        /* \"contracts/NewMarketplace.sol\":6654:6655  i */\n      dup4\n        /* \"contracts/NewMarketplace.sol\":6654:6659  i + 1 */\n      tag_76\n      swap2\n      swap1\n      tag_58\n      jump\t// in\n    tag_76:\n        /* \"contracts/NewMarketplace.sol\":6644:6660  _idToItem[i + 1] */\n      dup2\n      mstore\n      0x20\n      add\n      swap1\n      dup2\n      mstore\n      0x20\n      add\n      0x00\n      keccak256\n        /* \"contracts/NewMarketplace.sol\":6644:6667  _idToItem[i + 1].listed */\n      0x05\n      add\n      0x00\n      swap1\n      sload\n      swap1\n      0x0100\n      exp\n      swap1\n      div\n      0xff\n      and\n        /* \"contracts/NewMarketplace.sol\":6603:6667  _idToItem[i + 1].seller == msg.sender && _idToItem[i + 1].listed */\n    tag_75:\n        /* \"contracts/NewMarketplace.sol\":6599:6749  if (_idToItem[i + 1].seller == msg.sender && _idToItem[i + 1].listed) {... */\n      iszero\n      tag_77\n      jumpi\n        /* \"contracts/NewMarketplace.sol\":6700:6709  _idToItem */\n      0x05\n        /* \"contracts/NewMarketplace.sol\":6700:6716  _idToItem[i + 1] */\n      0x00\n        /* \"contracts/NewMarketplace.sol\":6714:6715  1 */\n      0x01\n        /* \"contracts/NewMarketplace.sol\":6710:6711  i */\n      dup4\n        /* \"contracts/NewMarketplace.sol\":6710:6715  i + 1 */\n      tag_78\n      swap2\n      swap1\n      tag_58\n      jump\t// in\n    tag_78:\n        /* \"contracts/NewMarketplace.sol\":6700:6716  _idToItem[i + 1] */\n      dup2\n      mstore\n      0x20\n      add\n      swap1\n      dup2\n      mstore\n      0x20\n      add\n      0x00\n      keccak256\n        /* \"contracts/NewMarketplace.sol\":6680:6716  items[itemsIndex] = _idToItem[i + 1] */\n      mload(0x40)\n      dup1\n      0x0100\n      add\n      0x40\n      mstore\n      swap1\n      dup2\n      0x00\n      dup3\n      add\n      0x00\n      swap1\n      sload\n      swap1\n      0x0100\n      exp\n      swap1\n      div\n      0xffffffffffffffffffffffffffffffffffffffff\n      and\n      0xffffffffffffffffffffffffffffffffffffffff\n      and\n      0xffffffffffffffffffffffffffffffffffffffff\n      and\n      dup2\n      mstore\n      0x20\n      add\n      0x01\n      dup3\n      add\n      sload\n      dup2\n      mstore\n      0x20\n      add\n      0x02\n      dup3\n      add\n      0x00\n      swap1\n      sload\n      swap1\n      0x0100\n      exp\n      swap1\n      div\n      0xffffffffffffffffffffffffffffffffffffffff\n      and\n      0xffffffffffffffffffffffffffffffffffffffff\n      and\n      0xffffffffffffffffffffffffffffffffffffffff\n      and\n      dup2\n      mstore\n      0x20\n      add\n      0x03\n      dup3\n      add\n      0x00\n      swap1\n      sload\n      swap1\n      0x0100\n      exp\n      swap1\n      div\n      0xffffffffffffffffffffffffffffffffffffffff\n      and\n      0xffffffffffffffffffffffffffffffffffffffff\n      and\n      0xffffffffffffffffffffffffffffffffffffffff\n      and\n      dup2\n      mstore\n      0x20\n      add\n      0x04\n      dup3\n      add\n      sload\n      dup2\n      mstore\n      0x20\n      add\n      0x05\n      dup3\n      add\n      0x00\n      swap1\n      sload\n      swap1\n      0x0100\n      exp\n      swap1\n      div\n      0xff\n      and\n      iszero\n      iszero\n      iszero\n      iszero\n      dup2\n      mstore\n      0x20\n      add\n      0x05\n      dup3\n      add\n      0x01\n      swap1\n      sload\n      swap1\n      0x0100\n      exp\n      swap1\n      div\n      0xff\n      and\n      iszero\n      iszero\n      iszero\n      iszero\n      dup2\n      mstore\n      0x20\n      add\n      0x06\n      dup3\n      add\n      sload\n      dup2\n      mstore\n      pop\n      pop\n        /* \"contracts/NewMarketplace.sol\":6680:6685  items */\n      dup4\n        /* \"contracts/NewMarketplace.sol\":6686:6696  itemsIndex */\n      dup4\n        /* \"contracts/NewMarketplace.sol\":6680:6697  items[itemsIndex] */\n      dup2\n      mload\n      dup2\n      lt\n      tag_79\n      jumpi\n      tag_80\n      tag_81\n      jump\t// in\n    tag_80:\n    tag_79:\n      0x20\n      mul\n      0x20\n      add\n      add\n        /* \"contracts/NewMarketplace.sol\":6680:6716  items[itemsIndex] = _idToItem[i + 1] */\n      dup2\n      swap1\n      mstore\n      pop\n        /* \"contracts/NewMarketplace.sol\":6727:6739  itemsIndex++ */\n      dup2\n      dup1\n      tag_82\n      swap1\n      tag_63\n      jump\t// in\n    tag_82:\n      swap3\n      pop\n      pop\n        /* \"contracts/NewMarketplace.sol\":6599:6749  if (_idToItem[i + 1].seller == msg.sender && _idToItem[i + 1].listed) {... */\n    tag_77:\n        /* \"contracts/NewMarketplace.sol\":6585:6588  i++ */\n      dup1\n      dup1\n      0x01\n      add\n      swap2\n      pop\n      pop\n        /* \"contracts/NewMarketplace.sol\":6553:6756  for (uint i = 0; i < itemCount; i++) {... */\n      jump(tag_71)\n    tag_72:\n      pop\n        /* \"contracts/NewMarketplace.sol\":6769:6774  items */\n      dup2\n        /* \"contracts/NewMarketplace.sol\":6762:6774  return items */\n      swap5\n      pop\n      pop\n      pop\n      pop\n      pop\n        /* \"contracts/NewMarketplace.sol\":6160:6780  function getMyListedItems() public view returns (Item[] memory) {... */\n      swap1\n      jump\t// out\n        /* \"contracts/NewMarketplace.sol\":2207:2930  function listItemForRent(address _itemContract, uint256 _tokenId, uint256 _price, uint256 rentSeconds) public payable nonReentrant {... */\n    tag_26:\n        /* \"@openzeppelin/contracts/utils/ReentrancyGuard.sol\":2411:2432  _nonReentrantBefore() */\n      tag_84\n        /* \"@openzeppelin/contracts/utils/ReentrancyGuard.sol\":2411:2430  _nonReentrantBefore */\n      tag_85\n        /* \"@openzeppelin/contracts/utils/ReentrancyGuard.sol\":2411:2432  _nonReentrantBefore() */\n      jump\t// in\n    tag_84:\n        /* \"contracts/NewMarketplace.sol\":2362:2363  0 */\n      0x00\n        /* \"contracts/NewMarketplace.sol\":2353:2359  _price */\n      dup3\n        /* \"contracts/NewMarketplace.sol\":2353:2363  _price > 0 */\n      gt\n        /* \"contracts/NewMarketplace.sol\":2345:2397  require(_price > 0, \"Price must be greater than 0.\") */\n      tag_87\n      jumpi\n      mload(0x40)\n      0x08c379a000000000000000000000000000000000000000000000000000000000\n      dup2\n      mstore\n      0x04\n      add\n      tag_88\n      swap1\n      tag_89\n      jump\t// in\n    tag_88:\n      mload(0x40)\n      dup1\n      swap2\n      sub\n      swap1\n      revert\n    tag_87:\n        /* \"contracts/NewMarketplace.sol\":2425:2436  LISTING_FEE */\n      sload(0x03)\n        /* \"contracts/NewMarketplace.sol\":2412:2421  msg.value */\n      callvalue\n        /* \"contracts/NewMarketplace.sol\":2412:2436  msg.value == LISTING_FEE */\n      eq\n        /* \"contracts/NewMarketplace.sol\":2404:2502  require(msg.value == LISTING_FEE, \"Please remove value before listing item, listing fee is free.\") */\n      tag_90\n      jumpi\n      mload(0x40)\n      0x08c379a000000000000000000000000000000000000000000000000000000000\n      dup2\n      mstore\n      0x04\n      add\n      tag_91\n      swap1\n      tag_92\n      jump\t// in\n    tag_91:\n      mload(0x40)\n      dup1\n      swap2\n      sub\n      swap1\n      revert\n    tag_90:\n        /* \"contracts/NewMarketplace.sol\":2519:2532  _itemContract */\n      dup4\n        /* \"contracts/NewMarketplace.sol\":2511:2546  IERC721(_itemContract).transferFrom */\n      0xffffffffffffffffffffffffffffffffffffffff\n      and\n      0x23b872dd\n        /* \"contracts/NewMarketplace.sol\":2547:2557  msg.sender */\n      caller\n        /* \"contracts/NewMarketplace.sol\":2567:2571  this */\n      address\n        /* \"contracts/NewMarketplace.sol\":2574:2582  _tokenId */\n      dup7\n        /* \"contracts/NewMarketplace.sol\":2511:2583  IERC721(_itemContract).transferFrom(msg.sender, address(this), _tokenId) */\n      mload(0x40)\n      dup5\n      0xffffffff\n      and\n      0xe0\n      shl\n      dup2\n      mstore\n      0x04\n      add\n      tag_93\n      swap4\n      swap3\n      swap2\n      swap1\n      tag_94\n      jump\t// in\n    tag_93:\n      0x00\n      mload(0x40)\n      dup1\n      dup4\n      sub\n      dup2\n      0x00\n      dup8\n      dup1\n      extcodesize\n      iszero\n      dup1\n      iszero\n      tag_95\n      jumpi\n      0x00\n      dup1\n      revert\n    tag_95:\n      pop\n      gas\n      call\n      iszero\n      dup1\n      iszero\n      tag_97\n      jumpi\n      returndatasize\n      0x00\n      dup1\n      returndatacopy\n      revert(0x00, returndatasize)\n    tag_97:\n      pop\n      pop\n      pop\n      pop\n        /* \"contracts/NewMarketplace.sol\":2590:2602  _marketOwner */\n      0x04\n      0x00\n      swap1\n      sload\n      swap1\n      0x0100\n      exp\n      swap1\n      div\n      0xffffffffffffffffffffffffffffffffffffffff\n      and\n        /* \"contracts/NewMarketplace.sol\":2590:2611  _marketOwner.transfer */\n      0xffffffffffffffffffffffffffffffffffffffff\n      and\n        /* \"contracts/NewMarketplace.sol\":2590:2624  _marketOwner.transfer(LISTING_FEE) */\n      0x08fc\n        /* \"contracts/NewMarketplace.sol\":2612:2623  LISTING_FEE */\n      sload(0x03)\n        /* \"contracts/NewMarketplace.sol\":2590:2624  _marketOwner.transfer(LISTING_FEE) */\n      swap1\n      dup2\n      iszero\n      mul\n      swap1\n      mload(0x40)\n      0x00\n      mload(0x40)\n      dup1\n      dup4\n      sub\n      dup2\n      dup6\n      dup9\n      dup9\n      call\n      swap4\n      pop\n      pop\n      pop\n      pop\n      iszero\n      dup1\n      iszero\n      tag_99\n      jumpi\n      returndatasize\n      0x00\n      dup1\n      returndatacopy\n      revert(0x00, returndatasize)\n    tag_99:\n      pop\n        /* \"contracts/NewMarketplace.sol\":2631:2641  _itemCount */\n      0x02\n      0x00\n        /* \"contracts/NewMarketplace.sol\":2631:2643  _itemCount++ */\n      dup2\n      sload\n      dup1\n      swap3\n      swap2\n      swap1\n      tag_100\n      swap1\n      tag_63\n      jump\t// in\n    tag_100:\n      swap2\n      swap1\n      pop\n      sstore\n      pop\n        /* \"contracts/NewMarketplace.sol\":2674:2823  Rentable(... */\n      mload(0x40)\n      dup1\n      0xc0\n      add\n      0x40\n      mstore\n      dup1\n        /* \"contracts/NewMarketplace.sol\":2691:2704  _itemContract */\n      dup6\n        /* \"contracts/NewMarketplace.sol\":2674:2823  Rentable(... */\n      0xffffffffffffffffffffffffffffffffffffffff\n      and\n      dup2\n      mstore\n      0x20\n      add\n        /* \"contracts/NewMarketplace.sol\":2713:2721  _tokenId */\n      dup5\n        /* \"contracts/NewMarketplace.sol\":2674:2823  Rentable(... */\n      dup2\n      mstore\n      0x20\n      add\n        /* \"contracts/NewMarketplace.sol\":2739:2749  msg.sender */\n      caller\n        /* \"contracts/NewMarketplace.sol\":2674:2823  Rentable(... */\n      0xffffffffffffffffffffffffffffffffffffffff\n      and\n      dup2\n      mstore\n      0x20\n      add\n        /* \"contracts/NewMarketplace.sol\":2775:2779  this */\n      address\n        /* \"contracts/NewMarketplace.sol\":2674:2823  Rentable(... */\n      0xffffffffffffffffffffffffffffffffffffffff\n      and\n      dup2\n      mstore\n      0x20\n      add\n        /* \"contracts/NewMarketplace.sol\":2790:2796  _price */\n      dup4\n        /* \"contracts/NewMarketplace.sol\":2674:2823  Rentable(... */\n      dup2\n      mstore\n      0x20\n      add\n        /* \"contracts/NewMarketplace.sol\":2805:2816  rentSeconds */\n      dup3\n        /* \"contracts/NewMarketplace.sol\":2674:2823  Rentable(... */\n      dup2\n      mstore\n      pop\n        /* \"contracts/NewMarketplace.sol\":2652:2661  _idToRent */\n      0x06\n        /* \"contracts/NewMarketplace.sol\":2652:2671  _idToRent[_tokenId] */\n      0x00\n        /* \"contracts/NewMarketplace.sol\":2662:2670  _tokenId */\n      dup6\n        /* \"contracts/NewMarketplace.sol\":2652:2671  _idToRent[_tokenId] */\n      dup2\n      mstore\n      0x20\n      add\n      swap1\n      dup2\n      mstore\n      0x20\n      add\n      0x00\n      keccak256\n        /* \"contracts/NewMarketplace.sol\":2652:2823  _idToRent[_tokenId] = Rentable(... */\n      0x00\n      dup3\n      add\n      mload\n      dup2\n      0x00\n      add\n      exp(0x0100, 0x00)\n      dup2\n      sload\n      dup2\n      0xffffffffffffffffffffffffffffffffffffffff\n      mul\n      not\n      and\n      swap1\n      dup4\n      0xffffffffffffffffffffffffffffffffffffffff\n      and\n      mul\n      or\n      swap1\n      sstore\n      pop\n      0x20\n      dup3\n      add\n      mload\n      dup2\n      0x01\n      add\n      sstore\n      0x40\n      dup3\n      add\n      mload\n      dup2\n      0x02\n      add\n      exp(0x0100, 0x00)\n      dup2\n      sload\n      dup2\n      0xffffffffffffffffffffffffffffffffffffffff\n      mul\n      not\n      and\n      swap1\n      dup4\n      0xffffffffffffffffffffffffffffffffffffffff\n      and\n      mul\n      or\n      swap1\n      sstore\n      pop\n      0x60\n      dup3\n      add\n      mload\n      dup2\n      0x03\n      add\n      exp(0x0100, 0x00)\n      dup2\n      sload\n      dup2\n      0xffffffffffffffffffffffffffffffffffffffff\n      mul\n      not\n      and\n      swap1\n      dup4\n      0xffffffffffffffffffffffffffffffffffffffff\n      and\n      mul\n      or\n      swap1\n      sstore\n      pop\n      0x80\n      dup3\n      add\n      mload\n      dup2\n      0x04\n      add\n      sstore\n      0xa0\n      dup3\n      add\n      mload\n      dup2\n      0x05\n      add\n      sstore\n      swap1\n      pop\n      pop\n        /* \"contracts/NewMarketplace.sol\":2837:2924  ItemListedRent(_itemContract, _tokenId, msg.sender, address(this), _price, rentSeconds) */\n      0x09ce421b5f2d8e5ca3ee4b485d57badf4a3bb65a899a9d6db9fc4e34ed30a740\n        /* \"contracts/NewMarketplace.sol\":2852:2865  _itemContract */\n      dup5\n        /* \"contracts/NewMarketplace.sol\":2867:2875  _tokenId */\n      dup5\n        /* \"contracts/NewMarketplace.sol\":2877:2887  msg.sender */\n      caller\n        /* \"contracts/NewMarketplace.sol\":2897:2901  this */\n      address\n        /* \"contracts/NewMarketplace.sol\":2904:2910  _price */\n      dup7\n        /* \"contracts/NewMarketplace.sol\":2912:2923  rentSeconds */\n      dup7\n        /* \"contracts/NewMarketplace.sol\":2837:2924  ItemListedRent(_itemContract, _tokenId, msg.sender, address(this), _price, rentSeconds) */\n      mload(0x40)\n      tag_101\n      swap7\n      swap6\n      swap5\n      swap4\n      swap3\n      swap2\n      swap1\n      tag_102\n      jump\t// in\n    tag_101:\n      mload(0x40)\n      dup1\n      swap2\n      sub\n      swap1\n      log1\n        /* \"@openzeppelin/contracts/utils/ReentrancyGuard.sol\":2455:2475  _nonReentrantAfter() */\n      tag_103\n        /* \"@openzeppelin/contracts/utils/ReentrancyGuard.sol\":2455:2473  _nonReentrantAfter */\n      tag_104\n        /* \"@openzeppelin/contracts/utils/ReentrancyGuard.sol\":2455:2475  _nonReentrantAfter() */\n      jump\t// in\n    tag_103:\n        /* \"contracts/NewMarketplace.sol\":2207:2930  function listItemForRent(address _itemContract, uint256 _tokenId, uint256 _price, uint256 rentSeconds) public payable nonReentrant {... */\n      pop\n      pop\n      pop\n      pop\n      jump\t// out\n        /* \"contracts/NewMarketplace.sol\":4150:4533  function recallItem(uint256 _tokenId) public payable nonReentrant {... */\n    tag_30:\n        /* \"@openzeppelin/contracts/utils/ReentrancyGuard.sol\":2411:2432  _nonReentrantBefore() */\n      tag_106\n        /* \"@openzeppelin/contracts/utils/ReentrancyGuard.sol\":2411:2430  _nonReentrantBefore */\n      tag_85\n        /* \"@openzeppelin/contracts/utils/ReentrancyGuard.sol\":2411:2432  _nonReentrantBefore() */\n      jump\t// in\n    tag_106:\n        /* \"contracts/NewMarketplace.sol\":4245:4254  _idToRent */\n      0x06\n        /* \"contracts/NewMarketplace.sol\":4245:4264  _idToRent[_tokenId] */\n      0x00\n        /* \"contracts/NewMarketplace.sol\":4255:4263  _tokenId */\n      dup3\n        /* \"contracts/NewMarketplace.sol\":4245:4264  _idToRent[_tokenId] */\n      dup2\n      mstore\n      0x20\n      add\n      swap1\n      dup2\n      mstore\n      0x20\n      add\n      0x00\n      keccak256\n        /* \"contracts/NewMarketplace.sol\":4245:4271  _idToRent[_tokenId].seller */\n      0x02\n      add\n      0x00\n      swap1\n      sload\n      swap1\n      0x0100\n      exp\n      swap1\n      div\n      0xffffffffffffffffffffffffffffffffffffffff\n      and\n        /* \"contracts/NewMarketplace.sol\":4231:4271  msg.sender == _idToRent[_tokenId].seller */\n      0xffffffffffffffffffffffffffffffffffffffff\n      and\n        /* \"contracts/NewMarketplace.sol\":4231:4241  msg.sender */\n      caller\n        /* \"contracts/NewMarketplace.sol\":4231:4271  msg.sender == _idToRent[_tokenId].seller */\n      0xffffffffffffffffffffffffffffffffffffffff\n      and\n      eq\n        /* \"contracts/NewMarketplace.sol\":4223:4319  require(msg.sender == _idToRent[_tokenId].seller, \"Must own the item to recall it from renter.\") */\n      tag_108\n      jumpi\n      mload(0x40)\n      0x08c379a000000000000000000000000000000000000000000000000000000000\n      dup2\n      mstore\n      0x04\n      add\n      tag_109\n      swap1\n      tag_110\n      jump\t// in\n    tag_109:\n      mload(0x40)\n      dup1\n      swap2\n      sub\n      swap1\n      revert\n    tag_108:\n        /* \"contracts/NewMarketplace.sol\":4353:4362  _idToRent */\n      0x06\n        /* \"contracts/NewMarketplace.sol\":4353:4372  _idToRent[_tokenId] */\n      0x00\n        /* \"contracts/NewMarketplace.sol\":4363:4371  _tokenId */\n      dup3\n        /* \"contracts/NewMarketplace.sol\":4353:4372  _idToRent[_tokenId] */\n      dup2\n      mstore\n      0x20\n      add\n      swap1\n      dup2\n      mstore\n      0x20\n      add\n      0x00\n      keccak256\n        /* \"contracts/NewMarketplace.sol\":4353:4381  _idToRent[_tokenId].duration */\n      0x05\n      add\n      sload\n        /* \"contracts/NewMarketplace.sol\":4334:4349  block.timestamp */\n      timestamp\n        /* \"contracts/NewMarketplace.sol\":4334:4381  block.timestamp >= _idToRent[_tokenId].duration */\n      lt\n      iszero\n        /* \"contracts/NewMarketplace.sol\":4326:4409  require(block.timestamp >= _idToRent[_tokenId].duration, \"Cannot recall item yet.\") */\n      tag_111\n      jumpi\n      mload(0x40)\n      0x08c379a000000000000000000000000000000000000000000000000000000000\n      dup2\n      mstore\n      0x04\n      add\n      tag_112\n      swap1\n      tag_113\n      jump\t// in\n    tag_112:\n      mload(0x40)\n      dup1\n      swap2\n      sub\n      swap1\n      revert\n    tag_111:\n        /* \"contracts/NewMarketplace.sol\":4447:4456  _idToRent */\n      0x06\n        /* \"contracts/NewMarketplace.sol\":4447:4466  _idToRent[_tokenId] */\n      0x00\n        /* \"contracts/NewMarketplace.sol\":4457:4465  _tokenId */\n      dup3\n        /* \"contracts/NewMarketplace.sol\":4447:4466  _idToRent[_tokenId] */\n      dup2\n      mstore\n      0x20\n      add\n      swap1\n      dup2\n      mstore\n      0x20\n      add\n      0x00\n      keccak256\n        /* \"contracts/NewMarketplace.sol\":4447:4473  _idToRent[_tokenId].seller */\n      0x02\n      add\n      0x00\n      swap1\n      sload\n      swap1\n      0x0100\n      exp\n      swap1\n      div\n      0xffffffffffffffffffffffffffffffffffffffff\n      and\n        /* \"contracts/NewMarketplace.sol\":4418:4427  _idToRent */\n      0x06\n        /* \"contracts/NewMarketplace.sol\":4418:4437  _idToRent[_tokenId] */\n      0x00\n        /* \"contracts/NewMarketplace.sol\":4428:4436  _tokenId */\n      dup4\n        /* \"contracts/NewMarketplace.sol\":4418:4437  _idToRent[_tokenId] */\n      dup2\n      mstore\n      0x20\n      add\n      swap1\n      dup2\n      mstore\n      0x20\n      add\n      0x00\n      keccak256\n        /* \"contracts/NewMarketplace.sol\":4418:4444  _idToRent[_tokenId].renter */\n      0x03\n      add\n      0x00\n        /* \"contracts/NewMarketplace.sol\":4418:4473  _idToRent[_tokenId].renter = _idToRent[_tokenId].seller */\n      0x0100\n      exp\n      dup2\n      sload\n      dup2\n      0xffffffffffffffffffffffffffffffffffffffff\n      mul\n      not\n      and\n      swap1\n      dup4\n      0xffffffffffffffffffffffffffffffffffffffff\n      and\n      mul\n      or\n      swap1\n      sstore\n      pop\n        /* \"contracts/NewMarketplace.sol\":4482:4492  _itemsSold */\n      0x01\n      0x00\n        /* \"contracts/NewMarketplace.sol\":4482:4494  _itemsSold-- */\n      dup2\n      sload\n      dup1\n      swap3\n      swap2\n      swap1\n      tag_114\n      swap1\n      tag_115\n      jump\t// in\n    tag_114:\n      swap2\n      swap1\n      pop\n      sstore\n      pop\n        /* \"contracts/NewMarketplace.sol\":4508:4517  _idToRent */\n      0x06\n        /* \"contracts/NewMarketplace.sol\":4508:4527  _idToRent[_tokenId] */\n      0x00\n        /* \"contracts/NewMarketplace.sol\":4518:4526  _tokenId */\n      dup3\n        /* \"contracts/NewMarketplace.sol\":4508:4527  _idToRent[_tokenId] */\n      dup2\n      mstore\n      0x20\n      add\n      swap1\n      dup2\n      mstore\n      0x20\n      add\n      0x00\n      keccak256\n      0x00\n        /* \"contracts/NewMarketplace.sol\":4501:4527  delete _idToRent[_tokenId] */\n      dup1\n      dup3\n      add\n      exp(0x0100, 0x00)\n      dup2\n      sload\n      swap1\n      0xffffffffffffffffffffffffffffffffffffffff\n      mul\n      not\n      and\n      swap1\n      sstore\n      0x01\n      dup3\n      add\n      0x00\n      swap1\n      sstore\n      0x02\n      dup3\n      add\n      exp(0x0100, 0x00)\n      dup2\n      sload\n      swap1\n      0xffffffffffffffffffffffffffffffffffffffff\n      mul\n      not\n      and\n      swap1\n      sstore\n      0x03\n      dup3\n      add\n      exp(0x0100, 0x00)\n      dup2\n      sload\n      swap1\n      0xffffffffffffffffffffffffffffffffffffffff\n      mul\n      not\n      and\n      swap1\n      sstore\n      0x04\n      dup3\n      add\n      0x00\n      swap1\n      sstore\n      0x05\n      dup3\n      add\n      0x00\n      swap1\n      sstore\n      pop\n      pop\n        /* \"@openzeppelin/contracts/utils/ReentrancyGuard.sol\":2455:2475  _nonReentrantAfter() */\n      tag_116\n        /* \"@openzeppelin/contracts/utils/ReentrancyGuard.sol\":2455:2473  _nonReentrantAfter */\n      tag_104\n        /* \"@openzeppelin/contracts/utils/ReentrancyGuard.sol\":2455:2475  _nonReentrantAfter() */\n      jump\t// in\n    tag_116:\n        /* \"contracts/NewMarketplace.sol\":4150:4533  function recallItem(uint256 _tokenId) public payable nonReentrant {... */\n      pop\n      jump\t// out\n        /* \"contracts/NewMarketplace.sol\":3521:4119  function rentItem(address _itemContract, uint256 _tokenId) public payable nonReentrant {... */\n    tag_34:\n        /* \"@openzeppelin/contracts/utils/ReentrancyGuard.sol\":2411:2432  _nonReentrantBefore() */\n      tag_118\n        /* \"@openzeppelin/contracts/utils/ReentrancyGuard.sol\":2411:2430  _nonReentrantBefore */\n      tag_85\n        /* \"@openzeppelin/contracts/utils/ReentrancyGuard.sol\":2411:2432  _nonReentrantBefore() */\n      jump\t// in\n    tag_118:\n        /* \"contracts/NewMarketplace.sol\":3615:3640  Rentable storage rentable */\n      0x00\n        /* \"contracts/NewMarketplace.sol\":3643:3652  _idToRent */\n      0x06\n        /* \"contracts/NewMarketplace.sol\":3643:3662  _idToRent[_tokenId] */\n      0x00\n        /* \"contracts/NewMarketplace.sol\":3653:3661  _tokenId */\n      dup4\n        /* \"contracts/NewMarketplace.sol\":3643:3662  _idToRent[_tokenId] */\n      dup2\n      mstore\n      0x20\n      add\n      swap1\n      dup2\n      mstore\n      0x20\n      add\n      0x00\n      keccak256\n        /* \"contracts/NewMarketplace.sol\":3615:3662  Rentable storage rentable = _idToRent[_tokenId] */\n      swap1\n      pop\n        /* \"contracts/NewMarketplace.sol\":3690:3698  rentable */\n      dup1\n        /* \"contracts/NewMarketplace.sol\":3690:3704  rentable.price */\n      0x04\n      add\n      sload\n        /* \"contracts/NewMarketplace.sol\":3677:3686  msg.value */\n      callvalue\n        /* \"contracts/NewMarketplace.sol\":3677:3704  msg.value >= rentable.price */\n      lt\n      iszero\n        /* \"contracts/NewMarketplace.sol\":3669:3741  require(msg.value >= rentable.price, \"Insufficient funds to rent item.\") */\n      tag_120\n      jumpi\n      mload(0x40)\n      0x08c379a000000000000000000000000000000000000000000000000000000000\n      dup2\n      mstore\n      0x04\n      add\n      tag_121\n      swap1\n      tag_122\n      jump\t// in\n    tag_121:\n      mload(0x40)\n      dup1\n      swap2\n      sub\n      swap1\n      revert\n    tag_120:\n        /* \"contracts/NewMarketplace.sol\":3750:3771  address payable buyer */\n      0x00\n        /* \"contracts/NewMarketplace.sol\":3782:3792  msg.sender */\n      caller\n        /* \"contracts/NewMarketplace.sol\":3750:3793  address payable buyer = payable(msg.sender) */\n      swap1\n      pop\n        /* \"contracts/NewMarketplace.sol\":3808:3816  rentable */\n      dup2\n        /* \"contracts/NewMarketplace.sol\":3808:3823  rentable.seller */\n      0x02\n      add\n      0x00\n      swap1\n      sload\n      swap1\n      0x0100\n      exp\n      swap1\n      div\n      0xffffffffffffffffffffffffffffffffffffffff\n      and\n        /* \"contracts/NewMarketplace.sol\":3800:3833  payable(rentable.seller).transfer */\n      0xffffffffffffffffffffffffffffffffffffffff\n      and\n        /* \"contracts/NewMarketplace.sol\":3800:3844  payable(rentable.seller).transfer(msg.value) */\n      0x08fc\n        /* \"contracts/NewMarketplace.sol\":3834:3843  msg.value */\n      callvalue\n        /* \"contracts/NewMarketplace.sol\":3800:3844  payable(rentable.seller).transfer(msg.value) */\n      swap1\n      dup2\n      iszero\n      mul\n      swap1\n      mload(0x40)\n      0x00\n      mload(0x40)\n      dup1\n      dup4\n      sub\n      dup2\n      dup6\n      dup9\n      dup9\n      call\n      swap4\n      pop\n      pop\n      pop\n      pop\n      iszero\n      dup1\n      iszero\n      tag_124\n      jumpi\n      returndatasize\n      0x00\n      dup1\n      returndatacopy\n      revert(0x00, returndatasize)\n    tag_124:\n      pop\n        /* \"contracts/NewMarketplace.sol\":3871:3876  buyer */\n      dup1\n        /* \"contracts/NewMarketplace.sol\":3853:3861  rentable */\n      dup3\n        /* \"contracts/NewMarketplace.sol\":3853:3868  rentable.renter */\n      0x03\n      add\n      0x00\n        /* \"contracts/NewMarketplace.sol\":3853:3876  rentable.renter = buyer */\n      0x0100\n      exp\n      dup2\n      sload\n      dup2\n      0xffffffffffffffffffffffffffffffffffffffff\n      mul\n      not\n      and\n      swap1\n      dup4\n      0xffffffffffffffffffffffffffffffffffffffff\n      and\n      mul\n      or\n      swap1\n      sstore\n      pop\n        /* \"contracts/NewMarketplace.sol\":3883:3899  uint256 deadline */\n      0x00\n        /* \"contracts/NewMarketplace.sol\":3920:3928  rentable */\n      dup3\n        /* \"contracts/NewMarketplace.sol\":3920:3937  rentable.duration */\n      0x05\n      add\n      sload\n        /* \"contracts/NewMarketplace.sol\":3902:3917  block.timestamp */\n      timestamp\n        /* \"contracts/NewMarketplace.sol\":3902:3937  block.timestamp + rentable.duration */\n      tag_125\n      swap2\n      swap1\n      tag_58\n      jump\t// in\n    tag_125:\n        /* \"contracts/NewMarketplace.sol\":3883:3937  uint256 deadline = block.timestamp + rentable.duration */\n      swap1\n      pop\n        /* \"contracts/NewMarketplace.sol\":3975:3983  deadline */\n      dup1\n        /* \"contracts/NewMarketplace.sol\":3944:3953  _idToRent */\n      0x06\n        /* \"contracts/NewMarketplace.sol\":3944:3963  _idToRent[_tokenId] */\n      0x00\n        /* \"contracts/NewMarketplace.sol\":3954:3962  _tokenId */\n      dup7\n        /* \"contracts/NewMarketplace.sol\":3944:3963  _idToRent[_tokenId] */\n      dup2\n      mstore\n      0x20\n      add\n      swap1\n      dup2\n      mstore\n      0x20\n      add\n      0x00\n      keccak256\n        /* \"contracts/NewMarketplace.sol\":3944:3972  _idToRent[_tokenId].duration */\n      0x05\n      add\n        /* \"contracts/NewMarketplace.sol\":3944:3983  _idToRent[_tokenId].duration = deadline */\n      dup2\n      swap1\n      sstore\n      pop\n        /* \"contracts/NewMarketplace.sol\":3992:4002  _itemsSold */\n      0x01\n      0x00\n        /* \"contracts/NewMarketplace.sol\":3992:4004  _itemsSold++ */\n      dup2\n      sload\n      dup1\n      swap3\n      swap2\n      swap1\n      tag_126\n      swap1\n      tag_63\n      jump\t// in\n    tag_126:\n      swap2\n      swap1\n      pop\n      sstore\n      pop\n        /* \"contracts/NewMarketplace.sol\":4016:4113  ItemRented(_itemContract, rentable.tokenId, rentable.seller, buyer, msg.value, rentable.duration) */\n      0x0e2430177b2347616438e96003fab41769a8a7275e03e8622da459fe268e5570\n        /* \"contracts/NewMarketplace.sol\":4027:4040  _itemContract */\n      dup6\n        /* \"contracts/NewMarketplace.sol\":4042:4050  rentable */\n      dup5\n        /* \"contracts/NewMarketplace.sol\":4042:4058  rentable.tokenId */\n      0x01\n      add\n      sload\n        /* \"contracts/NewMarketplace.sol\":4060:4068  rentable */\n      dup6\n        /* \"contracts/NewMarketplace.sol\":4060:4075  rentable.seller */\n      0x02\n      add\n      0x00\n      swap1\n      sload\n      swap1\n      0x0100\n      exp\n      swap1\n      div\n      0xffffffffffffffffffffffffffffffffffffffff\n      and\n        /* \"contracts/NewMarketplace.sol\":4077:4082  buyer */\n      dup6\n        /* \"contracts/NewMarketplace.sol\":4084:4093  msg.value */\n      callvalue\n        /* \"contracts/NewMarketplace.sol\":4095:4103  rentable */\n      dup9\n        /* \"contracts/NewMarketplace.sol\":4095:4112  rentable.duration */\n      0x05\n      add\n      sload\n        /* \"contracts/NewMarketplace.sol\":4016:4113  ItemRented(_itemContract, rentable.tokenId, rentable.seller, buyer, msg.value, rentable.duration) */\n      mload(0x40)\n      tag_127\n      swap7\n      swap6\n      swap5\n      swap4\n      swap3\n      swap2\n      swap1\n      tag_128\n      jump\t// in\n    tag_127:\n      mload(0x40)\n      dup1\n      swap2\n      sub\n      swap1\n      log1\n        /* \"contracts/NewMarketplace.sol\":3608:4119  {... */\n      pop\n      pop\n      pop\n        /* \"@openzeppelin/contracts/utils/ReentrancyGuard.sol\":2455:2475  _nonReentrantAfter() */\n      tag_129\n        /* \"@openzeppelin/contracts/utils/ReentrancyGuard.sol\":2455:2473  _nonReentrantAfter */\n      tag_104\n        /* \"@openzeppelin/contracts/utils/ReentrancyGuard.sol\":2455:2475  _nonReentrantAfter() */\n      jump\t// in\n    tag_129:\n        /* \"contracts/NewMarketplace.sol\":3521:4119  function rentItem(address _itemContract, uint256 _tokenId) public payable nonReentrant {... */\n      pop\n      pop\n      jump\t// out\n        /* \"contracts/NewMarketplace.sol\":1468:2159  function listItem(address _itemContract, uint256 _tokenId, uint256 _price) public payable nonReentrant {... */\n    tag_38:\n        /* \"@openzeppelin/contracts/utils/ReentrancyGuard.sol\":2411:2432  _nonReentrantBefore() */\n      tag_131\n        /* \"@openzeppelin/contracts/utils/ReentrancyGuard.sol\":2411:2430  _nonReentrantBefore */\n      tag_85\n        /* \"@openzeppelin/contracts/utils/ReentrancyGuard.sol\":2411:2432  _nonReentrantBefore() */\n      jump\t// in\n    tag_131:\n        /* \"contracts/NewMarketplace.sol\":1595:1596  0 */\n      0x00\n        /* \"contracts/NewMarketplace.sol\":1586:1592  _price */\n      dup2\n        /* \"contracts/NewMarketplace.sol\":1586:1596  _price > 0 */\n      gt\n        /* \"contracts/NewMarketplace.sol\":1578:1630  require(_price > 0, \"Price must be greater than 0.\") */\n      tag_133\n      jumpi\n      mload(0x40)\n      0x08c379a000000000000000000000000000000000000000000000000000000000\n      dup2\n      mstore\n      0x04\n      add\n      tag_134\n      swap1\n      tag_89\n      jump\t// in\n    tag_134:\n      mload(0x40)\n      dup1\n      swap2\n      sub\n      swap1\n      revert\n    tag_133:\n        /* \"contracts/NewMarketplace.sol\":1658:1669  LISTING_FEE */\n      sload(0x03)\n        /* \"contracts/NewMarketplace.sol\":1645:1654  msg.value */\n      callvalue\n        /* \"contracts/NewMarketplace.sol\":1645:1669  msg.value == LISTING_FEE */\n      eq\n        /* \"contracts/NewMarketplace.sol\":1637:1735  require(msg.value == LISTING_FEE, \"Please remove value before listing item, listing fee is free.\") */\n      tag_135\n      jumpi\n      mload(0x40)\n      0x08c379a000000000000000000000000000000000000000000000000000000000\n      dup2\n      mstore\n      0x04\n      add\n      tag_136\n      swap1\n      tag_92\n      jump\t// in\n    tag_136:\n      mload(0x40)\n      dup1\n      swap2\n      sub\n      swap1\n      revert\n    tag_135:\n        /* \"contracts/NewMarketplace.sol\":1752:1765  _itemContract */\n      dup3\n        /* \"contracts/NewMarketplace.sol\":1744:1779  IERC721(_itemContract).transferFrom */\n      0xffffffffffffffffffffffffffffffffffffffff\n      and\n      0x23b872dd\n        /* \"contracts/NewMarketplace.sol\":1780:1790  msg.sender */\n      caller\n        /* \"contracts/NewMarketplace.sol\":1800:1804  this */\n      address\n        /* \"contracts/NewMarketplace.sol\":1807:1815  _tokenId */\n      dup6\n        /* \"contracts/NewMarketplace.sol\":1744:1816  IERC721(_itemContract).transferFrom(msg.sender, address(this), _tokenId) */\n      mload(0x40)\n      dup5\n      0xffffffff\n      and\n      0xe0\n      shl\n      dup2\n      mstore\n      0x04\n      add\n      tag_137\n      swap4\n      swap3\n      swap2\n      swap1\n      tag_94\n      jump\t// in\n    tag_137:\n      0x00\n      mload(0x40)\n      dup1\n      dup4\n      sub\n      dup2\n      0x00\n      dup8\n      dup1\n      extcodesize\n      iszero\n      dup1\n      iszero\n      tag_138\n      jumpi\n      0x00\n      dup1\n      revert\n    tag_138:\n      pop\n      gas\n      call\n      iszero\n      dup1\n      iszero\n      tag_140\n      jumpi\n      returndatasize\n      0x00\n      dup1\n      returndatacopy\n      revert(0x00, returndatasize)\n    tag_140:\n      pop\n      pop\n      pop\n      pop\n        /* \"contracts/NewMarketplace.sol\":1823:1835  _marketOwner */\n      0x04\n      0x00\n      swap1\n      sload\n      swap1\n      0x0100\n      exp\n      swap1\n      div\n      0xffffffffffffffffffffffffffffffffffffffff\n      and\n        /* \"contracts/NewMarketplace.sol\":1823:1844  _marketOwner.transfer */\n      0xffffffffffffffffffffffffffffffffffffffff\n      and\n        /* \"contracts/NewMarketplace.sol\":1823:1857  _marketOwner.transfer(LISTING_FEE) */\n      0x08fc\n        /* \"contracts/NewMarketplace.sol\":1845:1856  LISTING_FEE */\n      sload(0x03)\n        /* \"contracts/NewMarketplace.sol\":1823:1857  _marketOwner.transfer(LISTING_FEE) */\n      swap1\n      dup2\n      iszero\n      mul\n      swap1\n      mload(0x40)\n      0x00\n      mload(0x40)\n      dup1\n      dup4\n      sub\n      dup2\n      dup6\n      dup9\n      dup9\n      call\n      swap4\n      pop\n      pop\n      pop\n      pop\n      iszero\n      dup1\n      iszero\n      tag_142\n      jumpi\n      returndatasize\n      0x00\n      dup1\n      returndatacopy\n      revert(0x00, returndatasize)\n    tag_142:\n      pop\n        /* \"contracts/NewMarketplace.sol\":1864:1874  _itemCount */\n      0x02\n      0x00\n        /* \"contracts/NewMarketplace.sol\":1864:1876  _itemCount++ */\n      dup2\n      sload\n      dup1\n      swap3\n      swap2\n      swap1\n      tag_143\n      swap1\n      tag_63\n      jump\t// in\n    tag_143:\n      swap2\n      swap1\n      pop\n      sstore\n      pop\n        /* \"contracts/NewMarketplace.sol\":1907:2069  Item(... */\n      mload(0x40)\n      dup1\n      0x0100\n      add\n      0x40\n      mstore\n      dup1\n        /* \"contracts/NewMarketplace.sol\":1920:1933  _itemContract */\n      dup5\n        /* \"contracts/NewMarketplace.sol\":1907:2069  Item(... */\n      0xffffffffffffffffffffffffffffffffffffffff\n      and\n      dup2\n      mstore\n      0x20\n      add\n        /* \"contracts/NewMarketplace.sol\":1942:1950  _tokenId */\n      dup4\n        /* \"contracts/NewMarketplace.sol\":1907:2069  Item(... */\n      dup2\n      mstore\n      0x20\n      add\n        /* \"contracts/NewMarketplace.sol\":1968:1978  msg.sender */\n      caller\n        /* \"contracts/NewMarketplace.sol\":1907:2069  Item(... */\n      0xffffffffffffffffffffffffffffffffffffffff\n      and\n      dup2\n      mstore\n      0x20\n      add\n        /* \"contracts/NewMarketplace.sol\":2004:2008  this */\n      address\n        /* \"contracts/NewMarketplace.sol\":1907:2069  Item(... */\n      0xffffffffffffffffffffffffffffffffffffffff\n      and\n      dup2\n      mstore\n      0x20\n      add\n        /* \"contracts/NewMarketplace.sol\":2019:2025  _price */\n      dup3\n        /* \"contracts/NewMarketplace.sol\":1907:2069  Item(... */\n      dup2\n      mstore\n      0x20\n      add\n        /* \"contracts/NewMarketplace.sol\":2034:2038  true */\n      0x01\n        /* \"contracts/NewMarketplace.sol\":1907:2069  Item(... */\n      iszero\n      iszero\n      dup2\n      mstore\n      0x20\n      add\n        /* \"contracts/NewMarketplace.sol\":2047:2052  false */\n      0x00\n        /* \"contracts/NewMarketplace.sol\":1907:2069  Item(... */\n      iszero\n      iszero\n      dup2\n      mstore\n      0x20\n      add\n        /* \"contracts/NewMarketplace.sol\":2061:2062  0 */\n      0x00\n        /* \"contracts/NewMarketplace.sol\":1907:2069  Item(... */\n      dup2\n      mstore\n      pop\n        /* \"contracts/NewMarketplace.sol\":1885:1894  _idToItem */\n      0x05\n        /* \"contracts/NewMarketplace.sol\":1885:1904  _idToItem[_tokenId] */\n      0x00\n        /* \"contracts/NewMarketplace.sol\":1895:1903  _tokenId */\n      dup5\n        /* \"contracts/NewMarketplace.sol\":1885:1904  _idToItem[_tokenId] */\n      dup2\n      mstore\n      0x20\n      add\n      swap1\n      dup2\n      mstore\n      0x20\n      add\n      0x00\n      keccak256\n        /* \"contracts/NewMarketplace.sol\":1885:2069  _idToItem[_tokenId] = Item(... */\n      0x00\n      dup3\n      add\n      mload\n      dup2\n      0x00\n      add\n      exp(0x0100, 0x00)\n      dup2\n      sload\n      dup2\n      0xffffffffffffffffffffffffffffffffffffffff\n      mul\n      not\n      and\n      swap1\n      dup4\n      0xffffffffffffffffffffffffffffffffffffffff\n      and\n      mul\n      or\n      swap1\n      sstore\n      pop\n      0x20\n      dup3\n      add\n      mload\n      dup2\n      0x01\n      add\n      sstore\n      0x40\n      dup3\n      add\n      mload\n      dup2\n      0x02\n      add\n      exp(0x0100, 0x00)\n      dup2\n      sload\n      dup2\n      0xffffffffffffffffffffffffffffffffffffffff\n      mul\n      not\n      and\n      swap1\n      dup4\n      0xffffffffffffffffffffffffffffffffffffffff\n      and\n      mul\n      or\n      swap1\n      sstore\n      pop\n      0x60\n      dup3\n      add\n      mload\n      dup2\n      0x03\n      add\n      exp(0x0100, 0x00)\n      dup2\n      sload\n      dup2\n      0xffffffffffffffffffffffffffffffffffffffff\n      mul\n      not\n      and\n      swap1\n      dup4\n      0xffffffffffffffffffffffffffffffffffffffff\n      and\n      mul\n      or\n      swap1\n      sstore\n      pop\n      0x80\n      dup3\n      add\n      mload\n      dup2\n      0x04\n      add\n      sstore\n      0xa0\n      dup3\n      add\n      mload\n      dup2\n      0x05\n      add\n      exp(0x0100, 0x00)\n      dup2\n      sload\n      dup2\n      0xff\n      mul\n      not\n      and\n      swap1\n      dup4\n      iszero\n      iszero\n      mul\n      or\n      swap1\n      sstore\n      pop\n      0xc0\n      dup3\n      add\n      mload\n      dup2\n      0x05\n      add\n      exp(0x0100, 0x01)\n      dup2\n      sload\n      dup2\n      0xff\n      mul\n      not\n      and\n      swap1\n      dup4\n      iszero\n      iszero\n      mul\n      or\n      swap1\n      sstore\n      pop\n      0xe0\n      dup3\n      add\n      mload\n      dup2\n      0x06\n      add\n      sstore\n      swap1\n      pop\n      pop\n        /* \"contracts/NewMarketplace.sol\":2083:2153  ItemListed(_itemContract, _tokenId, msg.sender, address(this), _price) */\n      0x11c21af595f44fac6eedae35c674772188a2ece1a360e7e45b9632d80b53a196\n        /* \"contracts/NewMarketplace.sol\":2094:2107  _itemContract */\n      dup4\n        /* \"contracts/NewMarketplace.sol\":2109:2117  _tokenId */\n      dup4\n        /* \"contracts/NewMarketplace.sol\":2119:2129  msg.sender */\n      caller\n        /* \"contracts/NewMarketplace.sol\":2139:2143  this */\n      address\n        /* \"contracts/NewMarketplace.sol\":2146:2152  _price */\n      dup6\n        /* \"contracts/NewMarketplace.sol\":2083:2153  ItemListed(_itemContract, _tokenId, msg.sender, address(this), _price) */\n      mload(0x40)\n      tag_144\n      swap6\n      swap5\n      swap4\n      swap3\n      swap2\n      swap1\n      tag_145\n      jump\t// in\n    tag_144:\n      mload(0x40)\n      dup1\n      swap2\n      sub\n      swap1\n      log1\n        /* \"@openzeppelin/contracts/utils/ReentrancyGuard.sol\":2455:2475  _nonReentrantAfter() */\n      tag_146\n        /* \"@openzeppelin/contracts/utils/ReentrancyGuard.sol\":2455:2473  _nonReentrantAfter */\n      tag_104\n        /* \"@openzeppelin/contracts/utils/ReentrancyGuard.sol\":2455:2475  _nonReentrantAfter() */\n      jump\t// in\n    tag_146:\n        /* \"contracts/NewMarketplace.sol\":1468:2159  function listItem(address _itemContract, uint256 _tokenId, uint256 _price) public payable nonReentrant {... */\n      pop\n      pop\n      pop\n      jump\t// out\n        /* \"contracts/NewMarketplace.sol\":4559:5169  function resellItem(address _itemContract, uint256 _tokenId, uint256 _price) public payable nonReentrant {... */\n    tag_41:\n        /* \"@openzeppelin/contracts/utils/ReentrancyGuard.sol\":2411:2432  _nonReentrantBefore() */\n      tag_148\n        /* \"@openzeppelin/contracts/utils/ReentrancyGuard.sol\":2411:2430  _nonReentrantBefore */\n      tag_85\n        /* \"@openzeppelin/contracts/utils/ReentrancyGuard.sol\":2411:2432  _nonReentrantBefore() */\n      jump\t// in\n    tag_148:\n        /* \"contracts/NewMarketplace.sol\":4688:4689  0 */\n      0x00\n        /* \"contracts/NewMarketplace.sol\":4679:4685  _price */\n      dup2\n        /* \"contracts/NewMarketplace.sol\":4679:4689  _price > 0 */\n      gt\n        /* \"contracts/NewMarketplace.sol\":4671:4722  require(_price > 0, \"Price must be at least 1 wei\") */\n      tag_150\n      jumpi\n      mload(0x40)\n      0x08c379a000000000000000000000000000000000000000000000000000000000\n      dup2\n      mstore\n      0x04\n      add\n      tag_151\n      swap1\n      tag_152\n      jump\t// in\n    tag_151:\n      mload(0x40)\n      dup1\n      swap2\n      sub\n      swap1\n      revert\n    tag_150:\n        /* \"contracts/NewMarketplace.sol\":4750:4761  LISTING_FEE */\n      sload(0x03)\n        /* \"contracts/NewMarketplace.sol\":4737:4746  msg.value */\n      callvalue\n        /* \"contracts/NewMarketplace.sol\":4737:4761  msg.value == LISTING_FEE */\n      eq\n        /* \"contracts/NewMarketplace.sol\":4729:4798  require(msg.value == LISTING_FEE, \"Not enough ether for listing fee\") */\n      tag_153\n      jumpi\n      mload(0x40)\n      0x08c379a000000000000000000000000000000000000000000000000000000000\n      dup2\n      mstore\n      0x04\n      add\n      tag_154\n      swap1\n      tag_155\n      jump\t// in\n    tag_154:\n      mload(0x40)\n      dup1\n      swap2\n      sub\n      swap1\n      revert\n    tag_153:\n        /* \"contracts/NewMarketplace.sol\":4815:4828  _itemContract */\n      dup3\n        /* \"contracts/NewMarketplace.sol\":4807:4842  IERC721(_itemContract).transferFrom */\n      0xffffffffffffffffffffffffffffffffffffffff\n      and\n      0x23b872dd\n        /* \"contracts/NewMarketplace.sol\":4843:4853  msg.sender */\n      caller\n        /* \"contracts/NewMarketplace.sol\":4863:4867  this */\n      address\n        /* \"contracts/NewMarketplace.sol\":4870:4878  _tokenId */\n      dup6\n        /* \"contracts/NewMarketplace.sol\":4807:4879  IERC721(_itemContract).transferFrom(msg.sender, address(this), _tokenId) */\n      mload(0x40)\n      dup5\n      0xffffffff\n      and\n      0xe0\n      shl\n      dup2\n      mstore\n      0x04\n      add\n      tag_156\n      swap4\n      swap3\n      swap2\n      swap1\n      tag_94\n      jump\t// in\n    tag_156:\n      0x00\n      mload(0x40)\n      dup1\n      dup4\n      sub\n      dup2\n      0x00\n      dup8\n      dup1\n      extcodesize\n      iszero\n      dup1\n      iszero\n      tag_157\n      jumpi\n      0x00\n      dup1\n      revert\n    tag_157:\n      pop\n      gas\n      call\n      iszero\n      dup1\n      iszero\n      tag_159\n      jumpi\n      returndatasize\n      0x00\n      dup1\n      returndatacopy\n      revert(0x00, returndatasize)\n    tag_159:\n      pop\n      pop\n      pop\n      pop\n        /* \"contracts/NewMarketplace.sol\":4888:4905  Item storage item */\n      0x00\n        /* \"contracts/NewMarketplace.sol\":4908:4917  _idToItem */\n      0x05\n        /* \"contracts/NewMarketplace.sol\":4908:4927  _idToItem[_tokenId] */\n      0x00\n        /* \"contracts/NewMarketplace.sol\":4918:4926  _tokenId */\n      dup5\n        /* \"contracts/NewMarketplace.sol\":4908:4927  _idToItem[_tokenId] */\n      dup2\n      mstore\n      0x20\n      add\n      swap1\n      dup2\n      mstore\n      0x20\n      add\n      0x00\n      keccak256\n        /* \"contracts/NewMarketplace.sol\":4888:4927  Item storage item = _idToItem[_tokenId] */\n      swap1\n      pop\n        /* \"contracts/NewMarketplace.sol\":4956:4966  msg.sender */\n      caller\n        /* \"contracts/NewMarketplace.sol\":4934:4938  item */\n      dup2\n        /* \"contracts/NewMarketplace.sol\":4934:4945  item.seller */\n      0x02\n      add\n      0x00\n        /* \"contracts/NewMarketplace.sol\":4934:4967  item.seller = payable(msg.sender) */\n      0x0100\n      exp\n      dup2\n      sload\n      dup2\n      0xffffffffffffffffffffffffffffffffffffffff\n      mul\n      not\n      and\n      swap1\n      dup4\n      0xffffffffffffffffffffffffffffffffffffffff\n      and\n      mul\n      or\n      swap1\n      sstore\n      pop\n        /* \"contracts/NewMarketplace.sol\":5003:5007  this */\n      address\n        /* \"contracts/NewMarketplace.sol\":4974:4978  item */\n      dup2\n        /* \"contracts/NewMarketplace.sol\":4974:4984  item.owner */\n      0x03\n      add\n      0x00\n        /* \"contracts/NewMarketplace.sol\":4974:5009  item.owner = payable(address(this)) */\n      0x0100\n      exp\n      dup2\n      sload\n      dup2\n      0xffffffffffffffffffffffffffffffffffffffff\n      mul\n      not\n      and\n      swap1\n      dup4\n      0xffffffffffffffffffffffffffffffffffffffff\n      and\n      mul\n      or\n      swap1\n      sstore\n      pop\n        /* \"contracts/NewMarketplace.sol\":5030:5034  true */\n      0x01\n        /* \"contracts/NewMarketplace.sol\":5016:5020  item */\n      dup2\n        /* \"contracts/NewMarketplace.sol\":5016:5027  item.listed */\n      0x05\n      add\n      0x00\n        /* \"contracts/NewMarketplace.sol\":5016:5034  item.listed = true */\n      0x0100\n      exp\n      dup2\n      sload\n      dup2\n      0xff\n      mul\n      not\n      and\n      swap1\n      dup4\n      iszero\n      iszero\n      mul\n      or\n      swap1\n      sstore\n      pop\n        /* \"contracts/NewMarketplace.sol\":5054:5060  _price */\n      dup2\n        /* \"contracts/NewMarketplace.sol\":5041:5045  item */\n      dup2\n        /* \"contracts/NewMarketplace.sol\":5041:5051  item.price */\n      0x04\n      add\n        /* \"contracts/NewMarketplace.sol\":5041:5060  item.price = _price */\n      dup2\n      swap1\n      sstore\n      pop\n        /* \"contracts/NewMarketplace.sol\":5069:5079  _itemsSold */\n      0x01\n      0x00\n        /* \"contracts/NewMarketplace.sol\":5069:5081  _itemsSold-- */\n      dup2\n      sload\n      dup1\n      swap3\n      swap2\n      swap1\n      tag_160\n      swap1\n      tag_115\n      jump\t// in\n    tag_160:\n      swap2\n      swap1\n      pop\n      sstore\n      pop\n        /* \"contracts/NewMarketplace.sol\":5093:5163  ItemListed(_itemContract, _tokenId, msg.sender, address(this), _price) */\n      0x11c21af595f44fac6eedae35c674772188a2ece1a360e7e45b9632d80b53a196\n        /* \"contracts/NewMarketplace.sol\":5104:5117  _itemContract */\n      dup5\n        /* \"contracts/NewMarketplace.sol\":5119:5127  _tokenId */\n      dup5\n        /* \"contracts/NewMarketplace.sol\":5129:5139  msg.sender */\n      caller\n        /* \"contracts/NewMarketplace.sol\":5149:5153  this */\n      address\n        /* \"contracts/NewMarketplace.sol\":5156:5162  _price */\n      dup7\n        /* \"contracts/NewMarketplace.sol\":5093:5163  ItemListed(_itemContract, _tokenId, msg.sender, address(this), _price) */\n      mload(0x40)\n      tag_161\n      swap6\n      swap5\n      swap4\n      swap3\n      swap2\n      swap1\n      tag_145\n      jump\t// in\n    tag_161:\n      mload(0x40)\n      dup1\n      swap2\n      sub\n      swap1\n      log1\n        /* \"contracts/NewMarketplace.sol\":4664:5169  {... */\n      pop\n        /* \"@openzeppelin/contracts/utils/ReentrancyGuard.sol\":2455:2475  _nonReentrantAfter() */\n      tag_162\n        /* \"@openzeppelin/contracts/utils/ReentrancyGuard.sol\":2455:2473  _nonReentrantAfter */\n      tag_104\n        /* \"@openzeppelin/contracts/utils/ReentrancyGuard.sol\":2455:2475  _nonReentrantAfter() */\n      jump\t// in\n    tag_162:\n        /* \"contracts/NewMarketplace.sol\":4559:5169  function resellItem(address _itemContract, uint256 _tokenId, uint256 _price) public payable nonReentrant {... */\n      pop\n      pop\n      pop\n      jump\t// out\n        /* \"contracts/NewMarketplace.sol\":2953:3499  function buyItem(address _itemContract, uint256 _tokenId) public payable nonReentrant {... */\n    tag_44:\n        /* \"@openzeppelin/contracts/utils/ReentrancyGuard.sol\":2411:2432  _nonReentrantBefore() */\n      tag_164\n        /* \"@openzeppelin/contracts/utils/ReentrancyGuard.sol\":2411:2430  _nonReentrantBefore */\n      tag_85\n        /* \"@openzeppelin/contracts/utils/ReentrancyGuard.sol\":2411:2432  _nonReentrantBefore() */\n      jump\t// in\n    tag_164:\n        /* \"contracts/NewMarketplace.sol\":3046:3063  Item storage item */\n      0x00\n        /* \"contracts/NewMarketplace.sol\":3066:3075  _idToItem */\n      0x05\n        /* \"contracts/NewMarketplace.sol\":3066:3085  _idToItem[_tokenId] */\n      0x00\n        /* \"contracts/NewMarketplace.sol\":3076:3084  _tokenId */\n      dup4\n        /* \"contracts/NewMarketplace.sol\":3066:3085  _idToItem[_tokenId] */\n      dup2\n      mstore\n      0x20\n      add\n      swap1\n      dup2\n      mstore\n      0x20\n      add\n      0x00\n      keccak256\n        /* \"contracts/NewMarketplace.sol\":3046:3085  Item storage item = _idToItem[_tokenId] */\n      swap1\n      pop\n        /* \"contracts/NewMarketplace.sol\":3113:3117  item */\n      dup1\n        /* \"contracts/NewMarketplace.sol\":3113:3123  item.price */\n      0x04\n      add\n      sload\n        /* \"contracts/NewMarketplace.sol\":3100:3109  msg.value */\n      callvalue\n        /* \"contracts/NewMarketplace.sol\":3100:3123  msg.value >= item.price */\n      lt\n      iszero\n        /* \"contracts/NewMarketplace.sol\":3092:3164  require(msg.value >= item.price, \"Insufficient funds to purchase item.\") */\n      tag_166\n      jumpi\n      mload(0x40)\n      0x08c379a000000000000000000000000000000000000000000000000000000000\n      dup2\n      mstore\n      0x04\n      add\n      tag_167\n      swap1\n      tag_168\n      jump\t// in\n    tag_167:\n      mload(0x40)\n      dup1\n      swap2\n      sub\n      swap1\n      revert\n    tag_166:\n        /* \"contracts/NewMarketplace.sol\":3173:3194  address payable buyer */\n      0x00\n        /* \"contracts/NewMarketplace.sol\":3205:3215  msg.sender */\n      caller\n        /* \"contracts/NewMarketplace.sol\":3173:3216  address payable buyer = payable(msg.sender) */\n      swap1\n      pop\n        /* \"contracts/NewMarketplace.sol\":3231:3235  item */\n      dup2\n        /* \"contracts/NewMarketplace.sol\":3231:3242  item.seller */\n      0x02\n      add\n      0x00\n      swap1\n      sload\n      swap1\n      0x0100\n      exp\n      swap1\n      div\n      0xffffffffffffffffffffffffffffffffffffffff\n      and\n        /* \"contracts/NewMarketplace.sol\":3223:3252  payable(item.seller).transfer */\n      0xffffffffffffffffffffffffffffffffffffffff\n      and\n        /* \"contracts/NewMarketplace.sol\":3223:3263  payable(item.seller).transfer(msg.value) */\n      0x08fc\n        /* \"contracts/NewMarketplace.sol\":3253:3262  msg.value */\n      callvalue\n        /* \"contracts/NewMarketplace.sol\":3223:3263  payable(item.seller).transfer(msg.value) */\n      swap1\n      dup2\n      iszero\n      mul\n      swap1\n      mload(0x40)\n      0x00\n      mload(0x40)\n      dup1\n      dup4\n      sub\n      dup2\n      dup6\n      dup9\n      dup9\n      call\n      swap4\n      pop\n      pop\n      pop\n      pop\n      iszero\n      dup1\n      iszero\n      tag_170\n      jumpi\n      returndatasize\n      0x00\n      dup1\n      returndatacopy\n      revert(0x00, returndatasize)\n    tag_170:\n      pop\n        /* \"contracts/NewMarketplace.sol\":3278:3291  _itemContract */\n      dup4\n        /* \"contracts/NewMarketplace.sol\":3270:3305  IERC721(_itemContract).transferFrom */\n      0xffffffffffffffffffffffffffffffffffffffff\n      and\n      0x23b872dd\n        /* \"contracts/NewMarketplace.sol\":3314:3318  this */\n      address\n        /* \"contracts/NewMarketplace.sol\":3321:3326  buyer */\n      dup4\n        /* \"contracts/NewMarketplace.sol\":3328:3332  item */\n      dup6\n        /* \"contracts/NewMarketplace.sol\":3328:3340  item.tokenId */\n      0x01\n      add\n      sload\n        /* \"contracts/NewMarketplace.sol\":3270:3341  IERC721(_itemContract).transferFrom(address(this), buyer, item.tokenId) */\n      mload(0x40)\n      dup5\n      0xffffffff\n      and\n      0xe0\n      shl\n      dup2\n      mstore\n      0x04\n      add\n      tag_171\n      swap4\n      swap3\n      swap2\n      swap1\n      tag_172\n      jump\t// in\n    tag_171:\n      0x00\n      mload(0x40)\n      dup1\n      dup4\n      sub\n      dup2\n      0x00\n      dup8\n      dup1\n      extcodesize\n      iszero\n      dup1\n      iszero\n      tag_173\n      jumpi\n      0x00\n      dup1\n      revert\n    tag_173:\n      pop\n      gas\n      call\n      iszero\n      dup1\n      iszero\n      tag_175\n      jumpi\n      returndatasize\n      0x00\n      dup1\n      returndatacopy\n      revert(0x00, returndatasize)\n    tag_175:\n      pop\n      pop\n      pop\n      pop\n        /* \"contracts/NewMarketplace.sol\":3361:3366  buyer */\n      dup1\n        /* \"contracts/NewMarketplace.sol\":3348:3352  item */\n      dup3\n        /* \"contracts/NewMarketplace.sol\":3348:3358  item.owner */\n      0x03\n      add\n      0x00\n        /* \"contracts/NewMarketplace.sol\":3348:3366  item.owner = buyer */\n      0x0100\n      exp\n      dup2\n      sload\n      dup2\n      0xffffffffffffffffffffffffffffffffffffffff\n      mul\n      not\n      and\n      swap1\n      dup4\n      0xffffffffffffffffffffffffffffffffffffffff\n      and\n      mul\n      or\n      swap1\n      sstore\n      pop\n        /* \"contracts/NewMarketplace.sol\":3387:3392  false */\n      0x00\n        /* \"contracts/NewMarketplace.sol\":3373:3377  item */\n      dup3\n        /* \"contracts/NewMarketplace.sol\":3373:3384  item.listed */\n      0x05\n      add\n      0x00\n        /* \"contracts/NewMarketplace.sol\":3373:3392  item.listed = false */\n      0x0100\n      exp\n      dup2\n      sload\n      dup2\n      0xff\n      mul\n      not\n      and\n      swap1\n      dup4\n      iszero\n      iszero\n      mul\n      or\n      swap1\n      sstore\n      pop\n        /* \"contracts/NewMarketplace.sol\":3401:3411  _itemsSold */\n      0x01\n      0x00\n        /* \"contracts/NewMarketplace.sol\":3401:3413  _itemsSold++ */\n      dup2\n      sload\n      dup1\n      swap3\n      swap2\n      swap1\n      tag_176\n      swap1\n      tag_63\n      jump\t// in\n    tag_176:\n      swap2\n      swap1\n      pop\n      sstore\n      pop\n        /* \"contracts/NewMarketplace.sol\":3425:3493  ItemSold(_itemContract, item.tokenId, item.seller, buyer, msg.value) */\n      0xbcf10c39f62b09d50efa1e275c1297b15ef10efd0e4e9b54883d782eef4ef564\n        /* \"contracts/NewMarketplace.sol\":3434:3447  _itemContract */\n      dup5\n        /* \"contracts/NewMarketplace.sol\":3449:3453  item */\n      dup4\n        /* \"contracts/NewMarketplace.sol\":3449:3461  item.tokenId */\n      0x01\n      add\n      sload\n        /* \"contracts/NewMarketplace.sol\":3463:3467  item */\n      dup5\n        /* \"contracts/NewMarketplace.sol\":3463:3474  item.seller */\n      0x02\n      add\n      0x00\n      swap1\n      sload\n      swap1\n      0x0100\n      exp\n      swap1\n      div\n      0xffffffffffffffffffffffffffffffffffffffff\n      and\n        /* \"contracts/NewMarketplace.sol\":3476:3481  buyer */\n      dup5\n        /* \"contracts/NewMarketplace.sol\":3483:3492  msg.value */\n      callvalue\n        /* \"contracts/NewMarketplace.sol\":3425:3493  ItemSold(_itemContract, item.tokenId, item.seller, buyer, msg.value) */\n      mload(0x40)\n      tag_177\n      swap6\n      swap5\n      swap4\n      swap3\n      swap2\n      swap1\n      tag_178\n      jump\t// in\n    tag_177:\n      mload(0x40)\n      dup1\n      swap2\n      sub\n      swap1\n      log1\n        /* \"contracts/NewMarketplace.sol\":3039:3499  {... */\n      pop\n      pop\n        /* \"@openzeppelin/contracts/utils/ReentrancyGuard.sol\":2455:2475  _nonReentrantAfter() */\n      tag_179\n        /* \"@openzeppelin/contracts/utils/ReentrancyGuard.sol\":2455:2473  _nonReentrantAfter */\n      tag_104\n        /* \"@openzeppelin/contracts/utils/ReentrancyGuard.sol\":2455:2475  _nonReentrantAfter() */\n      jump\t// in\n    tag_179:\n        /* \"contracts/NewMarketplace.sol\":2953:3499  function buyItem(address _itemContract, uint256 _tokenId) public payable nonReentrant {... */\n      pop\n      pop\n      jump\t// out\n        /* \"contracts/NewMarketplace.sol\":5614:6154  function getMyItems() public view returns (Item[] memory) {... */\n    tag_47:\n        /* \"contracts/NewMarketplace.sol\":5657:5670  Item[] memory */\n      0x60\n        /* \"contracts/NewMarketplace.sol\":5679:5693  uint itemCount */\n      0x00\n        /* \"contracts/NewMarketplace.sol\":5696:5706  _itemCount */\n      sload(0x02)\n        /* \"contracts/NewMarketplace.sol\":5679:5706  uint itemCount = _itemCount */\n      swap1\n      pop\n        /* \"contracts/NewMarketplace.sol\":5713:5729  uint myItemCount */\n      0x00\n        /* \"contracts/NewMarketplace.sol\":5745:5751  uint i */\n      dup1\n        /* \"contracts/NewMarketplace.sol\":5740:5869  for (uint i = 0; i < itemCount; i++) {... */\n    tag_181:\n        /* \"contracts/NewMarketplace.sol\":5761:5770  itemCount */\n      dup3\n        /* \"contracts/NewMarketplace.sol\":5757:5758  i */\n      dup2\n        /* \"contracts/NewMarketplace.sol\":5757:5770  i < itemCount */\n      lt\n        /* \"contracts/NewMarketplace.sol\":5740:5869  for (uint i = 0; i < itemCount; i++) {... */\n      iszero\n      tag_182\n      jumpi\n        /* \"contracts/NewMarketplace.sol\":5816:5826  msg.sender */\n      caller\n        /* \"contracts/NewMarketplace.sol\":5790:5826  _idToItem[i + 1].owner == msg.sender */\n      0xffffffffffffffffffffffffffffffffffffffff\n      and\n        /* \"contracts/NewMarketplace.sol\":5790:5799  _idToItem */\n      0x05\n        /* \"contracts/NewMarketplace.sol\":5790:5806  _idToItem[i + 1] */\n      0x00\n        /* \"contracts/NewMarketplace.sol\":5804:5805  1 */\n      0x01\n        /* \"contracts/NewMarketplace.sol\":5800:5801  i */\n      dup5\n        /* \"contracts/NewMarketplace.sol\":5800:5805  i + 1 */\n      tag_184\n      swap2\n      swap1\n      tag_58\n      jump\t// in\n    tag_184:\n        /* \"contracts/NewMarketplace.sol\":5790:5806  _idToItem[i + 1] */\n      dup2\n      mstore\n      0x20\n      add\n      swap1\n      dup2\n      mstore\n      0x20\n      add\n      0x00\n      keccak256\n        /* \"contracts/NewMarketplace.sol\":5790:5812  _idToItem[i + 1].owner */\n      0x03\n      add\n      0x00\n      swap1\n      sload\n      swap1\n      0x0100\n      exp\n      swap1\n      div\n      0xffffffffffffffffffffffffffffffffffffffff\n      and\n        /* \"contracts/NewMarketplace.sol\":5790:5826  _idToItem[i + 1].owner == msg.sender */\n      0xffffffffffffffffffffffffffffffffffffffff\n      and\n      sub\n        /* \"contracts/NewMarketplace.sol\":5786:5862  if (_idToItem[i + 1].owner == msg.sender) {... */\n      tag_185\n      jumpi\n        /* \"contracts/NewMarketplace.sol\":5839:5852  myItemCount++ */\n      dup2\n      dup1\n      tag_186\n      swap1\n      tag_63\n      jump\t// in\n    tag_186:\n      swap3\n      pop\n      pop\n        /* \"contracts/NewMarketplace.sol\":5786:5862  if (_idToItem[i + 1].owner == msg.sender) {... */\n    tag_185:\n        /* \"contracts/NewMarketplace.sol\":5772:5775  i++ */\n      dup1\n      dup1\n      0x01\n      add\n      swap2\n      pop\n      pop\n        /* \"contracts/NewMarketplace.sol\":5740:5869  for (uint i = 0; i < itemCount; i++) {... */\n      jump(tag_181)\n    tag_182:\n      pop\n        /* \"contracts/NewMarketplace.sol\":5877:5896  Item[] memory items */\n      0x00\n        /* \"contracts/NewMarketplace.sol\":5910:5921  myItemCount */\n      dup2\n        /* \"contracts/NewMarketplace.sol\":5899:5922  new Item[](myItemCount) */\n      0xffffffffffffffff\n      dup2\n      gt\n      iszero\n      tag_187\n      jumpi\n      tag_188\n      tag_66\n      jump\t// in\n    tag_188:\n    tag_187:\n      mload(0x40)\n      swap1\n      dup1\n      dup3\n      mstore\n      dup1\n      0x20\n      mul\n      0x20\n      add\n      dup3\n      add\n      0x40\n      mstore\n      dup1\n      iszero\n      tag_189\n      jumpi\n      dup2\n      0x20\n      add\n    tag_190:\n      tag_191\n      tag_70\n      jump\t// in\n    tag_191:\n      dup2\n      mstore\n      0x20\n      add\n      swap1\n      0x01\n      swap1\n      sub\n      swap1\n      dup2\n      tag_190\n      jumpi\n      swap1\n      pop\n    tag_189:\n      pop\n        /* \"contracts/NewMarketplace.sol\":5877:5922  Item[] memory items = new Item[](myItemCount) */\n      swap1\n      pop\n        /* \"contracts/NewMarketplace.sol\":5929:5944  uint itemsIndex */\n      0x00\n        /* \"contracts/NewMarketplace.sol\":5960:5966  uint i */\n      dup1\n        /* \"contracts/NewMarketplace.sol\":5955:6130  for (uint i = 0; i < itemCount; i++) {... */\n    tag_192:\n        /* \"contracts/NewMarketplace.sol\":5976:5985  itemCount */\n      dup5\n        /* \"contracts/NewMarketplace.sol\":5972:5973  i */\n      dup2\n        /* \"contracts/NewMarketplace.sol\":5972:5985  i < itemCount */\n      lt\n        /* \"contracts/NewMarketplace.sol\":5955:6130  for (uint i = 0; i < itemCount; i++) {... */\n      iszero\n      tag_193\n      jumpi\n        /* \"contracts/NewMarketplace.sol\":6031:6041  msg.sender */\n      caller\n        /* \"contracts/NewMarketplace.sol\":6005:6041  _idToItem[i + 1].owner == msg.sender */\n      0xffffffffffffffffffffffffffffffffffffffff\n      and\n        /* \"contracts/NewMarketplace.sol\":6005:6014  _idToItem */\n      0x05\n        /* \"contracts/NewMarketplace.sol\":6005:6021  _idToItem[i + 1] */\n      0x00\n        /* \"contracts/NewMarketplace.sol\":6019:6020  1 */\n      0x01\n        /* \"contracts/NewMarketplace.sol\":6015:6016  i */\n      dup5\n        /* \"contracts/NewMarketplace.sol\":6015:6020  i + 1 */\n      tag_195\n      swap2\n      swap1\n      tag_58\n      jump\t// in\n    tag_195:\n        /* \"contracts/NewMarketplace.sol\":6005:6021  _idToItem[i + 1] */\n      dup2\n      mstore\n      0x20\n      add\n      swap1\n      dup2\n      mstore\n      0x20\n      add\n      0x00\n      keccak256\n        /* \"contracts/NewMarketplace.sol\":6005:6027  _idToItem[i + 1].owner */\n      0x03\n      add\n      0x00\n      swap1\n      sload\n      swap1\n      0x0100\n      exp\n      swap1\n      div\n      0xffffffffffffffffffffffffffffffffffffffff\n      and\n        /* \"contracts/NewMarketplace.sol\":6005:6041  _idToItem[i + 1].owner == msg.sender */\n      0xffffffffffffffffffffffffffffffffffffffff\n      and\n      sub\n        /* \"contracts/NewMarketplace.sol\":6001:6123  if (_idToItem[i + 1].owner == msg.sender) {... */\n      tag_196\n      jumpi\n        /* \"contracts/NewMarketplace.sol\":6074:6083  _idToItem */\n      0x05\n        /* \"contracts/NewMarketplace.sol\":6074:6090  _idToItem[i + 1] */\n      0x00\n        /* \"contracts/NewMarketplace.sol\":6088:6089  1 */\n      0x01\n        /* \"contracts/NewMarketplace.sol\":6084:6085  i */\n      dup4\n        /* \"contracts/NewMarketplace.sol\":6084:6089  i + 1 */\n      tag_197\n      swap2\n      swap1\n      tag_58\n      jump\t// in\n    tag_197:\n        /* \"contracts/NewMarketplace.sol\":6074:6090  _idToItem[i + 1] */\n      dup2\n      mstore\n      0x20\n      add\n      swap1\n      dup2\n      mstore\n      0x20\n      add\n      0x00\n      keccak256\n        /* \"contracts/NewMarketplace.sol\":6054:6090  items[itemsIndex] = _idToItem[i + 1] */\n      mload(0x40)\n      dup1\n      0x0100\n      add\n      0x40\n      mstore\n      swap1\n      dup2\n      0x00\n      dup3\n      add\n      0x00\n      swap1\n      sload\n      swap1\n      0x0100\n      exp\n      swap1\n      div\n      0xffffffffffffffffffffffffffffffffffffffff\n      and\n      0xffffffffffffffffffffffffffffffffffffffff\n      and\n      0xffffffffffffffffffffffffffffffffffffffff\n      and\n      dup2\n      mstore\n      0x20\n      add\n      0x01\n      dup3\n      add\n      sload\n      dup2\n      mstore\n      0x20\n      add\n      0x02\n      dup3\n      add\n      0x00\n      swap1\n      sload\n      swap1\n      0x0100\n      exp\n      swap1\n      div\n      0xffffffffffffffffffffffffffffffffffffffff\n      and\n      0xffffffffffffffffffffffffffffffffffffffff\n      and\n      0xffffffffffffffffffffffffffffffffffffffff\n      and\n      dup2\n      mstore\n      0x20\n      add\n      0x03\n      dup3\n      add\n      0x00\n      swap1\n      sload\n      swap1\n      0x0100\n      exp\n      swap1\n      div\n      0xffffffffffffffffffffffffffffffffffffffff\n      and\n      0xffffffffffffffffffffffffffffffffffffffff\n      and\n      0xffffffffffffffffffffffffffffffffffffffff\n      and\n      dup2\n      mstore\n      0x20\n      add\n      0x04\n      dup3\n      add\n      sload\n      dup2\n      mstore\n      0x20\n      add\n      0x05\n      dup3\n      add\n      0x00\n      swap1\n      sload\n      swap1\n      0x0100\n      exp\n      swap1\n      div\n      0xff\n      and\n      iszero\n      iszero\n      iszero\n      iszero\n      dup2\n      mstore\n      0x20\n      add\n      0x05\n      dup3\n      add\n      0x01\n      swap1\n      sload\n      swap1\n      0x0100\n      exp\n      swap1\n      div\n      0xff\n      and\n      iszero\n      iszero\n      iszero\n      iszero\n      dup2\n      mstore\n      0x20\n      add\n      0x06\n      dup3\n      add\n      sload\n      dup2\n      mstore\n      pop\n      pop\n        /* \"contracts/NewMarketplace.sol\":6054:6059  items */\n      dup4\n        /* \"contracts/NewMarketplace.sol\":6060:6070  itemsIndex */\n      dup4\n        /* \"contracts/NewMarketplace.sol\":6054:6071  items[itemsIndex] */\n      dup2\n      mload\n      dup2\n      lt\n      tag_198\n      jumpi\n      tag_199\n      tag_81\n      jump\t// in\n    tag_199:\n    tag_198:\n      0x20\n      mul\n      0x20\n      add\n      add\n        /* \"contracts/NewMarketplace.sol\":6054:6090  items[itemsIndex] = _idToItem[i + 1] */\n      dup2\n      swap1\n      mstore\n      pop\n        /* \"contracts/NewMarketplace.sol\":6101:6113  itemsIndex++ */\n      dup2\n      dup1\n      tag_200\n      swap1\n      tag_63\n      jump\t// in\n    tag_200:\n      swap3\n      pop\n      pop\n        /* \"contracts/NewMarketplace.sol\":6001:6123  if (_idToItem[i + 1].owner == msg.sender) {... */\n    tag_196:\n        /* \"contracts/NewMarketplace.sol\":5987:5990  i++ */\n      dup1\n      dup1\n      0x01\n      add\n      swap2\n      pop\n      pop\n        /* \"contracts/NewMarketplace.sol\":5955:6130  for (uint i = 0; i < itemCount; i++) {... */\n      jump(tag_192)\n    tag_193:\n      pop\n        /* \"contracts/NewMarketplace.sol\":6143:6148  items */\n      dup2\n        /* \"contracts/NewMarketplace.sol\":6136:6148  return items */\n      swap5\n      pop\n      pop\n      pop\n      pop\n      pop\n        /* \"contracts/NewMarketplace.sol\":5614:6154  function getMyItems() public view returns (Item[] memory) {... */\n      swap1\n      jump\t// out\n        /* \"contracts/NewMarketplace.sol\":5175:5608  function getListedItems() public view returns (Item[] memory) {... */\n    tag_51:\n        /* \"contracts/NewMarketplace.sol\":5222:5235  Item[] memory */\n      0x60\n        /* \"contracts/NewMarketplace.sol\":5244:5261  uint256 itemCount */\n      0x00\n        /* \"contracts/NewMarketplace.sol\":5264:5274  _itemCount */\n      sload(0x02)\n        /* \"contracts/NewMarketplace.sol\":5244:5274  uint256 itemCount = _itemCount */\n      swap1\n      pop\n        /* \"contracts/NewMarketplace.sol\":5281:5305  uint256 unsoldItemsCount */\n      0x00\n        /* \"contracts/NewMarketplace.sol\":5320:5330  _itemsSold */\n      sload(0x01)\n        /* \"contracts/NewMarketplace.sol\":5308:5317  itemCount */\n      dup3\n        /* \"contracts/NewMarketplace.sol\":5308:5330  itemCount - _itemsSold */\n      tag_202\n      swap2\n      swap1\n      tag_203\n      jump\t// in\n    tag_202:\n        /* \"contracts/NewMarketplace.sol\":5281:5330  uint256 unsoldItemsCount = itemCount - _itemsSold */\n      swap1\n      pop\n        /* \"contracts/NewMarketplace.sol\":5339:5358  Item[] memory items */\n      0x00\n        /* \"contracts/NewMarketplace.sol\":5372:5388  unsoldItemsCount */\n      dup2\n        /* \"contracts/NewMarketplace.sol\":5361:5389  new Item[](unsoldItemsCount) */\n      0xffffffffffffffff\n      dup2\n      gt\n      iszero\n      tag_204\n      jumpi\n      tag_205\n      tag_66\n      jump\t// in\n    tag_205:\n    tag_204:\n      mload(0x40)\n      swap1\n      dup1\n      dup3\n      mstore\n      dup1\n      0x20\n      mul\n      0x20\n      add\n      dup3\n      add\n      0x40\n      mstore\n      dup1\n      iszero\n      tag_206\n      jumpi\n      dup2\n      0x20\n      add\n    tag_207:\n      tag_208\n      tag_70\n      jump\t// in\n    tag_208:\n      dup2\n      mstore\n      0x20\n      add\n      swap1\n      0x01\n      swap1\n      sub\n      swap1\n      dup2\n      tag_207\n      jumpi\n      swap1\n      pop\n    tag_206:\n      pop\n        /* \"contracts/NewMarketplace.sol\":5339:5389  Item[] memory items = new Item[](unsoldItemsCount) */\n      swap1\n      pop\n        /* \"contracts/NewMarketplace.sol\":5396:5411  uint itemsIndex */\n      0x00\n        /* \"contracts/NewMarketplace.sol\":5427:5433  uint i */\n      dup1\n        /* \"contracts/NewMarketplace.sol\":5422:5584  for (uint i = 0; i < itemCount; i++) {... */\n    tag_209:\n        /* \"contracts/NewMarketplace.sol\":5443:5452  itemCount */\n      dup5\n        /* \"contracts/NewMarketplace.sol\":5439:5440  i */\n      dup2\n        /* \"contracts/NewMarketplace.sol\":5439:5452  i < itemCount */\n      lt\n        /* \"contracts/NewMarketplace.sol\":5422:5584  for (uint i = 0; i < itemCount; i++) {... */\n      iszero\n      tag_210\n      jumpi\n        /* \"contracts/NewMarketplace.sol\":5472:5481  _idToItem */\n      0x05\n        /* \"contracts/NewMarketplace.sol\":5472:5488  _idToItem[i + 1] */\n      0x00\n        /* \"contracts/NewMarketplace.sol\":5486:5487  1 */\n      0x01\n        /* \"contracts/NewMarketplace.sol\":5482:5483  i */\n      dup4\n        /* \"contracts/NewMarketplace.sol\":5482:5487  i + 1 */\n      tag_212\n      swap2\n      swap1\n      tag_58\n      jump\t// in\n    tag_212:\n        /* \"contracts/NewMarketplace.sol\":5472:5488  _idToItem[i + 1] */\n      dup2\n      mstore\n      0x20\n      add\n      swap1\n      dup2\n      mstore\n      0x20\n      add\n      0x00\n      keccak256\n        /* \"contracts/NewMarketplace.sol\":5472:5495  _idToItem[i + 1].listed */\n      0x05\n      add\n      0x00\n      swap1\n      sload\n      swap1\n      0x0100\n      exp\n      swap1\n      div\n      0xff\n      and\n        /* \"contracts/NewMarketplace.sol\":5468:5577  if (_idToItem[i + 1].listed) {... */\n      iszero\n      tag_213\n      jumpi\n        /* \"contracts/NewMarketplace.sol\":5528:5537  _idToItem */\n      0x05\n        /* \"contracts/NewMarketplace.sol\":5528:5544  _idToItem[i + 1] */\n      0x00\n        /* \"contracts/NewMarketplace.sol\":5542:5543  1 */\n      0x01\n        /* \"contracts/NewMarketplace.sol\":5538:5539  i */\n      dup4\n        /* \"contracts/NewMarketplace.sol\":5538:5543  i + 1 */\n      tag_214\n      swap2\n      swap1\n      tag_58\n      jump\t// in\n    tag_214:\n        /* \"contracts/NewMarketplace.sol\":5528:5544  _idToItem[i + 1] */\n      dup2\n      mstore\n      0x20\n      add\n      swap1\n      dup2\n      mstore\n      0x20\n      add\n      0x00\n      keccak256\n        /* \"contracts/NewMarketplace.sol\":5508:5544  items[itemsIndex] = _idToItem[i + 1] */\n      mload(0x40)\n      dup1\n      0x0100\n      add\n      0x40\n      mstore\n      swap1\n      dup2\n      0x00\n      dup3\n      add\n      0x00\n      swap1\n      sload\n      swap1\n      0x0100\n      exp\n      swap1\n      div\n      0xffffffffffffffffffffffffffffffffffffffff\n      and\n      0xffffffffffffffffffffffffffffffffffffffff\n      and\n      0xffffffffffffffffffffffffffffffffffffffff\n      and\n      dup2\n      mstore\n      0x20\n      add\n      0x01\n      dup3\n      add\n      sload\n      dup2\n      mstore\n      0x20\n      add\n      0x02\n      dup3\n      add\n      0x00\n      swap1\n      sload\n      swap1\n      0x0100\n      exp\n      swap1\n      div\n      0xffffffffffffffffffffffffffffffffffffffff\n      and\n      0xffffffffffffffffffffffffffffffffffffffff\n      and\n      0xffffffffffffffffffffffffffffffffffffffff\n      and\n      dup2\n      mstore\n      0x20\n      add\n      0x03\n      dup3\n      add\n      0x00\n      swap1\n      sload\n      swap1\n      0x0100\n      exp\n      swap1\n      div\n      0xffffffffffffffffffffffffffffffffffffffff\n      and\n      0xffffffffffffffffffffffffffffffffffffffff\n      and\n      0xffffffffffffffffffffffffffffffffffffffff\n      and\n      dup2\n      mstore\n      0x20\n      add\n      0x04\n      dup3\n      add\n      sload\n      dup2\n      mstore\n      0x20\n      add\n      0x05\n      dup3\n      add\n      0x00\n      swap1\n      sload\n      swap1\n      0x0100\n      exp\n      swap1\n      div\n      0xff\n      and\n      iszero\n      iszero\n      iszero\n      iszero\n      dup2\n      mstore\n      0x20\n      add\n      0x05\n      dup3\n      add\n      0x01\n      swap1\n      sload\n      swap1\n      0x0100\n      exp\n      swap1\n      div\n      0xff\n      and\n      iszero\n      iszero\n      iszero\n      iszero\n      dup2\n      mstore\n      0x20\n      add\n      0x06\n      dup3\n      add\n      sload\n      dup2\n      mstore\n      pop\n      pop\n        /* \"contracts/NewMarketplace.sol\":5508:5513  items */\n      dup4\n        /* \"contracts/NewMarketplace.sol\":5514:5524  itemsIndex */\n      dup4\n        /* \"contracts/NewMarketplace.sol\":5508:5525  items[itemsIndex] */\n      dup2\n      mload\n      dup2\n      lt\n      tag_215\n      jumpi\n      tag_216\n      tag_81\n      jump\t// in\n    tag_216:\n    tag_215:\n      0x20\n      mul\n      0x20\n      add\n      add\n        /* \"contracts/NewMarketplace.sol\":5508:5544  items[itemsIndex] = _idToItem[i + 1] */\n      dup2\n      swap1\n      mstore\n      pop\n        /* \"contracts/NewMarketplace.sol\":5555:5567  itemsIndex++ */\n      dup2\n      dup1\n      tag_217\n      swap1\n      tag_63\n      jump\t// in\n    tag_217:\n      swap3\n      pop\n      pop\n        /* \"contracts/NewMarketplace.sol\":5468:5577  if (_idToItem[i + 1].listed) {... */\n    tag_213:\n        /* \"contracts/NewMarketplace.sol\":5454:5457  i++ */\n      dup1\n      dup1\n      0x01\n      add\n      swap2\n      pop\n      pop\n        /* \"contracts/NewMarketplace.sol\":5422:5584  for (uint i = 0; i < itemCount; i++) {... */\n      jump(tag_209)\n    tag_210:\n      pop\n        /* \"contracts/NewMarketplace.sol\":5597:5602  items */\n      dup2\n        /* \"contracts/NewMarketplace.sol\":5590:5602  return items */\n      swap5\n      pop\n      pop\n      pop\n      pop\n      pop\n        /* \"contracts/NewMarketplace.sol\":5175:5608  function getListedItems() public view returns (Item[] memory) {... */\n      swap1\n      jump\t// out\n        /* \"@openzeppelin/contracts/utils/ReentrancyGuard.sol\":2491:2806  function _nonReentrantBefore() private {... */\n    tag_85:\n        /* \"@openzeppelin/contracts/utils/ReentrancyGuard.sol\":1789:1790  2 */\n      0x02\n        /* \"@openzeppelin/contracts/utils/ReentrancyGuard.sol\":2620:2627  _status */\n      sload(0x00)\n        /* \"@openzeppelin/contracts/utils/ReentrancyGuard.sol\":2620:2638  _status == ENTERED */\n      sub\n        /* \"@openzeppelin/contracts/utils/ReentrancyGuard.sol\":2616:2704  if (_status == ENTERED) {... */\n      tag_219\n      jumpi\n        /* \"@openzeppelin/contracts/utils/ReentrancyGuard.sol\":2662:2692  ReentrancyGuardReentrantCall() */\n      mload(0x40)\n      0x3ee5aeb500000000000000000000000000000000000000000000000000000000\n      dup2\n      mstore\n      0x04\n      add\n      mload(0x40)\n      dup1\n      swap2\n      sub\n      swap1\n      revert\n        /* \"@openzeppelin/contracts/utils/ReentrancyGuard.sol\":2616:2704  if (_status == ENTERED) {... */\n    tag_219:\n        /* \"@openzeppelin/contracts/utils/ReentrancyGuard.sol\":1789:1790  2 */\n      0x02\n        /* \"@openzeppelin/contracts/utils/ReentrancyGuard.sol\":2781:2788  _status */\n      0x00\n        /* \"@openzeppelin/contracts/utils/ReentrancyGuard.sol\":2781:2798  _status = ENTERED */\n      dup2\n      swap1\n      sstore\n      pop\n        /* \"@openzeppelin/contracts/utils/ReentrancyGuard.sol\":2491:2806  function _nonReentrantBefore() private {... */\n      jump\t// out\n        /* \"@openzeppelin/contracts/utils/ReentrancyGuard.sol\":2814:3026  function _nonReentrantAfter() private {... */\n    tag_104:\n        /* \"@openzeppelin/contracts/utils/ReentrancyGuard.sol\":1746:1747  1 */\n      0x01\n        /* \"@openzeppelin/contracts/utils/ReentrancyGuard.sol\":2997:3004  _status */\n      0x00\n        /* \"@openzeppelin/contracts/utils/ReentrancyGuard.sol\":2997:3018  _status = NOT_ENTERED */\n      dup2\n      swap1\n      sstore\n      pop\n        /* \"@openzeppelin/contracts/utils/ReentrancyGuard.sol\":2814:3026  function _nonReentrantAfter() private {... */\n      jump\t// out\n    tag_70:\n      mload(0x40)\n      dup1\n      0x0100\n      add\n      0x40\n      mstore\n      dup1\n      and(0xffffffffffffffffffffffffffffffffffffffff, 0x00)\n      dup2\n      mstore\n      0x20\n      add\n      0x00\n      dup2\n      mstore\n      0x20\n      add\n      and(0xffffffffffffffffffffffffffffffffffffffff, 0x00)\n      dup2\n      mstore\n      0x20\n      add\n      and(0xffffffffffffffffffffffffffffffffffffffff, 0x00)\n      dup2\n      mstore\n      0x20\n      add\n      0x00\n      dup2\n      mstore\n      0x20\n      add\n      iszero(iszero(0x00))\n      dup2\n      mstore\n      0x20\n      add\n      iszero(iszero(0x00))\n      dup2\n      mstore\n      0x20\n      add\n      0x00\n      dup2\n      mstore\n      pop\n      swap1\n      jump\t// out\n        /* \"#utility.yul\":7:84   */\n    tag_221:\n        /* \"#utility.yul\":44:51   */\n      0x00\n        /* \"#utility.yul\":73:78   */\n      dup2\n        /* \"#utility.yul\":62:78   */\n      swap1\n      pop\n        /* \"#utility.yul\":7:84   */\n      swap2\n      swap1\n      pop\n      jump\t// out\n        /* \"#utility.yul\":90:208   */\n    tag_222:\n        /* \"#utility.yul\":177:201   */\n      tag_272\n        /* \"#utility.yul\":195:200   */\n      dup2\n        /* \"#utility.yul\":177:201   */\n      tag_221\n      jump\t// in\n    tag_272:\n        /* \"#utility.yul\":172:175   */\n      dup3\n        /* \"#utility.yul\":165:202   */\n      mstore\n        /* \"#utility.yul\":90:208   */\n      pop\n      pop\n      jump\t// out\n        /* \"#utility.yul\":214:436   */\n    tag_17:\n        /* \"#utility.yul\":307:311   */\n      0x00\n        /* \"#utility.yul\":345:347   */\n      0x20\n        /* \"#utility.yul\":334:343   */\n      dup3\n        /* \"#utility.yul\":330:348   */\n      add\n        /* \"#utility.yul\":322:348   */\n      swap1\n      pop\n        /* \"#utility.yul\":358:429   */\n      tag_274\n        /* \"#utility.yul\":426:427   */\n      0x00\n        /* \"#utility.yul\":415:424   */\n      dup4\n        /* \"#utility.yul\":411:428   */\n      add\n        /* \"#utility.yul\":402:408   */\n      dup5\n        /* \"#utility.yul\":358:429   */\n      tag_222\n      jump\t// in\n    tag_274:\n        /* \"#utility.yul\":214:436   */\n      swap3\n      swap2\n      pop\n      pop\n      jump\t// out\n        /* \"#utility.yul\":442:578   */\n    tag_223:\n        /* \"#utility.yul\":531:537   */\n      0x00\n        /* \"#utility.yul\":565:570   */\n      dup2\n        /* \"#utility.yul\":559:571   */\n      mload\n        /* \"#utility.yul\":549:571   */\n      swap1\n      pop\n        /* \"#utility.yul\":442:578   */\n      swap2\n      swap1\n      pop\n      jump\t// out\n        /* \"#utility.yul\":584:790   */\n    tag_224:\n        /* \"#utility.yul\":705:716   */\n      0x00\n        /* \"#utility.yul\":739:745   */\n      dup3\n        /* \"#utility.yul\":734:737   */\n      dup3\n        /* \"#utility.yul\":727:746   */\n      mstore\n        /* \"#utility.yul\":779:783   */\n      0x20\n        /* \"#utility.yul\":774:777   */\n      dup3\n        /* \"#utility.yul\":770:784   */\n      add\n        /* \"#utility.yul\":755:784   */\n      swap1\n      pop\n        /* \"#utility.yul\":584:790   */\n      swap3\n      swap2\n      pop\n      pop\n      jump\t// out\n        /* \"#utility.yul\":796:950   */\n    tag_225:\n        /* \"#utility.yul\":885:889   */\n      0x00\n        /* \"#utility.yul\":908:911   */\n      dup2\n        /* \"#utility.yul\":900:911   */\n      swap1\n      pop\n        /* \"#utility.yul\":938:942   */\n      0x20\n        /* \"#utility.yul\":933:936   */\n      dup3\n        /* \"#utility.yul\":929:943   */\n      add\n        /* \"#utility.yul\":921:943   */\n      swap1\n      pop\n        /* \"#utility.yul\":796:950   */\n      swap2\n      swap1\n      pop\n      jump\t// out\n        /* \"#utility.yul\":956:1082   */\n    tag_226:\n        /* \"#utility.yul\":993:1000   */\n      0x00\n        /* \"#utility.yul\":1033:1075   */\n      0xffffffffffffffffffffffffffffffffffffffff\n        /* \"#utility.yul\":1026:1031   */\n      dup3\n        /* \"#utility.yul\":1022:1076   */\n      and\n        /* \"#utility.yul\":1011:1076   */\n      swap1\n      pop\n        /* \"#utility.yul\":956:1082   */\n      swap2\n      swap1\n      pop\n      jump\t// out\n        /* \"#utility.yul\":1088:1184   */\n    tag_227:\n        /* \"#utility.yul\":1125:1132   */\n      0x00\n        /* \"#utility.yul\":1154:1178   */\n      tag_280\n        /* \"#utility.yul\":1172:1177   */\n      dup3\n        /* \"#utility.yul\":1154:1178   */\n      tag_226\n      jump\t// in\n    tag_280:\n        /* \"#utility.yul\":1143:1178   */\n      swap1\n      pop\n        /* \"#utility.yul\":1088:1184   */\n      swap2\n      swap1\n      pop\n      jump\t// out\n        /* \"#utility.yul\":1190:1298   */\n    tag_228:\n        /* \"#utility.yul\":1267:1291   */\n      tag_282\n        /* \"#utility.yul\":1285:1290   */\n      dup2\n        /* \"#utility.yul\":1267:1291   */\n      tag_227\n      jump\t// in\n    tag_282:\n        /* \"#utility.yul\":1262:1265   */\n      dup3\n        /* \"#utility.yul\":1255:1292   */\n      mstore\n        /* \"#utility.yul\":1190:1298   */\n      pop\n      pop\n      jump\t// out\n        /* \"#utility.yul\":1304:1412   */\n    tag_229:\n        /* \"#utility.yul\":1381:1405   */\n      tag_284\n        /* \"#utility.yul\":1399:1404   */\n      dup2\n        /* \"#utility.yul\":1381:1405   */\n      tag_221\n      jump\t// in\n    tag_284:\n        /* \"#utility.yul\":1376:1379   */\n      dup3\n        /* \"#utility.yul\":1369:1406   */\n      mstore\n        /* \"#utility.yul\":1304:1412   */\n      pop\n      pop\n      jump\t// out\n        /* \"#utility.yul\":1418:1522   */\n    tag_230:\n        /* \"#utility.yul\":1463:1470   */\n      0x00\n        /* \"#utility.yul\":1492:1516   */\n      tag_286\n        /* \"#utility.yul\":1510:1515   */\n      dup3\n        /* \"#utility.yul\":1492:1516   */\n      tag_226\n      jump\t// in\n    tag_286:\n        /* \"#utility.yul\":1481:1516   */\n      swap1\n      pop\n        /* \"#utility.yul\":1418:1522   */\n      swap2\n      swap1\n      pop\n      jump\t// out\n        /* \"#utility.yul\":1528:1660   */\n    tag_231:\n        /* \"#utility.yul\":1621:1653   */\n      tag_288\n        /* \"#utility.yul\":1647:1652   */\n      dup2\n        /* \"#utility.yul\":1621:1653   */\n      tag_230\n      jump\t// in\n    tag_288:\n        /* \"#utility.yul\":1616:1619   */\n      dup3\n        /* \"#utility.yul\":1609:1654   */\n      mstore\n        /* \"#utility.yul\":1528:1660   */\n      pop\n      pop\n      jump\t// out\n        /* \"#utility.yul\":1666:1756   */\n    tag_232:\n        /* \"#utility.yul\":1700:1707   */\n      0x00\n        /* \"#utility.yul\":1743:1748   */\n      dup2\n        /* \"#utility.yul\":1736:1749   */\n      iszero\n        /* \"#utility.yul\":1729:1750   */\n      iszero\n        /* \"#utility.yul\":1718:1750   */\n      swap1\n      pop\n        /* \"#utility.yul\":1666:1756   */\n      swap2\n      swap1\n      pop\n      jump\t// out\n        /* \"#utility.yul\":1762:1861   */\n    tag_233:\n        /* \"#utility.yul\":1833:1854   */\n      tag_291\n        /* \"#utility.yul\":1848:1853   */\n      dup2\n        /* \"#utility.yul\":1833:1854   */\n      tag_232\n      jump\t// in\n    tag_291:\n        /* \"#utility.yul\":1828:1831   */\n      dup3\n        /* \"#utility.yul\":1821:1855   */\n      mstore\n        /* \"#utility.yul\":1762:1861   */\n      pop\n      pop\n      jump\t// out\n        /* \"#utility.yul\":1925:3507   */\n    tag_234:\n        /* \"#utility.yul\":2056:2062   */\n      0x0100\n        /* \"#utility.yul\":2051:2054   */\n      dup3\n        /* \"#utility.yul\":2047:2063   */\n      add\n        /* \"#utility.yul\":2153:2157   */\n      0x00\n        /* \"#utility.yul\":2146:2151   */\n      dup3\n        /* \"#utility.yul\":2142:2158   */\n      add\n        /* \"#utility.yul\":2136:2159   */\n      mload\n        /* \"#utility.yul\":2172:2235   */\n      tag_293\n        /* \"#utility.yul\":2229:2233   */\n      0x00\n        /* \"#utility.yul\":2224:2227   */\n      dup6\n        /* \"#utility.yul\":2220:2234   */\n      add\n        /* \"#utility.yul\":2206:2218   */\n      dup3\n        /* \"#utility.yul\":2172:2235   */\n      tag_228\n      jump\t// in\n    tag_293:\n        /* \"#utility.yul\":2073:2245   */\n      pop\n        /* \"#utility.yul\":2330:2334   */\n      0x20\n        /* \"#utility.yul\":2323:2328   */\n      dup3\n        /* \"#utility.yul\":2319:2335   */\n      add\n        /* \"#utility.yul\":2313:2336   */\n      mload\n        /* \"#utility.yul\":2349:2412   */\n      tag_294\n        /* \"#utility.yul\":2406:2410   */\n      0x20\n        /* \"#utility.yul\":2401:2404   */\n      dup6\n        /* \"#utility.yul\":2397:2411   */\n      add\n        /* \"#utility.yul\":2383:2395   */\n      dup3\n        /* \"#utility.yul\":2349:2412   */\n      tag_229\n      jump\t// in\n    tag_294:\n        /* \"#utility.yul\":2255:2422   */\n      pop\n        /* \"#utility.yul\":2506:2510   */\n      0x40\n        /* \"#utility.yul\":2499:2504   */\n      dup3\n        /* \"#utility.yul\":2495:2511   */\n      add\n        /* \"#utility.yul\":2489:2512   */\n      mload\n        /* \"#utility.yul\":2525:2604   */\n      tag_295\n        /* \"#utility.yul\":2598:2602   */\n      0x40\n        /* \"#utility.yul\":2593:2596   */\n      dup6\n        /* \"#utility.yul\":2589:2603   */\n      add\n        /* \"#utility.yul\":2575:2587   */\n      dup3\n        /* \"#utility.yul\":2525:2604   */\n      tag_231\n      jump\t// in\n    tag_295:\n        /* \"#utility.yul\":2432:2614   */\n      pop\n        /* \"#utility.yul\":2697:2701   */\n      0x60\n        /* \"#utility.yul\":2690:2695   */\n      dup3\n        /* \"#utility.yul\":2686:2702   */\n      add\n        /* \"#utility.yul\":2680:2703   */\n      mload\n        /* \"#utility.yul\":2716:2795   */\n      tag_296\n        /* \"#utility.yul\":2789:2793   */\n      0x60\n        /* \"#utility.yul\":2784:2787   */\n      dup6\n        /* \"#utility.yul\":2780:2794   */\n      add\n        /* \"#utility.yul\":2766:2778   */\n      dup3\n        /* \"#utility.yul\":2716:2795   */\n      tag_231\n      jump\t// in\n    tag_296:\n        /* \"#utility.yul\":2624:2805   */\n      pop\n        /* \"#utility.yul\":2888:2892   */\n      0x80\n        /* \"#utility.yul\":2881:2886   */\n      dup3\n        /* \"#utility.yul\":2877:2893   */\n      add\n        /* \"#utility.yul\":2871:2894   */\n      mload\n        /* \"#utility.yul\":2907:2970   */\n      tag_297\n        /* \"#utility.yul\":2964:2968   */\n      0x80\n        /* \"#utility.yul\":2959:2962   */\n      dup6\n        /* \"#utility.yul\":2955:2969   */\n      add\n        /* \"#utility.yul\":2941:2953   */\n      dup3\n        /* \"#utility.yul\":2907:2970   */\n      tag_229\n      jump\t// in\n    tag_297:\n        /* \"#utility.yul\":2815:2980   */\n      pop\n        /* \"#utility.yul\":3064:3068   */\n      0xa0\n        /* \"#utility.yul\":3057:3062   */\n      dup3\n        /* \"#utility.yul\":3053:3069   */\n      add\n        /* \"#utility.yul\":3047:3070   */\n      mload\n        /* \"#utility.yul\":3083:3140   */\n      tag_298\n        /* \"#utility.yul\":3134:3138   */\n      0xa0\n        /* \"#utility.yul\":3129:3132   */\n      dup6\n        /* \"#utility.yul\":3125:3139   */\n      add\n        /* \"#utility.yul\":3111:3123   */\n      dup3\n        /* \"#utility.yul\":3083:3140   */\n      tag_233\n      jump\t// in\n    tag_298:\n        /* \"#utility.yul\":2990:3150   */\n      pop\n        /* \"#utility.yul\":3236:3240   */\n      0xc0\n        /* \"#utility.yul\":3229:3234   */\n      dup3\n        /* \"#utility.yul\":3225:3241   */\n      add\n        /* \"#utility.yul\":3219:3242   */\n      mload\n        /* \"#utility.yul\":3255:3312   */\n      tag_299\n        /* \"#utility.yul\":3306:3310   */\n      0xc0\n        /* \"#utility.yul\":3301:3304   */\n      dup6\n        /* \"#utility.yul\":3297:3311   */\n      add\n        /* \"#utility.yul\":3283:3295   */\n      dup3\n        /* \"#utility.yul\":3255:3312   */\n      tag_233\n      jump\t// in\n    tag_299:\n        /* \"#utility.yul\":3160:3322   */\n      pop\n        /* \"#utility.yul\":3408:3412   */\n      0xe0\n        /* \"#utility.yul\":3401:3406   */\n      dup3\n        /* \"#utility.yul\":3397:3413   */\n      add\n        /* \"#utility.yul\":3391:3414   */\n      mload\n        /* \"#utility.yul\":3427:3490   */\n      tag_300\n        /* \"#utility.yul\":3484:3488   */\n      0xe0\n        /* \"#utility.yul\":3479:3482   */\n      dup6\n        /* \"#utility.yul\":3475:3489   */\n      add\n        /* \"#utility.yul\":3461:3473   */\n      dup3\n        /* \"#utility.yul\":3427:3490   */\n      tag_229\n      jump\t// in\n    tag_300:\n        /* \"#utility.yul\":3332:3500   */\n      pop\n        /* \"#utility.yul\":2025:3507   */\n      pop\n        /* \"#utility.yul\":1925:3507   */\n      pop\n      pop\n      jump\t// out\n        /* \"#utility.yul\":3513:3782   */\n    tag_235:\n        /* \"#utility.yul\":3626:3636   */\n      0x00\n        /* \"#utility.yul\":3647:3737   */\n      tag_302\n        /* \"#utility.yul\":3733:3736   */\n      dup4\n        /* \"#utility.yul\":3725:3731   */\n      dup4\n        /* \"#utility.yul\":3647:3737   */\n      tag_234\n      jump\t// in\n    tag_302:\n        /* \"#utility.yul\":3769:3775   */\n      0x0100\n        /* \"#utility.yul\":3764:3767   */\n      dup4\n        /* \"#utility.yul\":3760:3776   */\n      add\n        /* \"#utility.yul\":3746:3776   */\n      swap1\n      pop\n        /* \"#utility.yul\":3513:3782   */\n      swap3\n      swap2\n      pop\n      pop\n      jump\t// out\n        /* \"#utility.yul\":3788:3923   */\n    tag_236:\n        /* \"#utility.yul\":3880:3884   */\n      0x00\n        /* \"#utility.yul\":3912:3916   */\n      0x20\n        /* \"#utility.yul\":3907:3910   */\n      dup3\n        /* \"#utility.yul\":3903:3917   */\n      add\n        /* \"#utility.yul\":3895:3917   */\n      swap1\n      pop\n        /* \"#utility.yul\":3788:3923   */\n      swap2\n      swap1\n      pop\n      jump\t// out\n        /* \"#utility.yul\":3991:4899   */\n    tag_237:\n        /* \"#utility.yul\":4154:4157   */\n      0x00\n        /* \"#utility.yul\":4183:4259   */\n      tag_305\n        /* \"#utility.yul\":4253:4258   */\n      dup3\n        /* \"#utility.yul\":4183:4259   */\n      tag_223\n      jump\t// in\n    tag_305:\n        /* \"#utility.yul\":4275:4383   */\n      tag_306\n        /* \"#utility.yul\":4376:4382   */\n      dup2\n        /* \"#utility.yul\":4371:4374   */\n      dup6\n        /* \"#utility.yul\":4275:4383   */\n      tag_224\n      jump\t// in\n    tag_306:\n        /* \"#utility.yul\":4268:4383   */\n      swap4\n      pop\n        /* \"#utility.yul\":4407:4485   */\n      tag_307\n        /* \"#utility.yul\":4479:4484   */\n      dup4\n        /* \"#utility.yul\":4407:4485   */\n      tag_225\n      jump\t// in\n    tag_307:\n        /* \"#utility.yul\":4508:4515   */\n      dup1\n        /* \"#utility.yul\":4539:4540   */\n      0x00\n        /* \"#utility.yul\":4524:4874   */\n    tag_308:\n        /* \"#utility.yul\":4549:4555   */\n      dup4\n        /* \"#utility.yul\":4546:4547   */\n      dup2\n        /* \"#utility.yul\":4543:4556   */\n      lt\n        /* \"#utility.yul\":4524:4874   */\n      iszero\n      tag_310\n      jumpi\n        /* \"#utility.yul\":4625:4631   */\n      dup2\n        /* \"#utility.yul\":4619:4632   */\n      mload\n        /* \"#utility.yul\":4652:4759   */\n      tag_311\n        /* \"#utility.yul\":4755:4758   */\n      dup9\n        /* \"#utility.yul\":4740:4753   */\n      dup3\n        /* \"#utility.yul\":4652:4759   */\n      tag_235\n      jump\t// in\n    tag_311:\n        /* \"#utility.yul\":4645:4759   */\n      swap8\n      pop\n        /* \"#utility.yul\":4782:4864   */\n      tag_312\n        /* \"#utility.yul\":4857:4863   */\n      dup4\n        /* \"#utility.yul\":4782:4864   */\n      tag_236\n      jump\t// in\n    tag_312:\n        /* \"#utility.yul\":4772:4864   */\n      swap3\n      pop\n        /* \"#utility.yul\":4584:4874   */\n      pop\n        /* \"#utility.yul\":4571:4572   */\n      0x01\n        /* \"#utility.yul\":4568:4569   */\n      dup2\n        /* \"#utility.yul\":4564:4573   */\n      add\n        /* \"#utility.yul\":4559:4573   */\n      swap1\n      pop\n        /* \"#utility.yul\":4524:4874   */\n      jump(tag_308)\n    tag_310:\n        /* \"#utility.yul\":4528:4542   */\n      pop\n        /* \"#utility.yul\":4890:4893   */\n      dup6\n        /* \"#utility.yul\":4883:4893   */\n      swap4\n      pop\n        /* \"#utility.yul\":4159:4899   */\n      pop\n      pop\n      pop\n        /* \"#utility.yul\":3991:4899   */\n      swap3\n      swap2\n      pop\n      pop\n      jump\t// out\n        /* \"#utility.yul\":4905:5366   */\n    tag_22:\n        /* \"#utility.yul\":5092:5096   */\n      0x00\n        /* \"#utility.yul\":5130:5132   */\n      0x20\n        /* \"#utility.yul\":5119:5128   */\n      dup3\n        /* \"#utility.yul\":5115:5133   */\n      add\n        /* \"#utility.yul\":5107:5133   */\n      swap1\n      pop\n        /* \"#utility.yul\":5179:5188   */\n      dup2\n        /* \"#utility.yul\":5173:5177   */\n      dup2\n        /* \"#utility.yul\":5169:5189   */\n      sub\n        /* \"#utility.yul\":5165:5166   */\n      0x00\n        /* \"#utility.yul\":5154:5163   */\n      dup4\n        /* \"#utility.yul\":5150:5167   */\n      add\n        /* \"#utility.yul\":5143:5190   */\n      mstore\n        /* \"#utility.yul\":5207:5359   */\n      tag_314\n        /* \"#utility.yul\":5354:5358   */\n      dup2\n        /* \"#utility.yul\":5345:5351   */\n      dup5\n        /* \"#utility.yul\":5207:5359   */\n      tag_237\n      jump\t// in\n    tag_314:\n        /* \"#utility.yul\":5199:5359   */\n      swap1\n      pop\n        /* \"#utility.yul\":4905:5366   */\n      swap3\n      swap2\n      pop\n      pop\n      jump\t// out\n        /* \"#utility.yul\":5453:5570   */\n    tag_239:\n        /* \"#utility.yul\":5562:5563   */\n      0x00\n        /* \"#utility.yul\":5559:5560   */\n      dup1\n        /* \"#utility.yul\":5552:5564   */\n      revert\n        /* \"#utility.yul\":5699:5821   */\n    tag_241:\n        /* \"#utility.yul\":5772:5796   */\n      tag_319\n        /* \"#utility.yul\":5790:5795   */\n      dup2\n        /* \"#utility.yul\":5772:5796   */\n      tag_227\n      jump\t// in\n    tag_319:\n        /* \"#utility.yul\":5765:5770   */\n      dup2\n        /* \"#utility.yul\":5762:5797   */\n      eq\n        /* \"#utility.yul\":5752:5815   */\n      tag_320\n      jumpi\n        /* \"#utility.yul\":5811:5812   */\n      0x00\n        /* \"#utility.yul\":5808:5809   */\n      dup1\n        /* \"#utility.yul\":5801:5813   */\n      revert\n        /* \"#utility.yul\":5752:5815   */\n    tag_320:\n        /* \"#utility.yul\":5699:5821   */\n      pop\n      jump\t// out\n        /* \"#utility.yul\":5827:5966   */\n    tag_242:\n        /* \"#utility.yul\":5873:5878   */\n      0x00\n        /* \"#utility.yul\":5911:5917   */\n      dup2\n        /* \"#utility.yul\":5898:5918   */\n      calldataload\n        /* \"#utility.yul\":5889:5918   */\n      swap1\n      pop\n        /* \"#utility.yul\":5927:5960   */\n      tag_322\n        /* \"#utility.yul\":5954:5959   */\n      dup2\n        /* \"#utility.yul\":5927:5960   */\n      tag_241\n      jump\t// in\n    tag_322:\n        /* \"#utility.yul\":5827:5966   */\n      swap3\n      swap2\n      pop\n      pop\n      jump\t// out\n        /* \"#utility.yul\":5972:6094   */\n    tag_243:\n        /* \"#utility.yul\":6045:6069   */\n      tag_324\n        /* \"#utility.yul\":6063:6068   */\n      dup2\n        /* \"#utility.yul\":6045:6069   */\n      tag_221\n      jump\t// in\n    tag_324:\n        /* \"#utility.yul\":6038:6043   */\n      dup2\n        /* \"#utility.yul\":6035:6070   */\n      eq\n        /* \"#utility.yul\":6025:6088   */\n      tag_325\n      jumpi\n        /* \"#utility.yul\":6084:6085   */\n      0x00\n        /* \"#utility.yul\":6081:6082   */\n      dup1\n        /* \"#utility.yul\":6074:6086   */\n      revert\n        /* \"#utility.yul\":6025:6088   */\n    tag_325:\n        /* \"#utility.yul\":5972:6094   */\n      pop\n      jump\t// out\n        /* \"#utility.yul\":6100:6239   */\n    tag_244:\n        /* \"#utility.yul\":6146:6151   */\n      0x00\n        /* \"#utility.yul\":6184:6190   */\n      dup2\n        /* \"#utility.yul\":6171:6191   */\n      calldataload\n        /* \"#utility.yul\":6162:6191   */\n      swap1\n      pop\n        /* \"#utility.yul\":6200:6233   */\n      tag_327\n        /* \"#utility.yul\":6227:6232   */\n      dup2\n        /* \"#utility.yul\":6200:6233   */\n      tag_243\n      jump\t// in\n    tag_327:\n        /* \"#utility.yul\":6100:6239   */\n      swap3\n      swap2\n      pop\n      pop\n      jump\t// out\n        /* \"#utility.yul\":6245:7010   */\n    tag_25:\n        /* \"#utility.yul\":6331:6337   */\n      0x00\n        /* \"#utility.yul\":6339:6345   */\n      dup1\n        /* \"#utility.yul\":6347:6353   */\n      0x00\n        /* \"#utility.yul\":6355:6361   */\n      dup1\n        /* \"#utility.yul\":6404:6407   */\n      0x80\n        /* \"#utility.yul\":6392:6401   */\n      dup6\n        /* \"#utility.yul\":6383:6390   */\n      dup8\n        /* \"#utility.yul\":6379:6402   */\n      sub\n        /* \"#utility.yul\":6375:6408   */\n      slt\n        /* \"#utility.yul\":6372:6492   */\n      iszero\n      tag_329\n      jumpi\n        /* \"#utility.yul\":6411:6490   */\n      tag_330\n      tag_239\n      jump\t// in\n    tag_330:\n        /* \"#utility.yul\":6372:6492   */\n    tag_329:\n        /* \"#utility.yul\":6531:6532   */\n      0x00\n        /* \"#utility.yul\":6556:6609   */\n      tag_331\n        /* \"#utility.yul\":6601:6608   */\n      dup8\n        /* \"#utility.yul\":6592:6598   */\n      dup3\n        /* \"#utility.yul\":6581:6590   */\n      dup9\n        /* \"#utility.yul\":6577:6599   */\n      add\n        /* \"#utility.yul\":6556:6609   */\n      tag_242\n      jump\t// in\n    tag_331:\n        /* \"#utility.yul\":6546:6609   */\n      swap5\n      pop\n        /* \"#utility.yul\":6502:6619   */\n      pop\n        /* \"#utility.yul\":6658:6660   */\n      0x20\n        /* \"#utility.yul\":6684:6737   */\n      tag_332\n        /* \"#utility.yul\":6729:6736   */\n      dup8\n        /* \"#utility.yul\":6720:6726   */\n      dup3\n        /* \"#utility.yul\":6709:6718   */\n      dup9\n        /* \"#utility.yul\":6705:6727   */\n      add\n        /* \"#utility.yul\":6684:6737   */\n      tag_244\n      jump\t// in\n    tag_332:\n        /* \"#utility.yul\":6674:6737   */\n      swap4\n      pop\n        /* \"#utility.yul\":6629:6747   */\n      pop\n        /* \"#utility.yul\":6786:6788   */\n      0x40\n        /* \"#utility.yul\":6812:6865   */\n      tag_333\n        /* \"#utility.yul\":6857:6864   */\n      dup8\n        /* \"#utility.yul\":6848:6854   */\n      dup3\n        /* \"#utility.yul\":6837:6846   */\n      dup9\n        /* \"#utility.yul\":6833:6855   */\n      add\n        /* \"#utility.yul\":6812:6865   */\n      tag_244\n      jump\t// in\n    tag_333:\n        /* \"#utility.yul\":6802:6865   */\n      swap3\n      pop\n        /* \"#utility.yul\":6757:6875   */\n      pop\n        /* \"#utility.yul\":6914:6916   */\n      0x60\n        /* \"#utility.yul\":6940:6993   */\n      tag_334\n        /* \"#utility.yul\":6985:6992   */\n      dup8\n        /* \"#utility.yul\":6976:6982   */\n      dup3\n        /* \"#utility.yul\":6965:6974   */\n      dup9\n        /* \"#utility.yul\":6961:6983   */\n      add\n        /* \"#utility.yul\":6940:6993   */\n      tag_244\n      jump\t// in\n    tag_334:\n        /* \"#utility.yul\":6930:6993   */\n      swap2\n      pop\n        /* \"#utility.yul\":6885:7003   */\n      pop\n        /* \"#utility.yul\":6245:7010   */\n      swap3\n      swap6\n      swap2\n      swap5\n      pop\n      swap3\n      pop\n      jump\t// out\n        /* \"#utility.yul\":7016:7345   */\n    tag_29:\n        /* \"#utility.yul\":7075:7081   */\n      0x00\n        /* \"#utility.yul\":7124:7126   */\n      0x20\n        /* \"#utility.yul\":7112:7121   */\n      dup3\n        /* \"#utility.yul\":7103:7110   */\n      dup5\n        /* \"#utility.yul\":7099:7122   */\n      sub\n        /* \"#utility.yul\":7095:7127   */\n      slt\n        /* \"#utility.yul\":7092:7211   */\n      iszero\n      tag_336\n      jumpi\n        /* \"#utility.yul\":7130:7209   */\n      tag_337\n      tag_239\n      jump\t// in\n    tag_337:\n        /* \"#utility.yul\":7092:7211   */\n    tag_336:\n        /* \"#utility.yul\":7250:7251   */\n      0x00\n        /* \"#utility.yul\":7275:7328   */\n      tag_338\n        /* \"#utility.yul\":7320:7327   */\n      dup5\n        /* \"#utility.yul\":7311:7317   */\n      dup3\n        /* \"#utility.yul\":7300:7309   */\n      dup6\n        /* \"#utility.yul\":7296:7318   */\n      add\n        /* \"#utility.yul\":7275:7328   */\n      tag_244\n      jump\t// in\n    tag_338:\n        /* \"#utility.yul\":7265:7328   */\n      swap2\n      pop\n        /* \"#utility.yul\":7221:7338   */\n      pop\n        /* \"#utility.yul\":7016:7345   */\n      swap3\n      swap2\n      pop\n      pop\n      jump\t// out\n        /* \"#utility.yul\":7351:7825   */\n    tag_33:\n        /* \"#utility.yul\":7419:7425   */\n      0x00\n        /* \"#utility.yul\":7427:7433   */\n      dup1\n        /* \"#utility.yul\":7476:7478   */\n      0x40\n        /* \"#utility.yul\":7464:7473   */\n      dup4\n        /* \"#utility.yul\":7455:7462   */\n      dup6\n        /* \"#utility.yul\":7451:7474   */\n      sub\n        /* \"#utility.yul\":7447:7479   */\n      slt\n        /* \"#utility.yul\":7444:7563   */\n      iszero\n      tag_340\n      jumpi\n        /* \"#utility.yul\":7482:7561   */\n      tag_341\n      tag_239\n      jump\t// in\n    tag_341:\n        /* \"#utility.yul\":7444:7563   */\n    tag_340:\n        /* \"#utility.yul\":7602:7603   */\n      0x00\n        /* \"#utility.yul\":7627:7680   */\n      tag_342\n        /* \"#utility.yul\":7672:7679   */\n      dup6\n        /* \"#utility.yul\":7663:7669   */\n      dup3\n        /* \"#utility.yul\":7652:7661   */\n      dup7\n        /* \"#utility.yul\":7648:7670   */\n      add\n        /* \"#utility.yul\":7627:7680   */\n      tag_242\n      jump\t// in\n    tag_342:\n        /* \"#utility.yul\":7617:7680   */\n      swap3\n      pop\n        /* \"#utility.yul\":7573:7690   */\n      pop\n        /* \"#utility.yul\":7729:7731   */\n      0x20\n        /* \"#utility.yul\":7755:7808   */\n      tag_343\n        /* \"#utility.yul\":7800:7807   */\n      dup6\n        /* \"#utility.yul\":7791:7797   */\n      dup3\n        /* \"#utility.yul\":7780:7789   */\n      dup7\n        /* \"#utility.yul\":7776:7798   */\n      add\n        /* \"#utility.yul\":7755:7808   */\n      tag_244\n      jump\t// in\n    tag_343:\n        /* \"#utility.yul\":7745:7808   */\n      swap2\n      pop\n        /* \"#utility.yul\":7700:7818   */\n      pop\n        /* \"#utility.yul\":7351:7825   */\n      swap3\n      pop\n      swap3\n      swap1\n      pop\n      jump\t// out\n        /* \"#utility.yul\":7831:8450   */\n    tag_37:\n        /* \"#utility.yul\":7908:7914   */\n      0x00\n        /* \"#utility.yul\":7916:7922   */\n      dup1\n        /* \"#utility.yul\":7924:7930   */\n      0x00\n        /* \"#utility.yul\":7973:7975   */\n      0x60\n        /* \"#utility.yul\":7961:7970   */\n      dup5\n        /* \"#utility.yul\":7952:7959   */\n      dup7\n        /* \"#utility.yul\":7948:7971   */\n      sub\n        /* \"#utility.yul\":7944:7976   */\n      slt\n        /* \"#utility.yul\":7941:8060   */\n      iszero\n      tag_345\n      jumpi\n        /* \"#utility.yul\":7979:8058   */\n      tag_346\n      tag_239\n      jump\t// in\n    tag_346:\n        /* \"#utility.yul\":7941:8060   */\n    tag_345:\n        /* \"#utility.yul\":8099:8100   */\n      0x00\n        /* \"#utility.yul\":8124:8177   */\n      tag_347\n        /* \"#utility.yul\":8169:8176   */\n      dup7\n        /* \"#utility.yul\":8160:8166   */\n      dup3\n        /* \"#utility.yul\":8149:8158   */\n      dup8\n        /* \"#utility.yul\":8145:8167   */\n      add\n        /* \"#utility.yul\":8124:8177   */\n      tag_242\n      jump\t// in\n    tag_347:\n        /* \"#utility.yul\":8114:8177   */\n      swap4\n      pop\n        /* \"#utility.yul\":8070:8187   */\n      pop\n        /* \"#utility.yul\":8226:8228   */\n      0x20\n        /* \"#utility.yul\":8252:8305   */\n      tag_348\n        /* \"#utility.yul\":8297:8304   */\n      dup7\n        /* \"#utility.yul\":8288:8294   */\n      dup3\n        /* \"#utility.yul\":8277:8286   */\n      dup8\n        /* \"#utility.yul\":8273:8295   */\n      add\n        /* \"#utility.yul\":8252:8305   */\n      tag_244\n      jump\t// in\n    tag_348:\n        /* \"#utility.yul\":8242:8305   */\n      swap3\n      pop\n        /* \"#utility.yul\":8197:8315   */\n      pop\n        /* \"#utility.yul\":8354:8356   */\n      0x40\n        /* \"#utility.yul\":8380:8433   */\n      tag_349\n        /* \"#utility.yul\":8425:8432   */\n      dup7\n        /* \"#utility.yul\":8416:8422   */\n      dup3\n        /* \"#utility.yul\":8405:8414   */\n      dup8\n        /* \"#utility.yul\":8401:8423   */\n      add\n        /* \"#utility.yul\":8380:8433   */\n      tag_244\n      jump\t// in\n    tag_349:\n        /* \"#utility.yul\":8370:8433   */\n      swap2\n      pop\n        /* \"#utility.yul\":8325:8443   */\n      pop\n        /* \"#utility.yul\":7831:8450   */\n      swap3\n      pop\n      swap3\n      pop\n      swap3\n      jump\t// out\n        /* \"#utility.yul\":8456:8636   */\n    tag_245:\n        /* \"#utility.yul\":8504:8581   */\n      0x4e487b7100000000000000000000000000000000000000000000000000000000\n        /* \"#utility.yul\":8501:8502   */\n      0x00\n        /* \"#utility.yul\":8494:8582   */\n      mstore\n        /* \"#utility.yul\":8601:8605   */\n      0x11\n        /* \"#utility.yul\":8598:8599   */\n      0x04\n        /* \"#utility.yul\":8591:8606   */\n      mstore\n        /* \"#utility.yul\":8625:8629   */\n      0x24\n        /* \"#utility.yul\":8622:8623   */\n      0x00\n        /* \"#utility.yul\":8615:8630   */\n      revert\n        /* \"#utility.yul\":8642:8833   */\n    tag_58:\n        /* \"#utility.yul\":8682:8685   */\n      0x00\n        /* \"#utility.yul\":8701:8721   */\n      tag_352\n        /* \"#utility.yul\":8719:8720   */\n      dup3\n        /* \"#utility.yul\":8701:8721   */\n      tag_221\n      jump\t// in\n    tag_352:\n        /* \"#utility.yul\":8696:8721   */\n      swap2\n      pop\n        /* \"#utility.yul\":8735:8755   */\n      tag_353\n        /* \"#utility.yul\":8753:8754   */\n      dup4\n        /* \"#utility.yul\":8735:8755   */\n      tag_221\n      jump\t// in\n    tag_353:\n        /* \"#utility.yul\":8730:8755   */\n      swap3\n      pop\n        /* \"#utility.yul\":8778:8779   */\n      dup3\n        /* \"#utility.yul\":8775:8776   */\n      dup3\n        /* \"#utility.yul\":8771:8780   */\n      add\n        /* \"#utility.yul\":8764:8780   */\n      swap1\n      pop\n        /* \"#utility.yul\":8799:8802   */\n      dup1\n        /* \"#utility.yul\":8796:8797   */\n      dup3\n        /* \"#utility.yul\":8793:8803   */\n      gt\n        /* \"#utility.yul\":8790:8826   */\n      iszero\n      tag_354\n      jumpi\n        /* \"#utility.yul\":8806:8824   */\n      tag_355\n      tag_245\n      jump\t// in\n    tag_355:\n        /* \"#utility.yul\":8790:8826   */\n    tag_354:\n        /* \"#utility.yul\":8642:8833   */\n      swap3\n      swap2\n      pop\n      pop\n      jump\t// out\n        /* \"#utility.yul\":8839:9072   */\n    tag_63:\n        /* \"#utility.yul\":8878:8881   */\n      0x00\n        /* \"#utility.yul\":8901:8925   */\n      tag_357\n        /* \"#utility.yul\":8919:8924   */\n      dup3\n        /* \"#utility.yul\":8901:8925   */\n      tag_221\n      jump\t// in\n    tag_357:\n        /* \"#utility.yul\":8892:8925   */\n      swap2\n      pop\n        /* \"#utility.yul\":8947:9013   */\n      0xffffffffffffffffffffffffffffffffffffffffffffffffffffffffffffffff\n        /* \"#utility.yul\":8940:8945   */\n      dup3\n        /* \"#utility.yul\":8937:9014   */\n      sub\n        /* \"#utility.yul\":8934:9037   */\n      tag_358\n      jumpi\n        /* \"#utility.yul\":9017:9035   */\n      tag_359\n      tag_245\n      jump\t// in\n    tag_359:\n        /* \"#utility.yul\":8934:9037   */\n    tag_358:\n        /* \"#utility.yul\":9064:9065   */\n      0x01\n        /* \"#utility.yul\":9057:9062   */\n      dup3\n        /* \"#utility.yul\":9053:9066   */\n      add\n        /* \"#utility.yul\":9046:9066   */\n      swap1\n      pop\n        /* \"#utility.yul\":8839:9072   */\n      swap2\n      swap1\n      pop\n      jump\t// out\n        /* \"#utility.yul\":9078:9258   */\n    tag_66:\n        /* \"#utility.yul\":9126:9203   */\n      0x4e487b7100000000000000000000000000000000000000000000000000000000\n        /* \"#utility.yul\":9123:9124   */\n      0x00\n        /* \"#utility.yul\":9116:9204   */\n      mstore\n        /* \"#utility.yul\":9223:9227   */\n      0x41\n        /* \"#utility.yul\":9220:9221   */\n      0x04\n        /* \"#utility.yul\":9213:9228   */\n      mstore\n        /* \"#utility.yul\":9247:9251   */\n      0x24\n        /* \"#utility.yul\":9244:9245   */\n      0x00\n        /* \"#utility.yul\":9237:9252   */\n      revert\n        /* \"#utility.yul\":9264:9444   */\n    tag_81:\n        /* \"#utility.yul\":9312:9389   */\n      0x4e487b7100000000000000000000000000000000000000000000000000000000\n        /* \"#utility.yul\":9309:9310   */\n      0x00\n        /* \"#utility.yul\":9302:9390   */\n      mstore\n        /* \"#utility.yul\":9409:9413   */\n      0x32\n        /* \"#utility.yul\":9406:9407   */\n      0x04\n        /* \"#utility.yul\":9399:9414   */\n      mstore\n        /* \"#utility.yul\":9433:9437   */\n      0x24\n        /* \"#utility.yul\":9430:9431   */\n      0x00\n        /* \"#utility.yul\":9423:9438   */\n      revert\n        /* \"#utility.yul\":9450:9619   */\n    tag_246:\n        /* \"#utility.yul\":9534:9545   */\n      0x00\n        /* \"#utility.yul\":9568:9574   */\n      dup3\n        /* \"#utility.yul\":9563:9566   */\n      dup3\n        /* \"#utility.yul\":9556:9575   */\n      mstore\n        /* \"#utility.yul\":9608:9612   */\n      0x20\n        /* \"#utility.yul\":9603:9606   */\n      dup3\n        /* \"#utility.yul\":9599:9613   */\n      add\n        /* \"#utility.yul\":9584:9613   */\n      swap1\n      pop\n        /* \"#utility.yul\":9450:9619   */\n      swap3\n      swap2\n      pop\n      pop\n      jump\t// out\n        /* \"#utility.yul\":9625:9804   */\n    tag_247:\n        /* \"#utility.yul\":9765:9796   */\n      0x5072696365206d7573742062652067726561746572207468616e20302e000000\n        /* \"#utility.yul\":9761:9762   */\n      0x00\n        /* \"#utility.yul\":9753:9759   */\n      dup3\n        /* \"#utility.yul\":9749:9763   */\n      add\n        /* \"#utility.yul\":9742:9797   */\n      mstore\n        /* \"#utility.yul\":9625:9804   */\n      pop\n      jump\t// out\n        /* \"#utility.yul\":9810:10176   */\n    tag_248:\n        /* \"#utility.yul\":9952:9955   */\n      0x00\n        /* \"#utility.yul\":9973:10040   */\n      tag_365\n        /* \"#utility.yul\":10037:10039   */\n      0x1d\n        /* \"#utility.yul\":10032:10035   */\n      dup4\n        /* \"#utility.yul\":9973:10040   */\n      tag_246\n      jump\t// in\n    tag_365:\n        /* \"#utility.yul\":9966:10040   */\n      swap2\n      pop\n        /* \"#utility.yul\":10049:10142   */\n      tag_366\n        /* \"#utility.yul\":10138:10141   */\n      dup3\n        /* \"#utility.yul\":10049:10142   */\n      tag_247\n      jump\t// in\n    tag_366:\n        /* \"#utility.yul\":10167:10169   */\n      0x20\n        /* \"#utility.yul\":10162:10165   */\n      dup3\n        /* \"#utility.yul\":10158:10170   */\n      add\n        /* \"#utility.yul\":10151:10170   */\n      swap1\n      pop\n        /* \"#utility.yul\":9810:10176   */\n      swap2\n      swap1\n      pop\n      jump\t// out\n        /* \"#utility.yul\":10182:10601   */\n    tag_89:\n        /* \"#utility.yul\":10348:10352   */\n      0x00\n        /* \"#utility.yul\":10386:10388   */\n      0x20\n        /* \"#utility.yul\":10375:10384   */\n      dup3\n        /* \"#utility.yul\":10371:10389   */\n      add\n        /* \"#utility.yul\":10363:10389   */\n      swap1\n      pop\n        /* \"#utility.yul\":10435:10444   */\n      dup2\n        /* \"#utility.yul\":10429:10433   */\n      dup2\n        /* \"#utility.yul\":10425:10445   */\n      sub\n        /* \"#utility.yul\":10421:10422   */\n      0x00\n        /* \"#utility.yul\":10410:10419   */\n      dup4\n        /* \"#utility.yul\":10406:10423   */\n      add\n        /* \"#utility.yul\":10399:10446   */\n      mstore\n        /* \"#utility.yul\":10463:10594   */\n      tag_368\n        /* \"#utility.yul\":10589:10593   */\n      dup2\n        /* \"#utility.yul\":10463:10594   */\n      tag_248\n      jump\t// in\n    tag_368:\n        /* \"#utility.yul\":10455:10594   */\n      swap1\n      pop\n        /* \"#utility.yul\":10182:10601   */\n      swap2\n      swap1\n      pop\n      jump\t// out\n        /* \"#utility.yul\":10607:10855   */\n    tag_249:\n        /* \"#utility.yul\":10747:10781   */\n      0x506c656173652072656d6f76652076616c7565206265666f7265206c69737469\n        /* \"#utility.yul\":10743:10744   */\n      0x00\n        /* \"#utility.yul\":10735:10741   */\n      dup3\n        /* \"#utility.yul\":10731:10745   */\n      add\n        /* \"#utility.yul\":10724:10782   */\n      mstore\n        /* \"#utility.yul\":10816:10847   */\n      0x6e67206974656d2c206c697374696e672066656520697320667265652e000000\n        /* \"#utility.yul\":10811:10813   */\n      0x20\n        /* \"#utility.yul\":10803:10809   */\n      dup3\n        /* \"#utility.yul\":10799:10814   */\n      add\n        /* \"#utility.yul\":10792:10848   */\n      mstore\n        /* \"#utility.yul\":10607:10855   */\n      pop\n      jump\t// out\n        /* \"#utility.yul\":10861:11227   */\n    tag_250:\n        /* \"#utility.yul\":11003:11006   */\n      0x00\n        /* \"#utility.yul\":11024:11091   */\n      tag_371\n        /* \"#utility.yul\":11088:11090   */\n      0x3d\n        /* \"#utility.yul\":11083:11086   */\n      dup4\n        /* \"#utility.yul\":11024:11091   */\n      tag_246\n      jump\t// in\n    tag_371:\n        /* \"#utility.yul\":11017:11091   */\n      swap2\n      pop\n        /* \"#utility.yul\":11100:11193   */\n      tag_372\n        /* \"#utility.yul\":11189:11192   */\n      dup3\n        /* \"#utility.yul\":11100:11193   */\n      tag_249\n      jump\t// in\n    tag_372:\n        /* \"#utility.yul\":11218:11220   */\n      0x40\n        /* \"#utility.yul\":11213:11216   */\n      dup3\n        /* \"#utility.yul\":11209:11221   */\n      add\n        /* \"#utility.yul\":11202:11221   */\n      swap1\n      pop\n        /* \"#utility.yul\":10861:11227   */\n      swap2\n      swap1\n      pop\n      jump\t// out\n        /* \"#utility.yul\":11233:11652   */\n    tag_92:\n        /* \"#utility.yul\":11399:11403   */\n      0x00\n        /* \"#utility.yul\":11437:11439   */\n      0x20\n        /* \"#utility.yul\":11426:11435   */\n      dup3\n        /* \"#utility.yul\":11422:11440   */\n      add\n        /* \"#utility.yul\":11414:11440   */\n      swap1\n      pop\n        /* \"#utility.yul\":11486:11495   */\n      dup2\n        /* \"#utility.yul\":11480:11484   */\n      dup2\n        /* \"#utility.yul\":11476:11496   */\n      sub\n        /* \"#utility.yul\":11472:11473   */\n      0x00\n        /* \"#utility.yul\":11461:11470   */\n      dup4\n        /* \"#utility.yul\":11457:11474   */\n      add\n        /* \"#utility.yul\":11450:11497   */\n      mstore\n        /* \"#utility.yul\":11514:11645   */\n      tag_374\n        /* \"#utility.yul\":11640:11644   */\n      dup2\n        /* \"#utility.yul\":11514:11645   */\n      tag_250\n      jump\t// in\n    tag_374:\n        /* \"#utility.yul\":11506:11645   */\n      swap1\n      pop\n        /* \"#utility.yul\":11233:11652   */\n      swap2\n      swap1\n      pop\n      jump\t// out\n        /* \"#utility.yul\":11658:11776   */\n    tag_251:\n        /* \"#utility.yul\":11745:11769   */\n      tag_376\n        /* \"#utility.yul\":11763:11768   */\n      dup2\n        /* \"#utility.yul\":11745:11769   */\n      tag_227\n      jump\t// in\n    tag_376:\n        /* \"#utility.yul\":11740:11743   */\n      dup3\n        /* \"#utility.yul\":11733:11770   */\n      mstore\n        /* \"#utility.yul\":11658:11776   */\n      pop\n      pop\n      jump\t// out\n        /* \"#utility.yul\":11782:12224   */\n    tag_94:\n        /* \"#utility.yul\":11931:11935   */\n      0x00\n        /* \"#utility.yul\":11969:11971   */\n      0x60\n        /* \"#utility.yul\":11958:11967   */\n      dup3\n        /* \"#utility.yul\":11954:11972   */\n      add\n        /* \"#utility.yul\":11946:11972   */\n      swap1\n      pop\n        /* \"#utility.yul\":11982:12053   */\n      tag_378\n        /* \"#utility.yul\":12050:12051   */\n      0x00\n        /* \"#utility.yul\":12039:12048   */\n      dup4\n        /* \"#utility.yul\":12035:12052   */\n      add\n        /* \"#utility.yul\":12026:12032   */\n      dup7\n        /* \"#utility.yul\":11982:12053   */\n      tag_251\n      jump\t// in\n    tag_378:\n        /* \"#utility.yul\":12063:12135   */\n      tag_379\n        /* \"#utility.yul\":12131:12133   */\n      0x20\n        /* \"#utility.yul\":12120:12129   */\n      dup4\n        /* \"#utility.yul\":12116:12134   */\n      add\n        /* \"#utility.yul\":12107:12113   */\n      dup6\n        /* \"#utility.yul\":12063:12135   */\n      tag_251\n      jump\t// in\n    tag_379:\n        /* \"#utility.yul\":12145:12217   */\n      tag_380\n        /* \"#utility.yul\":12213:12215   */\n      0x40\n        /* \"#utility.yul\":12202:12211   */\n      dup4\n        /* \"#utility.yul\":12198:12216   */\n      add\n        /* \"#utility.yul\":12189:12195   */\n      dup5\n        /* \"#utility.yul\":12145:12217   */\n      tag_222\n      jump\t// in\n    tag_380:\n        /* \"#utility.yul\":11782:12224   */\n      swap5\n      swap4\n      pop\n      pop\n      pop\n      pop\n      jump\t// out\n        /* \"#utility.yul\":12230:13005   */\n    tag_102:\n        /* \"#utility.yul\":12463:12467   */\n      0x00\n        /* \"#utility.yul\":12501:12504   */\n      0xc0\n        /* \"#utility.yul\":12490:12499   */\n      dup3\n        /* \"#utility.yul\":12486:12505   */\n      add\n        /* \"#utility.yul\":12478:12505   */\n      swap1\n      pop\n        /* \"#utility.yul\":12515:12586   */\n      tag_382\n        /* \"#utility.yul\":12583:12584   */\n      0x00\n        /* \"#utility.yul\":12572:12581   */\n      dup4\n        /* \"#utility.yul\":12568:12585   */\n      add\n        /* \"#utility.yul\":12559:12565   */\n      dup10\n        /* \"#utility.yul\":12515:12586   */\n      tag_251\n      jump\t// in\n    tag_382:\n        /* \"#utility.yul\":12596:12668   */\n      tag_383\n        /* \"#utility.yul\":12664:12666   */\n      0x20\n        /* \"#utility.yul\":12653:12662   */\n      dup4\n        /* \"#utility.yul\":12649:12667   */\n      add\n        /* \"#utility.yul\":12640:12646   */\n      dup9\n        /* \"#utility.yul\":12596:12668   */\n      tag_222\n      jump\t// in\n    tag_383:\n        /* \"#utility.yul\":12678:12750   */\n      tag_384\n        /* \"#utility.yul\":12746:12748   */\n      0x40\n        /* \"#utility.yul\":12735:12744   */\n      dup4\n        /* \"#utility.yul\":12731:12749   */\n      add\n        /* \"#utility.yul\":12722:12728   */\n      dup8\n        /* \"#utility.yul\":12678:12750   */\n      tag_251\n      jump\t// in\n    tag_384:\n        /* \"#utility.yul\":12760:12832   */\n      tag_385\n        /* \"#utility.yul\":12828:12830   */\n      0x60\n        /* \"#utility.yul\":12817:12826   */\n      dup4\n        /* \"#utility.yul\":12813:12831   */\n      add\n        /* \"#utility.yul\":12804:12810   */\n      dup7\n        /* \"#utility.yul\":12760:12832   */\n      tag_251\n      jump\t// in\n    tag_385:\n        /* \"#utility.yul\":12842:12915   */\n      tag_386\n        /* \"#utility.yul\":12910:12913   */\n      0x80\n        /* \"#utility.yul\":12899:12908   */\n      dup4\n        /* \"#utility.yul\":12895:12914   */\n      add\n        /* \"#utility.yul\":12886:12892   */\n      dup6\n        /* \"#utility.yul\":12842:12915   */\n      tag_222\n      jump\t// in\n    tag_386:\n        /* \"#utility.yul\":12925:12998   */\n      tag_387\n        /* \"#utility.yul\":12993:12996   */\n      0xa0\n        /* \"#utility.yul\":12982:12991   */\n      dup4\n        /* \"#utility.yul\":12978:12997   */\n      add\n        /* \"#utility.yul\":12969:12975   */\n      dup5\n        /* \"#utility.yul\":12925:12998   */\n      tag_222\n      jump\t// in\n    tag_387:\n        /* \"#utility.yul\":12230:13005   */\n      swap8\n      swap7\n      pop\n      pop\n      pop\n      pop\n      pop\n      pop\n      pop\n      jump\t// out\n        /* \"#utility.yul\":13011:13241   */\n    tag_252:\n        /* \"#utility.yul\":13151:13185   */\n      0x4d757374206f776e20746865206974656d20746f20726563616c6c2069742066\n        /* \"#utility.yul\":13147:13148   */\n      0x00\n        /* \"#utility.yul\":13139:13145   */\n      dup3\n        /* \"#utility.yul\":13135:13149   */\n      add\n        /* \"#utility.yul\":13128:13186   */\n      mstore\n        /* \"#utility.yul\":13220:13233   */\n      0x726f6d2072656e7465722e000000000000000000000000000000000000000000\n        /* \"#utility.yul\":13215:13217   */\n      0x20\n        /* \"#utility.yul\":13207:13213   */\n      dup3\n        /* \"#utility.yul\":13203:13218   */\n      add\n        /* \"#utility.yul\":13196:13234   */\n      mstore\n        /* \"#utility.yul\":13011:13241   */\n      pop\n      jump\t// out\n        /* \"#utility.yul\":13247:13613   */\n    tag_253:\n        /* \"#utility.yul\":13389:13392   */\n      0x00\n        /* \"#utility.yul\":13410:13477   */\n      tag_390\n        /* \"#utility.yul\":13474:13476   */\n      0x2b\n        /* \"#utility.yul\":13469:13472   */\n      dup4\n        /* \"#utility.yul\":13410:13477   */\n      tag_246\n      jump\t// in\n    tag_390:\n        /* \"#utility.yul\":13403:13477   */\n      swap2\n      pop\n        /* \"#utility.yul\":13486:13579   */\n      tag_391\n        /* \"#utility.yul\":13575:13578   */\n      dup3\n        /* \"#utility.yul\":13486:13579   */\n      tag_252\n      jump\t// in\n    tag_391:\n        /* \"#utility.yul\":13604:13606   */\n      0x40\n        /* \"#utility.yul\":13599:13602   */\n      dup3\n        /* \"#utility.yul\":13595:13607   */\n      add\n        /* \"#utility.yul\":13588:13607   */\n      swap1\n      pop\n        /* \"#utility.yul\":13247:13613   */\n      swap2\n      swap1\n      pop\n      jump\t// out\n        /* \"#utility.yul\":13619:14038   */\n    tag_110:\n        /* \"#utility.yul\":13785:13789   */\n      0x00\n        /* \"#utility.yul\":13823:13825   */\n      0x20\n        /* \"#utility.yul\":13812:13821   */\n      dup3\n        /* \"#utility.yul\":13808:13826   */\n      add\n        /* \"#utility.yul\":13800:13826   */\n      swap1\n      pop\n        /* \"#utility.yul\":13872:13881   */\n      dup2\n        /* \"#utility.yul\":13866:13870   */\n      dup2\n        /* \"#utility.yul\":13862:13882   */\n      sub\n        /* \"#utility.yul\":13858:13859   */\n      0x00\n        /* \"#utility.yul\":13847:13856   */\n      dup4\n        /* \"#utility.yul\":13843:13860   */\n      add\n        /* \"#utility.yul\":13836:13883   */\n      mstore\n        /* \"#utility.yul\":13900:14031   */\n      tag_393\n        /* \"#utility.yul\":14026:14030   */\n      dup2\n        /* \"#utility.yul\":13900:14031   */\n      tag_253\n      jump\t// in\n    tag_393:\n        /* \"#utility.yul\":13892:14031   */\n      swap1\n      pop\n        /* \"#utility.yul\":13619:14038   */\n      swap2\n      swap1\n      pop\n      jump\t// out\n        /* \"#utility.yul\":14044:14217   */\n    tag_254:\n        /* \"#utility.yul\":14184:14209   */\n      0x43616e6e6f7420726563616c6c206974656d207965742e000000000000000000\n        /* \"#utility.yul\":14180:14181   */\n      0x00\n        /* \"#utility.yul\":14172:14178   */\n      dup3\n        /* \"#utility.yul\":14168:14182   */\n      add\n        /* \"#utility.yul\":14161:14210   */\n      mstore\n        /* \"#utility.yul\":14044:14217   */\n      pop\n      jump\t// out\n        /* \"#utility.yul\":14223:14589   */\n    tag_255:\n        /* \"#utility.yul\":14365:14368   */\n      0x00\n        /* \"#utility.yul\":14386:14453   */\n      tag_396\n        /* \"#utility.yul\":14450:14452   */\n      0x17\n        /* \"#utility.yul\":14445:14448   */\n      dup4\n        /* \"#utility.yul\":14386:14453   */\n      tag_246\n      jump\t// in\n    tag_396:\n        /* \"#utility.yul\":14379:14453   */\n      swap2\n      pop\n        /* \"#utility.yul\":14462:14555   */\n      tag_397\n        /* \"#utility.yul\":14551:14554   */\n      dup3\n        /* \"#utility.yul\":14462:14555   */\n      tag_254\n      jump\t// in\n    tag_397:\n        /* \"#utility.yul\":14580:14582   */\n      0x20\n        /* \"#utility.yul\":14575:14578   */\n      dup3\n        /* \"#utility.yul\":14571:14583   */\n      add\n        /* \"#utility.yul\":14564:14583   */\n      swap1\n      pop\n        /* \"#utility.yul\":14223:14589   */\n      swap2\n      swap1\n      pop\n      jump\t// out\n        /* \"#utility.yul\":14595:15014   */\n    tag_113:\n        /* \"#utility.yul\":14761:14765   */\n      0x00\n        /* \"#utility.yul\":14799:14801   */\n      0x20\n        /* \"#utility.yul\":14788:14797   */\n      dup3\n        /* \"#utility.yul\":14784:14802   */\n      add\n        /* \"#utility.yul\":14776:14802   */\n      swap1\n      pop\n        /* \"#utility.yul\":14848:14857   */\n      dup2\n        /* \"#utility.yul\":14842:14846   */\n      dup2\n        /* \"#utility.yul\":14838:14858   */\n      sub\n        /* \"#utility.yul\":14834:14835   */\n      0x00\n        /* \"#utility.yul\":14823:14832   */\n      dup4\n        /* \"#utility.yul\":14819:14836   */\n      add\n        /* \"#utility.yul\":14812:14859   */\n      mstore\n        /* \"#utility.yul\":14876:15007   */\n      tag_399\n        /* \"#utility.yul\":15002:15006   */\n      dup2\n        /* \"#utility.yul\":14876:15007   */\n      tag_255\n      jump\t// in\n    tag_399:\n        /* \"#utility.yul\":14868:15007   */\n      swap1\n      pop\n        /* \"#utility.yul\":14595:15014   */\n      swap2\n      swap1\n      pop\n      jump\t// out\n        /* \"#utility.yul\":15020:15191   */\n    tag_115:\n        /* \"#utility.yul\":15059:15062   */\n      0x00\n        /* \"#utility.yul\":15082:15106   */\n      tag_401\n        /* \"#utility.yul\":15100:15105   */\n      dup3\n        /* \"#utility.yul\":15082:15106   */\n      tag_221\n      jump\t// in\n    tag_401:\n        /* \"#utility.yul\":15073:15106   */\n      swap2\n      pop\n        /* \"#utility.yul\":15128:15132   */\n      0x00\n        /* \"#utility.yul\":15121:15126   */\n      dup3\n        /* \"#utility.yul\":15118:15133   */\n      sub\n        /* \"#utility.yul\":15115:15156   */\n      tag_402\n      jumpi\n        /* \"#utility.yul\":15136:15154   */\n      tag_403\n      tag_245\n      jump\t// in\n    tag_403:\n        /* \"#utility.yul\":15115:15156   */\n    tag_402:\n        /* \"#utility.yul\":15183:15184   */\n      0x01\n        /* \"#utility.yul\":15176:15181   */\n      dup3\n        /* \"#utility.yul\":15172:15185   */\n      sub\n        /* \"#utility.yul\":15165:15185   */\n      swap1\n      pop\n        /* \"#utility.yul\":15020:15191   */\n      swap2\n      swap1\n      pop\n      jump\t// out\n        /* \"#utility.yul\":15197:15379   */\n    tag_256:\n        /* \"#utility.yul\":15337:15371   */\n      0x496e73756666696369656e742066756e647320746f2072656e74206974656d2e\n        /* \"#utility.yul\":15333:15334   */\n      0x00\n        /* \"#utility.yul\":15325:15331   */\n      dup3\n        /* \"#utility.yul\":15321:15335   */\n      add\n        /* \"#utility.yul\":15314:15372   */\n      mstore\n        /* \"#utility.yul\":15197:15379   */\n      pop\n      jump\t// out\n        /* \"#utility.yul\":15385:15751   */\n    tag_257:\n        /* \"#utility.yul\":15527:15530   */\n      0x00\n        /* \"#utility.yul\":15548:15615   */\n      tag_406\n        /* \"#utility.yul\":15612:15614   */\n      0x20\n        /* \"#utility.yul\":15607:15610   */\n      dup4\n        /* \"#utility.yul\":15548:15615   */\n      tag_246\n      jump\t// in\n    tag_406:\n        /* \"#utility.yul\":15541:15615   */\n      swap2\n      pop\n        /* \"#utility.yul\":15624:15717   */\n      tag_407\n        /* \"#utility.yul\":15713:15716   */\n      dup3\n        /* \"#utility.yul\":15624:15717   */\n      tag_256\n      jump\t// in\n    tag_407:\n        /* \"#utility.yul\":15742:15744   */\n      0x20\n        /* \"#utility.yul\":15737:15740   */\n      dup3\n        /* \"#utility.yul\":15733:15745   */\n      add\n        /* \"#utility.yul\":15726:15745   */\n      swap1\n      pop\n        /* \"#utility.yul\":15385:15751   */\n      swap2\n      swap1\n      pop\n      jump\t// out\n        /* \"#utility.yul\":15757:16176   */\n    tag_122:\n        /* \"#utility.yul\":15923:15927   */\n      0x00\n        /* \"#utility.yul\":15961:15963   */\n      0x20\n        /* \"#utility.yul\":15950:15959   */\n      dup3\n        /* \"#utility.yul\":15946:15964   */\n      add\n        /* \"#utility.yul\":15938:15964   */\n      swap1\n      pop\n        /* \"#utility.yul\":16010:16019   */\n      dup2\n        /* \"#utility.yul\":16004:16008   */\n      dup2\n        /* \"#utility.yul\":16000:16020   */\n      sub\n        /* \"#utility.yul\":15996:15997   */\n      0x00\n        /* \"#utility.yul\":15985:15994   */\n      dup4\n        /* \"#utility.yul\":15981:15998   */\n      add\n        /* \"#utility.yul\":15974:16021   */\n      mstore\n        /* \"#utility.yul\":16038:16169   */\n      tag_409\n        /* \"#utility.yul\":16164:16168   */\n      dup2\n        /* \"#utility.yul\":16038:16169   */\n      tag_257\n      jump\t// in\n    tag_409:\n        /* \"#utility.yul\":16030:16169   */\n      swap1\n      pop\n        /* \"#utility.yul\":15757:16176   */\n      swap2\n      swap1\n      pop\n      jump\t// out\n        /* \"#utility.yul\":16182:16242   */\n    tag_258:\n        /* \"#utility.yul\":16210:16213   */\n      0x00\n        /* \"#utility.yul\":16231:16236   */\n      dup2\n        /* \"#utility.yul\":16224:16236   */\n      swap1\n      pop\n        /* \"#utility.yul\":16182:16242   */\n      swap2\n      swap1\n      pop\n      jump\t// out\n        /* \"#utility.yul\":16248:16390   */\n    tag_259:\n        /* \"#utility.yul\":16298:16307   */\n      0x00\n        /* \"#utility.yul\":16331:16384   */\n      tag_412\n        /* \"#utility.yul\":16349:16383   */\n      tag_413\n        /* \"#utility.yul\":16358:16382   */\n      tag_414\n        /* \"#utility.yul\":16376:16381   */\n      dup5\n        /* \"#utility.yul\":16358:16382   */\n      tag_226\n      jump\t// in\n    tag_414:\n        /* \"#utility.yul\":16349:16383   */\n      tag_258\n      jump\t// in\n    tag_413:\n        /* \"#utility.yul\":16331:16384   */\n      tag_226\n      jump\t// in\n    tag_412:\n        /* \"#utility.yul\":16318:16384   */\n      swap1\n      pop\n        /* \"#utility.yul\":16248:16390   */\n      swap2\n      swap1\n      pop\n      jump\t// out\n        /* \"#utility.yul\":16396:16522   */\n    tag_260:\n        /* \"#utility.yul\":16446:16455   */\n      0x00\n        /* \"#utility.yul\":16479:16516   */\n      tag_416\n        /* \"#utility.yul\":16510:16515   */\n      dup3\n        /* \"#utility.yul\":16479:16516   */\n      tag_259\n      jump\t// in\n    tag_416:\n        /* \"#utility.yul\":16466:16516   */\n      swap1\n      pop\n        /* \"#utility.yul\":16396:16522   */\n      swap2\n      swap1\n      pop\n      jump\t// out\n        /* \"#utility.yul\":16528:16662   */\n    tag_261:\n        /* \"#utility.yul\":16586:16595   */\n      0x00\n        /* \"#utility.yul\":16619:16656   */\n      tag_418\n        /* \"#utility.yul\":16650:16655   */\n      dup3\n        /* \"#utility.yul\":16619:16656   */\n      tag_260\n      jump\t// in\n    tag_418:\n        /* \"#utility.yul\":16606:16656   */\n      swap1\n      pop\n        /* \"#utility.yul\":16528:16662   */\n      swap2\n      swap1\n      pop\n      jump\t// out\n        /* \"#utility.yul\":16668:16815   */\n    tag_262:\n        /* \"#utility.yul\":16763:16808   */\n      tag_420\n        /* \"#utility.yul\":16802:16807   */\n      dup2\n        /* \"#utility.yul\":16763:16808   */\n      tag_261\n      jump\t// in\n    tag_420:\n        /* \"#utility.yul\":16758:16761   */\n      dup3\n        /* \"#utility.yul\":16751:16809   */\n      mstore\n        /* \"#utility.yul\":16668:16815   */\n      pop\n      pop\n      jump\t// out\n        /* \"#utility.yul\":16821:17628   */\n    tag_128:\n        /* \"#utility.yul\":17070:17074   */\n      0x00\n        /* \"#utility.yul\":17108:17111   */\n      0xc0\n        /* \"#utility.yul\":17097:17106   */\n      dup3\n        /* \"#utility.yul\":17093:17112   */\n      add\n        /* \"#utility.yul\":17085:17112   */\n      swap1\n      pop\n        /* \"#utility.yul\":17122:17193   */\n      tag_422\n        /* \"#utility.yul\":17190:17191   */\n      0x00\n        /* \"#utility.yul\":17179:17188   */\n      dup4\n        /* \"#utility.yul\":17175:17192   */\n      add\n        /* \"#utility.yul\":17166:17172   */\n      dup10\n        /* \"#utility.yul\":17122:17193   */\n      tag_251\n      jump\t// in\n    tag_422:\n        /* \"#utility.yul\":17203:17275   */\n      tag_423\n        /* \"#utility.yul\":17271:17273   */\n      0x20\n        /* \"#utility.yul\":17260:17269   */\n      dup4\n        /* \"#utility.yul\":17256:17274   */\n      add\n        /* \"#utility.yul\":17247:17253   */\n      dup9\n        /* \"#utility.yul\":17203:17275   */\n      tag_222\n      jump\t// in\n    tag_423:\n        /* \"#utility.yul\":17285:17365   */\n      tag_424\n        /* \"#utility.yul\":17361:17363   */\n      0x40\n        /* \"#utility.yul\":17350:17359   */\n      dup4\n        /* \"#utility.yul\":17346:17364   */\n      add\n        /* \"#utility.yul\":17337:17343   */\n      dup8\n        /* \"#utility.yul\":17285:17365   */\n      tag_262\n      jump\t// in\n    tag_424:\n        /* \"#utility.yul\":17375:17455   */\n      tag_425\n        /* \"#utility.yul\":17451:17453   */\n      0x60\n        /* \"#utility.yul\":17440:17449   */\n      dup4\n        /* \"#utility.yul\":17436:17454   */\n      add\n        /* \"#utility.yul\":17427:17433   */\n      dup7\n        /* \"#utility.yul\":17375:17455   */\n      tag_262\n      jump\t// in\n    tag_425:\n        /* \"#utility.yul\":17465:17538   */\n      tag_426\n        /* \"#utility.yul\":17533:17536   */\n      0x80\n        /* \"#utility.yul\":17522:17531   */\n      dup4\n        /* \"#utility.yul\":17518:17537   */\n      add\n        /* \"#utility.yul\":17509:17515   */\n      dup6\n        /* \"#utility.yul\":17465:17538   */\n      tag_222\n      jump\t// in\n    tag_426:\n        /* \"#utility.yul\":17548:17621   */\n      tag_427\n        /* \"#utility.yul\":17616:17619   */\n      0xa0\n        /* \"#utility.yul\":17605:17614   */\n      dup4\n        /* \"#utility.yul\":17601:17620   */\n      add\n        /* \"#utility.yul\":17592:17598   */\n      dup5\n        /* \"#utility.yul\":17548:17621   */\n      tag_222\n      jump\t// in\n    tag_427:\n        /* \"#utility.yul\":16821:17628   */\n      swap8\n      swap7\n      pop\n      pop\n      pop\n      pop\n      pop\n      pop\n      pop\n      jump\t// out\n        /* \"#utility.yul\":17634:18298   */\n    tag_145:\n        /* \"#utility.yul\":17839:17843   */\n      0x00\n        /* \"#utility.yul\":17877:17880   */\n      0xa0\n        /* \"#utility.yul\":17866:17875   */\n      dup3\n        /* \"#utility.yul\":17862:17881   */\n      add\n        /* \"#utility.yul\":17854:17881   */\n      swap1\n      pop\n        /* \"#utility.yul\":17891:17962   */\n      tag_429\n        /* \"#utility.yul\":17959:17960   */\n      0x00\n        /* \"#utility.yul\":17948:17957   */\n      dup4\n        /* \"#utility.yul\":17944:17961   */\n      add\n        /* \"#utility.yul\":17935:17941   */\n      dup9\n        /* \"#utility.yul\":17891:17962   */\n      tag_251\n      jump\t// in\n    tag_429:\n        /* \"#utility.yul\":17972:18044   */\n      tag_430\n        /* \"#utility.yul\":18040:18042   */\n      0x20\n        /* \"#utility.yul\":18029:18038   */\n      dup4\n        /* \"#utility.yul\":18025:18043   */\n      add\n        /* \"#utility.yul\":18016:18022   */\n      dup8\n        /* \"#utility.yul\":17972:18044   */\n      tag_222\n      jump\t// in\n    tag_430:\n        /* \"#utility.yul\":18054:18126   */\n      tag_431\n        /* \"#utility.yul\":18122:18124   */\n      0x40\n        /* \"#utility.yul\":18111:18120   */\n      dup4\n        /* \"#utility.yul\":18107:18125   */\n      add\n        /* \"#utility.yul\":18098:18104   */\n      dup7\n        /* \"#utility.yul\":18054:18126   */\n      tag_251\n      jump\t// in\n    tag_431:\n        /* \"#utility.yul\":18136:18208   */\n      tag_432\n        /* \"#utility.yul\":18204:18206   */\n      0x60\n        /* \"#utility.yul\":18193:18202   */\n      dup4\n        /* \"#utility.yul\":18189:18207   */\n      add\n        /* \"#utility.yul\":18180:18186   */\n      dup6\n        /* \"#utility.yul\":18136:18208   */\n      tag_251\n      jump\t// in\n    tag_432:\n        /* \"#utility.yul\":18218:18291   */\n      tag_433\n        /* \"#utility.yul\":18286:18289   */\n      0x80\n        /* \"#utility.yul\":18275:18284   */\n      dup4\n        /* \"#utility.yul\":18271:18290   */\n      add\n        /* \"#utility.yul\":18262:18268   */\n      dup5\n        /* \"#utility.yul\":18218:18291   */\n      tag_222\n      jump\t// in\n    tag_433:\n        /* \"#utility.yul\":17634:18298   */\n      swap7\n      swap6\n      pop\n      pop\n      pop\n      pop\n      pop\n      pop\n      jump\t// out\n        /* \"#utility.yul\":18304:18482   */\n    tag_263:\n        /* \"#utility.yul\":18444:18474   */\n      0x5072696365206d757374206265206174206c6561737420312077656900000000\n        /* \"#utility.yul\":18440:18441   */\n      0x00\n        /* \"#utility.yul\":18432:18438   */\n      dup3\n        /* \"#utility.yul\":18428:18442   */\n      add\n        /* \"#utility.yul\":18421:18475   */\n      mstore\n        /* \"#utility.yul\":18304:18482   */\n      pop\n      jump\t// out\n        /* \"#utility.yul\":18488:18854   */\n    tag_264:\n        /* \"#utility.yul\":18630:18633   */\n      0x00\n        /* \"#utility.yul\":18651:18718   */\n      tag_436\n        /* \"#utility.yul\":18715:18717   */\n      0x1c\n        /* \"#utility.yul\":18710:18713   */\n      dup4\n        /* \"#utility.yul\":18651:18718   */\n      tag_246\n      jump\t// in\n    tag_436:\n        /* \"#utility.yul\":18644:18718   */\n      swap2\n      pop\n        /* \"#utility.yul\":18727:18820   */\n      tag_437\n        /* \"#utility.yul\":18816:18819   */\n      dup3\n        /* \"#utility.yul\":18727:18820   */\n      tag_263\n      jump\t// in\n    tag_437:\n        /* \"#utility.yul\":18845:18847   */\n      0x20\n        /* \"#utility.yul\":18840:18843   */\n      dup3\n        /* \"#utility.yul\":18836:18848   */\n      add\n        /* \"#utility.yul\":18829:18848   */\n      swap1\n      pop\n        /* \"#utility.yul\":18488:18854   */\n      swap2\n      swap1\n      pop\n      jump\t// out\n        /* \"#utility.yul\":18860:19279   */\n    tag_152:\n        /* \"#utility.yul\":19026:19030   */\n      0x00\n        /* \"#utility.yul\":19064:19066   */\n      0x20\n        /* \"#utility.yul\":19053:19062   */\n      dup3\n        /* \"#utility.yul\":19049:19067   */\n      add\n        /* \"#utility.yul\":19041:19067   */\n      swap1\n      pop\n        /* \"#utility.yul\":19113:19122   */\n      dup2\n        /* \"#utility.yul\":19107:19111   */\n      dup2\n        /* \"#utility.yul\":19103:19123   */\n      sub\n        /* \"#utility.yul\":19099:19100   */\n      0x00\n        /* \"#utility.yul\":19088:19097   */\n      dup4\n        /* \"#utility.yul\":19084:19101   */\n      add\n        /* \"#utility.yul\":19077:19124   */\n      mstore\n        /* \"#utility.yul\":19141:19272   */\n      tag_439\n        /* \"#utility.yul\":19267:19271   */\n      dup2\n        /* \"#utility.yul\":19141:19272   */\n      tag_264\n      jump\t// in\n    tag_439:\n        /* \"#utility.yul\":19133:19272   */\n      swap1\n      pop\n        /* \"#utility.yul\":18860:19279   */\n      swap2\n      swap1\n      pop\n      jump\t// out\n        /* \"#utility.yul\":19285:19467   */\n    tag_265:\n        /* \"#utility.yul\":19425:19459   */\n      0x4e6f7420656e6f75676820657468657220666f72206c697374696e6720666565\n        /* \"#utility.yul\":19421:19422   */\n      0x00\n        /* \"#utility.yul\":19413:19419   */\n      dup3\n        /* \"#utility.yul\":19409:19423   */\n      add\n        /* \"#utility.yul\":19402:19460   */\n      mstore\n        /* \"#utility.yul\":19285:19467   */\n      pop\n      jump\t// out\n        /* \"#utility.yul\":19473:19839   */\n    tag_266:\n        /* \"#utility.yul\":19615:19618   */\n      0x00\n        /* \"#utility.yul\":19636:19703   */\n      tag_442\n        /* \"#utility.yul\":19700:19702   */\n      0x20\n        /* \"#utility.yul\":19695:19698   */\n      dup4\n        /* \"#utility.yul\":19636:19703   */\n      tag_246\n      jump\t// in\n    tag_442:\n        /* \"#utility.yul\":19629:19703   */\n      swap2\n      pop\n        /* \"#utility.yul\":19712:19805   */\n      tag_443\n        /* \"#utility.yul\":19801:19804   */\n      dup3\n        /* \"#utility.yul\":19712:19805   */\n      tag_265\n      jump\t// in\n    tag_443:\n        /* \"#utility.yul\":19830:19832   */\n      0x20\n        /* \"#utility.yul\":19825:19828   */\n      dup3\n        /* \"#utility.yul\":19821:19833   */\n      add\n        /* \"#utility.yul\":19814:19833   */\n      swap1\n      pop\n        /* \"#utility.yul\":19473:19839   */\n      swap2\n      swap1\n      pop\n      jump\t// out\n        /* \"#utility.yul\":19845:20264   */\n    tag_155:\n        /* \"#utility.yul\":20011:20015   */\n      0x00\n        /* \"#utility.yul\":20049:20051   */\n      0x20\n        /* \"#utility.yul\":20038:20047   */\n      dup3\n        /* \"#utility.yul\":20034:20052   */\n      add\n        /* \"#utility.yul\":20026:20052   */\n      swap1\n      pop\n        /* \"#utility.yul\":20098:20107   */\n      dup2\n        /* \"#utility.yul\":20092:20096   */\n      dup2\n        /* \"#utility.yul\":20088:20108   */\n      sub\n        /* \"#utility.yul\":20084:20085   */\n      0x00\n        /* \"#utility.yul\":20073:20082   */\n      dup4\n        /* \"#utility.yul\":20069:20086   */\n      add\n        /* \"#utility.yul\":20062:20109   */\n      mstore\n        /* \"#utility.yul\":20126:20257   */\n      tag_445\n        /* \"#utility.yul\":20252:20256   */\n      dup2\n        /* \"#utility.yul\":20126:20257   */\n      tag_266\n      jump\t// in\n    tag_445:\n        /* \"#utility.yul\":20118:20257   */\n      swap1\n      pop\n        /* \"#utility.yul\":19845:20264   */\n      swap2\n      swap1\n      pop\n      jump\t// out\n        /* \"#utility.yul\":20270:20493   */\n    tag_267:\n        /* \"#utility.yul\":20410:20444   */\n      0x496e73756666696369656e742066756e647320746f2070757263686173652069\n        /* \"#utility.yul\":20406:20407   */\n      0x00\n        /* \"#utility.yul\":20398:20404   */\n      dup3\n        /* \"#utility.yul\":20394:20408   */\n      add\n        /* \"#utility.yul\":20387:20445   */\n      mstore\n        /* \"#utility.yul\":20479:20485   */\n      0x74656d2e00000000000000000000000000000000000000000000000000000000\n        /* \"#utility.yul\":20474:20476   */\n      0x20\n        /* \"#utility.yul\":20466:20472   */\n      dup3\n        /* \"#utility.yul\":20462:20477   */\n      add\n        /* \"#utility.yul\":20455:20486   */\n      mstore\n        /* \"#utility.yul\":20270:20493   */\n      pop\n      jump\t// out\n        /* \"#utility.yul\":20499:20865   */\n    tag_268:\n        /* \"#utility.yul\":20641:20644   */\n      0x00\n        /* \"#utility.yul\":20662:20729   */\n      tag_448\n        /* \"#utility.yul\":20726:20728   */\n      0x24\n        /* \"#utility.yul\":20721:20724   */\n      dup4\n        /* \"#utility.yul\":20662:20729   */\n      tag_246\n      jump\t// in\n    tag_448:\n        /* \"#utility.yul\":20655:20729   */\n      swap2\n      pop\n        /* \"#utility.yul\":20738:20831   */\n      tag_449\n        /* \"#utility.yul\":20827:20830   */\n      dup3\n        /* \"#utility.yul\":20738:20831   */\n      tag_267\n      jump\t// in\n    tag_449:\n        /* \"#utility.yul\":20856:20858   */\n      0x40\n        /* \"#utility.yul\":20851:20854   */\n      dup3\n        /* \"#utility.yul\":20847:20859   */\n      add\n        /* \"#utility.yul\":20840:20859   */\n      swap1\n      pop\n        /* \"#utility.yul\":20499:20865   */\n      swap2\n      swap1\n      pop\n      jump\t// out\n        /* \"#utility.yul\":20871:21290   */\n    tag_168:\n        /* \"#utility.yul\":21037:21041   */\n      0x00\n        /* \"#utility.yul\":21075:21077   */\n      0x20\n        /* \"#utility.yul\":21064:21073   */\n      dup3\n        /* \"#utility.yul\":21060:21078   */\n      add\n        /* \"#utility.yul\":21052:21078   */\n      swap1\n      pop\n        /* \"#utility.yul\":21124:21133   */\n      dup2\n        /* \"#utility.yul\":21118:21122   */\n      dup2\n        /* \"#utility.yul\":21114:21134   */\n      sub\n        /* \"#utility.yul\":21110:21111   */\n      0x00\n        /* \"#utility.yul\":21099:21108   */\n      dup4\n        /* \"#utility.yul\":21095:21112   */\n      add\n        /* \"#utility.yul\":21088:21135   */\n      mstore\n        /* \"#utility.yul\":21152:21283   */\n      tag_451\n        /* \"#utility.yul\":21278:21282   */\n      dup2\n        /* \"#utility.yul\":21152:21283   */\n      tag_268\n      jump\t// in\n    tag_451:\n        /* \"#utility.yul\":21144:21283   */\n      swap1\n      pop\n        /* \"#utility.yul\":20871:21290   */\n      swap2\n      swap1\n      pop\n      jump\t// out\n        /* \"#utility.yul\":21296:21754   */\n    tag_172:\n        /* \"#utility.yul\":21453:21457   */\n      0x00\n        /* \"#utility.yul\":21491:21493   */\n      0x60\n        /* \"#utility.yul\":21480:21489   */\n      dup3\n        /* \"#utility.yul\":21476:21494   */\n      add\n        /* \"#utility.yul\":21468:21494   */\n      swap1\n      pop\n        /* \"#utility.yul\":21504:21575   */\n      tag_453\n        /* \"#utility.yul\":21572:21573   */\n      0x00\n        /* \"#utility.yul\":21561:21570   */\n      dup4\n        /* \"#utility.yul\":21557:21574   */\n      add\n        /* \"#utility.yul\":21548:21554   */\n      dup7\n        /* \"#utility.yul\":21504:21575   */\n      tag_251\n      jump\t// in\n    tag_453:\n        /* \"#utility.yul\":21585:21665   */\n      tag_454\n        /* \"#utility.yul\":21661:21663   */\n      0x20\n        /* \"#utility.yul\":21650:21659   */\n      dup4\n        /* \"#utility.yul\":21646:21664   */\n      add\n        /* \"#utility.yul\":21637:21643   */\n      dup6\n        /* \"#utility.yul\":21585:21665   */\n      tag_262\n      jump\t// in\n    tag_454:\n        /* \"#utility.yul\":21675:21747   */\n      tag_455\n        /* \"#utility.yul\":21743:21745   */\n      0x40\n        /* \"#utility.yul\":21732:21741   */\n      dup4\n        /* \"#utility.yul\":21728:21746   */\n      add\n        /* \"#utility.yul\":21719:21725   */\n      dup5\n        /* \"#utility.yul\":21675:21747   */\n      tag_222\n      jump\t// in\n    tag_455:\n        /* \"#utility.yul\":21296:21754   */\n      swap5\n      swap4\n      pop\n      pop\n      pop\n      pop\n      jump\t// out\n        /* \"#utility.yul\":21760:22456   */\n    tag_178:\n        /* \"#utility.yul\":21981:21985   */\n      0x00\n        /* \"#utility.yul\":22019:22022   */\n      0xa0\n        /* \"#utility.yul\":22008:22017   */\n      dup3\n        /* \"#utility.yul\":22004:22023   */\n      add\n        /* \"#utility.yul\":21996:22023   */\n      swap1\n      pop\n        /* \"#utility.yul\":22033:22104   */\n      tag_457\n        /* \"#utility.yul\":22101:22102   */\n      0x00\n        /* \"#utility.yul\":22090:22099   */\n      dup4\n        /* \"#utility.yul\":22086:22103   */\n      add\n        /* \"#utility.yul\":22077:22083   */\n      dup9\n        /* \"#utility.yul\":22033:22104   */\n      tag_251\n      jump\t// in\n    tag_457:\n        /* \"#utility.yul\":22114:22186   */\n      tag_458\n        /* \"#utility.yul\":22182:22184   */\n      0x20\n        /* \"#utility.yul\":22171:22180   */\n      dup4\n        /* \"#utility.yul\":22167:22185   */\n      add\n        /* \"#utility.yul\":22158:22164   */\n      dup8\n        /* \"#utility.yul\":22114:22186   */\n      tag_222\n      jump\t// in\n    tag_458:\n        /* \"#utility.yul\":22196:22276   */\n      tag_459\n        /* \"#utility.yul\":22272:22274   */\n      0x40\n        /* \"#utility.yul\":22261:22270   */\n      dup4\n        /* \"#utility.yul\":22257:22275   */\n      add\n        /* \"#utility.yul\":22248:22254   */\n      dup7\n        /* \"#utility.yul\":22196:22276   */\n      tag_262\n      jump\t// in\n    tag_459:\n        /* \"#utility.yul\":22286:22366   */\n      tag_460\n        /* \"#utility.yul\":22362:22364   */\n      0x60\n        /* \"#utility.yul\":22351:22360   */\n      dup4\n        /* \"#utility.yul\":22347:22365   */\n      add\n        /* \"#utility.yul\":22338:22344   */\n      dup6\n        /* \"#utility.yul\":22286:22366   */\n      tag_262\n      jump\t// in\n    tag_460:\n        /* \"#utility.yul\":22376:22449   */\n      tag_461\n        /* \"#utility.yul\":22444:22447   */\n      0x80\n        /* \"#utility.yul\":22433:22442   */\n      dup4\n        /* \"#utility.yul\":22429:22448   */\n      add\n        /* \"#utility.yul\":22420:22426   */\n      dup5\n        /* \"#utility.yul\":22376:22449   */\n      tag_222\n      jump\t// in\n    tag_461:\n        /* \"#utility.yul\":21760:22456   */\n      swap7\n      swap6\n      pop\n      pop\n      pop\n      pop\n      pop\n      pop\n      jump\t// out\n        /* \"#utility.yul\":22462:22656   */\n    tag_203:\n        /* \"#utility.yul\":22502:22506   */\n      0x00\n        /* \"#utility.yul\":22522:22542   */\n      tag_463\n        /* \"#utility.yul\":22540:22541   */\n      dup3\n        /* \"#utility.yul\":22522:22542   */\n      tag_221\n      jump\t// in\n    tag_463:\n        /* \"#utility.yul\":22517:22542   */\n      swap2\n      pop\n        /* \"#utility.yul\":22556:22576   */\n      tag_464\n        /* \"#utility.yul\":22574:22575   */\n      dup4\n        /* \"#utility.yul\":22556:22576   */\n      tag_221\n      jump\t// in\n    tag_464:\n        /* \"#utility.yul\":22551:22576   */\n      swap3\n      pop\n        /* \"#utility.yul\":22600:22601   */\n      dup3\n        /* \"#utility.yul\":22597:22598   */\n      dup3\n        /* \"#utility.yul\":22593:22602   */\n      sub\n        /* \"#utility.yul\":22585:22602   */\n      swap1\n      pop\n        /* \"#utility.yul\":22624:22625   */\n      dup2\n        /* \"#utility.yul\":22618:22622   */\n      dup2\n        /* \"#utility.yul\":22615:22626   */\n      gt\n        /* \"#utility.yul\":22612:22649   */\n      iszero\n      tag_465\n      jumpi\n        /* \"#utility.yul\":22629:22647   */\n      tag_466\n      tag_245\n      jump\t// in\n    tag_466:\n        /* \"#utility.yul\":22612:22649   */\n    tag_465:\n        /* \"#utility.yul\":22462:22656   */\n      swap3\n      swap2\n      pop\n      pop\n      jump\t// out\n\n    auxdata: 0xa264697066735822122055f827ccaf5cbbac0c17bc56f19a7714167fd7ee1c13511a8981fa596c69ea6b64736f6c63430008160033\n}\n",
				"bytecode": {
					"linkReferences": {},
					"object": "60806040525f600355348015610013575f80fd5b5060015f819055503360045f6101000a81548173ffffffffffffffffffffffffffffffffffffffff021916908373ffffffffffffffffffffffffffffffffffffffff160217905550612620806100685f395ff3fe608060405260043610610090575f3560e01c806389bfd38f1161005857806389bfd38f1461013c5780638f0af0f9146101585780639f37092a14610174578063c5fb207d14610190578063caf50690146101ba57610090565b80632b86ae381461009457806336a4009c146100be57806349b5d297146100e85780635e2107ff146101045780638749e2a014610120575b5f80fd5b34801561009f575f80fd5b506100a86101e4565b6040516100b59190611b1a565b60405180910390f35b3480156100c9575f80fd5b506100d26101ea565b6040516100df9190611d04565b60405180910390f35b61010260048036038101906100fd9190611d7c565b61058b565b005b61011e60048036038101906101199190611de0565b6108c1565b005b61013a60048036038101906101359190611e0b565b610b02565b005b61015660048036038101906101519190611e49565b610cd0565b005b610172600480360381019061016d9190611e49565b611054565b005b61018e60048036038101906101899190611e0b565b61126d565b005b34801561019b575f80fd5b506101a4611491565b6040516101b19190611d04565b60405180910390f35b3480156101c5575f80fd5b506101ce6117c6565b6040516101db9190611d04565b60405180910390f35b60035481565b60605f60025490505f805b828110156102c1573373ffffffffffffffffffffffffffffffffffffffff1660055f6001846102249190611ec6565b81526020019081526020015f206002015f9054906101000a900473ffffffffffffffffffffffffffffffffffffffff1673ffffffffffffffffffffffffffffffffffffffff161480156102a0575060055f6001836102829190611ec6565b81526020019081526020015f206005015f9054906101000a900460ff165b156102b45781806102b090611ef9565b9250505b80806001019150506101f5565b505f8167ffffffffffffffff8111156102dd576102dc611f40565b5b60405190808252806020026020018201604052801561031657816020015b610303611a7f565b8152602001906001900390816102fb5790505b5090505f805b84811015610580573373ffffffffffffffffffffffffffffffffffffffff1660055f60018461034b9190611ec6565b81526020019081526020015f206002015f9054906101000a900473ffffffffffffffffffffffffffffffffffffffff1673ffffffffffffffffffffffffffffffffffffffff161480156103c7575060055f6001836103a99190611ec6565b81526020019081526020015f206005015f9054906101000a900460ff165b156105735760055f6001836103dc9190611ec6565b81526020019081526020015f20604051806101000160405290815f82015f9054906101000a900473ffffffffffffffffffffffffffffffffffffffff1673ffffffffffffffffffffffffffffffffffffffff1673ffffffffffffffffffffffffffffffffffffffff16815260200160018201548152602001600282015f9054906101000a900473ffffffffffffffffffffffffffffffffffffffff1673ffffffffffffffffffffffffffffffffffffffff1673ffffffffffffffffffffffffffffffffffffffff168152602001600382015f9054906101000a900473ffffffffffffffffffffffffffffffffffffffff1673ffffffffffffffffffffffffffffffffffffffff1673ffffffffffffffffffffffffffffffffffffffff16815260200160048201548152602001600582015f9054906101000a900460ff161515151581526020016005820160019054906101000a900460ff1615151515815260200160068201548152505083838151811061055957610558611f6d565b5b6020026020010181905250818061056f90611ef9565b9250505b808060010191505061031c565b508194505050505090565b610593611a32565b5f82116105d5576040517f08c379a00000000000000000000000000000000000000000000000000000000081526004016105cc90611ff4565b60405180910390fd5b6003543414610619576040517f08c379a000000000000000000000000000000000000000000000000000000000815260040161061090612082565b60405180910390fd5b8373ffffffffffffffffffffffffffffffffffffffff166323b872dd3330866040518463ffffffff1660e01b8152600401610656939291906120af565b5f604051808303815f87803b15801561066d575f80fd5b505af115801561067f573d5f803e3d5ffd5b5050505060045f9054906101000a900473ffffffffffffffffffffffffffffffffffffffff1673ffffffffffffffffffffffffffffffffffffffff166108fc60035490811502906040515f60405180830381858888f193505050501580156106e9573d5f803e3d5ffd5b5060025f8154809291906106fc90611ef9565b91905055506040518060c001604052808573ffffffffffffffffffffffffffffffffffffffff1681526020018481526020013373ffffffffffffffffffffffffffffffffffffffff1681526020013073ffffffffffffffffffffffffffffffffffffffff1681526020018381526020018281525060065f8581526020019081526020015f205f820151815f015f6101000a81548173ffffffffffffffffffffffffffffffffffffffff021916908373ffffffffffffffffffffffffffffffffffffffff160217905550602082015181600101556040820151816002015f6101000a81548173ffffffffffffffffffffffffffffffffffffffff021916908373ffffffffffffffffffffffffffffffffffffffff1602179055506060820151816003015f6101000a81548173ffffffffffffffffffffffffffffffffffffffff021916908373ffffffffffffffffffffffffffffffffffffffff1602179055506080820151816004015560a082015181600501559050507f09ce421b5f2d8e5ca3ee4b485d57badf4a3bb65a899a9d6db9fc4e34ed30a7408484333086866040516108ab969594939291906120e4565b60405180910390a16108bb611a76565b50505050565b6108c9611a32565b60065f8281526020019081526020015f206002015f9054906101000a900473ffffffffffffffffffffffffffffffffffffffff1673ffffffffffffffffffffffffffffffffffffffff163373ffffffffffffffffffffffffffffffffffffffff161461096a576040517f08c379a0000000000000000000000000000000000000000000000000000000008152600401610961906121b3565b60405180910390fd5b60065f8281526020019081526020015f20600501544210156109c1576040517f08c379a00000000000000000000000000000000000000000000000000000000081526004016109b89061221b565b60405180910390fd5b60065f8281526020019081526020015f206002015f9054906101000a900473ffffffffffffffffffffffffffffffffffffffff1660065f8381526020019081526020015f206003015f6101000a81548173ffffffffffffffffffffffffffffffffffffffff021916908373ffffffffffffffffffffffffffffffffffffffff16021790555060015f815480929190610a5890612239565b919050555060065f8281526020019081526020015f205f8082015f6101000a81549073ffffffffffffffffffffffffffffffffffffffff0219169055600182015f9055600282015f6101000a81549073ffffffffffffffffffffffffffffffffffffffff0219169055600382015f6101000a81549073ffffffffffffffffffffffffffffffffffffffff0219169055600482015f9055600582015f90555050610aff611a76565b50565b610b0a611a32565b5f60065f8381526020019081526020015f2090508060040154341015610b65576040517f08c379a0000000000000000000000000000000000000000000000000000000008152600401610b5c906122aa565b60405180910390fd5b5f339050816002015f9054906101000a900473ffffffffffffffffffffffffffffffffffffffff1673ffffffffffffffffffffffffffffffffffffffff166108fc3490811502906040515f60405180830381858888f19350505050158015610bcf573d5f803e3d5ffd5b5080826003015f6101000a81548173ffffffffffffffffffffffffffffffffffffffff021916908373ffffffffffffffffffffffffffffffffffffffff1602179055505f826005015442610c239190611ec6565b90508060065f8681526020019081526020015f206005018190555060015f815480929190610c5090611ef9565b91905055507f0e2430177b2347616438e96003fab41769a8a7275e03e8622da459fe268e5570858460010154856002015f9054906101000a900473ffffffffffffffffffffffffffffffffffffffff1685348860050154604051610cb996959493929190612323565b60405180910390a1505050610ccc611a76565b5050565b610cd8611a32565b5f8111610d1a576040517f08c379a0000000000000000000000000000000000000000000000000000000008152600401610d1190611ff4565b60405180910390fd5b6003543414610d5e576040517f08c379a0000000000000000000000000000000000000000000000000000000008152600401610d5590612082565b60405180910390fd5b8273ffffffffffffffffffffffffffffffffffffffff166323b872dd3330856040518463ffffffff1660e01b8152600401610d9b939291906120af565b5f604051808303815f87803b158015610db2575f80fd5b505af1158015610dc4573d5f803e3d5ffd5b5050505060045f9054906101000a900473ffffffffffffffffffffffffffffffffffffffff1673ffffffffffffffffffffffffffffffffffffffff166108fc60035490811502906040515f60405180830381858888f19350505050158015610e2e573d5f803e3d5ffd5b5060025f815480929190610e4190611ef9565b91905055506040518061010001604052808473ffffffffffffffffffffffffffffffffffffffff1681526020018381526020013373ffffffffffffffffffffffffffffffffffffffff1681526020013073ffffffffffffffffffffffffffffffffffffffff1681526020018281526020016001151581526020015f151581526020015f81525060055f8481526020019081526020015f205f820151815f015f6101000a81548173ffffffffffffffffffffffffffffffffffffffff021916908373ffffffffffffffffffffffffffffffffffffffff160217905550602082015181600101556040820151816002015f6101000a81548173ffffffffffffffffffffffffffffffffffffffff021916908373ffffffffffffffffffffffffffffffffffffffff1602179055506060820151816003015f6101000a81548173ffffffffffffffffffffffffffffffffffffffff021916908373ffffffffffffffffffffffffffffffffffffffff1602179055506080820151816004015560a0820151816005015f6101000a81548160ff02191690831515021790555060c08201518160050160016101000a81548160ff02191690831515021790555060e082015181600601559050507f11c21af595f44fac6eedae35c674772188a2ece1a360e7e45b9632d80b53a196838333308560405161103f959493929190612382565b60405180910390a161104f611a76565b505050565b61105c611a32565b5f811161109e576040517f08c379a00000000000000000000000000000000000000000000000000000000081526004016110959061241d565b60405180910390fd5b60035434146110e2576040517f08c379a00000000000000000000000000000000000000000000000000000000081526004016110d990612485565b60405180910390fd5b8273ffffffffffffffffffffffffffffffffffffffff166323b872dd3330856040518463ffffffff1660e01b815260040161111f939291906120af565b5f604051808303815f87803b158015611136575f80fd5b505af1158015611148573d5f803e3d5ffd5b505050505f60055f8481526020019081526020015f20905033816002015f6101000a81548173ffffffffffffffffffffffffffffffffffffffff021916908373ffffffffffffffffffffffffffffffffffffffff16021790555030816003015f6101000a81548173ffffffffffffffffffffffffffffffffffffffff021916908373ffffffffffffffffffffffffffffffffffffffff1602179055506001816005015f6101000a81548160ff02191690831515021790555081816004018190555060015f81548092919061121b90612239565b91905055507f11c21af595f44fac6eedae35c674772188a2ece1a360e7e45b9632d80b53a1968484333086604051611257959493929190612382565b60405180910390a150611268611a76565b505050565b611275611a32565b5f60055f8381526020019081526020015f20905080600401543410156112d0576040517f08c379a00000000000000000000000000000000000000000000000000000000081526004016112c790612513565b60405180910390fd5b5f339050816002015f9054906101000a900473ffffffffffffffffffffffffffffffffffffffff1673ffffffffffffffffffffffffffffffffffffffff166108fc3490811502906040515f60405180830381858888f1935050505015801561133a573d5f803e3d5ffd5b508373ffffffffffffffffffffffffffffffffffffffff166323b872dd308385600101546040518463ffffffff1660e01b815260040161137c93929190612531565b5f604051808303815f87803b158015611393575f80fd5b505af11580156113a5573d5f803e3d5ffd5b5050505080826003015f6101000a81548173ffffffffffffffffffffffffffffffffffffffff021916908373ffffffffffffffffffffffffffffffffffffffff1602179055505f826005015f6101000a81548160ff02191690831515021790555060015f81548092919061141890611ef9565b91905055507fbcf10c39f62b09d50efa1e275c1297b15ef10efd0e4e9b54883d782eef4ef564848360010154846002015f9054906101000a900473ffffffffffffffffffffffffffffffffffffffff16843460405161147b959493929190612566565b60405180910390a1505061148d611a76565b5050565b60605f60025490505f805b82811015611532573373ffffffffffffffffffffffffffffffffffffffff1660055f6001846114cb9190611ec6565b81526020019081526020015f206003015f9054906101000a900473ffffffffffffffffffffffffffffffffffffffff1673ffffffffffffffffffffffffffffffffffffffff160361152557818061152190611ef9565b9250505b808060010191505061149c565b505f8167ffffffffffffffff81111561154e5761154d611f40565b5b60405190808252806020026020018201604052801561158757816020015b611574611a7f565b81526020019060019003908161156c5790505b5090505f805b848110156117bb573373ffffffffffffffffffffffffffffffffffffffff1660055f6001846115bc9190611ec6565b81526020019081526020015f206003015f9054906101000a900473ffffffffffffffffffffffffffffffffffffffff1673ffffffffffffffffffffffffffffffffffffffff16036117ae5760055f6001836116179190611ec6565b81526020019081526020015f20604051806101000160405290815f82015f9054906101000a900473ffffffffffffffffffffffffffffffffffffffff1673ffffffffffffffffffffffffffffffffffffffff1673ffffffffffffffffffffffffffffffffffffffff16815260200160018201548152602001600282015f9054906101000a900473ffffffffffffffffffffffffffffffffffffffff1673ffffffffffffffffffffffffffffffffffffffff1673ffffffffffffffffffffffffffffffffffffffff168152602001600382015f9054906101000a900473ffffffffffffffffffffffffffffffffffffffff1673ffffffffffffffffffffffffffffffffffffffff1673ffffffffffffffffffffffffffffffffffffffff16815260200160048201548152602001600582015f9054906101000a900460ff161515151581526020016005820160019054906101000a900460ff1615151515815260200160068201548152505083838151811061179457611793611f6d565b5b602002602001018190525081806117aa90611ef9565b9250505b808060010191505061158d565b508194505050505090565b60605f60025490505f600154826117dd91906125b7565b90505f8167ffffffffffffffff8111156117fa576117f9611f40565b5b60405190808252806020026020018201604052801561183357816020015b611820611a7f565b8152602001906001900390816118185790505b5090505f805b84811015611a275760055f6001836118519190611ec6565b81526020019081526020015f206005015f9054906101000a900460ff1615611a1a5760055f6001836118839190611ec6565b81526020019081526020015f20604051806101000160405290815f82015f9054906101000a900473ffffffffffffffffffffffffffffffffffffffff1673ffffffffffffffffffffffffffffffffffffffff1673ffffffffffffffffffffffffffffffffffffffff16815260200160018201548152602001600282015f9054906101000a900473ffffffffffffffffffffffffffffffffffffffff1673ffffffffffffffffffffffffffffffffffffffff1673ffffffffffffffffffffffffffffffffffffffff168152602001600382015f9054906101000a900473ffffffffffffffffffffffffffffffffffffffff1673ffffffffffffffffffffffffffffffffffffffff1673ffffffffffffffffffffffffffffffffffffffff16815260200160048201548152602001600582015f9054906101000a900460ff161515151581526020016005820160019054906101000a900460ff16151515158152602001600682015481525050838381518110611a00576119ff611f6d565b5b60200260200101819052508180611a1690611ef9565b9250505b8080600101915050611839565b508194505050505090565b60025f5403611a6d576040517f3ee5aeb500000000000000000000000000000000000000000000000000000000815260040160405180910390fd5b60025f81905550565b60015f81905550565b6040518061010001604052805f73ffffffffffffffffffffffffffffffffffffffff1681526020015f81526020015f73ffffffffffffffffffffffffffffffffffffffff1681526020015f73ffffffffffffffffffffffffffffffffffffffff1681526020015f81526020015f151581526020015f151581526020015f81525090565b5f819050919050565b611b1481611b02565b82525050565b5f602082019050611b2d5f830184611b0b565b92915050565b5f81519050919050565b5f82825260208201905092915050565b5f819050602082019050919050565b5f73ffffffffffffffffffffffffffffffffffffffff82169050919050565b5f611b8582611b5c565b9050919050565b611b9581611b7b565b82525050565b611ba481611b02565b82525050565b5f611bb482611b5c565b9050919050565b611bc481611baa565b82525050565b5f8115159050919050565b611bde81611bca565b82525050565b61010082015f820151611bf95f850182611b8c565b506020820151611c0c6020850182611b9b565b506040820151611c1f6040850182611bbb565b506060820151611c326060850182611bbb565b506080820151611c456080850182611b9b565b5060a0820151611c5860a0850182611bd5565b5060c0820151611c6b60c0850182611bd5565b5060e0820151611c7e60e0850182611b9b565b50505050565b5f611c8f8383611be4565b6101008301905092915050565b5f602082019050919050565b5f611cb282611b33565b611cbc8185611b3d565b9350611cc783611b4d565b805f5b83811015611cf7578151611cde8882611c84565b9750611ce983611c9c565b925050600181019050611cca565b5085935050505092915050565b5f6020820190508181035f830152611d1c8184611ca8565b905092915050565b5f80fd5b611d3181611b7b565b8114611d3b575f80fd5b50565b5f81359050611d4c81611d28565b92915050565b611d5b81611b02565b8114611d65575f80fd5b50565b5f81359050611d7681611d52565b92915050565b5f805f8060808587031215611d9457611d93611d24565b5b5f611da187828801611d3e565b9450506020611db287828801611d68565b9350506040611dc387828801611d68565b9250506060611dd487828801611d68565b91505092959194509250565b5f60208284031215611df557611df4611d24565b5b5f611e0284828501611d68565b91505092915050565b5f8060408385031215611e2157611e20611d24565b5b5f611e2e85828601611d3e565b9250506020611e3f85828601611d68565b9150509250929050565b5f805f60608486031215611e6057611e5f611d24565b5b5f611e6d86828701611d3e565b9350506020611e7e86828701611d68565b9250506040611e8f86828701611d68565b9150509250925092565b7f4e487b71000000000000000000000000000000000000000000000000000000005f52601160045260245ffd5b5f611ed082611b02565b9150611edb83611b02565b9250828201905080821115611ef357611ef2611e99565b5b92915050565b5f611f0382611b02565b91507fffffffffffffffffffffffffffffffffffffffffffffffffffffffffffffffff8203611f3557611f34611e99565b5b600182019050919050565b7f4e487b71000000000000000000000000000000000000000000000000000000005f52604160045260245ffd5b7f4e487b71000000000000000000000000000000000000000000000000000000005f52603260045260245ffd5b5f82825260208201905092915050565b7f5072696365206d7573742062652067726561746572207468616e20302e0000005f82015250565b5f611fde601d83611f9a565b9150611fe982611faa565b602082019050919050565b5f6020820190508181035f83015261200b81611fd2565b9050919050565b7f506c656173652072656d6f76652076616c7565206265666f7265206c697374695f8201527f6e67206974656d2c206c697374696e672066656520697320667265652e000000602082015250565b5f61206c603d83611f9a565b915061207782612012565b604082019050919050565b5f6020820190508181035f83015261209981612060565b9050919050565b6120a981611b7b565b82525050565b5f6060820190506120c25f8301866120a0565b6120cf60208301856120a0565b6120dc6040830184611b0b565b949350505050565b5f60c0820190506120f75f8301896120a0565b6121046020830188611b0b565b61211160408301876120a0565b61211e60608301866120a0565b61212b6080830185611b0b565b61213860a0830184611b0b565b979650505050505050565b7f4d757374206f776e20746865206974656d20746f20726563616c6c20697420665f8201527f726f6d2072656e7465722e000000000000000000000000000000000000000000602082015250565b5f61219d602b83611f9a565b91506121a882612143565b604082019050919050565b5f6020820190508181035f8301526121ca81612191565b9050919050565b7f43616e6e6f7420726563616c6c206974656d207965742e0000000000000000005f82015250565b5f612205601783611f9a565b9150612210826121d1565b602082019050919050565b5f6020820190508181035f830152612232816121f9565b9050919050565b5f61224382611b02565b91505f820361225557612254611e99565b5b600182039050919050565b7f496e73756666696369656e742066756e647320746f2072656e74206974656d2e5f82015250565b5f612294602083611f9a565b915061229f82612260565b602082019050919050565b5f6020820190508181035f8301526122c181612288565b9050919050565b5f819050919050565b5f6122eb6122e66122e184611b5c565b6122c8565b611b5c565b9050919050565b5f6122fc826122d1565b9050919050565b5f61230d826122f2565b9050919050565b61231d81612303565b82525050565b5f60c0820190506123365f8301896120a0565b6123436020830188611b0b565b6123506040830187612314565b61235d6060830186612314565b61236a6080830185611b0b565b61237760a0830184611b0b565b979650505050505050565b5f60a0820190506123955f8301886120a0565b6123a26020830187611b0b565b6123af60408301866120a0565b6123bc60608301856120a0565b6123c96080830184611b0b565b9695505050505050565b7f5072696365206d757374206265206174206c65617374203120776569000000005f82015250565b5f612407601c83611f9a565b9150612412826123d3565b602082019050919050565b5f6020820190508181035f830152612434816123fb565b9050919050565b7f4e6f7420656e6f75676820657468657220666f72206c697374696e67206665655f82015250565b5f61246f602083611f9a565b915061247a8261243b565b602082019050919050565b5f6020820190508181035f83015261249c81612463565b9050919050565b7f496e73756666696369656e742066756e647320746f20707572636861736520695f8201527f74656d2e00000000000000000000000000000000000000000000000000000000602082015250565b5f6124fd602483611f9a565b9150612508826124a3565b604082019050919050565b5f6020820190508181035f83015261252a816124f1565b9050919050565b5f6060820190506125445f8301866120a0565b6125516020830185612314565b61255e6040830184611b0b565b949350505050565b5f60a0820190506125795f8301886120a0565b6125866020830187611b0b565b6125936040830186612314565b6125a06060830185612314565b6125ad6080830184611b0b565b9695505050505050565b5f6125c182611b02565b91506125cc83611b02565b92508282039050818111156125e4576125e3611e99565b5b9291505056fea264697066735822122055f827ccaf5cbbac0c17bc56f19a7714167fd7ee1c13511a8981fa596c69ea6b64736f6c63430008160033",
					"opcodes": "PUSH1 0x80 PUSH1 0x40 MSTORE PUSH0 PUSH1 0x3 SSTORE CALLVALUE DUP1 ISZERO PUSH2 0x13 JUMPI PUSH0 DUP1 REVERT JUMPDEST POP PUSH1 0x1 PUSH0 DUP2 SWAP1 SSTORE POP CALLER PUSH1 0x4 PUSH0 PUSH2 0x100 EXP DUP2 SLOAD DUP2 PUSH20 0xFFFFFFFFFFFFFFFFFFFFFFFFFFFFFFFFFFFFFFFF MUL NOT AND SWAP1 DUP4 PUSH20 0xFFFFFFFFFFFFFFFFFFFFFFFFFFFFFFFFFFFFFFFF AND MUL OR SWAP1 SSTORE POP PUSH2 0x2620 DUP1 PUSH2 0x68 PUSH0 CODECOPY PUSH0 RETURN INVALID PUSH1 0x80 PUSH1 0x40 MSTORE PUSH1 0x4 CALLDATASIZE LT PUSH2 0x90 JUMPI PUSH0 CALLDATALOAD PUSH1 0xE0 SHR DUP1 PUSH4 0x89BFD38F GT PUSH2 0x58 JUMPI DUP1 PUSH4 0x89BFD38F EQ PUSH2 0x13C JUMPI DUP1 PUSH4 0x8F0AF0F9 EQ PUSH2 0x158 JUMPI DUP1 PUSH4 0x9F37092A EQ PUSH2 0x174 JUMPI DUP1 PUSH4 0xC5FB207D EQ PUSH2 0x190 JUMPI DUP1 PUSH4 0xCAF50690 EQ PUSH2 0x1BA JUMPI PUSH2 0x90 JUMP JUMPDEST DUP1 PUSH4 0x2B86AE38 EQ PUSH2 0x94 JUMPI DUP1 PUSH4 0x36A4009C EQ PUSH2 0xBE JUMPI DUP1 PUSH4 0x49B5D297 EQ PUSH2 0xE8 JUMPI DUP1 PUSH4 0x5E2107FF EQ PUSH2 0x104 JUMPI DUP1 PUSH4 0x8749E2A0 EQ PUSH2 0x120 JUMPI JUMPDEST PUSH0 DUP1 REVERT JUMPDEST CALLVALUE DUP1 ISZERO PUSH2 0x9F JUMPI PUSH0 DUP1 REVERT JUMPDEST POP PUSH2 0xA8 PUSH2 0x1E4 JUMP JUMPDEST PUSH1 0x40 MLOAD PUSH2 0xB5 SWAP2 SWAP1 PUSH2 0x1B1A JUMP JUMPDEST PUSH1 0x40 MLOAD DUP1 SWAP2 SUB SWAP1 RETURN JUMPDEST CALLVALUE DUP1 ISZERO PUSH2 0xC9 JUMPI PUSH0 DUP1 REVERT JUMPDEST POP PUSH2 0xD2 PUSH2 0x1EA JUMP JUMPDEST PUSH1 0x40 MLOAD PUSH2 0xDF SWAP2 SWAP1 PUSH2 0x1D04 JUMP JUMPDEST PUSH1 0x40 MLOAD DUP1 SWAP2 SUB SWAP1 RETURN JUMPDEST PUSH2 0x102 PUSH1 0x4 DUP1 CALLDATASIZE SUB DUP2 ADD SWAP1 PUSH2 0xFD SWAP2 SWAP1 PUSH2 0x1D7C JUMP JUMPDEST PUSH2 0x58B JUMP JUMPDEST STOP JUMPDEST PUSH2 0x11E PUSH1 0x4 DUP1 CALLDATASIZE SUB DUP2 ADD SWAP1 PUSH2 0x119 SWAP2 SWAP1 PUSH2 0x1DE0 JUMP JUMPDEST PUSH2 0x8C1 JUMP JUMPDEST STOP JUMPDEST PUSH2 0x13A PUSH1 0x4 DUP1 CALLDATASIZE SUB DUP2 ADD SWAP1 PUSH2 0x135 SWAP2 SWAP1 PUSH2 0x1E0B JUMP JUMPDEST PUSH2 0xB02 JUMP JUMPDEST STOP JUMPDEST PUSH2 0x156 PUSH1 0x4 DUP1 CALLDATASIZE SUB DUP2 ADD SWAP1 PUSH2 0x151 SWAP2 SWAP1 PUSH2 0x1E49 JUMP JUMPDEST PUSH2 0xCD0 JUMP JUMPDEST STOP JUMPDEST PUSH2 0x172 PUSH1 0x4 DUP1 CALLDATASIZE SUB DUP2 ADD SWAP1 PUSH2 0x16D SWAP2 SWAP1 PUSH2 0x1E49 JUMP JUMPDEST PUSH2 0x1054 JUMP JUMPDEST STOP JUMPDEST PUSH2 0x18E PUSH1 0x4 DUP1 CALLDATASIZE SUB DUP2 ADD SWAP1 PUSH2 0x189 SWAP2 SWAP1 PUSH2 0x1E0B JUMP JUMPDEST PUSH2 0x126D JUMP JUMPDEST STOP JUMPDEST CALLVALUE DUP1 ISZERO PUSH2 0x19B JUMPI PUSH0 DUP1 REVERT JUMPDEST POP PUSH2 0x1A4 PUSH2 0x1491 JUMP JUMPDEST PUSH1 0x40 MLOAD PUSH2 0x1B1 SWAP2 SWAP1 PUSH2 0x1D04 JUMP JUMPDEST PUSH1 0x40 MLOAD DUP1 SWAP2 SUB SWAP1 RETURN JUMPDEST CALLVALUE DUP1 ISZERO PUSH2 0x1C5 JUMPI PUSH0 DUP1 REVERT JUMPDEST POP PUSH2 0x1CE PUSH2 0x17C6 JUMP JUMPDEST PUSH1 0x40 MLOAD PUSH2 0x1DB SWAP2 SWAP1 PUSH2 0x1D04 JUMP JUMPDEST PUSH1 0x40 MLOAD DUP1 SWAP2 SUB SWAP1 RETURN JUMPDEST PUSH1 0x3 SLOAD DUP2 JUMP JUMPDEST PUSH1 0x60 PUSH0 PUSH1 0x2 SLOAD SWAP1 POP PUSH0 DUP1 JUMPDEST DUP3 DUP2 LT ISZERO PUSH2 0x2C1 JUMPI CALLER PUSH20 0xFFFFFFFFFFFFFFFFFFFFFFFFFFFFFFFFFFFFFFFF AND PUSH1 0x5 PUSH0 PUSH1 0x1 DUP5 PUSH2 0x224 SWAP2 SWAP1 PUSH2 0x1EC6 JUMP JUMPDEST DUP2 MSTORE PUSH1 0x20 ADD SWAP1 DUP2 MSTORE PUSH1 0x20 ADD PUSH0 KECCAK256 PUSH1 0x2 ADD PUSH0 SWAP1 SLOAD SWAP1 PUSH2 0x100 EXP SWAP1 DIV PUSH20 0xFFFFFFFFFFFFFFFFFFFFFFFFFFFFFFFFFFFFFFFF AND PUSH20 0xFFFFFFFFFFFFFFFFFFFFFFFFFFFFFFFFFFFFFFFF AND EQ DUP1 ISZERO PUSH2 0x2A0 JUMPI POP PUSH1 0x5 PUSH0 PUSH1 0x1 DUP4 PUSH2 0x282 SWAP2 SWAP1 PUSH2 0x1EC6 JUMP JUMPDEST DUP2 MSTORE PUSH1 0x20 ADD SWAP1 DUP2 MSTORE PUSH1 0x20 ADD PUSH0 KECCAK256 PUSH1 0x5 ADD PUSH0 SWAP1 SLOAD SWAP1 PUSH2 0x100 EXP SWAP1 DIV PUSH1 0xFF AND JUMPDEST ISZERO PUSH2 0x2B4 JUMPI DUP2 DUP1 PUSH2 0x2B0 SWAP1 PUSH2 0x1EF9 JUMP JUMPDEST SWAP3 POP POP JUMPDEST DUP1 DUP1 PUSH1 0x1 ADD SWAP2 POP POP PUSH2 0x1F5 JUMP JUMPDEST POP PUSH0 DUP2 PUSH8 0xFFFFFFFFFFFFFFFF DUP2 GT ISZERO PUSH2 0x2DD JUMPI PUSH2 0x2DC PUSH2 0x1F40 JUMP JUMPDEST JUMPDEST PUSH1 0x40 MLOAD SWAP1 DUP1 DUP3 MSTORE DUP1 PUSH1 0x20 MUL PUSH1 0x20 ADD DUP3 ADD PUSH1 0x40 MSTORE DUP1 ISZERO PUSH2 0x316 JUMPI DUP2 PUSH1 0x20 ADD JUMPDEST PUSH2 0x303 PUSH2 0x1A7F JUMP JUMPDEST DUP2 MSTORE PUSH1 0x20 ADD SWAP1 PUSH1 0x1 SWAP1 SUB SWAP1 DUP2 PUSH2 0x2FB JUMPI SWAP1 POP JUMPDEST POP SWAP1 POP PUSH0 DUP1 JUMPDEST DUP5 DUP2 LT ISZERO PUSH2 0x580 JUMPI CALLER PUSH20 0xFFFFFFFFFFFFFFFFFFFFFFFFFFFFFFFFFFFFFFFF AND PUSH1 0x5 PUSH0 PUSH1 0x1 DUP5 PUSH2 0x34B SWAP2 SWAP1 PUSH2 0x1EC6 JUMP JUMPDEST DUP2 MSTORE PUSH1 0x20 ADD SWAP1 DUP2 MSTORE PUSH1 0x20 ADD PUSH0 KECCAK256 PUSH1 0x2 ADD PUSH0 SWAP1 SLOAD SWAP1 PUSH2 0x100 EXP SWAP1 DIV PUSH20 0xFFFFFFFFFFFFFFFFFFFFFFFFFFFFFFFFFFFFFFFF AND PUSH20 0xFFFFFFFFFFFFFFFFFFFFFFFFFFFFFFFFFFFFFFFF AND EQ DUP1 ISZERO PUSH2 0x3C7 JUMPI POP PUSH1 0x5 PUSH0 PUSH1 0x1 DUP4 PUSH2 0x3A9 SWAP2 SWAP1 PUSH2 0x1EC6 JUMP JUMPDEST DUP2 MSTORE PUSH1 0x20 ADD SWAP1 DUP2 MSTORE PUSH1 0x20 ADD PUSH0 KECCAK256 PUSH1 0x5 ADD PUSH0 SWAP1 SLOAD SWAP1 PUSH2 0x100 EXP SWAP1 DIV PUSH1 0xFF AND JUMPDEST ISZERO PUSH2 0x573 JUMPI PUSH1 0x5 PUSH0 PUSH1 0x1 DUP4 PUSH2 0x3DC SWAP2 SWAP1 PUSH2 0x1EC6 JUMP JUMPDEST DUP2 MSTORE PUSH1 0x20 ADD SWAP1 DUP2 MSTORE PUSH1 0x20 ADD PUSH0 KECCAK256 PUSH1 0x40 MLOAD DUP1 PUSH2 0x100 ADD PUSH1 0x40 MSTORE SWAP1 DUP2 PUSH0 DUP3 ADD PUSH0 SWAP1 SLOAD SWAP1 PUSH2 0x100 EXP SWAP1 DIV PUSH20 0xFFFFFFFFFFFFFFFFFFFFFFFFFFFFFFFFFFFFFFFF AND PUSH20 0xFFFFFFFFFFFFFFFFFFFFFFFFFFFFFFFFFFFFFFFF AND PUSH20 0xFFFFFFFFFFFFFFFFFFFFFFFFFFFFFFFFFFFFFFFF AND DUP2 MSTORE PUSH1 0x20 ADD PUSH1 0x1 DUP3 ADD SLOAD DUP2 MSTORE PUSH1 0x20 ADD PUSH1 0x2 DUP3 ADD PUSH0 SWAP1 SLOAD SWAP1 PUSH2 0x100 EXP SWAP1 DIV PUSH20 0xFFFFFFFFFFFFFFFFFFFFFFFFFFFFFFFFFFFFFFFF AND PUSH20 0xFFFFFFFFFFFFFFFFFFFFFFFFFFFFFFFFFFFFFFFF AND PUSH20 0xFFFFFFFFFFFFFFFFFFFFFFFFFFFFFFFFFFFFFFFF AND DUP2 MSTORE PUSH1 0x20 ADD PUSH1 0x3 DUP3 ADD PUSH0 SWAP1 SLOAD SWAP1 PUSH2 0x100 EXP SWAP1 DIV PUSH20 0xFFFFFFFFFFFFFFFFFFFFFFFFFFFFFFFFFFFFFFFF AND PUSH20 0xFFFFFFFFFFFFFFFFFFFFFFFFFFFFFFFFFFFFFFFF AND PUSH20 0xFFFFFFFFFFFFFFFFFFFFFFFFFFFFFFFFFFFFFFFF AND DUP2 MSTORE PUSH1 0x20 ADD PUSH1 0x4 DUP3 ADD SLOAD DUP2 MSTORE PUSH1 0x20 ADD PUSH1 0x5 DUP3 ADD PUSH0 SWAP1 SLOAD SWAP1 PUSH2 0x100 EXP SWAP1 DIV PUSH1 0xFF AND ISZERO ISZERO ISZERO ISZERO DUP2 MSTORE PUSH1 0x20 ADD PUSH1 0x5 DUP3 ADD PUSH1 0x1 SWAP1 SLOAD SWAP1 PUSH2 0x100 EXP SWAP1 DIV PUSH1 0xFF AND ISZERO ISZERO ISZERO ISZERO DUP2 MSTORE PUSH1 0x20 ADD PUSH1 0x6 DUP3 ADD SLOAD DUP2 MSTORE POP POP DUP4 DUP4 DUP2 MLOAD DUP2 LT PUSH2 0x559 JUMPI PUSH2 0x558 PUSH2 0x1F6D JUMP JUMPDEST JUMPDEST PUSH1 0x20 MUL PUSH1 0x20 ADD ADD DUP2 SWAP1 MSTORE POP DUP2 DUP1 PUSH2 0x56F SWAP1 PUSH2 0x1EF9 JUMP JUMPDEST SWAP3 POP POP JUMPDEST DUP1 DUP1 PUSH1 0x1 ADD SWAP2 POP POP PUSH2 0x31C JUMP JUMPDEST POP DUP2 SWAP5 POP POP POP POP POP SWAP1 JUMP JUMPDEST PUSH2 0x593 PUSH2 0x1A32 JUMP JUMPDEST PUSH0 DUP3 GT PUSH2 0x5D5 JUMPI PUSH1 0x40 MLOAD PUSH32 0x8C379A000000000000000000000000000000000000000000000000000000000 DUP2 MSTORE PUSH1 0x4 ADD PUSH2 0x5CC SWAP1 PUSH2 0x1FF4 JUMP JUMPDEST PUSH1 0x40 MLOAD DUP1 SWAP2 SUB SWAP1 REVERT JUMPDEST PUSH1 0x3 SLOAD CALLVALUE EQ PUSH2 0x619 JUMPI PUSH1 0x40 MLOAD PUSH32 0x8C379A000000000000000000000000000000000000000000000000000000000 DUP2 MSTORE PUSH1 0x4 ADD PUSH2 0x610 SWAP1 PUSH2 0x2082 JUMP JUMPDEST PUSH1 0x40 MLOAD DUP1 SWAP2 SUB SWAP1 REVERT JUMPDEST DUP4 PUSH20 0xFFFFFFFFFFFFFFFFFFFFFFFFFFFFFFFFFFFFFFFF AND PUSH4 0x23B872DD CALLER ADDRESS DUP7 PUSH1 0x40 MLOAD DUP5 PUSH4 0xFFFFFFFF AND PUSH1 0xE0 SHL DUP2 MSTORE PUSH1 0x4 ADD PUSH2 0x656 SWAP4 SWAP3 SWAP2 SWAP1 PUSH2 0x20AF JUMP JUMPDEST PUSH0 PUSH1 0x40 MLOAD DUP1 DUP4 SUB DUP2 PUSH0 DUP8 DUP1 EXTCODESIZE ISZERO DUP1 ISZERO PUSH2 0x66D JUMPI PUSH0 DUP1 REVERT JUMPDEST POP GAS CALL ISZERO DUP1 ISZERO PUSH2 0x67F JUMPI RETURNDATASIZE PUSH0 DUP1 RETURNDATACOPY RETURNDATASIZE PUSH0 REVERT JUMPDEST POP POP POP POP PUSH1 0x4 PUSH0 SWAP1 SLOAD SWAP1 PUSH2 0x100 EXP SWAP1 DIV PUSH20 0xFFFFFFFFFFFFFFFFFFFFFFFFFFFFFFFFFFFFFFFF AND PUSH20 0xFFFFFFFFFFFFFFFFFFFFFFFFFFFFFFFFFFFFFFFF AND PUSH2 0x8FC PUSH1 0x3 SLOAD SWAP1 DUP2 ISZERO MUL SWAP1 PUSH1 0x40 MLOAD PUSH0 PUSH1 0x40 MLOAD DUP1 DUP4 SUB DUP2 DUP6 DUP9 DUP9 CALL SWAP4 POP POP POP POP ISZERO DUP1 ISZERO PUSH2 0x6E9 JUMPI RETURNDATASIZE PUSH0 DUP1 RETURNDATACOPY RETURNDATASIZE PUSH0 REVERT JUMPDEST POP PUSH1 0x2 PUSH0 DUP2 SLOAD DUP1 SWAP3 SWAP2 SWAP1 PUSH2 0x6FC SWAP1 PUSH2 0x1EF9 JUMP JUMPDEST SWAP2 SWAP1 POP SSTORE POP PUSH1 0x40 MLOAD DUP1 PUSH1 0xC0 ADD PUSH1 0x40 MSTORE DUP1 DUP6 PUSH20 0xFFFFFFFFFFFFFFFFFFFFFFFFFFFFFFFFFFFFFFFF AND DUP2 MSTORE PUSH1 0x20 ADD DUP5 DUP2 MSTORE PUSH1 0x20 ADD CALLER PUSH20 0xFFFFFFFFFFFFFFFFFFFFFFFFFFFFFFFFFFFFFFFF AND DUP2 MSTORE PUSH1 0x20 ADD ADDRESS PUSH20 0xFFFFFFFFFFFFFFFFFFFFFFFFFFFFFFFFFFFFFFFF AND DUP2 MSTORE PUSH1 0x20 ADD DUP4 DUP2 MSTORE PUSH1 0x20 ADD DUP3 DUP2 MSTORE POP PUSH1 0x6 PUSH0 DUP6 DUP2 MSTORE PUSH1 0x20 ADD SWAP1 DUP2 MSTORE PUSH1 0x20 ADD PUSH0 KECCAK256 PUSH0 DUP3 ADD MLOAD DUP2 PUSH0 ADD PUSH0 PUSH2 0x100 EXP DUP2 SLOAD DUP2 PUSH20 0xFFFFFFFFFFFFFFFFFFFFFFFFFFFFFFFFFFFFFFFF MUL NOT AND SWAP1 DUP4 PUSH20 0xFFFFFFFFFFFFFFFFFFFFFFFFFFFFFFFFFFFFFFFF AND MUL OR SWAP1 SSTORE POP PUSH1 0x20 DUP3 ADD MLOAD DUP2 PUSH1 0x1 ADD SSTORE PUSH1 0x40 DUP3 ADD MLOAD DUP2 PUSH1 0x2 ADD PUSH0 PUSH2 0x100 EXP DUP2 SLOAD DUP2 PUSH20 0xFFFFFFFFFFFFFFFFFFFFFFFFFFFFFFFFFFFFFFFF MUL NOT AND SWAP1 DUP4 PUSH20 0xFFFFFFFFFFFFFFFFFFFFFFFFFFFFFFFFFFFFFFFF AND MUL OR SWAP1 SSTORE POP PUSH1 0x60 DUP3 ADD MLOAD DUP2 PUSH1 0x3 ADD PUSH0 PUSH2 0x100 EXP DUP2 SLOAD DUP2 PUSH20 0xFFFFFFFFFFFFFFFFFFFFFFFFFFFFFFFFFFFFFFFF MUL NOT AND SWAP1 DUP4 PUSH20 0xFFFFFFFFFFFFFFFFFFFFFFFFFFFFFFFFFFFFFFFF AND MUL OR SWAP1 SSTORE POP PUSH1 0x80 DUP3 ADD MLOAD DUP2 PUSH1 0x4 ADD SSTORE PUSH1 0xA0 DUP3 ADD MLOAD DUP2 PUSH1 0x5 ADD SSTORE SWAP1 POP POP PUSH32 0x9CE421B5F2D8E5CA3EE4B485D57BADF4A3BB65A899A9D6DB9FC4E34ED30A740 DUP5 DUP5 CALLER ADDRESS DUP7 DUP7 PUSH1 0x40 MLOAD PUSH2 0x8AB SWAP7 SWAP6 SWAP5 SWAP4 SWAP3 SWAP2 SWAP1 PUSH2 0x20E4 JUMP JUMPDEST PUSH1 0x40 MLOAD DUP1 SWAP2 SUB SWAP1 LOG1 PUSH2 0x8BB PUSH2 0x1A76 JUMP JUMPDEST POP POP POP POP JUMP JUMPDEST PUSH2 0x8C9 PUSH2 0x1A32 JUMP JUMPDEST PUSH1 0x6 PUSH0 DUP3 DUP2 MSTORE PUSH1 0x20 ADD SWAP1 DUP2 MSTORE PUSH1 0x20 ADD PUSH0 KECCAK256 PUSH1 0x2 ADD PUSH0 SWAP1 SLOAD SWAP1 PUSH2 0x100 EXP SWAP1 DIV PUSH20 0xFFFFFFFFFFFFFFFFFFFFFFFFFFFFFFFFFFFFFFFF AND PUSH20 0xFFFFFFFFFFFFFFFFFFFFFFFFFFFFFFFFFFFFFFFF AND CALLER PUSH20 0xFFFFFFFFFFFFFFFFFFFFFFFFFFFFFFFFFFFFFFFF AND EQ PUSH2 0x96A JUMPI PUSH1 0x40 MLOAD PUSH32 0x8C379A000000000000000000000000000000000000000000000000000000000 DUP2 MSTORE PUSH1 0x4 ADD PUSH2 0x961 SWAP1 PUSH2 0x21B3 JUMP JUMPDEST PUSH1 0x40 MLOAD DUP1 SWAP2 SUB SWAP1 REVERT JUMPDEST PUSH1 0x6 PUSH0 DUP3 DUP2 MSTORE PUSH1 0x20 ADD SWAP1 DUP2 MSTORE PUSH1 0x20 ADD PUSH0 KECCAK256 PUSH1 0x5 ADD SLOAD TIMESTAMP LT ISZERO PUSH2 0x9C1 JUMPI PUSH1 0x40 MLOAD PUSH32 0x8C379A000000000000000000000000000000000000000000000000000000000 DUP2 MSTORE PUSH1 0x4 ADD PUSH2 0x9B8 SWAP1 PUSH2 0x221B JUMP JUMPDEST PUSH1 0x40 MLOAD DUP1 SWAP2 SUB SWAP1 REVERT JUMPDEST PUSH1 0x6 PUSH0 DUP3 DUP2 MSTORE PUSH1 0x20 ADD SWAP1 DUP2 MSTORE PUSH1 0x20 ADD PUSH0 KECCAK256 PUSH1 0x2 ADD PUSH0 SWAP1 SLOAD SWAP1 PUSH2 0x100 EXP SWAP1 DIV PUSH20 0xFFFFFFFFFFFFFFFFFFFFFFFFFFFFFFFFFFFFFFFF AND PUSH1 0x6 PUSH0 DUP4 DUP2 MSTORE PUSH1 0x20 ADD SWAP1 DUP2 MSTORE PUSH1 0x20 ADD PUSH0 KECCAK256 PUSH1 0x3 ADD PUSH0 PUSH2 0x100 EXP DUP2 SLOAD DUP2 PUSH20 0xFFFFFFFFFFFFFFFFFFFFFFFFFFFFFFFFFFFFFFFF MUL NOT AND SWAP1 DUP4 PUSH20 0xFFFFFFFFFFFFFFFFFFFFFFFFFFFFFFFFFFFFFFFF AND MUL OR SWAP1 SSTORE POP PUSH1 0x1 PUSH0 DUP2 SLOAD DUP1 SWAP3 SWAP2 SWAP1 PUSH2 0xA58 SWAP1 PUSH2 0x2239 JUMP JUMPDEST SWAP2 SWAP1 POP SSTORE POP PUSH1 0x6 PUSH0 DUP3 DUP2 MSTORE PUSH1 0x20 ADD SWAP1 DUP2 MSTORE PUSH1 0x20 ADD PUSH0 KECCAK256 PUSH0 DUP1 DUP3 ADD PUSH0 PUSH2 0x100 EXP DUP2 SLOAD SWAP1 PUSH20 0xFFFFFFFFFFFFFFFFFFFFFFFFFFFFFFFFFFFFFFFF MUL NOT AND SWAP1 SSTORE PUSH1 0x1 DUP3 ADD PUSH0 SWAP1 SSTORE PUSH1 0x2 DUP3 ADD PUSH0 PUSH2 0x100 EXP DUP2 SLOAD SWAP1 PUSH20 0xFFFFFFFFFFFFFFFFFFFFFFFFFFFFFFFFFFFFFFFF MUL NOT AND SWAP1 SSTORE PUSH1 0x3 DUP3 ADD PUSH0 PUSH2 0x100 EXP DUP2 SLOAD SWAP1 PUSH20 0xFFFFFFFFFFFFFFFFFFFFFFFFFFFFFFFFFFFFFFFF MUL NOT AND SWAP1 SSTORE PUSH1 0x4 DUP3 ADD PUSH0 SWAP1 SSTORE PUSH1 0x5 DUP3 ADD PUSH0 SWAP1 SSTORE POP POP PUSH2 0xAFF PUSH2 0x1A76 JUMP JUMPDEST POP JUMP JUMPDEST PUSH2 0xB0A PUSH2 0x1A32 JUMP JUMPDEST PUSH0 PUSH1 0x6 PUSH0 DUP4 DUP2 MSTORE PUSH1 0x20 ADD SWAP1 DUP2 MSTORE PUSH1 0x20 ADD PUSH0 KECCAK256 SWAP1 POP DUP1 PUSH1 0x4 ADD SLOAD CALLVALUE LT ISZERO PUSH2 0xB65 JUMPI PUSH1 0x40 MLOAD PUSH32 0x8C379A000000000000000000000000000000000000000000000000000000000 DUP2 MSTORE PUSH1 0x4 ADD PUSH2 0xB5C SWAP1 PUSH2 0x22AA JUMP JUMPDEST PUSH1 0x40 MLOAD DUP1 SWAP2 SUB SWAP1 REVERT JUMPDEST PUSH0 CALLER SWAP1 POP DUP2 PUSH1 0x2 ADD PUSH0 SWAP1 SLOAD SWAP1 PUSH2 0x100 EXP SWAP1 DIV PUSH20 0xFFFFFFFFFFFFFFFFFFFFFFFFFFFFFFFFFFFFFFFF AND PUSH20 0xFFFFFFFFFFFFFFFFFFFFFFFFFFFFFFFFFFFFFFFF AND PUSH2 0x8FC CALLVALUE SWAP1 DUP2 ISZERO MUL SWAP1 PUSH1 0x40 MLOAD PUSH0 PUSH1 0x40 MLOAD DUP1 DUP4 SUB DUP2 DUP6 DUP9 DUP9 CALL SWAP4 POP POP POP POP ISZERO DUP1 ISZERO PUSH2 0xBCF JUMPI RETURNDATASIZE PUSH0 DUP1 RETURNDATACOPY RETURNDATASIZE PUSH0 REVERT JUMPDEST POP DUP1 DUP3 PUSH1 0x3 ADD PUSH0 PUSH2 0x100 EXP DUP2 SLOAD DUP2 PUSH20 0xFFFFFFFFFFFFFFFFFFFFFFFFFFFFFFFFFFFFFFFF MUL NOT AND SWAP1 DUP4 PUSH20 0xFFFFFFFFFFFFFFFFFFFFFFFFFFFFFFFFFFFFFFFF AND MUL OR SWAP1 SSTORE POP PUSH0 DUP3 PUSH1 0x5 ADD SLOAD TIMESTAMP PUSH2 0xC23 SWAP2 SWAP1 PUSH2 0x1EC6 JUMP JUMPDEST SWAP1 POP DUP1 PUSH1 0x6 PUSH0 DUP7 DUP2 MSTORE PUSH1 0x20 ADD SWAP1 DUP2 MSTORE PUSH1 0x20 ADD PUSH0 KECCAK256 PUSH1 0x5 ADD DUP2 SWAP1 SSTORE POP PUSH1 0x1 PUSH0 DUP2 SLOAD DUP1 SWAP3 SWAP2 SWAP1 PUSH2 0xC50 SWAP1 PUSH2 0x1EF9 JUMP JUMPDEST SWAP2 SWAP1 POP SSTORE POP PUSH32 0xE2430177B2347616438E96003FAB41769A8A7275E03E8622DA459FE268E5570 DUP6 DUP5 PUSH1 0x1 ADD SLOAD DUP6 PUSH1 0x2 ADD PUSH0 SWAP1 SLOAD SWAP1 PUSH2 0x100 EXP SWAP1 DIV PUSH20 0xFFFFFFFFFFFFFFFFFFFFFFFFFFFFFFFFFFFFFFFF AND DUP6 CALLVALUE DUP9 PUSH1 0x5 ADD SLOAD PUSH1 0x40 MLOAD PUSH2 0xCB9 SWAP7 SWAP6 SWAP5 SWAP4 SWAP3 SWAP2 SWAP1 PUSH2 0x2323 JUMP JUMPDEST PUSH1 0x40 MLOAD DUP1 SWAP2 SUB SWAP1 LOG1 POP POP POP PUSH2 0xCCC PUSH2 0x1A76 JUMP JUMPDEST POP POP JUMP JUMPDEST PUSH2 0xCD8 PUSH2 0x1A32 JUMP JUMPDEST PUSH0 DUP2 GT PUSH2 0xD1A JUMPI PUSH1 0x40 MLOAD PUSH32 0x8C379A000000000000000000000000000000000000000000000000000000000 DUP2 MSTORE PUSH1 0x4 ADD PUSH2 0xD11 SWAP1 PUSH2 0x1FF4 JUMP JUMPDEST PUSH1 0x40 MLOAD DUP1 SWAP2 SUB SWAP1 REVERT JUMPDEST PUSH1 0x3 SLOAD CALLVALUE EQ PUSH2 0xD5E JUMPI PUSH1 0x40 MLOAD PUSH32 0x8C379A000000000000000000000000000000000000000000000000000000000 DUP2 MSTORE PUSH1 0x4 ADD PUSH2 0xD55 SWAP1 PUSH2 0x2082 JUMP JUMPDEST PUSH1 0x40 MLOAD DUP1 SWAP2 SUB SWAP1 REVERT JUMPDEST DUP3 PUSH20 0xFFFFFFFFFFFFFFFFFFFFFFFFFFFFFFFFFFFFFFFF AND PUSH4 0x23B872DD CALLER ADDRESS DUP6 PUSH1 0x40 MLOAD DUP5 PUSH4 0xFFFFFFFF AND PUSH1 0xE0 SHL DUP2 MSTORE PUSH1 0x4 ADD PUSH2 0xD9B SWAP4 SWAP3 SWAP2 SWAP1 PUSH2 0x20AF JUMP JUMPDEST PUSH0 PUSH1 0x40 MLOAD DUP1 DUP4 SUB DUP2 PUSH0 DUP8 DUP1 EXTCODESIZE ISZERO DUP1 ISZERO PUSH2 0xDB2 JUMPI PUSH0 DUP1 REVERT JUMPDEST POP GAS CALL ISZERO DUP1 ISZERO PUSH2 0xDC4 JUMPI RETURNDATASIZE PUSH0 DUP1 RETURNDATACOPY RETURNDATASIZE PUSH0 REVERT JUMPDEST POP POP POP POP PUSH1 0x4 PUSH0 SWAP1 SLOAD SWAP1 PUSH2 0x100 EXP SWAP1 DIV PUSH20 0xFFFFFFFFFFFFFFFFFFFFFFFFFFFFFFFFFFFFFFFF AND PUSH20 0xFFFFFFFFFFFFFFFFFFFFFFFFFFFFFFFFFFFFFFFF AND PUSH2 0x8FC PUSH1 0x3 SLOAD SWAP1 DUP2 ISZERO MUL SWAP1 PUSH1 0x40 MLOAD PUSH0 PUSH1 0x40 MLOAD DUP1 DUP4 SUB DUP2 DUP6 DUP9 DUP9 CALL SWAP4 POP POP POP POP ISZERO DUP1 ISZERO PUSH2 0xE2E JUMPI RETURNDATASIZE PUSH0 DUP1 RETURNDATACOPY RETURNDATASIZE PUSH0 REVERT JUMPDEST POP PUSH1 0x2 PUSH0 DUP2 SLOAD DUP1 SWAP3 SWAP2 SWAP1 PUSH2 0xE41 SWAP1 PUSH2 0x1EF9 JUMP JUMPDEST SWAP2 SWAP1 POP SSTORE POP PUSH1 0x40 MLOAD DUP1 PUSH2 0x100 ADD PUSH1 0x40 MSTORE DUP1 DUP5 PUSH20 0xFFFFFFFFFFFFFFFFFFFFFFFFFFFFFFFFFFFFFFFF AND DUP2 MSTORE PUSH1 0x20 ADD DUP4 DUP2 MSTORE PUSH1 0x20 ADD CALLER PUSH20 0xFFFFFFFFFFFFFFFFFFFFFFFFFFFFFFFFFFFFFFFF AND DUP2 MSTORE PUSH1 0x20 ADD ADDRESS PUSH20 0xFFFFFFFFFFFFFFFFFFFFFFFFFFFFFFFFFFFFFFFF AND DUP2 MSTORE PUSH1 0x20 ADD DUP3 DUP2 MSTORE PUSH1 0x20 ADD PUSH1 0x1 ISZERO ISZERO DUP2 MSTORE PUSH1 0x20 ADD PUSH0 ISZERO ISZERO DUP2 MSTORE PUSH1 0x20 ADD PUSH0 DUP2 MSTORE POP PUSH1 0x5 PUSH0 DUP5 DUP2 MSTORE PUSH1 0x20 ADD SWAP1 DUP2 MSTORE PUSH1 0x20 ADD PUSH0 KECCAK256 PUSH0 DUP3 ADD MLOAD DUP2 PUSH0 ADD PUSH0 PUSH2 0x100 EXP DUP2 SLOAD DUP2 PUSH20 0xFFFFFFFFFFFFFFFFFFFFFFFFFFFFFFFFFFFFFFFF MUL NOT AND SWAP1 DUP4 PUSH20 0xFFFFFFFFFFFFFFFFFFFFFFFFFFFFFFFFFFFFFFFF AND MUL OR SWAP1 SSTORE POP PUSH1 0x20 DUP3 ADD MLOAD DUP2 PUSH1 0x1 ADD SSTORE PUSH1 0x40 DUP3 ADD MLOAD DUP2 PUSH1 0x2 ADD PUSH0 PUSH2 0x100 EXP DUP2 SLOAD DUP2 PUSH20 0xFFFFFFFFFFFFFFFFFFFFFFFFFFFFFFFFFFFFFFFF MUL NOT AND SWAP1 DUP4 PUSH20 0xFFFFFFFFFFFFFFFFFFFFFFFFFFFFFFFFFFFFFFFF AND MUL OR SWAP1 SSTORE POP PUSH1 0x60 DUP3 ADD MLOAD DUP2 PUSH1 0x3 ADD PUSH0 PUSH2 0x100 EXP DUP2 SLOAD DUP2 PUSH20 0xFFFFFFFFFFFFFFFFFFFFFFFFFFFFFFFFFFFFFFFF MUL NOT AND SWAP1 DUP4 PUSH20 0xFFFFFFFFFFFFFFFFFFFFFFFFFFFFFFFFFFFFFFFF AND MUL OR SWAP1 SSTORE POP PUSH1 0x80 DUP3 ADD MLOAD DUP2 PUSH1 0x4 ADD SSTORE PUSH1 0xA0 DUP3 ADD MLOAD DUP2 PUSH1 0x5 ADD PUSH0 PUSH2 0x100 EXP DUP2 SLOAD DUP2 PUSH1 0xFF MUL NOT AND SWAP1 DUP4 ISZERO ISZERO MUL OR SWAP1 SSTORE POP PUSH1 0xC0 DUP3 ADD MLOAD DUP2 PUSH1 0x5 ADD PUSH1 0x1 PUSH2 0x100 EXP DUP2 SLOAD DUP2 PUSH1 0xFF MUL NOT AND SWAP1 DUP4 ISZERO ISZERO MUL OR SWAP1 SSTORE POP PUSH1 0xE0 DUP3 ADD MLOAD DUP2 PUSH1 0x6 ADD SSTORE SWAP1 POP POP PUSH32 0x11C21AF595F44FAC6EEDAE35C674772188A2ECE1A360E7E45B9632D80B53A196 DUP4 DUP4 CALLER ADDRESS DUP6 PUSH1 0x40 MLOAD PUSH2 0x103F SWAP6 SWAP5 SWAP4 SWAP3 SWAP2 SWAP1 PUSH2 0x2382 JUMP JUMPDEST PUSH1 0x40 MLOAD DUP1 SWAP2 SUB SWAP1 LOG1 PUSH2 0x104F PUSH2 0x1A76 JUMP JUMPDEST POP POP POP JUMP JUMPDEST PUSH2 0x105C PUSH2 0x1A32 JUMP JUMPDEST PUSH0 DUP2 GT PUSH2 0x109E JUMPI PUSH1 0x40 MLOAD PUSH32 0x8C379A000000000000000000000000000000000000000000000000000000000 DUP2 MSTORE PUSH1 0x4 ADD PUSH2 0x1095 SWAP1 PUSH2 0x241D JUMP JUMPDEST PUSH1 0x40 MLOAD DUP1 SWAP2 SUB SWAP1 REVERT JUMPDEST PUSH1 0x3 SLOAD CALLVALUE EQ PUSH2 0x10E2 JUMPI PUSH1 0x40 MLOAD PUSH32 0x8C379A000000000000000000000000000000000000000000000000000000000 DUP2 MSTORE PUSH1 0x4 ADD PUSH2 0x10D9 SWAP1 PUSH2 0x2485 JUMP JUMPDEST PUSH1 0x40 MLOAD DUP1 SWAP2 SUB SWAP1 REVERT JUMPDEST DUP3 PUSH20 0xFFFFFFFFFFFFFFFFFFFFFFFFFFFFFFFFFFFFFFFF AND PUSH4 0x23B872DD CALLER ADDRESS DUP6 PUSH1 0x40 MLOAD DUP5 PUSH4 0xFFFFFFFF AND PUSH1 0xE0 SHL DUP2 MSTORE PUSH1 0x4 ADD PUSH2 0x111F SWAP4 SWAP3 SWAP2 SWAP1 PUSH2 0x20AF JUMP JUMPDEST PUSH0 PUSH1 0x40 MLOAD DUP1 DUP4 SUB DUP2 PUSH0 DUP8 DUP1 EXTCODESIZE ISZERO DUP1 ISZERO PUSH2 0x1136 JUMPI PUSH0 DUP1 REVERT JUMPDEST POP GAS CALL ISZERO DUP1 ISZERO PUSH2 0x1148 JUMPI RETURNDATASIZE PUSH0 DUP1 RETURNDATACOPY RETURNDATASIZE PUSH0 REVERT JUMPDEST POP POP POP POP PUSH0 PUSH1 0x5 PUSH0 DUP5 DUP2 MSTORE PUSH1 0x20 ADD SWAP1 DUP2 MSTORE PUSH1 0x20 ADD PUSH0 KECCAK256 SWAP1 POP CALLER DUP2 PUSH1 0x2 ADD PUSH0 PUSH2 0x100 EXP DUP2 SLOAD DUP2 PUSH20 0xFFFFFFFFFFFFFFFFFFFFFFFFFFFFFFFFFFFFFFFF MUL NOT AND SWAP1 DUP4 PUSH20 0xFFFFFFFFFFFFFFFFFFFFFFFFFFFFFFFFFFFFFFFF AND MUL OR SWAP1 SSTORE POP ADDRESS DUP2 PUSH1 0x3 ADD PUSH0 PUSH2 0x100 EXP DUP2 SLOAD DUP2 PUSH20 0xFFFFFFFFFFFFFFFFFFFFFFFFFFFFFFFFFFFFFFFF MUL NOT AND SWAP1 DUP4 PUSH20 0xFFFFFFFFFFFFFFFFFFFFFFFFFFFFFFFFFFFFFFFF AND MUL OR SWAP1 SSTORE POP PUSH1 0x1 DUP2 PUSH1 0x5 ADD PUSH0 PUSH2 0x100 EXP DUP2 SLOAD DUP2 PUSH1 0xFF MUL NOT AND SWAP1 DUP4 ISZERO ISZERO MUL OR SWAP1 SSTORE POP DUP2 DUP2 PUSH1 0x4 ADD DUP2 SWAP1 SSTORE POP PUSH1 0x1 PUSH0 DUP2 SLOAD DUP1 SWAP3 SWAP2 SWAP1 PUSH2 0x121B SWAP1 PUSH2 0x2239 JUMP JUMPDEST SWAP2 SWAP1 POP SSTORE POP PUSH32 0x11C21AF595F44FAC6EEDAE35C674772188A2ECE1A360E7E45B9632D80B53A196 DUP5 DUP5 CALLER ADDRESS DUP7 PUSH1 0x40 MLOAD PUSH2 0x1257 SWAP6 SWAP5 SWAP4 SWAP3 SWAP2 SWAP1 PUSH2 0x2382 JUMP JUMPDEST PUSH1 0x40 MLOAD DUP1 SWAP2 SUB SWAP1 LOG1 POP PUSH2 0x1268 PUSH2 0x1A76 JUMP JUMPDEST POP POP POP JUMP JUMPDEST PUSH2 0x1275 PUSH2 0x1A32 JUMP JUMPDEST PUSH0 PUSH1 0x5 PUSH0 DUP4 DUP2 MSTORE PUSH1 0x20 ADD SWAP1 DUP2 MSTORE PUSH1 0x20 ADD PUSH0 KECCAK256 SWAP1 POP DUP1 PUSH1 0x4 ADD SLOAD CALLVALUE LT ISZERO PUSH2 0x12D0 JUMPI PUSH1 0x40 MLOAD PUSH32 0x8C379A000000000000000000000000000000000000000000000000000000000 DUP2 MSTORE PUSH1 0x4 ADD PUSH2 0x12C7 SWAP1 PUSH2 0x2513 JUMP JUMPDEST PUSH1 0x40 MLOAD DUP1 SWAP2 SUB SWAP1 REVERT JUMPDEST PUSH0 CALLER SWAP1 POP DUP2 PUSH1 0x2 ADD PUSH0 SWAP1 SLOAD SWAP1 PUSH2 0x100 EXP SWAP1 DIV PUSH20 0xFFFFFFFFFFFFFFFFFFFFFFFFFFFFFFFFFFFFFFFF AND PUSH20 0xFFFFFFFFFFFFFFFFFFFFFFFFFFFFFFFFFFFFFFFF AND PUSH2 0x8FC CALLVALUE SWAP1 DUP2 ISZERO MUL SWAP1 PUSH1 0x40 MLOAD PUSH0 PUSH1 0x40 MLOAD DUP1 DUP4 SUB DUP2 DUP6 DUP9 DUP9 CALL SWAP4 POP POP POP POP ISZERO DUP1 ISZERO PUSH2 0x133A JUMPI RETURNDATASIZE PUSH0 DUP1 RETURNDATACOPY RETURNDATASIZE PUSH0 REVERT JUMPDEST POP DUP4 PUSH20 0xFFFFFFFFFFFFFFFFFFFFFFFFFFFFFFFFFFFFFFFF AND PUSH4 0x23B872DD ADDRESS DUP4 DUP6 PUSH1 0x1 ADD SLOAD PUSH1 0x40 MLOAD DUP5 PUSH4 0xFFFFFFFF AND PUSH1 0xE0 SHL DUP2 MSTORE PUSH1 0x4 ADD PUSH2 0x137C SWAP4 SWAP3 SWAP2 SWAP1 PUSH2 0x2531 JUMP JUMPDEST PUSH0 PUSH1 0x40 MLOAD DUP1 DUP4 SUB DUP2 PUSH0 DUP8 DUP1 EXTCODESIZE ISZERO DUP1 ISZERO PUSH2 0x1393 JUMPI PUSH0 DUP1 REVERT JUMPDEST POP GAS CALL ISZERO DUP1 ISZERO PUSH2 0x13A5 JUMPI RETURNDATASIZE PUSH0 DUP1 RETURNDATACOPY RETURNDATASIZE PUSH0 REVERT JUMPDEST POP POP POP POP DUP1 DUP3 PUSH1 0x3 ADD PUSH0 PUSH2 0x100 EXP DUP2 SLOAD DUP2 PUSH20 0xFFFFFFFFFFFFFFFFFFFFFFFFFFFFFFFFFFFFFFFF MUL NOT AND SWAP1 DUP4 PUSH20 0xFFFFFFFFFFFFFFFFFFFFFFFFFFFFFFFFFFFFFFFF AND MUL OR SWAP1 SSTORE POP PUSH0 DUP3 PUSH1 0x5 ADD PUSH0 PUSH2 0x100 EXP DUP2 SLOAD DUP2 PUSH1 0xFF MUL NOT AND SWAP1 DUP4 ISZERO ISZERO MUL OR SWAP1 SSTORE POP PUSH1 0x1 PUSH0 DUP2 SLOAD DUP1 SWAP3 SWAP2 SWAP1 PUSH2 0x1418 SWAP1 PUSH2 0x1EF9 JUMP JUMPDEST SWAP2 SWAP1 POP SSTORE POP PUSH32 0xBCF10C39F62B09D50EFA1E275C1297B15EF10EFD0E4E9B54883D782EEF4EF564 DUP5 DUP4 PUSH1 0x1 ADD SLOAD DUP5 PUSH1 0x2 ADD PUSH0 SWAP1 SLOAD SWAP1 PUSH2 0x100 EXP SWAP1 DIV PUSH20 0xFFFFFFFFFFFFFFFFFFFFFFFFFFFFFFFFFFFFFFFF AND DUP5 CALLVALUE PUSH1 0x40 MLOAD PUSH2 0x147B SWAP6 SWAP5 SWAP4 SWAP3 SWAP2 SWAP1 PUSH2 0x2566 JUMP JUMPDEST PUSH1 0x40 MLOAD DUP1 SWAP2 SUB SWAP1 LOG1 POP POP PUSH2 0x148D PUSH2 0x1A76 JUMP JUMPDEST POP POP JUMP JUMPDEST PUSH1 0x60 PUSH0 PUSH1 0x2 SLOAD SWAP1 POP PUSH0 DUP1 JUMPDEST DUP3 DUP2 LT ISZERO PUSH2 0x1532 JUMPI CALLER PUSH20 0xFFFFFFFFFFFFFFFFFFFFFFFFFFFFFFFFFFFFFFFF AND PUSH1 0x5 PUSH0 PUSH1 0x1 DUP5 PUSH2 0x14CB SWAP2 SWAP1 PUSH2 0x1EC6 JUMP JUMPDEST DUP2 MSTORE PUSH1 0x20 ADD SWAP1 DUP2 MSTORE PUSH1 0x20 ADD PUSH0 KECCAK256 PUSH1 0x3 ADD PUSH0 SWAP1 SLOAD SWAP1 PUSH2 0x100 EXP SWAP1 DIV PUSH20 0xFFFFFFFFFFFFFFFFFFFFFFFFFFFFFFFFFFFFFFFF AND PUSH20 0xFFFFFFFFFFFFFFFFFFFFFFFFFFFFFFFFFFFFFFFF AND SUB PUSH2 0x1525 JUMPI DUP2 DUP1 PUSH2 0x1521 SWAP1 PUSH2 0x1EF9 JUMP JUMPDEST SWAP3 POP POP JUMPDEST DUP1 DUP1 PUSH1 0x1 ADD SWAP2 POP POP PUSH2 0x149C JUMP JUMPDEST POP PUSH0 DUP2 PUSH8 0xFFFFFFFFFFFFFFFF DUP2 GT ISZERO PUSH2 0x154E JUMPI PUSH2 0x154D PUSH2 0x1F40 JUMP JUMPDEST JUMPDEST PUSH1 0x40 MLOAD SWAP1 DUP1 DUP3 MSTORE DUP1 PUSH1 0x20 MUL PUSH1 0x20 ADD DUP3 ADD PUSH1 0x40 MSTORE DUP1 ISZERO PUSH2 0x1587 JUMPI DUP2 PUSH1 0x20 ADD JUMPDEST PUSH2 0x1574 PUSH2 0x1A7F JUMP JUMPDEST DUP2 MSTORE PUSH1 0x20 ADD SWAP1 PUSH1 0x1 SWAP1 SUB SWAP1 DUP2 PUSH2 0x156C JUMPI SWAP1 POP JUMPDEST POP SWAP1 POP PUSH0 DUP1 JUMPDEST DUP5 DUP2 LT ISZERO PUSH2 0x17BB JUMPI CALLER PUSH20 0xFFFFFFFFFFFFFFFFFFFFFFFFFFFFFFFFFFFFFFFF AND PUSH1 0x5 PUSH0 PUSH1 0x1 DUP5 PUSH2 0x15BC SWAP2 SWAP1 PUSH2 0x1EC6 JUMP JUMPDEST DUP2 MSTORE PUSH1 0x20 ADD SWAP1 DUP2 MSTORE PUSH1 0x20 ADD PUSH0 KECCAK256 PUSH1 0x3 ADD PUSH0 SWAP1 SLOAD SWAP1 PUSH2 0x100 EXP SWAP1 DIV PUSH20 0xFFFFFFFFFFFFFFFFFFFFFFFFFFFFFFFFFFFFFFFF AND PUSH20 0xFFFFFFFFFFFFFFFFFFFFFFFFFFFFFFFFFFFFFFFF AND SUB PUSH2 0x17AE JUMPI PUSH1 0x5 PUSH0 PUSH1 0x1 DUP4 PUSH2 0x1617 SWAP2 SWAP1 PUSH2 0x1EC6 JUMP JUMPDEST DUP2 MSTORE PUSH1 0x20 ADD SWAP1 DUP2 MSTORE PUSH1 0x20 ADD PUSH0 KECCAK256 PUSH1 0x40 MLOAD DUP1 PUSH2 0x100 ADD PUSH1 0x40 MSTORE SWAP1 DUP2 PUSH0 DUP3 ADD PUSH0 SWAP1 SLOAD SWAP1 PUSH2 0x100 EXP SWAP1 DIV PUSH20 0xFFFFFFFFFFFFFFFFFFFFFFFFFFFFFFFFFFFFFFFF AND PUSH20 0xFFFFFFFFFFFFFFFFFFFFFFFFFFFFFFFFFFFFFFFF AND PUSH20 0xFFFFFFFFFFFFFFFFFFFFFFFFFFFFFFFFFFFFFFFF AND DUP2 MSTORE PUSH1 0x20 ADD PUSH1 0x1 DUP3 ADD SLOAD DUP2 MSTORE PUSH1 0x20 ADD PUSH1 0x2 DUP3 ADD PUSH0 SWAP1 SLOAD SWAP1 PUSH2 0x100 EXP SWAP1 DIV PUSH20 0xFFFFFFFFFFFFFFFFFFFFFFFFFFFFFFFFFFFFFFFF AND PUSH20 0xFFFFFFFFFFFFFFFFFFFFFFFFFFFFFFFFFFFFFFFF AND PUSH20 0xFFFFFFFFFFFFFFFFFFFFFFFFFFFFFFFFFFFFFFFF AND DUP2 MSTORE PUSH1 0x20 ADD PUSH1 0x3 DUP3 ADD PUSH0 SWAP1 SLOAD SWAP1 PUSH2 0x100 EXP SWAP1 DIV PUSH20 0xFFFFFFFFFFFFFFFFFFFFFFFFFFFFFFFFFFFFFFFF AND PUSH20 0xFFFFFFFFFFFFFFFFFFFFFFFFFFFFFFFFFFFFFFFF AND PUSH20 0xFFFFFFFFFFFFFFFFFFFFFFFFFFFFFFFFFFFFFFFF AND DUP2 MSTORE PUSH1 0x20 ADD PUSH1 0x4 DUP3 ADD SLOAD DUP2 MSTORE PUSH1 0x20 ADD PUSH1 0x5 DUP3 ADD PUSH0 SWAP1 SLOAD SWAP1 PUSH2 0x100 EXP SWAP1 DIV PUSH1 0xFF AND ISZERO ISZERO ISZERO ISZERO DUP2 MSTORE PUSH1 0x20 ADD PUSH1 0x5 DUP3 ADD PUSH1 0x1 SWAP1 SLOAD SWAP1 PUSH2 0x100 EXP SWAP1 DIV PUSH1 0xFF AND ISZERO ISZERO ISZERO ISZERO DUP2 MSTORE PUSH1 0x20 ADD PUSH1 0x6 DUP3 ADD SLOAD DUP2 MSTORE POP POP DUP4 DUP4 DUP2 MLOAD DUP2 LT PUSH2 0x1794 JUMPI PUSH2 0x1793 PUSH2 0x1F6D JUMP JUMPDEST JUMPDEST PUSH1 0x20 MUL PUSH1 0x20 ADD ADD DUP2 SWAP1 MSTORE POP DUP2 DUP1 PUSH2 0x17AA SWAP1 PUSH2 0x1EF9 JUMP JUMPDEST SWAP3 POP POP JUMPDEST DUP1 DUP1 PUSH1 0x1 ADD SWAP2 POP POP PUSH2 0x158D JUMP JUMPDEST POP DUP2 SWAP5 POP POP POP POP POP SWAP1 JUMP JUMPDEST PUSH1 0x60 PUSH0 PUSH1 0x2 SLOAD SWAP1 POP PUSH0 PUSH1 0x1 SLOAD DUP3 PUSH2 0x17DD SWAP2 SWAP1 PUSH2 0x25B7 JUMP JUMPDEST SWAP1 POP PUSH0 DUP2 PUSH8 0xFFFFFFFFFFFFFFFF DUP2 GT ISZERO PUSH2 0x17FA JUMPI PUSH2 0x17F9 PUSH2 0x1F40 JUMP JUMPDEST JUMPDEST PUSH1 0x40 MLOAD SWAP1 DUP1 DUP3 MSTORE DUP1 PUSH1 0x20 MUL PUSH1 0x20 ADD DUP3 ADD PUSH1 0x40 MSTORE DUP1 ISZERO PUSH2 0x1833 JUMPI DUP2 PUSH1 0x20 ADD JUMPDEST PUSH2 0x1820 PUSH2 0x1A7F JUMP JUMPDEST DUP2 MSTORE PUSH1 0x20 ADD SWAP1 PUSH1 0x1 SWAP1 SUB SWAP1 DUP2 PUSH2 0x1818 JUMPI SWAP1 POP JUMPDEST POP SWAP1 POP PUSH0 DUP1 JUMPDEST DUP5 DUP2 LT ISZERO PUSH2 0x1A27 JUMPI PUSH1 0x5 PUSH0 PUSH1 0x1 DUP4 PUSH2 0x1851 SWAP2 SWAP1 PUSH2 0x1EC6 JUMP JUMPDEST DUP2 MSTORE PUSH1 0x20 ADD SWAP1 DUP2 MSTORE PUSH1 0x20 ADD PUSH0 KECCAK256 PUSH1 0x5 ADD PUSH0 SWAP1 SLOAD SWAP1 PUSH2 0x100 EXP SWAP1 DIV PUSH1 0xFF AND ISZERO PUSH2 0x1A1A JUMPI PUSH1 0x5 PUSH0 PUSH1 0x1 DUP4 PUSH2 0x1883 SWAP2 SWAP1 PUSH2 0x1EC6 JUMP JUMPDEST DUP2 MSTORE PUSH1 0x20 ADD SWAP1 DUP2 MSTORE PUSH1 0x20 ADD PUSH0 KECCAK256 PUSH1 0x40 MLOAD DUP1 PUSH2 0x100 ADD PUSH1 0x40 MSTORE SWAP1 DUP2 PUSH0 DUP3 ADD PUSH0 SWAP1 SLOAD SWAP1 PUSH2 0x100 EXP SWAP1 DIV PUSH20 0xFFFFFFFFFFFFFFFFFFFFFFFFFFFFFFFFFFFFFFFF AND PUSH20 0xFFFFFFFFFFFFFFFFFFFFFFFFFFFFFFFFFFFFFFFF AND PUSH20 0xFFFFFFFFFFFFFFFFFFFFFFFFFFFFFFFFFFFFFFFF AND DUP2 MSTORE PUSH1 0x20 ADD PUSH1 0x1 DUP3 ADD SLOAD DUP2 MSTORE PUSH1 0x20 ADD PUSH1 0x2 DUP3 ADD PUSH0 SWAP1 SLOAD SWAP1 PUSH2 0x100 EXP SWAP1 DIV PUSH20 0xFFFFFFFFFFFFFFFFFFFFFFFFFFFFFFFFFFFFFFFF AND PUSH20 0xFFFFFFFFFFFFFFFFFFFFFFFFFFFFFFFFFFFFFFFF AND PUSH20 0xFFFFFFFFFFFFFFFFFFFFFFFFFFFFFFFFFFFFFFFF AND DUP2 MSTORE PUSH1 0x20 ADD PUSH1 0x3 DUP3 ADD PUSH0 SWAP1 SLOAD SWAP1 PUSH2 0x100 EXP SWAP1 DIV PUSH20 0xFFFFFFFFFFFFFFFFFFFFFFFFFFFFFFFFFFFFFFFF AND PUSH20 0xFFFFFFFFFFFFFFFFFFFFFFFFFFFFFFFFFFFFFFFF AND PUSH20 0xFFFFFFFFFFFFFFFFFFFFFFFFFFFFFFFFFFFFFFFF AND DUP2 MSTORE PUSH1 0x20 ADD PUSH1 0x4 DUP3 ADD SLOAD DUP2 MSTORE PUSH1 0x20 ADD PUSH1 0x5 DUP3 ADD PUSH0 SWAP1 SLOAD SWAP1 PUSH2 0x100 EXP SWAP1 DIV PUSH1 0xFF AND ISZERO ISZERO ISZERO ISZERO DUP2 MSTORE PUSH1 0x20 ADD PUSH1 0x5 DUP3 ADD PUSH1 0x1 SWAP1 SLOAD SWAP1 PUSH2 0x100 EXP SWAP1 DIV PUSH1 0xFF AND ISZERO ISZERO ISZERO ISZERO DUP2 MSTORE PUSH1 0x20 ADD PUSH1 0x6 DUP3 ADD SLOAD DUP2 MSTORE POP POP DUP4 DUP4 DUP2 MLOAD DUP2 LT PUSH2 0x1A00 JUMPI PUSH2 0x19FF PUSH2 0x1F6D JUMP JUMPDEST JUMPDEST PUSH1 0x20 MUL PUSH1 0x20 ADD ADD DUP2 SWAP1 MSTORE POP DUP2 DUP1 PUSH2 0x1A16 SWAP1 PUSH2 0x1EF9 JUMP JUMPDEST SWAP3 POP POP JUMPDEST DUP1 DUP1 PUSH1 0x1 ADD SWAP2 POP POP PUSH2 0x1839 JUMP JUMPDEST POP DUP2 SWAP5 POP POP POP POP POP SWAP1 JUMP JUMPDEST PUSH1 0x2 PUSH0 SLOAD SUB PUSH2 0x1A6D JUMPI PUSH1 0x40 MLOAD PUSH32 0x3EE5AEB500000000000000000000000000000000000000000000000000000000 DUP2 MSTORE PUSH1 0x4 ADD PUSH1 0x40 MLOAD DUP1 SWAP2 SUB SWAP1 REVERT JUMPDEST PUSH1 0x2 PUSH0 DUP2 SWAP1 SSTORE POP JUMP JUMPDEST PUSH1 0x1 PUSH0 DUP2 SWAP1 SSTORE POP JUMP JUMPDEST PUSH1 0x40 MLOAD DUP1 PUSH2 0x100 ADD PUSH1 0x40 MSTORE DUP1 PUSH0 PUSH20 0xFFFFFFFFFFFFFFFFFFFFFFFFFFFFFFFFFFFFFFFF AND DUP2 MSTORE PUSH1 0x20 ADD PUSH0 DUP2 MSTORE PUSH1 0x20 ADD PUSH0 PUSH20 0xFFFFFFFFFFFFFFFFFFFFFFFFFFFFFFFFFFFFFFFF AND DUP2 MSTORE PUSH1 0x20 ADD PUSH0 PUSH20 0xFFFFFFFFFFFFFFFFFFFFFFFFFFFFFFFFFFFFFFFF AND DUP2 MSTORE PUSH1 0x20 ADD PUSH0 DUP2 MSTORE PUSH1 0x20 ADD PUSH0 ISZERO ISZERO DUP2 MSTORE PUSH1 0x20 ADD PUSH0 ISZERO ISZERO DUP2 MSTORE PUSH1 0x20 ADD PUSH0 DUP2 MSTORE POP SWAP1 JUMP JUMPDEST PUSH0 DUP2 SWAP1 POP SWAP2 SWAP1 POP JUMP JUMPDEST PUSH2 0x1B14 DUP2 PUSH2 0x1B02 JUMP JUMPDEST DUP3 MSTORE POP POP JUMP JUMPDEST PUSH0 PUSH1 0x20 DUP3 ADD SWAP1 POP PUSH2 0x1B2D PUSH0 DUP4 ADD DUP5 PUSH2 0x1B0B JUMP JUMPDEST SWAP3 SWAP2 POP POP JUMP JUMPDEST PUSH0 DUP2 MLOAD SWAP1 POP SWAP2 SWAP1 POP JUMP JUMPDEST PUSH0 DUP3 DUP3 MSTORE PUSH1 0x20 DUP3 ADD SWAP1 POP SWAP3 SWAP2 POP POP JUMP JUMPDEST PUSH0 DUP2 SWAP1 POP PUSH1 0x20 DUP3 ADD SWAP1 POP SWAP2 SWAP1 POP JUMP JUMPDEST PUSH0 PUSH20 0xFFFFFFFFFFFFFFFFFFFFFFFFFFFFFFFFFFFFFFFF DUP3 AND SWAP1 POP SWAP2 SWAP1 POP JUMP JUMPDEST PUSH0 PUSH2 0x1B85 DUP3 PUSH2 0x1B5C JUMP JUMPDEST SWAP1 POP SWAP2 SWAP1 POP JUMP JUMPDEST PUSH2 0x1B95 DUP2 PUSH2 0x1B7B JUMP JUMPDEST DUP3 MSTORE POP POP JUMP JUMPDEST PUSH2 0x1BA4 DUP2 PUSH2 0x1B02 JUMP JUMPDEST DUP3 MSTORE POP POP JUMP JUMPDEST PUSH0 PUSH2 0x1BB4 DUP3 PUSH2 0x1B5C JUMP JUMPDEST SWAP1 POP SWAP2 SWAP1 POP JUMP JUMPDEST PUSH2 0x1BC4 DUP2 PUSH2 0x1BAA JUMP JUMPDEST DUP3 MSTORE POP POP JUMP JUMPDEST PUSH0 DUP2 ISZERO ISZERO SWAP1 POP SWAP2 SWAP1 POP JUMP JUMPDEST PUSH2 0x1BDE DUP2 PUSH2 0x1BCA JUMP JUMPDEST DUP3 MSTORE POP POP JUMP JUMPDEST PUSH2 0x100 DUP3 ADD PUSH0 DUP3 ADD MLOAD PUSH2 0x1BF9 PUSH0 DUP6 ADD DUP3 PUSH2 0x1B8C JUMP JUMPDEST POP PUSH1 0x20 DUP3 ADD MLOAD PUSH2 0x1C0C PUSH1 0x20 DUP6 ADD DUP3 PUSH2 0x1B9B JUMP JUMPDEST POP PUSH1 0x40 DUP3 ADD MLOAD PUSH2 0x1C1F PUSH1 0x40 DUP6 ADD DUP3 PUSH2 0x1BBB JUMP JUMPDEST POP PUSH1 0x60 DUP3 ADD MLOAD PUSH2 0x1C32 PUSH1 0x60 DUP6 ADD DUP3 PUSH2 0x1BBB JUMP JUMPDEST POP PUSH1 0x80 DUP3 ADD MLOAD PUSH2 0x1C45 PUSH1 0x80 DUP6 ADD DUP3 PUSH2 0x1B9B JUMP JUMPDEST POP PUSH1 0xA0 DUP3 ADD MLOAD PUSH2 0x1C58 PUSH1 0xA0 DUP6 ADD DUP3 PUSH2 0x1BD5 JUMP JUMPDEST POP PUSH1 0xC0 DUP3 ADD MLOAD PUSH2 0x1C6B PUSH1 0xC0 DUP6 ADD DUP3 PUSH2 0x1BD5 JUMP JUMPDEST POP PUSH1 0xE0 DUP3 ADD MLOAD PUSH2 0x1C7E PUSH1 0xE0 DUP6 ADD DUP3 PUSH2 0x1B9B JUMP JUMPDEST POP POP POP POP JUMP JUMPDEST PUSH0 PUSH2 0x1C8F DUP4 DUP4 PUSH2 0x1BE4 JUMP JUMPDEST PUSH2 0x100 DUP4 ADD SWAP1 POP SWAP3 SWAP2 POP POP JUMP JUMPDEST PUSH0 PUSH1 0x20 DUP3 ADD SWAP1 POP SWAP2 SWAP1 POP JUMP JUMPDEST PUSH0 PUSH2 0x1CB2 DUP3 PUSH2 0x1B33 JUMP JUMPDEST PUSH2 0x1CBC DUP2 DUP6 PUSH2 0x1B3D JUMP JUMPDEST SWAP4 POP PUSH2 0x1CC7 DUP4 PUSH2 0x1B4D JUMP JUMPDEST DUP1 PUSH0 JUMPDEST DUP4 DUP2 LT ISZERO PUSH2 0x1CF7 JUMPI DUP2 MLOAD PUSH2 0x1CDE DUP9 DUP3 PUSH2 0x1C84 JUMP JUMPDEST SWAP8 POP PUSH2 0x1CE9 DUP4 PUSH2 0x1C9C JUMP JUMPDEST SWAP3 POP POP PUSH1 0x1 DUP2 ADD SWAP1 POP PUSH2 0x1CCA JUMP JUMPDEST POP DUP6 SWAP4 POP POP POP POP SWAP3 SWAP2 POP POP JUMP JUMPDEST PUSH0 PUSH1 0x20 DUP3 ADD SWAP1 POP DUP2 DUP2 SUB PUSH0 DUP4 ADD MSTORE PUSH2 0x1D1C DUP2 DUP5 PUSH2 0x1CA8 JUMP JUMPDEST SWAP1 POP SWAP3 SWAP2 POP POP JUMP JUMPDEST PUSH0 DUP1 REVERT JUMPDEST PUSH2 0x1D31 DUP2 PUSH2 0x1B7B JUMP JUMPDEST DUP2 EQ PUSH2 0x1D3B JUMPI PUSH0 DUP1 REVERT JUMPDEST POP JUMP JUMPDEST PUSH0 DUP2 CALLDATALOAD SWAP1 POP PUSH2 0x1D4C DUP2 PUSH2 0x1D28 JUMP JUMPDEST SWAP3 SWAP2 POP POP JUMP JUMPDEST PUSH2 0x1D5B DUP2 PUSH2 0x1B02 JUMP JUMPDEST DUP2 EQ PUSH2 0x1D65 JUMPI PUSH0 DUP1 REVERT JUMPDEST POP JUMP JUMPDEST PUSH0 DUP2 CALLDATALOAD SWAP1 POP PUSH2 0x1D76 DUP2 PUSH2 0x1D52 JUMP JUMPDEST SWAP3 SWAP2 POP POP JUMP JUMPDEST PUSH0 DUP1 PUSH0 DUP1 PUSH1 0x80 DUP6 DUP8 SUB SLT ISZERO PUSH2 0x1D94 JUMPI PUSH2 0x1D93 PUSH2 0x1D24 JUMP JUMPDEST JUMPDEST PUSH0 PUSH2 0x1DA1 DUP8 DUP3 DUP9 ADD PUSH2 0x1D3E JUMP JUMPDEST SWAP5 POP POP PUSH1 0x20 PUSH2 0x1DB2 DUP8 DUP3 DUP9 ADD PUSH2 0x1D68 JUMP JUMPDEST SWAP4 POP POP PUSH1 0x40 PUSH2 0x1DC3 DUP8 DUP3 DUP9 ADD PUSH2 0x1D68 JUMP JUMPDEST SWAP3 POP POP PUSH1 0x60 PUSH2 0x1DD4 DUP8 DUP3 DUP9 ADD PUSH2 0x1D68 JUMP JUMPDEST SWAP2 POP POP SWAP3 SWAP6 SWAP2 SWAP5 POP SWAP3 POP JUMP JUMPDEST PUSH0 PUSH1 0x20 DUP3 DUP5 SUB SLT ISZERO PUSH2 0x1DF5 JUMPI PUSH2 0x1DF4 PUSH2 0x1D24 JUMP JUMPDEST JUMPDEST PUSH0 PUSH2 0x1E02 DUP5 DUP3 DUP6 ADD PUSH2 0x1D68 JUMP JUMPDEST SWAP2 POP POP SWAP3 SWAP2 POP POP JUMP JUMPDEST PUSH0 DUP1 PUSH1 0x40 DUP4 DUP6 SUB SLT ISZERO PUSH2 0x1E21 JUMPI PUSH2 0x1E20 PUSH2 0x1D24 JUMP JUMPDEST JUMPDEST PUSH0 PUSH2 0x1E2E DUP6 DUP3 DUP7 ADD PUSH2 0x1D3E JUMP JUMPDEST SWAP3 POP POP PUSH1 0x20 PUSH2 0x1E3F DUP6 DUP3 DUP7 ADD PUSH2 0x1D68 JUMP JUMPDEST SWAP2 POP POP SWAP3 POP SWAP3 SWAP1 POP JUMP JUMPDEST PUSH0 DUP1 PUSH0 PUSH1 0x60 DUP5 DUP7 SUB SLT ISZERO PUSH2 0x1E60 JUMPI PUSH2 0x1E5F PUSH2 0x1D24 JUMP JUMPDEST JUMPDEST PUSH0 PUSH2 0x1E6D DUP7 DUP3 DUP8 ADD PUSH2 0x1D3E JUMP JUMPDEST SWAP4 POP POP PUSH1 0x20 PUSH2 0x1E7E DUP7 DUP3 DUP8 ADD PUSH2 0x1D68 JUMP JUMPDEST SWAP3 POP POP PUSH1 0x40 PUSH2 0x1E8F DUP7 DUP3 DUP8 ADD PUSH2 0x1D68 JUMP JUMPDEST SWAP2 POP POP SWAP3 POP SWAP3 POP SWAP3 JUMP JUMPDEST PUSH32 0x4E487B7100000000000000000000000000000000000000000000000000000000 PUSH0 MSTORE PUSH1 0x11 PUSH1 0x4 MSTORE PUSH1 0x24 PUSH0 REVERT JUMPDEST PUSH0 PUSH2 0x1ED0 DUP3 PUSH2 0x1B02 JUMP JUMPDEST SWAP2 POP PUSH2 0x1EDB DUP4 PUSH2 0x1B02 JUMP JUMPDEST SWAP3 POP DUP3 DUP3 ADD SWAP1 POP DUP1 DUP3 GT ISZERO PUSH2 0x1EF3 JUMPI PUSH2 0x1EF2 PUSH2 0x1E99 JUMP JUMPDEST JUMPDEST SWAP3 SWAP2 POP POP JUMP JUMPDEST PUSH0 PUSH2 0x1F03 DUP3 PUSH2 0x1B02 JUMP JUMPDEST SWAP2 POP PUSH32 0xFFFFFFFFFFFFFFFFFFFFFFFFFFFFFFFFFFFFFFFFFFFFFFFFFFFFFFFFFFFFFFFF DUP3 SUB PUSH2 0x1F35 JUMPI PUSH2 0x1F34 PUSH2 0x1E99 JUMP JUMPDEST JUMPDEST PUSH1 0x1 DUP3 ADD SWAP1 POP SWAP2 SWAP1 POP JUMP JUMPDEST PUSH32 0x4E487B7100000000000000000000000000000000000000000000000000000000 PUSH0 MSTORE PUSH1 0x41 PUSH1 0x4 MSTORE PUSH1 0x24 PUSH0 REVERT JUMPDEST PUSH32 0x4E487B7100000000000000000000000000000000000000000000000000000000 PUSH0 MSTORE PUSH1 0x32 PUSH1 0x4 MSTORE PUSH1 0x24 PUSH0 REVERT JUMPDEST PUSH0 DUP3 DUP3 MSTORE PUSH1 0x20 DUP3 ADD SWAP1 POP SWAP3 SWAP2 POP POP JUMP JUMPDEST PUSH32 0x5072696365206D7573742062652067726561746572207468616E20302E000000 PUSH0 DUP3 ADD MSTORE POP JUMP JUMPDEST PUSH0 PUSH2 0x1FDE PUSH1 0x1D DUP4 PUSH2 0x1F9A JUMP JUMPDEST SWAP2 POP PUSH2 0x1FE9 DUP3 PUSH2 0x1FAA JUMP JUMPDEST PUSH1 0x20 DUP3 ADD SWAP1 POP SWAP2 SWAP1 POP JUMP JUMPDEST PUSH0 PUSH1 0x20 DUP3 ADD SWAP1 POP DUP2 DUP2 SUB PUSH0 DUP4 ADD MSTORE PUSH2 0x200B DUP2 PUSH2 0x1FD2 JUMP JUMPDEST SWAP1 POP SWAP2 SWAP1 POP JUMP JUMPDEST PUSH32 0x506C656173652072656D6F76652076616C7565206265666F7265206C69737469 PUSH0 DUP3 ADD MSTORE PUSH32 0x6E67206974656D2C206C697374696E672066656520697320667265652E000000 PUSH1 0x20 DUP3 ADD MSTORE POP JUMP JUMPDEST PUSH0 PUSH2 0x206C PUSH1 0x3D DUP4 PUSH2 0x1F9A JUMP JUMPDEST SWAP2 POP PUSH2 0x2077 DUP3 PUSH2 0x2012 JUMP JUMPDEST PUSH1 0x40 DUP3 ADD SWAP1 POP SWAP2 SWAP1 POP JUMP JUMPDEST PUSH0 PUSH1 0x20 DUP3 ADD SWAP1 POP DUP2 DUP2 SUB PUSH0 DUP4 ADD MSTORE PUSH2 0x2099 DUP2 PUSH2 0x2060 JUMP JUMPDEST SWAP1 POP SWAP2 SWAP1 POP JUMP JUMPDEST PUSH2 0x20A9 DUP2 PUSH2 0x1B7B JUMP JUMPDEST DUP3 MSTORE POP POP JUMP JUMPDEST PUSH0 PUSH1 0x60 DUP3 ADD SWAP1 POP PUSH2 0x20C2 PUSH0 DUP4 ADD DUP7 PUSH2 0x20A0 JUMP JUMPDEST PUSH2 0x20CF PUSH1 0x20 DUP4 ADD DUP6 PUSH2 0x20A0 JUMP JUMPDEST PUSH2 0x20DC PUSH1 0x40 DUP4 ADD DUP5 PUSH2 0x1B0B JUMP JUMPDEST SWAP5 SWAP4 POP POP POP POP JUMP JUMPDEST PUSH0 PUSH1 0xC0 DUP3 ADD SWAP1 POP PUSH2 0x20F7 PUSH0 DUP4 ADD DUP10 PUSH2 0x20A0 JUMP JUMPDEST PUSH2 0x2104 PUSH1 0x20 DUP4 ADD DUP9 PUSH2 0x1B0B JUMP JUMPDEST PUSH2 0x2111 PUSH1 0x40 DUP4 ADD DUP8 PUSH2 0x20A0 JUMP JUMPDEST PUSH2 0x211E PUSH1 0x60 DUP4 ADD DUP7 PUSH2 0x20A0 JUMP JUMPDEST PUSH2 0x212B PUSH1 0x80 DUP4 ADD DUP6 PUSH2 0x1B0B JUMP JUMPDEST PUSH2 0x2138 PUSH1 0xA0 DUP4 ADD DUP5 PUSH2 0x1B0B JUMP JUMPDEST SWAP8 SWAP7 POP POP POP POP POP POP POP JUMP JUMPDEST PUSH32 0x4D757374206F776E20746865206974656D20746F20726563616C6C2069742066 PUSH0 DUP3 ADD MSTORE PUSH32 0x726F6D2072656E7465722E000000000000000000000000000000000000000000 PUSH1 0x20 DUP3 ADD MSTORE POP JUMP JUMPDEST PUSH0 PUSH2 0x219D PUSH1 0x2B DUP4 PUSH2 0x1F9A JUMP JUMPDEST SWAP2 POP PUSH2 0x21A8 DUP3 PUSH2 0x2143 JUMP JUMPDEST PUSH1 0x40 DUP3 ADD SWAP1 POP SWAP2 SWAP1 POP JUMP JUMPDEST PUSH0 PUSH1 0x20 DUP3 ADD SWAP1 POP DUP2 DUP2 SUB PUSH0 DUP4 ADD MSTORE PUSH2 0x21CA DUP2 PUSH2 0x2191 JUMP JUMPDEST SWAP1 POP SWAP2 SWAP1 POP JUMP JUMPDEST PUSH32 0x43616E6E6F7420726563616C6C206974656D207965742E000000000000000000 PUSH0 DUP3 ADD MSTORE POP JUMP JUMPDEST PUSH0 PUSH2 0x2205 PUSH1 0x17 DUP4 PUSH2 0x1F9A JUMP JUMPDEST SWAP2 POP PUSH2 0x2210 DUP3 PUSH2 0x21D1 JUMP JUMPDEST PUSH1 0x20 DUP3 ADD SWAP1 POP SWAP2 SWAP1 POP JUMP JUMPDEST PUSH0 PUSH1 0x20 DUP3 ADD SWAP1 POP DUP2 DUP2 SUB PUSH0 DUP4 ADD MSTORE PUSH2 0x2232 DUP2 PUSH2 0x21F9 JUMP JUMPDEST SWAP1 POP SWAP2 SWAP1 POP JUMP JUMPDEST PUSH0 PUSH2 0x2243 DUP3 PUSH2 0x1B02 JUMP JUMPDEST SWAP2 POP PUSH0 DUP3 SUB PUSH2 0x2255 JUMPI PUSH2 0x2254 PUSH2 0x1E99 JUMP JUMPDEST JUMPDEST PUSH1 0x1 DUP3 SUB SWAP1 POP SWAP2 SWAP1 POP JUMP JUMPDEST PUSH32 0x496E73756666696369656E742066756E647320746F2072656E74206974656D2E PUSH0 DUP3 ADD MSTORE POP JUMP JUMPDEST PUSH0 PUSH2 0x2294 PUSH1 0x20 DUP4 PUSH2 0x1F9A JUMP JUMPDEST SWAP2 POP PUSH2 0x229F DUP3 PUSH2 0x2260 JUMP JUMPDEST PUSH1 0x20 DUP3 ADD SWAP1 POP SWAP2 SWAP1 POP JUMP JUMPDEST PUSH0 PUSH1 0x20 DUP3 ADD SWAP1 POP DUP2 DUP2 SUB PUSH0 DUP4 ADD MSTORE PUSH2 0x22C1 DUP2 PUSH2 0x2288 JUMP JUMPDEST SWAP1 POP SWAP2 SWAP1 POP JUMP JUMPDEST PUSH0 DUP2 SWAP1 POP SWAP2 SWAP1 POP JUMP JUMPDEST PUSH0 PUSH2 0x22EB PUSH2 0x22E6 PUSH2 0x22E1 DUP5 PUSH2 0x1B5C JUMP JUMPDEST PUSH2 0x22C8 JUMP JUMPDEST PUSH2 0x1B5C JUMP JUMPDEST SWAP1 POP SWAP2 SWAP1 POP JUMP JUMPDEST PUSH0 PUSH2 0x22FC DUP3 PUSH2 0x22D1 JUMP JUMPDEST SWAP1 POP SWAP2 SWAP1 POP JUMP JUMPDEST PUSH0 PUSH2 0x230D DUP3 PUSH2 0x22F2 JUMP JUMPDEST SWAP1 POP SWAP2 SWAP1 POP JUMP JUMPDEST PUSH2 0x231D DUP2 PUSH2 0x2303 JUMP JUMPDEST DUP3 MSTORE POP POP JUMP JUMPDEST PUSH0 PUSH1 0xC0 DUP3 ADD SWAP1 POP PUSH2 0x2336 PUSH0 DUP4 ADD DUP10 PUSH2 0x20A0 JUMP JUMPDEST PUSH2 0x2343 PUSH1 0x20 DUP4 ADD DUP9 PUSH2 0x1B0B JUMP JUMPDEST PUSH2 0x2350 PUSH1 0x40 DUP4 ADD DUP8 PUSH2 0x2314 JUMP JUMPDEST PUSH2 0x235D PUSH1 0x60 DUP4 ADD DUP7 PUSH2 0x2314 JUMP JUMPDEST PUSH2 0x236A PUSH1 0x80 DUP4 ADD DUP6 PUSH2 0x1B0B JUMP JUMPDEST PUSH2 0x2377 PUSH1 0xA0 DUP4 ADD DUP5 PUSH2 0x1B0B JUMP JUMPDEST SWAP8 SWAP7 POP POP POP POP POP POP POP JUMP JUMPDEST PUSH0 PUSH1 0xA0 DUP3 ADD SWAP1 POP PUSH2 0x2395 PUSH0 DUP4 ADD DUP9 PUSH2 0x20A0 JUMP JUMPDEST PUSH2 0x23A2 PUSH1 0x20 DUP4 ADD DUP8 PUSH2 0x1B0B JUMP JUMPDEST PUSH2 0x23AF PUSH1 0x40 DUP4 ADD DUP7 PUSH2 0x20A0 JUMP JUMPDEST PUSH2 0x23BC PUSH1 0x60 DUP4 ADD DUP6 PUSH2 0x20A0 JUMP JUMPDEST PUSH2 0x23C9 PUSH1 0x80 DUP4 ADD DUP5 PUSH2 0x1B0B JUMP JUMPDEST SWAP7 SWAP6 POP POP POP POP POP POP JUMP JUMPDEST PUSH32 0x5072696365206D757374206265206174206C6561737420312077656900000000 PUSH0 DUP3 ADD MSTORE POP JUMP JUMPDEST PUSH0 PUSH2 0x2407 PUSH1 0x1C DUP4 PUSH2 0x1F9A JUMP JUMPDEST SWAP2 POP PUSH2 0x2412 DUP3 PUSH2 0x23D3 JUMP JUMPDEST PUSH1 0x20 DUP3 ADD SWAP1 POP SWAP2 SWAP1 POP JUMP JUMPDEST PUSH0 PUSH1 0x20 DUP3 ADD SWAP1 POP DUP2 DUP2 SUB PUSH0 DUP4 ADD MSTORE PUSH2 0x2434 DUP2 PUSH2 0x23FB JUMP JUMPDEST SWAP1 POP SWAP2 SWAP1 POP JUMP JUMPDEST PUSH32 0x4E6F7420656E6F75676820657468657220666F72206C697374696E6720666565 PUSH0 DUP3 ADD MSTORE POP JUMP JUMPDEST PUSH0 PUSH2 0x246F PUSH1 0x20 DUP4 PUSH2 0x1F9A JUMP JUMPDEST SWAP2 POP PUSH2 0x247A DUP3 PUSH2 0x243B JUMP JUMPDEST PUSH1 0x20 DUP3 ADD SWAP1 POP SWAP2 SWAP1 POP JUMP JUMPDEST PUSH0 PUSH1 0x20 DUP3 ADD SWAP1 POP DUP2 DUP2 SUB PUSH0 DUP4 ADD MSTORE PUSH2 0x249C DUP2 PUSH2 0x2463 JUMP JUMPDEST SWAP1 POP SWAP2 SWAP1 POP JUMP JUMPDEST PUSH32 0x496E73756666696369656E742066756E647320746F2070757263686173652069 PUSH0 DUP3 ADD MSTORE PUSH32 0x74656D2E00000000000000000000000000000000000000000000000000000000 PUSH1 0x20 DUP3 ADD MSTORE POP JUMP JUMPDEST PUSH0 PUSH2 0x24FD PUSH1 0x24 DUP4 PUSH2 0x1F9A JUMP JUMPDEST SWAP2 POP PUSH2 0x2508 DUP3 PUSH2 0x24A3 JUMP JUMPDEST PUSH1 0x40 DUP3 ADD SWAP1 POP SWAP2 SWAP1 POP JUMP JUMPDEST PUSH0 PUSH1 0x20 DUP3 ADD SWAP1 POP DUP2 DUP2 SUB PUSH0 DUP4 ADD MSTORE PUSH2 0x252A DUP2 PUSH2 0x24F1 JUMP JUMPDEST SWAP1 POP SWAP2 SWAP1 POP JUMP JUMPDEST PUSH0 PUSH1 0x60 DUP3 ADD SWAP1 POP PUSH2 0x2544 PUSH0 DUP4 ADD DUP7 PUSH2 0x20A0 JUMP JUMPDEST PUSH2 0x2551 PUSH1 0x20 DUP4 ADD DUP6 PUSH2 0x2314 JUMP JUMPDEST PUSH2 0x255E PUSH1 0x40 DUP4 ADD DUP5 PUSH2 0x1B0B JUMP JUMPDEST SWAP5 SWAP4 POP POP POP POP JUMP JUMPDEST PUSH0 PUSH1 0xA0 DUP3 ADD SWAP1 POP PUSH2 0x2579 PUSH0 DUP4 ADD DUP9 PUSH2 0x20A0 JUMP JUMPDEST PUSH2 0x2586 PUSH1 0x20 DUP4 ADD DUP8 PUSH2 0x1B0B JUMP JUMPDEST PUSH2 0x2593 PUSH1 0x40 DUP4 ADD DUP7 PUSH2 0x2314 JUMP JUMPDEST PUSH2 0x25A0 PUSH1 0x60 DUP4 ADD DUP6 PUSH2 0x2314 JUMP JUMPDEST PUSH2 0x25AD PUSH1 0x80 DUP4 ADD DUP5 PUSH2 0x1B0B JUMP JUMPDEST SWAP7 SWAP6 POP POP POP POP POP POP JUMP JUMPDEST PUSH0 PUSH2 0x25C1 DUP3 PUSH2 0x1B02 JUMP JUMPDEST SWAP2 POP PUSH2 0x25CC DUP4 PUSH2 0x1B02 JUMP JUMPDEST SWAP3 POP DUP3 DUP3 SUB SWAP1 POP DUP2 DUP2 GT ISZERO PUSH2 0x25E4 JUMPI PUSH2 0x25E3 PUSH2 0x1E99 JUMP JUMPDEST JUMPDEST SWAP3 SWAP2 POP POP JUMP INVALID LOG2 PUSH5 0x6970667358 0x22 SLT KECCAK256 SSTORE 0xF8 0x27 0xCC 0xAF 0x5C 0xBB 0xAC 0xC OR 0xBC JUMP CALL SWAP11 PUSH24 0x14167FD7EE1C13511A8981FA596C69EA6B64736F6C634300 ADDMOD AND STOP CALLER "
				},
				"gasEstimates": {
					"creation": {
						"codeDepositCost": "1952000",
						"executionCost": "53443",
						"totalCost": "2005443"
					},
					"external": {
						"LISTING_FEE()": "2426",
						"buyItem(address,uint256)": "infinite",
						"getListedItems()": "infinite",
						"getMyItems()": "infinite",
						"getMyListedItems()": "infinite",
						"listItem(address,uint256,uint256)": "infinite",
						"listItemForRent(address,uint256,uint256,uint256)": "infinite",
						"recallItem(uint256)": "infinite",
						"rentItem(address,uint256)": "infinite",
						"resellItem(address,uint256,uint256)": "infinite"
					}
				},
				"methodIdentifiers": {
					"LISTING_FEE()": "2b86ae38",
					"buyItem(address,uint256)": "9f37092a",
					"getListedItems()": "caf50690",
					"getMyItems()": "c5fb207d",
					"getMyListedItems()": "36a4009c",
					"listItem(address,uint256,uint256)": "89bfd38f",
					"listItemForRent(address,uint256,uint256,uint256)": "49b5d297",
					"recallItem(uint256)": "5e2107ff",
					"rentItem(address,uint256)": "8749e2a0",
					"resellItem(address,uint256,uint256)": "8f0af0f9"
				}
			},
			"storageLayout": {
				"storage": [
					{
						"astId": 1341,
						"contract": "contracts/NewMarketplace.sol:Marketplace",
						"label": "_status",
						"offset": 0,
						"slot": "0",
						"type": "t_uint256"
					},
					{
						"astId": 2857,
						"contract": "contracts/NewMarketplace.sol:Marketplace",
						"label": "_itemsSold",
						"offset": 0,
						"slot": "1",
						"type": "t_uint256"
					},
					{
						"astId": 2859,
						"contract": "contracts/NewMarketplace.sol:Marketplace",
						"label": "_itemCount",
						"offset": 0,
						"slot": "2",
						"type": "t_uint256"
					},
					{
						"astId": 2862,
						"contract": "contracts/NewMarketplace.sol:Marketplace",
						"label": "LISTING_FEE",
						"offset": 0,
						"slot": "3",
						"type": "t_uint256"
					},
					{
						"astId": 2864,
						"contract": "contracts/NewMarketplace.sol:Marketplace",
						"label": "_marketOwner",
						"offset": 0,
						"slot": "4",
						"type": "t_address_payable"
					},
					{
						"astId": 2869,
						"contract": "contracts/NewMarketplace.sol:Marketplace",
						"label": "_idToItem",
						"offset": 0,
						"slot": "5",
						"type": "t_mapping(t_uint256,t_struct(Item)2891_storage)"
					},
					{
						"astId": 2874,
						"contract": "contracts/NewMarketplace.sol:Marketplace",
						"label": "_idToRent",
						"offset": 0,
						"slot": "6",
						"type": "t_mapping(t_uint256,t_struct(Rentable)2904_storage)"
					}
				],
				"types": {
					"t_address": {
						"encoding": "inplace",
						"label": "address",
						"numberOfBytes": "20"
					},
					"t_address_payable": {
						"encoding": "inplace",
						"label": "address payable",
						"numberOfBytes": "20"
					},
					"t_bool": {
						"encoding": "inplace",
						"label": "bool",
						"numberOfBytes": "1"
					},
					"t_mapping(t_uint256,t_struct(Item)2891_storage)": {
						"encoding": "mapping",
						"key": "t_uint256",
						"label": "mapping(uint256 => struct Marketplace.Item)",
						"numberOfBytes": "32",
						"value": "t_struct(Item)2891_storage"
					},
					"t_mapping(t_uint256,t_struct(Rentable)2904_storage)": {
						"encoding": "mapping",
						"key": "t_uint256",
						"label": "mapping(uint256 => struct Marketplace.Rentable)",
						"numberOfBytes": "32",
						"value": "t_struct(Rentable)2904_storage"
					},
					"t_struct(Item)2891_storage": {
						"encoding": "inplace",
						"label": "struct Marketplace.Item",
						"members": [
							{
								"astId": 2876,
								"contract": "contracts/NewMarketplace.sol:Marketplace",
								"label": "itemContract",
								"offset": 0,
								"slot": "0",
								"type": "t_address"
							},
							{
								"astId": 2878,
								"contract": "contracts/NewMarketplace.sol:Marketplace",
								"label": "tokenId",
								"offset": 0,
								"slot": "1",
								"type": "t_uint256"
							},
							{
								"astId": 2880,
								"contract": "contracts/NewMarketplace.sol:Marketplace",
								"label": "seller",
								"offset": 0,
								"slot": "2",
								"type": "t_address_payable"
							},
							{
								"astId": 2882,
								"contract": "contracts/NewMarketplace.sol:Marketplace",
								"label": "owner",
								"offset": 0,
								"slot": "3",
								"type": "t_address_payable"
							},
							{
								"astId": 2884,
								"contract": "contracts/NewMarketplace.sol:Marketplace",
								"label": "price",
								"offset": 0,
								"slot": "4",
								"type": "t_uint256"
							},
							{
								"astId": 2886,
								"contract": "contracts/NewMarketplace.sol:Marketplace",
								"label": "listed",
								"offset": 0,
								"slot": "5",
								"type": "t_bool"
							},
							{
								"astId": 2888,
								"contract": "contracts/NewMarketplace.sol:Marketplace",
								"label": "rentable",
								"offset": 1,
								"slot": "5",
								"type": "t_bool"
							},
							{
								"astId": 2890,
								"contract": "contracts/NewMarketplace.sol:Marketplace",
								"label": "duration",
								"offset": 0,
								"slot": "6",
								"type": "t_uint256"
							}
						],
						"numberOfBytes": "224"
					},
					"t_struct(Rentable)2904_storage": {
						"encoding": "inplace",
						"label": "struct Marketplace.Rentable",
						"members": [
							{
								"astId": 2893,
								"contract": "contracts/NewMarketplace.sol:Marketplace",
								"label": "itemContract",
								"offset": 0,
								"slot": "0",
								"type": "t_address"
							},
							{
								"astId": 2895,
								"contract": "contracts/NewMarketplace.sol:Marketplace",
								"label": "tokenId",
								"offset": 0,
								"slot": "1",
								"type": "t_uint256"
							},
							{
								"astId": 2897,
								"contract": "contracts/NewMarketplace.sol:Marketplace",
								"label": "seller",
								"offset": 0,
								"slot": "2",
								"type": "t_address_payable"
							},
							{
								"astId": 2899,
								"contract": "contracts/NewMarketplace.sol:Marketplace",
								"label": "renter",
								"offset": 0,
								"slot": "3",
								"type": "t_address_payable"
							},
							{
								"astId": 2901,
								"contract": "contracts/NewMarketplace.sol:Marketplace",
								"label": "price",
								"offset": 0,
								"slot": "4",
								"type": "t_uint256"
							},
							{
								"astId": 2903,
								"contract": "contracts/NewMarketplace.sol:Marketplace",
								"label": "duration",
								"offset": 0,
								"slot": "5",
								"type": "t_uint256"
							}
						],
						"numberOfBytes": "192"
					},
					"t_uint256": {
						"encoding": "inplace",
						"label": "uint256",
						"numberOfBytes": "32"
					}
				}
			},
			"userdoc": {
				"kind": "user",
				"methods": {},
				"version": 1
			}
		}
	}
}