{
	"contracts/Marketplace_Simple.sol": {
		"BoredPetsNFT": {
			"abi": [
				{
					"inputs": [
						{
							"internalType": "address",
							"name": "_marketplaceContract",
							"type": "address"
						}
					],
					"stateMutability": "nonpayable",
					"type": "constructor"
				},
				{
					"inputs": [
						{
							"internalType": "address",
							"name": "sender",
							"type": "address"
						},
						{
							"internalType": "uint256",
							"name": "tokenId",
							"type": "uint256"
						},
						{
							"internalType": "address",
							"name": "owner",
							"type": "address"
						}
					],
					"name": "ERC721IncorrectOwner",
					"type": "error"
				},
				{
					"inputs": [
						{
							"internalType": "address",
							"name": "operator",
							"type": "address"
						},
						{
							"internalType": "uint256",
							"name": "tokenId",
							"type": "uint256"
						}
					],
					"name": "ERC721InsufficientApproval",
					"type": "error"
				},
				{
					"inputs": [
						{
							"internalType": "address",
							"name": "approver",
							"type": "address"
						}
					],
					"name": "ERC721InvalidApprover",
					"type": "error"
				},
				{
					"inputs": [
						{
							"internalType": "address",
							"name": "operator",
							"type": "address"
						}
					],
					"name": "ERC721InvalidOperator",
					"type": "error"
				},
				{
					"inputs": [
						{
							"internalType": "address",
							"name": "owner",
							"type": "address"
						}
					],
					"name": "ERC721InvalidOwner",
					"type": "error"
				},
				{
					"inputs": [
						{
							"internalType": "address",
							"name": "receiver",
							"type": "address"
						}
					],
					"name": "ERC721InvalidReceiver",
					"type": "error"
				},
				{
					"inputs": [
						{
							"internalType": "address",
							"name": "sender",
							"type": "address"
						}
					],
					"name": "ERC721InvalidSender",
					"type": "error"
				},
				{
					"inputs": [
						{
							"internalType": "uint256",
							"name": "tokenId",
							"type": "uint256"
						}
					],
					"name": "ERC721NonexistentToken",
					"type": "error"
				},
				{
					"anonymous": false,
					"inputs": [
						{
							"indexed": true,
							"internalType": "address",
							"name": "owner",
							"type": "address"
						},
						{
							"indexed": true,
							"internalType": "address",
							"name": "approved",
							"type": "address"
						},
						{
							"indexed": true,
							"internalType": "uint256",
							"name": "tokenId",
							"type": "uint256"
						}
					],
					"name": "Approval",
					"type": "event"
				},
				{
					"anonymous": false,
					"inputs": [
						{
							"indexed": true,
							"internalType": "address",
							"name": "owner",
							"type": "address"
						},
						{
							"indexed": true,
							"internalType": "address",
							"name": "operator",
							"type": "address"
						},
						{
							"indexed": false,
							"internalType": "bool",
							"name": "approved",
							"type": "bool"
						}
					],
					"name": "ApprovalForAll",
					"type": "event"
				},
				{
					"anonymous": false,
					"inputs": [
						{
							"indexed": false,
							"internalType": "uint256",
							"name": "_fromTokenId",
							"type": "uint256"
						},
						{
							"indexed": false,
							"internalType": "uint256",
							"name": "_toTokenId",
							"type": "uint256"
						}
					],
					"name": "BatchMetadataUpdate",
					"type": "event"
				},
				{
					"anonymous": false,
					"inputs": [
						{
							"indexed": false,
							"internalType": "uint256",
							"name": "_tokenId",
							"type": "uint256"
						}
					],
					"name": "MetadataUpdate",
					"type": "event"
				},
				{
					"anonymous": false,
					"inputs": [
						{
							"indexed": false,
							"internalType": "uint256",
							"name": "",
							"type": "uint256"
						}
					],
					"name": "NFTMinted",
					"type": "event"
				},
				{
					"anonymous": false,
					"inputs": [
						{
							"indexed": true,
							"internalType": "address",
							"name": "from",
							"type": "address"
						},
						{
							"indexed": true,
							"internalType": "address",
							"name": "to",
							"type": "address"
						},
						{
							"indexed": true,
							"internalType": "uint256",
							"name": "tokenId",
							"type": "uint256"
						}
					],
					"name": "Transfer",
					"type": "event"
				},
				{
					"inputs": [
						{
							"internalType": "address",
							"name": "to",
							"type": "address"
						},
						{
							"internalType": "uint256",
							"name": "tokenId",
							"type": "uint256"
						}
					],
					"name": "approve",
					"outputs": [],
					"stateMutability": "nonpayable",
					"type": "function"
				},
				{
					"inputs": [
						{
							"internalType": "address",
							"name": "owner",
							"type": "address"
						}
					],
					"name": "balanceOf",
					"outputs": [
						{
							"internalType": "uint256",
							"name": "",
							"type": "uint256"
						}
					],
					"stateMutability": "view",
					"type": "function"
				},
				{
					"inputs": [
						{
							"internalType": "uint256",
							"name": "tokenId",
							"type": "uint256"
						}
					],
					"name": "getApproved",
					"outputs": [
						{
							"internalType": "address",
							"name": "",
							"type": "address"
						}
					],
					"stateMutability": "view",
					"type": "function"
				},
				{
					"inputs": [
						{
							"internalType": "address",
							"name": "owner",
							"type": "address"
						},
						{
							"internalType": "address",
							"name": "operator",
							"type": "address"
						}
					],
					"name": "isApprovedForAll",
					"outputs": [
						{
							"internalType": "bool",
							"name": "",
							"type": "bool"
						}
					],
					"stateMutability": "view",
					"type": "function"
				},
				{
					"inputs": [
						{
							"internalType": "string",
							"name": "_tokenURI",
							"type": "string"
						}
					],
					"name": "mint",
					"outputs": [],
					"stateMutability": "nonpayable",
					"type": "function"
				},
				{
					"inputs": [],
					"name": "name",
					"outputs": [
						{
							"internalType": "string",
							"name": "",
							"type": "string"
						}
					],
					"stateMutability": "view",
					"type": "function"
				},
				{
					"inputs": [
						{
							"internalType": "uint256",
							"name": "tokenId",
							"type": "uint256"
						}
					],
					"name": "ownerOf",
					"outputs": [
						{
							"internalType": "address",
							"name": "",
							"type": "address"
						}
					],
					"stateMutability": "view",
					"type": "function"
				},
				{
					"inputs": [
						{
							"internalType": "address",
							"name": "from",
							"type": "address"
						},
						{
							"internalType": "address",
							"name": "to",
							"type": "address"
						},
						{
							"internalType": "uint256",
							"name": "tokenId",
							"type": "uint256"
						}
					],
					"name": "safeTransferFrom",
					"outputs": [],
					"stateMutability": "nonpayable",
					"type": "function"
				},
				{
					"inputs": [
						{
							"internalType": "address",
							"name": "from",
							"type": "address"
						},
						{
							"internalType": "address",
							"name": "to",
							"type": "address"
						},
						{
							"internalType": "uint256",
							"name": "tokenId",
							"type": "uint256"
						},
						{
							"internalType": "bytes",
							"name": "data",
							"type": "bytes"
						}
					],
					"name": "safeTransferFrom",
					"outputs": [],
					"stateMutability": "nonpayable",
					"type": "function"
				},
				{
					"inputs": [
						{
							"internalType": "address",
							"name": "operator",
							"type": "address"
						},
						{
							"internalType": "bool",
							"name": "approved",
							"type": "bool"
						}
					],
					"name": "setApprovalForAll",
					"outputs": [],
					"stateMutability": "nonpayable",
					"type": "function"
				},
				{
					"inputs": [
						{
							"internalType": "bytes4",
							"name": "interfaceId",
							"type": "bytes4"
						}
					],
					"name": "supportsInterface",
					"outputs": [
						{
							"internalType": "bool",
							"name": "",
							"type": "bool"
						}
					],
					"stateMutability": "view",
					"type": "function"
				},
				{
					"inputs": [],
					"name": "symbol",
					"outputs": [
						{
							"internalType": "string",
							"name": "",
							"type": "string"
						}
					],
					"stateMutability": "view",
					"type": "function"
				},
				{
					"inputs": [
						{
							"internalType": "uint256",
							"name": "tokenId",
							"type": "uint256"
						}
					],
					"name": "tokenURI",
					"outputs": [
						{
							"internalType": "string",
							"name": "",
							"type": "string"
						}
					],
					"stateMutability": "view",
					"type": "function"
				},
				{
					"inputs": [
						{
							"internalType": "address",
							"name": "from",
							"type": "address"
						},
						{
							"internalType": "address",
							"name": "to",
							"type": "address"
						},
						{
							"internalType": "uint256",
							"name": "tokenId",
							"type": "uint256"
						}
					],
					"name": "transferFrom",
					"outputs": [],
					"stateMutability": "nonpayable",
					"type": "function"
				}
			],
			"devdoc": {
				"errors": {
					"ERC721IncorrectOwner(address,uint256,address)": [
						{
							"details": "Indicates an error related to the ownership over a particular token. Used in transfers.",
							"params": {
								"owner": "Address of the current owner of a token.",
								"sender": "Address whose tokens are being transferred.",
								"tokenId": "Identifier number of a token."
							}
						}
					],
					"ERC721InsufficientApproval(address,uint256)": [
						{
							"details": "Indicates a failure with the `operator`’s approval. Used in transfers.",
							"params": {
								"operator": "Address that may be allowed to operate on tokens without being their owner.",
								"tokenId": "Identifier number of a token."
							}
						}
					],
					"ERC721InvalidApprover(address)": [
						{
							"details": "Indicates a failure with the `approver` of a token to be approved. Used in approvals.",
							"params": {
								"approver": "Address initiating an approval operation."
							}
						}
					],
					"ERC721InvalidOperator(address)": [
						{
							"details": "Indicates a failure with the `operator` to be approved. Used in approvals.",
							"params": {
								"operator": "Address that may be allowed to operate on tokens without being their owner."
							}
						}
					],
					"ERC721InvalidOwner(address)": [
						{
							"details": "Indicates that an address can't be an owner. For example, `address(0)` is a forbidden owner in EIP-20. Used in balance queries.",
							"params": {
								"owner": "Address of the current owner of a token."
							}
						}
					],
					"ERC721InvalidReceiver(address)": [
						{
							"details": "Indicates a failure with the token `receiver`. Used in transfers.",
							"params": {
								"receiver": "Address to which tokens are being transferred."
							}
						}
					],
					"ERC721InvalidSender(address)": [
						{
							"details": "Indicates a failure with the token `sender`. Used in transfers.",
							"params": {
								"sender": "Address whose tokens are being transferred."
							}
						}
					],
					"ERC721NonexistentToken(uint256)": [
						{
							"details": "Indicates a `tokenId` whose `owner` is the zero address.",
							"params": {
								"tokenId": "Identifier number of a token."
							}
						}
					]
				},
				"events": {
					"Approval(address,address,uint256)": {
						"details": "Emitted when `owner` enables `approved` to manage the `tokenId` token."
					},
					"ApprovalForAll(address,address,bool)": {
						"details": "Emitted when `owner` enables or disables (`approved`) `operator` to manage all of its assets."
					},
					"BatchMetadataUpdate(uint256,uint256)": {
						"details": "This event emits when the metadata of a range of tokens is changed. So that the third-party platforms such as NFT market could timely update the images and related attributes of the NFTs."
					},
					"MetadataUpdate(uint256)": {
						"details": "This event emits when the metadata of a token is changed. So that the third-party platforms such as NFT market could timely update the images and related attributes of the NFT."
					},
					"Transfer(address,address,uint256)": {
						"details": "Emitted when `tokenId` token is transferred from `from` to `to`."
					}
				},
				"kind": "dev",
				"methods": {
					"approve(address,uint256)": {
						"details": "See {IERC721-approve}."
					},
					"balanceOf(address)": {
						"details": "See {IERC721-balanceOf}."
					},
					"getApproved(uint256)": {
						"details": "See {IERC721-getApproved}."
					},
					"isApprovedForAll(address,address)": {
						"details": "See {IERC721-isApprovedForAll}."
					},
					"name()": {
						"details": "See {IERC721Metadata-name}."
					},
					"ownerOf(uint256)": {
						"details": "See {IERC721-ownerOf}."
					},
					"safeTransferFrom(address,address,uint256)": {
						"details": "See {IERC721-safeTransferFrom}."
					},
					"safeTransferFrom(address,address,uint256,bytes)": {
						"details": "See {IERC721-safeTransferFrom}."
					},
					"setApprovalForAll(address,bool)": {
						"details": "See {IERC721-setApprovalForAll}."
					},
					"supportsInterface(bytes4)": {
						"details": "See {IERC165-supportsInterface}"
					},
					"symbol()": {
						"details": "See {IERC721Metadata-symbol}."
					},
					"tokenURI(uint256)": {
						"details": "See {IERC721Metadata-tokenURI}."
					},
					"transferFrom(address,address,uint256)": {
						"details": "See {IERC721-transferFrom}."
					}
				},
				"version": 1
			},
			"evm": {
				"assembly": "    /* \"contracts/Marketplace_Simple.sol\":202:761  contract BoredPetsNFT is ERC721URIStorage {... */\n  mstore(0x40, 0x80)\n    /* \"contracts/Marketplace_Simple.sol\":342:479  constructor(address _marketplaceContract) ERC721(\"Bored Pets Yacht Club\", \"BPYC\") {... */\n  callvalue\n  dup1\n  iszero\n  tag_1\n  jumpi\n  0x00\n  dup1\n  revert\ntag_1:\n  pop\n  mload(0x40)\n  sub(codesize, bytecodeSize)\n  dup1\n  bytecodeSize\n  dup4\n  codecopy\n  dup2\n  dup2\n  add\n  0x40\n  mstore\n  dup2\n  add\n  swap1\n  tag_2\n  swap2\n  swap1\n  tag_3\n  jump\t// in\ntag_2:\n    /* \"@openzeppelin/contracts/token/ERC721/ERC721.sol\":1419:1535  constructor(string memory name_, string memory symbol_) {... */\n  mload(0x40)\n  dup1\n  0x40\n  add\n  0x40\n  mstore\n  dup1\n  0x15\n  dup2\n  mstore\n  0x20\n  add\n  0x426f726564205065747320596163687420436c75620000000000000000000000\n  dup2\n  mstore\n  pop\n  mload(0x40)\n  dup1\n  0x40\n  add\n  0x40\n  mstore\n  dup1\n  0x04\n  dup2\n  mstore\n  0x20\n  add\n  0x4250594300000000000000000000000000000000000000000000000000000000\n  dup2\n  mstore\n  pop\n    /* \"@openzeppelin/contracts/token/ERC721/ERC721.sol\":1494:1499  name_ */\n  dup2\n    /* \"@openzeppelin/contracts/token/ERC721/ERC721.sol\":1486:1491  _name */\n  0x00\n    /* \"@openzeppelin/contracts/token/ERC721/ERC721.sol\":1486:1499  _name = name_ */\n  swap1\n  dup2\n  tag_7\n  swap2\n  swap1\n  tag_8\n  jump\t// in\ntag_7:\n  pop\n    /* \"@openzeppelin/contracts/token/ERC721/ERC721.sol\":1520:1527  symbol_ */\n  dup1\n    /* \"@openzeppelin/contracts/token/ERC721/ERC721.sol\":1510:1517  _symbol */\n  0x01\n    /* \"@openzeppelin/contracts/token/ERC721/ERC721.sol\":1510:1527  _symbol = symbol_ */\n  swap1\n  dup2\n  tag_9\n  swap2\n  swap1\n  tag_8\n  jump\t// in\ntag_9:\n  pop\n    /* \"@openzeppelin/contracts/token/ERC721/ERC721.sol\":1419:1535  constructor(string memory name_, string memory symbol_) {... */\n  pop\n  pop\n    /* \"contracts/Marketplace_Simple.sol\":453:473  _marketplaceContract */\n  dup1\n    /* \"contracts/Marketplace_Simple.sol\":431:450  marketplaceContract */\n  0x08\n  0x00\n    /* \"contracts/Marketplace_Simple.sol\":431:473  marketplaceContract = _marketplaceContract */\n  0x0100\n  exp\n  dup2\n  sload\n  dup2\n  0xffffffffffffffffffffffffffffffffffffffff\n  mul\n  not\n  and\n  swap1\n  dup4\n  0xffffffffffffffffffffffffffffffffffffffff\n  and\n  mul\n  or\n  swap1\n  sstore\n  pop\n    /* \"contracts/Marketplace_Simple.sol\":342:479  constructor(address _marketplaceContract) ERC721(\"Bored Pets Yacht Club\", \"BPYC\") {... */\n  pop\n    /* \"contracts/Marketplace_Simple.sol\":202:761  contract BoredPetsNFT is ERC721URIStorage {... */\n  jump(tag_11)\n    /* \"#utility.yul\":88:205   */\ntag_13:\n    /* \"#utility.yul\":197:198   */\n  0x00\n    /* \"#utility.yul\":194:195   */\n  dup1\n    /* \"#utility.yul\":187:199   */\n  revert\n    /* \"#utility.yul\":334:460   */\ntag_15:\n    /* \"#utility.yul\":371:378   */\n  0x00\n    /* \"#utility.yul\":411:453   */\n  0xffffffffffffffffffffffffffffffffffffffff\n    /* \"#utility.yul\":404:409   */\n  dup3\n    /* \"#utility.yul\":400:454   */\n  and\n    /* \"#utility.yul\":389:454   */\n  swap1\n  pop\n    /* \"#utility.yul\":334:460   */\n  swap2\n  swap1\n  pop\n  jump\t// out\n    /* \"#utility.yul\":466:562   */\ntag_16:\n    /* \"#utility.yul\":503:510   */\n  0x00\n    /* \"#utility.yul\":532:556   */\n  tag_45\n    /* \"#utility.yul\":550:555   */\n  dup3\n    /* \"#utility.yul\":532:556   */\n  tag_15\n  jump\t// in\ntag_45:\n    /* \"#utility.yul\":521:556   */\n  swap1\n  pop\n    /* \"#utility.yul\":466:562   */\n  swap2\n  swap1\n  pop\n  jump\t// out\n    /* \"#utility.yul\":568:690   */\ntag_17:\n    /* \"#utility.yul\":641:665   */\n  tag_47\n    /* \"#utility.yul\":659:664   */\n  dup2\n    /* \"#utility.yul\":641:665   */\n  tag_16\n  jump\t// in\ntag_47:\n    /* \"#utility.yul\":634:639   */\n  dup2\n    /* \"#utility.yul\":631:666   */\n  eq\n    /* \"#utility.yul\":621:684   */\n  tag_48\n  jumpi\n    /* \"#utility.yul\":680:681   */\n  0x00\n    /* \"#utility.yul\":677:678   */\n  dup1\n    /* \"#utility.yul\":670:682   */\n  revert\n    /* \"#utility.yul\":621:684   */\ntag_48:\n    /* \"#utility.yul\":568:690   */\n  pop\n  jump\t// out\n    /* \"#utility.yul\":696:839   */\ntag_18:\n    /* \"#utility.yul\":753:758   */\n  0x00\n    /* \"#utility.yul\":784:790   */\n  dup2\n    /* \"#utility.yul\":778:791   */\n  mload\n    /* \"#utility.yul\":769:791   */\n  swap1\n  pop\n    /* \"#utility.yul\":800:833   */\n  tag_50\n    /* \"#utility.yul\":827:832   */\n  dup2\n    /* \"#utility.yul\":800:833   */\n  tag_17\n  jump\t// in\ntag_50:\n    /* \"#utility.yul\":696:839   */\n  swap3\n  swap2\n  pop\n  pop\n  jump\t// out\n    /* \"#utility.yul\":845:1196   */\ntag_3:\n    /* \"#utility.yul\":915:921   */\n  0x00\n    /* \"#utility.yul\":964:966   */\n  0x20\n    /* \"#utility.yul\":952:961   */\n  dup3\n    /* \"#utility.yul\":943:950   */\n  dup5\n    /* \"#utility.yul\":939:962   */\n  sub\n    /* \"#utility.yul\":935:967   */\n  slt\n    /* \"#utility.yul\":932:1051   */\n  iszero\n  tag_52\n  jumpi\n    /* \"#utility.yul\":970:1049   */\n  tag_53\n  tag_13\n  jump\t// in\ntag_53:\n    /* \"#utility.yul\":932:1051   */\ntag_52:\n    /* \"#utility.yul\":1090:1091   */\n  0x00\n    /* \"#utility.yul\":1115:1179   */\n  tag_54\n    /* \"#utility.yul\":1171:1178   */\n  dup5\n    /* \"#utility.yul\":1162:1168   */\n  dup3\n    /* \"#utility.yul\":1151:1160   */\n  dup6\n    /* \"#utility.yul\":1147:1169   */\n  add\n    /* \"#utility.yul\":1115:1179   */\n  tag_18\n  jump\t// in\ntag_54:\n    /* \"#utility.yul\":1105:1179   */\n  swap2\n  pop\n    /* \"#utility.yul\":1061:1189   */\n  pop\n    /* \"#utility.yul\":845:1196   */\n  swap3\n  swap2\n  pop\n  pop\n  jump\t// out\n    /* \"#utility.yul\":1202:1301   */\ntag_19:\n    /* \"#utility.yul\":1254:1260   */\n  0x00\n    /* \"#utility.yul\":1288:1293   */\n  dup2\n    /* \"#utility.yul\":1282:1294   */\n  mload\n    /* \"#utility.yul\":1272:1294   */\n  swap1\n  pop\n    /* \"#utility.yul\":1202:1301   */\n  swap2\n  swap1\n  pop\n  jump\t// out\n    /* \"#utility.yul\":1307:1487   */\ntag_20:\n    /* \"#utility.yul\":1355:1432   */\n  0x4e487b7100000000000000000000000000000000000000000000000000000000\n    /* \"#utility.yul\":1352:1353   */\n  0x00\n    /* \"#utility.yul\":1345:1433   */\n  mstore\n    /* \"#utility.yul\":1452:1456   */\n  0x41\n    /* \"#utility.yul\":1449:1450   */\n  0x04\n    /* \"#utility.yul\":1442:1457   */\n  mstore\n    /* \"#utility.yul\":1476:1480   */\n  0x24\n    /* \"#utility.yul\":1473:1474   */\n  0x00\n    /* \"#utility.yul\":1466:1481   */\n  revert\n    /* \"#utility.yul\":1493:1673   */\ntag_21:\n    /* \"#utility.yul\":1541:1618   */\n  0x4e487b7100000000000000000000000000000000000000000000000000000000\n    /* \"#utility.yul\":1538:1539   */\n  0x00\n    /* \"#utility.yul\":1531:1619   */\n  mstore\n    /* \"#utility.yul\":1638:1642   */\n  0x22\n    /* \"#utility.yul\":1635:1636   */\n  0x04\n    /* \"#utility.yul\":1628:1643   */\n  mstore\n    /* \"#utility.yul\":1662:1666   */\n  0x24\n    /* \"#utility.yul\":1659:1660   */\n  0x00\n    /* \"#utility.yul\":1652:1667   */\n  revert\n    /* \"#utility.yul\":1679:1999   */\ntag_22:\n    /* \"#utility.yul\":1723:1729   */\n  0x00\n    /* \"#utility.yul\":1760:1761   */\n  0x02\n    /* \"#utility.yul\":1754:1758   */\n  dup3\n    /* \"#utility.yul\":1750:1762   */\n  div\n    /* \"#utility.yul\":1740:1762   */\n  swap1\n  pop\n    /* \"#utility.yul\":1807:1808   */\n  0x01\n    /* \"#utility.yul\":1801:1805   */\n  dup3\n    /* \"#utility.yul\":1797:1809   */\n  and\n    /* \"#utility.yul\":1828:1846   */\n  dup1\n    /* \"#utility.yul\":1818:1899   */\n  tag_59\n  jumpi\n    /* \"#utility.yul\":1884:1888   */\n  0x7f\n    /* \"#utility.yul\":1876:1882   */\n  dup3\n    /* \"#utility.yul\":1872:1889   */\n  and\n    /* \"#utility.yul\":1862:1889   */\n  swap2\n  pop\n    /* \"#utility.yul\":1818:1899   */\ntag_59:\n    /* \"#utility.yul\":1946:1948   */\n  0x20\n    /* \"#utility.yul\":1938:1944   */\n  dup3\n    /* \"#utility.yul\":1935:1949   */\n  lt\n    /* \"#utility.yul\":1915:1933   */\n  dup2\n    /* \"#utility.yul\":1912:1950   */\n  sub\n    /* \"#utility.yul\":1909:1993   */\n  tag_60\n  jumpi\n    /* \"#utility.yul\":1965:1983   */\n  tag_61\n  tag_21\n  jump\t// in\ntag_61:\n    /* \"#utility.yul\":1909:1993   */\ntag_60:\n    /* \"#utility.yul\":1730:1999   */\n  pop\n    /* \"#utility.yul\":1679:1999   */\n  swap2\n  swap1\n  pop\n  jump\t// out\n    /* \"#utility.yul\":2005:2146   */\ntag_23:\n    /* \"#utility.yul\":2054:2058   */\n  0x00\n    /* \"#utility.yul\":2077:2080   */\n  dup2\n    /* \"#utility.yul\":2069:2080   */\n  swap1\n  pop\n    /* \"#utility.yul\":2100:2103   */\n  dup2\n    /* \"#utility.yul\":2097:2098   */\n  0x00\n    /* \"#utility.yul\":2090:2104   */\n  mstore\n    /* \"#utility.yul\":2134:2138   */\n  0x20\n    /* \"#utility.yul\":2131:2132   */\n  0x00\n    /* \"#utility.yul\":2121:2139   */\n  keccak256\n    /* \"#utility.yul\":2113:2139   */\n  swap1\n  pop\n    /* \"#utility.yul\":2005:2146   */\n  swap2\n  swap1\n  pop\n  jump\t// out\n    /* \"#utility.yul\":2152:2245   */\ntag_24:\n    /* \"#utility.yul\":2189:2195   */\n  0x00\n    /* \"#utility.yul\":2236:2238   */\n  0x20\n    /* \"#utility.yul\":2231:2233   */\n  0x1f\n    /* \"#utility.yul\":2224:2229   */\n  dup4\n    /* \"#utility.yul\":2220:2234   */\n  add\n    /* \"#utility.yul\":2216:2239   */\n  div\n    /* \"#utility.yul\":2206:2239   */\n  swap1\n  pop\n    /* \"#utility.yul\":2152:2245   */\n  swap2\n  swap1\n  pop\n  jump\t// out\n    /* \"#utility.yul\":2251:2358   */\ntag_25:\n    /* \"#utility.yul\":2295:2303   */\n  0x00\n    /* \"#utility.yul\":2345:2350   */\n  dup3\n    /* \"#utility.yul\":2339:2343   */\n  dup3\n    /* \"#utility.yul\":2335:2351   */\n  shl\n    /* \"#utility.yul\":2314:2351   */\n  swap1\n  pop\n    /* \"#utility.yul\":2251:2358   */\n  swap3\n  swap2\n  pop\n  pop\n  jump\t// out\n    /* \"#utility.yul\":2364:2757   */\ntag_26:\n    /* \"#utility.yul\":2433:2439   */\n  0x00\n    /* \"#utility.yul\":2483:2484   */\n  0x08\n    /* \"#utility.yul\":2471:2481   */\n  dup4\n    /* \"#utility.yul\":2467:2485   */\n  mul\n    /* \"#utility.yul\":2506:2603   */\n  tag_66\n    /* \"#utility.yul\":2536:2602   */\n  0xffffffffffffffffffffffffffffffffffffffffffffffffffffffffffffffff\n    /* \"#utility.yul\":2525:2534   */\n  dup3\n    /* \"#utility.yul\":2506:2603   */\n  tag_25\n  jump\t// in\ntag_66:\n    /* \"#utility.yul\":2624:2663   */\n  tag_67\n    /* \"#utility.yul\":2654:2662   */\n  dup7\n    /* \"#utility.yul\":2643:2652   */\n  dup4\n    /* \"#utility.yul\":2624:2663   */\n  tag_25\n  jump\t// in\ntag_67:\n    /* \"#utility.yul\":2612:2663   */\n  swap6\n  pop\n    /* \"#utility.yul\":2696:2700   */\n  dup1\n    /* \"#utility.yul\":2692:2701   */\n  not\n    /* \"#utility.yul\":2685:2690   */\n  dup5\n    /* \"#utility.yul\":2681:2702   */\n  and\n    /* \"#utility.yul\":2672:2702   */\n  swap4\n  pop\n    /* \"#utility.yul\":2745:2749   */\n  dup1\n    /* \"#utility.yul\":2735:2743   */\n  dup7\n    /* \"#utility.yul\":2731:2750   */\n  and\n    /* \"#utility.yul\":2724:2729   */\n  dup5\n    /* \"#utility.yul\":2721:2751   */\n  or\n    /* \"#utility.yul\":2711:2751   */\n  swap3\n  pop\n    /* \"#utility.yul\":2440:2757   */\n  pop\n  pop\n    /* \"#utility.yul\":2364:2757   */\n  swap4\n  swap3\n  pop\n  pop\n  pop\n  jump\t// out\n    /* \"#utility.yul\":2763:2840   */\ntag_27:\n    /* \"#utility.yul\":2800:2807   */\n  0x00\n    /* \"#utility.yul\":2829:2834   */\n  dup2\n    /* \"#utility.yul\":2818:2834   */\n  swap1\n  pop\n    /* \"#utility.yul\":2763:2840   */\n  swap2\n  swap1\n  pop\n  jump\t// out\n    /* \"#utility.yul\":2846:2906   */\ntag_28:\n    /* \"#utility.yul\":2874:2877   */\n  0x00\n    /* \"#utility.yul\":2895:2900   */\n  dup2\n    /* \"#utility.yul\":2888:2900   */\n  swap1\n  pop\n    /* \"#utility.yul\":2846:2906   */\n  swap2\n  swap1\n  pop\n  jump\t// out\n    /* \"#utility.yul\":2912:3054   */\ntag_29:\n    /* \"#utility.yul\":2962:2971   */\n  0x00\n    /* \"#utility.yul\":2995:3048   */\n  tag_71\n    /* \"#utility.yul\":3013:3047   */\n  tag_72\n    /* \"#utility.yul\":3022:3046   */\n  tag_73\n    /* \"#utility.yul\":3040:3045   */\n  dup5\n    /* \"#utility.yul\":3022:3046   */\n  tag_27\n  jump\t// in\ntag_73:\n    /* \"#utility.yul\":3013:3047   */\n  tag_28\n  jump\t// in\ntag_72:\n    /* \"#utility.yul\":2995:3048   */\n  tag_27\n  jump\t// in\ntag_71:\n    /* \"#utility.yul\":2982:3048   */\n  swap1\n  pop\n    /* \"#utility.yul\":2912:3054   */\n  swap2\n  swap1\n  pop\n  jump\t// out\n    /* \"#utility.yul\":3060:3135   */\ntag_30:\n    /* \"#utility.yul\":3103:3106   */\n  0x00\n    /* \"#utility.yul\":3124:3129   */\n  dup2\n    /* \"#utility.yul\":3117:3129   */\n  swap1\n  pop\n    /* \"#utility.yul\":3060:3135   */\n  swap2\n  swap1\n  pop\n  jump\t// out\n    /* \"#utility.yul\":3141:3410   */\ntag_31:\n    /* \"#utility.yul\":3251:3290   */\n  tag_76\n    /* \"#utility.yul\":3282:3289   */\n  dup4\n    /* \"#utility.yul\":3251:3290   */\n  tag_29\n  jump\t// in\ntag_76:\n    /* \"#utility.yul\":3312:3403   */\n  tag_77\n    /* \"#utility.yul\":3361:3402   */\n  tag_78\n    /* \"#utility.yul\":3385:3401   */\n  dup3\n    /* \"#utility.yul\":3361:3402   */\n  tag_30\n  jump\t// in\ntag_78:\n    /* \"#utility.yul\":3353:3359   */\n  dup5\n    /* \"#utility.yul\":3346:3350   */\n  dup5\n    /* \"#utility.yul\":3340:3351   */\n  sload\n    /* \"#utility.yul\":3312:3403   */\n  tag_26\n  jump\t// in\ntag_77:\n    /* \"#utility.yul\":3306:3310   */\n  dup3\n    /* \"#utility.yul\":3299:3404   */\n  sstore\n    /* \"#utility.yul\":3217:3410   */\n  pop\n    /* \"#utility.yul\":3141:3410   */\n  pop\n  pop\n  pop\n  jump\t// out\n    /* \"#utility.yul\":3416:3489   */\ntag_32:\n    /* \"#utility.yul\":3461:3464   */\n  0x00\n    /* \"#utility.yul\":3416:3489   */\n  swap1\n  jump\t// out\n    /* \"#utility.yul\":3495:3684   */\ntag_33:\n    /* \"#utility.yul\":3572:3604   */\n  tag_81\n  tag_32\n  jump\t// in\ntag_81:\n    /* \"#utility.yul\":3613:3678   */\n  tag_82\n    /* \"#utility.yul\":3671:3677   */\n  dup2\n    /* \"#utility.yul\":3663:3669   */\n  dup5\n    /* \"#utility.yul\":3657:3661   */\n  dup5\n    /* \"#utility.yul\":3613:3678   */\n  tag_31\n  jump\t// in\ntag_82:\n    /* \"#utility.yul\":3548:3684   */\n  pop\n    /* \"#utility.yul\":3495:3684   */\n  pop\n  pop\n  jump\t// out\n    /* \"#utility.yul\":3690:3876   */\ntag_34:\n    /* \"#utility.yul\":3750:3870   */\ntag_84:\n    /* \"#utility.yul\":3767:3770   */\n  dup2\n    /* \"#utility.yul\":3760:3765   */\n  dup2\n    /* \"#utility.yul\":3757:3771   */\n  lt\n    /* \"#utility.yul\":3750:3870   */\n  iszero\n  tag_86\n  jumpi\n    /* \"#utility.yul\":3821:3860   */\n  tag_87\n    /* \"#utility.yul\":3858:3859   */\n  0x00\n    /* \"#utility.yul\":3851:3856   */\n  dup3\n    /* \"#utility.yul\":3821:3860   */\n  tag_33\n  jump\t// in\ntag_87:\n    /* \"#utility.yul\":3794:3795   */\n  0x01\n    /* \"#utility.yul\":3787:3792   */\n  dup2\n    /* \"#utility.yul\":3783:3796   */\n  add\n    /* \"#utility.yul\":3774:3796   */\n  swap1\n  pop\n    /* \"#utility.yul\":3750:3870   */\n  jump(tag_84)\ntag_86:\n    /* \"#utility.yul\":3690:3876   */\n  pop\n  pop\n  jump\t// out\n    /* \"#utility.yul\":3882:4425   */\ntag_35:\n    /* \"#utility.yul\":3983:3985   */\n  0x1f\n    /* \"#utility.yul\":3978:3981   */\n  dup3\n    /* \"#utility.yul\":3975:3986   */\n  gt\n    /* \"#utility.yul\":3972:4418   */\n  iszero\n  tag_89\n  jumpi\n    /* \"#utility.yul\":4017:4055   */\n  tag_90\n    /* \"#utility.yul\":4049:4054   */\n  dup2\n    /* \"#utility.yul\":4017:4055   */\n  tag_23\n  jump\t// in\ntag_90:\n    /* \"#utility.yul\":4101:4130   */\n  tag_91\n    /* \"#utility.yul\":4119:4129   */\n  dup5\n    /* \"#utility.yul\":4101:4130   */\n  tag_24\n  jump\t// in\ntag_91:\n    /* \"#utility.yul\":4091:4099   */\n  dup2\n    /* \"#utility.yul\":4087:4131   */\n  add\n    /* \"#utility.yul\":4284:4286   */\n  0x20\n    /* \"#utility.yul\":4272:4282   */\n  dup6\n    /* \"#utility.yul\":4269:4287   */\n  lt\n    /* \"#utility.yul\":4266:4315   */\n  iszero\n  tag_92\n  jumpi\n    /* \"#utility.yul\":4305:4313   */\n  dup2\n    /* \"#utility.yul\":4290:4313   */\n  swap1\n  pop\n    /* \"#utility.yul\":4266:4315   */\ntag_92:\n    /* \"#utility.yul\":4328:4408   */\n  tag_93\n    /* \"#utility.yul\":4384:4406   */\n  tag_94\n    /* \"#utility.yul\":4402:4405   */\n  dup6\n    /* \"#utility.yul\":4384:4406   */\n  tag_24\n  jump\t// in\ntag_94:\n    /* \"#utility.yul\":4374:4382   */\n  dup4\n    /* \"#utility.yul\":4370:4407   */\n  add\n    /* \"#utility.yul\":4357:4368   */\n  dup3\n    /* \"#utility.yul\":4328:4408   */\n  tag_34\n  jump\t// in\ntag_93:\n    /* \"#utility.yul\":3987:4418   */\n  pop\n  pop\n    /* \"#utility.yul\":3972:4418   */\ntag_89:\n    /* \"#utility.yul\":3882:4425   */\n  pop\n  pop\n  pop\n  jump\t// out\n    /* \"#utility.yul\":4431:4548   */\ntag_36:\n    /* \"#utility.yul\":4485:4493   */\n  0x00\n    /* \"#utility.yul\":4535:4540   */\n  dup3\n    /* \"#utility.yul\":4529:4533   */\n  dup3\n    /* \"#utility.yul\":4525:4541   */\n  shr\n    /* \"#utility.yul\":4504:4541   */\n  swap1\n  pop\n    /* \"#utility.yul\":4431:4548   */\n  swap3\n  swap2\n  pop\n  pop\n  jump\t// out\n    /* \"#utility.yul\":4554:4723   */\ntag_37:\n    /* \"#utility.yul\":4598:4604   */\n  0x00\n    /* \"#utility.yul\":4631:4682   */\n  tag_97\n    /* \"#utility.yul\":4679:4680   */\n  0x00\n    /* \"#utility.yul\":4675:4681   */\n  not\n    /* \"#utility.yul\":4667:4672   */\n  dup5\n    /* \"#utility.yul\":4664:4665   */\n  0x08\n    /* \"#utility.yul\":4660:4673   */\n  mul\n    /* \"#utility.yul\":4631:4682   */\n  tag_36\n  jump\t// in\ntag_97:\n    /* \"#utility.yul\":4627:4683   */\n  not\n    /* \"#utility.yul\":4712:4716   */\n  dup1\n    /* \"#utility.yul\":4706:4710   */\n  dup4\n    /* \"#utility.yul\":4702:4717   */\n  and\n    /* \"#utility.yul\":4692:4717   */\n  swap2\n  pop\n    /* \"#utility.yul\":4605:4723   */\n  pop\n    /* \"#utility.yul\":4554:4723   */\n  swap3\n  swap2\n  pop\n  pop\n  jump\t// out\n    /* \"#utility.yul\":4728:5023   */\ntag_38:\n    /* \"#utility.yul\":4804:4808   */\n  0x00\n    /* \"#utility.yul\":4950:4979   */\n  tag_99\n    /* \"#utility.yul\":4975:4978   */\n  dup4\n    /* \"#utility.yul\":4969:4973   */\n  dup4\n    /* \"#utility.yul\":4950:4979   */\n  tag_37\n  jump\t// in\ntag_99:\n    /* \"#utility.yul\":4942:4979   */\n  swap2\n  pop\n    /* \"#utility.yul\":5012:5015   */\n  dup3\n    /* \"#utility.yul\":5009:5010   */\n  0x02\n    /* \"#utility.yul\":5005:5016   */\n  mul\n    /* \"#utility.yul\":4999:5003   */\n  dup3\n    /* \"#utility.yul\":4996:5017   */\n  or\n    /* \"#utility.yul\":4988:5017   */\n  swap1\n  pop\n    /* \"#utility.yul\":4728:5023   */\n  swap3\n  swap2\n  pop\n  pop\n  jump\t// out\n    /* \"#utility.yul\":5028:6423   */\ntag_8:\n    /* \"#utility.yul\":5145:5182   */\n  tag_101\n    /* \"#utility.yul\":5178:5181   */\n  dup3\n    /* \"#utility.yul\":5145:5182   */\n  tag_19\n  jump\t// in\ntag_101:\n    /* \"#utility.yul\":5247:5265   */\n  0xffffffffffffffff\n    /* \"#utility.yul\":5239:5245   */\n  dup2\n    /* \"#utility.yul\":5236:5266   */\n  gt\n    /* \"#utility.yul\":5233:5289   */\n  iszero\n  tag_102\n  jumpi\n    /* \"#utility.yul\":5269:5287   */\n  tag_103\n  tag_20\n  jump\t// in\ntag_103:\n    /* \"#utility.yul\":5233:5289   */\ntag_102:\n    /* \"#utility.yul\":5313:5351   */\n  tag_104\n    /* \"#utility.yul\":5345:5349   */\n  dup3\n    /* \"#utility.yul\":5339:5350   */\n  sload\n    /* \"#utility.yul\":5313:5351   */\n  tag_22\n  jump\t// in\ntag_104:\n    /* \"#utility.yul\":5398:5465   */\n  tag_105\n    /* \"#utility.yul\":5458:5464   */\n  dup3\n    /* \"#utility.yul\":5450:5456   */\n  dup3\n    /* \"#utility.yul\":5444:5448   */\n  dup6\n    /* \"#utility.yul\":5398:5465   */\n  tag_35\n  jump\t// in\ntag_105:\n    /* \"#utility.yul\":5492:5493   */\n  0x00\n    /* \"#utility.yul\":5516:5520   */\n  0x20\n    /* \"#utility.yul\":5503:5520   */\n  swap1\n  pop\n    /* \"#utility.yul\":5548:5550   */\n  0x1f\n    /* \"#utility.yul\":5540:5546   */\n  dup4\n    /* \"#utility.yul\":5537:5551   */\n  gt\n    /* \"#utility.yul\":5565:5566   */\n  0x01\n    /* \"#utility.yul\":5560:6178   */\n  dup2\n  eq\n  tag_107\n  jumpi\n    /* \"#utility.yul\":6222:6223   */\n  0x00\n    /* \"#utility.yul\":6239:6245   */\n  dup5\n    /* \"#utility.yul\":6236:6313   */\n  iszero\n  tag_108\n  jumpi\n    /* \"#utility.yul\":6288:6297   */\n  dup3\n    /* \"#utility.yul\":6283:6286   */\n  dup8\n    /* \"#utility.yul\":6279:6298   */\n  add\n    /* \"#utility.yul\":6273:6299   */\n  mload\n    /* \"#utility.yul\":6264:6299   */\n  swap1\n  pop\n    /* \"#utility.yul\":6236:6313   */\ntag_108:\n    /* \"#utility.yul\":6339:6406   */\n  tag_109\n    /* \"#utility.yul\":6399:6405   */\n  dup6\n    /* \"#utility.yul\":6392:6397   */\n  dup3\n    /* \"#utility.yul\":6339:6406   */\n  tag_38\n  jump\t// in\ntag_109:\n    /* \"#utility.yul\":6333:6337   */\n  dup7\n    /* \"#utility.yul\":6326:6407   */\n  sstore\n    /* \"#utility.yul\":6195:6417   */\n  pop\n    /* \"#utility.yul\":5530:6417   */\n  jump(tag_106)\n    /* \"#utility.yul\":5560:6178   */\ntag_107:\n    /* \"#utility.yul\":5612:5616   */\n  0x1f\n    /* \"#utility.yul\":5608:5617   */\n  not\n    /* \"#utility.yul\":5600:5606   */\n  dup5\n    /* \"#utility.yul\":5596:5618   */\n  and\n    /* \"#utility.yul\":5646:5683   */\n  tag_110\n    /* \"#utility.yul\":5678:5682   */\n  dup7\n    /* \"#utility.yul\":5646:5683   */\n  tag_23\n  jump\t// in\ntag_110:\n    /* \"#utility.yul\":5705:5706   */\n  0x00\n    /* \"#utility.yul\":5719:5927   */\ntag_111:\n    /* \"#utility.yul\":5733:5740   */\n  dup3\n    /* \"#utility.yul\":5730:5731   */\n  dup2\n    /* \"#utility.yul\":5727:5741   */\n  lt\n    /* \"#utility.yul\":5719:5927   */\n  iszero\n  tag_113\n  jumpi\n    /* \"#utility.yul\":5812:5821   */\n  dup5\n    /* \"#utility.yul\":5807:5810   */\n  dup10\n    /* \"#utility.yul\":5803:5822   */\n  add\n    /* \"#utility.yul\":5797:5823   */\n  mload\n    /* \"#utility.yul\":5789:5795   */\n  dup3\n    /* \"#utility.yul\":5782:5824   */\n  sstore\n    /* \"#utility.yul\":5863:5864   */\n  0x01\n    /* \"#utility.yul\":5855:5861   */\n  dup3\n    /* \"#utility.yul\":5851:5865   */\n  add\n    /* \"#utility.yul\":5841:5865   */\n  swap2\n  pop\n    /* \"#utility.yul\":5910:5912   */\n  0x20\n    /* \"#utility.yul\":5899:5908   */\n  dup6\n    /* \"#utility.yul\":5895:5913   */\n  add\n    /* \"#utility.yul\":5882:5913   */\n  swap5\n  pop\n    /* \"#utility.yul\":5756:5760   */\n  0x20\n    /* \"#utility.yul\":5753:5754   */\n  dup2\n    /* \"#utility.yul\":5749:5761   */\n  add\n    /* \"#utility.yul\":5744:5761   */\n  swap1\n  pop\n    /* \"#utility.yul\":5719:5927   */\n  jump(tag_111)\ntag_113:\n    /* \"#utility.yul\":5955:5961   */\n  dup7\n    /* \"#utility.yul\":5946:5953   */\n  dup4\n    /* \"#utility.yul\":5943:5962   */\n  lt\n    /* \"#utility.yul\":5940:6119   */\n  iszero\n  tag_114\n  jumpi\n    /* \"#utility.yul\":6013:6022   */\n  dup5\n    /* \"#utility.yul\":6008:6011   */\n  dup10\n    /* \"#utility.yul\":6004:6023   */\n  add\n    /* \"#utility.yul\":5998:6024   */\n  mload\n    /* \"#utility.yul\":6056:6104   */\n  tag_115\n    /* \"#utility.yul\":6098:6102   */\n  0x1f\n    /* \"#utility.yul\":6090:6096   */\n  dup10\n    /* \"#utility.yul\":6086:6103   */\n  and\n    /* \"#utility.yul\":6075:6084   */\n  dup3\n    /* \"#utility.yul\":6056:6104   */\n  tag_37\n  jump\t// in\ntag_115:\n    /* \"#utility.yul\":6048:6054   */\n  dup4\n    /* \"#utility.yul\":6041:6105   */\n  sstore\n    /* \"#utility.yul\":5963:6119   */\n  pop\n    /* \"#utility.yul\":5940:6119   */\ntag_114:\n    /* \"#utility.yul\":6165:6166   */\n  0x01\n    /* \"#utility.yul\":6161:6162   */\n  0x02\n    /* \"#utility.yul\":6153:6159   */\n  dup9\n    /* \"#utility.yul\":6149:6163   */\n  mul\n    /* \"#utility.yul\":6145:6167   */\n  add\n    /* \"#utility.yul\":6139:6143   */\n  dup9\n    /* \"#utility.yul\":6132:6168   */\n  sstore\n    /* \"#utility.yul\":5567:6178   */\n  pop\n  pop\n  pop\n    /* \"#utility.yul\":5530:6417   */\ntag_106:\n  pop\n    /* \"#utility.yul\":5120:6423   */\n  pop\n  pop\n  pop\n    /* \"#utility.yul\":5028:6423   */\n  pop\n  pop\n  jump\t// out\n    /* \"contracts/Marketplace_Simple.sol\":202:761  contract BoredPetsNFT is ERC721URIStorage {... */\ntag_11:\n  dataSize(sub_0)\n  dup1\n  dataOffset(sub_0)\n  0x00\n  codecopy\n  0x00\n  return\nstop\n\nsub_0: assembly {\n        /* \"contracts/Marketplace_Simple.sol\":202:761  contract BoredPetsNFT is ERC721URIStorage {... */\n      mstore(0x40, 0x80)\n      callvalue\n      dup1\n      iszero\n      tag_1\n      jumpi\n      0x00\n      dup1\n      revert\n    tag_1:\n      pop\n      jumpi(tag_2, lt(calldatasize, 0x04))\n      shr(0xe0, calldataload(0x00))\n      dup1\n      0x70a08231\n      gt\n      tag_17\n      jumpi\n      dup1\n      0xb88d4fde\n      gt\n      tag_18\n      jumpi\n      dup1\n      0xb88d4fde\n      eq\n      tag_13\n      jumpi\n      dup1\n      0xc87b56dd\n      eq\n      tag_14\n      jumpi\n      dup1\n      0xd85d3d27\n      eq\n      tag_15\n      jumpi\n      dup1\n      0xe985e9c5\n      eq\n      tag_16\n      jumpi\n      jump(tag_2)\n    tag_18:\n      dup1\n      0x70a08231\n      eq\n      tag_10\n      jumpi\n      dup1\n      0x95d89b41\n      eq\n      tag_11\n      jumpi\n      dup1\n      0xa22cb465\n      eq\n      tag_12\n      jumpi\n      jump(tag_2)\n    tag_17:\n      dup1\n      0x095ea7b3\n      gt\n      tag_19\n      jumpi\n      dup1\n      0x095ea7b3\n      eq\n      tag_6\n      jumpi\n      dup1\n      0x23b872dd\n      eq\n      tag_7\n      jumpi\n      dup1\n      0x42842e0e\n      eq\n      tag_8\n      jumpi\n      dup1\n      0x6352211e\n      eq\n      tag_9\n      jumpi\n      jump(tag_2)\n    tag_19:\n      dup1\n      0x01ffc9a7\n      eq\n      tag_3\n      jumpi\n      dup1\n      0x06fdde03\n      eq\n      tag_4\n      jumpi\n      dup1\n      0x081812fc\n      eq\n      tag_5\n      jumpi\n    tag_2:\n      0x00\n      dup1\n      revert\n        /* \"@openzeppelin/contracts/token/ERC721/extensions/ERC721URIStorage.sol\":963:1172  function supportsInterface(bytes4 interfaceId) public view virtual override(ERC721, IERC165) returns (bool) {... */\n    tag_3:\n      tag_20\n      0x04\n      dup1\n      calldatasize\n      sub\n      dup2\n      add\n      swap1\n      tag_21\n      swap2\n      swap1\n      tag_22\n      jump\t// in\n    tag_21:\n      tag_23\n      jump\t// in\n    tag_20:\n      mload(0x40)\n      tag_24\n      swap2\n      swap1\n      tag_25\n      jump\t// in\n    tag_24:\n      mload(0x40)\n      dup1\n      swap2\n      sub\n      swap1\n      return\n        /* \"@openzeppelin/contracts/token/ERC721/ERC721.sol\":2438:2529  function name() public view virtual returns (string memory) {... */\n    tag_4:\n      tag_26\n      tag_27\n      jump\t// in\n    tag_26:\n      mload(0x40)\n      tag_28\n      swap2\n      swap1\n      tag_29\n      jump\t// in\n    tag_28:\n      mload(0x40)\n      dup1\n      swap2\n      sub\n      swap1\n      return\n        /* \"@openzeppelin/contracts/token/ERC721/ERC721.sol\":3610:3768  function getApproved(uint256 tokenId) public view virtual returns (address) {... */\n    tag_5:\n      tag_30\n      0x04\n      dup1\n      calldatasize\n      sub\n      dup2\n      add\n      swap1\n      tag_31\n      swap2\n      swap1\n      tag_32\n      jump\t// in\n    tag_31:\n      tag_33\n      jump\t// in\n    tag_30:\n      mload(0x40)\n      tag_34\n      swap2\n      swap1\n      tag_35\n      jump\t// in\n    tag_34:\n      mload(0x40)\n      dup1\n      swap2\n      sub\n      swap1\n      return\n        /* \"@openzeppelin/contracts/token/ERC721/ERC721.sol\":3429:3544  function approve(address to, uint256 tokenId) public virtual {... */\n    tag_6:\n      tag_36\n      0x04\n      dup1\n      calldatasize\n      sub\n      dup2\n      add\n      swap1\n      tag_37\n      swap2\n      swap1\n      tag_38\n      jump\t// in\n    tag_37:\n      tag_39\n      jump\t// in\n    tag_36:\n      stop\n        /* \"@openzeppelin/contracts/token/ERC721/ERC721.sol\":4279:4867  function transferFrom(address from, address to, uint256 tokenId) public virtual {... */\n    tag_7:\n      tag_40\n      0x04\n      dup1\n      calldatasize\n      sub\n      dup2\n      add\n      swap1\n      tag_41\n      swap2\n      swap1\n      tag_42\n      jump\t// in\n    tag_41:\n      tag_43\n      jump\t// in\n    tag_40:\n      stop\n        /* \"@openzeppelin/contracts/token/ERC721/ERC721.sol\":4938:5072  function safeTransferFrom(address from, address to, uint256 tokenId) public {... */\n    tag_8:\n      tag_44\n      0x04\n      dup1\n      calldatasize\n      sub\n      dup2\n      add\n      swap1\n      tag_45\n      swap2\n      swap1\n      tag_42\n      jump\t// in\n    tag_45:\n      tag_46\n      jump\t// in\n    tag_44:\n      stop\n        /* \"@openzeppelin/contracts/token/ERC721/ERC721.sol\":2251:2371  function ownerOf(uint256 tokenId) public view virtual returns (address) {... */\n    tag_9:\n      tag_47\n      0x04\n      dup1\n      calldatasize\n      sub\n      dup2\n      add\n      swap1\n      tag_48\n      swap2\n      swap1\n      tag_32\n      jump\t// in\n    tag_48:\n      tag_49\n      jump\t// in\n    tag_47:\n      mload(0x40)\n      tag_50\n      swap2\n      swap1\n      tag_35\n      jump\t// in\n    tag_50:\n      mload(0x40)\n      dup1\n      swap2\n      sub\n      swap1\n      return\n        /* \"@openzeppelin/contracts/token/ERC721/ERC721.sol\":1976:2189  function balanceOf(address owner) public view virtual returns (uint256) {... */\n    tag_10:\n      tag_51\n      0x04\n      dup1\n      calldatasize\n      sub\n      dup2\n      add\n      swap1\n      tag_52\n      swap2\n      swap1\n      tag_53\n      jump\t// in\n    tag_52:\n      tag_54\n      jump\t// in\n    tag_51:\n      mload(0x40)\n      tag_55\n      swap2\n      swap1\n      tag_56\n      jump\t// in\n    tag_55:\n      mload(0x40)\n      dup1\n      swap2\n      sub\n      swap1\n      return\n        /* \"@openzeppelin/contracts/token/ERC721/ERC721.sol\":2598:2693  function symbol() public view virtual returns (string memory) {... */\n    tag_11:\n      tag_57\n      tag_58\n      jump\t// in\n    tag_57:\n      mload(0x40)\n      tag_59\n      swap2\n      swap1\n      tag_29\n      jump\t// in\n    tag_59:\n      mload(0x40)\n      dup1\n      swap2\n      sub\n      swap1\n      return\n        /* \"@openzeppelin/contracts/token/ERC721/ERC721.sol\":3840:3986  function setApprovalForAll(address operator, bool approved) public virtual {... */\n    tag_12:\n      tag_60\n      0x04\n      dup1\n      calldatasize\n      sub\n      dup2\n      add\n      swap1\n      tag_61\n      swap2\n      swap1\n      tag_62\n      jump\t// in\n    tag_61:\n      tag_63\n      jump\t// in\n    tag_60:\n      stop\n        /* \"@openzeppelin/contracts/token/ERC721/ERC721.sol\":5143:5354  function safeTransferFrom(address from, address to, uint256 tokenId, bytes memory data) public virtual {... */\n    tag_13:\n      tag_64\n      0x04\n      dup1\n      calldatasize\n      sub\n      dup2\n      add\n      swap1\n      tag_65\n      swap2\n      swap1\n      tag_66\n      jump\t// in\n    tag_65:\n      tag_67\n      jump\t// in\n    tag_64:\n      stop\n        /* \"@openzeppelin/contracts/token/ERC721/extensions/ERC721URIStorage.sol\":1243:1852  function tokenURI(uint256 tokenId) public view virtual override returns (string memory) {... */\n    tag_14:\n      tag_68\n      0x04\n      dup1\n      calldatasize\n      sub\n      dup2\n      add\n      swap1\n      tag_69\n      swap2\n      swap1\n      tag_32\n      jump\t// in\n    tag_69:\n      tag_70\n      jump\t// in\n    tag_68:\n      mload(0x40)\n      tag_71\n      swap2\n      swap1\n      tag_29\n      jump\t// in\n    tag_71:\n      mload(0x40)\n      dup1\n      swap2\n      sub\n      swap1\n      return\n        /* \"contracts/Marketplace_Simple.sol\":485:758  function mint(string memory _tokenURI) public {... */\n    tag_15:\n      tag_72\n      0x04\n      dup1\n      calldatasize\n      sub\n      dup2\n      add\n      swap1\n      tag_73\n      swap2\n      swap1\n      tag_74\n      jump\t// in\n    tag_73:\n      tag_75\n      jump\t// in\n    tag_72:\n      stop\n        /* \"@openzeppelin/contracts/token/ERC721/ERC721.sol\":4057:4212  function isApprovedForAll(address owner, address operator) public view virtual returns (bool) {... */\n    tag_16:\n      tag_76\n      0x04\n      dup1\n      calldatasize\n      sub\n      dup2\n      add\n      swap1\n      tag_77\n      swap2\n      swap1\n      tag_78\n      jump\t// in\n    tag_77:\n      tag_79\n      jump\t// in\n    tag_76:\n      mload(0x40)\n      tag_80\n      swap2\n      swap1\n      tag_25\n      jump\t// in\n    tag_80:\n      mload(0x40)\n      dup1\n      swap2\n      sub\n      swap1\n      return\n        /* \"@openzeppelin/contracts/token/ERC721/extensions/ERC721URIStorage.sol\":963:1172  function supportsInterface(bytes4 interfaceId) public view virtual override(ERC721, IERC165) returns (bool) {... */\n    tag_23:\n        /* \"@openzeppelin/contracts/token/ERC721/extensions/ERC721URIStorage.sol\":1065:1069  bool */\n      0x00\n        /* \"@openzeppelin/contracts/token/ERC721/extensions/ERC721URIStorage.sol\":778:788  0x49064906 */\n      0x49064906\n        /* \"@openzeppelin/contracts/token/ERC721/extensions/ERC721URIStorage.sol\":771:789  bytes4(0x49064906) */\n      0xe0\n      shl\n        /* \"@openzeppelin/contracts/token/ERC721/extensions/ERC721URIStorage.sol\":1089:1124  interfaceId == ERC4906_INTERFACE_ID */\n      not(0xffffffffffffffffffffffffffffffffffffffffffffffffffffffff)\n      and\n        /* \"@openzeppelin/contracts/token/ERC721/extensions/ERC721URIStorage.sol\":1089:1100  interfaceId */\n      dup3\n        /* \"@openzeppelin/contracts/token/ERC721/extensions/ERC721URIStorage.sol\":1089:1124  interfaceId == ERC4906_INTERFACE_ID */\n      not(0xffffffffffffffffffffffffffffffffffffffffffffffffffffffff)\n      and\n      eq\n        /* \"@openzeppelin/contracts/token/ERC721/extensions/ERC721URIStorage.sol\":1089:1164  interfaceId == ERC4906_INTERFACE_ID || super.supportsInterface(interfaceId) */\n      dup1\n      tag_82\n      jumpi\n      pop\n        /* \"@openzeppelin/contracts/token/ERC721/extensions/ERC721URIStorage.sol\":1128:1164  super.supportsInterface(interfaceId) */\n      tag_83\n        /* \"@openzeppelin/contracts/token/ERC721/extensions/ERC721URIStorage.sol\":1152:1163  interfaceId */\n      dup3\n        /* \"@openzeppelin/contracts/token/ERC721/extensions/ERC721URIStorage.sol\":1128:1151  super.supportsInterface */\n      tag_84\n        /* \"@openzeppelin/contracts/token/ERC721/extensions/ERC721URIStorage.sol\":1128:1164  super.supportsInterface(interfaceId) */\n      jump\t// in\n    tag_83:\n        /* \"@openzeppelin/contracts/token/ERC721/extensions/ERC721URIStorage.sol\":1089:1164  interfaceId == ERC4906_INTERFACE_ID || super.supportsInterface(interfaceId) */\n    tag_82:\n        /* \"@openzeppelin/contracts/token/ERC721/extensions/ERC721URIStorage.sol\":1082:1164  return interfaceId == ERC4906_INTERFACE_ID || super.supportsInterface(interfaceId) */\n      swap1\n      pop\n        /* \"@openzeppelin/contracts/token/ERC721/extensions/ERC721URIStorage.sol\":963:1172  function supportsInterface(bytes4 interfaceId) public view virtual override(ERC721, IERC165) returns (bool) {... */\n      swap2\n      swap1\n      pop\n      jump\t// out\n        /* \"@openzeppelin/contracts/token/ERC721/ERC721.sol\":2438:2529  function name() public view virtual returns (string memory) {... */\n    tag_27:\n        /* \"@openzeppelin/contracts/token/ERC721/ERC721.sol\":2483:2496  string memory */\n      0x60\n        /* \"@openzeppelin/contracts/token/ERC721/ERC721.sol\":2516:2521  _name */\n      0x00\n        /* \"@openzeppelin/contracts/token/ERC721/ERC721.sol\":2509:2521  return _name */\n      dup1\n      sload\n      tag_86\n      swap1\n      tag_87\n      jump\t// in\n    tag_86:\n      dup1\n      0x1f\n      add\n      0x20\n      dup1\n      swap2\n      div\n      mul\n      0x20\n      add\n      mload(0x40)\n      swap1\n      dup2\n      add\n      0x40\n      mstore\n      dup1\n      swap3\n      swap2\n      swap1\n      dup2\n      dup2\n      mstore\n      0x20\n      add\n      dup3\n      dup1\n      sload\n      tag_88\n      swap1\n      tag_87\n      jump\t// in\n    tag_88:\n      dup1\n      iszero\n      tag_89\n      jumpi\n      dup1\n      0x1f\n      lt\n      tag_90\n      jumpi\n      0x0100\n      dup1\n      dup4\n      sload\n      div\n      mul\n      dup4\n      mstore\n      swap2\n      0x20\n      add\n      swap2\n      jump(tag_89)\n    tag_90:\n      dup3\n      add\n      swap2\n      swap1\n      0x00\n      mstore\n      keccak256(0x00, 0x20)\n      swap1\n    tag_91:\n      dup2\n      sload\n      dup2\n      mstore\n      swap1\n      0x01\n      add\n      swap1\n      0x20\n      add\n      dup1\n      dup4\n      gt\n      tag_91\n      jumpi\n      dup3\n      swap1\n      sub\n      0x1f\n      and\n      dup3\n      add\n      swap2\n    tag_89:\n      pop\n      pop\n      pop\n      pop\n      pop\n      swap1\n      pop\n        /* \"@openzeppelin/contracts/token/ERC721/ERC721.sol\":2438:2529  function name() public view virtual returns (string memory) {... */\n      swap1\n      jump\t// out\n        /* \"@openzeppelin/contracts/token/ERC721/ERC721.sol\":3610:3768  function getApproved(uint256 tokenId) public view virtual returns (address) {... */\n    tag_33:\n        /* \"@openzeppelin/contracts/token/ERC721/ERC721.sol\":3677:3684  address */\n      0x00\n        /* \"@openzeppelin/contracts/token/ERC721/ERC721.sol\":3697:3719  _requireOwned(tokenId) */\n      tag_93\n        /* \"@openzeppelin/contracts/token/ERC721/ERC721.sol\":3711:3718  tokenId */\n      dup3\n        /* \"@openzeppelin/contracts/token/ERC721/ERC721.sol\":3697:3710  _requireOwned */\n      tag_94\n        /* \"@openzeppelin/contracts/token/ERC721/ERC721.sol\":3697:3719  _requireOwned(tokenId) */\n      jump\t// in\n    tag_93:\n      pop\n        /* \"@openzeppelin/contracts/token/ERC721/ERC721.sol\":3739:3760  _getApproved(tokenId) */\n      tag_95\n        /* \"@openzeppelin/contracts/token/ERC721/ERC721.sol\":3752:3759  tokenId */\n      dup3\n        /* \"@openzeppelin/contracts/token/ERC721/ERC721.sol\":3739:3751  _getApproved */\n      tag_96\n        /* \"@openzeppelin/contracts/token/ERC721/ERC721.sol\":3739:3760  _getApproved(tokenId) */\n      jump\t// in\n    tag_95:\n        /* \"@openzeppelin/contracts/token/ERC721/ERC721.sol\":3732:3760  return _getApproved(tokenId) */\n      swap1\n      pop\n        /* \"@openzeppelin/contracts/token/ERC721/ERC721.sol\":3610:3768  function getApproved(uint256 tokenId) public view virtual returns (address) {... */\n      swap2\n      swap1\n      pop\n      jump\t// out\n        /* \"@openzeppelin/contracts/token/ERC721/ERC721.sol\":3429:3544  function approve(address to, uint256 tokenId) public virtual {... */\n    tag_39:\n        /* \"@openzeppelin/contracts/token/ERC721/ERC721.sol\":3501:3536  _approve(to, tokenId, _msgSender()) */\n      tag_98\n        /* \"@openzeppelin/contracts/token/ERC721/ERC721.sol\":3510:3512  to */\n      dup3\n        /* \"@openzeppelin/contracts/token/ERC721/ERC721.sol\":3514:3521  tokenId */\n      dup3\n        /* \"@openzeppelin/contracts/token/ERC721/ERC721.sol\":3523:3535  _msgSender() */\n      tag_99\n        /* \"@openzeppelin/contracts/token/ERC721/ERC721.sol\":3523:3533  _msgSender */\n      tag_100\n        /* \"@openzeppelin/contracts/token/ERC721/ERC721.sol\":3523:3535  _msgSender() */\n      jump\t// in\n    tag_99:\n        /* \"@openzeppelin/contracts/token/ERC721/ERC721.sol\":3501:3509  _approve */\n      tag_101\n        /* \"@openzeppelin/contracts/token/ERC721/ERC721.sol\":3501:3536  _approve(to, tokenId, _msgSender()) */\n      jump\t// in\n    tag_98:\n        /* \"@openzeppelin/contracts/token/ERC721/ERC721.sol\":3429:3544  function approve(address to, uint256 tokenId) public virtual {... */\n      pop\n      pop\n      jump\t// out\n        /* \"@openzeppelin/contracts/token/ERC721/ERC721.sol\":4279:4867  function transferFrom(address from, address to, uint256 tokenId) public virtual {... */\n    tag_43:\n        /* \"@openzeppelin/contracts/token/ERC721/ERC721.sol\":4388:4389  0 */\n      0x00\n        /* \"@openzeppelin/contracts/token/ERC721/ERC721.sol\":4374:4390  to == address(0) */\n      0xffffffffffffffffffffffffffffffffffffffff\n      and\n        /* \"@openzeppelin/contracts/token/ERC721/ERC721.sol\":4374:4376  to */\n      dup3\n        /* \"@openzeppelin/contracts/token/ERC721/ERC721.sol\":4374:4390  to == address(0) */\n      0xffffffffffffffffffffffffffffffffffffffff\n      and\n      sub\n        /* \"@openzeppelin/contracts/token/ERC721/ERC721.sol\":4370:4459  if (to == address(0)) {... */\n      tag_103\n      jumpi\n        /* \"@openzeppelin/contracts/token/ERC721/ERC721.sol\":4444:4445  0 */\n      0x00\n        /* \"@openzeppelin/contracts/token/ERC721/ERC721.sol\":4414:4447  ERC721InvalidReceiver(address(0)) */\n      mload(0x40)\n      0x64a0ae9200000000000000000000000000000000000000000000000000000000\n      dup2\n      mstore\n      0x04\n      add\n      tag_104\n      swap2\n      swap1\n      tag_35\n      jump\t// in\n    tag_104:\n      mload(0x40)\n      dup1\n      swap2\n      sub\n      swap1\n      revert\n        /* \"@openzeppelin/contracts/token/ERC721/ERC721.sol\":4370:4459  if (to == address(0)) {... */\n    tag_103:\n        /* \"@openzeppelin/contracts/token/ERC721/ERC721.sol\":4680:4701  address previousOwner */\n      0x00\n        /* \"@openzeppelin/contracts/token/ERC721/ERC721.sol\":4704:4738  _update(to, tokenId, _msgSender()) */\n      tag_105\n        /* \"@openzeppelin/contracts/token/ERC721/ERC721.sol\":4712:4714  to */\n      dup4\n        /* \"@openzeppelin/contracts/token/ERC721/ERC721.sol\":4716:4723  tokenId */\n      dup4\n        /* \"@openzeppelin/contracts/token/ERC721/ERC721.sol\":4725:4737  _msgSender() */\n      tag_106\n        /* \"@openzeppelin/contracts/token/ERC721/ERC721.sol\":4725:4735  _msgSender */\n      tag_100\n        /* \"@openzeppelin/contracts/token/ERC721/ERC721.sol\":4725:4737  _msgSender() */\n      jump\t// in\n    tag_106:\n        /* \"@openzeppelin/contracts/token/ERC721/ERC721.sol\":4704:4711  _update */\n      tag_107\n        /* \"@openzeppelin/contracts/token/ERC721/ERC721.sol\":4704:4738  _update(to, tokenId, _msgSender()) */\n      jump\t// in\n    tag_105:\n        /* \"@openzeppelin/contracts/token/ERC721/ERC721.sol\":4680:4738  address previousOwner = _update(to, tokenId, _msgSender()) */\n      swap1\n      pop\n        /* \"@openzeppelin/contracts/token/ERC721/ERC721.sol\":4770:4774  from */\n      dup4\n        /* \"@openzeppelin/contracts/token/ERC721/ERC721.sol\":4753:4774  previousOwner != from */\n      0xffffffffffffffffffffffffffffffffffffffff\n      and\n        /* \"@openzeppelin/contracts/token/ERC721/ERC721.sol\":4753:4766  previousOwner */\n      dup2\n        /* \"@openzeppelin/contracts/token/ERC721/ERC721.sol\":4753:4774  previousOwner != from */\n      0xffffffffffffffffffffffffffffffffffffffff\n      and\n      eq\n        /* \"@openzeppelin/contracts/token/ERC721/ERC721.sol\":4749:4860  if (previousOwner != from) {... */\n      tag_108\n      jumpi\n        /* \"@openzeppelin/contracts/token/ERC721/ERC721.sol\":4819:4823  from */\n      dup4\n        /* \"@openzeppelin/contracts/token/ERC721/ERC721.sol\":4825:4832  tokenId */\n      dup3\n        /* \"@openzeppelin/contracts/token/ERC721/ERC721.sol\":4834:4847  previousOwner */\n      dup3\n        /* \"@openzeppelin/contracts/token/ERC721/ERC721.sol\":4798:4848  ERC721IncorrectOwner(from, tokenId, previousOwner) */\n      mload(0x40)\n      0x64283d7b00000000000000000000000000000000000000000000000000000000\n      dup2\n      mstore\n      0x04\n      add\n      tag_109\n      swap4\n      swap3\n      swap2\n      swap1\n      tag_110\n      jump\t// in\n    tag_109:\n      mload(0x40)\n      dup1\n      swap2\n      sub\n      swap1\n      revert\n        /* \"@openzeppelin/contracts/token/ERC721/ERC721.sol\":4749:4860  if (previousOwner != from) {... */\n    tag_108:\n        /* \"@openzeppelin/contracts/token/ERC721/ERC721.sol\":4359:4867  {... */\n      pop\n        /* \"@openzeppelin/contracts/token/ERC721/ERC721.sol\":4279:4867  function transferFrom(address from, address to, uint256 tokenId) public virtual {... */\n      pop\n      pop\n      pop\n      jump\t// out\n        /* \"@openzeppelin/contracts/token/ERC721/ERC721.sol\":4938:5072  function safeTransferFrom(address from, address to, uint256 tokenId) public {... */\n    tag_46:\n        /* \"@openzeppelin/contracts/token/ERC721/ERC721.sol\":5025:5064  safeTransferFrom(from, to, tokenId, \"\") */\n      tag_112\n        /* \"@openzeppelin/contracts/token/ERC721/ERC721.sol\":5042:5046  from */\n      dup4\n        /* \"@openzeppelin/contracts/token/ERC721/ERC721.sol\":5048:5050  to */\n      dup4\n        /* \"@openzeppelin/contracts/token/ERC721/ERC721.sol\":5052:5059  tokenId */\n      dup4\n        /* \"@openzeppelin/contracts/token/ERC721/ERC721.sol\":5025:5064  safeTransferFrom(from, to, tokenId, \"\") */\n      mload(0x40)\n      dup1\n      0x20\n      add\n      0x40\n      mstore\n      dup1\n      0x00\n      dup2\n      mstore\n      pop\n        /* \"@openzeppelin/contracts/token/ERC721/ERC721.sol\":5025:5041  safeTransferFrom */\n      tag_67\n        /* \"@openzeppelin/contracts/token/ERC721/ERC721.sol\":5025:5064  safeTransferFrom(from, to, tokenId, \"\") */\n      jump\t// in\n    tag_112:\n        /* \"@openzeppelin/contracts/token/ERC721/ERC721.sol\":4938:5072  function safeTransferFrom(address from, address to, uint256 tokenId) public {... */\n      pop\n      pop\n      pop\n      jump\t// out\n        /* \"@openzeppelin/contracts/token/ERC721/ERC721.sol\":2251:2371  function ownerOf(uint256 tokenId) public view virtual returns (address) {... */\n    tag_49:\n        /* \"@openzeppelin/contracts/token/ERC721/ERC721.sol\":2314:2321  address */\n      0x00\n        /* \"@openzeppelin/contracts/token/ERC721/ERC721.sol\":2341:2363  _requireOwned(tokenId) */\n      tag_114\n        /* \"@openzeppelin/contracts/token/ERC721/ERC721.sol\":2355:2362  tokenId */\n      dup3\n        /* \"@openzeppelin/contracts/token/ERC721/ERC721.sol\":2341:2354  _requireOwned */\n      tag_94\n        /* \"@openzeppelin/contracts/token/ERC721/ERC721.sol\":2341:2363  _requireOwned(tokenId) */\n      jump\t// in\n    tag_114:\n        /* \"@openzeppelin/contracts/token/ERC721/ERC721.sol\":2334:2363  return _requireOwned(tokenId) */\n      swap1\n      pop\n        /* \"@openzeppelin/contracts/token/ERC721/ERC721.sol\":2251:2371  function ownerOf(uint256 tokenId) public view virtual returns (address) {... */\n      swap2\n      swap1\n      pop\n      jump\t// out\n        /* \"@openzeppelin/contracts/token/ERC721/ERC721.sol\":1976:2189  function balanceOf(address owner) public view virtual returns (uint256) {... */\n    tag_54:\n        /* \"@openzeppelin/contracts/token/ERC721/ERC721.sol\":2039:2046  uint256 */\n      0x00\n        /* \"@openzeppelin/contracts/token/ERC721/ERC721.sol\":2080:2081  0 */\n      dup1\n        /* \"@openzeppelin/contracts/token/ERC721/ERC721.sol\":2063:2082  owner == address(0) */\n      0xffffffffffffffffffffffffffffffffffffffff\n      and\n        /* \"@openzeppelin/contracts/token/ERC721/ERC721.sol\":2063:2068  owner */\n      dup3\n        /* \"@openzeppelin/contracts/token/ERC721/ERC721.sol\":2063:2082  owner == address(0) */\n      0xffffffffffffffffffffffffffffffffffffffff\n      and\n      sub\n        /* \"@openzeppelin/contracts/token/ERC721/ERC721.sol\":2059:2148  if (owner == address(0)) {... */\n      tag_116\n      jumpi\n        /* \"@openzeppelin/contracts/token/ERC721/ERC721.sol\":2133:2134  0 */\n      0x00\n        /* \"@openzeppelin/contracts/token/ERC721/ERC721.sol\":2106:2136  ERC721InvalidOwner(address(0)) */\n      mload(0x40)\n      0x89c62b6400000000000000000000000000000000000000000000000000000000\n      dup2\n      mstore\n      0x04\n      add\n      tag_117\n      swap2\n      swap1\n      tag_35\n      jump\t// in\n    tag_117:\n      mload(0x40)\n      dup1\n      swap2\n      sub\n      swap1\n      revert\n        /* \"@openzeppelin/contracts/token/ERC721/ERC721.sol\":2059:2148  if (owner == address(0)) {... */\n    tag_116:\n        /* \"@openzeppelin/contracts/token/ERC721/ERC721.sol\":2165:2174  _balances */\n      0x03\n        /* \"@openzeppelin/contracts/token/ERC721/ERC721.sol\":2165:2181  _balances[owner] */\n      0x00\n        /* \"@openzeppelin/contracts/token/ERC721/ERC721.sol\":2175:2180  owner */\n      dup4\n        /* \"@openzeppelin/contracts/token/ERC721/ERC721.sol\":2165:2181  _balances[owner] */\n      0xffffffffffffffffffffffffffffffffffffffff\n      and\n      0xffffffffffffffffffffffffffffffffffffffff\n      and\n      dup2\n      mstore\n      0x20\n      add\n      swap1\n      dup2\n      mstore\n      0x20\n      add\n      0x00\n      keccak256\n      sload\n        /* \"@openzeppelin/contracts/token/ERC721/ERC721.sol\":2158:2181  return _balances[owner] */\n      swap1\n      pop\n        /* \"@openzeppelin/contracts/token/ERC721/ERC721.sol\":1976:2189  function balanceOf(address owner) public view virtual returns (uint256) {... */\n      swap2\n      swap1\n      pop\n      jump\t// out\n        /* \"@openzeppelin/contracts/token/ERC721/ERC721.sol\":2598:2693  function symbol() public view virtual returns (string memory) {... */\n    tag_58:\n        /* \"@openzeppelin/contracts/token/ERC721/ERC721.sol\":2645:2658  string memory */\n      0x60\n        /* \"@openzeppelin/contracts/token/ERC721/ERC721.sol\":2678:2685  _symbol */\n      0x01\n        /* \"@openzeppelin/contracts/token/ERC721/ERC721.sol\":2671:2685  return _symbol */\n      dup1\n      sload\n      tag_119\n      swap1\n      tag_87\n      jump\t// in\n    tag_119:\n      dup1\n      0x1f\n      add\n      0x20\n      dup1\n      swap2\n      div\n      mul\n      0x20\n      add\n      mload(0x40)\n      swap1\n      dup2\n      add\n      0x40\n      mstore\n      dup1\n      swap3\n      swap2\n      swap1\n      dup2\n      dup2\n      mstore\n      0x20\n      add\n      dup3\n      dup1\n      sload\n      tag_120\n      swap1\n      tag_87\n      jump\t// in\n    tag_120:\n      dup1\n      iszero\n      tag_121\n      jumpi\n      dup1\n      0x1f\n      lt\n      tag_122\n      jumpi\n      0x0100\n      dup1\n      dup4\n      sload\n      div\n      mul\n      dup4\n      mstore\n      swap2\n      0x20\n      add\n      swap2\n      jump(tag_121)\n    tag_122:\n      dup3\n      add\n      swap2\n      swap1\n      0x00\n      mstore\n      keccak256(0x00, 0x20)\n      swap1\n    tag_123:\n      dup2\n      sload\n      dup2\n      mstore\n      swap1\n      0x01\n      add\n      swap1\n      0x20\n      add\n      dup1\n      dup4\n      gt\n      tag_123\n      jumpi\n      dup3\n      swap1\n      sub\n      0x1f\n      and\n      dup3\n      add\n      swap2\n    tag_121:\n      pop\n      pop\n      pop\n      pop\n      pop\n      swap1\n      pop\n        /* \"@openzeppelin/contracts/token/ERC721/ERC721.sol\":2598:2693  function symbol() public view virtual returns (string memory) {... */\n      swap1\n      jump\t// out\n        /* \"@openzeppelin/contracts/token/ERC721/ERC721.sol\":3840:3986  function setApprovalForAll(address operator, bool approved) public virtual {... */\n    tag_63:\n        /* \"@openzeppelin/contracts/token/ERC721/ERC721.sol\":3926:3978  _setApprovalForAll(_msgSender(), operator, approved) */\n      tag_125\n        /* \"@openzeppelin/contracts/token/ERC721/ERC721.sol\":3945:3957  _msgSender() */\n      tag_126\n        /* \"@openzeppelin/contracts/token/ERC721/ERC721.sol\":3945:3955  _msgSender */\n      tag_100\n        /* \"@openzeppelin/contracts/token/ERC721/ERC721.sol\":3945:3957  _msgSender() */\n      jump\t// in\n    tag_126:\n        /* \"@openzeppelin/contracts/token/ERC721/ERC721.sol\":3959:3967  operator */\n      dup4\n        /* \"@openzeppelin/contracts/token/ERC721/ERC721.sol\":3969:3977  approved */\n      dup4\n        /* \"@openzeppelin/contracts/token/ERC721/ERC721.sol\":3926:3944  _setApprovalForAll */\n      tag_127\n        /* \"@openzeppelin/contracts/token/ERC721/ERC721.sol\":3926:3978  _setApprovalForAll(_msgSender(), operator, approved) */\n      jump\t// in\n    tag_125:\n        /* \"@openzeppelin/contracts/token/ERC721/ERC721.sol\":3840:3986  function setApprovalForAll(address operator, bool approved) public virtual {... */\n      pop\n      pop\n      jump\t// out\n        /* \"@openzeppelin/contracts/token/ERC721/ERC721.sol\":5143:5354  function safeTransferFrom(address from, address to, uint256 tokenId, bytes memory data) public virtual {... */\n    tag_67:\n        /* \"@openzeppelin/contracts/token/ERC721/ERC721.sol\":5257:5288  transferFrom(from, to, tokenId) */\n      tag_129\n        /* \"@openzeppelin/contracts/token/ERC721/ERC721.sol\":5270:5274  from */\n      dup5\n        /* \"@openzeppelin/contracts/token/ERC721/ERC721.sol\":5276:5278  to */\n      dup5\n        /* \"@openzeppelin/contracts/token/ERC721/ERC721.sol\":5280:5287  tokenId */\n      dup5\n        /* \"@openzeppelin/contracts/token/ERC721/ERC721.sol\":5257:5269  transferFrom */\n      tag_43\n        /* \"@openzeppelin/contracts/token/ERC721/ERC721.sol\":5257:5288  transferFrom(from, to, tokenId) */\n      jump\t// in\n    tag_129:\n        /* \"@openzeppelin/contracts/token/ERC721/ERC721.sol\":5299:5346  _checkOnERC721Received(from, to, tokenId, data) */\n      tag_130\n        /* \"@openzeppelin/contracts/token/ERC721/ERC721.sol\":5322:5326  from */\n      dup5\n        /* \"@openzeppelin/contracts/token/ERC721/ERC721.sol\":5328:5330  to */\n      dup5\n        /* \"@openzeppelin/contracts/token/ERC721/ERC721.sol\":5332:5339  tokenId */\n      dup5\n        /* \"@openzeppelin/contracts/token/ERC721/ERC721.sol\":5341:5345  data */\n      dup5\n        /* \"@openzeppelin/contracts/token/ERC721/ERC721.sol\":5299:5321  _checkOnERC721Received */\n      tag_131\n        /* \"@openzeppelin/contracts/token/ERC721/ERC721.sol\":5299:5346  _checkOnERC721Received(from, to, tokenId, data) */\n      jump\t// in\n    tag_130:\n        /* \"@openzeppelin/contracts/token/ERC721/ERC721.sol\":5143:5354  function safeTransferFrom(address from, address to, uint256 tokenId, bytes memory data) public virtual {... */\n      pop\n      pop\n      pop\n      pop\n      jump\t// out\n        /* \"@openzeppelin/contracts/token/ERC721/extensions/ERC721URIStorage.sol\":1243:1852  function tokenURI(uint256 tokenId) public view virtual override returns (string memory) {... */\n    tag_70:\n        /* \"@openzeppelin/contracts/token/ERC721/extensions/ERC721URIStorage.sol\":1316:1329  string memory */\n      0x60\n        /* \"@openzeppelin/contracts/token/ERC721/extensions/ERC721URIStorage.sol\":1342:1364  _requireOwned(tokenId) */\n      tag_133\n        /* \"@openzeppelin/contracts/token/ERC721/extensions/ERC721URIStorage.sol\":1356:1363  tokenId */\n      dup3\n        /* \"@openzeppelin/contracts/token/ERC721/extensions/ERC721URIStorage.sol\":1342:1355  _requireOwned */\n      tag_94\n        /* \"@openzeppelin/contracts/token/ERC721/extensions/ERC721URIStorage.sol\":1342:1364  _requireOwned(tokenId) */\n      jump\t// in\n    tag_133:\n      pop\n        /* \"@openzeppelin/contracts/token/ERC721/extensions/ERC721URIStorage.sol\":1377:1400  string memory _tokenURI */\n      0x00\n        /* \"@openzeppelin/contracts/token/ERC721/extensions/ERC721URIStorage.sol\":1403:1413  _tokenURIs */\n      0x06\n        /* \"@openzeppelin/contracts/token/ERC721/extensions/ERC721URIStorage.sol\":1403:1422  _tokenURIs[tokenId] */\n      0x00\n        /* \"@openzeppelin/contracts/token/ERC721/extensions/ERC721URIStorage.sol\":1414:1421  tokenId */\n      dup5\n        /* \"@openzeppelin/contracts/token/ERC721/extensions/ERC721URIStorage.sol\":1403:1422  _tokenURIs[tokenId] */\n      dup2\n      mstore\n      0x20\n      add\n      swap1\n      dup2\n      mstore\n      0x20\n      add\n      0x00\n      keccak256\n        /* \"@openzeppelin/contracts/token/ERC721/extensions/ERC721URIStorage.sol\":1377:1422  string memory _tokenURI = _tokenURIs[tokenId] */\n      dup1\n      sload\n      tag_134\n      swap1\n      tag_87\n      jump\t// in\n    tag_134:\n      dup1\n      0x1f\n      add\n      0x20\n      dup1\n      swap2\n      div\n      mul\n      0x20\n      add\n      mload(0x40)\n      swap1\n      dup2\n      add\n      0x40\n      mstore\n      dup1\n      swap3\n      swap2\n      swap1\n      dup2\n      dup2\n      mstore\n      0x20\n      add\n      dup3\n      dup1\n      sload\n      tag_135\n      swap1\n      tag_87\n      jump\t// in\n    tag_135:\n      dup1\n      iszero\n      tag_136\n      jumpi\n      dup1\n      0x1f\n      lt\n      tag_137\n      jumpi\n      0x0100\n      dup1\n      dup4\n      sload\n      div\n      mul\n      dup4\n      mstore\n      swap2\n      0x20\n      add\n      swap2\n      jump(tag_136)\n    tag_137:\n      dup3\n      add\n      swap2\n      swap1\n      0x00\n      mstore\n      keccak256(0x00, 0x20)\n      swap1\n    tag_138:\n      dup2\n      sload\n      dup2\n      mstore\n      swap1\n      0x01\n      add\n      swap1\n      0x20\n      add\n      dup1\n      dup4\n      gt\n      tag_138\n      jumpi\n      dup3\n      swap1\n      sub\n      0x1f\n      and\n      dup3\n      add\n      swap2\n    tag_136:\n      pop\n      pop\n      pop\n      pop\n      pop\n      swap1\n      pop\n        /* \"@openzeppelin/contracts/token/ERC721/extensions/ERC721URIStorage.sol\":1433:1451  string memory base */\n      0x00\n        /* \"@openzeppelin/contracts/token/ERC721/extensions/ERC721URIStorage.sol\":1454:1464  _baseURI() */\n      tag_139\n        /* \"@openzeppelin/contracts/token/ERC721/extensions/ERC721URIStorage.sol\":1454:1462  _baseURI */\n      tag_140\n        /* \"@openzeppelin/contracts/token/ERC721/extensions/ERC721URIStorage.sol\":1454:1464  _baseURI() */\n      jump\t// in\n    tag_139:\n        /* \"@openzeppelin/contracts/token/ERC721/extensions/ERC721URIStorage.sol\":1433:1464  string memory base = _baseURI() */\n      swap1\n      pop\n        /* \"@openzeppelin/contracts/token/ERC721/extensions/ERC721URIStorage.sol\":1562:1563  0 */\n      0x00\n        /* \"@openzeppelin/contracts/token/ERC721/extensions/ERC721URIStorage.sol\":1546:1550  base */\n      dup2\n        /* \"@openzeppelin/contracts/token/ERC721/extensions/ERC721URIStorage.sol\":1540:1558  bytes(base).length */\n      mload\n        /* \"@openzeppelin/contracts/token/ERC721/extensions/ERC721URIStorage.sol\":1540:1563  bytes(base).length == 0 */\n      sub\n        /* \"@openzeppelin/contracts/token/ERC721/extensions/ERC721URIStorage.sol\":1536:1608  if (bytes(base).length == 0) {... */\n      tag_141\n      jumpi\n        /* \"@openzeppelin/contracts/token/ERC721/extensions/ERC721URIStorage.sol\":1587:1596  _tokenURI */\n      dup2\n        /* \"@openzeppelin/contracts/token/ERC721/extensions/ERC721URIStorage.sol\":1580:1596  return _tokenURI */\n      swap3\n      pop\n      pop\n      pop\n      jump(tag_132)\n        /* \"@openzeppelin/contracts/token/ERC721/extensions/ERC721URIStorage.sol\":1536:1608  if (bytes(base).length == 0) {... */\n    tag_141:\n        /* \"@openzeppelin/contracts/token/ERC721/extensions/ERC721URIStorage.sol\":1735:1736  0 */\n      0x00\n        /* \"@openzeppelin/contracts/token/ERC721/extensions/ERC721URIStorage.sol\":1715:1724  _tokenURI */\n      dup3\n        /* \"@openzeppelin/contracts/token/ERC721/extensions/ERC721URIStorage.sol\":1709:1732  bytes(_tokenURI).length */\n      mload\n        /* \"@openzeppelin/contracts/token/ERC721/extensions/ERC721URIStorage.sol\":1709:1736  bytes(_tokenURI).length > 0 */\n      gt\n        /* \"@openzeppelin/contracts/token/ERC721/extensions/ERC721URIStorage.sol\":1705:1802  if (bytes(_tokenURI).length > 0) {... */\n      iszero\n      tag_142\n      jumpi\n        /* \"@openzeppelin/contracts/token/ERC721/extensions/ERC721URIStorage.sol\":1774:1778  base */\n      dup1\n        /* \"@openzeppelin/contracts/token/ERC721/extensions/ERC721URIStorage.sol\":1780:1789  _tokenURI */\n      dup3\n        /* \"@openzeppelin/contracts/token/ERC721/extensions/ERC721URIStorage.sol\":1760:1790  string.concat(base, _tokenURI) */\n      add(0x20, mload(0x40))\n      tag_143\n      swap3\n      swap2\n      swap1\n      tag_144\n      jump\t// in\n    tag_143:\n      mload(0x40)\n      0x20\n      dup2\n      dup4\n      sub\n      sub\n      dup2\n      mstore\n      swap1\n      0x40\n      mstore\n        /* \"@openzeppelin/contracts/token/ERC721/extensions/ERC721URIStorage.sol\":1753:1790  return string.concat(base, _tokenURI) */\n      swap3\n      pop\n      pop\n      pop\n      jump(tag_132)\n        /* \"@openzeppelin/contracts/token/ERC721/extensions/ERC721URIStorage.sol\":1705:1802  if (bytes(_tokenURI).length > 0) {... */\n    tag_142:\n        /* \"@openzeppelin/contracts/token/ERC721/extensions/ERC721URIStorage.sol\":1821:1844  super.tokenURI(tokenId) */\n      tag_145\n        /* \"@openzeppelin/contracts/token/ERC721/extensions/ERC721URIStorage.sol\":1836:1843  tokenId */\n      dup5\n        /* \"@openzeppelin/contracts/token/ERC721/extensions/ERC721URIStorage.sol\":1821:1835  super.tokenURI */\n      tag_146\n        /* \"@openzeppelin/contracts/token/ERC721/extensions/ERC721URIStorage.sol\":1821:1844  super.tokenURI(tokenId) */\n      jump\t// in\n    tag_145:\n        /* \"@openzeppelin/contracts/token/ERC721/extensions/ERC721URIStorage.sol\":1814:1844  return super.tokenURI(tokenId) */\n      swap3\n      pop\n      pop\n      pop\n        /* \"@openzeppelin/contracts/token/ERC721/extensions/ERC721URIStorage.sol\":1243:1852  function tokenURI(uint256 tokenId) public view virtual override returns (string memory) {... */\n    tag_132:\n      swap2\n      swap1\n      pop\n      jump\t// out\n        /* \"contracts/Marketplace_Simple.sol\":485:758  function mint(string memory _tokenURI) public {... */\n    tag_75:\n        /* \"contracts/Marketplace_Simple.sol\":538:547  _tokenIds */\n      0x07\n      0x00\n        /* \"contracts/Marketplace_Simple.sol\":538:549  _tokenIds++ */\n      dup2\n      sload\n      dup1\n      swap3\n      swap2\n      swap1\n      tag_148\n      swap1\n      tag_149\n      jump\t// in\n    tag_148:\n      swap2\n      swap1\n      pop\n      sstore\n      pop\n        /* \"contracts/Marketplace_Simple.sol\":556:574  uint256 newTokenId */\n      0x00\n        /* \"contracts/Marketplace_Simple.sol\":577:586  _tokenIds */\n      sload(0x07)\n        /* \"contracts/Marketplace_Simple.sol\":556:586  uint256 newTokenId = _tokenIds */\n      swap1\n      pop\n        /* \"contracts/Marketplace_Simple.sol\":593:626  _safeMint(msg.sender, newTokenId) */\n      tag_150\n        /* \"contracts/Marketplace_Simple.sol\":603:613  msg.sender */\n      caller\n        /* \"contracts/Marketplace_Simple.sol\":615:625  newTokenId */\n      dup3\n        /* \"contracts/Marketplace_Simple.sol\":593:602  _safeMint */\n      tag_151\n        /* \"contracts/Marketplace_Simple.sol\":593:626  _safeMint(msg.sender, newTokenId) */\n      jump\t// in\n    tag_150:\n        /* \"contracts/Marketplace_Simple.sol\":633:668  _setTokenURI(newTokenId, _tokenURI) */\n      tag_152\n        /* \"contracts/Marketplace_Simple.sol\":646:656  newTokenId */\n      dup2\n        /* \"contracts/Marketplace_Simple.sol\":658:667  _tokenURI */\n      dup4\n        /* \"contracts/Marketplace_Simple.sol\":633:645  _setTokenURI */\n      tag_153\n        /* \"contracts/Marketplace_Simple.sol\":633:668  _setTokenURI(newTokenId, _tokenURI) */\n      jump\t// in\n    tag_152:\n        /* \"contracts/Marketplace_Simple.sol\":675:719  setApprovalForAll(marketplaceContract, true) */\n      tag_154\n        /* \"contracts/Marketplace_Simple.sol\":693:712  marketplaceContract */\n      0x08\n      0x00\n      swap1\n      sload\n      swap1\n      0x0100\n      exp\n      swap1\n      div\n      0xffffffffffffffffffffffffffffffffffffffff\n      and\n        /* \"contracts/Marketplace_Simple.sol\":714:718  true */\n      0x01\n        /* \"contracts/Marketplace_Simple.sol\":675:692  setApprovalForAll */\n      tag_63\n        /* \"contracts/Marketplace_Simple.sol\":675:719  setApprovalForAll(marketplaceContract, true) */\n      jump\t// in\n    tag_154:\n        /* \"contracts/Marketplace_Simple.sol\":731:752  NFTMinted(newTokenId) */\n      0xd9dc24857f317ed9abbbb42e920ede0104231eb1d3d70236a74887ffaf159868\n        /* \"contracts/Marketplace_Simple.sol\":741:751  newTokenId */\n      dup2\n        /* \"contracts/Marketplace_Simple.sol\":731:752  NFTMinted(newTokenId) */\n      mload(0x40)\n      tag_155\n      swap2\n      swap1\n      tag_56\n      jump\t// in\n    tag_155:\n      mload(0x40)\n      dup1\n      swap2\n      sub\n      swap1\n      log1\n        /* \"contracts/Marketplace_Simple.sol\":531:758  {... */\n      pop\n        /* \"contracts/Marketplace_Simple.sol\":485:758  function mint(string memory _tokenURI) public {... */\n      pop\n      jump\t// out\n        /* \"@openzeppelin/contracts/token/ERC721/ERC721.sol\":4057:4212  function isApprovedForAll(address owner, address operator) public view virtual returns (bool) {... */\n    tag_79:\n        /* \"@openzeppelin/contracts/token/ERC721/ERC721.sol\":4145:4149  bool */\n      0x00\n        /* \"@openzeppelin/contracts/token/ERC721/ERC721.sol\":4169:4187  _operatorApprovals */\n      0x05\n        /* \"@openzeppelin/contracts/token/ERC721/ERC721.sol\":4169:4194  _operatorApprovals[owner] */\n      0x00\n        /* \"@openzeppelin/contracts/token/ERC721/ERC721.sol\":4188:4193  owner */\n      dup5\n        /* \"@openzeppelin/contracts/token/ERC721/ERC721.sol\":4169:4194  _operatorApprovals[owner] */\n      0xffffffffffffffffffffffffffffffffffffffff\n      and\n      0xffffffffffffffffffffffffffffffffffffffff\n      and\n      dup2\n      mstore\n      0x20\n      add\n      swap1\n      dup2\n      mstore\n      0x20\n      add\n      0x00\n      keccak256\n        /* \"@openzeppelin/contracts/token/ERC721/ERC721.sol\":4169:4204  _operatorApprovals[owner][operator] */\n      0x00\n        /* \"@openzeppelin/contracts/token/ERC721/ERC721.sol\":4195:4203  operator */\n      dup4\n        /* \"@openzeppelin/contracts/token/ERC721/ERC721.sol\":4169:4204  _operatorApprovals[owner][operator] */\n      0xffffffffffffffffffffffffffffffffffffffff\n      and\n      0xffffffffffffffffffffffffffffffffffffffff\n      and\n      dup2\n      mstore\n      0x20\n      add\n      swap1\n      dup2\n      mstore\n      0x20\n      add\n      0x00\n      keccak256\n      0x00\n      swap1\n      sload\n      swap1\n      0x0100\n      exp\n      swap1\n      div\n      0xff\n      and\n        /* \"@openzeppelin/contracts/token/ERC721/ERC721.sol\":4162:4204  return _operatorApprovals[owner][operator] */\n      swap1\n      pop\n        /* \"@openzeppelin/contracts/token/ERC721/ERC721.sol\":4057:4212  function isApprovedForAll(address owner, address operator) public view virtual returns (bool) {... */\n      swap3\n      swap2\n      pop\n      pop\n      jump\t// out\n        /* \"@openzeppelin/contracts/token/ERC721/ERC721.sol\":1607:1912  function supportsInterface(bytes4 interfaceId) public view virtual override(ERC165, IERC165) returns (bool) {... */\n    tag_84:\n        /* \"@openzeppelin/contracts/token/ERC721/ERC721.sol\":1709:1713  bool */\n      0x00\n        /* \"@openzeppelin/contracts/token/ERC721/ERC721.sol\":1761:1786  type(IERC721).interfaceId */\n      0x80ac58cd00000000000000000000000000000000000000000000000000000000\n        /* \"@openzeppelin/contracts/token/ERC721/ERC721.sol\":1746:1786  interfaceId == type(IERC721).interfaceId */\n      not(0xffffffffffffffffffffffffffffffffffffffffffffffffffffffff)\n      and\n        /* \"@openzeppelin/contracts/token/ERC721/ERC721.sol\":1746:1757  interfaceId */\n      dup3\n        /* \"@openzeppelin/contracts/token/ERC721/ERC721.sol\":1746:1786  interfaceId == type(IERC721).interfaceId */\n      not(0xffffffffffffffffffffffffffffffffffffffffffffffffffffffff)\n      and\n      eq\n        /* \"@openzeppelin/contracts/token/ERC721/ERC721.sol\":1746:1851  interfaceId == type(IERC721).interfaceId ||... */\n      dup1\n      tag_158\n      jumpi\n      pop\n        /* \"@openzeppelin/contracts/token/ERC721/ERC721.sol\":1818:1851  type(IERC721Metadata).interfaceId */\n      0x5b5e139f00000000000000000000000000000000000000000000000000000000\n        /* \"@openzeppelin/contracts/token/ERC721/ERC721.sol\":1803:1851  interfaceId == type(IERC721Metadata).interfaceId */\n      not(0xffffffffffffffffffffffffffffffffffffffffffffffffffffffff)\n      and\n        /* \"@openzeppelin/contracts/token/ERC721/ERC721.sol\":1803:1814  interfaceId */\n      dup3\n        /* \"@openzeppelin/contracts/token/ERC721/ERC721.sol\":1803:1851  interfaceId == type(IERC721Metadata).interfaceId */\n      not(0xffffffffffffffffffffffffffffffffffffffffffffffffffffffff)\n      and\n      eq\n        /* \"@openzeppelin/contracts/token/ERC721/ERC721.sol\":1746:1851  interfaceId == type(IERC721).interfaceId ||... */\n    tag_158:\n        /* \"@openzeppelin/contracts/token/ERC721/ERC721.sol\":1746:1904  interfaceId == type(IERC721).interfaceId ||... */\n      dup1\n      tag_159\n      jumpi\n      pop\n        /* \"@openzeppelin/contracts/token/ERC721/ERC721.sol\":1868:1904  super.supportsInterface(interfaceId) */\n      tag_160\n        /* \"@openzeppelin/contracts/token/ERC721/ERC721.sol\":1892:1903  interfaceId */\n      dup3\n        /* \"@openzeppelin/contracts/token/ERC721/ERC721.sol\":1868:1891  super.supportsInterface */\n      tag_161\n        /* \"@openzeppelin/contracts/token/ERC721/ERC721.sol\":1868:1904  super.supportsInterface(interfaceId) */\n      jump\t// in\n    tag_160:\n        /* \"@openzeppelin/contracts/token/ERC721/ERC721.sol\":1746:1904  interfaceId == type(IERC721).interfaceId ||... */\n    tag_159:\n        /* \"@openzeppelin/contracts/token/ERC721/ERC721.sol\":1726:1904  return... */\n      swap1\n      pop\n        /* \"@openzeppelin/contracts/token/ERC721/ERC721.sol\":1607:1912  function supportsInterface(bytes4 interfaceId) public view virtual override(ERC165, IERC165) returns (bool) {... */\n      swap2\n      swap1\n      pop\n      jump\t// out\n        /* \"@openzeppelin/contracts/token/ERC721/ERC721.sol\":16585:16832  function _requireOwned(uint256 tokenId) internal view returns (address) {... */\n    tag_94:\n        /* \"@openzeppelin/contracts/token/ERC721/ERC721.sol\":16648:16655  address */\n      0x00\n        /* \"@openzeppelin/contracts/token/ERC721/ERC721.sol\":16668:16681  address owner */\n      dup1\n        /* \"@openzeppelin/contracts/token/ERC721/ERC721.sol\":16684:16701  _ownerOf(tokenId) */\n      tag_163\n        /* \"@openzeppelin/contracts/token/ERC721/ERC721.sol\":16693:16700  tokenId */\n      dup4\n        /* \"@openzeppelin/contracts/token/ERC721/ERC721.sol\":16684:16692  _ownerOf */\n      tag_164\n        /* \"@openzeppelin/contracts/token/ERC721/ERC721.sol\":16684:16701  _ownerOf(tokenId) */\n      jump\t// in\n    tag_163:\n        /* \"@openzeppelin/contracts/token/ERC721/ERC721.sol\":16668:16701  address owner = _ownerOf(tokenId) */\n      swap1\n      pop\n        /* \"@openzeppelin/contracts/token/ERC721/ERC721.sol\":16733:16734  0 */\n      0x00\n        /* \"@openzeppelin/contracts/token/ERC721/ERC721.sol\":16716:16735  owner == address(0) */\n      0xffffffffffffffffffffffffffffffffffffffff\n      and\n        /* \"@openzeppelin/contracts/token/ERC721/ERC721.sol\":16716:16721  owner */\n      dup2\n        /* \"@openzeppelin/contracts/token/ERC721/ERC721.sol\":16716:16735  owner == address(0) */\n      0xffffffffffffffffffffffffffffffffffffffff\n      and\n      sub\n        /* \"@openzeppelin/contracts/token/ERC721/ERC721.sol\":16712:16802  if (owner == address(0)) {... */\n      tag_165\n      jumpi\n        /* \"@openzeppelin/contracts/token/ERC721/ERC721.sol\":16782:16789  tokenId */\n      dup3\n        /* \"@openzeppelin/contracts/token/ERC721/ERC721.sol\":16759:16790  ERC721NonexistentToken(tokenId) */\n      mload(0x40)\n      0x7e27328900000000000000000000000000000000000000000000000000000000\n      dup2\n      mstore\n      0x04\n      add\n      tag_166\n      swap2\n      swap1\n      tag_56\n      jump\t// in\n    tag_166:\n      mload(0x40)\n      dup1\n      swap2\n      sub\n      swap1\n      revert\n        /* \"@openzeppelin/contracts/token/ERC721/ERC721.sol\":16712:16802  if (owner == address(0)) {... */\n    tag_165:\n        /* \"@openzeppelin/contracts/token/ERC721/ERC721.sol\":16819:16824  owner */\n      dup1\n        /* \"@openzeppelin/contracts/token/ERC721/ERC721.sol\":16812:16824  return owner */\n      swap2\n      pop\n      pop\n        /* \"@openzeppelin/contracts/token/ERC721/ERC721.sol\":16585:16832  function _requireOwned(uint256 tokenId) internal view returns (address) {... */\n      swap2\n      swap1\n      pop\n      jump\t// out\n        /* \"@openzeppelin/contracts/token/ERC721/ERC721.sol\":6116:6245  function _getApproved(uint256 tokenId) internal view virtual returns (address) {... */\n    tag_96:\n        /* \"@openzeppelin/contracts/token/ERC721/ERC721.sol\":6186:6193  address */\n      0x00\n        /* \"@openzeppelin/contracts/token/ERC721/ERC721.sol\":6213:6228  _tokenApprovals */\n      0x04\n        /* \"@openzeppelin/contracts/token/ERC721/ERC721.sol\":6213:6237  _tokenApprovals[tokenId] */\n      0x00\n        /* \"@openzeppelin/contracts/token/ERC721/ERC721.sol\":6229:6236  tokenId */\n      dup4\n        /* \"@openzeppelin/contracts/token/ERC721/ERC721.sol\":6213:6237  _tokenApprovals[tokenId] */\n      dup2\n      mstore\n      0x20\n      add\n      swap1\n      dup2\n      mstore\n      0x20\n      add\n      0x00\n      keccak256\n      0x00\n      swap1\n      sload\n      swap1\n      0x0100\n      exp\n      swap1\n      div\n      0xffffffffffffffffffffffffffffffffffffffff\n      and\n        /* \"@openzeppelin/contracts/token/ERC721/ERC721.sol\":6206:6237  return _tokenApprovals[tokenId] */\n      swap1\n      pop\n        /* \"@openzeppelin/contracts/token/ERC721/ERC721.sol\":6116:6245  function _getApproved(uint256 tokenId) internal view virtual returns (address) {... */\n      swap2\n      swap1\n      pop\n      jump\t// out\n        /* \"@openzeppelin/contracts/utils/Context.sol\":672:770  function _msgSender() internal view virtual returns (address) {... */\n    tag_100:\n        /* \"@openzeppelin/contracts/utils/Context.sol\":725:732  address */\n      0x00\n        /* \"@openzeppelin/contracts/utils/Context.sol\":752:762  msg.sender */\n      caller\n        /* \"@openzeppelin/contracts/utils/Context.sol\":745:762  return msg.sender */\n      swap1\n      pop\n        /* \"@openzeppelin/contracts/utils/Context.sol\":672:770  function _msgSender() internal view virtual returns (address) {... */\n      swap1\n      jump\t// out\n        /* \"@openzeppelin/contracts/token/ERC721/ERC721.sol\":14817:14939  function _approve(address to, uint256 tokenId, address auth) internal {... */\n    tag_101:\n        /* \"@openzeppelin/contracts/token/ERC721/ERC721.sol\":14898:14931  _approve(to, tokenId, auth, true) */\n      tag_170\n        /* \"@openzeppelin/contracts/token/ERC721/ERC721.sol\":14907:14909  to */\n      dup4\n        /* \"@openzeppelin/contracts/token/ERC721/ERC721.sol\":14911:14918  tokenId */\n      dup4\n        /* \"@openzeppelin/contracts/token/ERC721/ERC721.sol\":14920:14924  auth */\n      dup4\n        /* \"@openzeppelin/contracts/token/ERC721/ERC721.sol\":14926:14930  true */\n      0x01\n        /* \"@openzeppelin/contracts/token/ERC721/ERC721.sol\":14898:14906  _approve */\n      tag_171\n        /* \"@openzeppelin/contracts/token/ERC721/ERC721.sol\":14898:14931  _approve(to, tokenId, auth, true) */\n      jump\t// in\n    tag_170:\n        /* \"@openzeppelin/contracts/token/ERC721/ERC721.sol\":14817:14939  function _approve(address to, uint256 tokenId, address auth) internal {... */\n      pop\n      pop\n      pop\n      jump\t// out\n        /* \"@openzeppelin/contracts/token/ERC721/ERC721.sol\":9078:9902  function _update(address to, uint256 tokenId, address auth) internal virtual returns (address) {... */\n    tag_107:\n        /* \"@openzeppelin/contracts/token/ERC721/ERC721.sol\":9164:9171  address */\n      0x00\n        /* \"@openzeppelin/contracts/token/ERC721/ERC721.sol\":9184:9196  address from */\n      dup1\n        /* \"@openzeppelin/contracts/token/ERC721/ERC721.sol\":9199:9216  _ownerOf(tokenId) */\n      tag_173\n        /* \"@openzeppelin/contracts/token/ERC721/ERC721.sol\":9208:9215  tokenId */\n      dup5\n        /* \"@openzeppelin/contracts/token/ERC721/ERC721.sol\":9199:9207  _ownerOf */\n      tag_164\n        /* \"@openzeppelin/contracts/token/ERC721/ERC721.sol\":9199:9216  _ownerOf(tokenId) */\n      jump\t// in\n    tag_173:\n        /* \"@openzeppelin/contracts/token/ERC721/ERC721.sol\":9184:9216  address from = _ownerOf(tokenId) */\n      swap1\n      pop\n        /* \"@openzeppelin/contracts/token/ERC721/ERC721.sol\":9295:9296  0 */\n      0x00\n        /* \"@openzeppelin/contracts/token/ERC721/ERC721.sol\":9279:9297  auth != address(0) */\n      0xffffffffffffffffffffffffffffffffffffffff\n      and\n        /* \"@openzeppelin/contracts/token/ERC721/ERC721.sol\":9279:9283  auth */\n      dup4\n        /* \"@openzeppelin/contracts/token/ERC721/ERC721.sol\":9279:9297  auth != address(0) */\n      0xffffffffffffffffffffffffffffffffffffffff\n      and\n      eq\n        /* \"@openzeppelin/contracts/token/ERC721/ERC721.sol\":9275:9363  if (auth != address(0)) {... */\n      tag_174\n      jumpi\n        /* \"@openzeppelin/contracts/token/ERC721/ERC721.sol\":9314:9351  _checkAuthorized(from, auth, tokenId) */\n      tag_175\n        /* \"@openzeppelin/contracts/token/ERC721/ERC721.sol\":9331:9335  from */\n      dup2\n        /* \"@openzeppelin/contracts/token/ERC721/ERC721.sol\":9337:9341  auth */\n      dup5\n        /* \"@openzeppelin/contracts/token/ERC721/ERC721.sol\":9343:9350  tokenId */\n      dup7\n        /* \"@openzeppelin/contracts/token/ERC721/ERC721.sol\":9314:9330  _checkAuthorized */\n      tag_176\n        /* \"@openzeppelin/contracts/token/ERC721/ERC721.sol\":9314:9351  _checkAuthorized(from, auth, tokenId) */\n      jump\t// in\n    tag_175:\n        /* \"@openzeppelin/contracts/token/ERC721/ERC721.sol\":9275:9363  if (auth != address(0)) {... */\n    tag_174:\n        /* \"@openzeppelin/contracts/token/ERC721/ERC721.sol\":9426:9427  0 */\n      0x00\n        /* \"@openzeppelin/contracts/token/ERC721/ERC721.sol\":9410:9428  from != address(0) */\n      0xffffffffffffffffffffffffffffffffffffffff\n      and\n        /* \"@openzeppelin/contracts/token/ERC721/ERC721.sol\":9410:9414  from */\n      dup2\n        /* \"@openzeppelin/contracts/token/ERC721/ERC721.sol\":9410:9428  from != address(0) */\n      0xffffffffffffffffffffffffffffffffffffffff\n      and\n      eq\n        /* \"@openzeppelin/contracts/token/ERC721/ERC721.sol\":9406:9669  if (from != address(0)) {... */\n      tag_177\n      jumpi\n        /* \"@openzeppelin/contracts/token/ERC721/ERC721.sol\":9528:9576  _approve(address(0), tokenId, address(0), false) */\n      tag_178\n        /* \"@openzeppelin/contracts/token/ERC721/ERC721.sol\":9545:9546  0 */\n      0x00\n        /* \"@openzeppelin/contracts/token/ERC721/ERC721.sol\":9549:9556  tokenId */\n      dup6\n        /* \"@openzeppelin/contracts/token/ERC721/ERC721.sol\":9566:9567  0 */\n      0x00\n        /* \"@openzeppelin/contracts/token/ERC721/ERC721.sol\":9570:9575  false */\n      dup1\n        /* \"@openzeppelin/contracts/token/ERC721/ERC721.sol\":9528:9536  _approve */\n      tag_171\n        /* \"@openzeppelin/contracts/token/ERC721/ERC721.sol\":9528:9576  _approve(address(0), tokenId, address(0), false) */\n      jump\t// in\n    tag_178:\n        /* \"@openzeppelin/contracts/token/ERC721/ERC721.sol\":9641:9642  1 */\n      0x01\n        /* \"@openzeppelin/contracts/token/ERC721/ERC721.sol\":9622:9631  _balances */\n      0x03\n        /* \"@openzeppelin/contracts/token/ERC721/ERC721.sol\":9622:9637  _balances[from] */\n      0x00\n        /* \"@openzeppelin/contracts/token/ERC721/ERC721.sol\":9632:9636  from */\n      dup4\n        /* \"@openzeppelin/contracts/token/ERC721/ERC721.sol\":9622:9637  _balances[from] */\n      0xffffffffffffffffffffffffffffffffffffffff\n      and\n      0xffffffffffffffffffffffffffffffffffffffff\n      and\n      dup2\n      mstore\n      0x20\n      add\n      swap1\n      dup2\n      mstore\n      0x20\n      add\n      0x00\n      keccak256\n      0x00\n        /* \"@openzeppelin/contracts/token/ERC721/ERC721.sol\":9622:9642  _balances[from] -= 1 */\n      dup3\n      dup3\n      sload\n      sub\n      swap3\n      pop\n      pop\n      dup2\n      swap1\n      sstore\n      pop\n        /* \"@openzeppelin/contracts/token/ERC721/ERC721.sol\":9406:9669  if (from != address(0)) {... */\n    tag_177:\n        /* \"@openzeppelin/contracts/token/ERC721/ERC721.sol\":9699:9700  0 */\n      0x00\n        /* \"@openzeppelin/contracts/token/ERC721/ERC721.sol\":9685:9701  to != address(0) */\n      0xffffffffffffffffffffffffffffffffffffffff\n      and\n        /* \"@openzeppelin/contracts/token/ERC721/ERC721.sol\":9685:9687  to */\n      dup6\n        /* \"@openzeppelin/contracts/token/ERC721/ERC721.sol\":9685:9701  to != address(0) */\n      0xffffffffffffffffffffffffffffffffffffffff\n      and\n      eq\n        /* \"@openzeppelin/contracts/token/ERC721/ERC721.sol\":9681:9792  if (to != address(0)) {... */\n      tag_179\n      jumpi\n        /* \"@openzeppelin/contracts/token/ERC721/ERC721.sol\":9764:9765  1 */\n      0x01\n        /* \"@openzeppelin/contracts/token/ERC721/ERC721.sol\":9747:9756  _balances */\n      0x03\n        /* \"@openzeppelin/contracts/token/ERC721/ERC721.sol\":9747:9760  _balances[to] */\n      0x00\n        /* \"@openzeppelin/contracts/token/ERC721/ERC721.sol\":9757:9759  to */\n      dup8\n        /* \"@openzeppelin/contracts/token/ERC721/ERC721.sol\":9747:9760  _balances[to] */\n      0xffffffffffffffffffffffffffffffffffffffff\n      and\n      0xffffffffffffffffffffffffffffffffffffffff\n      and\n      dup2\n      mstore\n      0x20\n      add\n      swap1\n      dup2\n      mstore\n      0x20\n      add\n      0x00\n      keccak256\n      0x00\n        /* \"@openzeppelin/contracts/token/ERC721/ERC721.sol\":9747:9765  _balances[to] += 1 */\n      dup3\n      dup3\n      sload\n      add\n      swap3\n      pop\n      pop\n      dup2\n      swap1\n      sstore\n      pop\n        /* \"@openzeppelin/contracts/token/ERC721/ERC721.sol\":9681:9792  if (to != address(0)) {... */\n    tag_179:\n        /* \"@openzeppelin/contracts/token/ERC721/ERC721.sol\":9823:9825  to */\n      dup5\n        /* \"@openzeppelin/contracts/token/ERC721/ERC721.sol\":9804:9811  _owners */\n      0x02\n        /* \"@openzeppelin/contracts/token/ERC721/ERC721.sol\":9804:9820  _owners[tokenId] */\n      0x00\n        /* \"@openzeppelin/contracts/token/ERC721/ERC721.sol\":9812:9819  tokenId */\n      dup7\n        /* \"@openzeppelin/contracts/token/ERC721/ERC721.sol\":9804:9820  _owners[tokenId] */\n      dup2\n      mstore\n      0x20\n      add\n      swap1\n      dup2\n      mstore\n      0x20\n      add\n      0x00\n      keccak256\n      0x00\n        /* \"@openzeppelin/contracts/token/ERC721/ERC721.sol\":9804:9825  _owners[tokenId] = to */\n      0x0100\n      exp\n      dup2\n      sload\n      dup2\n      0xffffffffffffffffffffffffffffffffffffffff\n      mul\n      not\n      and\n      swap1\n      dup4\n      0xffffffffffffffffffffffffffffffffffffffff\n      and\n      mul\n      or\n      swap1\n      sstore\n      pop\n        /* \"@openzeppelin/contracts/token/ERC721/ERC721.sol\":9862:9869  tokenId */\n      dup4\n        /* \"@openzeppelin/contracts/token/ERC721/ERC721.sol\":9858:9860  to */\n      dup6\n        /* \"@openzeppelin/contracts/token/ERC721/ERC721.sol\":9843:9870  Transfer(from, to, tokenId) */\n      0xffffffffffffffffffffffffffffffffffffffff\n      and\n        /* \"@openzeppelin/contracts/token/ERC721/ERC721.sol\":9852:9856  from */\n      dup3\n        /* \"@openzeppelin/contracts/token/ERC721/ERC721.sol\":9843:9870  Transfer(from, to, tokenId) */\n      0xffffffffffffffffffffffffffffffffffffffff\n      and\n      0xddf252ad1be2c89b69c2b068fc378daa952ba7f163c4a11628f55a4df523b3ef\n      mload(0x40)\n      mload(0x40)\n      dup1\n      swap2\n      sub\n      swap1\n      log4\n        /* \"@openzeppelin/contracts/token/ERC721/ERC721.sol\":9890:9894  from */\n      dup1\n        /* \"@openzeppelin/contracts/token/ERC721/ERC721.sol\":9883:9894  return from */\n      swap2\n      pop\n      pop\n        /* \"@openzeppelin/contracts/token/ERC721/ERC721.sol\":9078:9902  function _update(address to, uint256 tokenId, address auth) internal virtual returns (address) {... */\n      swap4\n      swap3\n      pop\n      pop\n      pop\n      jump\t// out\n        /* \"@openzeppelin/contracts/token/ERC721/ERC721.sol\":16024:16342  function _setApprovalForAll(address owner, address operator, bool approved) internal virtual {... */\n    tag_127:\n        /* \"@openzeppelin/contracts/token/ERC721/ERC721.sol\":16152:16153  0 */\n      0x00\n        /* \"@openzeppelin/contracts/token/ERC721/ERC721.sol\":16132:16154  operator == address(0) */\n      0xffffffffffffffffffffffffffffffffffffffff\n      and\n        /* \"@openzeppelin/contracts/token/ERC721/ERC721.sol\":16132:16140  operator */\n      dup3\n        /* \"@openzeppelin/contracts/token/ERC721/ERC721.sol\":16132:16154  operator == address(0) */\n      0xffffffffffffffffffffffffffffffffffffffff\n      and\n      sub\n        /* \"@openzeppelin/contracts/token/ERC721/ERC721.sol\":16128:16221  if (operator == address(0)) {... */\n      tag_181\n      jumpi\n        /* \"@openzeppelin/contracts/token/ERC721/ERC721.sol\":16200:16208  operator */\n      dup2\n        /* \"@openzeppelin/contracts/token/ERC721/ERC721.sol\":16178:16209  ERC721InvalidOperator(operator) */\n      mload(0x40)\n      0x5b08ba1800000000000000000000000000000000000000000000000000000000\n      dup2\n      mstore\n      0x04\n      add\n      tag_182\n      swap2\n      swap1\n      tag_35\n      jump\t// in\n    tag_182:\n      mload(0x40)\n      dup1\n      swap2\n      sub\n      swap1\n      revert\n        /* \"@openzeppelin/contracts/token/ERC721/ERC721.sol\":16128:16221  if (operator == address(0)) {... */\n    tag_181:\n        /* \"@openzeppelin/contracts/token/ERC721/ERC721.sol\":16269:16277  approved */\n      dup1\n        /* \"@openzeppelin/contracts/token/ERC721/ERC721.sol\":16231:16249  _operatorApprovals */\n      0x05\n        /* \"@openzeppelin/contracts/token/ERC721/ERC721.sol\":16231:16256  _operatorApprovals[owner] */\n      0x00\n        /* \"@openzeppelin/contracts/token/ERC721/ERC721.sol\":16250:16255  owner */\n      dup6\n        /* \"@openzeppelin/contracts/token/ERC721/ERC721.sol\":16231:16256  _operatorApprovals[owner] */\n      0xffffffffffffffffffffffffffffffffffffffff\n      and\n      0xffffffffffffffffffffffffffffffffffffffff\n      and\n      dup2\n      mstore\n      0x20\n      add\n      swap1\n      dup2\n      mstore\n      0x20\n      add\n      0x00\n      keccak256\n        /* \"@openzeppelin/contracts/token/ERC721/ERC721.sol\":16231:16266  _operatorApprovals[owner][operator] */\n      0x00\n        /* \"@openzeppelin/contracts/token/ERC721/ERC721.sol\":16257:16265  operator */\n      dup5\n        /* \"@openzeppelin/contracts/token/ERC721/ERC721.sol\":16231:16266  _operatorApprovals[owner][operator] */\n      0xffffffffffffffffffffffffffffffffffffffff\n      and\n      0xffffffffffffffffffffffffffffffffffffffff\n      and\n      dup2\n      mstore\n      0x20\n      add\n      swap1\n      dup2\n      mstore\n      0x20\n      add\n      0x00\n      keccak256\n      0x00\n        /* \"@openzeppelin/contracts/token/ERC721/ERC721.sol\":16231:16277  _operatorApprovals[owner][operator] = approved */\n      0x0100\n      exp\n      dup2\n      sload\n      dup2\n      0xff\n      mul\n      not\n      and\n      swap1\n      dup4\n      iszero\n      iszero\n      mul\n      or\n      swap1\n      sstore\n      pop\n        /* \"@openzeppelin/contracts/token/ERC721/ERC721.sol\":16315:16323  operator */\n      dup2\n        /* \"@openzeppelin/contracts/token/ERC721/ERC721.sol\":16293:16334  ApprovalForAll(owner, operator, approved) */\n      0xffffffffffffffffffffffffffffffffffffffff\n      and\n        /* \"@openzeppelin/contracts/token/ERC721/ERC721.sol\":16308:16313  owner */\n      dup4\n        /* \"@openzeppelin/contracts/token/ERC721/ERC721.sol\":16293:16334  ApprovalForAll(owner, operator, approved) */\n      0xffffffffffffffffffffffffffffffffffffffff\n      and\n      0x17307eab39ab6107e8899845ad3d59bd9653f200f220920489ca2b5937696c31\n        /* \"@openzeppelin/contracts/token/ERC721/ERC721.sol\":16325:16333  approved */\n      dup4\n        /* \"@openzeppelin/contracts/token/ERC721/ERC721.sol\":16293:16334  ApprovalForAll(owner, operator, approved) */\n      mload(0x40)\n      tag_183\n      swap2\n      swap1\n      tag_25\n      jump\t// in\n    tag_183:\n      mload(0x40)\n      dup1\n      swap2\n      sub\n      swap1\n      log3\n        /* \"@openzeppelin/contracts/token/ERC721/ERC721.sol\":16024:16342  function _setApprovalForAll(address owner, address operator, bool approved) internal virtual {... */\n      pop\n      pop\n      pop\n      jump\t// out\n        /* \"@openzeppelin/contracts/token/ERC721/ERC721.sol\":17382:18181  function _checkOnERC721Received(address from, address to, uint256 tokenId, bytes memory data) private {... */\n    tag_131:\n        /* \"@openzeppelin/contracts/token/ERC721/ERC721.sol\":17516:17517  0 */\n      0x00\n        /* \"@openzeppelin/contracts/token/ERC721/ERC721.sol\":17499:17501  to */\n      dup4\n        /* \"@openzeppelin/contracts/token/ERC721/ERC721.sol\":17499:17513  to.code.length */\n      0xffffffffffffffffffffffffffffffffffffffff\n      and\n      extcodesize\n        /* \"@openzeppelin/contracts/token/ERC721/ERC721.sol\":17499:17517  to.code.length > 0 */\n      gt\n        /* \"@openzeppelin/contracts/token/ERC721/ERC721.sol\":17495:18174  if (to.code.length > 0) {... */\n      iszero\n      tag_185\n      jumpi\n        /* \"@openzeppelin/contracts/token/ERC721/ERC721.sol\":17554:17556  to */\n      dup3\n        /* \"@openzeppelin/contracts/token/ERC721/ERC721.sol\":17538:17574  IERC721Receiver(to).onERC721Received */\n      0xffffffffffffffffffffffffffffffffffffffff\n      and\n      0x150b7a02\n        /* \"@openzeppelin/contracts/token/ERC721/ERC721.sol\":17575:17587  _msgSender() */\n      tag_186\n        /* \"@openzeppelin/contracts/token/ERC721/ERC721.sol\":17575:17585  _msgSender */\n      tag_100\n        /* \"@openzeppelin/contracts/token/ERC721/ERC721.sol\":17575:17587  _msgSender() */\n      jump\t// in\n    tag_186:\n        /* \"@openzeppelin/contracts/token/ERC721/ERC721.sol\":17589:17593  from */\n      dup7\n        /* \"@openzeppelin/contracts/token/ERC721/ERC721.sol\":17595:17602  tokenId */\n      dup6\n        /* \"@openzeppelin/contracts/token/ERC721/ERC721.sol\":17604:17608  data */\n      dup6\n        /* \"@openzeppelin/contracts/token/ERC721/ERC721.sol\":17538:17609  IERC721Receiver(to).onERC721Received(_msgSender(), from, tokenId, data) */\n      mload(0x40)\n      dup6\n      0xffffffff\n      and\n      0xe0\n      shl\n      dup2\n      mstore\n      0x04\n      add\n      tag_187\n      swap5\n      swap4\n      swap3\n      swap2\n      swap1\n      tag_188\n      jump\t// in\n    tag_187:\n      0x20\n      mload(0x40)\n      dup1\n      dup4\n      sub\n      dup2\n      0x00\n      dup8\n      gas\n      call\n      swap3\n      pop\n      pop\n      pop\n      dup1\n      iszero\n      tag_189\n      jumpi\n      pop\n      mload(0x40)\n      returndatasize\n      not(0x1f)\n      0x1f\n      dup3\n      add\n      and\n      dup3\n      add\n      dup1\n      0x40\n      mstore\n      pop\n      dup2\n      add\n      swap1\n      tag_190\n      swap2\n      swap1\n      tag_191\n      jump\t// in\n    tag_190:\n      0x01\n    tag_189:\n        /* \"@openzeppelin/contracts/token/ERC721/ERC721.sol\":17534:18163  try IERC721Receiver(to).onERC721Received(_msgSender(), from, tokenId, data) returns (bytes4 retval) {... */\n      tag_192\n      jumpi\n      returndatasize\n      dup1\n      0x00\n      dup2\n      eq\n      tag_197\n      jumpi\n      mload(0x40)\n      swap2\n      pop\n      and(add(returndatasize, 0x3f), not(0x1f))\n      dup3\n      add\n      0x40\n      mstore\n      returndatasize\n      dup3\n      mstore\n      returndatasize\n      0x00\n      0x20\n      dup5\n      add\n      returndatacopy\n      jump(tag_196)\n    tag_197:\n      0x60\n      swap2\n      pop\n    tag_196:\n      pop\n        /* \"@openzeppelin/contracts/token/ERC721/ERC721.sol\":17869:17870  0 */\n      0x00\n        /* \"@openzeppelin/contracts/token/ERC721/ERC721.sol\":17852:17858  reason */\n      dup2\n        /* \"@openzeppelin/contracts/token/ERC721/ERC721.sol\":17852:17865  reason.length */\n      mload\n        /* \"@openzeppelin/contracts/token/ERC721/ERC721.sol\":17852:17870  reason.length == 0 */\n      sub\n        /* \"@openzeppelin/contracts/token/ERC721/ERC721.sol\":17848:18148  if (reason.length == 0) {... */\n      tag_198\n      jumpi\n        /* \"@openzeppelin/contracts/token/ERC721/ERC721.sol\":17924:17926  to */\n      dup4\n        /* \"@openzeppelin/contracts/token/ERC721/ERC721.sol\":17902:17927  ERC721InvalidReceiver(to) */\n      mload(0x40)\n      0x64a0ae9200000000000000000000000000000000000000000000000000000000\n      dup2\n      mstore\n      0x04\n      add\n      tag_199\n      swap2\n      swap1\n      tag_35\n      jump\t// in\n    tag_199:\n      mload(0x40)\n      dup1\n      swap2\n      sub\n      swap1\n      revert\n        /* \"@openzeppelin/contracts/token/ERC721/ERC721.sol\":17848:18148  if (reason.length == 0) {... */\n    tag_198:\n        /* \"@openzeppelin/contracts/token/ERC721/ERC721.sol\":18098:18104  reason */\n      dup1\n        /* \"@openzeppelin/contracts/token/ERC721/ERC721.sol\":18092:18105  mload(reason) */\n      mload\n        /* \"@openzeppelin/contracts/token/ERC721/ERC721.sol\":18083:18089  reason */\n      dup2\n        /* \"@openzeppelin/contracts/token/ERC721/ERC721.sol\":18079:18081  32 */\n      0x20\n        /* \"@openzeppelin/contracts/token/ERC721/ERC721.sol\":18075:18090  add(32, reason) */\n      add\n        /* \"@openzeppelin/contracts/token/ERC721/ERC721.sol\":18068:18106  revert(add(32, reason), mload(reason)) */\n      revert\n        /* \"@openzeppelin/contracts/token/ERC721/ERC721.sol\":17534:18163  try IERC721Receiver(to).onERC721Received(_msgSender(), from, tokenId, data) returns (bytes4 retval) {... */\n    tag_192:\n        /* \"@openzeppelin/contracts/token/ERC721/ERC721.sol\":17667:17708  IERC721Receiver.onERC721Received.selector */\n      shl(0xe0, 0x150b7a02)\n        /* \"@openzeppelin/contracts/token/ERC721/ERC721.sol\":17657:17708  retval != IERC721Receiver.onERC721Received.selector */\n      not(0xffffffffffffffffffffffffffffffffffffffffffffffffffffffff)\n      and\n        /* \"@openzeppelin/contracts/token/ERC721/ERC721.sol\":17657:17663  retval */\n      dup2\n        /* \"@openzeppelin/contracts/token/ERC721/ERC721.sol\":17657:17708  retval != IERC721Receiver.onERC721Received.selector */\n      not(0xffffffffffffffffffffffffffffffffffffffffffffffffffffffff)\n      and\n      eq\n        /* \"@openzeppelin/contracts/token/ERC721/ERC721.sol\":17653:17785  if (retval != IERC721Receiver.onERC721Received.selector) {... */\n      tag_202\n      jumpi\n        /* \"@openzeppelin/contracts/token/ERC721/ERC721.sol\":17762:17764  to */\n      dup4\n        /* \"@openzeppelin/contracts/token/ERC721/ERC721.sol\":17740:17765  ERC721InvalidReceiver(to) */\n      mload(0x40)\n      0x64a0ae9200000000000000000000000000000000000000000000000000000000\n      dup2\n      mstore\n      0x04\n      add\n      tag_203\n      swap2\n      swap1\n      tag_35\n      jump\t// in\n    tag_203:\n      mload(0x40)\n      dup1\n      swap2\n      sub\n      swap1\n      revert\n        /* \"@openzeppelin/contracts/token/ERC721/ERC721.sol\":17653:17785  if (retval != IERC721Receiver.onERC721Received.selector) {... */\n    tag_202:\n        /* \"@openzeppelin/contracts/token/ERC721/ERC721.sol\":17610:17800  returns (bytes4 retval) {... */\n      pop\n        /* \"@openzeppelin/contracts/token/ERC721/ERC721.sol\":17495:18174  if (to.code.length > 0) {... */\n    tag_185:\n        /* \"@openzeppelin/contracts/token/ERC721/ERC721.sol\":17382:18181  function _checkOnERC721Received(address from, address to, uint256 tokenId, bytes memory data) private {... */\n      pop\n      pop\n      pop\n      pop\n      jump\t// out\n        /* \"@openzeppelin/contracts/token/ERC721/ERC721.sol\":3273:3367  function _baseURI() internal view virtual returns (string memory) {... */\n    tag_140:\n        /* \"@openzeppelin/contracts/token/ERC721/ERC721.sol\":3324:3337  string memory */\n      0x60\n        /* \"@openzeppelin/contracts/token/ERC721/ERC721.sol\":3350:3359  return \"\" */\n      mload(0x40)\n      dup1\n      0x20\n      add\n      0x40\n      mstore\n      dup1\n      0x00\n      dup2\n      mstore\n      pop\n      swap1\n      pop\n        /* \"@openzeppelin/contracts/token/ERC721/ERC721.sol\":3273:3367  function _baseURI() internal view virtual returns (string memory) {... */\n      swap1\n      jump\t// out\n        /* \"@openzeppelin/contracts/token/ERC721/ERC721.sol\":2764:3024  function tokenURI(uint256 tokenId) public view virtual returns (string memory) {... */\n    tag_146:\n        /* \"@openzeppelin/contracts/token/ERC721/ERC721.sol\":2828:2841  string memory */\n      0x60\n        /* \"@openzeppelin/contracts/token/ERC721/ERC721.sol\":2854:2876  _requireOwned(tokenId) */\n      tag_206\n        /* \"@openzeppelin/contracts/token/ERC721/ERC721.sol\":2868:2875  tokenId */\n      dup3\n        /* \"@openzeppelin/contracts/token/ERC721/ERC721.sol\":2854:2867  _requireOwned */\n      tag_94\n        /* \"@openzeppelin/contracts/token/ERC721/ERC721.sol\":2854:2876  _requireOwned(tokenId) */\n      jump\t// in\n    tag_206:\n      pop\n        /* \"@openzeppelin/contracts/token/ERC721/ERC721.sol\":2889:2910  string memory baseURI */\n      0x00\n        /* \"@openzeppelin/contracts/token/ERC721/ERC721.sol\":2913:2923  _baseURI() */\n      tag_207\n        /* \"@openzeppelin/contracts/token/ERC721/ERC721.sol\":2913:2921  _baseURI */\n      tag_140\n        /* \"@openzeppelin/contracts/token/ERC721/ERC721.sol\":2913:2923  _baseURI() */\n      jump\t// in\n    tag_207:\n        /* \"@openzeppelin/contracts/token/ERC721/ERC721.sol\":2889:2923  string memory baseURI = _baseURI() */\n      swap1\n      pop\n        /* \"@openzeppelin/contracts/token/ERC721/ERC721.sol\":2965:2966  0 */\n      0x00\n        /* \"@openzeppelin/contracts/token/ERC721/ERC721.sol\":2947:2954  baseURI */\n      dup2\n        /* \"@openzeppelin/contracts/token/ERC721/ERC721.sol\":2941:2962  bytes(baseURI).length */\n      mload\n        /* \"@openzeppelin/contracts/token/ERC721/ERC721.sol\":2941:2966  bytes(baseURI).length > 0 */\n      gt\n        /* \"@openzeppelin/contracts/token/ERC721/ERC721.sol\":2941:3016  bytes(baseURI).length > 0 ? string.concat(baseURI, tokenId.toString()) : \"\" */\n      tag_208\n      jumpi\n      mload(0x40)\n      dup1\n      0x20\n      add\n      0x40\n      mstore\n      dup1\n      0x00\n      dup2\n      mstore\n      pop\n      jump(tag_209)\n    tag_208:\n        /* \"@openzeppelin/contracts/token/ERC721/ERC721.sol\":2983:2990  baseURI */\n      dup1\n        /* \"@openzeppelin/contracts/token/ERC721/ERC721.sol\":2992:3010  tokenId.toString() */\n      tag_210\n        /* \"@openzeppelin/contracts/token/ERC721/ERC721.sol\":2992:2999  tokenId */\n      dup5\n        /* \"@openzeppelin/contracts/token/ERC721/ERC721.sol\":2992:3008  tokenId.toString */\n      tag_211\n        /* \"@openzeppelin/contracts/token/ERC721/ERC721.sol\":2992:3010  tokenId.toString() */\n      jump\t// in\n    tag_210:\n        /* \"@openzeppelin/contracts/token/ERC721/ERC721.sol\":2969:3011  string.concat(baseURI, tokenId.toString()) */\n      add(0x20, mload(0x40))\n      tag_212\n      swap3\n      swap2\n      swap1\n      tag_144\n      jump\t// in\n    tag_212:\n      mload(0x40)\n      0x20\n      dup2\n      dup4\n      sub\n      sub\n      dup2\n      mstore\n      swap1\n      0x40\n      mstore\n        /* \"@openzeppelin/contracts/token/ERC721/ERC721.sol\":2941:3016  bytes(baseURI).length > 0 ? string.concat(baseURI, tokenId.toString()) : \"\" */\n    tag_209:\n        /* \"@openzeppelin/contracts/token/ERC721/ERC721.sol\":2934:3016  return bytes(baseURI).length > 0 ? string.concat(baseURI, tokenId.toString()) : \"\" */\n      swap2\n      pop\n      pop\n        /* \"@openzeppelin/contracts/token/ERC721/ERC721.sol\":2764:3024  function tokenURI(uint256 tokenId) public view virtual returns (string memory) {... */\n      swap2\n      swap1\n      pop\n      jump\t// out\n        /* \"@openzeppelin/contracts/token/ERC721/ERC721.sol\":10936:11038  function _safeMint(address to, uint256 tokenId) internal {... */\n    tag_151:\n        /* \"@openzeppelin/contracts/token/ERC721/ERC721.sol\":11004:11030  _safeMint(to, tokenId, \"\") */\n      tag_214\n        /* \"@openzeppelin/contracts/token/ERC721/ERC721.sol\":11014:11016  to */\n      dup3\n        /* \"@openzeppelin/contracts/token/ERC721/ERC721.sol\":11018:11025  tokenId */\n      dup3\n        /* \"@openzeppelin/contracts/token/ERC721/ERC721.sol\":11004:11030  _safeMint(to, tokenId, \"\") */\n      mload(0x40)\n      dup1\n      0x20\n      add\n      0x40\n      mstore\n      dup1\n      0x00\n      dup2\n      mstore\n      pop\n        /* \"@openzeppelin/contracts/token/ERC721/ERC721.sol\":11004:11013  _safeMint */\n      tag_215\n        /* \"@openzeppelin/contracts/token/ERC721/ERC721.sol\":11004:11030  _safeMint(to, tokenId, \"\") */\n      jump\t// in\n    tag_214:\n        /* \"@openzeppelin/contracts/token/ERC721/ERC721.sol\":10936:11038  function _safeMint(address to, uint256 tokenId) internal {... */\n      pop\n      pop\n      jump\t// out\n        /* \"@openzeppelin/contracts/token/ERC721/extensions/ERC721URIStorage.sol\":1978:2148  function _setTokenURI(uint256 tokenId, string memory _tokenURI) internal virtual {... */\n    tag_153:\n        /* \"@openzeppelin/contracts/token/ERC721/extensions/ERC721URIStorage.sol\":2092:2101  _tokenURI */\n      dup1\n        /* \"@openzeppelin/contracts/token/ERC721/extensions/ERC721URIStorage.sol\":2070:2080  _tokenURIs */\n      0x06\n        /* \"@openzeppelin/contracts/token/ERC721/extensions/ERC721URIStorage.sol\":2070:2089  _tokenURIs[tokenId] */\n      0x00\n        /* \"@openzeppelin/contracts/token/ERC721/extensions/ERC721URIStorage.sol\":2081:2088  tokenId */\n      dup5\n        /* \"@openzeppelin/contracts/token/ERC721/extensions/ERC721URIStorage.sol\":2070:2089  _tokenURIs[tokenId] */\n      dup2\n      mstore\n      0x20\n      add\n      swap1\n      dup2\n      mstore\n      0x20\n      add\n      0x00\n      keccak256\n        /* \"@openzeppelin/contracts/token/ERC721/extensions/ERC721URIStorage.sol\":2070:2101  _tokenURIs[tokenId] = _tokenURI */\n      swap1\n      dup2\n      tag_217\n      swap2\n      swap1\n      tag_218\n      jump\t// in\n    tag_217:\n      pop\n        /* \"@openzeppelin/contracts/token/ERC721/extensions/ERC721URIStorage.sol\":2117:2140  MetadataUpdate(tokenId) */\n      0xf8e1a15aba9398e019f0b49df1a4fde98ee17ae345cb5f6b5e2c27f5033e8ce7\n        /* \"@openzeppelin/contracts/token/ERC721/extensions/ERC721URIStorage.sol\":2132:2139  tokenId */\n      dup3\n        /* \"@openzeppelin/contracts/token/ERC721/extensions/ERC721URIStorage.sol\":2117:2140  MetadataUpdate(tokenId) */\n      mload(0x40)\n      tag_219\n      swap2\n      swap1\n      tag_56\n      jump\t// in\n    tag_219:\n      mload(0x40)\n      dup1\n      swap2\n      sub\n      swap1\n      log1\n        /* \"@openzeppelin/contracts/token/ERC721/extensions/ERC721URIStorage.sol\":1978:2148  function _setTokenURI(uint256 tokenId, string memory _tokenURI) internal virtual {... */\n      pop\n      pop\n      jump\t// out\n        /* \"@openzeppelin/contracts/utils/introspection/ERC165.sol\":785:933  function supportsInterface(bytes4 interfaceId) public view virtual returns (bool) {... */\n    tag_161:\n        /* \"@openzeppelin/contracts/utils/introspection/ERC165.sol\":861:865  bool */\n      0x00\n        /* \"@openzeppelin/contracts/utils/introspection/ERC165.sol\":900:925  type(IERC165).interfaceId */\n      0x01ffc9a700000000000000000000000000000000000000000000000000000000\n        /* \"@openzeppelin/contracts/utils/introspection/ERC165.sol\":885:925  interfaceId == type(IERC165).interfaceId */\n      not(0xffffffffffffffffffffffffffffffffffffffffffffffffffffffff)\n      and\n        /* \"@openzeppelin/contracts/utils/introspection/ERC165.sol\":885:896  interfaceId */\n      dup3\n        /* \"@openzeppelin/contracts/utils/introspection/ERC165.sol\":885:925  interfaceId == type(IERC165).interfaceId */\n      not(0xffffffffffffffffffffffffffffffffffffffffffffffffffffffff)\n      and\n      eq\n        /* \"@openzeppelin/contracts/utils/introspection/ERC165.sol\":878:925  return interfaceId == type(IERC165).interfaceId */\n      swap1\n      pop\n        /* \"@openzeppelin/contracts/utils/introspection/ERC165.sol\":785:933  function supportsInterface(bytes4 interfaceId) public view virtual returns (bool) {... */\n      swap2\n      swap1\n      pop\n      jump\t// out\n        /* \"@openzeppelin/contracts/token/ERC721/ERC721.sol\":5878:5995  function _ownerOf(uint256 tokenId) internal view virtual returns (address) {... */\n    tag_164:\n        /* \"@openzeppelin/contracts/token/ERC721/ERC721.sol\":5944:5951  address */\n      0x00\n        /* \"@openzeppelin/contracts/token/ERC721/ERC721.sol\":5971:5978  _owners */\n      0x02\n        /* \"@openzeppelin/contracts/token/ERC721/ERC721.sol\":5971:5987  _owners[tokenId] */\n      0x00\n        /* \"@openzeppelin/contracts/token/ERC721/ERC721.sol\":5979:5986  tokenId */\n      dup4\n        /* \"@openzeppelin/contracts/token/ERC721/ERC721.sol\":5971:5987  _owners[tokenId] */\n      dup2\n      mstore\n      0x20\n      add\n      swap1\n      dup2\n      mstore\n      0x20\n      add\n      0x00\n      keccak256\n      0x00\n      swap1\n      sload\n      swap1\n      0x0100\n      exp\n      swap1\n      div\n      0xffffffffffffffffffffffffffffffffffffffff\n      and\n        /* \"@openzeppelin/contracts/token/ERC721/ERC721.sol\":5964:5987  return _owners[tokenId] */\n      swap1\n      pop\n        /* \"@openzeppelin/contracts/token/ERC721/ERC721.sol\":5878:5995  function _ownerOf(uint256 tokenId) internal view virtual returns (address) {... */\n      swap2\n      swap1\n      pop\n      jump\t// out\n        /* \"@openzeppelin/contracts/token/ERC721/ERC721.sol\":15127:15805  function _approve(address to, uint256 tokenId, address auth, bool emitEvent) internal virtual {... */\n    tag_171:\n        /* \"@openzeppelin/contracts/token/ERC721/ERC721.sol\":15289:15298  emitEvent */\n      dup1\n        /* \"@openzeppelin/contracts/token/ERC721/ERC721.sol\":15289:15320  emitEvent || auth != address(0) */\n      dup1\n      tag_223\n      jumpi\n      pop\n        /* \"@openzeppelin/contracts/token/ERC721/ERC721.sol\":15318:15319  0 */\n      0x00\n        /* \"@openzeppelin/contracts/token/ERC721/ERC721.sol\":15302:15320  auth != address(0) */\n      0xffffffffffffffffffffffffffffffffffffffff\n      and\n        /* \"@openzeppelin/contracts/token/ERC721/ERC721.sol\":15302:15306  auth */\n      dup3\n        /* \"@openzeppelin/contracts/token/ERC721/ERC721.sol\":15302:15320  auth != address(0) */\n      0xffffffffffffffffffffffffffffffffffffffff\n      and\n      eq\n      iszero\n        /* \"@openzeppelin/contracts/token/ERC721/ERC721.sol\":15289:15320  emitEvent || auth != address(0) */\n    tag_223:\n        /* \"@openzeppelin/contracts/token/ERC721/ERC721.sol\":15285:15756  if (emitEvent || auth != address(0)) {... */\n      iszero\n      tag_224\n      jumpi\n        /* \"@openzeppelin/contracts/token/ERC721/ERC721.sol\":15337:15350  address owner */\n      0x00\n        /* \"@openzeppelin/contracts/token/ERC721/ERC721.sol\":15353:15375  _requireOwned(tokenId) */\n      tag_225\n        /* \"@openzeppelin/contracts/token/ERC721/ERC721.sol\":15367:15374  tokenId */\n      dup5\n        /* \"@openzeppelin/contracts/token/ERC721/ERC721.sol\":15353:15366  _requireOwned */\n      tag_94\n        /* \"@openzeppelin/contracts/token/ERC721/ERC721.sol\":15353:15375  _requireOwned(tokenId) */\n      jump\t// in\n    tag_225:\n        /* \"@openzeppelin/contracts/token/ERC721/ERC721.sol\":15337:15375  address owner = _requireOwned(tokenId) */\n      swap1\n      pop\n        /* \"@openzeppelin/contracts/token/ERC721/ERC721.sol\":15522:15523  0 */\n      0x00\n        /* \"@openzeppelin/contracts/token/ERC721/ERC721.sol\":15506:15524  auth != address(0) */\n      0xffffffffffffffffffffffffffffffffffffffff\n      and\n        /* \"@openzeppelin/contracts/token/ERC721/ERC721.sol\":15506:15510  auth */\n      dup4\n        /* \"@openzeppelin/contracts/token/ERC721/ERC721.sol\":15506:15524  auth != address(0) */\n      0xffffffffffffffffffffffffffffffffffffffff\n      and\n      eq\n      iszero\n        /* \"@openzeppelin/contracts/token/ERC721/ERC721.sol\":15506:15541  auth != address(0) && owner != auth */\n      dup1\n      iszero\n      tag_226\n      jumpi\n      pop\n        /* \"@openzeppelin/contracts/token/ERC721/ERC721.sol\":15537:15541  auth */\n      dup3\n        /* \"@openzeppelin/contracts/token/ERC721/ERC721.sol\":15528:15541  owner != auth */\n      0xffffffffffffffffffffffffffffffffffffffff\n      and\n        /* \"@openzeppelin/contracts/token/ERC721/ERC721.sol\":15528:15533  owner */\n      dup2\n        /* \"@openzeppelin/contracts/token/ERC721/ERC721.sol\":15528:15541  owner != auth */\n      0xffffffffffffffffffffffffffffffffffffffff\n      and\n      eq\n      iszero\n        /* \"@openzeppelin/contracts/token/ERC721/ERC721.sol\":15506:15541  auth != address(0) && owner != auth */\n    tag_226:\n        /* \"@openzeppelin/contracts/token/ERC721/ERC721.sol\":15506:15575  auth != address(0) && owner != auth && !isApprovedForAll(owner, auth) */\n      dup1\n      iszero\n      tag_227\n      jumpi\n      pop\n        /* \"@openzeppelin/contracts/token/ERC721/ERC721.sol\":15546:15575  isApprovedForAll(owner, auth) */\n      tag_228\n        /* \"@openzeppelin/contracts/token/ERC721/ERC721.sol\":15563:15568  owner */\n      dup2\n        /* \"@openzeppelin/contracts/token/ERC721/ERC721.sol\":15570:15574  auth */\n      dup5\n        /* \"@openzeppelin/contracts/token/ERC721/ERC721.sol\":15546:15562  isApprovedForAll */\n      tag_79\n        /* \"@openzeppelin/contracts/token/ERC721/ERC721.sol\":15546:15575  isApprovedForAll(owner, auth) */\n      jump\t// in\n    tag_228:\n        /* \"@openzeppelin/contracts/token/ERC721/ERC721.sol\":15545:15575  !isApprovedForAll(owner, auth) */\n      iszero\n        /* \"@openzeppelin/contracts/token/ERC721/ERC721.sol\":15506:15575  auth != address(0) && owner != auth && !isApprovedForAll(owner, auth) */\n    tag_227:\n        /* \"@openzeppelin/contracts/token/ERC721/ERC721.sol\":15502:15646  if (auth != address(0) && owner != auth && !isApprovedForAll(owner, auth)) {... */\n      iszero\n      tag_229\n      jumpi\n        /* \"@openzeppelin/contracts/token/ERC721/ERC721.sol\":15625:15629  auth */\n      dup3\n        /* \"@openzeppelin/contracts/token/ERC721/ERC721.sol\":15603:15630  ERC721InvalidApprover(auth) */\n      mload(0x40)\n      0xa9fbf51f00000000000000000000000000000000000000000000000000000000\n      dup2\n      mstore\n      0x04\n      add\n      tag_230\n      swap2\n      swap1\n      tag_35\n      jump\t// in\n    tag_230:\n      mload(0x40)\n      dup1\n      swap2\n      sub\n      swap1\n      revert\n        /* \"@openzeppelin/contracts/token/ERC721/ERC721.sol\":15502:15646  if (auth != address(0) && owner != auth && !isApprovedForAll(owner, auth)) {... */\n    tag_229:\n        /* \"@openzeppelin/contracts/token/ERC721/ERC721.sol\":15666:15675  emitEvent */\n      dup2\n        /* \"@openzeppelin/contracts/token/ERC721/ERC721.sol\":15662:15745  if (emitEvent) {... */\n      iszero\n      tag_231\n      jumpi\n        /* \"@openzeppelin/contracts/token/ERC721/ERC721.sol\":15721:15728  tokenId */\n      dup4\n        /* \"@openzeppelin/contracts/token/ERC721/ERC721.sol\":15717:15719  to */\n      dup6\n        /* \"@openzeppelin/contracts/token/ERC721/ERC721.sol\":15701:15729  Approval(owner, to, tokenId) */\n      0xffffffffffffffffffffffffffffffffffffffff\n      and\n        /* \"@openzeppelin/contracts/token/ERC721/ERC721.sol\":15710:15715  owner */\n      dup3\n        /* \"@openzeppelin/contracts/token/ERC721/ERC721.sol\":15701:15729  Approval(owner, to, tokenId) */\n      0xffffffffffffffffffffffffffffffffffffffff\n      and\n      0x8c5be1e5ebec7d5bd14f71427d1e84f3dd0314c0f7b2291e5b200ac8c7c3b925\n      mload(0x40)\n      mload(0x40)\n      dup1\n      swap2\n      sub\n      swap1\n      log4\n        /* \"@openzeppelin/contracts/token/ERC721/ERC721.sol\":15662:15745  if (emitEvent) {... */\n    tag_231:\n        /* \"@openzeppelin/contracts/token/ERC721/ERC721.sol\":15322:15756  {... */\n      pop\n        /* \"@openzeppelin/contracts/token/ERC721/ERC721.sol\":15285:15756  if (emitEvent || auth != address(0)) {... */\n    tag_224:\n        /* \"@openzeppelin/contracts/token/ERC721/ERC721.sol\":15795:15797  to */\n      dup4\n        /* \"@openzeppelin/contracts/token/ERC721/ERC721.sol\":15768:15783  _tokenApprovals */\n      0x04\n        /* \"@openzeppelin/contracts/token/ERC721/ERC721.sol\":15768:15792  _tokenApprovals[tokenId] */\n      0x00\n        /* \"@openzeppelin/contracts/token/ERC721/ERC721.sol\":15784:15791  tokenId */\n      dup6\n        /* \"@openzeppelin/contracts/token/ERC721/ERC721.sol\":15768:15792  _tokenApprovals[tokenId] */\n      dup2\n      mstore\n      0x20\n      add\n      swap1\n      dup2\n      mstore\n      0x20\n      add\n      0x00\n      keccak256\n      0x00\n        /* \"@openzeppelin/contracts/token/ERC721/ERC721.sol\":15768:15797  _tokenApprovals[tokenId] = to */\n      0x0100\n      exp\n      dup2\n      sload\n      dup2\n      0xffffffffffffffffffffffffffffffffffffffff\n      mul\n      not\n      and\n      swap1\n      dup4\n      0xffffffffffffffffffffffffffffffffffffffff\n      and\n      mul\n      or\n      swap1\n      sstore\n      pop\n        /* \"@openzeppelin/contracts/token/ERC721/ERC721.sol\":15127:15805  function _approve(address to, uint256 tokenId, address auth, bool emitEvent) internal virtual {... */\n      pop\n      pop\n      pop\n      pop\n      jump\t// out\n        /* \"@openzeppelin/contracts/token/ERC721/ERC721.sol\":7285:7661  function _checkAuthorized(address owner, address spender, uint256 tokenId) internal view virtual {... */\n    tag_176:\n        /* \"@openzeppelin/contracts/token/ERC721/ERC721.sol\":7398:7436  _isAuthorized(owner, spender, tokenId) */\n      tag_233\n        /* \"@openzeppelin/contracts/token/ERC721/ERC721.sol\":7412:7417  owner */\n      dup4\n        /* \"@openzeppelin/contracts/token/ERC721/ERC721.sol\":7419:7426  spender */\n      dup4\n        /* \"@openzeppelin/contracts/token/ERC721/ERC721.sol\":7428:7435  tokenId */\n      dup4\n        /* \"@openzeppelin/contracts/token/ERC721/ERC721.sol\":7398:7411  _isAuthorized */\n      tag_234\n        /* \"@openzeppelin/contracts/token/ERC721/ERC721.sol\":7398:7436  _isAuthorized(owner, spender, tokenId) */\n      jump\t// in\n    tag_233:\n        /* \"@openzeppelin/contracts/token/ERC721/ERC721.sol\":7393:7654  if (!_isAuthorized(owner, spender, tokenId)) {... */\n      tag_235\n      jumpi\n        /* \"@openzeppelin/contracts/token/ERC721/ERC721.sol\":7474:7475  0 */\n      0x00\n        /* \"@openzeppelin/contracts/token/ERC721/ERC721.sol\":7457:7476  owner == address(0) */\n      0xffffffffffffffffffffffffffffffffffffffff\n      and\n        /* \"@openzeppelin/contracts/token/ERC721/ERC721.sol\":7457:7462  owner */\n      dup4\n        /* \"@openzeppelin/contracts/token/ERC721/ERC721.sol\":7457:7476  owner == address(0) */\n      0xffffffffffffffffffffffffffffffffffffffff\n      and\n      sub\n        /* \"@openzeppelin/contracts/token/ERC721/ERC721.sol\":7453:7643  if (owner == address(0)) {... */\n      tag_236\n      jumpi\n        /* \"@openzeppelin/contracts/token/ERC721/ERC721.sol\":7527:7534  tokenId */\n      dup1\n        /* \"@openzeppelin/contracts/token/ERC721/ERC721.sol\":7504:7535  ERC721NonexistentToken(tokenId) */\n      mload(0x40)\n      0x7e27328900000000000000000000000000000000000000000000000000000000\n      dup2\n      mstore\n      0x04\n      add\n      tag_237\n      swap2\n      swap1\n      tag_56\n      jump\t// in\n    tag_237:\n      mload(0x40)\n      dup1\n      swap2\n      sub\n      swap1\n      revert\n        /* \"@openzeppelin/contracts/token/ERC721/ERC721.sol\":7453:7643  if (owner == address(0)) {... */\n    tag_236:\n        /* \"@openzeppelin/contracts/token/ERC721/ERC721.sol\":7610:7617  spender */\n      dup2\n        /* \"@openzeppelin/contracts/token/ERC721/ERC721.sol\":7619:7626  tokenId */\n      dup2\n        /* \"@openzeppelin/contracts/token/ERC721/ERC721.sol\":7583:7627  ERC721InsufficientApproval(spender, tokenId) */\n      mload(0x40)\n      0x177e802f00000000000000000000000000000000000000000000000000000000\n      dup2\n      mstore\n      0x04\n      add\n      tag_239\n      swap3\n      swap2\n      swap1\n      tag_240\n      jump\t// in\n    tag_239:\n      mload(0x40)\n      dup1\n      swap2\n      sub\n      swap1\n      revert\n        /* \"@openzeppelin/contracts/token/ERC721/ERC721.sol\":7393:7654  if (!_isAuthorized(owner, spender, tokenId)) {... */\n    tag_235:\n        /* \"@openzeppelin/contracts/token/ERC721/ERC721.sol\":7285:7661  function _checkAuthorized(address owner, address spender, uint256 tokenId) internal view virtual {... */\n      pop\n      pop\n      pop\n      jump\t// out\n        /* \"@openzeppelin/contracts/utils/Strings.sol\":660:1378  function toString(uint256 value) internal pure returns (string memory) {... */\n    tag_211:\n        /* \"@openzeppelin/contracts/utils/Strings.sol\":716:729  string memory */\n      0x60\n        /* \"@openzeppelin/contracts/utils/Strings.sol\":767:781  uint256 length */\n      0x00\n        /* \"@openzeppelin/contracts/utils/Strings.sol\":804:805  1 */\n      0x01\n        /* \"@openzeppelin/contracts/utils/Strings.sol\":784:801  Math.log10(value) */\n      tag_242\n        /* \"@openzeppelin/contracts/utils/Strings.sol\":795:800  value */\n      dup5\n        /* \"@openzeppelin/contracts/utils/Strings.sol\":784:794  Math.log10 */\n      tag_243\n        /* \"@openzeppelin/contracts/utils/Strings.sol\":784:801  Math.log10(value) */\n      jump\t// in\n    tag_242:\n        /* \"@openzeppelin/contracts/utils/Strings.sol\":784:805  Math.log10(value) + 1 */\n      add\n        /* \"@openzeppelin/contracts/utils/Strings.sol\":767:805  uint256 length = Math.log10(value) + 1 */\n      swap1\n      pop\n        /* \"@openzeppelin/contracts/utils/Strings.sol\":820:840  string memory buffer */\n      0x00\n        /* \"@openzeppelin/contracts/utils/Strings.sol\":854:860  length */\n      dup2\n        /* \"@openzeppelin/contracts/utils/Strings.sol\":843:861  new string(length) */\n      0xffffffffffffffff\n      dup2\n      gt\n      iszero\n      tag_244\n      jumpi\n      tag_245\n      tag_246\n      jump\t// in\n    tag_245:\n    tag_244:\n      mload(0x40)\n      swap1\n      dup1\n      dup3\n      mstore\n      dup1\n      0x1f\n      add\n      not(0x1f)\n      and\n      0x20\n      add\n      dup3\n      add\n      0x40\n      mstore\n      dup1\n      iszero\n      tag_247\n      jumpi\n      dup2\n      0x20\n      add\n      0x01\n      dup3\n      mul\n      dup1\n      calldatasize\n      dup4\n      calldatacopy\n      dup1\n      dup3\n      add\n      swap2\n      pop\n      pop\n      swap1\n      pop\n    tag_247:\n      pop\n        /* \"@openzeppelin/contracts/utils/Strings.sol\":820:861  string memory buffer = new string(length) */\n      swap1\n      pop\n        /* \"@openzeppelin/contracts/utils/Strings.sol\":876:887  uint256 ptr */\n      0x00\n        /* \"@openzeppelin/contracts/utils/Strings.sol\":1005:1011  length */\n      dup3\n        /* \"@openzeppelin/contracts/utils/Strings.sol\":1001:1003  32 */\n      0x20\n        /* \"@openzeppelin/contracts/utils/Strings.sol\":997:1012  add(32, length) */\n      add\n        /* \"@openzeppelin/contracts/utils/Strings.sol\":989:995  buffer */\n      dup3\n        /* \"@openzeppelin/contracts/utils/Strings.sol\":985:1013  add(buffer, add(32, length)) */\n      add\n        /* \"@openzeppelin/contracts/utils/Strings.sol\":978:1013  ptr := add(buffer, add(32, length)) */\n      swap1\n      pop\n        /* \"@openzeppelin/contracts/utils/Strings.sol\":1042:1332  while (true) {... */\n    tag_248:\n        /* \"@openzeppelin/contracts/utils/Strings.sol\":1049:1053  true */\n      0x01\n        /* \"@openzeppelin/contracts/utils/Strings.sol\":1042:1332  while (true) {... */\n      iszero\n      tag_249\n      jumpi\n        /* \"@openzeppelin/contracts/utils/Strings.sol\":1074:1079  ptr-- */\n      dup1\n      dup1\n      0x01\n      swap1\n      sub\n      swap2\n      pop\n      pop\n        /* \"@openzeppelin/contracts/utils/Strings.sol\":1216:1226  HEX_DIGITS */\n      0x3031323334353637383961626364656600000000000000000000000000000000\n        /* \"@openzeppelin/contracts/utils/Strings.sol\":1211:1213  10 */\n      0x0a\n        /* \"@openzeppelin/contracts/utils/Strings.sol\":1204:1209  value */\n      dup7\n        /* \"@openzeppelin/contracts/utils/Strings.sol\":1200:1214  mod(value, 10) */\n      mod\n        /* \"@openzeppelin/contracts/utils/Strings.sol\":1195:1227  byte(mod(value, 10), HEX_DIGITS) */\n      byte\n        /* \"@openzeppelin/contracts/utils/Strings.sol\":1190:1193  ptr */\n      dup2\n        /* \"@openzeppelin/contracts/utils/Strings.sol\":1182:1228  mstore8(ptr, byte(mod(value, 10), HEX_DIGITS)) */\n      mstore8\n        /* \"@openzeppelin/contracts/utils/Strings.sol\":1274:1276  10 */\n      0x0a\n        /* \"@openzeppelin/contracts/utils/Strings.sol\":1265:1276  value /= 10 */\n      dup6\n      dup2\n      tag_250\n      jumpi\n      tag_251\n      tag_252\n      jump\t// in\n    tag_251:\n    tag_250:\n      div\n      swap5\n      pop\n        /* \"@openzeppelin/contracts/utils/Strings.sol\":1308:1309  0 */\n      0x00\n        /* \"@openzeppelin/contracts/utils/Strings.sol\":1299:1304  value */\n      dup6\n        /* \"@openzeppelin/contracts/utils/Strings.sol\":1299:1309  value == 0 */\n      sub\n        /* \"@openzeppelin/contracts/utils/Strings.sol\":1042:1332  while (true) {... */\n      tag_248\n        /* \"@openzeppelin/contracts/utils/Strings.sol\":1295:1316  if (value == 0) break */\n      jumpi\n        /* \"@openzeppelin/contracts/utils/Strings.sol\":1042:1332  while (true) {... */\n    tag_249:\n        /* \"@openzeppelin/contracts/utils/Strings.sol\":1353:1359  buffer */\n      dup2\n        /* \"@openzeppelin/contracts/utils/Strings.sol\":1346:1359  return buffer */\n      swap4\n      pop\n      pop\n      pop\n      pop\n        /* \"@openzeppelin/contracts/utils/Strings.sol\":660:1378  function toString(uint256 value) internal pure returns (string memory) {... */\n      swap2\n      swap1\n      pop\n      jump\t// out\n        /* \"@openzeppelin/contracts/token/ERC721/ERC721.sol\":11265:11450  function _safeMint(address to, uint256 tokenId, bytes memory data) internal virtual {... */\n    tag_215:\n        /* \"@openzeppelin/contracts/token/ERC721/ERC721.sol\":11360:11378  _mint(to, tokenId) */\n      tag_255\n        /* \"@openzeppelin/contracts/token/ERC721/ERC721.sol\":11366:11368  to */\n      dup4\n        /* \"@openzeppelin/contracts/token/ERC721/ERC721.sol\":11370:11377  tokenId */\n      dup4\n        /* \"@openzeppelin/contracts/token/ERC721/ERC721.sol\":11360:11365  _mint */\n      tag_256\n        /* \"@openzeppelin/contracts/token/ERC721/ERC721.sol\":11360:11378  _mint(to, tokenId) */\n      jump\t// in\n    tag_255:\n        /* \"@openzeppelin/contracts/token/ERC721/ERC721.sol\":11389:11442  _checkOnERC721Received(address(0), to, tokenId, data) */\n      tag_257\n        /* \"@openzeppelin/contracts/token/ERC721/ERC721.sol\":11420:11421  0 */\n      0x00\n        /* \"@openzeppelin/contracts/token/ERC721/ERC721.sol\":11424:11426  to */\n      dup5\n        /* \"@openzeppelin/contracts/token/ERC721/ERC721.sol\":11428:11435  tokenId */\n      dup5\n        /* \"@openzeppelin/contracts/token/ERC721/ERC721.sol\":11437:11441  data */\n      dup5\n        /* \"@openzeppelin/contracts/token/ERC721/ERC721.sol\":11389:11411  _checkOnERC721Received */\n      tag_131\n        /* \"@openzeppelin/contracts/token/ERC721/ERC721.sol\":11389:11442  _checkOnERC721Received(address(0), to, tokenId, data) */\n      jump\t// in\n    tag_257:\n        /* \"@openzeppelin/contracts/token/ERC721/ERC721.sol\":11265:11450  function _safeMint(address to, uint256 tokenId, bytes memory data) internal virtual {... */\n      pop\n      pop\n      pop\n      jump\t// out\n        /* \"@openzeppelin/contracts/token/ERC721/ERC721.sol\":6565:6841  function _isAuthorized(address owner, address spender, uint256 tokenId) internal view virtual returns (bool) {... */\n    tag_234:\n        /* \"@openzeppelin/contracts/token/ERC721/ERC721.sol\":6668:6672  bool */\n      0x00\n        /* \"@openzeppelin/contracts/token/ERC721/ERC721.sol\":6724:6725  0 */\n      dup1\n        /* \"@openzeppelin/contracts/token/ERC721/ERC721.sol\":6705:6726  spender != address(0) */\n      0xffffffffffffffffffffffffffffffffffffffff\n      and\n        /* \"@openzeppelin/contracts/token/ERC721/ERC721.sol\":6705:6712  spender */\n      dup4\n        /* \"@openzeppelin/contracts/token/ERC721/ERC721.sol\":6705:6726  spender != address(0) */\n      0xffffffffffffffffffffffffffffffffffffffff\n      and\n      eq\n      iszero\n        /* \"@openzeppelin/contracts/token/ERC721/ERC721.sol\":6705:6833  spender != address(0) &&... */\n      dup1\n      iszero\n      tag_259\n      jumpi\n      pop\n        /* \"@openzeppelin/contracts/token/ERC721/ERC721.sol\":6753:6760  spender */\n      dup3\n        /* \"@openzeppelin/contracts/token/ERC721/ERC721.sol\":6744:6760  owner == spender */\n      0xffffffffffffffffffffffffffffffffffffffff\n      and\n        /* \"@openzeppelin/contracts/token/ERC721/ERC721.sol\":6744:6749  owner */\n      dup5\n        /* \"@openzeppelin/contracts/token/ERC721/ERC721.sol\":6744:6760  owner == spender */\n      0xffffffffffffffffffffffffffffffffffffffff\n      and\n      eq\n        /* \"@openzeppelin/contracts/token/ERC721/ERC721.sol\":6744:6796  owner == spender || isApprovedForAll(owner, spender) */\n      dup1\n      tag_260\n      jumpi\n      pop\n        /* \"@openzeppelin/contracts/token/ERC721/ERC721.sol\":6764:6796  isApprovedForAll(owner, spender) */\n      tag_261\n        /* \"@openzeppelin/contracts/token/ERC721/ERC721.sol\":6781:6786  owner */\n      dup5\n        /* \"@openzeppelin/contracts/token/ERC721/ERC721.sol\":6788:6795  spender */\n      dup5\n        /* \"@openzeppelin/contracts/token/ERC721/ERC721.sol\":6764:6780  isApprovedForAll */\n      tag_79\n        /* \"@openzeppelin/contracts/token/ERC721/ERC721.sol\":6764:6796  isApprovedForAll(owner, spender) */\n      jump\t// in\n    tag_261:\n        /* \"@openzeppelin/contracts/token/ERC721/ERC721.sol\":6744:6796  owner == spender || isApprovedForAll(owner, spender) */\n    tag_260:\n        /* \"@openzeppelin/contracts/token/ERC721/ERC721.sol\":6744:6832  owner == spender || isApprovedForAll(owner, spender) || _getApproved(tokenId) == spender */\n      dup1\n      tag_262\n      jumpi\n      pop\n        /* \"@openzeppelin/contracts/token/ERC721/ERC721.sol\":6825:6832  spender */\n      dup3\n        /* \"@openzeppelin/contracts/token/ERC721/ERC721.sol\":6800:6832  _getApproved(tokenId) == spender */\n      0xffffffffffffffffffffffffffffffffffffffff\n      and\n        /* \"@openzeppelin/contracts/token/ERC721/ERC721.sol\":6800:6821  _getApproved(tokenId) */\n      tag_263\n        /* \"@openzeppelin/contracts/token/ERC721/ERC721.sol\":6813:6820  tokenId */\n      dup4\n        /* \"@openzeppelin/contracts/token/ERC721/ERC721.sol\":6800:6812  _getApproved */\n      tag_96\n        /* \"@openzeppelin/contracts/token/ERC721/ERC721.sol\":6800:6821  _getApproved(tokenId) */\n      jump\t// in\n    tag_263:\n        /* \"@openzeppelin/contracts/token/ERC721/ERC721.sol\":6800:6832  _getApproved(tokenId) == spender */\n      0xffffffffffffffffffffffffffffffffffffffff\n      and\n      eq\n        /* \"@openzeppelin/contracts/token/ERC721/ERC721.sol\":6744:6832  owner == spender || isApprovedForAll(owner, spender) || _getApproved(tokenId) == spender */\n    tag_262:\n        /* \"@openzeppelin/contracts/token/ERC721/ERC721.sol\":6705:6833  spender != address(0) &&... */\n    tag_259:\n        /* \"@openzeppelin/contracts/token/ERC721/ERC721.sol\":6685:6833  return... */\n      swap1\n      pop\n        /* \"@openzeppelin/contracts/token/ERC721/ERC721.sol\":6565:6841  function _isAuthorized(address owner, address spender, uint256 tokenId) internal view virtual returns (bool) {... */\n      swap4\n      swap3\n      pop\n      pop\n      pop\n      jump\t// out\n        /* \"@openzeppelin/contracts/utils/math/Math.sol\":12534:13482  function log10(uint256 value) internal pure returns (uint256) {... */\n    tag_243:\n        /* \"@openzeppelin/contracts/utils/math/Math.sol\":12587:12594  uint256 */\n      0x00\n        /* \"@openzeppelin/contracts/utils/math/Math.sol\":12607:12621  uint256 result */\n      dup1\n        /* \"@openzeppelin/contracts/utils/math/Math.sol\":12624:12625  0 */\n      0x00\n        /* \"@openzeppelin/contracts/utils/math/Math.sol\":12607:12625  uint256 result = 0 */\n      swap1\n      pop\n        /* \"@openzeppelin/contracts/utils/math/Math.sol\":12674:12682  10 ** 64 */\n      0x184f03e93ff9f4daa797ed6e38ed64bf6a1f010000000000000000\n        /* \"@openzeppelin/contracts/utils/math/Math.sol\":12665:12670  value */\n      dup4\n        /* \"@openzeppelin/contracts/utils/math/Math.sol\":12665:12682  value >= 10 ** 64 */\n      lt\n        /* \"@openzeppelin/contracts/utils/math/Math.sol\":12661:12767  if (value >= 10 ** 64) {... */\n      tag_265\n      jumpi\n        /* \"@openzeppelin/contracts/utils/math/Math.sol\":12712:12720  10 ** 64 */\n      0x184f03e93ff9f4daa797ed6e38ed64bf6a1f010000000000000000\n        /* \"@openzeppelin/contracts/utils/math/Math.sol\":12703:12720  value /= 10 ** 64 */\n      dup4\n      dup2\n      tag_266\n      jumpi\n      tag_267\n      tag_252\n      jump\t// in\n    tag_267:\n    tag_266:\n      div\n      swap3\n      pop\n        /* \"@openzeppelin/contracts/utils/math/Math.sol\":12749:12751  64 */\n      0x40\n        /* \"@openzeppelin/contracts/utils/math/Math.sol\":12739:12751  result += 64 */\n      dup2\n      add\n      swap1\n      pop\n        /* \"@openzeppelin/contracts/utils/math/Math.sol\":12661:12767  if (value >= 10 ** 64) {... */\n    tag_265:\n        /* \"@openzeppelin/contracts/utils/math/Math.sol\":12794:12802  10 ** 32 */\n      0x04ee2d6d415b85acef8100000000\n        /* \"@openzeppelin/contracts/utils/math/Math.sol\":12785:12790  value */\n      dup4\n        /* \"@openzeppelin/contracts/utils/math/Math.sol\":12785:12802  value >= 10 ** 32 */\n      lt\n        /* \"@openzeppelin/contracts/utils/math/Math.sol\":12781:12887  if (value >= 10 ** 32) {... */\n      tag_268\n      jumpi\n        /* \"@openzeppelin/contracts/utils/math/Math.sol\":12832:12840  10 ** 32 */\n      0x04ee2d6d415b85acef8100000000\n        /* \"@openzeppelin/contracts/utils/math/Math.sol\":12823:12840  value /= 10 ** 32 */\n      dup4\n      dup2\n      tag_269\n      jumpi\n      tag_270\n      tag_252\n      jump\t// in\n    tag_270:\n    tag_269:\n      div\n      swap3\n      pop\n        /* \"@openzeppelin/contracts/utils/math/Math.sol\":12869:12871  32 */\n      0x20\n        /* \"@openzeppelin/contracts/utils/math/Math.sol\":12859:12871  result += 32 */\n      dup2\n      add\n      swap1\n      pop\n        /* \"@openzeppelin/contracts/utils/math/Math.sol\":12781:12887  if (value >= 10 ** 32) {... */\n    tag_268:\n        /* \"@openzeppelin/contracts/utils/math/Math.sol\":12914:12922  10 ** 16 */\n      0x2386f26fc10000\n        /* \"@openzeppelin/contracts/utils/math/Math.sol\":12905:12910  value */\n      dup4\n        /* \"@openzeppelin/contracts/utils/math/Math.sol\":12905:12922  value >= 10 ** 16 */\n      lt\n        /* \"@openzeppelin/contracts/utils/math/Math.sol\":12901:13007  if (value >= 10 ** 16) {... */\n      tag_271\n      jumpi\n        /* \"@openzeppelin/contracts/utils/math/Math.sol\":12952:12960  10 ** 16 */\n      0x2386f26fc10000\n        /* \"@openzeppelin/contracts/utils/math/Math.sol\":12943:12960  value /= 10 ** 16 */\n      dup4\n      dup2\n      tag_272\n      jumpi\n      tag_273\n      tag_252\n      jump\t// in\n    tag_273:\n    tag_272:\n      div\n      swap3\n      pop\n        /* \"@openzeppelin/contracts/utils/math/Math.sol\":12989:12991  16 */\n      0x10\n        /* \"@openzeppelin/contracts/utils/math/Math.sol\":12979:12991  result += 16 */\n      dup2\n      add\n      swap1\n      pop\n        /* \"@openzeppelin/contracts/utils/math/Math.sol\":12901:13007  if (value >= 10 ** 16) {... */\n    tag_271:\n        /* \"@openzeppelin/contracts/utils/math/Math.sol\":13034:13041  10 ** 8 */\n      0x05f5e100\n        /* \"@openzeppelin/contracts/utils/math/Math.sol\":13025:13030  value */\n      dup4\n        /* \"@openzeppelin/contracts/utils/math/Math.sol\":13025:13041  value >= 10 ** 8 */\n      lt\n        /* \"@openzeppelin/contracts/utils/math/Math.sol\":13021:13124  if (value >= 10 ** 8) {... */\n      tag_274\n      jumpi\n        /* \"@openzeppelin/contracts/utils/math/Math.sol\":13071:13078  10 ** 8 */\n      0x05f5e100\n        /* \"@openzeppelin/contracts/utils/math/Math.sol\":13062:13078  value /= 10 ** 8 */\n      dup4\n      dup2\n      tag_275\n      jumpi\n      tag_276\n      tag_252\n      jump\t// in\n    tag_276:\n    tag_275:\n      div\n      swap3\n      pop\n        /* \"@openzeppelin/contracts/utils/math/Math.sol\":13107:13108  8 */\n      0x08\n        /* \"@openzeppelin/contracts/utils/math/Math.sol\":13097:13108  result += 8 */\n      dup2\n      add\n      swap1\n      pop\n        /* \"@openzeppelin/contracts/utils/math/Math.sol\":13021:13124  if (value >= 10 ** 8) {... */\n    tag_274:\n        /* \"@openzeppelin/contracts/utils/math/Math.sol\":13151:13158  10 ** 4 */\n      0x2710\n        /* \"@openzeppelin/contracts/utils/math/Math.sol\":13142:13147  value */\n      dup4\n        /* \"@openzeppelin/contracts/utils/math/Math.sol\":13142:13158  value >= 10 ** 4 */\n      lt\n        /* \"@openzeppelin/contracts/utils/math/Math.sol\":13138:13241  if (value >= 10 ** 4) {... */\n      tag_277\n      jumpi\n        /* \"@openzeppelin/contracts/utils/math/Math.sol\":13188:13195  10 ** 4 */\n      0x2710\n        /* \"@openzeppelin/contracts/utils/math/Math.sol\":13179:13195  value /= 10 ** 4 */\n      dup4\n      dup2\n      tag_278\n      jumpi\n      tag_279\n      tag_252\n      jump\t// in\n    tag_279:\n    tag_278:\n      div\n      swap3\n      pop\n        /* \"@openzeppelin/contracts/utils/math/Math.sol\":13224:13225  4 */\n      0x04\n        /* \"@openzeppelin/contracts/utils/math/Math.sol\":13214:13225  result += 4 */\n      dup2\n      add\n      swap1\n      pop\n        /* \"@openzeppelin/contracts/utils/math/Math.sol\":13138:13241  if (value >= 10 ** 4) {... */\n    tag_277:\n        /* \"@openzeppelin/contracts/utils/math/Math.sol\":13268:13275  10 ** 2 */\n      0x64\n        /* \"@openzeppelin/contracts/utils/math/Math.sol\":13259:13264  value */\n      dup4\n        /* \"@openzeppelin/contracts/utils/math/Math.sol\":13259:13275  value >= 10 ** 2 */\n      lt\n        /* \"@openzeppelin/contracts/utils/math/Math.sol\":13255:13358  if (value >= 10 ** 2) {... */\n      tag_280\n      jumpi\n        /* \"@openzeppelin/contracts/utils/math/Math.sol\":13305:13312  10 ** 2 */\n      0x64\n        /* \"@openzeppelin/contracts/utils/math/Math.sol\":13296:13312  value /= 10 ** 2 */\n      dup4\n      dup2\n      tag_281\n      jumpi\n      tag_282\n      tag_252\n      jump\t// in\n    tag_282:\n    tag_281:\n      div\n      swap3\n      pop\n        /* \"@openzeppelin/contracts/utils/math/Math.sol\":13341:13342  2 */\n      0x02\n        /* \"@openzeppelin/contracts/utils/math/Math.sol\":13331:13342  result += 2 */\n      dup2\n      add\n      swap1\n      pop\n        /* \"@openzeppelin/contracts/utils/math/Math.sol\":13255:13358  if (value >= 10 ** 2) {... */\n    tag_280:\n        /* \"@openzeppelin/contracts/utils/math/Math.sol\":13385:13392  10 ** 1 */\n      0x0a\n        /* \"@openzeppelin/contracts/utils/math/Math.sol\":13376:13381  value */\n      dup4\n        /* \"@openzeppelin/contracts/utils/math/Math.sol\":13376:13392  value >= 10 ** 1 */\n      lt\n        /* \"@openzeppelin/contracts/utils/math/Math.sol\":13372:13440  if (value >= 10 ** 1) {... */\n      tag_283\n      jumpi\n        /* \"@openzeppelin/contracts/utils/math/Math.sol\":13423:13424  1 */\n      0x01\n        /* \"@openzeppelin/contracts/utils/math/Math.sol\":13413:13424  result += 1 */\n      dup2\n      add\n      swap1\n      pop\n        /* \"@openzeppelin/contracts/utils/math/Math.sol\":13372:13440  if (value >= 10 ** 1) {... */\n    tag_283:\n        /* \"@openzeppelin/contracts/utils/math/Math.sol\":13468:13474  result */\n      dup1\n        /* \"@openzeppelin/contracts/utils/math/Math.sol\":13461:13474  return result */\n      swap2\n      pop\n      pop\n        /* \"@openzeppelin/contracts/utils/math/Math.sol\":12534:13482  function log10(uint256 value) internal pure returns (uint256) {... */\n      swap2\n      swap1\n      pop\n      jump\t// out\n        /* \"@openzeppelin/contracts/token/ERC721/ERC721.sol\":10238:10573  function _mint(address to, uint256 tokenId) internal {... */\n    tag_256:\n        /* \"@openzeppelin/contracts/token/ERC721/ERC721.sol\":10320:10321  0 */\n      0x00\n        /* \"@openzeppelin/contracts/token/ERC721/ERC721.sol\":10306:10322  to == address(0) */\n      0xffffffffffffffffffffffffffffffffffffffff\n      and\n        /* \"@openzeppelin/contracts/token/ERC721/ERC721.sol\":10306:10308  to */\n      dup3\n        /* \"@openzeppelin/contracts/token/ERC721/ERC721.sol\":10306:10322  to == address(0) */\n      0xffffffffffffffffffffffffffffffffffffffff\n      and\n      sub\n        /* \"@openzeppelin/contracts/token/ERC721/ERC721.sol\":10302:10391  if (to == address(0)) {... */\n      tag_285\n      jumpi\n        /* \"@openzeppelin/contracts/token/ERC721/ERC721.sol\":10376:10377  0 */\n      0x00\n        /* \"@openzeppelin/contracts/token/ERC721/ERC721.sol\":10346:10379  ERC721InvalidReceiver(address(0)) */\n      mload(0x40)\n      0x64a0ae9200000000000000000000000000000000000000000000000000000000\n      dup2\n      mstore\n      0x04\n      add\n      tag_286\n      swap2\n      swap1\n      tag_35\n      jump\t// in\n    tag_286:\n      mload(0x40)\n      dup1\n      swap2\n      sub\n      swap1\n      revert\n        /* \"@openzeppelin/contracts/token/ERC721/ERC721.sol\":10302:10391  if (to == address(0)) {... */\n    tag_285:\n        /* \"@openzeppelin/contracts/token/ERC721/ERC721.sol\":10401:10422  address previousOwner */\n      0x00\n        /* \"@openzeppelin/contracts/token/ERC721/ERC721.sol\":10425:10457  _update(to, tokenId, address(0)) */\n      tag_287\n        /* \"@openzeppelin/contracts/token/ERC721/ERC721.sol\":10433:10435  to */\n      dup4\n        /* \"@openzeppelin/contracts/token/ERC721/ERC721.sol\":10437:10444  tokenId */\n      dup4\n        /* \"@openzeppelin/contracts/token/ERC721/ERC721.sol\":10454:10455  0 */\n      0x00\n        /* \"@openzeppelin/contracts/token/ERC721/ERC721.sol\":10425:10432  _update */\n      tag_107\n        /* \"@openzeppelin/contracts/token/ERC721/ERC721.sol\":10425:10457  _update(to, tokenId, address(0)) */\n      jump\t// in\n    tag_287:\n        /* \"@openzeppelin/contracts/token/ERC721/ERC721.sol\":10401:10457  address previousOwner = _update(to, tokenId, address(0)) */\n      swap1\n      pop\n        /* \"@openzeppelin/contracts/token/ERC721/ERC721.sol\":10497:10498  0 */\n      0x00\n        /* \"@openzeppelin/contracts/token/ERC721/ERC721.sol\":10472:10499  previousOwner != address(0) */\n      0xffffffffffffffffffffffffffffffffffffffff\n      and\n        /* \"@openzeppelin/contracts/token/ERC721/ERC721.sol\":10472:10485  previousOwner */\n      dup2\n        /* \"@openzeppelin/contracts/token/ERC721/ERC721.sol\":10472:10499  previousOwner != address(0) */\n      0xffffffffffffffffffffffffffffffffffffffff\n      and\n      eq\n        /* \"@openzeppelin/contracts/token/ERC721/ERC721.sol\":10468:10566  if (previousOwner != address(0)) {... */\n      tag_288\n      jumpi\n        /* \"@openzeppelin/contracts/token/ERC721/ERC721.sol\":10551:10552  0 */\n      0x00\n        /* \"@openzeppelin/contracts/token/ERC721/ERC721.sol\":10523:10554  ERC721InvalidSender(address(0)) */\n      mload(0x40)\n      0x73c6ac6e00000000000000000000000000000000000000000000000000000000\n      dup2\n      mstore\n      0x04\n      add\n      tag_289\n      swap2\n      swap1\n      tag_35\n      jump\t// in\n    tag_289:\n      mload(0x40)\n      dup1\n      swap2\n      sub\n      swap1\n      revert\n        /* \"@openzeppelin/contracts/token/ERC721/ERC721.sol\":10468:10566  if (previousOwner != address(0)) {... */\n    tag_288:\n        /* \"@openzeppelin/contracts/token/ERC721/ERC721.sol\":10291:10573  {... */\n      pop\n        /* \"@openzeppelin/contracts/token/ERC721/ERC721.sol\":10238:10573  function _mint(address to, uint256 tokenId) internal {... */\n      pop\n      pop\n      jump\t// out\n        /* \"#utility.yul\":7:82   */\n    tag_290:\n        /* \"#utility.yul\":40:46   */\n      0x00\n        /* \"#utility.yul\":73:75   */\n      0x40\n        /* \"#utility.yul\":67:76   */\n      mload\n        /* \"#utility.yul\":57:76   */\n      swap1\n      pop\n        /* \"#utility.yul\":7:82   */\n      swap1\n      jump\t// out\n        /* \"#utility.yul\":88:205   */\n    tag_291:\n        /* \"#utility.yul\":197:198   */\n      0x00\n        /* \"#utility.yul\":194:195   */\n      dup1\n        /* \"#utility.yul\":187:199   */\n      revert\n        /* \"#utility.yul\":211:328   */\n    tag_292:\n        /* \"#utility.yul\":320:321   */\n      0x00\n        /* \"#utility.yul\":317:318   */\n      dup1\n        /* \"#utility.yul\":310:322   */\n      revert\n        /* \"#utility.yul\":334:483   */\n    tag_293:\n        /* \"#utility.yul\":370:377   */\n      0x00\n        /* \"#utility.yul\":410:476   */\n      0xffffffff00000000000000000000000000000000000000000000000000000000\n        /* \"#utility.yul\":403:408   */\n      dup3\n        /* \"#utility.yul\":399:477   */\n      and\n        /* \"#utility.yul\":388:477   */\n      swap1\n      pop\n        /* \"#utility.yul\":334:483   */\n      swap2\n      swap1\n      pop\n      jump\t// out\n        /* \"#utility.yul\":489:609   */\n    tag_294:\n        /* \"#utility.yul\":561:584   */\n      tag_354\n        /* \"#utility.yul\":578:583   */\n      dup2\n        /* \"#utility.yul\":561:584   */\n      tag_293\n      jump\t// in\n    tag_354:\n        /* \"#utility.yul\":554:559   */\n      dup2\n        /* \"#utility.yul\":551:585   */\n      eq\n        /* \"#utility.yul\":541:603   */\n      tag_355\n      jumpi\n        /* \"#utility.yul\":599:600   */\n      0x00\n        /* \"#utility.yul\":596:597   */\n      dup1\n        /* \"#utility.yul\":589:601   */\n      revert\n        /* \"#utility.yul\":541:603   */\n    tag_355:\n        /* \"#utility.yul\":489:609   */\n      pop\n      jump\t// out\n        /* \"#utility.yul\":615:752   */\n    tag_295:\n        /* \"#utility.yul\":660:665   */\n      0x00\n        /* \"#utility.yul\":698:704   */\n      dup2\n        /* \"#utility.yul\":685:705   */\n      calldataload\n        /* \"#utility.yul\":676:705   */\n      swap1\n      pop\n        /* \"#utility.yul\":714:746   */\n      tag_357\n        /* \"#utility.yul\":740:745   */\n      dup2\n        /* \"#utility.yul\":714:746   */\n      tag_294\n      jump\t// in\n    tag_357:\n        /* \"#utility.yul\":615:752   */\n      swap3\n      swap2\n      pop\n      pop\n      jump\t// out\n        /* \"#utility.yul\":758:1085   */\n    tag_22:\n        /* \"#utility.yul\":816:822   */\n      0x00\n        /* \"#utility.yul\":865:867   */\n      0x20\n        /* \"#utility.yul\":853:862   */\n      dup3\n        /* \"#utility.yul\":844:851   */\n      dup5\n        /* \"#utility.yul\":840:863   */\n      sub\n        /* \"#utility.yul\":836:868   */\n      slt\n        /* \"#utility.yul\":833:952   */\n      iszero\n      tag_359\n      jumpi\n        /* \"#utility.yul\":871:950   */\n      tag_360\n      tag_291\n      jump\t// in\n    tag_360:\n        /* \"#utility.yul\":833:952   */\n    tag_359:\n        /* \"#utility.yul\":991:992   */\n      0x00\n        /* \"#utility.yul\":1016:1068   */\n      tag_361\n        /* \"#utility.yul\":1060:1067   */\n      dup5\n        /* \"#utility.yul\":1051:1057   */\n      dup3\n        /* \"#utility.yul\":1040:1049   */\n      dup6\n        /* \"#utility.yul\":1036:1058   */\n      add\n        /* \"#utility.yul\":1016:1068   */\n      tag_295\n      jump\t// in\n    tag_361:\n        /* \"#utility.yul\":1006:1068   */\n      swap2\n      pop\n        /* \"#utility.yul\":962:1078   */\n      pop\n        /* \"#utility.yul\":758:1085   */\n      swap3\n      swap2\n      pop\n      pop\n      jump\t// out\n        /* \"#utility.yul\":1091:1181   */\n    tag_296:\n        /* \"#utility.yul\":1125:1132   */\n      0x00\n        /* \"#utility.yul\":1168:1173   */\n      dup2\n        /* \"#utility.yul\":1161:1174   */\n      iszero\n        /* \"#utility.yul\":1154:1175   */\n      iszero\n        /* \"#utility.yul\":1143:1175   */\n      swap1\n      pop\n        /* \"#utility.yul\":1091:1181   */\n      swap2\n      swap1\n      pop\n      jump\t// out\n        /* \"#utility.yul\":1187:1296   */\n    tag_297:\n        /* \"#utility.yul\":1268:1289   */\n      tag_364\n        /* \"#utility.yul\":1283:1288   */\n      dup2\n        /* \"#utility.yul\":1268:1289   */\n      tag_296\n      jump\t// in\n    tag_364:\n        /* \"#utility.yul\":1263:1266   */\n      dup3\n        /* \"#utility.yul\":1256:1290   */\n      mstore\n        /* \"#utility.yul\":1187:1296   */\n      pop\n      pop\n      jump\t// out\n        /* \"#utility.yul\":1302:1512   */\n    tag_25:\n        /* \"#utility.yul\":1389:1393   */\n      0x00\n        /* \"#utility.yul\":1427:1429   */\n      0x20\n        /* \"#utility.yul\":1416:1425   */\n      dup3\n        /* \"#utility.yul\":1412:1430   */\n      add\n        /* \"#utility.yul\":1404:1430   */\n      swap1\n      pop\n        /* \"#utility.yul\":1440:1505   */\n      tag_366\n        /* \"#utility.yul\":1502:1503   */\n      0x00\n        /* \"#utility.yul\":1491:1500   */\n      dup4\n        /* \"#utility.yul\":1487:1504   */\n      add\n        /* \"#utility.yul\":1478:1484   */\n      dup5\n        /* \"#utility.yul\":1440:1505   */\n      tag_297\n      jump\t// in\n    tag_366:\n        /* \"#utility.yul\":1302:1512   */\n      swap3\n      swap2\n      pop\n      pop\n      jump\t// out\n        /* \"#utility.yul\":1518:1617   */\n    tag_298:\n        /* \"#utility.yul\":1570:1576   */\n      0x00\n        /* \"#utility.yul\":1604:1609   */\n      dup2\n        /* \"#utility.yul\":1598:1610   */\n      mload\n        /* \"#utility.yul\":1588:1610   */\n      swap1\n      pop\n        /* \"#utility.yul\":1518:1617   */\n      swap2\n      swap1\n      pop\n      jump\t// out\n        /* \"#utility.yul\":1623:1792   */\n    tag_299:\n        /* \"#utility.yul\":1707:1718   */\n      0x00\n        /* \"#utility.yul\":1741:1747   */\n      dup3\n        /* \"#utility.yul\":1736:1739   */\n      dup3\n        /* \"#utility.yul\":1729:1748   */\n      mstore\n        /* \"#utility.yul\":1781:1785   */\n      0x20\n        /* \"#utility.yul\":1776:1779   */\n      dup3\n        /* \"#utility.yul\":1772:1786   */\n      add\n        /* \"#utility.yul\":1757:1786   */\n      swap1\n      pop\n        /* \"#utility.yul\":1623:1792   */\n      swap3\n      swap2\n      pop\n      pop\n      jump\t// out\n        /* \"#utility.yul\":1798:2044   */\n    tag_300:\n        /* \"#utility.yul\":1879:1880   */\n      0x00\n        /* \"#utility.yul\":1889:2002   */\n    tag_370:\n        /* \"#utility.yul\":1903:1909   */\n      dup4\n        /* \"#utility.yul\":1900:1901   */\n      dup2\n        /* \"#utility.yul\":1897:1910   */\n      lt\n        /* \"#utility.yul\":1889:2002   */\n      iszero\n      tag_372\n      jumpi\n        /* \"#utility.yul\":1988:1989   */\n      dup1\n        /* \"#utility.yul\":1983:1986   */\n      dup3\n        /* \"#utility.yul\":1979:1990   */\n      add\n        /* \"#utility.yul\":1973:1991   */\n      mload\n        /* \"#utility.yul\":1969:1970   */\n      dup2\n        /* \"#utility.yul\":1964:1967   */\n      dup5\n        /* \"#utility.yul\":1960:1971   */\n      add\n        /* \"#utility.yul\":1953:1992   */\n      mstore\n        /* \"#utility.yul\":1925:1927   */\n      0x20\n        /* \"#utility.yul\":1922:1923   */\n      dup2\n        /* \"#utility.yul\":1918:1928   */\n      add\n        /* \"#utility.yul\":1913:1928   */\n      swap1\n      pop\n        /* \"#utility.yul\":1889:2002   */\n      jump(tag_370)\n    tag_372:\n        /* \"#utility.yul\":2036:2037   */\n      0x00\n        /* \"#utility.yul\":2027:2033   */\n      dup5\n        /* \"#utility.yul\":2022:2025   */\n      dup5\n        /* \"#utility.yul\":2018:2034   */\n      add\n        /* \"#utility.yul\":2011:2038   */\n      mstore\n        /* \"#utility.yul\":1860:2044   */\n      pop\n        /* \"#utility.yul\":1798:2044   */\n      pop\n      pop\n      pop\n      jump\t// out\n        /* \"#utility.yul\":2050:2152   */\n    tag_301:\n        /* \"#utility.yul\":2091:2097   */\n      0x00\n        /* \"#utility.yul\":2142:2144   */\n      0x1f\n        /* \"#utility.yul\":2138:2145   */\n      not\n        /* \"#utility.yul\":2133:2135   */\n      0x1f\n        /* \"#utility.yul\":2126:2131   */\n      dup4\n        /* \"#utility.yul\":2122:2136   */\n      add\n        /* \"#utility.yul\":2118:2146   */\n      and\n        /* \"#utility.yul\":2108:2146   */\n      swap1\n      pop\n        /* \"#utility.yul\":2050:2152   */\n      swap2\n      swap1\n      pop\n      jump\t// out\n        /* \"#utility.yul\":2158:2535   */\n    tag_302:\n        /* \"#utility.yul\":2246:2249   */\n      0x00\n        /* \"#utility.yul\":2274:2313   */\n      tag_375\n        /* \"#utility.yul\":2307:2312   */\n      dup3\n        /* \"#utility.yul\":2274:2313   */\n      tag_298\n      jump\t// in\n    tag_375:\n        /* \"#utility.yul\":2329:2400   */\n      tag_376\n        /* \"#utility.yul\":2393:2399   */\n      dup2\n        /* \"#utility.yul\":2388:2391   */\n      dup6\n        /* \"#utility.yul\":2329:2400   */\n      tag_299\n      jump\t// in\n    tag_376:\n        /* \"#utility.yul\":2322:2400   */\n      swap4\n      pop\n        /* \"#utility.yul\":2409:2474   */\n      tag_377\n        /* \"#utility.yul\":2467:2473   */\n      dup2\n        /* \"#utility.yul\":2462:2465   */\n      dup6\n        /* \"#utility.yul\":2455:2459   */\n      0x20\n        /* \"#utility.yul\":2448:2453   */\n      dup7\n        /* \"#utility.yul\":2444:2460   */\n      add\n        /* \"#utility.yul\":2409:2474   */\n      tag_300\n      jump\t// in\n    tag_377:\n        /* \"#utility.yul\":2499:2528   */\n      tag_378\n        /* \"#utility.yul\":2521:2527   */\n      dup2\n        /* \"#utility.yul\":2499:2528   */\n      tag_301\n      jump\t// in\n    tag_378:\n        /* \"#utility.yul\":2494:2497   */\n      dup5\n        /* \"#utility.yul\":2490:2529   */\n      add\n        /* \"#utility.yul\":2483:2529   */\n      swap2\n      pop\n        /* \"#utility.yul\":2250:2535   */\n      pop\n        /* \"#utility.yul\":2158:2535   */\n      swap3\n      swap2\n      pop\n      pop\n      jump\t// out\n        /* \"#utility.yul\":2541:2854   */\n    tag_29:\n        /* \"#utility.yul\":2654:2658   */\n      0x00\n        /* \"#utility.yul\":2692:2694   */\n      0x20\n        /* \"#utility.yul\":2681:2690   */\n      dup3\n        /* \"#utility.yul\":2677:2695   */\n      add\n        /* \"#utility.yul\":2669:2695   */\n      swap1\n      pop\n        /* \"#utility.yul\":2741:2750   */\n      dup2\n        /* \"#utility.yul\":2735:2739   */\n      dup2\n        /* \"#utility.yul\":2731:2751   */\n      sub\n        /* \"#utility.yul\":2727:2728   */\n      0x00\n        /* \"#utility.yul\":2716:2725   */\n      dup4\n        /* \"#utility.yul\":2712:2729   */\n      add\n        /* \"#utility.yul\":2705:2752   */\n      mstore\n        /* \"#utility.yul\":2769:2847   */\n      tag_380\n        /* \"#utility.yul\":2842:2846   */\n      dup2\n        /* \"#utility.yul\":2833:2839   */\n      dup5\n        /* \"#utility.yul\":2769:2847   */\n      tag_302\n      jump\t// in\n    tag_380:\n        /* \"#utility.yul\":2761:2847   */\n      swap1\n      pop\n        /* \"#utility.yul\":2541:2854   */\n      swap3\n      swap2\n      pop\n      pop\n      jump\t// out\n        /* \"#utility.yul\":2860:2937   */\n    tag_303:\n        /* \"#utility.yul\":2897:2904   */\n      0x00\n        /* \"#utility.yul\":2926:2931   */\n      dup2\n        /* \"#utility.yul\":2915:2931   */\n      swap1\n      pop\n        /* \"#utility.yul\":2860:2937   */\n      swap2\n      swap1\n      pop\n      jump\t// out\n        /* \"#utility.yul\":2943:3065   */\n    tag_304:\n        /* \"#utility.yul\":3016:3040   */\n      tag_383\n        /* \"#utility.yul\":3034:3039   */\n      dup2\n        /* \"#utility.yul\":3016:3040   */\n      tag_303\n      jump\t// in\n    tag_383:\n        /* \"#utility.yul\":3009:3014   */\n      dup2\n        /* \"#utility.yul\":3006:3041   */\n      eq\n        /* \"#utility.yul\":2996:3059   */\n      tag_384\n      jumpi\n        /* \"#utility.yul\":3055:3056   */\n      0x00\n        /* \"#utility.yul\":3052:3053   */\n      dup1\n        /* \"#utility.yul\":3045:3057   */\n      revert\n        /* \"#utility.yul\":2996:3059   */\n    tag_384:\n        /* \"#utility.yul\":2943:3065   */\n      pop\n      jump\t// out\n        /* \"#utility.yul\":3071:3210   */\n    tag_305:\n        /* \"#utility.yul\":3117:3122   */\n      0x00\n        /* \"#utility.yul\":3155:3161   */\n      dup2\n        /* \"#utility.yul\":3142:3162   */\n      calldataload\n        /* \"#utility.yul\":3133:3162   */\n      swap1\n      pop\n        /* \"#utility.yul\":3171:3204   */\n      tag_386\n        /* \"#utility.yul\":3198:3203   */\n      dup2\n        /* \"#utility.yul\":3171:3204   */\n      tag_304\n      jump\t// in\n    tag_386:\n        /* \"#utility.yul\":3071:3210   */\n      swap3\n      swap2\n      pop\n      pop\n      jump\t// out\n        /* \"#utility.yul\":3216:3545   */\n    tag_32:\n        /* \"#utility.yul\":3275:3281   */\n      0x00\n        /* \"#utility.yul\":3324:3326   */\n      0x20\n        /* \"#utility.yul\":3312:3321   */\n      dup3\n        /* \"#utility.yul\":3303:3310   */\n      dup5\n        /* \"#utility.yul\":3299:3322   */\n      sub\n        /* \"#utility.yul\":3295:3327   */\n      slt\n        /* \"#utility.yul\":3292:3411   */\n      iszero\n      tag_388\n      jumpi\n        /* \"#utility.yul\":3330:3409   */\n      tag_389\n      tag_291\n      jump\t// in\n    tag_389:\n        /* \"#utility.yul\":3292:3411   */\n    tag_388:\n        /* \"#utility.yul\":3450:3451   */\n      0x00\n        /* \"#utility.yul\":3475:3528   */\n      tag_390\n        /* \"#utility.yul\":3520:3527   */\n      dup5\n        /* \"#utility.yul\":3511:3517   */\n      dup3\n        /* \"#utility.yul\":3500:3509   */\n      dup6\n        /* \"#utility.yul\":3496:3518   */\n      add\n        /* \"#utility.yul\":3475:3528   */\n      tag_305\n      jump\t// in\n    tag_390:\n        /* \"#utility.yul\":3465:3528   */\n      swap2\n      pop\n        /* \"#utility.yul\":3421:3538   */\n      pop\n        /* \"#utility.yul\":3216:3545   */\n      swap3\n      swap2\n      pop\n      pop\n      jump\t// out\n        /* \"#utility.yul\":3551:3677   */\n    tag_306:\n        /* \"#utility.yul\":3588:3595   */\n      0x00\n        /* \"#utility.yul\":3628:3670   */\n      0xffffffffffffffffffffffffffffffffffffffff\n        /* \"#utility.yul\":3621:3626   */\n      dup3\n        /* \"#utility.yul\":3617:3671   */\n      and\n        /* \"#utility.yul\":3606:3671   */\n      swap1\n      pop\n        /* \"#utility.yul\":3551:3677   */\n      swap2\n      swap1\n      pop\n      jump\t// out\n        /* \"#utility.yul\":3683:3779   */\n    tag_307:\n        /* \"#utility.yul\":3720:3727   */\n      0x00\n        /* \"#utility.yul\":3749:3773   */\n      tag_393\n        /* \"#utility.yul\":3767:3772   */\n      dup3\n        /* \"#utility.yul\":3749:3773   */\n      tag_306\n      jump\t// in\n    tag_393:\n        /* \"#utility.yul\":3738:3773   */\n      swap1\n      pop\n        /* \"#utility.yul\":3683:3779   */\n      swap2\n      swap1\n      pop\n      jump\t// out\n        /* \"#utility.yul\":3785:3903   */\n    tag_308:\n        /* \"#utility.yul\":3872:3896   */\n      tag_395\n        /* \"#utility.yul\":3890:3895   */\n      dup2\n        /* \"#utility.yul\":3872:3896   */\n      tag_307\n      jump\t// in\n    tag_395:\n        /* \"#utility.yul\":3867:3870   */\n      dup3\n        /* \"#utility.yul\":3860:3897   */\n      mstore\n        /* \"#utility.yul\":3785:3903   */\n      pop\n      pop\n      jump\t// out\n        /* \"#utility.yul\":3909:4131   */\n    tag_35:\n        /* \"#utility.yul\":4002:4006   */\n      0x00\n        /* \"#utility.yul\":4040:4042   */\n      0x20\n        /* \"#utility.yul\":4029:4038   */\n      dup3\n        /* \"#utility.yul\":4025:4043   */\n      add\n        /* \"#utility.yul\":4017:4043   */\n      swap1\n      pop\n        /* \"#utility.yul\":4053:4124   */\n      tag_397\n        /* \"#utility.yul\":4121:4122   */\n      0x00\n        /* \"#utility.yul\":4110:4119   */\n      dup4\n        /* \"#utility.yul\":4106:4123   */\n      add\n        /* \"#utility.yul\":4097:4103   */\n      dup5\n        /* \"#utility.yul\":4053:4124   */\n      tag_308\n      jump\t// in\n    tag_397:\n        /* \"#utility.yul\":3909:4131   */\n      swap3\n      swap2\n      pop\n      pop\n      jump\t// out\n        /* \"#utility.yul\":4137:4259   */\n    tag_309:\n        /* \"#utility.yul\":4210:4234   */\n      tag_399\n        /* \"#utility.yul\":4228:4233   */\n      dup2\n        /* \"#utility.yul\":4210:4234   */\n      tag_307\n      jump\t// in\n    tag_399:\n        /* \"#utility.yul\":4203:4208   */\n      dup2\n        /* \"#utility.yul\":4200:4235   */\n      eq\n        /* \"#utility.yul\":4190:4253   */\n      tag_400\n      jumpi\n        /* \"#utility.yul\":4249:4250   */\n      0x00\n        /* \"#utility.yul\":4246:4247   */\n      dup1\n        /* \"#utility.yul\":4239:4251   */\n      revert\n        /* \"#utility.yul\":4190:4253   */\n    tag_400:\n        /* \"#utility.yul\":4137:4259   */\n      pop\n      jump\t// out\n        /* \"#utility.yul\":4265:4404   */\n    tag_310:\n        /* \"#utility.yul\":4311:4316   */\n      0x00\n        /* \"#utility.yul\":4349:4355   */\n      dup2\n        /* \"#utility.yul\":4336:4356   */\n      calldataload\n        /* \"#utility.yul\":4327:4356   */\n      swap1\n      pop\n        /* \"#utility.yul\":4365:4398   */\n      tag_402\n        /* \"#utility.yul\":4392:4397   */\n      dup2\n        /* \"#utility.yul\":4365:4398   */\n      tag_309\n      jump\t// in\n    tag_402:\n        /* \"#utility.yul\":4265:4404   */\n      swap3\n      swap2\n      pop\n      pop\n      jump\t// out\n        /* \"#utility.yul\":4410:4884   */\n    tag_38:\n        /* \"#utility.yul\":4478:4484   */\n      0x00\n        /* \"#utility.yul\":4486:4492   */\n      dup1\n        /* \"#utility.yul\":4535:4537   */\n      0x40\n        /* \"#utility.yul\":4523:4532   */\n      dup4\n        /* \"#utility.yul\":4514:4521   */\n      dup6\n        /* \"#utility.yul\":4510:4533   */\n      sub\n        /* \"#utility.yul\":4506:4538   */\n      slt\n        /* \"#utility.yul\":4503:4622   */\n      iszero\n      tag_404\n      jumpi\n        /* \"#utility.yul\":4541:4620   */\n      tag_405\n      tag_291\n      jump\t// in\n    tag_405:\n        /* \"#utility.yul\":4503:4622   */\n    tag_404:\n        /* \"#utility.yul\":4661:4662   */\n      0x00\n        /* \"#utility.yul\":4686:4739   */\n      tag_406\n        /* \"#utility.yul\":4731:4738   */\n      dup6\n        /* \"#utility.yul\":4722:4728   */\n      dup3\n        /* \"#utility.yul\":4711:4720   */\n      dup7\n        /* \"#utility.yul\":4707:4729   */\n      add\n        /* \"#utility.yul\":4686:4739   */\n      tag_310\n      jump\t// in\n    tag_406:\n        /* \"#utility.yul\":4676:4739   */\n      swap3\n      pop\n        /* \"#utility.yul\":4632:4749   */\n      pop\n        /* \"#utility.yul\":4788:4790   */\n      0x20\n        /* \"#utility.yul\":4814:4867   */\n      tag_407\n        /* \"#utility.yul\":4859:4866   */\n      dup6\n        /* \"#utility.yul\":4850:4856   */\n      dup3\n        /* \"#utility.yul\":4839:4848   */\n      dup7\n        /* \"#utility.yul\":4835:4857   */\n      add\n        /* \"#utility.yul\":4814:4867   */\n      tag_305\n      jump\t// in\n    tag_407:\n        /* \"#utility.yul\":4804:4867   */\n      swap2\n      pop\n        /* \"#utility.yul\":4759:4877   */\n      pop\n        /* \"#utility.yul\":4410:4884   */\n      swap3\n      pop\n      swap3\n      swap1\n      pop\n      jump\t// out\n        /* \"#utility.yul\":4890:5509   */\n    tag_42:\n        /* \"#utility.yul\":4967:4973   */\n      0x00\n        /* \"#utility.yul\":4975:4981   */\n      dup1\n        /* \"#utility.yul\":4983:4989   */\n      0x00\n        /* \"#utility.yul\":5032:5034   */\n      0x60\n        /* \"#utility.yul\":5020:5029   */\n      dup5\n        /* \"#utility.yul\":5011:5018   */\n      dup7\n        /* \"#utility.yul\":5007:5030   */\n      sub\n        /* \"#utility.yul\":5003:5035   */\n      slt\n        /* \"#utility.yul\":5000:5119   */\n      iszero\n      tag_409\n      jumpi\n        /* \"#utility.yul\":5038:5117   */\n      tag_410\n      tag_291\n      jump\t// in\n    tag_410:\n        /* \"#utility.yul\":5000:5119   */\n    tag_409:\n        /* \"#utility.yul\":5158:5159   */\n      0x00\n        /* \"#utility.yul\":5183:5236   */\n      tag_411\n        /* \"#utility.yul\":5228:5235   */\n      dup7\n        /* \"#utility.yul\":5219:5225   */\n      dup3\n        /* \"#utility.yul\":5208:5217   */\n      dup8\n        /* \"#utility.yul\":5204:5226   */\n      add\n        /* \"#utility.yul\":5183:5236   */\n      tag_310\n      jump\t// in\n    tag_411:\n        /* \"#utility.yul\":5173:5236   */\n      swap4\n      pop\n        /* \"#utility.yul\":5129:5246   */\n      pop\n        /* \"#utility.yul\":5285:5287   */\n      0x20\n        /* \"#utility.yul\":5311:5364   */\n      tag_412\n        /* \"#utility.yul\":5356:5363   */\n      dup7\n        /* \"#utility.yul\":5347:5353   */\n      dup3\n        /* \"#utility.yul\":5336:5345   */\n      dup8\n        /* \"#utility.yul\":5332:5354   */\n      add\n        /* \"#utility.yul\":5311:5364   */\n      tag_310\n      jump\t// in\n    tag_412:\n        /* \"#utility.yul\":5301:5364   */\n      swap3\n      pop\n        /* \"#utility.yul\":5256:5374   */\n      pop\n        /* \"#utility.yul\":5413:5415   */\n      0x40\n        /* \"#utility.yul\":5439:5492   */\n      tag_413\n        /* \"#utility.yul\":5484:5491   */\n      dup7\n        /* \"#utility.yul\":5475:5481   */\n      dup3\n        /* \"#utility.yul\":5464:5473   */\n      dup8\n        /* \"#utility.yul\":5460:5482   */\n      add\n        /* \"#utility.yul\":5439:5492   */\n      tag_305\n      jump\t// in\n    tag_413:\n        /* \"#utility.yul\":5429:5492   */\n      swap2\n      pop\n        /* \"#utility.yul\":5384:5502   */\n      pop\n        /* \"#utility.yul\":4890:5509   */\n      swap3\n      pop\n      swap3\n      pop\n      swap3\n      jump\t// out\n        /* \"#utility.yul\":5515:5844   */\n    tag_53:\n        /* \"#utility.yul\":5574:5580   */\n      0x00\n        /* \"#utility.yul\":5623:5625   */\n      0x20\n        /* \"#utility.yul\":5611:5620   */\n      dup3\n        /* \"#utility.yul\":5602:5609   */\n      dup5\n        /* \"#utility.yul\":5598:5621   */\n      sub\n        /* \"#utility.yul\":5594:5626   */\n      slt\n        /* \"#utility.yul\":5591:5710   */\n      iszero\n      tag_415\n      jumpi\n        /* \"#utility.yul\":5629:5708   */\n      tag_416\n      tag_291\n      jump\t// in\n    tag_416:\n        /* \"#utility.yul\":5591:5710   */\n    tag_415:\n        /* \"#utility.yul\":5749:5750   */\n      0x00\n        /* \"#utility.yul\":5774:5827   */\n      tag_417\n        /* \"#utility.yul\":5819:5826   */\n      dup5\n        /* \"#utility.yul\":5810:5816   */\n      dup3\n        /* \"#utility.yul\":5799:5808   */\n      dup6\n        /* \"#utility.yul\":5795:5817   */\n      add\n        /* \"#utility.yul\":5774:5827   */\n      tag_310\n      jump\t// in\n    tag_417:\n        /* \"#utility.yul\":5764:5827   */\n      swap2\n      pop\n        /* \"#utility.yul\":5720:5837   */\n      pop\n        /* \"#utility.yul\":5515:5844   */\n      swap3\n      swap2\n      pop\n      pop\n      jump\t// out\n        /* \"#utility.yul\":5850:5968   */\n    tag_311:\n        /* \"#utility.yul\":5937:5961   */\n      tag_419\n        /* \"#utility.yul\":5955:5960   */\n      dup2\n        /* \"#utility.yul\":5937:5961   */\n      tag_303\n      jump\t// in\n    tag_419:\n        /* \"#utility.yul\":5932:5935   */\n      dup3\n        /* \"#utility.yul\":5925:5962   */\n      mstore\n        /* \"#utility.yul\":5850:5968   */\n      pop\n      pop\n      jump\t// out\n        /* \"#utility.yul\":5974:6196   */\n    tag_56:\n        /* \"#utility.yul\":6067:6071   */\n      0x00\n        /* \"#utility.yul\":6105:6107   */\n      0x20\n        /* \"#utility.yul\":6094:6103   */\n      dup3\n        /* \"#utility.yul\":6090:6108   */\n      add\n        /* \"#utility.yul\":6082:6108   */\n      swap1\n      pop\n        /* \"#utility.yul\":6118:6189   */\n      tag_421\n        /* \"#utility.yul\":6186:6187   */\n      0x00\n        /* \"#utility.yul\":6175:6184   */\n      dup4\n        /* \"#utility.yul\":6171:6188   */\n      add\n        /* \"#utility.yul\":6162:6168   */\n      dup5\n        /* \"#utility.yul\":6118:6189   */\n      tag_311\n      jump\t// in\n    tag_421:\n        /* \"#utility.yul\":5974:6196   */\n      swap3\n      swap2\n      pop\n      pop\n      jump\t// out\n        /* \"#utility.yul\":6202:6318   */\n    tag_312:\n        /* \"#utility.yul\":6272:6293   */\n      tag_423\n        /* \"#utility.yul\":6287:6292   */\n      dup2\n        /* \"#utility.yul\":6272:6293   */\n      tag_296\n      jump\t// in\n    tag_423:\n        /* \"#utility.yul\":6265:6270   */\n      dup2\n        /* \"#utility.yul\":6262:6294   */\n      eq\n        /* \"#utility.yul\":6252:6312   */\n      tag_424\n      jumpi\n        /* \"#utility.yul\":6308:6309   */\n      0x00\n        /* \"#utility.yul\":6305:6306   */\n      dup1\n        /* \"#utility.yul\":6298:6310   */\n      revert\n        /* \"#utility.yul\":6252:6312   */\n    tag_424:\n        /* \"#utility.yul\":6202:6318   */\n      pop\n      jump\t// out\n        /* \"#utility.yul\":6324:6457   */\n    tag_313:\n        /* \"#utility.yul\":6367:6372   */\n      0x00\n        /* \"#utility.yul\":6405:6411   */\n      dup2\n        /* \"#utility.yul\":6392:6412   */\n      calldataload\n        /* \"#utility.yul\":6383:6412   */\n      swap1\n      pop\n        /* \"#utility.yul\":6421:6451   */\n      tag_426\n        /* \"#utility.yul\":6445:6450   */\n      dup2\n        /* \"#utility.yul\":6421:6451   */\n      tag_312\n      jump\t// in\n    tag_426:\n        /* \"#utility.yul\":6324:6457   */\n      swap3\n      swap2\n      pop\n      pop\n      jump\t// out\n        /* \"#utility.yul\":6463:6931   */\n    tag_62:\n        /* \"#utility.yul\":6528:6534   */\n      0x00\n        /* \"#utility.yul\":6536:6542   */\n      dup1\n        /* \"#utility.yul\":6585:6587   */\n      0x40\n        /* \"#utility.yul\":6573:6582   */\n      dup4\n        /* \"#utility.yul\":6564:6571   */\n      dup6\n        /* \"#utility.yul\":6560:6583   */\n      sub\n        /* \"#utility.yul\":6556:6588   */\n      slt\n        /* \"#utility.yul\":6553:6672   */\n      iszero\n      tag_428\n      jumpi\n        /* \"#utility.yul\":6591:6670   */\n      tag_429\n      tag_291\n      jump\t// in\n    tag_429:\n        /* \"#utility.yul\":6553:6672   */\n    tag_428:\n        /* \"#utility.yul\":6711:6712   */\n      0x00\n        /* \"#utility.yul\":6736:6789   */\n      tag_430\n        /* \"#utility.yul\":6781:6788   */\n      dup6\n        /* \"#utility.yul\":6772:6778   */\n      dup3\n        /* \"#utility.yul\":6761:6770   */\n      dup7\n        /* \"#utility.yul\":6757:6779   */\n      add\n        /* \"#utility.yul\":6736:6789   */\n      tag_310\n      jump\t// in\n    tag_430:\n        /* \"#utility.yul\":6726:6789   */\n      swap3\n      pop\n        /* \"#utility.yul\":6682:6799   */\n      pop\n        /* \"#utility.yul\":6838:6840   */\n      0x20\n        /* \"#utility.yul\":6864:6914   */\n      tag_431\n        /* \"#utility.yul\":6906:6913   */\n      dup6\n        /* \"#utility.yul\":6897:6903   */\n      dup3\n        /* \"#utility.yul\":6886:6895   */\n      dup7\n        /* \"#utility.yul\":6882:6904   */\n      add\n        /* \"#utility.yul\":6864:6914   */\n      tag_313\n      jump\t// in\n    tag_431:\n        /* \"#utility.yul\":6854:6914   */\n      swap2\n      pop\n        /* \"#utility.yul\":6809:6924   */\n      pop\n        /* \"#utility.yul\":6463:6931   */\n      swap3\n      pop\n      swap3\n      swap1\n      pop\n      jump\t// out\n        /* \"#utility.yul\":6937:7054   */\n    tag_314:\n        /* \"#utility.yul\":7046:7047   */\n      0x00\n        /* \"#utility.yul\":7043:7044   */\n      dup1\n        /* \"#utility.yul\":7036:7048   */\n      revert\n        /* \"#utility.yul\":7060:7177   */\n    tag_315:\n        /* \"#utility.yul\":7169:7170   */\n      0x00\n        /* \"#utility.yul\":7166:7167   */\n      dup1\n        /* \"#utility.yul\":7159:7171   */\n      revert\n        /* \"#utility.yul\":7183:7363   */\n    tag_246:\n        /* \"#utility.yul\":7231:7308   */\n      0x4e487b7100000000000000000000000000000000000000000000000000000000\n        /* \"#utility.yul\":7228:7229   */\n      0x00\n        /* \"#utility.yul\":7221:7309   */\n      mstore\n        /* \"#utility.yul\":7328:7332   */\n      0x41\n        /* \"#utility.yul\":7325:7326   */\n      0x04\n        /* \"#utility.yul\":7318:7333   */\n      mstore\n        /* \"#utility.yul\":7352:7356   */\n      0x24\n        /* \"#utility.yul\":7349:7350   */\n      0x00\n        /* \"#utility.yul\":7342:7357   */\n      revert\n        /* \"#utility.yul\":7369:7650   */\n    tag_316:\n        /* \"#utility.yul\":7452:7479   */\n      tag_436\n        /* \"#utility.yul\":7474:7478   */\n      dup3\n        /* \"#utility.yul\":7452:7479   */\n      tag_301\n      jump\t// in\n    tag_436:\n        /* \"#utility.yul\":7444:7450   */\n      dup2\n        /* \"#utility.yul\":7440:7480   */\n      add\n        /* \"#utility.yul\":7582:7588   */\n      dup2\n        /* \"#utility.yul\":7570:7580   */\n      dup2\n        /* \"#utility.yul\":7567:7589   */\n      lt\n        /* \"#utility.yul\":7546:7564   */\n      0xffffffffffffffff\n        /* \"#utility.yul\":7534:7544   */\n      dup3\n        /* \"#utility.yul\":7531:7565   */\n      gt\n        /* \"#utility.yul\":7528:7590   */\n      or\n        /* \"#utility.yul\":7525:7613   */\n      iszero\n      tag_437\n      jumpi\n        /* \"#utility.yul\":7593:7611   */\n      tag_438\n      tag_246\n      jump\t// in\n    tag_438:\n        /* \"#utility.yul\":7525:7613   */\n    tag_437:\n        /* \"#utility.yul\":7633:7643   */\n      dup1\n        /* \"#utility.yul\":7629:7631   */\n      0x40\n        /* \"#utility.yul\":7622:7644   */\n      mstore\n        /* \"#utility.yul\":7412:7650   */\n      pop\n        /* \"#utility.yul\":7369:7650   */\n      pop\n      pop\n      jump\t// out\n        /* \"#utility.yul\":7656:7785   */\n    tag_317:\n        /* \"#utility.yul\":7690:7696   */\n      0x00\n        /* \"#utility.yul\":7717:7737   */\n      tag_440\n      tag_290\n      jump\t// in\n    tag_440:\n        /* \"#utility.yul\":7707:7737   */\n      swap1\n      pop\n        /* \"#utility.yul\":7746:7779   */\n      tag_441\n        /* \"#utility.yul\":7774:7778   */\n      dup3\n        /* \"#utility.yul\":7766:7772   */\n      dup3\n        /* \"#utility.yul\":7746:7779   */\n      tag_316\n      jump\t// in\n    tag_441:\n        /* \"#utility.yul\":7656:7785   */\n      swap2\n      swap1\n      pop\n      jump\t// out\n        /* \"#utility.yul\":7791:8098   */\n    tag_318:\n        /* \"#utility.yul\":7852:7856   */\n      0x00\n        /* \"#utility.yul\":7942:7960   */\n      0xffffffffffffffff\n        /* \"#utility.yul\":7934:7940   */\n      dup3\n        /* \"#utility.yul\":7931:7961   */\n      gt\n        /* \"#utility.yul\":7928:7984   */\n      iszero\n      tag_443\n      jumpi\n        /* \"#utility.yul\":7964:7982   */\n      tag_444\n      tag_246\n      jump\t// in\n    tag_444:\n        /* \"#utility.yul\":7928:7984   */\n    tag_443:\n        /* \"#utility.yul\":8002:8031   */\n      tag_445\n        /* \"#utility.yul\":8024:8030   */\n      dup3\n        /* \"#utility.yul\":8002:8031   */\n      tag_301\n      jump\t// in\n    tag_445:\n        /* \"#utility.yul\":7994:8031   */\n      swap1\n      pop\n        /* \"#utility.yul\":8086:8090   */\n      0x20\n        /* \"#utility.yul\":8080:8084   */\n      dup2\n        /* \"#utility.yul\":8076:8091   */\n      add\n        /* \"#utility.yul\":8068:8091   */\n      swap1\n      pop\n        /* \"#utility.yul\":7791:8098   */\n      swap2\n      swap1\n      pop\n      jump\t// out\n        /* \"#utility.yul\":8104:8250   */\n    tag_319:\n        /* \"#utility.yul\":8201:8207   */\n      dup3\n        /* \"#utility.yul\":8196:8199   */\n      dup2\n        /* \"#utility.yul\":8191:8194   */\n      dup4\n        /* \"#utility.yul\":8178:8208   */\n      calldatacopy\n        /* \"#utility.yul\":8242:8243   */\n      0x00\n        /* \"#utility.yul\":8233:8239   */\n      dup4\n        /* \"#utility.yul\":8228:8231   */\n      dup4\n        /* \"#utility.yul\":8224:8240   */\n      add\n        /* \"#utility.yul\":8217:8244   */\n      mstore\n        /* \"#utility.yul\":8104:8250   */\n      pop\n      pop\n      pop\n      jump\t// out\n        /* \"#utility.yul\":8256:8679   */\n    tag_320:\n        /* \"#utility.yul\":8333:8338   */\n      0x00\n        /* \"#utility.yul\":8358:8423   */\n      tag_448\n        /* \"#utility.yul\":8374:8422   */\n      tag_449\n        /* \"#utility.yul\":8415:8421   */\n      dup5\n        /* \"#utility.yul\":8374:8422   */\n      tag_318\n      jump\t// in\n    tag_449:\n        /* \"#utility.yul\":8358:8423   */\n      tag_317\n      jump\t// in\n    tag_448:\n        /* \"#utility.yul\":8349:8423   */\n      swap1\n      pop\n        /* \"#utility.yul\":8446:8452   */\n      dup3\n        /* \"#utility.yul\":8439:8444   */\n      dup2\n        /* \"#utility.yul\":8432:8453   */\n      mstore\n        /* \"#utility.yul\":8484:8488   */\n      0x20\n        /* \"#utility.yul\":8477:8482   */\n      dup2\n        /* \"#utility.yul\":8473:8489   */\n      add\n        /* \"#utility.yul\":8522:8525   */\n      dup5\n        /* \"#utility.yul\":8513:8519   */\n      dup5\n        /* \"#utility.yul\":8508:8511   */\n      dup5\n        /* \"#utility.yul\":8504:8520   */\n      add\n        /* \"#utility.yul\":8501:8526   */\n      gt\n        /* \"#utility.yul\":8498:8610   */\n      iszero\n      tag_450\n      jumpi\n        /* \"#utility.yul\":8529:8608   */\n      tag_451\n      tag_315\n      jump\t// in\n    tag_451:\n        /* \"#utility.yul\":8498:8610   */\n    tag_450:\n        /* \"#utility.yul\":8619:8673   */\n      tag_452\n        /* \"#utility.yul\":8666:8672   */\n      dup5\n        /* \"#utility.yul\":8661:8664   */\n      dup3\n        /* \"#utility.yul\":8656:8659   */\n      dup6\n        /* \"#utility.yul\":8619:8673   */\n      tag_319\n      jump\t// in\n    tag_452:\n        /* \"#utility.yul\":8339:8679   */\n      pop\n        /* \"#utility.yul\":8256:8679   */\n      swap4\n      swap3\n      pop\n      pop\n      pop\n      jump\t// out\n        /* \"#utility.yul\":8698:9036   */\n    tag_321:\n        /* \"#utility.yul\":8753:8758   */\n      0x00\n        /* \"#utility.yul\":8802:8805   */\n      dup3\n        /* \"#utility.yul\":8795:8799   */\n      0x1f\n        /* \"#utility.yul\":8787:8793   */\n      dup4\n        /* \"#utility.yul\":8783:8800   */\n      add\n        /* \"#utility.yul\":8779:8806   */\n      slt\n        /* \"#utility.yul\":8769:8891   */\n      tag_454\n      jumpi\n        /* \"#utility.yul\":8810:8889   */\n      tag_455\n      tag_314\n      jump\t// in\n    tag_455:\n        /* \"#utility.yul\":8769:8891   */\n    tag_454:\n        /* \"#utility.yul\":8927:8933   */\n      dup2\n        /* \"#utility.yul\":8914:8934   */\n      calldataload\n        /* \"#utility.yul\":8952:9030   */\n      tag_456\n        /* \"#utility.yul\":9026:9029   */\n      dup5\n        /* \"#utility.yul\":9018:9024   */\n      dup3\n        /* \"#utility.yul\":9011:9015   */\n      0x20\n        /* \"#utility.yul\":9003:9009   */\n      dup7\n        /* \"#utility.yul\":8999:9016   */\n      add\n        /* \"#utility.yul\":8952:9030   */\n      tag_320\n      jump\t// in\n    tag_456:\n        /* \"#utility.yul\":8943:9030   */\n      swap2\n      pop\n        /* \"#utility.yul\":8759:9036   */\n      pop\n        /* \"#utility.yul\":8698:9036   */\n      swap3\n      swap2\n      pop\n      pop\n      jump\t// out\n        /* \"#utility.yul\":9042:9985   */\n    tag_66:\n        /* \"#utility.yul\":9137:9143   */\n      0x00\n        /* \"#utility.yul\":9145:9151   */\n      dup1\n        /* \"#utility.yul\":9153:9159   */\n      0x00\n        /* \"#utility.yul\":9161:9167   */\n      dup1\n        /* \"#utility.yul\":9210:9213   */\n      0x80\n        /* \"#utility.yul\":9198:9207   */\n      dup6\n        /* \"#utility.yul\":9189:9196   */\n      dup8\n        /* \"#utility.yul\":9185:9208   */\n      sub\n        /* \"#utility.yul\":9181:9214   */\n      slt\n        /* \"#utility.yul\":9178:9298   */\n      iszero\n      tag_458\n      jumpi\n        /* \"#utility.yul\":9217:9296   */\n      tag_459\n      tag_291\n      jump\t// in\n    tag_459:\n        /* \"#utility.yul\":9178:9298   */\n    tag_458:\n        /* \"#utility.yul\":9337:9338   */\n      0x00\n        /* \"#utility.yul\":9362:9415   */\n      tag_460\n        /* \"#utility.yul\":9407:9414   */\n      dup8\n        /* \"#utility.yul\":9398:9404   */\n      dup3\n        /* \"#utility.yul\":9387:9396   */\n      dup9\n        /* \"#utility.yul\":9383:9405   */\n      add\n        /* \"#utility.yul\":9362:9415   */\n      tag_310\n      jump\t// in\n    tag_460:\n        /* \"#utility.yul\":9352:9415   */\n      swap5\n      pop\n        /* \"#utility.yul\":9308:9425   */\n      pop\n        /* \"#utility.yul\":9464:9466   */\n      0x20\n        /* \"#utility.yul\":9490:9543   */\n      tag_461\n        /* \"#utility.yul\":9535:9542   */\n      dup8\n        /* \"#utility.yul\":9526:9532   */\n      dup3\n        /* \"#utility.yul\":9515:9524   */\n      dup9\n        /* \"#utility.yul\":9511:9533   */\n      add\n        /* \"#utility.yul\":9490:9543   */\n      tag_310\n      jump\t// in\n    tag_461:\n        /* \"#utility.yul\":9480:9543   */\n      swap4\n      pop\n        /* \"#utility.yul\":9435:9553   */\n      pop\n        /* \"#utility.yul\":9592:9594   */\n      0x40\n        /* \"#utility.yul\":9618:9671   */\n      tag_462\n        /* \"#utility.yul\":9663:9670   */\n      dup8\n        /* \"#utility.yul\":9654:9660   */\n      dup3\n        /* \"#utility.yul\":9643:9652   */\n      dup9\n        /* \"#utility.yul\":9639:9661   */\n      add\n        /* \"#utility.yul\":9618:9671   */\n      tag_305\n      jump\t// in\n    tag_462:\n        /* \"#utility.yul\":9608:9671   */\n      swap3\n      pop\n        /* \"#utility.yul\":9563:9681   */\n      pop\n        /* \"#utility.yul\":9748:9750   */\n      0x60\n        /* \"#utility.yul\":9737:9746   */\n      dup6\n        /* \"#utility.yul\":9733:9751   */\n      add\n        /* \"#utility.yul\":9720:9752   */\n      calldataload\n        /* \"#utility.yul\":9779:9797   */\n      0xffffffffffffffff\n        /* \"#utility.yul\":9771:9777   */\n      dup2\n        /* \"#utility.yul\":9768:9798   */\n      gt\n        /* \"#utility.yul\":9765:9882   */\n      iszero\n      tag_463\n      jumpi\n        /* \"#utility.yul\":9801:9880   */\n      tag_464\n      tag_292\n      jump\t// in\n    tag_464:\n        /* \"#utility.yul\":9765:9882   */\n    tag_463:\n        /* \"#utility.yul\":9906:9968   */\n      tag_465\n        /* \"#utility.yul\":9960:9967   */\n      dup8\n        /* \"#utility.yul\":9951:9957   */\n      dup3\n        /* \"#utility.yul\":9940:9949   */\n      dup9\n        /* \"#utility.yul\":9936:9958   */\n      add\n        /* \"#utility.yul\":9906:9968   */\n      tag_321\n      jump\t// in\n    tag_465:\n        /* \"#utility.yul\":9896:9968   */\n      swap2\n      pop\n        /* \"#utility.yul\":9691:9978   */\n      pop\n        /* \"#utility.yul\":9042:9985   */\n      swap3\n      swap6\n      swap2\n      swap5\n      pop\n      swap3\n      pop\n      jump\t// out\n        /* \"#utility.yul\":9991:10299   */\n    tag_322:\n        /* \"#utility.yul\":10053:10057   */\n      0x00\n        /* \"#utility.yul\":10143:10161   */\n      0xffffffffffffffff\n        /* \"#utility.yul\":10135:10141   */\n      dup3\n        /* \"#utility.yul\":10132:10162   */\n      gt\n        /* \"#utility.yul\":10129:10185   */\n      iszero\n      tag_467\n      jumpi\n        /* \"#utility.yul\":10165:10183   */\n      tag_468\n      tag_246\n      jump\t// in\n    tag_468:\n        /* \"#utility.yul\":10129:10185   */\n    tag_467:\n        /* \"#utility.yul\":10203:10232   */\n      tag_469\n        /* \"#utility.yul\":10225:10231   */\n      dup3\n        /* \"#utility.yul\":10203:10232   */\n      tag_301\n      jump\t// in\n    tag_469:\n        /* \"#utility.yul\":10195:10232   */\n      swap1\n      pop\n        /* \"#utility.yul\":10287:10291   */\n      0x20\n        /* \"#utility.yul\":10281:10285   */\n      dup2\n        /* \"#utility.yul\":10277:10292   */\n      add\n        /* \"#utility.yul\":10269:10292   */\n      swap1\n      pop\n        /* \"#utility.yul\":9991:10299   */\n      swap2\n      swap1\n      pop\n      jump\t// out\n        /* \"#utility.yul\":10305:10730   */\n    tag_323:\n        /* \"#utility.yul\":10383:10388   */\n      0x00\n        /* \"#utility.yul\":10408:10474   */\n      tag_471\n        /* \"#utility.yul\":10424:10473   */\n      tag_472\n        /* \"#utility.yul\":10466:10472   */\n      dup5\n        /* \"#utility.yul\":10424:10473   */\n      tag_322\n      jump\t// in\n    tag_472:\n        /* \"#utility.yul\":10408:10474   */\n      tag_317\n      jump\t// in\n    tag_471:\n        /* \"#utility.yul\":10399:10474   */\n      swap1\n      pop\n        /* \"#utility.yul\":10497:10503   */\n      dup3\n        /* \"#utility.yul\":10490:10495   */\n      dup2\n        /* \"#utility.yul\":10483:10504   */\n      mstore\n        /* \"#utility.yul\":10535:10539   */\n      0x20\n        /* \"#utility.yul\":10528:10533   */\n      dup2\n        /* \"#utility.yul\":10524:10540   */\n      add\n        /* \"#utility.yul\":10573:10576   */\n      dup5\n        /* \"#utility.yul\":10564:10570   */\n      dup5\n        /* \"#utility.yul\":10559:10562   */\n      dup5\n        /* \"#utility.yul\":10555:10571   */\n      add\n        /* \"#utility.yul\":10552:10577   */\n      gt\n        /* \"#utility.yul\":10549:10661   */\n      iszero\n      tag_473\n      jumpi\n        /* \"#utility.yul\":10580:10659   */\n      tag_474\n      tag_315\n      jump\t// in\n    tag_474:\n        /* \"#utility.yul\":10549:10661   */\n    tag_473:\n        /* \"#utility.yul\":10670:10724   */\n      tag_475\n        /* \"#utility.yul\":10717:10723   */\n      dup5\n        /* \"#utility.yul\":10712:10715   */\n      dup3\n        /* \"#utility.yul\":10707:10710   */\n      dup6\n        /* \"#utility.yul\":10670:10724   */\n      tag_319\n      jump\t// in\n    tag_475:\n        /* \"#utility.yul\":10389:10730   */\n      pop\n        /* \"#utility.yul\":10305:10730   */\n      swap4\n      swap3\n      pop\n      pop\n      pop\n      jump\t// out\n        /* \"#utility.yul\":10750:11090   */\n    tag_324:\n        /* \"#utility.yul\":10806:10811   */\n      0x00\n        /* \"#utility.yul\":10855:10858   */\n      dup3\n        /* \"#utility.yul\":10848:10852   */\n      0x1f\n        /* \"#utility.yul\":10840:10846   */\n      dup4\n        /* \"#utility.yul\":10836:10853   */\n      add\n        /* \"#utility.yul\":10832:10859   */\n      slt\n        /* \"#utility.yul\":10822:10944   */\n      tag_477\n      jumpi\n        /* \"#utility.yul\":10863:10942   */\n      tag_478\n      tag_314\n      jump\t// in\n    tag_478:\n        /* \"#utility.yul\":10822:10944   */\n    tag_477:\n        /* \"#utility.yul\":10980:10986   */\n      dup2\n        /* \"#utility.yul\":10967:10987   */\n      calldataload\n        /* \"#utility.yul\":11005:11084   */\n      tag_479\n        /* \"#utility.yul\":11080:11083   */\n      dup5\n        /* \"#utility.yul\":11072:11078   */\n      dup3\n        /* \"#utility.yul\":11065:11069   */\n      0x20\n        /* \"#utility.yul\":11057:11063   */\n      dup7\n        /* \"#utility.yul\":11053:11070   */\n      add\n        /* \"#utility.yul\":11005:11084   */\n      tag_323\n      jump\t// in\n    tag_479:\n        /* \"#utility.yul\":10996:11084   */\n      swap2\n      pop\n        /* \"#utility.yul\":10812:11090   */\n      pop\n        /* \"#utility.yul\":10750:11090   */\n      swap3\n      swap2\n      pop\n      pop\n      jump\t// out\n        /* \"#utility.yul\":11096:11605   */\n    tag_74:\n        /* \"#utility.yul\":11165:11171   */\n      0x00\n        /* \"#utility.yul\":11214:11216   */\n      0x20\n        /* \"#utility.yul\":11202:11211   */\n      dup3\n        /* \"#utility.yul\":11193:11200   */\n      dup5\n        /* \"#utility.yul\":11189:11212   */\n      sub\n        /* \"#utility.yul\":11185:11217   */\n      slt\n        /* \"#utility.yul\":11182:11301   */\n      iszero\n      tag_481\n      jumpi\n        /* \"#utility.yul\":11220:11299   */\n      tag_482\n      tag_291\n      jump\t// in\n    tag_482:\n        /* \"#utility.yul\":11182:11301   */\n    tag_481:\n        /* \"#utility.yul\":11368:11369   */\n      0x00\n        /* \"#utility.yul\":11357:11366   */\n      dup3\n        /* \"#utility.yul\":11353:11370   */\n      add\n        /* \"#utility.yul\":11340:11371   */\n      calldataload\n        /* \"#utility.yul\":11398:11416   */\n      0xffffffffffffffff\n        /* \"#utility.yul\":11390:11396   */\n      dup2\n        /* \"#utility.yul\":11387:11417   */\n      gt\n        /* \"#utility.yul\":11384:11501   */\n      iszero\n      tag_483\n      jumpi\n        /* \"#utility.yul\":11420:11499   */\n      tag_484\n      tag_292\n      jump\t// in\n    tag_484:\n        /* \"#utility.yul\":11384:11501   */\n    tag_483:\n        /* \"#utility.yul\":11525:11588   */\n      tag_485\n        /* \"#utility.yul\":11580:11587   */\n      dup5\n        /* \"#utility.yul\":11571:11577   */\n      dup3\n        /* \"#utility.yul\":11560:11569   */\n      dup6\n        /* \"#utility.yul\":11556:11578   */\n      add\n        /* \"#utility.yul\":11525:11588   */\n      tag_324\n      jump\t// in\n    tag_485:\n        /* \"#utility.yul\":11515:11588   */\n      swap2\n      pop\n        /* \"#utility.yul\":11311:11598   */\n      pop\n        /* \"#utility.yul\":11096:11605   */\n      swap3\n      swap2\n      pop\n      pop\n      jump\t// out\n        /* \"#utility.yul\":11611:12085   */\n    tag_78:\n        /* \"#utility.yul\":11679:11685   */\n      0x00\n        /* \"#utility.yul\":11687:11693   */\n      dup1\n        /* \"#utility.yul\":11736:11738   */\n      0x40\n        /* \"#utility.yul\":11724:11733   */\n      dup4\n        /* \"#utility.yul\":11715:11722   */\n      dup6\n        /* \"#utility.yul\":11711:11734   */\n      sub\n        /* \"#utility.yul\":11707:11739   */\n      slt\n        /* \"#utility.yul\":11704:11823   */\n      iszero\n      tag_487\n      jumpi\n        /* \"#utility.yul\":11742:11821   */\n      tag_488\n      tag_291\n      jump\t// in\n    tag_488:\n        /* \"#utility.yul\":11704:11823   */\n    tag_487:\n        /* \"#utility.yul\":11862:11863   */\n      0x00\n        /* \"#utility.yul\":11887:11940   */\n      tag_489\n        /* \"#utility.yul\":11932:11939   */\n      dup6\n        /* \"#utility.yul\":11923:11929   */\n      dup3\n        /* \"#utility.yul\":11912:11921   */\n      dup7\n        /* \"#utility.yul\":11908:11930   */\n      add\n        /* \"#utility.yul\":11887:11940   */\n      tag_310\n      jump\t// in\n    tag_489:\n        /* \"#utility.yul\":11877:11940   */\n      swap3\n      pop\n        /* \"#utility.yul\":11833:11950   */\n      pop\n        /* \"#utility.yul\":11989:11991   */\n      0x20\n        /* \"#utility.yul\":12015:12068   */\n      tag_490\n        /* \"#utility.yul\":12060:12067   */\n      dup6\n        /* \"#utility.yul\":12051:12057   */\n      dup3\n        /* \"#utility.yul\":12040:12049   */\n      dup7\n        /* \"#utility.yul\":12036:12058   */\n      add\n        /* \"#utility.yul\":12015:12068   */\n      tag_310\n      jump\t// in\n    tag_490:\n        /* \"#utility.yul\":12005:12068   */\n      swap2\n      pop\n        /* \"#utility.yul\":11960:12078   */\n      pop\n        /* \"#utility.yul\":11611:12085   */\n      swap3\n      pop\n      swap3\n      swap1\n      pop\n      jump\t// out\n        /* \"#utility.yul\":12091:12271   */\n    tag_325:\n        /* \"#utility.yul\":12139:12216   */\n      0x4e487b7100000000000000000000000000000000000000000000000000000000\n        /* \"#utility.yul\":12136:12137   */\n      0x00\n        /* \"#utility.yul\":12129:12217   */\n      mstore\n        /* \"#utility.yul\":12236:12240   */\n      0x22\n        /* \"#utility.yul\":12233:12234   */\n      0x04\n        /* \"#utility.yul\":12226:12241   */\n      mstore\n        /* \"#utility.yul\":12260:12264   */\n      0x24\n        /* \"#utility.yul\":12257:12258   */\n      0x00\n        /* \"#utility.yul\":12250:12265   */\n      revert\n        /* \"#utility.yul\":12277:12597   */\n    tag_87:\n        /* \"#utility.yul\":12321:12327   */\n      0x00\n        /* \"#utility.yul\":12358:12359   */\n      0x02\n        /* \"#utility.yul\":12352:12356   */\n      dup3\n        /* \"#utility.yul\":12348:12360   */\n      div\n        /* \"#utility.yul\":12338:12360   */\n      swap1\n      pop\n        /* \"#utility.yul\":12405:12406   */\n      0x01\n        /* \"#utility.yul\":12399:12403   */\n      dup3\n        /* \"#utility.yul\":12395:12407   */\n      and\n        /* \"#utility.yul\":12426:12444   */\n      dup1\n        /* \"#utility.yul\":12416:12497   */\n      tag_493\n      jumpi\n        /* \"#utility.yul\":12482:12486   */\n      0x7f\n        /* \"#utility.yul\":12474:12480   */\n      dup3\n        /* \"#utility.yul\":12470:12487   */\n      and\n        /* \"#utility.yul\":12460:12487   */\n      swap2\n      pop\n        /* \"#utility.yul\":12416:12497   */\n    tag_493:\n        /* \"#utility.yul\":12544:12546   */\n      0x20\n        /* \"#utility.yul\":12536:12542   */\n      dup3\n        /* \"#utility.yul\":12533:12547   */\n      lt\n        /* \"#utility.yul\":12513:12531   */\n      dup2\n        /* \"#utility.yul\":12510:12548   */\n      sub\n        /* \"#utility.yul\":12507:12591   */\n      tag_494\n      jumpi\n        /* \"#utility.yul\":12563:12581   */\n      tag_495\n      tag_325\n      jump\t// in\n    tag_495:\n        /* \"#utility.yul\":12507:12591   */\n    tag_494:\n        /* \"#utility.yul\":12328:12597   */\n      pop\n        /* \"#utility.yul\":12277:12597   */\n      swap2\n      swap1\n      pop\n      jump\t// out\n        /* \"#utility.yul\":12603:13045   */\n    tag_110:\n        /* \"#utility.yul\":12752:12756   */\n      0x00\n        /* \"#utility.yul\":12790:12792   */\n      0x60\n        /* \"#utility.yul\":12779:12788   */\n      dup3\n        /* \"#utility.yul\":12775:12793   */\n      add\n        /* \"#utility.yul\":12767:12793   */\n      swap1\n      pop\n        /* \"#utility.yul\":12803:12874   */\n      tag_497\n        /* \"#utility.yul\":12871:12872   */\n      0x00\n        /* \"#utility.yul\":12860:12869   */\n      dup4\n        /* \"#utility.yul\":12856:12873   */\n      add\n        /* \"#utility.yul\":12847:12853   */\n      dup7\n        /* \"#utility.yul\":12803:12874   */\n      tag_308\n      jump\t// in\n    tag_497:\n        /* \"#utility.yul\":12884:12956   */\n      tag_498\n        /* \"#utility.yul\":12952:12954   */\n      0x20\n        /* \"#utility.yul\":12941:12950   */\n      dup4\n        /* \"#utility.yul\":12937:12955   */\n      add\n        /* \"#utility.yul\":12928:12934   */\n      dup6\n        /* \"#utility.yul\":12884:12956   */\n      tag_311\n      jump\t// in\n    tag_498:\n        /* \"#utility.yul\":12966:13038   */\n      tag_499\n        /* \"#utility.yul\":13034:13036   */\n      0x40\n        /* \"#utility.yul\":13023:13032   */\n      dup4\n        /* \"#utility.yul\":13019:13037   */\n      add\n        /* \"#utility.yul\":13010:13016   */\n      dup5\n        /* \"#utility.yul\":12966:13038   */\n      tag_308\n      jump\t// in\n    tag_499:\n        /* \"#utility.yul\":12603:13045   */\n      swap5\n      swap4\n      pop\n      pop\n      pop\n      pop\n      jump\t// out\n        /* \"#utility.yul\":13051:13199   */\n    tag_326:\n        /* \"#utility.yul\":13153:13164   */\n      0x00\n        /* \"#utility.yul\":13190:13193   */\n      dup2\n        /* \"#utility.yul\":13175:13193   */\n      swap1\n      pop\n        /* \"#utility.yul\":13051:13199   */\n      swap3\n      swap2\n      pop\n      pop\n      jump\t// out\n        /* \"#utility.yul\":13205:13595   */\n    tag_327:\n        /* \"#utility.yul\":13311:13314   */\n      0x00\n        /* \"#utility.yul\":13339:13378   */\n      tag_502\n        /* \"#utility.yul\":13372:13377   */\n      dup3\n        /* \"#utility.yul\":13339:13378   */\n      tag_298\n      jump\t// in\n    tag_502:\n        /* \"#utility.yul\":13394:13483   */\n      tag_503\n        /* \"#utility.yul\":13476:13482   */\n      dup2\n        /* \"#utility.yul\":13471:13474   */\n      dup6\n        /* \"#utility.yul\":13394:13483   */\n      tag_326\n      jump\t// in\n    tag_503:\n        /* \"#utility.yul\":13387:13483   */\n      swap4\n      pop\n        /* \"#utility.yul\":13492:13557   */\n      tag_504\n        /* \"#utility.yul\":13550:13556   */\n      dup2\n        /* \"#utility.yul\":13545:13548   */\n      dup6\n        /* \"#utility.yul\":13538:13542   */\n      0x20\n        /* \"#utility.yul\":13531:13536   */\n      dup7\n        /* \"#utility.yul\":13527:13543   */\n      add\n        /* \"#utility.yul\":13492:13557   */\n      tag_300\n      jump\t// in\n    tag_504:\n        /* \"#utility.yul\":13582:13588   */\n      dup1\n        /* \"#utility.yul\":13577:13580   */\n      dup5\n        /* \"#utility.yul\":13573:13589   */\n      add\n        /* \"#utility.yul\":13566:13589   */\n      swap2\n      pop\n        /* \"#utility.yul\":13315:13595   */\n      pop\n        /* \"#utility.yul\":13205:13595   */\n      swap3\n      swap2\n      pop\n      pop\n      jump\t// out\n        /* \"#utility.yul\":13601:14036   */\n    tag_144:\n        /* \"#utility.yul\":13781:13784   */\n      0x00\n        /* \"#utility.yul\":13803:13898   */\n      tag_506\n        /* \"#utility.yul\":13894:13897   */\n      dup3\n        /* \"#utility.yul\":13885:13891   */\n      dup6\n        /* \"#utility.yul\":13803:13898   */\n      tag_327\n      jump\t// in\n    tag_506:\n        /* \"#utility.yul\":13796:13898   */\n      swap2\n      pop\n        /* \"#utility.yul\":13915:14010   */\n      tag_507\n        /* \"#utility.yul\":14006:14009   */\n      dup3\n        /* \"#utility.yul\":13997:14003   */\n      dup5\n        /* \"#utility.yul\":13915:14010   */\n      tag_327\n      jump\t// in\n    tag_507:\n        /* \"#utility.yul\":13908:14010   */\n      swap2\n      pop\n        /* \"#utility.yul\":14027:14030   */\n      dup2\n        /* \"#utility.yul\":14020:14030   */\n      swap1\n      pop\n        /* \"#utility.yul\":13601:14036   */\n      swap4\n      swap3\n      pop\n      pop\n      pop\n      jump\t// out\n        /* \"#utility.yul\":14042:14222   */\n    tag_328:\n        /* \"#utility.yul\":14090:14167   */\n      0x4e487b7100000000000000000000000000000000000000000000000000000000\n        /* \"#utility.yul\":14087:14088   */\n      0x00\n        /* \"#utility.yul\":14080:14168   */\n      mstore\n        /* \"#utility.yul\":14187:14191   */\n      0x11\n        /* \"#utility.yul\":14184:14185   */\n      0x04\n        /* \"#utility.yul\":14177:14192   */\n      mstore\n        /* \"#utility.yul\":14211:14215   */\n      0x24\n        /* \"#utility.yul\":14208:14209   */\n      0x00\n        /* \"#utility.yul\":14201:14216   */\n      revert\n        /* \"#utility.yul\":14228:14461   */\n    tag_149:\n        /* \"#utility.yul\":14267:14270   */\n      0x00\n        /* \"#utility.yul\":14290:14314   */\n      tag_510\n        /* \"#utility.yul\":14308:14313   */\n      dup3\n        /* \"#utility.yul\":14290:14314   */\n      tag_303\n      jump\t// in\n    tag_510:\n        /* \"#utility.yul\":14281:14314   */\n      swap2\n      pop\n        /* \"#utility.yul\":14336:14402   */\n      0xffffffffffffffffffffffffffffffffffffffffffffffffffffffffffffffff\n        /* \"#utility.yul\":14329:14334   */\n      dup3\n        /* \"#utility.yul\":14326:14403   */\n      sub\n        /* \"#utility.yul\":14323:14426   */\n      tag_511\n      jumpi\n        /* \"#utility.yul\":14406:14424   */\n      tag_512\n      tag_328\n      jump\t// in\n    tag_512:\n        /* \"#utility.yul\":14323:14426   */\n    tag_511:\n        /* \"#utility.yul\":14453:14454   */\n      0x01\n        /* \"#utility.yul\":14446:14451   */\n      dup3\n        /* \"#utility.yul\":14442:14455   */\n      add\n        /* \"#utility.yul\":14435:14455   */\n      swap1\n      pop\n        /* \"#utility.yul\":14228:14461   */\n      swap2\n      swap1\n      pop\n      jump\t// out\n        /* \"#utility.yul\":14467:14565   */\n    tag_329:\n        /* \"#utility.yul\":14518:14524   */\n      0x00\n        /* \"#utility.yul\":14552:14557   */\n      dup2\n        /* \"#utility.yul\":14546:14558   */\n      mload\n        /* \"#utility.yul\":14536:14558   */\n      swap1\n      pop\n        /* \"#utility.yul\":14467:14565   */\n      swap2\n      swap1\n      pop\n      jump\t// out\n        /* \"#utility.yul\":14571:14739   */\n    tag_330:\n        /* \"#utility.yul\":14654:14665   */\n      0x00\n        /* \"#utility.yul\":14688:14694   */\n      dup3\n        /* \"#utility.yul\":14683:14686   */\n      dup3\n        /* \"#utility.yul\":14676:14695   */\n      mstore\n        /* \"#utility.yul\":14728:14732   */\n      0x20\n        /* \"#utility.yul\":14723:14726   */\n      dup3\n        /* \"#utility.yul\":14719:14733   */\n      add\n        /* \"#utility.yul\":14704:14733   */\n      swap1\n      pop\n        /* \"#utility.yul\":14571:14739   */\n      swap3\n      swap2\n      pop\n      pop\n      jump\t// out\n        /* \"#utility.yul\":14745:15118   */\n    tag_331:\n        /* \"#utility.yul\":14831:14834   */\n      0x00\n        /* \"#utility.yul\":14859:14897   */\n      tag_516\n        /* \"#utility.yul\":14891:14896   */\n      dup3\n        /* \"#utility.yul\":14859:14897   */\n      tag_329\n      jump\t// in\n    tag_516:\n        /* \"#utility.yul\":14913:14983   */\n      tag_517\n        /* \"#utility.yul\":14976:14982   */\n      dup2\n        /* \"#utility.yul\":14971:14974   */\n      dup6\n        /* \"#utility.yul\":14913:14983   */\n      tag_330\n      jump\t// in\n    tag_517:\n        /* \"#utility.yul\":14906:14983   */\n      swap4\n      pop\n        /* \"#utility.yul\":14992:15057   */\n      tag_518\n        /* \"#utility.yul\":15050:15056   */\n      dup2\n        /* \"#utility.yul\":15045:15048   */\n      dup6\n        /* \"#utility.yul\":15038:15042   */\n      0x20\n        /* \"#utility.yul\":15031:15036   */\n      dup7\n        /* \"#utility.yul\":15027:15043   */\n      add\n        /* \"#utility.yul\":14992:15057   */\n      tag_300\n      jump\t// in\n    tag_518:\n        /* \"#utility.yul\":15082:15111   */\n      tag_519\n        /* \"#utility.yul\":15104:15110   */\n      dup2\n        /* \"#utility.yul\":15082:15111   */\n      tag_301\n      jump\t// in\n    tag_519:\n        /* \"#utility.yul\":15077:15080   */\n      dup5\n        /* \"#utility.yul\":15073:15112   */\n      add\n        /* \"#utility.yul\":15066:15112   */\n      swap2\n      pop\n        /* \"#utility.yul\":14835:15118   */\n      pop\n        /* \"#utility.yul\":14745:15118   */\n      swap3\n      swap2\n      pop\n      pop\n      jump\t// out\n        /* \"#utility.yul\":15124:15764   */\n    tag_188:\n        /* \"#utility.yul\":15319:15323   */\n      0x00\n        /* \"#utility.yul\":15357:15360   */\n      0x80\n        /* \"#utility.yul\":15346:15355   */\n      dup3\n        /* \"#utility.yul\":15342:15361   */\n      add\n        /* \"#utility.yul\":15334:15361   */\n      swap1\n      pop\n        /* \"#utility.yul\":15371:15442   */\n      tag_521\n        /* \"#utility.yul\":15439:15440   */\n      0x00\n        /* \"#utility.yul\":15428:15437   */\n      dup4\n        /* \"#utility.yul\":15424:15441   */\n      add\n        /* \"#utility.yul\":15415:15421   */\n      dup8\n        /* \"#utility.yul\":15371:15442   */\n      tag_308\n      jump\t// in\n    tag_521:\n        /* \"#utility.yul\":15452:15524   */\n      tag_522\n        /* \"#utility.yul\":15520:15522   */\n      0x20\n        /* \"#utility.yul\":15509:15518   */\n      dup4\n        /* \"#utility.yul\":15505:15523   */\n      add\n        /* \"#utility.yul\":15496:15502   */\n      dup7\n        /* \"#utility.yul\":15452:15524   */\n      tag_308\n      jump\t// in\n    tag_522:\n        /* \"#utility.yul\":15534:15606   */\n      tag_523\n        /* \"#utility.yul\":15602:15604   */\n      0x40\n        /* \"#utility.yul\":15591:15600   */\n      dup4\n        /* \"#utility.yul\":15587:15605   */\n      add\n        /* \"#utility.yul\":15578:15584   */\n      dup6\n        /* \"#utility.yul\":15534:15606   */\n      tag_311\n      jump\t// in\n    tag_523:\n        /* \"#utility.yul\":15653:15662   */\n      dup2\n        /* \"#utility.yul\":15647:15651   */\n      dup2\n        /* \"#utility.yul\":15643:15663   */\n      sub\n        /* \"#utility.yul\":15638:15640   */\n      0x60\n        /* \"#utility.yul\":15627:15636   */\n      dup4\n        /* \"#utility.yul\":15623:15641   */\n      add\n        /* \"#utility.yul\":15616:15664   */\n      mstore\n        /* \"#utility.yul\":15681:15757   */\n      tag_524\n        /* \"#utility.yul\":15752:15756   */\n      dup2\n        /* \"#utility.yul\":15743:15749   */\n      dup5\n        /* \"#utility.yul\":15681:15757   */\n      tag_331\n      jump\t// in\n    tag_524:\n        /* \"#utility.yul\":15673:15757   */\n      swap1\n      pop\n        /* \"#utility.yul\":15124:15764   */\n      swap6\n      swap5\n      pop\n      pop\n      pop\n      pop\n      pop\n      jump\t// out\n        /* \"#utility.yul\":15770:15911   */\n    tag_332:\n        /* \"#utility.yul\":15826:15831   */\n      0x00\n        /* \"#utility.yul\":15857:15863   */\n      dup2\n        /* \"#utility.yul\":15851:15864   */\n      mload\n        /* \"#utility.yul\":15842:15864   */\n      swap1\n      pop\n        /* \"#utility.yul\":15873:15905   */\n      tag_526\n        /* \"#utility.yul\":15899:15904   */\n      dup2\n        /* \"#utility.yul\":15873:15905   */\n      tag_294\n      jump\t// in\n    tag_526:\n        /* \"#utility.yul\":15770:15911   */\n      swap3\n      swap2\n      pop\n      pop\n      jump\t// out\n        /* \"#utility.yul\":15917:16266   */\n    tag_191:\n        /* \"#utility.yul\":15986:15992   */\n      0x00\n        /* \"#utility.yul\":16035:16037   */\n      0x20\n        /* \"#utility.yul\":16023:16032   */\n      dup3\n        /* \"#utility.yul\":16014:16021   */\n      dup5\n        /* \"#utility.yul\":16010:16033   */\n      sub\n        /* \"#utility.yul\":16006:16038   */\n      slt\n        /* \"#utility.yul\":16003:16122   */\n      iszero\n      tag_528\n      jumpi\n        /* \"#utility.yul\":16041:16120   */\n      tag_529\n      tag_291\n      jump\t// in\n    tag_529:\n        /* \"#utility.yul\":16003:16122   */\n    tag_528:\n        /* \"#utility.yul\":16161:16162   */\n      0x00\n        /* \"#utility.yul\":16186:16249   */\n      tag_530\n        /* \"#utility.yul\":16241:16248   */\n      dup5\n        /* \"#utility.yul\":16232:16238   */\n      dup3\n        /* \"#utility.yul\":16221:16230   */\n      dup6\n        /* \"#utility.yul\":16217:16239   */\n      add\n        /* \"#utility.yul\":16186:16249   */\n      tag_332\n      jump\t// in\n    tag_530:\n        /* \"#utility.yul\":16176:16249   */\n      swap2\n      pop\n        /* \"#utility.yul\":16132:16259   */\n      pop\n        /* \"#utility.yul\":15917:16266   */\n      swap3\n      swap2\n      pop\n      pop\n      jump\t// out\n        /* \"#utility.yul\":16272:16413   */\n    tag_333:\n        /* \"#utility.yul\":16321:16325   */\n      0x00\n        /* \"#utility.yul\":16344:16347   */\n      dup2\n        /* \"#utility.yul\":16336:16347   */\n      swap1\n      pop\n        /* \"#utility.yul\":16367:16370   */\n      dup2\n        /* \"#utility.yul\":16364:16365   */\n      0x00\n        /* \"#utility.yul\":16357:16371   */\n      mstore\n        /* \"#utility.yul\":16401:16405   */\n      0x20\n        /* \"#utility.yul\":16398:16399   */\n      0x00\n        /* \"#utility.yul\":16388:16406   */\n      keccak256\n        /* \"#utility.yul\":16380:16406   */\n      swap1\n      pop\n        /* \"#utility.yul\":16272:16413   */\n      swap2\n      swap1\n      pop\n      jump\t// out\n        /* \"#utility.yul\":16419:16512   */\n    tag_334:\n        /* \"#utility.yul\":16456:16462   */\n      0x00\n        /* \"#utility.yul\":16503:16505   */\n      0x20\n        /* \"#utility.yul\":16498:16500   */\n      0x1f\n        /* \"#utility.yul\":16491:16496   */\n      dup4\n        /* \"#utility.yul\":16487:16501   */\n      add\n        /* \"#utility.yul\":16483:16506   */\n      div\n        /* \"#utility.yul\":16473:16506   */\n      swap1\n      pop\n        /* \"#utility.yul\":16419:16512   */\n      swap2\n      swap1\n      pop\n      jump\t// out\n        /* \"#utility.yul\":16518:16625   */\n    tag_335:\n        /* \"#utility.yul\":16562:16570   */\n      0x00\n        /* \"#utility.yul\":16612:16617   */\n      dup3\n        /* \"#utility.yul\":16606:16610   */\n      dup3\n        /* \"#utility.yul\":16602:16618   */\n      shl\n        /* \"#utility.yul\":16581:16618   */\n      swap1\n      pop\n        /* \"#utility.yul\":16518:16625   */\n      swap3\n      swap2\n      pop\n      pop\n      jump\t// out\n        /* \"#utility.yul\":16631:17024   */\n    tag_336:\n        /* \"#utility.yul\":16700:16706   */\n      0x00\n        /* \"#utility.yul\":16750:16751   */\n      0x08\n        /* \"#utility.yul\":16738:16748   */\n      dup4\n        /* \"#utility.yul\":16734:16752   */\n      mul\n        /* \"#utility.yul\":16773:16870   */\n      tag_535\n        /* \"#utility.yul\":16803:16869   */\n      0xffffffffffffffffffffffffffffffffffffffffffffffffffffffffffffffff\n        /* \"#utility.yul\":16792:16801   */\n      dup3\n        /* \"#utility.yul\":16773:16870   */\n      tag_335\n      jump\t// in\n    tag_535:\n        /* \"#utility.yul\":16891:16930   */\n      tag_536\n        /* \"#utility.yul\":16921:16929   */\n      dup7\n        /* \"#utility.yul\":16910:16919   */\n      dup4\n        /* \"#utility.yul\":16891:16930   */\n      tag_335\n      jump\t// in\n    tag_536:\n        /* \"#utility.yul\":16879:16930   */\n      swap6\n      pop\n        /* \"#utility.yul\":16963:16967   */\n      dup1\n        /* \"#utility.yul\":16959:16968   */\n      not\n        /* \"#utility.yul\":16952:16957   */\n      dup5\n        /* \"#utility.yul\":16948:16969   */\n      and\n        /* \"#utility.yul\":16939:16969   */\n      swap4\n      pop\n        /* \"#utility.yul\":17012:17016   */\n      dup1\n        /* \"#utility.yul\":17002:17010   */\n      dup7\n        /* \"#utility.yul\":16998:17017   */\n      and\n        /* \"#utility.yul\":16991:16996   */\n      dup5\n        /* \"#utility.yul\":16988:17018   */\n      or\n        /* \"#utility.yul\":16978:17018   */\n      swap3\n      pop\n        /* \"#utility.yul\":16707:17024   */\n      pop\n      pop\n        /* \"#utility.yul\":16631:17024   */\n      swap4\n      swap3\n      pop\n      pop\n      pop\n      jump\t// out\n        /* \"#utility.yul\":17030:17090   */\n    tag_337:\n        /* \"#utility.yul\":17058:17061   */\n      0x00\n        /* \"#utility.yul\":17079:17084   */\n      dup2\n        /* \"#utility.yul\":17072:17084   */\n      swap1\n      pop\n        /* \"#utility.yul\":17030:17090   */\n      swap2\n      swap1\n      pop\n      jump\t// out\n        /* \"#utility.yul\":17096:17238   */\n    tag_338:\n        /* \"#utility.yul\":17146:17155   */\n      0x00\n        /* \"#utility.yul\":17179:17232   */\n      tag_539\n        /* \"#utility.yul\":17197:17231   */\n      tag_540\n        /* \"#utility.yul\":17206:17230   */\n      tag_541\n        /* \"#utility.yul\":17224:17229   */\n      dup5\n        /* \"#utility.yul\":17206:17230   */\n      tag_303\n      jump\t// in\n    tag_541:\n        /* \"#utility.yul\":17197:17231   */\n      tag_337\n      jump\t// in\n    tag_540:\n        /* \"#utility.yul\":17179:17232   */\n      tag_303\n      jump\t// in\n    tag_539:\n        /* \"#utility.yul\":17166:17232   */\n      swap1\n      pop\n        /* \"#utility.yul\":17096:17238   */\n      swap2\n      swap1\n      pop\n      jump\t// out\n        /* \"#utility.yul\":17244:17319   */\n    tag_339:\n        /* \"#utility.yul\":17287:17290   */\n      0x00\n        /* \"#utility.yul\":17308:17313   */\n      dup2\n        /* \"#utility.yul\":17301:17313   */\n      swap1\n      pop\n        /* \"#utility.yul\":17244:17319   */\n      swap2\n      swap1\n      pop\n      jump\t// out\n        /* \"#utility.yul\":17325:17594   */\n    tag_340:\n        /* \"#utility.yul\":17435:17474   */\n      tag_544\n        /* \"#utility.yul\":17466:17473   */\n      dup4\n        /* \"#utility.yul\":17435:17474   */\n      tag_338\n      jump\t// in\n    tag_544:\n        /* \"#utility.yul\":17496:17587   */\n      tag_545\n        /* \"#utility.yul\":17545:17586   */\n      tag_546\n        /* \"#utility.yul\":17569:17585   */\n      dup3\n        /* \"#utility.yul\":17545:17586   */\n      tag_339\n      jump\t// in\n    tag_546:\n        /* \"#utility.yul\":17537:17543   */\n      dup5\n        /* \"#utility.yul\":17530:17534   */\n      dup5\n        /* \"#utility.yul\":17524:17535   */\n      sload\n        /* \"#utility.yul\":17496:17587   */\n      tag_336\n      jump\t// in\n    tag_545:\n        /* \"#utility.yul\":17490:17494   */\n      dup3\n        /* \"#utility.yul\":17483:17588   */\n      sstore\n        /* \"#utility.yul\":17401:17594   */\n      pop\n        /* \"#utility.yul\":17325:17594   */\n      pop\n      pop\n      pop\n      jump\t// out\n        /* \"#utility.yul\":17600:17673   */\n    tag_341:\n        /* \"#utility.yul\":17645:17648   */\n      0x00\n        /* \"#utility.yul\":17600:17673   */\n      swap1\n      jump\t// out\n        /* \"#utility.yul\":17679:17868   */\n    tag_342:\n        /* \"#utility.yul\":17756:17788   */\n      tag_549\n      tag_341\n      jump\t// in\n    tag_549:\n        /* \"#utility.yul\":17797:17862   */\n      tag_550\n        /* \"#utility.yul\":17855:17861   */\n      dup2\n        /* \"#utility.yul\":17847:17853   */\n      dup5\n        /* \"#utility.yul\":17841:17845   */\n      dup5\n        /* \"#utility.yul\":17797:17862   */\n      tag_340\n      jump\t// in\n    tag_550:\n        /* \"#utility.yul\":17732:17868   */\n      pop\n        /* \"#utility.yul\":17679:17868   */\n      pop\n      pop\n      jump\t// out\n        /* \"#utility.yul\":17874:18060   */\n    tag_343:\n        /* \"#utility.yul\":17934:18054   */\n    tag_552:\n        /* \"#utility.yul\":17951:17954   */\n      dup2\n        /* \"#utility.yul\":17944:17949   */\n      dup2\n        /* \"#utility.yul\":17941:17955   */\n      lt\n        /* \"#utility.yul\":17934:18054   */\n      iszero\n      tag_554\n      jumpi\n        /* \"#utility.yul\":18005:18044   */\n      tag_555\n        /* \"#utility.yul\":18042:18043   */\n      0x00\n        /* \"#utility.yul\":18035:18040   */\n      dup3\n        /* \"#utility.yul\":18005:18044   */\n      tag_342\n      jump\t// in\n    tag_555:\n        /* \"#utility.yul\":17978:17979   */\n      0x01\n        /* \"#utility.yul\":17971:17976   */\n      dup2\n        /* \"#utility.yul\":17967:17980   */\n      add\n        /* \"#utility.yul\":17958:17980   */\n      swap1\n      pop\n        /* \"#utility.yul\":17934:18054   */\n      jump(tag_552)\n    tag_554:\n        /* \"#utility.yul\":17874:18060   */\n      pop\n      pop\n      jump\t// out\n        /* \"#utility.yul\":18066:18609   */\n    tag_344:\n        /* \"#utility.yul\":18167:18169   */\n      0x1f\n        /* \"#utility.yul\":18162:18165   */\n      dup3\n        /* \"#utility.yul\":18159:18170   */\n      gt\n        /* \"#utility.yul\":18156:18602   */\n      iszero\n      tag_557\n      jumpi\n        /* \"#utility.yul\":18201:18239   */\n      tag_558\n        /* \"#utility.yul\":18233:18238   */\n      dup2\n        /* \"#utility.yul\":18201:18239   */\n      tag_333\n      jump\t// in\n    tag_558:\n        /* \"#utility.yul\":18285:18314   */\n      tag_559\n        /* \"#utility.yul\":18303:18313   */\n      dup5\n        /* \"#utility.yul\":18285:18314   */\n      tag_334\n      jump\t// in\n    tag_559:\n        /* \"#utility.yul\":18275:18283   */\n      dup2\n        /* \"#utility.yul\":18271:18315   */\n      add\n        /* \"#utility.yul\":18468:18470   */\n      0x20\n        /* \"#utility.yul\":18456:18466   */\n      dup6\n        /* \"#utility.yul\":18453:18471   */\n      lt\n        /* \"#utility.yul\":18450:18499   */\n      iszero\n      tag_560\n      jumpi\n        /* \"#utility.yul\":18489:18497   */\n      dup2\n        /* \"#utility.yul\":18474:18497   */\n      swap1\n      pop\n        /* \"#utility.yul\":18450:18499   */\n    tag_560:\n        /* \"#utility.yul\":18512:18592   */\n      tag_561\n        /* \"#utility.yul\":18568:18590   */\n      tag_562\n        /* \"#utility.yul\":18586:18589   */\n      dup6\n        /* \"#utility.yul\":18568:18590   */\n      tag_334\n      jump\t// in\n    tag_562:\n        /* \"#utility.yul\":18558:18566   */\n      dup4\n        /* \"#utility.yul\":18554:18591   */\n      add\n        /* \"#utility.yul\":18541:18552   */\n      dup3\n        /* \"#utility.yul\":18512:18592   */\n      tag_343\n      jump\t// in\n    tag_561:\n        /* \"#utility.yul\":18171:18602   */\n      pop\n      pop\n        /* \"#utility.yul\":18156:18602   */\n    tag_557:\n        /* \"#utility.yul\":18066:18609   */\n      pop\n      pop\n      pop\n      jump\t// out\n        /* \"#utility.yul\":18615:18732   */\n    tag_345:\n        /* \"#utility.yul\":18669:18677   */\n      0x00\n        /* \"#utility.yul\":18719:18724   */\n      dup3\n        /* \"#utility.yul\":18713:18717   */\n      dup3\n        /* \"#utility.yul\":18709:18725   */\n      shr\n        /* \"#utility.yul\":18688:18725   */\n      swap1\n      pop\n        /* \"#utility.yul\":18615:18732   */\n      swap3\n      swap2\n      pop\n      pop\n      jump\t// out\n        /* \"#utility.yul\":18738:18907   */\n    tag_346:\n        /* \"#utility.yul\":18782:18788   */\n      0x00\n        /* \"#utility.yul\":18815:18866   */\n      tag_565\n        /* \"#utility.yul\":18863:18864   */\n      0x00\n        /* \"#utility.yul\":18859:18865   */\n      not\n        /* \"#utility.yul\":18851:18856   */\n      dup5\n        /* \"#utility.yul\":18848:18849   */\n      0x08\n        /* \"#utility.yul\":18844:18857   */\n      mul\n        /* \"#utility.yul\":18815:18866   */\n      tag_345\n      jump\t// in\n    tag_565:\n        /* \"#utility.yul\":18811:18867   */\n      not\n        /* \"#utility.yul\":18896:18900   */\n      dup1\n        /* \"#utility.yul\":18890:18894   */\n      dup4\n        /* \"#utility.yul\":18886:18901   */\n      and\n        /* \"#utility.yul\":18876:18901   */\n      swap2\n      pop\n        /* \"#utility.yul\":18789:18907   */\n      pop\n        /* \"#utility.yul\":18738:18907   */\n      swap3\n      swap2\n      pop\n      pop\n      jump\t// out\n        /* \"#utility.yul\":18912:19207   */\n    tag_347:\n        /* \"#utility.yul\":18988:18992   */\n      0x00\n        /* \"#utility.yul\":19134:19163   */\n      tag_567\n        /* \"#utility.yul\":19159:19162   */\n      dup4\n        /* \"#utility.yul\":19153:19157   */\n      dup4\n        /* \"#utility.yul\":19134:19163   */\n      tag_346\n      jump\t// in\n    tag_567:\n        /* \"#utility.yul\":19126:19163   */\n      swap2\n      pop\n        /* \"#utility.yul\":19196:19199   */\n      dup3\n        /* \"#utility.yul\":19193:19194   */\n      0x02\n        /* \"#utility.yul\":19189:19200   */\n      mul\n        /* \"#utility.yul\":19183:19187   */\n      dup3\n        /* \"#utility.yul\":19180:19201   */\n      or\n        /* \"#utility.yul\":19172:19201   */\n      swap1\n      pop\n        /* \"#utility.yul\":18912:19207   */\n      swap3\n      swap2\n      pop\n      pop\n      jump\t// out\n        /* \"#utility.yul\":19212:20607   */\n    tag_218:\n        /* \"#utility.yul\":19329:19366   */\n      tag_569\n        /* \"#utility.yul\":19362:19365   */\n      dup3\n        /* \"#utility.yul\":19329:19366   */\n      tag_298\n      jump\t// in\n    tag_569:\n        /* \"#utility.yul\":19431:19449   */\n      0xffffffffffffffff\n        /* \"#utility.yul\":19423:19429   */\n      dup2\n        /* \"#utility.yul\":19420:19450   */\n      gt\n        /* \"#utility.yul\":19417:19473   */\n      iszero\n      tag_570\n      jumpi\n        /* \"#utility.yul\":19453:19471   */\n      tag_571\n      tag_246\n      jump\t// in\n    tag_571:\n        /* \"#utility.yul\":19417:19473   */\n    tag_570:\n        /* \"#utility.yul\":19497:19535   */\n      tag_572\n        /* \"#utility.yul\":19529:19533   */\n      dup3\n        /* \"#utility.yul\":19523:19534   */\n      sload\n        /* \"#utility.yul\":19497:19535   */\n      tag_87\n      jump\t// in\n    tag_572:\n        /* \"#utility.yul\":19582:19649   */\n      tag_573\n        /* \"#utility.yul\":19642:19648   */\n      dup3\n        /* \"#utility.yul\":19634:19640   */\n      dup3\n        /* \"#utility.yul\":19628:19632   */\n      dup6\n        /* \"#utility.yul\":19582:19649   */\n      tag_344\n      jump\t// in\n    tag_573:\n        /* \"#utility.yul\":19676:19677   */\n      0x00\n        /* \"#utility.yul\":19700:19704   */\n      0x20\n        /* \"#utility.yul\":19687:19704   */\n      swap1\n      pop\n        /* \"#utility.yul\":19732:19734   */\n      0x1f\n        /* \"#utility.yul\":19724:19730   */\n      dup4\n        /* \"#utility.yul\":19721:19735   */\n      gt\n        /* \"#utility.yul\":19749:19750   */\n      0x01\n        /* \"#utility.yul\":19744:20362   */\n      dup2\n      eq\n      tag_575\n      jumpi\n        /* \"#utility.yul\":20406:20407   */\n      0x00\n        /* \"#utility.yul\":20423:20429   */\n      dup5\n        /* \"#utility.yul\":20420:20497   */\n      iszero\n      tag_576\n      jumpi\n        /* \"#utility.yul\":20472:20481   */\n      dup3\n        /* \"#utility.yul\":20467:20470   */\n      dup8\n        /* \"#utility.yul\":20463:20482   */\n      add\n        /* \"#utility.yul\":20457:20483   */\n      mload\n        /* \"#utility.yul\":20448:20483   */\n      swap1\n      pop\n        /* \"#utility.yul\":20420:20497   */\n    tag_576:\n        /* \"#utility.yul\":20523:20590   */\n      tag_577\n        /* \"#utility.yul\":20583:20589   */\n      dup6\n        /* \"#utility.yul\":20576:20581   */\n      dup3\n        /* \"#utility.yul\":20523:20590   */\n      tag_347\n      jump\t// in\n    tag_577:\n        /* \"#utility.yul\":20517:20521   */\n      dup7\n        /* \"#utility.yul\":20510:20591   */\n      sstore\n        /* \"#utility.yul\":20379:20601   */\n      pop\n        /* \"#utility.yul\":19714:20601   */\n      jump(tag_574)\n        /* \"#utility.yul\":19744:20362   */\n    tag_575:\n        /* \"#utility.yul\":19796:19800   */\n      0x1f\n        /* \"#utility.yul\":19792:19801   */\n      not\n        /* \"#utility.yul\":19784:19790   */\n      dup5\n        /* \"#utility.yul\":19780:19802   */\n      and\n        /* \"#utility.yul\":19830:19867   */\n      tag_578\n        /* \"#utility.yul\":19862:19866   */\n      dup7\n        /* \"#utility.yul\":19830:19867   */\n      tag_333\n      jump\t// in\n    tag_578:\n        /* \"#utility.yul\":19889:19890   */\n      0x00\n        /* \"#utility.yul\":19903:20111   */\n    tag_579:\n        /* \"#utility.yul\":19917:19924   */\n      dup3\n        /* \"#utility.yul\":19914:19915   */\n      dup2\n        /* \"#utility.yul\":19911:19925   */\n      lt\n        /* \"#utility.yul\":19903:20111   */\n      iszero\n      tag_581\n      jumpi\n        /* \"#utility.yul\":19996:20005   */\n      dup5\n        /* \"#utility.yul\":19991:19994   */\n      dup10\n        /* \"#utility.yul\":19987:20006   */\n      add\n        /* \"#utility.yul\":19981:20007   */\n      mload\n        /* \"#utility.yul\":19973:19979   */\n      dup3\n        /* \"#utility.yul\":19966:20008   */\n      sstore\n        /* \"#utility.yul\":20047:20048   */\n      0x01\n        /* \"#utility.yul\":20039:20045   */\n      dup3\n        /* \"#utility.yul\":20035:20049   */\n      add\n        /* \"#utility.yul\":20025:20049   */\n      swap2\n      pop\n        /* \"#utility.yul\":20094:20096   */\n      0x20\n        /* \"#utility.yul\":20083:20092   */\n      dup6\n        /* \"#utility.yul\":20079:20097   */\n      add\n        /* \"#utility.yul\":20066:20097   */\n      swap5\n      pop\n        /* \"#utility.yul\":19940:19944   */\n      0x20\n        /* \"#utility.yul\":19937:19938   */\n      dup2\n        /* \"#utility.yul\":19933:19945   */\n      add\n        /* \"#utility.yul\":19928:19945   */\n      swap1\n      pop\n        /* \"#utility.yul\":19903:20111   */\n      jump(tag_579)\n    tag_581:\n        /* \"#utility.yul\":20139:20145   */\n      dup7\n        /* \"#utility.yul\":20130:20137   */\n      dup4\n        /* \"#utility.yul\":20127:20146   */\n      lt\n        /* \"#utility.yul\":20124:20303   */\n      iszero\n      tag_582\n      jumpi\n        /* \"#utility.yul\":20197:20206   */\n      dup5\n        /* \"#utility.yul\":20192:20195   */\n      dup10\n        /* \"#utility.yul\":20188:20207   */\n      add\n        /* \"#utility.yul\":20182:20208   */\n      mload\n        /* \"#utility.yul\":20240:20288   */\n      tag_583\n        /* \"#utility.yul\":20282:20286   */\n      0x1f\n        /* \"#utility.yul\":20274:20280   */\n      dup10\n        /* \"#utility.yul\":20270:20287   */\n      and\n        /* \"#utility.yul\":20259:20268   */\n      dup3\n        /* \"#utility.yul\":20240:20288   */\n      tag_346\n      jump\t// in\n    tag_583:\n        /* \"#utility.yul\":20232:20238   */\n      dup4\n        /* \"#utility.yul\":20225:20289   */\n      sstore\n        /* \"#utility.yul\":20147:20303   */\n      pop\n        /* \"#utility.yul\":20124:20303   */\n    tag_582:\n        /* \"#utility.yul\":20349:20350   */\n      0x01\n        /* \"#utility.yul\":20345:20346   */\n      0x02\n        /* \"#utility.yul\":20337:20343   */\n      dup9\n        /* \"#utility.yul\":20333:20347   */\n      mul\n        /* \"#utility.yul\":20329:20351   */\n      add\n        /* \"#utility.yul\":20323:20327   */\n      dup9\n        /* \"#utility.yul\":20316:20352   */\n      sstore\n        /* \"#utility.yul\":19751:20362   */\n      pop\n      pop\n      pop\n        /* \"#utility.yul\":19714:20601   */\n    tag_574:\n      pop\n        /* \"#utility.yul\":19304:20607   */\n      pop\n      pop\n      pop\n        /* \"#utility.yul\":19212:20607   */\n      pop\n      pop\n      jump\t// out\n        /* \"#utility.yul\":20613:20945   */\n    tag_240:\n        /* \"#utility.yul\":20734:20738   */\n      0x00\n        /* \"#utility.yul\":20772:20774   */\n      0x40\n        /* \"#utility.yul\":20761:20770   */\n      dup3\n        /* \"#utility.yul\":20757:20775   */\n      add\n        /* \"#utility.yul\":20749:20775   */\n      swap1\n      pop\n        /* \"#utility.yul\":20785:20856   */\n      tag_585\n        /* \"#utility.yul\":20853:20854   */\n      0x00\n        /* \"#utility.yul\":20842:20851   */\n      dup4\n        /* \"#utility.yul\":20838:20855   */\n      add\n        /* \"#utility.yul\":20829:20835   */\n      dup6\n        /* \"#utility.yul\":20785:20856   */\n      tag_308\n      jump\t// in\n    tag_585:\n        /* \"#utility.yul\":20866:20938   */\n      tag_586\n        /* \"#utility.yul\":20934:20936   */\n      0x20\n        /* \"#utility.yul\":20923:20932   */\n      dup4\n        /* \"#utility.yul\":20919:20937   */\n      add\n        /* \"#utility.yul\":20910:20916   */\n      dup5\n        /* \"#utility.yul\":20866:20938   */\n      tag_311\n      jump\t// in\n    tag_586:\n        /* \"#utility.yul\":20613:20945   */\n      swap4\n      swap3\n      pop\n      pop\n      pop\n      jump\t// out\n        /* \"#utility.yul\":20951:21131   */\n    tag_252:\n        /* \"#utility.yul\":20999:21076   */\n      0x4e487b7100000000000000000000000000000000000000000000000000000000\n        /* \"#utility.yul\":20996:20997   */\n      0x00\n        /* \"#utility.yul\":20989:21077   */\n      mstore\n        /* \"#utility.yul\":21096:21100   */\n      0x12\n        /* \"#utility.yul\":21093:21094   */\n      0x04\n        /* \"#utility.yul\":21086:21101   */\n      mstore\n        /* \"#utility.yul\":21120:21124   */\n      0x24\n        /* \"#utility.yul\":21117:21118   */\n      0x00\n        /* \"#utility.yul\":21110:21125   */\n      revert\n\n    auxdata: 0xa2646970667358221220d2e6ffb43e1858a6ddfa48ae867cf9cbb7e49452b5022155f4eb02b7c827b7fe64736f6c63430008160033\n}\n",
				"bytecode": {
					"linkReferences": {},
					"object": "608060405234801562000010575f80fd5b506040516200285b3803806200285b833981810160405281019062000036919062000173565b6040518060400160405280601581526020017f426f726564205065747320596163687420436c756200000000000000000000008152506040518060400160405280600481526020017f4250594300000000000000000000000000000000000000000000000000000000815250815f9081620000b2919062000407565b508060019081620000c4919062000407565b5050508060085f6101000a81548173ffffffffffffffffffffffffffffffffffffffff021916908373ffffffffffffffffffffffffffffffffffffffff16021790555050620004eb565b5f80fd5b5f73ffffffffffffffffffffffffffffffffffffffff82169050919050565b5f6200013d8262000112565b9050919050565b6200014f8162000131565b81146200015a575f80fd5b50565b5f815190506200016d8162000144565b92915050565b5f602082840312156200018b576200018a6200010e565b5b5f6200019a848285016200015d565b91505092915050565b5f81519050919050565b7f4e487b71000000000000000000000000000000000000000000000000000000005f52604160045260245ffd5b7f4e487b71000000000000000000000000000000000000000000000000000000005f52602260045260245ffd5b5f60028204905060018216806200021f57607f821691505b602082108103620002355762000234620001da565b5b50919050565b5f819050815f5260205f209050919050565b5f6020601f8301049050919050565b5f82821b905092915050565b5f60088302620002997fffffffffffffffffffffffffffffffffffffffffffffffffffffffffffffffff826200025c565b620002a586836200025c565b95508019841693508086168417925050509392505050565b5f819050919050565b5f819050919050565b5f620002ef620002e9620002e384620002bd565b620002c6565b620002bd565b9050919050565b5f819050919050565b6200030a83620002cf565b620003226200031982620002f6565b84845462000268565b825550505050565b5f90565b620003386200032a565b62000345818484620002ff565b505050565b5b818110156200036c57620003605f826200032e565b6001810190506200034b565b5050565b601f821115620003bb5762000385816200023b565b62000390846200024d565b81016020851015620003a0578190505b620003b8620003af856200024d565b8301826200034a565b50505b505050565b5f82821c905092915050565b5f620003dd5f1984600802620003c0565b1980831691505092915050565b5f620003f78383620003cc565b9150826002028217905092915050565b6200041282620001a3565b67ffffffffffffffff8111156200042e576200042d620001ad565b5b6200043a825462000207565b6200044782828562000370565b5f60209050601f8311600181146200047d575f841562000468578287015190505b620004748582620003ea565b865550620004e3565b601f1984166200048d866200023b565b5f5b82811015620004b6578489015182556001820191506020850194506020810190506200048f565b86831015620004d65784890151620004d2601f891682620003cc565b8355505b6001600288020188555050505b505050505050565b61236280620004f95f395ff3fe608060405234801561000f575f80fd5b50600436106100e8575f3560e01c806370a082311161008a578063b88d4fde11610064578063b88d4fde14610258578063c87b56dd14610274578063d85d3d27146102a4578063e985e9c5146102c0576100e8565b806370a08231146101ee57806395d89b411461021e578063a22cb4651461023c576100e8565b8063095ea7b3116100c6578063095ea7b31461016a57806323b872dd1461018657806342842e0e146101a25780636352211e146101be576100e8565b806301ffc9a7146100ec57806306fdde031461011c578063081812fc1461013a575b5f80fd5b6101066004803603810190610101919061182e565b6102f0565b6040516101139190611873565b60405180910390f35b610124610350565b6040516101319190611916565b60405180910390f35b610154600480360381019061014f9190611969565b6103df565b60405161016191906119d3565b60405180910390f35b610184600480360381019061017f9190611a16565b6103fa565b005b6101a0600480360381019061019b9190611a54565b610410565b005b6101bc60048036038101906101b79190611a54565b61050f565b005b6101d860048036038101906101d39190611969565b61052e565b6040516101e591906119d3565b60405180910390f35b61020860048036038101906102039190611aa4565b61053f565b6040516102159190611ade565b60405180910390f35b6102266105f5565b6040516102339190611916565b60405180910390f35b61025660048036038101906102519190611b21565b610685565b005b610272600480360381019061026d9190611c8b565b61069b565b005b61028e60048036038101906102899190611969565b6106b8565b60405161029b9190611916565b60405180910390f35b6102be60048036038101906102b99190611da9565b6107c3565b005b6102da60048036038101906102d59190611df0565b61085b565b6040516102e79190611873565b60405180910390f35b5f634906490660e01b7bffffffffffffffffffffffffffffffffffffffffffffffffffffffff1916827bffffffffffffffffffffffffffffffffffffffffffffffffffffffff191614806103495750610348826108e9565b5b9050919050565b60605f805461035e90611e5b565b80601f016020809104026020016040519081016040528092919081815260200182805461038a90611e5b565b80156103d55780601f106103ac576101008083540402835291602001916103d5565b820191905f5260205f20905b8154815290600101906020018083116103b857829003601f168201915b5050505050905090565b5f6103e9826109ca565b506103f382610a50565b9050919050565b61040c8282610407610a89565b610a90565b5050565b5f73ffffffffffffffffffffffffffffffffffffffff168273ffffffffffffffffffffffffffffffffffffffff1603610480575f6040517f64a0ae9200000000000000000000000000000000000000000000000000000000815260040161047791906119d3565b60405180910390fd5b5f610493838361048e610a89565b610aa2565b90508373ffffffffffffffffffffffffffffffffffffffff168173ffffffffffffffffffffffffffffffffffffffff1614610509578382826040517f64283d7b00000000000000000000000000000000000000000000000000000000815260040161050093929190611e8b565b60405180910390fd5b50505050565b61052983838360405180602001604052805f81525061069b565b505050565b5f610538826109ca565b9050919050565b5f8073ffffffffffffffffffffffffffffffffffffffff168273ffffffffffffffffffffffffffffffffffffffff16036105b0575f6040517f89c62b640000000000000000000000000000000000000000000000000000000081526004016105a791906119d3565b60405180910390fd5b60035f8373ffffffffffffffffffffffffffffffffffffffff1673ffffffffffffffffffffffffffffffffffffffff1681526020019081526020015f20549050919050565b60606001805461060490611e5b565b80601f016020809104026020016040519081016040528092919081815260200182805461063090611e5b565b801561067b5780601f106106525761010080835404028352916020019161067b565b820191905f5260205f20905b81548152906001019060200180831161065e57829003601f168201915b5050505050905090565b610697610690610a89565b8383610cad565b5050565b6106a6848484610410565b6106b284848484610e16565b50505050565b60606106c3826109ca565b505f60065f8481526020019081526020015f2080546106e190611e5b565b80601f016020809104026020016040519081016040528092919081815260200182805461070d90611e5b565b80156107585780601f1061072f57610100808354040283529160200191610758565b820191905f5260205f20905b81548152906001019060200180831161073b57829003601f168201915b505050505090505f610768610fc8565b90505f81510361077c5781925050506107be565b5f825111156107b0578082604051602001610798929190611efa565b604051602081830303815290604052925050506107be565b6107b984610fde565b925050505b919050565b60075f8154809291906107d590611f4a565b91905055505f60075490506107ea3382611044565b6107f48183611061565b61082060085f9054906101000a900473ffffffffffffffffffffffffffffffffffffffff166001610685565b7fd9dc24857f317ed9abbbb42e920ede0104231eb1d3d70236a74887ffaf1598688160405161084f9190611ade565b60405180910390a15050565b5f60055f8473ffffffffffffffffffffffffffffffffffffffff1673ffffffffffffffffffffffffffffffffffffffff1681526020019081526020015f205f8373ffffffffffffffffffffffffffffffffffffffff1673ffffffffffffffffffffffffffffffffffffffff1681526020019081526020015f205f9054906101000a900460ff16905092915050565b5f7f80ac58cd000000000000000000000000000000000000000000000000000000007bffffffffffffffffffffffffffffffffffffffffffffffffffffffff1916827bffffffffffffffffffffffffffffffffffffffffffffffffffffffff191614806109b357507f5b5e139f000000000000000000000000000000000000000000000000000000007bffffffffffffffffffffffffffffffffffffffffffffffffffffffff1916827bffffffffffffffffffffffffffffffffffffffffffffffffffffffff1916145b806109c357506109c2826110bb565b5b9050919050565b5f806109d583611124565b90505f73ffffffffffffffffffffffffffffffffffffffff168173ffffffffffffffffffffffffffffffffffffffff1603610a4757826040517f7e273289000000000000000000000000000000000000000000000000000000008152600401610a3e9190611ade565b60405180910390fd5b80915050919050565b5f60045f8381526020019081526020015f205f9054906101000a900473ffffffffffffffffffffffffffffffffffffffff169050919050565b5f33905090565b610a9d838383600161115d565b505050565b5f80610aad84611124565b90505f73ffffffffffffffffffffffffffffffffffffffff168373ffffffffffffffffffffffffffffffffffffffff1614610aee57610aed81848661131c565b5b5f73ffffffffffffffffffffffffffffffffffffffff168173ffffffffffffffffffffffffffffffffffffffff1614610b7957610b2d5f855f8061115d565b600160035f8373ffffffffffffffffffffffffffffffffffffffff1673ffffffffffffffffffffffffffffffffffffffff1681526020019081526020015f205f82825403925050819055505b5f73ffffffffffffffffffffffffffffffffffffffff168573ffffffffffffffffffffffffffffffffffffffff1614610bf857600160035f8773ffffffffffffffffffffffffffffffffffffffff1673ffffffffffffffffffffffffffffffffffffffff1681526020019081526020015f205f82825401925050819055505b8460025f8681526020019081526020015f205f6101000a81548173ffffffffffffffffffffffffffffffffffffffff021916908373ffffffffffffffffffffffffffffffffffffffff160217905550838573ffffffffffffffffffffffffffffffffffffffff168273ffffffffffffffffffffffffffffffffffffffff167fddf252ad1be2c89b69c2b068fc378daa952ba7f163c4a11628f55a4df523b3ef60405160405180910390a4809150509392505050565b5f73ffffffffffffffffffffffffffffffffffffffff168273ffffffffffffffffffffffffffffffffffffffff1603610d1d57816040517f5b08ba18000000000000000000000000000000000000000000000000000000008152600401610d1491906119d3565b60405180910390fd5b8060055f8573ffffffffffffffffffffffffffffffffffffffff1673ffffffffffffffffffffffffffffffffffffffff1681526020019081526020015f205f8473ffffffffffffffffffffffffffffffffffffffff1673ffffffffffffffffffffffffffffffffffffffff1681526020019081526020015f205f6101000a81548160ff0219169083151502179055508173ffffffffffffffffffffffffffffffffffffffff168373ffffffffffffffffffffffffffffffffffffffff167f17307eab39ab6107e8899845ad3d59bd9653f200f220920489ca2b5937696c3183604051610e099190611873565b60405180910390a3505050565b5f8373ffffffffffffffffffffffffffffffffffffffff163b1115610fc2578273ffffffffffffffffffffffffffffffffffffffff1663150b7a02610e59610a89565b8685856040518563ffffffff1660e01b8152600401610e7b9493929190611fe3565b6020604051808303815f875af1925050508015610eb657506040513d601f19601f82011682018060405250810190610eb39190612041565b60015b610f37573d805f8114610ee4576040519150601f19603f3d011682016040523d82523d5f602084013e610ee9565b606091505b505f815103610f2f57836040517f64a0ae92000000000000000000000000000000000000000000000000000000008152600401610f2691906119d3565b60405180910390fd5b805181602001fd5b63150b7a0260e01b7bffffffffffffffffffffffffffffffffffffffffffffffffffffffff1916817bffffffffffffffffffffffffffffffffffffffffffffffffffffffff191614610fc057836040517f64a0ae92000000000000000000000000000000000000000000000000000000008152600401610fb791906119d3565b60405180910390fd5b505b50505050565b606060405180602001604052805f815250905090565b6060610fe9826109ca565b505f610ff3610fc8565b90505f8151116110115760405180602001604052805f81525061103c565b8061101b846113df565b60405160200161102c929190611efa565b6040516020818303038152906040525b915050919050565b61105d828260405180602001604052805f8152506114a9565b5050565b8060065f8481526020019081526020015f20908161107f9190612209565b507ff8e1a15aba9398e019f0b49df1a4fde98ee17ae345cb5f6b5e2c27f5033e8ce7826040516110af9190611ade565b60405180910390a15050565b5f7f01ffc9a7000000000000000000000000000000000000000000000000000000007bffffffffffffffffffffffffffffffffffffffffffffffffffffffff1916827bffffffffffffffffffffffffffffffffffffffffffffffffffffffff1916149050919050565b5f60025f8381526020019081526020015f205f9054906101000a900473ffffffffffffffffffffffffffffffffffffffff169050919050565b808061119557505f73ffffffffffffffffffffffffffffffffffffffff168273ffffffffffffffffffffffffffffffffffffffff1614155b156112c7575f6111a4846109ca565b90505f73ffffffffffffffffffffffffffffffffffffffff168373ffffffffffffffffffffffffffffffffffffffff161415801561120e57508273ffffffffffffffffffffffffffffffffffffffff168173ffffffffffffffffffffffffffffffffffffffff1614155b8015611221575061121f818461085b565b155b1561126357826040517fa9fbf51f00000000000000000000000000000000000000000000000000000000815260040161125a91906119d3565b60405180910390fd5b81156112c557838573ffffffffffffffffffffffffffffffffffffffff168273ffffffffffffffffffffffffffffffffffffffff167f8c5be1e5ebec7d5bd14f71427d1e84f3dd0314c0f7b2291e5b200ac8c7c3b92560405160405180910390a45b505b8360045f8581526020019081526020015f205f6101000a81548173ffffffffffffffffffffffffffffffffffffffff021916908373ffffffffffffffffffffffffffffffffffffffff16021790555050505050565b6113278383836114c4565b6113da575f73ffffffffffffffffffffffffffffffffffffffff168373ffffffffffffffffffffffffffffffffffffffff160361139b57806040517f7e2732890000000000000000000000000000000000000000000000000000000081526004016113929190611ade565b60405180910390fd5b81816040517f177e802f0000000000000000000000000000000000000000000000000000000081526004016113d19291906122d8565b60405180910390fd5b505050565b60605f60016113ed84611584565b0190505f8167ffffffffffffffff81111561140b5761140a611b67565b5b6040519080825280601f01601f19166020018201604052801561143d5781602001600182028036833780820191505090505b5090505f82602001820190505b60011561149e578080600190039150507f3031323334353637383961626364656600000000000000000000000000000000600a86061a8153600a8581611493576114926122ff565b5b0494505f850361144a575b819350505050919050565b6114b383836116d5565b6114bf5f848484610e16565b505050565b5f8073ffffffffffffffffffffffffffffffffffffffff168373ffffffffffffffffffffffffffffffffffffffff161415801561157b57508273ffffffffffffffffffffffffffffffffffffffff168473ffffffffffffffffffffffffffffffffffffffff16148061153c575061153b848461085b565b5b8061157a57508273ffffffffffffffffffffffffffffffffffffffff1661156283610a50565b73ffffffffffffffffffffffffffffffffffffffff16145b5b90509392505050565b5f805f90507a184f03e93ff9f4daa797ed6e38ed64bf6a1f01000000000000000083106115e0577a184f03e93ff9f4daa797ed6e38ed64bf6a1f01000000000000000083816115d6576115d56122ff565b5b0492506040810190505b6d04ee2d6d415b85acef8100000000831061161d576d04ee2d6d415b85acef81000000008381611613576116126122ff565b5b0492506020810190505b662386f26fc10000831061164c57662386f26fc100008381611642576116416122ff565b5b0492506010810190505b6305f5e1008310611675576305f5e100838161166b5761166a6122ff565b5b0492506008810190505b612710831061169a5761271083816116905761168f6122ff565b5b0492506004810190505b606483106116bd57606483816116b3576116b26122ff565b5b0492506002810190505b600a83106116cc576001810190505b80915050919050565b5f73ffffffffffffffffffffffffffffffffffffffff168273ffffffffffffffffffffffffffffffffffffffff1603611745575f6040517f64a0ae9200000000000000000000000000000000000000000000000000000000815260040161173c91906119d3565b60405180910390fd5b5f61175183835f610aa2565b90505f73ffffffffffffffffffffffffffffffffffffffff168173ffffffffffffffffffffffffffffffffffffffff16146117c3575f6040517f73c6ac6e0000000000000000000000000000000000000000000000000000000081526004016117ba91906119d3565b60405180910390fd5b505050565b5f604051905090565b5f80fd5b5f80fd5b5f7fffffffff0000000000000000000000000000000000000000000000000000000082169050919050565b61180d816117d9565b8114611817575f80fd5b50565b5f8135905061182881611804565b92915050565b5f60208284031215611843576118426117d1565b5b5f6118508482850161181a565b91505092915050565b5f8115159050919050565b61186d81611859565b82525050565b5f6020820190506118865f830184611864565b92915050565b5f81519050919050565b5f82825260208201905092915050565b5f5b838110156118c35780820151818401526020810190506118a8565b5f8484015250505050565b5f601f19601f8301169050919050565b5f6118e88261188c565b6118f28185611896565b93506119028185602086016118a6565b61190b816118ce565b840191505092915050565b5f6020820190508181035f83015261192e81846118de565b905092915050565b5f819050919050565b61194881611936565b8114611952575f80fd5b50565b5f813590506119638161193f565b92915050565b5f6020828403121561197e5761197d6117d1565b5b5f61198b84828501611955565b91505092915050565b5f73ffffffffffffffffffffffffffffffffffffffff82169050919050565b5f6119bd82611994565b9050919050565b6119cd816119b3565b82525050565b5f6020820190506119e65f8301846119c4565b92915050565b6119f5816119b3565b81146119ff575f80fd5b50565b5f81359050611a10816119ec565b92915050565b5f8060408385031215611a2c57611a2b6117d1565b5b5f611a3985828601611a02565b9250506020611a4a85828601611955565b9150509250929050565b5f805f60608486031215611a6b57611a6a6117d1565b5b5f611a7886828701611a02565b9350506020611a8986828701611a02565b9250506040611a9a86828701611955565b9150509250925092565b5f60208284031215611ab957611ab86117d1565b5b5f611ac684828501611a02565b91505092915050565b611ad881611936565b82525050565b5f602082019050611af15f830184611acf565b92915050565b611b0081611859565b8114611b0a575f80fd5b50565b5f81359050611b1b81611af7565b92915050565b5f8060408385031215611b3757611b366117d1565b5b5f611b4485828601611a02565b9250506020611b5585828601611b0d565b9150509250929050565b5f80fd5b5f80fd5b7f4e487b71000000000000000000000000000000000000000000000000000000005f52604160045260245ffd5b611b9d826118ce565b810181811067ffffffffffffffff82111715611bbc57611bbb611b67565b5b80604052505050565b5f611bce6117c8565b9050611bda8282611b94565b919050565b5f67ffffffffffffffff821115611bf957611bf8611b67565b5b611c02826118ce565b9050602081019050919050565b828183375f83830152505050565b5f611c2f611c2a84611bdf565b611bc5565b905082815260208101848484011115611c4b57611c4a611b63565b5b611c56848285611c0f565b509392505050565b5f82601f830112611c7257611c71611b5f565b5b8135611c82848260208601611c1d565b91505092915050565b5f805f8060808587031215611ca357611ca26117d1565b5b5f611cb087828801611a02565b9450506020611cc187828801611a02565b9350506040611cd287828801611955565b925050606085013567ffffffffffffffff811115611cf357611cf26117d5565b5b611cff87828801611c5e565b91505092959194509250565b5f67ffffffffffffffff821115611d2557611d24611b67565b5b611d2e826118ce565b9050602081019050919050565b5f611d4d611d4884611d0b565b611bc5565b905082815260208101848484011115611d6957611d68611b63565b5b611d74848285611c0f565b509392505050565b5f82601f830112611d9057611d8f611b5f565b5b8135611da0848260208601611d3b565b91505092915050565b5f60208284031215611dbe57611dbd6117d1565b5b5f82013567ffffffffffffffff811115611ddb57611dda6117d5565b5b611de784828501611d7c565b91505092915050565b5f8060408385031215611e0657611e056117d1565b5b5f611e1385828601611a02565b9250506020611e2485828601611a02565b9150509250929050565b7f4e487b71000000000000000000000000000000000000000000000000000000005f52602260045260245ffd5b5f6002820490506001821680611e7257607f821691505b602082108103611e8557611e84611e2e565b5b50919050565b5f606082019050611e9e5f8301866119c4565b611eab6020830185611acf565b611eb860408301846119c4565b949350505050565b5f81905092915050565b5f611ed48261188c565b611ede8185611ec0565b9350611eee8185602086016118a6565b80840191505092915050565b5f611f058285611eca565b9150611f118284611eca565b91508190509392505050565b7f4e487b71000000000000000000000000000000000000000000000000000000005f52601160045260245ffd5b5f611f5482611936565b91507fffffffffffffffffffffffffffffffffffffffffffffffffffffffffffffffff8203611f8657611f85611f1d565b5b600182019050919050565b5f81519050919050565b5f82825260208201905092915050565b5f611fb582611f91565b611fbf8185611f9b565b9350611fcf8185602086016118a6565b611fd8816118ce565b840191505092915050565b5f608082019050611ff65f8301876119c4565b61200360208301866119c4565b6120106040830185611acf565b81810360608301526120228184611fab565b905095945050505050565b5f8151905061203b81611804565b92915050565b5f60208284031215612056576120556117d1565b5b5f6120638482850161202d565b91505092915050565b5f819050815f5260205f209050919050565b5f6020601f8301049050919050565b5f82821b905092915050565b5f600883026120c87fffffffffffffffffffffffffffffffffffffffffffffffffffffffffffffffff8261208d565b6120d2868361208d565b95508019841693508086168417925050509392505050565b5f819050919050565b5f61210d61210861210384611936565b6120ea565b611936565b9050919050565b5f819050919050565b612126836120f3565b61213a61213282612114565b848454612099565b825550505050565b5f90565b61214e612142565b61215981848461211d565b505050565b5b8181101561217c576121715f82612146565b60018101905061215f565b5050565b601f8211156121c1576121928161206c565b61219b8461207e565b810160208510156121aa578190505b6121be6121b68561207e565b83018261215e565b50505b505050565b5f82821c905092915050565b5f6121e15f19846008026121c6565b1980831691505092915050565b5f6121f983836121d2565b9150826002028217905092915050565b6122128261188c565b67ffffffffffffffff81111561222b5761222a611b67565b5b6122358254611e5b565b612240828285612180565b5f60209050601f831160018114612271575f841561225f578287015190505b61226985826121ee565b8655506122d0565b601f19841661227f8661206c565b5f5b828110156122a657848901518255600182019150602085019450602081019050612281565b868310156122c357848901516122bf601f8916826121d2565b8355505b6001600288020188555050505b505050505050565b5f6040820190506122eb5f8301856119c4565b6122f86020830184611acf565b9392505050565b7f4e487b71000000000000000000000000000000000000000000000000000000005f52601260045260245ffdfea2646970667358221220d2e6ffb43e1858a6ddfa48ae867cf9cbb7e49452b5022155f4eb02b7c827b7fe64736f6c63430008160033",
					"opcodes": "PUSH1 0x80 PUSH1 0x40 MSTORE CALLVALUE DUP1 ISZERO PUSH3 0x10 JUMPI PUSH0 DUP1 REVERT JUMPDEST POP PUSH1 0x40 MLOAD PUSH3 0x285B CODESIZE SUB DUP1 PUSH3 0x285B DUP4 CODECOPY DUP2 DUP2 ADD PUSH1 0x40 MSTORE DUP2 ADD SWAP1 PUSH3 0x36 SWAP2 SWAP1 PUSH3 0x173 JUMP JUMPDEST PUSH1 0x40 MLOAD DUP1 PUSH1 0x40 ADD PUSH1 0x40 MSTORE DUP1 PUSH1 0x15 DUP2 MSTORE PUSH1 0x20 ADD PUSH32 0x426F726564205065747320596163687420436C75620000000000000000000000 DUP2 MSTORE POP PUSH1 0x40 MLOAD DUP1 PUSH1 0x40 ADD PUSH1 0x40 MSTORE DUP1 PUSH1 0x4 DUP2 MSTORE PUSH1 0x20 ADD PUSH32 0x4250594300000000000000000000000000000000000000000000000000000000 DUP2 MSTORE POP DUP2 PUSH0 SWAP1 DUP2 PUSH3 0xB2 SWAP2 SWAP1 PUSH3 0x407 JUMP JUMPDEST POP DUP1 PUSH1 0x1 SWAP1 DUP2 PUSH3 0xC4 SWAP2 SWAP1 PUSH3 0x407 JUMP JUMPDEST POP POP POP DUP1 PUSH1 0x8 PUSH0 PUSH2 0x100 EXP DUP2 SLOAD DUP2 PUSH20 0xFFFFFFFFFFFFFFFFFFFFFFFFFFFFFFFFFFFFFFFF MUL NOT AND SWAP1 DUP4 PUSH20 0xFFFFFFFFFFFFFFFFFFFFFFFFFFFFFFFFFFFFFFFF AND MUL OR SWAP1 SSTORE POP POP PUSH3 0x4EB JUMP JUMPDEST PUSH0 DUP1 REVERT JUMPDEST PUSH0 PUSH20 0xFFFFFFFFFFFFFFFFFFFFFFFFFFFFFFFFFFFFFFFF DUP3 AND SWAP1 POP SWAP2 SWAP1 POP JUMP JUMPDEST PUSH0 PUSH3 0x13D DUP3 PUSH3 0x112 JUMP JUMPDEST SWAP1 POP SWAP2 SWAP1 POP JUMP JUMPDEST PUSH3 0x14F DUP2 PUSH3 0x131 JUMP JUMPDEST DUP2 EQ PUSH3 0x15A JUMPI PUSH0 DUP1 REVERT JUMPDEST POP JUMP JUMPDEST PUSH0 DUP2 MLOAD SWAP1 POP PUSH3 0x16D DUP2 PUSH3 0x144 JUMP JUMPDEST SWAP3 SWAP2 POP POP JUMP JUMPDEST PUSH0 PUSH1 0x20 DUP3 DUP5 SUB SLT ISZERO PUSH3 0x18B JUMPI PUSH3 0x18A PUSH3 0x10E JUMP JUMPDEST JUMPDEST PUSH0 PUSH3 0x19A DUP5 DUP3 DUP6 ADD PUSH3 0x15D JUMP JUMPDEST SWAP2 POP POP SWAP3 SWAP2 POP POP JUMP JUMPDEST PUSH0 DUP2 MLOAD SWAP1 POP SWAP2 SWAP1 POP JUMP JUMPDEST PUSH32 0x4E487B7100000000000000000000000000000000000000000000000000000000 PUSH0 MSTORE PUSH1 0x41 PUSH1 0x4 MSTORE PUSH1 0x24 PUSH0 REVERT JUMPDEST PUSH32 0x4E487B7100000000000000000000000000000000000000000000000000000000 PUSH0 MSTORE PUSH1 0x22 PUSH1 0x4 MSTORE PUSH1 0x24 PUSH0 REVERT JUMPDEST PUSH0 PUSH1 0x2 DUP3 DIV SWAP1 POP PUSH1 0x1 DUP3 AND DUP1 PUSH3 0x21F JUMPI PUSH1 0x7F DUP3 AND SWAP2 POP JUMPDEST PUSH1 0x20 DUP3 LT DUP2 SUB PUSH3 0x235 JUMPI PUSH3 0x234 PUSH3 0x1DA JUMP JUMPDEST JUMPDEST POP SWAP2 SWAP1 POP JUMP JUMPDEST PUSH0 DUP2 SWAP1 POP DUP2 PUSH0 MSTORE PUSH1 0x20 PUSH0 KECCAK256 SWAP1 POP SWAP2 SWAP1 POP JUMP JUMPDEST PUSH0 PUSH1 0x20 PUSH1 0x1F DUP4 ADD DIV SWAP1 POP SWAP2 SWAP1 POP JUMP JUMPDEST PUSH0 DUP3 DUP3 SHL SWAP1 POP SWAP3 SWAP2 POP POP JUMP JUMPDEST PUSH0 PUSH1 0x8 DUP4 MUL PUSH3 0x299 PUSH32 0xFFFFFFFFFFFFFFFFFFFFFFFFFFFFFFFFFFFFFFFFFFFFFFFFFFFFFFFFFFFFFFFF DUP3 PUSH3 0x25C JUMP JUMPDEST PUSH3 0x2A5 DUP7 DUP4 PUSH3 0x25C JUMP JUMPDEST SWAP6 POP DUP1 NOT DUP5 AND SWAP4 POP DUP1 DUP7 AND DUP5 OR SWAP3 POP POP POP SWAP4 SWAP3 POP POP POP JUMP JUMPDEST PUSH0 DUP2 SWAP1 POP SWAP2 SWAP1 POP JUMP JUMPDEST PUSH0 DUP2 SWAP1 POP SWAP2 SWAP1 POP JUMP JUMPDEST PUSH0 PUSH3 0x2EF PUSH3 0x2E9 PUSH3 0x2E3 DUP5 PUSH3 0x2BD JUMP JUMPDEST PUSH3 0x2C6 JUMP JUMPDEST PUSH3 0x2BD JUMP JUMPDEST SWAP1 POP SWAP2 SWAP1 POP JUMP JUMPDEST PUSH0 DUP2 SWAP1 POP SWAP2 SWAP1 POP JUMP JUMPDEST PUSH3 0x30A DUP4 PUSH3 0x2CF JUMP JUMPDEST PUSH3 0x322 PUSH3 0x319 DUP3 PUSH3 0x2F6 JUMP JUMPDEST DUP5 DUP5 SLOAD PUSH3 0x268 JUMP JUMPDEST DUP3 SSTORE POP POP POP POP JUMP JUMPDEST PUSH0 SWAP1 JUMP JUMPDEST PUSH3 0x338 PUSH3 0x32A JUMP JUMPDEST PUSH3 0x345 DUP2 DUP5 DUP5 PUSH3 0x2FF JUMP JUMPDEST POP POP POP JUMP JUMPDEST JUMPDEST DUP2 DUP2 LT ISZERO PUSH3 0x36C JUMPI PUSH3 0x360 PUSH0 DUP3 PUSH3 0x32E JUMP JUMPDEST PUSH1 0x1 DUP2 ADD SWAP1 POP PUSH3 0x34B JUMP JUMPDEST POP POP JUMP JUMPDEST PUSH1 0x1F DUP3 GT ISZERO PUSH3 0x3BB JUMPI PUSH3 0x385 DUP2 PUSH3 0x23B JUMP JUMPDEST PUSH3 0x390 DUP5 PUSH3 0x24D JUMP JUMPDEST DUP2 ADD PUSH1 0x20 DUP6 LT ISZERO PUSH3 0x3A0 JUMPI DUP2 SWAP1 POP JUMPDEST PUSH3 0x3B8 PUSH3 0x3AF DUP6 PUSH3 0x24D JUMP JUMPDEST DUP4 ADD DUP3 PUSH3 0x34A JUMP JUMPDEST POP POP JUMPDEST POP POP POP JUMP JUMPDEST PUSH0 DUP3 DUP3 SHR SWAP1 POP SWAP3 SWAP2 POP POP JUMP JUMPDEST PUSH0 PUSH3 0x3DD PUSH0 NOT DUP5 PUSH1 0x8 MUL PUSH3 0x3C0 JUMP JUMPDEST NOT DUP1 DUP4 AND SWAP2 POP POP SWAP3 SWAP2 POP POP JUMP JUMPDEST PUSH0 PUSH3 0x3F7 DUP4 DUP4 PUSH3 0x3CC JUMP JUMPDEST SWAP2 POP DUP3 PUSH1 0x2 MUL DUP3 OR SWAP1 POP SWAP3 SWAP2 POP POP JUMP JUMPDEST PUSH3 0x412 DUP3 PUSH3 0x1A3 JUMP JUMPDEST PUSH8 0xFFFFFFFFFFFFFFFF DUP2 GT ISZERO PUSH3 0x42E JUMPI PUSH3 0x42D PUSH3 0x1AD JUMP JUMPDEST JUMPDEST PUSH3 0x43A DUP3 SLOAD PUSH3 0x207 JUMP JUMPDEST PUSH3 0x447 DUP3 DUP3 DUP6 PUSH3 0x370 JUMP JUMPDEST PUSH0 PUSH1 0x20 SWAP1 POP PUSH1 0x1F DUP4 GT PUSH1 0x1 DUP2 EQ PUSH3 0x47D JUMPI PUSH0 DUP5 ISZERO PUSH3 0x468 JUMPI DUP3 DUP8 ADD MLOAD SWAP1 POP JUMPDEST PUSH3 0x474 DUP6 DUP3 PUSH3 0x3EA JUMP JUMPDEST DUP7 SSTORE POP PUSH3 0x4E3 JUMP JUMPDEST PUSH1 0x1F NOT DUP5 AND PUSH3 0x48D DUP7 PUSH3 0x23B JUMP JUMPDEST PUSH0 JUMPDEST DUP3 DUP2 LT ISZERO PUSH3 0x4B6 JUMPI DUP5 DUP10 ADD MLOAD DUP3 SSTORE PUSH1 0x1 DUP3 ADD SWAP2 POP PUSH1 0x20 DUP6 ADD SWAP5 POP PUSH1 0x20 DUP2 ADD SWAP1 POP PUSH3 0x48F JUMP JUMPDEST DUP7 DUP4 LT ISZERO PUSH3 0x4D6 JUMPI DUP5 DUP10 ADD MLOAD PUSH3 0x4D2 PUSH1 0x1F DUP10 AND DUP3 PUSH3 0x3CC JUMP JUMPDEST DUP4 SSTORE POP JUMPDEST PUSH1 0x1 PUSH1 0x2 DUP9 MUL ADD DUP9 SSTORE POP POP POP JUMPDEST POP POP POP POP POP POP JUMP JUMPDEST PUSH2 0x2362 DUP1 PUSH3 0x4F9 PUSH0 CODECOPY PUSH0 RETURN INVALID PUSH1 0x80 PUSH1 0x40 MSTORE CALLVALUE DUP1 ISZERO PUSH2 0xF JUMPI PUSH0 DUP1 REVERT JUMPDEST POP PUSH1 0x4 CALLDATASIZE LT PUSH2 0xE8 JUMPI PUSH0 CALLDATALOAD PUSH1 0xE0 SHR DUP1 PUSH4 0x70A08231 GT PUSH2 0x8A JUMPI DUP1 PUSH4 0xB88D4FDE GT PUSH2 0x64 JUMPI DUP1 PUSH4 0xB88D4FDE EQ PUSH2 0x258 JUMPI DUP1 PUSH4 0xC87B56DD EQ PUSH2 0x274 JUMPI DUP1 PUSH4 0xD85D3D27 EQ PUSH2 0x2A4 JUMPI DUP1 PUSH4 0xE985E9C5 EQ PUSH2 0x2C0 JUMPI PUSH2 0xE8 JUMP JUMPDEST DUP1 PUSH4 0x70A08231 EQ PUSH2 0x1EE JUMPI DUP1 PUSH4 0x95D89B41 EQ PUSH2 0x21E JUMPI DUP1 PUSH4 0xA22CB465 EQ PUSH2 0x23C JUMPI PUSH2 0xE8 JUMP JUMPDEST DUP1 PUSH4 0x95EA7B3 GT PUSH2 0xC6 JUMPI DUP1 PUSH4 0x95EA7B3 EQ PUSH2 0x16A JUMPI DUP1 PUSH4 0x23B872DD EQ PUSH2 0x186 JUMPI DUP1 PUSH4 0x42842E0E EQ PUSH2 0x1A2 JUMPI DUP1 PUSH4 0x6352211E EQ PUSH2 0x1BE JUMPI PUSH2 0xE8 JUMP JUMPDEST DUP1 PUSH4 0x1FFC9A7 EQ PUSH2 0xEC JUMPI DUP1 PUSH4 0x6FDDE03 EQ PUSH2 0x11C JUMPI DUP1 PUSH4 0x81812FC EQ PUSH2 0x13A JUMPI JUMPDEST PUSH0 DUP1 REVERT JUMPDEST PUSH2 0x106 PUSH1 0x4 DUP1 CALLDATASIZE SUB DUP2 ADD SWAP1 PUSH2 0x101 SWAP2 SWAP1 PUSH2 0x182E JUMP JUMPDEST PUSH2 0x2F0 JUMP JUMPDEST PUSH1 0x40 MLOAD PUSH2 0x113 SWAP2 SWAP1 PUSH2 0x1873 JUMP JUMPDEST PUSH1 0x40 MLOAD DUP1 SWAP2 SUB SWAP1 RETURN JUMPDEST PUSH2 0x124 PUSH2 0x350 JUMP JUMPDEST PUSH1 0x40 MLOAD PUSH2 0x131 SWAP2 SWAP1 PUSH2 0x1916 JUMP JUMPDEST PUSH1 0x40 MLOAD DUP1 SWAP2 SUB SWAP1 RETURN JUMPDEST PUSH2 0x154 PUSH1 0x4 DUP1 CALLDATASIZE SUB DUP2 ADD SWAP1 PUSH2 0x14F SWAP2 SWAP1 PUSH2 0x1969 JUMP JUMPDEST PUSH2 0x3DF JUMP JUMPDEST PUSH1 0x40 MLOAD PUSH2 0x161 SWAP2 SWAP1 PUSH2 0x19D3 JUMP JUMPDEST PUSH1 0x40 MLOAD DUP1 SWAP2 SUB SWAP1 RETURN JUMPDEST PUSH2 0x184 PUSH1 0x4 DUP1 CALLDATASIZE SUB DUP2 ADD SWAP1 PUSH2 0x17F SWAP2 SWAP1 PUSH2 0x1A16 JUMP JUMPDEST PUSH2 0x3FA JUMP JUMPDEST STOP JUMPDEST PUSH2 0x1A0 PUSH1 0x4 DUP1 CALLDATASIZE SUB DUP2 ADD SWAP1 PUSH2 0x19B SWAP2 SWAP1 PUSH2 0x1A54 JUMP JUMPDEST PUSH2 0x410 JUMP JUMPDEST STOP JUMPDEST PUSH2 0x1BC PUSH1 0x4 DUP1 CALLDATASIZE SUB DUP2 ADD SWAP1 PUSH2 0x1B7 SWAP2 SWAP1 PUSH2 0x1A54 JUMP JUMPDEST PUSH2 0x50F JUMP JUMPDEST STOP JUMPDEST PUSH2 0x1D8 PUSH1 0x4 DUP1 CALLDATASIZE SUB DUP2 ADD SWAP1 PUSH2 0x1D3 SWAP2 SWAP1 PUSH2 0x1969 JUMP JUMPDEST PUSH2 0x52E JUMP JUMPDEST PUSH1 0x40 MLOAD PUSH2 0x1E5 SWAP2 SWAP1 PUSH2 0x19D3 JUMP JUMPDEST PUSH1 0x40 MLOAD DUP1 SWAP2 SUB SWAP1 RETURN JUMPDEST PUSH2 0x208 PUSH1 0x4 DUP1 CALLDATASIZE SUB DUP2 ADD SWAP1 PUSH2 0x203 SWAP2 SWAP1 PUSH2 0x1AA4 JUMP JUMPDEST PUSH2 0x53F JUMP JUMPDEST PUSH1 0x40 MLOAD PUSH2 0x215 SWAP2 SWAP1 PUSH2 0x1ADE JUMP JUMPDEST PUSH1 0x40 MLOAD DUP1 SWAP2 SUB SWAP1 RETURN JUMPDEST PUSH2 0x226 PUSH2 0x5F5 JUMP JUMPDEST PUSH1 0x40 MLOAD PUSH2 0x233 SWAP2 SWAP1 PUSH2 0x1916 JUMP JUMPDEST PUSH1 0x40 MLOAD DUP1 SWAP2 SUB SWAP1 RETURN JUMPDEST PUSH2 0x256 PUSH1 0x4 DUP1 CALLDATASIZE SUB DUP2 ADD SWAP1 PUSH2 0x251 SWAP2 SWAP1 PUSH2 0x1B21 JUMP JUMPDEST PUSH2 0x685 JUMP JUMPDEST STOP JUMPDEST PUSH2 0x272 PUSH1 0x4 DUP1 CALLDATASIZE SUB DUP2 ADD SWAP1 PUSH2 0x26D SWAP2 SWAP1 PUSH2 0x1C8B JUMP JUMPDEST PUSH2 0x69B JUMP JUMPDEST STOP JUMPDEST PUSH2 0x28E PUSH1 0x4 DUP1 CALLDATASIZE SUB DUP2 ADD SWAP1 PUSH2 0x289 SWAP2 SWAP1 PUSH2 0x1969 JUMP JUMPDEST PUSH2 0x6B8 JUMP JUMPDEST PUSH1 0x40 MLOAD PUSH2 0x29B SWAP2 SWAP1 PUSH2 0x1916 JUMP JUMPDEST PUSH1 0x40 MLOAD DUP1 SWAP2 SUB SWAP1 RETURN JUMPDEST PUSH2 0x2BE PUSH1 0x4 DUP1 CALLDATASIZE SUB DUP2 ADD SWAP1 PUSH2 0x2B9 SWAP2 SWAP1 PUSH2 0x1DA9 JUMP JUMPDEST PUSH2 0x7C3 JUMP JUMPDEST STOP JUMPDEST PUSH2 0x2DA PUSH1 0x4 DUP1 CALLDATASIZE SUB DUP2 ADD SWAP1 PUSH2 0x2D5 SWAP2 SWAP1 PUSH2 0x1DF0 JUMP JUMPDEST PUSH2 0x85B JUMP JUMPDEST PUSH1 0x40 MLOAD PUSH2 0x2E7 SWAP2 SWAP1 PUSH2 0x1873 JUMP JUMPDEST PUSH1 0x40 MLOAD DUP1 SWAP2 SUB SWAP1 RETURN JUMPDEST PUSH0 PUSH4 0x49064906 PUSH1 0xE0 SHL PUSH28 0xFFFFFFFFFFFFFFFFFFFFFFFFFFFFFFFFFFFFFFFFFFFFFFFFFFFFFFFF NOT AND DUP3 PUSH28 0xFFFFFFFFFFFFFFFFFFFFFFFFFFFFFFFFFFFFFFFFFFFFFFFFFFFFFFFF NOT AND EQ DUP1 PUSH2 0x349 JUMPI POP PUSH2 0x348 DUP3 PUSH2 0x8E9 JUMP JUMPDEST JUMPDEST SWAP1 POP SWAP2 SWAP1 POP JUMP JUMPDEST PUSH1 0x60 PUSH0 DUP1 SLOAD PUSH2 0x35E SWAP1 PUSH2 0x1E5B JUMP JUMPDEST DUP1 PUSH1 0x1F ADD PUSH1 0x20 DUP1 SWAP2 DIV MUL PUSH1 0x20 ADD PUSH1 0x40 MLOAD SWAP1 DUP2 ADD PUSH1 0x40 MSTORE DUP1 SWAP3 SWAP2 SWAP1 DUP2 DUP2 MSTORE PUSH1 0x20 ADD DUP3 DUP1 SLOAD PUSH2 0x38A SWAP1 PUSH2 0x1E5B JUMP JUMPDEST DUP1 ISZERO PUSH2 0x3D5 JUMPI DUP1 PUSH1 0x1F LT PUSH2 0x3AC JUMPI PUSH2 0x100 DUP1 DUP4 SLOAD DIV MUL DUP4 MSTORE SWAP2 PUSH1 0x20 ADD SWAP2 PUSH2 0x3D5 JUMP JUMPDEST DUP3 ADD SWAP2 SWAP1 PUSH0 MSTORE PUSH1 0x20 PUSH0 KECCAK256 SWAP1 JUMPDEST DUP2 SLOAD DUP2 MSTORE SWAP1 PUSH1 0x1 ADD SWAP1 PUSH1 0x20 ADD DUP1 DUP4 GT PUSH2 0x3B8 JUMPI DUP3 SWAP1 SUB PUSH1 0x1F AND DUP3 ADD SWAP2 JUMPDEST POP POP POP POP POP SWAP1 POP SWAP1 JUMP JUMPDEST PUSH0 PUSH2 0x3E9 DUP3 PUSH2 0x9CA JUMP JUMPDEST POP PUSH2 0x3F3 DUP3 PUSH2 0xA50 JUMP JUMPDEST SWAP1 POP SWAP2 SWAP1 POP JUMP JUMPDEST PUSH2 0x40C DUP3 DUP3 PUSH2 0x407 PUSH2 0xA89 JUMP JUMPDEST PUSH2 0xA90 JUMP JUMPDEST POP POP JUMP JUMPDEST PUSH0 PUSH20 0xFFFFFFFFFFFFFFFFFFFFFFFFFFFFFFFFFFFFFFFF AND DUP3 PUSH20 0xFFFFFFFFFFFFFFFFFFFFFFFFFFFFFFFFFFFFFFFF AND SUB PUSH2 0x480 JUMPI PUSH0 PUSH1 0x40 MLOAD PUSH32 0x64A0AE9200000000000000000000000000000000000000000000000000000000 DUP2 MSTORE PUSH1 0x4 ADD PUSH2 0x477 SWAP2 SWAP1 PUSH2 0x19D3 JUMP JUMPDEST PUSH1 0x40 MLOAD DUP1 SWAP2 SUB SWAP1 REVERT JUMPDEST PUSH0 PUSH2 0x493 DUP4 DUP4 PUSH2 0x48E PUSH2 0xA89 JUMP JUMPDEST PUSH2 0xAA2 JUMP JUMPDEST SWAP1 POP DUP4 PUSH20 0xFFFFFFFFFFFFFFFFFFFFFFFFFFFFFFFFFFFFFFFF AND DUP2 PUSH20 0xFFFFFFFFFFFFFFFFFFFFFFFFFFFFFFFFFFFFFFFF AND EQ PUSH2 0x509 JUMPI DUP4 DUP3 DUP3 PUSH1 0x40 MLOAD PUSH32 0x64283D7B00000000000000000000000000000000000000000000000000000000 DUP2 MSTORE PUSH1 0x4 ADD PUSH2 0x500 SWAP4 SWAP3 SWAP2 SWAP1 PUSH2 0x1E8B JUMP JUMPDEST PUSH1 0x40 MLOAD DUP1 SWAP2 SUB SWAP1 REVERT JUMPDEST POP POP POP POP JUMP JUMPDEST PUSH2 0x529 DUP4 DUP4 DUP4 PUSH1 0x40 MLOAD DUP1 PUSH1 0x20 ADD PUSH1 0x40 MSTORE DUP1 PUSH0 DUP2 MSTORE POP PUSH2 0x69B JUMP JUMPDEST POP POP POP JUMP JUMPDEST PUSH0 PUSH2 0x538 DUP3 PUSH2 0x9CA JUMP JUMPDEST SWAP1 POP SWAP2 SWAP1 POP JUMP JUMPDEST PUSH0 DUP1 PUSH20 0xFFFFFFFFFFFFFFFFFFFFFFFFFFFFFFFFFFFFFFFF AND DUP3 PUSH20 0xFFFFFFFFFFFFFFFFFFFFFFFFFFFFFFFFFFFFFFFF AND SUB PUSH2 0x5B0 JUMPI PUSH0 PUSH1 0x40 MLOAD PUSH32 0x89C62B6400000000000000000000000000000000000000000000000000000000 DUP2 MSTORE PUSH1 0x4 ADD PUSH2 0x5A7 SWAP2 SWAP1 PUSH2 0x19D3 JUMP JUMPDEST PUSH1 0x40 MLOAD DUP1 SWAP2 SUB SWAP1 REVERT JUMPDEST PUSH1 0x3 PUSH0 DUP4 PUSH20 0xFFFFFFFFFFFFFFFFFFFFFFFFFFFFFFFFFFFFFFFF AND PUSH20 0xFFFFFFFFFFFFFFFFFFFFFFFFFFFFFFFFFFFFFFFF AND DUP2 MSTORE PUSH1 0x20 ADD SWAP1 DUP2 MSTORE PUSH1 0x20 ADD PUSH0 KECCAK256 SLOAD SWAP1 POP SWAP2 SWAP1 POP JUMP JUMPDEST PUSH1 0x60 PUSH1 0x1 DUP1 SLOAD PUSH2 0x604 SWAP1 PUSH2 0x1E5B JUMP JUMPDEST DUP1 PUSH1 0x1F ADD PUSH1 0x20 DUP1 SWAP2 DIV MUL PUSH1 0x20 ADD PUSH1 0x40 MLOAD SWAP1 DUP2 ADD PUSH1 0x40 MSTORE DUP1 SWAP3 SWAP2 SWAP1 DUP2 DUP2 MSTORE PUSH1 0x20 ADD DUP3 DUP1 SLOAD PUSH2 0x630 SWAP1 PUSH2 0x1E5B JUMP JUMPDEST DUP1 ISZERO PUSH2 0x67B JUMPI DUP1 PUSH1 0x1F LT PUSH2 0x652 JUMPI PUSH2 0x100 DUP1 DUP4 SLOAD DIV MUL DUP4 MSTORE SWAP2 PUSH1 0x20 ADD SWAP2 PUSH2 0x67B JUMP JUMPDEST DUP3 ADD SWAP2 SWAP1 PUSH0 MSTORE PUSH1 0x20 PUSH0 KECCAK256 SWAP1 JUMPDEST DUP2 SLOAD DUP2 MSTORE SWAP1 PUSH1 0x1 ADD SWAP1 PUSH1 0x20 ADD DUP1 DUP4 GT PUSH2 0x65E JUMPI DUP3 SWAP1 SUB PUSH1 0x1F AND DUP3 ADD SWAP2 JUMPDEST POP POP POP POP POP SWAP1 POP SWAP1 JUMP JUMPDEST PUSH2 0x697 PUSH2 0x690 PUSH2 0xA89 JUMP JUMPDEST DUP4 DUP4 PUSH2 0xCAD JUMP JUMPDEST POP POP JUMP JUMPDEST PUSH2 0x6A6 DUP5 DUP5 DUP5 PUSH2 0x410 JUMP JUMPDEST PUSH2 0x6B2 DUP5 DUP5 DUP5 DUP5 PUSH2 0xE16 JUMP JUMPDEST POP POP POP POP JUMP JUMPDEST PUSH1 0x60 PUSH2 0x6C3 DUP3 PUSH2 0x9CA JUMP JUMPDEST POP PUSH0 PUSH1 0x6 PUSH0 DUP5 DUP2 MSTORE PUSH1 0x20 ADD SWAP1 DUP2 MSTORE PUSH1 0x20 ADD PUSH0 KECCAK256 DUP1 SLOAD PUSH2 0x6E1 SWAP1 PUSH2 0x1E5B JUMP JUMPDEST DUP1 PUSH1 0x1F ADD PUSH1 0x20 DUP1 SWAP2 DIV MUL PUSH1 0x20 ADD PUSH1 0x40 MLOAD SWAP1 DUP2 ADD PUSH1 0x40 MSTORE DUP1 SWAP3 SWAP2 SWAP1 DUP2 DUP2 MSTORE PUSH1 0x20 ADD DUP3 DUP1 SLOAD PUSH2 0x70D SWAP1 PUSH2 0x1E5B JUMP JUMPDEST DUP1 ISZERO PUSH2 0x758 JUMPI DUP1 PUSH1 0x1F LT PUSH2 0x72F JUMPI PUSH2 0x100 DUP1 DUP4 SLOAD DIV MUL DUP4 MSTORE SWAP2 PUSH1 0x20 ADD SWAP2 PUSH2 0x758 JUMP JUMPDEST DUP3 ADD SWAP2 SWAP1 PUSH0 MSTORE PUSH1 0x20 PUSH0 KECCAK256 SWAP1 JUMPDEST DUP2 SLOAD DUP2 MSTORE SWAP1 PUSH1 0x1 ADD SWAP1 PUSH1 0x20 ADD DUP1 DUP4 GT PUSH2 0x73B JUMPI DUP3 SWAP1 SUB PUSH1 0x1F AND DUP3 ADD SWAP2 JUMPDEST POP POP POP POP POP SWAP1 POP PUSH0 PUSH2 0x768 PUSH2 0xFC8 JUMP JUMPDEST SWAP1 POP PUSH0 DUP2 MLOAD SUB PUSH2 0x77C JUMPI DUP2 SWAP3 POP POP POP PUSH2 0x7BE JUMP JUMPDEST PUSH0 DUP3 MLOAD GT ISZERO PUSH2 0x7B0 JUMPI DUP1 DUP3 PUSH1 0x40 MLOAD PUSH1 0x20 ADD PUSH2 0x798 SWAP3 SWAP2 SWAP1 PUSH2 0x1EFA JUMP JUMPDEST PUSH1 0x40 MLOAD PUSH1 0x20 DUP2 DUP4 SUB SUB DUP2 MSTORE SWAP1 PUSH1 0x40 MSTORE SWAP3 POP POP POP PUSH2 0x7BE JUMP JUMPDEST PUSH2 0x7B9 DUP5 PUSH2 0xFDE JUMP JUMPDEST SWAP3 POP POP POP JUMPDEST SWAP2 SWAP1 POP JUMP JUMPDEST PUSH1 0x7 PUSH0 DUP2 SLOAD DUP1 SWAP3 SWAP2 SWAP1 PUSH2 0x7D5 SWAP1 PUSH2 0x1F4A JUMP JUMPDEST SWAP2 SWAP1 POP SSTORE POP PUSH0 PUSH1 0x7 SLOAD SWAP1 POP PUSH2 0x7EA CALLER DUP3 PUSH2 0x1044 JUMP JUMPDEST PUSH2 0x7F4 DUP2 DUP4 PUSH2 0x1061 JUMP JUMPDEST PUSH2 0x820 PUSH1 0x8 PUSH0 SWAP1 SLOAD SWAP1 PUSH2 0x100 EXP SWAP1 DIV PUSH20 0xFFFFFFFFFFFFFFFFFFFFFFFFFFFFFFFFFFFFFFFF AND PUSH1 0x1 PUSH2 0x685 JUMP JUMPDEST PUSH32 0xD9DC24857F317ED9ABBBB42E920EDE0104231EB1D3D70236A74887FFAF159868 DUP2 PUSH1 0x40 MLOAD PUSH2 0x84F SWAP2 SWAP1 PUSH2 0x1ADE JUMP JUMPDEST PUSH1 0x40 MLOAD DUP1 SWAP2 SUB SWAP1 LOG1 POP POP JUMP JUMPDEST PUSH0 PUSH1 0x5 PUSH0 DUP5 PUSH20 0xFFFFFFFFFFFFFFFFFFFFFFFFFFFFFFFFFFFFFFFF AND PUSH20 0xFFFFFFFFFFFFFFFFFFFFFFFFFFFFFFFFFFFFFFFF AND DUP2 MSTORE PUSH1 0x20 ADD SWAP1 DUP2 MSTORE PUSH1 0x20 ADD PUSH0 KECCAK256 PUSH0 DUP4 PUSH20 0xFFFFFFFFFFFFFFFFFFFFFFFFFFFFFFFFFFFFFFFF AND PUSH20 0xFFFFFFFFFFFFFFFFFFFFFFFFFFFFFFFFFFFFFFFF AND DUP2 MSTORE PUSH1 0x20 ADD SWAP1 DUP2 MSTORE PUSH1 0x20 ADD PUSH0 KECCAK256 PUSH0 SWAP1 SLOAD SWAP1 PUSH2 0x100 EXP SWAP1 DIV PUSH1 0xFF AND SWAP1 POP SWAP3 SWAP2 POP POP JUMP JUMPDEST PUSH0 PUSH32 0x80AC58CD00000000000000000000000000000000000000000000000000000000 PUSH28 0xFFFFFFFFFFFFFFFFFFFFFFFFFFFFFFFFFFFFFFFFFFFFFFFFFFFFFFFF NOT AND DUP3 PUSH28 0xFFFFFFFFFFFFFFFFFFFFFFFFFFFFFFFFFFFFFFFFFFFFFFFFFFFFFFFF NOT AND EQ DUP1 PUSH2 0x9B3 JUMPI POP PUSH32 0x5B5E139F00000000000000000000000000000000000000000000000000000000 PUSH28 0xFFFFFFFFFFFFFFFFFFFFFFFFFFFFFFFFFFFFFFFFFFFFFFFFFFFFFFFF NOT AND DUP3 PUSH28 0xFFFFFFFFFFFFFFFFFFFFFFFFFFFFFFFFFFFFFFFFFFFFFFFFFFFFFFFF NOT AND EQ JUMPDEST DUP1 PUSH2 0x9C3 JUMPI POP PUSH2 0x9C2 DUP3 PUSH2 0x10BB JUMP JUMPDEST JUMPDEST SWAP1 POP SWAP2 SWAP1 POP JUMP JUMPDEST PUSH0 DUP1 PUSH2 0x9D5 DUP4 PUSH2 0x1124 JUMP JUMPDEST SWAP1 POP PUSH0 PUSH20 0xFFFFFFFFFFFFFFFFFFFFFFFFFFFFFFFFFFFFFFFF AND DUP2 PUSH20 0xFFFFFFFFFFFFFFFFFFFFFFFFFFFFFFFFFFFFFFFF AND SUB PUSH2 0xA47 JUMPI DUP3 PUSH1 0x40 MLOAD PUSH32 0x7E27328900000000000000000000000000000000000000000000000000000000 DUP2 MSTORE PUSH1 0x4 ADD PUSH2 0xA3E SWAP2 SWAP1 PUSH2 0x1ADE JUMP JUMPDEST PUSH1 0x40 MLOAD DUP1 SWAP2 SUB SWAP1 REVERT JUMPDEST DUP1 SWAP2 POP POP SWAP2 SWAP1 POP JUMP JUMPDEST PUSH0 PUSH1 0x4 PUSH0 DUP4 DUP2 MSTORE PUSH1 0x20 ADD SWAP1 DUP2 MSTORE PUSH1 0x20 ADD PUSH0 KECCAK256 PUSH0 SWAP1 SLOAD SWAP1 PUSH2 0x100 EXP SWAP1 DIV PUSH20 0xFFFFFFFFFFFFFFFFFFFFFFFFFFFFFFFFFFFFFFFF AND SWAP1 POP SWAP2 SWAP1 POP JUMP JUMPDEST PUSH0 CALLER SWAP1 POP SWAP1 JUMP JUMPDEST PUSH2 0xA9D DUP4 DUP4 DUP4 PUSH1 0x1 PUSH2 0x115D JUMP JUMPDEST POP POP POP JUMP JUMPDEST PUSH0 DUP1 PUSH2 0xAAD DUP5 PUSH2 0x1124 JUMP JUMPDEST SWAP1 POP PUSH0 PUSH20 0xFFFFFFFFFFFFFFFFFFFFFFFFFFFFFFFFFFFFFFFF AND DUP4 PUSH20 0xFFFFFFFFFFFFFFFFFFFFFFFFFFFFFFFFFFFFFFFF AND EQ PUSH2 0xAEE JUMPI PUSH2 0xAED DUP2 DUP5 DUP7 PUSH2 0x131C JUMP JUMPDEST JUMPDEST PUSH0 PUSH20 0xFFFFFFFFFFFFFFFFFFFFFFFFFFFFFFFFFFFFFFFF AND DUP2 PUSH20 0xFFFFFFFFFFFFFFFFFFFFFFFFFFFFFFFFFFFFFFFF AND EQ PUSH2 0xB79 JUMPI PUSH2 0xB2D PUSH0 DUP6 PUSH0 DUP1 PUSH2 0x115D JUMP JUMPDEST PUSH1 0x1 PUSH1 0x3 PUSH0 DUP4 PUSH20 0xFFFFFFFFFFFFFFFFFFFFFFFFFFFFFFFFFFFFFFFF AND PUSH20 0xFFFFFFFFFFFFFFFFFFFFFFFFFFFFFFFFFFFFFFFF AND DUP2 MSTORE PUSH1 0x20 ADD SWAP1 DUP2 MSTORE PUSH1 0x20 ADD PUSH0 KECCAK256 PUSH0 DUP3 DUP3 SLOAD SUB SWAP3 POP POP DUP2 SWAP1 SSTORE POP JUMPDEST PUSH0 PUSH20 0xFFFFFFFFFFFFFFFFFFFFFFFFFFFFFFFFFFFFFFFF AND DUP6 PUSH20 0xFFFFFFFFFFFFFFFFFFFFFFFFFFFFFFFFFFFFFFFF AND EQ PUSH2 0xBF8 JUMPI PUSH1 0x1 PUSH1 0x3 PUSH0 DUP8 PUSH20 0xFFFFFFFFFFFFFFFFFFFFFFFFFFFFFFFFFFFFFFFF AND PUSH20 0xFFFFFFFFFFFFFFFFFFFFFFFFFFFFFFFFFFFFFFFF AND DUP2 MSTORE PUSH1 0x20 ADD SWAP1 DUP2 MSTORE PUSH1 0x20 ADD PUSH0 KECCAK256 PUSH0 DUP3 DUP3 SLOAD ADD SWAP3 POP POP DUP2 SWAP1 SSTORE POP JUMPDEST DUP5 PUSH1 0x2 PUSH0 DUP7 DUP2 MSTORE PUSH1 0x20 ADD SWAP1 DUP2 MSTORE PUSH1 0x20 ADD PUSH0 KECCAK256 PUSH0 PUSH2 0x100 EXP DUP2 SLOAD DUP2 PUSH20 0xFFFFFFFFFFFFFFFFFFFFFFFFFFFFFFFFFFFFFFFF MUL NOT AND SWAP1 DUP4 PUSH20 0xFFFFFFFFFFFFFFFFFFFFFFFFFFFFFFFFFFFFFFFF AND MUL OR SWAP1 SSTORE POP DUP4 DUP6 PUSH20 0xFFFFFFFFFFFFFFFFFFFFFFFFFFFFFFFFFFFFFFFF AND DUP3 PUSH20 0xFFFFFFFFFFFFFFFFFFFFFFFFFFFFFFFFFFFFFFFF AND PUSH32 0xDDF252AD1BE2C89B69C2B068FC378DAA952BA7F163C4A11628F55A4DF523B3EF PUSH1 0x40 MLOAD PUSH1 0x40 MLOAD DUP1 SWAP2 SUB SWAP1 LOG4 DUP1 SWAP2 POP POP SWAP4 SWAP3 POP POP POP JUMP JUMPDEST PUSH0 PUSH20 0xFFFFFFFFFFFFFFFFFFFFFFFFFFFFFFFFFFFFFFFF AND DUP3 PUSH20 0xFFFFFFFFFFFFFFFFFFFFFFFFFFFFFFFFFFFFFFFF AND SUB PUSH2 0xD1D JUMPI DUP2 PUSH1 0x40 MLOAD PUSH32 0x5B08BA1800000000000000000000000000000000000000000000000000000000 DUP2 MSTORE PUSH1 0x4 ADD PUSH2 0xD14 SWAP2 SWAP1 PUSH2 0x19D3 JUMP JUMPDEST PUSH1 0x40 MLOAD DUP1 SWAP2 SUB SWAP1 REVERT JUMPDEST DUP1 PUSH1 0x5 PUSH0 DUP6 PUSH20 0xFFFFFFFFFFFFFFFFFFFFFFFFFFFFFFFFFFFFFFFF AND PUSH20 0xFFFFFFFFFFFFFFFFFFFFFFFFFFFFFFFFFFFFFFFF AND DUP2 MSTORE PUSH1 0x20 ADD SWAP1 DUP2 MSTORE PUSH1 0x20 ADD PUSH0 KECCAK256 PUSH0 DUP5 PUSH20 0xFFFFFFFFFFFFFFFFFFFFFFFFFFFFFFFFFFFFFFFF AND PUSH20 0xFFFFFFFFFFFFFFFFFFFFFFFFFFFFFFFFFFFFFFFF AND DUP2 MSTORE PUSH1 0x20 ADD SWAP1 DUP2 MSTORE PUSH1 0x20 ADD PUSH0 KECCAK256 PUSH0 PUSH2 0x100 EXP DUP2 SLOAD DUP2 PUSH1 0xFF MUL NOT AND SWAP1 DUP4 ISZERO ISZERO MUL OR SWAP1 SSTORE POP DUP2 PUSH20 0xFFFFFFFFFFFFFFFFFFFFFFFFFFFFFFFFFFFFFFFF AND DUP4 PUSH20 0xFFFFFFFFFFFFFFFFFFFFFFFFFFFFFFFFFFFFFFFF AND PUSH32 0x17307EAB39AB6107E8899845AD3D59BD9653F200F220920489CA2B5937696C31 DUP4 PUSH1 0x40 MLOAD PUSH2 0xE09 SWAP2 SWAP1 PUSH2 0x1873 JUMP JUMPDEST PUSH1 0x40 MLOAD DUP1 SWAP2 SUB SWAP1 LOG3 POP POP POP JUMP JUMPDEST PUSH0 DUP4 PUSH20 0xFFFFFFFFFFFFFFFFFFFFFFFFFFFFFFFFFFFFFFFF AND EXTCODESIZE GT ISZERO PUSH2 0xFC2 JUMPI DUP3 PUSH20 0xFFFFFFFFFFFFFFFFFFFFFFFFFFFFFFFFFFFFFFFF AND PUSH4 0x150B7A02 PUSH2 0xE59 PUSH2 0xA89 JUMP JUMPDEST DUP7 DUP6 DUP6 PUSH1 0x40 MLOAD DUP6 PUSH4 0xFFFFFFFF AND PUSH1 0xE0 SHL DUP2 MSTORE PUSH1 0x4 ADD PUSH2 0xE7B SWAP5 SWAP4 SWAP3 SWAP2 SWAP1 PUSH2 0x1FE3 JUMP JUMPDEST PUSH1 0x20 PUSH1 0x40 MLOAD DUP1 DUP4 SUB DUP2 PUSH0 DUP8 GAS CALL SWAP3 POP POP POP DUP1 ISZERO PUSH2 0xEB6 JUMPI POP PUSH1 0x40 MLOAD RETURNDATASIZE PUSH1 0x1F NOT PUSH1 0x1F DUP3 ADD AND DUP3 ADD DUP1 PUSH1 0x40 MSTORE POP DUP2 ADD SWAP1 PUSH2 0xEB3 SWAP2 SWAP1 PUSH2 0x2041 JUMP JUMPDEST PUSH1 0x1 JUMPDEST PUSH2 0xF37 JUMPI RETURNDATASIZE DUP1 PUSH0 DUP2 EQ PUSH2 0xEE4 JUMPI PUSH1 0x40 MLOAD SWAP2 POP PUSH1 0x1F NOT PUSH1 0x3F RETURNDATASIZE ADD AND DUP3 ADD PUSH1 0x40 MSTORE RETURNDATASIZE DUP3 MSTORE RETURNDATASIZE PUSH0 PUSH1 0x20 DUP5 ADD RETURNDATACOPY PUSH2 0xEE9 JUMP JUMPDEST PUSH1 0x60 SWAP2 POP JUMPDEST POP PUSH0 DUP2 MLOAD SUB PUSH2 0xF2F JUMPI DUP4 PUSH1 0x40 MLOAD PUSH32 0x64A0AE9200000000000000000000000000000000000000000000000000000000 DUP2 MSTORE PUSH1 0x4 ADD PUSH2 0xF26 SWAP2 SWAP1 PUSH2 0x19D3 JUMP JUMPDEST PUSH1 0x40 MLOAD DUP1 SWAP2 SUB SWAP1 REVERT JUMPDEST DUP1 MLOAD DUP2 PUSH1 0x20 ADD REVERT JUMPDEST PUSH4 0x150B7A02 PUSH1 0xE0 SHL PUSH28 0xFFFFFFFFFFFFFFFFFFFFFFFFFFFFFFFFFFFFFFFFFFFFFFFFFFFFFFFF NOT AND DUP2 PUSH28 0xFFFFFFFFFFFFFFFFFFFFFFFFFFFFFFFFFFFFFFFFFFFFFFFFFFFFFFFF NOT AND EQ PUSH2 0xFC0 JUMPI DUP4 PUSH1 0x40 MLOAD PUSH32 0x64A0AE9200000000000000000000000000000000000000000000000000000000 DUP2 MSTORE PUSH1 0x4 ADD PUSH2 0xFB7 SWAP2 SWAP1 PUSH2 0x19D3 JUMP JUMPDEST PUSH1 0x40 MLOAD DUP1 SWAP2 SUB SWAP1 REVERT JUMPDEST POP JUMPDEST POP POP POP POP JUMP JUMPDEST PUSH1 0x60 PUSH1 0x40 MLOAD DUP1 PUSH1 0x20 ADD PUSH1 0x40 MSTORE DUP1 PUSH0 DUP2 MSTORE POP SWAP1 POP SWAP1 JUMP JUMPDEST PUSH1 0x60 PUSH2 0xFE9 DUP3 PUSH2 0x9CA JUMP JUMPDEST POP PUSH0 PUSH2 0xFF3 PUSH2 0xFC8 JUMP JUMPDEST SWAP1 POP PUSH0 DUP2 MLOAD GT PUSH2 0x1011 JUMPI PUSH1 0x40 MLOAD DUP1 PUSH1 0x20 ADD PUSH1 0x40 MSTORE DUP1 PUSH0 DUP2 MSTORE POP PUSH2 0x103C JUMP JUMPDEST DUP1 PUSH2 0x101B DUP5 PUSH2 0x13DF JUMP JUMPDEST PUSH1 0x40 MLOAD PUSH1 0x20 ADD PUSH2 0x102C SWAP3 SWAP2 SWAP1 PUSH2 0x1EFA JUMP JUMPDEST PUSH1 0x40 MLOAD PUSH1 0x20 DUP2 DUP4 SUB SUB DUP2 MSTORE SWAP1 PUSH1 0x40 MSTORE JUMPDEST SWAP2 POP POP SWAP2 SWAP1 POP JUMP JUMPDEST PUSH2 0x105D DUP3 DUP3 PUSH1 0x40 MLOAD DUP1 PUSH1 0x20 ADD PUSH1 0x40 MSTORE DUP1 PUSH0 DUP2 MSTORE POP PUSH2 0x14A9 JUMP JUMPDEST POP POP JUMP JUMPDEST DUP1 PUSH1 0x6 PUSH0 DUP5 DUP2 MSTORE PUSH1 0x20 ADD SWAP1 DUP2 MSTORE PUSH1 0x20 ADD PUSH0 KECCAK256 SWAP1 DUP2 PUSH2 0x107F SWAP2 SWAP1 PUSH2 0x2209 JUMP JUMPDEST POP PUSH32 0xF8E1A15ABA9398E019F0B49DF1A4FDE98EE17AE345CB5F6B5E2C27F5033E8CE7 DUP3 PUSH1 0x40 MLOAD PUSH2 0x10AF SWAP2 SWAP1 PUSH2 0x1ADE JUMP JUMPDEST PUSH1 0x40 MLOAD DUP1 SWAP2 SUB SWAP1 LOG1 POP POP JUMP JUMPDEST PUSH0 PUSH32 0x1FFC9A700000000000000000000000000000000000000000000000000000000 PUSH28 0xFFFFFFFFFFFFFFFFFFFFFFFFFFFFFFFFFFFFFFFFFFFFFFFFFFFFFFFF NOT AND DUP3 PUSH28 0xFFFFFFFFFFFFFFFFFFFFFFFFFFFFFFFFFFFFFFFFFFFFFFFFFFFFFFFF NOT AND EQ SWAP1 POP SWAP2 SWAP1 POP JUMP JUMPDEST PUSH0 PUSH1 0x2 PUSH0 DUP4 DUP2 MSTORE PUSH1 0x20 ADD SWAP1 DUP2 MSTORE PUSH1 0x20 ADD PUSH0 KECCAK256 PUSH0 SWAP1 SLOAD SWAP1 PUSH2 0x100 EXP SWAP1 DIV PUSH20 0xFFFFFFFFFFFFFFFFFFFFFFFFFFFFFFFFFFFFFFFF AND SWAP1 POP SWAP2 SWAP1 POP JUMP JUMPDEST DUP1 DUP1 PUSH2 0x1195 JUMPI POP PUSH0 PUSH20 0xFFFFFFFFFFFFFFFFFFFFFFFFFFFFFFFFFFFFFFFF AND DUP3 PUSH20 0xFFFFFFFFFFFFFFFFFFFFFFFFFFFFFFFFFFFFFFFF AND EQ ISZERO JUMPDEST ISZERO PUSH2 0x12C7 JUMPI PUSH0 PUSH2 0x11A4 DUP5 PUSH2 0x9CA JUMP JUMPDEST SWAP1 POP PUSH0 PUSH20 0xFFFFFFFFFFFFFFFFFFFFFFFFFFFFFFFFFFFFFFFF AND DUP4 PUSH20 0xFFFFFFFFFFFFFFFFFFFFFFFFFFFFFFFFFFFFFFFF AND EQ ISZERO DUP1 ISZERO PUSH2 0x120E JUMPI POP DUP3 PUSH20 0xFFFFFFFFFFFFFFFFFFFFFFFFFFFFFFFFFFFFFFFF AND DUP2 PUSH20 0xFFFFFFFFFFFFFFFFFFFFFFFFFFFFFFFFFFFFFFFF AND EQ ISZERO JUMPDEST DUP1 ISZERO PUSH2 0x1221 JUMPI POP PUSH2 0x121F DUP2 DUP5 PUSH2 0x85B JUMP JUMPDEST ISZERO JUMPDEST ISZERO PUSH2 0x1263 JUMPI DUP3 PUSH1 0x40 MLOAD PUSH32 0xA9FBF51F00000000000000000000000000000000000000000000000000000000 DUP2 MSTORE PUSH1 0x4 ADD PUSH2 0x125A SWAP2 SWAP1 PUSH2 0x19D3 JUMP JUMPDEST PUSH1 0x40 MLOAD DUP1 SWAP2 SUB SWAP1 REVERT JUMPDEST DUP2 ISZERO PUSH2 0x12C5 JUMPI DUP4 DUP6 PUSH20 0xFFFFFFFFFFFFFFFFFFFFFFFFFFFFFFFFFFFFFFFF AND DUP3 PUSH20 0xFFFFFFFFFFFFFFFFFFFFFFFFFFFFFFFFFFFFFFFF AND PUSH32 0x8C5BE1E5EBEC7D5BD14F71427D1E84F3DD0314C0F7B2291E5B200AC8C7C3B925 PUSH1 0x40 MLOAD PUSH1 0x40 MLOAD DUP1 SWAP2 SUB SWAP1 LOG4 JUMPDEST POP JUMPDEST DUP4 PUSH1 0x4 PUSH0 DUP6 DUP2 MSTORE PUSH1 0x20 ADD SWAP1 DUP2 MSTORE PUSH1 0x20 ADD PUSH0 KECCAK256 PUSH0 PUSH2 0x100 EXP DUP2 SLOAD DUP2 PUSH20 0xFFFFFFFFFFFFFFFFFFFFFFFFFFFFFFFFFFFFFFFF MUL NOT AND SWAP1 DUP4 PUSH20 0xFFFFFFFFFFFFFFFFFFFFFFFFFFFFFFFFFFFFFFFF AND MUL OR SWAP1 SSTORE POP POP POP POP POP JUMP JUMPDEST PUSH2 0x1327 DUP4 DUP4 DUP4 PUSH2 0x14C4 JUMP JUMPDEST PUSH2 0x13DA JUMPI PUSH0 PUSH20 0xFFFFFFFFFFFFFFFFFFFFFFFFFFFFFFFFFFFFFFFF AND DUP4 PUSH20 0xFFFFFFFFFFFFFFFFFFFFFFFFFFFFFFFFFFFFFFFF AND SUB PUSH2 0x139B JUMPI DUP1 PUSH1 0x40 MLOAD PUSH32 0x7E27328900000000000000000000000000000000000000000000000000000000 DUP2 MSTORE PUSH1 0x4 ADD PUSH2 0x1392 SWAP2 SWAP1 PUSH2 0x1ADE JUMP JUMPDEST PUSH1 0x40 MLOAD DUP1 SWAP2 SUB SWAP1 REVERT JUMPDEST DUP2 DUP2 PUSH1 0x40 MLOAD PUSH32 0x177E802F00000000000000000000000000000000000000000000000000000000 DUP2 MSTORE PUSH1 0x4 ADD PUSH2 0x13D1 SWAP3 SWAP2 SWAP1 PUSH2 0x22D8 JUMP JUMPDEST PUSH1 0x40 MLOAD DUP1 SWAP2 SUB SWAP1 REVERT JUMPDEST POP POP POP JUMP JUMPDEST PUSH1 0x60 PUSH0 PUSH1 0x1 PUSH2 0x13ED DUP5 PUSH2 0x1584 JUMP JUMPDEST ADD SWAP1 POP PUSH0 DUP2 PUSH8 0xFFFFFFFFFFFFFFFF DUP2 GT ISZERO PUSH2 0x140B JUMPI PUSH2 0x140A PUSH2 0x1B67 JUMP JUMPDEST JUMPDEST PUSH1 0x40 MLOAD SWAP1 DUP1 DUP3 MSTORE DUP1 PUSH1 0x1F ADD PUSH1 0x1F NOT AND PUSH1 0x20 ADD DUP3 ADD PUSH1 0x40 MSTORE DUP1 ISZERO PUSH2 0x143D JUMPI DUP2 PUSH1 0x20 ADD PUSH1 0x1 DUP3 MUL DUP1 CALLDATASIZE DUP4 CALLDATACOPY DUP1 DUP3 ADD SWAP2 POP POP SWAP1 POP JUMPDEST POP SWAP1 POP PUSH0 DUP3 PUSH1 0x20 ADD DUP3 ADD SWAP1 POP JUMPDEST PUSH1 0x1 ISZERO PUSH2 0x149E JUMPI DUP1 DUP1 PUSH1 0x1 SWAP1 SUB SWAP2 POP POP PUSH32 0x3031323334353637383961626364656600000000000000000000000000000000 PUSH1 0xA DUP7 MOD BYTE DUP2 MSTORE8 PUSH1 0xA DUP6 DUP2 PUSH2 0x1493 JUMPI PUSH2 0x1492 PUSH2 0x22FF JUMP JUMPDEST JUMPDEST DIV SWAP5 POP PUSH0 DUP6 SUB PUSH2 0x144A JUMPI JUMPDEST DUP2 SWAP4 POP POP POP POP SWAP2 SWAP1 POP JUMP JUMPDEST PUSH2 0x14B3 DUP4 DUP4 PUSH2 0x16D5 JUMP JUMPDEST PUSH2 0x14BF PUSH0 DUP5 DUP5 DUP5 PUSH2 0xE16 JUMP JUMPDEST POP POP POP JUMP JUMPDEST PUSH0 DUP1 PUSH20 0xFFFFFFFFFFFFFFFFFFFFFFFFFFFFFFFFFFFFFFFF AND DUP4 PUSH20 0xFFFFFFFFFFFFFFFFFFFFFFFFFFFFFFFFFFFFFFFF AND EQ ISZERO DUP1 ISZERO PUSH2 0x157B JUMPI POP DUP3 PUSH20 0xFFFFFFFFFFFFFFFFFFFFFFFFFFFFFFFFFFFFFFFF AND DUP5 PUSH20 0xFFFFFFFFFFFFFFFFFFFFFFFFFFFFFFFFFFFFFFFF AND EQ DUP1 PUSH2 0x153C JUMPI POP PUSH2 0x153B DUP5 DUP5 PUSH2 0x85B JUMP JUMPDEST JUMPDEST DUP1 PUSH2 0x157A JUMPI POP DUP3 PUSH20 0xFFFFFFFFFFFFFFFFFFFFFFFFFFFFFFFFFFFFFFFF AND PUSH2 0x1562 DUP4 PUSH2 0xA50 JUMP JUMPDEST PUSH20 0xFFFFFFFFFFFFFFFFFFFFFFFFFFFFFFFFFFFFFFFF AND EQ JUMPDEST JUMPDEST SWAP1 POP SWAP4 SWAP3 POP POP POP JUMP JUMPDEST PUSH0 DUP1 PUSH0 SWAP1 POP PUSH27 0x184F03E93FF9F4DAA797ED6E38ED64BF6A1F010000000000000000 DUP4 LT PUSH2 0x15E0 JUMPI PUSH27 0x184F03E93FF9F4DAA797ED6E38ED64BF6A1F010000000000000000 DUP4 DUP2 PUSH2 0x15D6 JUMPI PUSH2 0x15D5 PUSH2 0x22FF JUMP JUMPDEST JUMPDEST DIV SWAP3 POP PUSH1 0x40 DUP2 ADD SWAP1 POP JUMPDEST PUSH14 0x4EE2D6D415B85ACEF8100000000 DUP4 LT PUSH2 0x161D JUMPI PUSH14 0x4EE2D6D415B85ACEF8100000000 DUP4 DUP2 PUSH2 0x1613 JUMPI PUSH2 0x1612 PUSH2 0x22FF JUMP JUMPDEST JUMPDEST DIV SWAP3 POP PUSH1 0x20 DUP2 ADD SWAP1 POP JUMPDEST PUSH7 0x2386F26FC10000 DUP4 LT PUSH2 0x164C JUMPI PUSH7 0x2386F26FC10000 DUP4 DUP2 PUSH2 0x1642 JUMPI PUSH2 0x1641 PUSH2 0x22FF JUMP JUMPDEST JUMPDEST DIV SWAP3 POP PUSH1 0x10 DUP2 ADD SWAP1 POP JUMPDEST PUSH4 0x5F5E100 DUP4 LT PUSH2 0x1675 JUMPI PUSH4 0x5F5E100 DUP4 DUP2 PUSH2 0x166B JUMPI PUSH2 0x166A PUSH2 0x22FF JUMP JUMPDEST JUMPDEST DIV SWAP3 POP PUSH1 0x8 DUP2 ADD SWAP1 POP JUMPDEST PUSH2 0x2710 DUP4 LT PUSH2 0x169A JUMPI PUSH2 0x2710 DUP4 DUP2 PUSH2 0x1690 JUMPI PUSH2 0x168F PUSH2 0x22FF JUMP JUMPDEST JUMPDEST DIV SWAP3 POP PUSH1 0x4 DUP2 ADD SWAP1 POP JUMPDEST PUSH1 0x64 DUP4 LT PUSH2 0x16BD JUMPI PUSH1 0x64 DUP4 DUP2 PUSH2 0x16B3 JUMPI PUSH2 0x16B2 PUSH2 0x22FF JUMP JUMPDEST JUMPDEST DIV SWAP3 POP PUSH1 0x2 DUP2 ADD SWAP1 POP JUMPDEST PUSH1 0xA DUP4 LT PUSH2 0x16CC JUMPI PUSH1 0x1 DUP2 ADD SWAP1 POP JUMPDEST DUP1 SWAP2 POP POP SWAP2 SWAP1 POP JUMP JUMPDEST PUSH0 PUSH20 0xFFFFFFFFFFFFFFFFFFFFFFFFFFFFFFFFFFFFFFFF AND DUP3 PUSH20 0xFFFFFFFFFFFFFFFFFFFFFFFFFFFFFFFFFFFFFFFF AND SUB PUSH2 0x1745 JUMPI PUSH0 PUSH1 0x40 MLOAD PUSH32 0x64A0AE9200000000000000000000000000000000000000000000000000000000 DUP2 MSTORE PUSH1 0x4 ADD PUSH2 0x173C SWAP2 SWAP1 PUSH2 0x19D3 JUMP JUMPDEST PUSH1 0x40 MLOAD DUP1 SWAP2 SUB SWAP1 REVERT JUMPDEST PUSH0 PUSH2 0x1751 DUP4 DUP4 PUSH0 PUSH2 0xAA2 JUMP JUMPDEST SWAP1 POP PUSH0 PUSH20 0xFFFFFFFFFFFFFFFFFFFFFFFFFFFFFFFFFFFFFFFF AND DUP2 PUSH20 0xFFFFFFFFFFFFFFFFFFFFFFFFFFFFFFFFFFFFFFFF AND EQ PUSH2 0x17C3 JUMPI PUSH0 PUSH1 0x40 MLOAD PUSH32 0x73C6AC6E00000000000000000000000000000000000000000000000000000000 DUP2 MSTORE PUSH1 0x4 ADD PUSH2 0x17BA SWAP2 SWAP1 PUSH2 0x19D3 JUMP JUMPDEST PUSH1 0x40 MLOAD DUP1 SWAP2 SUB SWAP1 REVERT JUMPDEST POP POP POP JUMP JUMPDEST PUSH0 PUSH1 0x40 MLOAD SWAP1 POP SWAP1 JUMP JUMPDEST PUSH0 DUP1 REVERT JUMPDEST PUSH0 DUP1 REVERT JUMPDEST PUSH0 PUSH32 0xFFFFFFFF00000000000000000000000000000000000000000000000000000000 DUP3 AND SWAP1 POP SWAP2 SWAP1 POP JUMP JUMPDEST PUSH2 0x180D DUP2 PUSH2 0x17D9 JUMP JUMPDEST DUP2 EQ PUSH2 0x1817 JUMPI PUSH0 DUP1 REVERT JUMPDEST POP JUMP JUMPDEST PUSH0 DUP2 CALLDATALOAD SWAP1 POP PUSH2 0x1828 DUP2 PUSH2 0x1804 JUMP JUMPDEST SWAP3 SWAP2 POP POP JUMP JUMPDEST PUSH0 PUSH1 0x20 DUP3 DUP5 SUB SLT ISZERO PUSH2 0x1843 JUMPI PUSH2 0x1842 PUSH2 0x17D1 JUMP JUMPDEST JUMPDEST PUSH0 PUSH2 0x1850 DUP5 DUP3 DUP6 ADD PUSH2 0x181A JUMP JUMPDEST SWAP2 POP POP SWAP3 SWAP2 POP POP JUMP JUMPDEST PUSH0 DUP2 ISZERO ISZERO SWAP1 POP SWAP2 SWAP1 POP JUMP JUMPDEST PUSH2 0x186D DUP2 PUSH2 0x1859 JUMP JUMPDEST DUP3 MSTORE POP POP JUMP JUMPDEST PUSH0 PUSH1 0x20 DUP3 ADD SWAP1 POP PUSH2 0x1886 PUSH0 DUP4 ADD DUP5 PUSH2 0x1864 JUMP JUMPDEST SWAP3 SWAP2 POP POP JUMP JUMPDEST PUSH0 DUP2 MLOAD SWAP1 POP SWAP2 SWAP1 POP JUMP JUMPDEST PUSH0 DUP3 DUP3 MSTORE PUSH1 0x20 DUP3 ADD SWAP1 POP SWAP3 SWAP2 POP POP JUMP JUMPDEST PUSH0 JUMPDEST DUP4 DUP2 LT ISZERO PUSH2 0x18C3 JUMPI DUP1 DUP3 ADD MLOAD DUP2 DUP5 ADD MSTORE PUSH1 0x20 DUP2 ADD SWAP1 POP PUSH2 0x18A8 JUMP JUMPDEST PUSH0 DUP5 DUP5 ADD MSTORE POP POP POP POP JUMP JUMPDEST PUSH0 PUSH1 0x1F NOT PUSH1 0x1F DUP4 ADD AND SWAP1 POP SWAP2 SWAP1 POP JUMP JUMPDEST PUSH0 PUSH2 0x18E8 DUP3 PUSH2 0x188C JUMP JUMPDEST PUSH2 0x18F2 DUP2 DUP6 PUSH2 0x1896 JUMP JUMPDEST SWAP4 POP PUSH2 0x1902 DUP2 DUP6 PUSH1 0x20 DUP7 ADD PUSH2 0x18A6 JUMP JUMPDEST PUSH2 0x190B DUP2 PUSH2 0x18CE JUMP JUMPDEST DUP5 ADD SWAP2 POP POP SWAP3 SWAP2 POP POP JUMP JUMPDEST PUSH0 PUSH1 0x20 DUP3 ADD SWAP1 POP DUP2 DUP2 SUB PUSH0 DUP4 ADD MSTORE PUSH2 0x192E DUP2 DUP5 PUSH2 0x18DE JUMP JUMPDEST SWAP1 POP SWAP3 SWAP2 POP POP JUMP JUMPDEST PUSH0 DUP2 SWAP1 POP SWAP2 SWAP1 POP JUMP JUMPDEST PUSH2 0x1948 DUP2 PUSH2 0x1936 JUMP JUMPDEST DUP2 EQ PUSH2 0x1952 JUMPI PUSH0 DUP1 REVERT JUMPDEST POP JUMP JUMPDEST PUSH0 DUP2 CALLDATALOAD SWAP1 POP PUSH2 0x1963 DUP2 PUSH2 0x193F JUMP JUMPDEST SWAP3 SWAP2 POP POP JUMP JUMPDEST PUSH0 PUSH1 0x20 DUP3 DUP5 SUB SLT ISZERO PUSH2 0x197E JUMPI PUSH2 0x197D PUSH2 0x17D1 JUMP JUMPDEST JUMPDEST PUSH0 PUSH2 0x198B DUP5 DUP3 DUP6 ADD PUSH2 0x1955 JUMP JUMPDEST SWAP2 POP POP SWAP3 SWAP2 POP POP JUMP JUMPDEST PUSH0 PUSH20 0xFFFFFFFFFFFFFFFFFFFFFFFFFFFFFFFFFFFFFFFF DUP3 AND SWAP1 POP SWAP2 SWAP1 POP JUMP JUMPDEST PUSH0 PUSH2 0x19BD DUP3 PUSH2 0x1994 JUMP JUMPDEST SWAP1 POP SWAP2 SWAP1 POP JUMP JUMPDEST PUSH2 0x19CD DUP2 PUSH2 0x19B3 JUMP JUMPDEST DUP3 MSTORE POP POP JUMP JUMPDEST PUSH0 PUSH1 0x20 DUP3 ADD SWAP1 POP PUSH2 0x19E6 PUSH0 DUP4 ADD DUP5 PUSH2 0x19C4 JUMP JUMPDEST SWAP3 SWAP2 POP POP JUMP JUMPDEST PUSH2 0x19F5 DUP2 PUSH2 0x19B3 JUMP JUMPDEST DUP2 EQ PUSH2 0x19FF JUMPI PUSH0 DUP1 REVERT JUMPDEST POP JUMP JUMPDEST PUSH0 DUP2 CALLDATALOAD SWAP1 POP PUSH2 0x1A10 DUP2 PUSH2 0x19EC JUMP JUMPDEST SWAP3 SWAP2 POP POP JUMP JUMPDEST PUSH0 DUP1 PUSH1 0x40 DUP4 DUP6 SUB SLT ISZERO PUSH2 0x1A2C JUMPI PUSH2 0x1A2B PUSH2 0x17D1 JUMP JUMPDEST JUMPDEST PUSH0 PUSH2 0x1A39 DUP6 DUP3 DUP7 ADD PUSH2 0x1A02 JUMP JUMPDEST SWAP3 POP POP PUSH1 0x20 PUSH2 0x1A4A DUP6 DUP3 DUP7 ADD PUSH2 0x1955 JUMP JUMPDEST SWAP2 POP POP SWAP3 POP SWAP3 SWAP1 POP JUMP JUMPDEST PUSH0 DUP1 PUSH0 PUSH1 0x60 DUP5 DUP7 SUB SLT ISZERO PUSH2 0x1A6B JUMPI PUSH2 0x1A6A PUSH2 0x17D1 JUMP JUMPDEST JUMPDEST PUSH0 PUSH2 0x1A78 DUP7 DUP3 DUP8 ADD PUSH2 0x1A02 JUMP JUMPDEST SWAP4 POP POP PUSH1 0x20 PUSH2 0x1A89 DUP7 DUP3 DUP8 ADD PUSH2 0x1A02 JUMP JUMPDEST SWAP3 POP POP PUSH1 0x40 PUSH2 0x1A9A DUP7 DUP3 DUP8 ADD PUSH2 0x1955 JUMP JUMPDEST SWAP2 POP POP SWAP3 POP SWAP3 POP SWAP3 JUMP JUMPDEST PUSH0 PUSH1 0x20 DUP3 DUP5 SUB SLT ISZERO PUSH2 0x1AB9 JUMPI PUSH2 0x1AB8 PUSH2 0x17D1 JUMP JUMPDEST JUMPDEST PUSH0 PUSH2 0x1AC6 DUP5 DUP3 DUP6 ADD PUSH2 0x1A02 JUMP JUMPDEST SWAP2 POP POP SWAP3 SWAP2 POP POP JUMP JUMPDEST PUSH2 0x1AD8 DUP2 PUSH2 0x1936 JUMP JUMPDEST DUP3 MSTORE POP POP JUMP JUMPDEST PUSH0 PUSH1 0x20 DUP3 ADD SWAP1 POP PUSH2 0x1AF1 PUSH0 DUP4 ADD DUP5 PUSH2 0x1ACF JUMP JUMPDEST SWAP3 SWAP2 POP POP JUMP JUMPDEST PUSH2 0x1B00 DUP2 PUSH2 0x1859 JUMP JUMPDEST DUP2 EQ PUSH2 0x1B0A JUMPI PUSH0 DUP1 REVERT JUMPDEST POP JUMP JUMPDEST PUSH0 DUP2 CALLDATALOAD SWAP1 POP PUSH2 0x1B1B DUP2 PUSH2 0x1AF7 JUMP JUMPDEST SWAP3 SWAP2 POP POP JUMP JUMPDEST PUSH0 DUP1 PUSH1 0x40 DUP4 DUP6 SUB SLT ISZERO PUSH2 0x1B37 JUMPI PUSH2 0x1B36 PUSH2 0x17D1 JUMP JUMPDEST JUMPDEST PUSH0 PUSH2 0x1B44 DUP6 DUP3 DUP7 ADD PUSH2 0x1A02 JUMP JUMPDEST SWAP3 POP POP PUSH1 0x20 PUSH2 0x1B55 DUP6 DUP3 DUP7 ADD PUSH2 0x1B0D JUMP JUMPDEST SWAP2 POP POP SWAP3 POP SWAP3 SWAP1 POP JUMP JUMPDEST PUSH0 DUP1 REVERT JUMPDEST PUSH0 DUP1 REVERT JUMPDEST PUSH32 0x4E487B7100000000000000000000000000000000000000000000000000000000 PUSH0 MSTORE PUSH1 0x41 PUSH1 0x4 MSTORE PUSH1 0x24 PUSH0 REVERT JUMPDEST PUSH2 0x1B9D DUP3 PUSH2 0x18CE JUMP JUMPDEST DUP2 ADD DUP2 DUP2 LT PUSH8 0xFFFFFFFFFFFFFFFF DUP3 GT OR ISZERO PUSH2 0x1BBC JUMPI PUSH2 0x1BBB PUSH2 0x1B67 JUMP JUMPDEST JUMPDEST DUP1 PUSH1 0x40 MSTORE POP POP POP JUMP JUMPDEST PUSH0 PUSH2 0x1BCE PUSH2 0x17C8 JUMP JUMPDEST SWAP1 POP PUSH2 0x1BDA DUP3 DUP3 PUSH2 0x1B94 JUMP JUMPDEST SWAP2 SWAP1 POP JUMP JUMPDEST PUSH0 PUSH8 0xFFFFFFFFFFFFFFFF DUP3 GT ISZERO PUSH2 0x1BF9 JUMPI PUSH2 0x1BF8 PUSH2 0x1B67 JUMP JUMPDEST JUMPDEST PUSH2 0x1C02 DUP3 PUSH2 0x18CE JUMP JUMPDEST SWAP1 POP PUSH1 0x20 DUP2 ADD SWAP1 POP SWAP2 SWAP1 POP JUMP JUMPDEST DUP3 DUP2 DUP4 CALLDATACOPY PUSH0 DUP4 DUP4 ADD MSTORE POP POP POP JUMP JUMPDEST PUSH0 PUSH2 0x1C2F PUSH2 0x1C2A DUP5 PUSH2 0x1BDF JUMP JUMPDEST PUSH2 0x1BC5 JUMP JUMPDEST SWAP1 POP DUP3 DUP2 MSTORE PUSH1 0x20 DUP2 ADD DUP5 DUP5 DUP5 ADD GT ISZERO PUSH2 0x1C4B JUMPI PUSH2 0x1C4A PUSH2 0x1B63 JUMP JUMPDEST JUMPDEST PUSH2 0x1C56 DUP5 DUP3 DUP6 PUSH2 0x1C0F JUMP JUMPDEST POP SWAP4 SWAP3 POP POP POP JUMP JUMPDEST PUSH0 DUP3 PUSH1 0x1F DUP4 ADD SLT PUSH2 0x1C72 JUMPI PUSH2 0x1C71 PUSH2 0x1B5F JUMP JUMPDEST JUMPDEST DUP2 CALLDATALOAD PUSH2 0x1C82 DUP5 DUP3 PUSH1 0x20 DUP7 ADD PUSH2 0x1C1D JUMP JUMPDEST SWAP2 POP POP SWAP3 SWAP2 POP POP JUMP JUMPDEST PUSH0 DUP1 PUSH0 DUP1 PUSH1 0x80 DUP6 DUP8 SUB SLT ISZERO PUSH2 0x1CA3 JUMPI PUSH2 0x1CA2 PUSH2 0x17D1 JUMP JUMPDEST JUMPDEST PUSH0 PUSH2 0x1CB0 DUP8 DUP3 DUP9 ADD PUSH2 0x1A02 JUMP JUMPDEST SWAP5 POP POP PUSH1 0x20 PUSH2 0x1CC1 DUP8 DUP3 DUP9 ADD PUSH2 0x1A02 JUMP JUMPDEST SWAP4 POP POP PUSH1 0x40 PUSH2 0x1CD2 DUP8 DUP3 DUP9 ADD PUSH2 0x1955 JUMP JUMPDEST SWAP3 POP POP PUSH1 0x60 DUP6 ADD CALLDATALOAD PUSH8 0xFFFFFFFFFFFFFFFF DUP2 GT ISZERO PUSH2 0x1CF3 JUMPI PUSH2 0x1CF2 PUSH2 0x17D5 JUMP JUMPDEST JUMPDEST PUSH2 0x1CFF DUP8 DUP3 DUP9 ADD PUSH2 0x1C5E JUMP JUMPDEST SWAP2 POP POP SWAP3 SWAP6 SWAP2 SWAP5 POP SWAP3 POP JUMP JUMPDEST PUSH0 PUSH8 0xFFFFFFFFFFFFFFFF DUP3 GT ISZERO PUSH2 0x1D25 JUMPI PUSH2 0x1D24 PUSH2 0x1B67 JUMP JUMPDEST JUMPDEST PUSH2 0x1D2E DUP3 PUSH2 0x18CE JUMP JUMPDEST SWAP1 POP PUSH1 0x20 DUP2 ADD SWAP1 POP SWAP2 SWAP1 POP JUMP JUMPDEST PUSH0 PUSH2 0x1D4D PUSH2 0x1D48 DUP5 PUSH2 0x1D0B JUMP JUMPDEST PUSH2 0x1BC5 JUMP JUMPDEST SWAP1 POP DUP3 DUP2 MSTORE PUSH1 0x20 DUP2 ADD DUP5 DUP5 DUP5 ADD GT ISZERO PUSH2 0x1D69 JUMPI PUSH2 0x1D68 PUSH2 0x1B63 JUMP JUMPDEST JUMPDEST PUSH2 0x1D74 DUP5 DUP3 DUP6 PUSH2 0x1C0F JUMP JUMPDEST POP SWAP4 SWAP3 POP POP POP JUMP JUMPDEST PUSH0 DUP3 PUSH1 0x1F DUP4 ADD SLT PUSH2 0x1D90 JUMPI PUSH2 0x1D8F PUSH2 0x1B5F JUMP JUMPDEST JUMPDEST DUP2 CALLDATALOAD PUSH2 0x1DA0 DUP5 DUP3 PUSH1 0x20 DUP7 ADD PUSH2 0x1D3B JUMP JUMPDEST SWAP2 POP POP SWAP3 SWAP2 POP POP JUMP JUMPDEST PUSH0 PUSH1 0x20 DUP3 DUP5 SUB SLT ISZERO PUSH2 0x1DBE JUMPI PUSH2 0x1DBD PUSH2 0x17D1 JUMP JUMPDEST JUMPDEST PUSH0 DUP3 ADD CALLDATALOAD PUSH8 0xFFFFFFFFFFFFFFFF DUP2 GT ISZERO PUSH2 0x1DDB JUMPI PUSH2 0x1DDA PUSH2 0x17D5 JUMP JUMPDEST JUMPDEST PUSH2 0x1DE7 DUP5 DUP3 DUP6 ADD PUSH2 0x1D7C JUMP JUMPDEST SWAP2 POP POP SWAP3 SWAP2 POP POP JUMP JUMPDEST PUSH0 DUP1 PUSH1 0x40 DUP4 DUP6 SUB SLT ISZERO PUSH2 0x1E06 JUMPI PUSH2 0x1E05 PUSH2 0x17D1 JUMP JUMPDEST JUMPDEST PUSH0 PUSH2 0x1E13 DUP6 DUP3 DUP7 ADD PUSH2 0x1A02 JUMP JUMPDEST SWAP3 POP POP PUSH1 0x20 PUSH2 0x1E24 DUP6 DUP3 DUP7 ADD PUSH2 0x1A02 JUMP JUMPDEST SWAP2 POP POP SWAP3 POP SWAP3 SWAP1 POP JUMP JUMPDEST PUSH32 0x4E487B7100000000000000000000000000000000000000000000000000000000 PUSH0 MSTORE PUSH1 0x22 PUSH1 0x4 MSTORE PUSH1 0x24 PUSH0 REVERT JUMPDEST PUSH0 PUSH1 0x2 DUP3 DIV SWAP1 POP PUSH1 0x1 DUP3 AND DUP1 PUSH2 0x1E72 JUMPI PUSH1 0x7F DUP3 AND SWAP2 POP JUMPDEST PUSH1 0x20 DUP3 LT DUP2 SUB PUSH2 0x1E85 JUMPI PUSH2 0x1E84 PUSH2 0x1E2E JUMP JUMPDEST JUMPDEST POP SWAP2 SWAP1 POP JUMP JUMPDEST PUSH0 PUSH1 0x60 DUP3 ADD SWAP1 POP PUSH2 0x1E9E PUSH0 DUP4 ADD DUP7 PUSH2 0x19C4 JUMP JUMPDEST PUSH2 0x1EAB PUSH1 0x20 DUP4 ADD DUP6 PUSH2 0x1ACF JUMP JUMPDEST PUSH2 0x1EB8 PUSH1 0x40 DUP4 ADD DUP5 PUSH2 0x19C4 JUMP JUMPDEST SWAP5 SWAP4 POP POP POP POP JUMP JUMPDEST PUSH0 DUP2 SWAP1 POP SWAP3 SWAP2 POP POP JUMP JUMPDEST PUSH0 PUSH2 0x1ED4 DUP3 PUSH2 0x188C JUMP JUMPDEST PUSH2 0x1EDE DUP2 DUP6 PUSH2 0x1EC0 JUMP JUMPDEST SWAP4 POP PUSH2 0x1EEE DUP2 DUP6 PUSH1 0x20 DUP7 ADD PUSH2 0x18A6 JUMP JUMPDEST DUP1 DUP5 ADD SWAP2 POP POP SWAP3 SWAP2 POP POP JUMP JUMPDEST PUSH0 PUSH2 0x1F05 DUP3 DUP6 PUSH2 0x1ECA JUMP JUMPDEST SWAP2 POP PUSH2 0x1F11 DUP3 DUP5 PUSH2 0x1ECA JUMP JUMPDEST SWAP2 POP DUP2 SWAP1 POP SWAP4 SWAP3 POP POP POP JUMP JUMPDEST PUSH32 0x4E487B7100000000000000000000000000000000000000000000000000000000 PUSH0 MSTORE PUSH1 0x11 PUSH1 0x4 MSTORE PUSH1 0x24 PUSH0 REVERT JUMPDEST PUSH0 PUSH2 0x1F54 DUP3 PUSH2 0x1936 JUMP JUMPDEST SWAP2 POP PUSH32 0xFFFFFFFFFFFFFFFFFFFFFFFFFFFFFFFFFFFFFFFFFFFFFFFFFFFFFFFFFFFFFFFF DUP3 SUB PUSH2 0x1F86 JUMPI PUSH2 0x1F85 PUSH2 0x1F1D JUMP JUMPDEST JUMPDEST PUSH1 0x1 DUP3 ADD SWAP1 POP SWAP2 SWAP1 POP JUMP JUMPDEST PUSH0 DUP2 MLOAD SWAP1 POP SWAP2 SWAP1 POP JUMP JUMPDEST PUSH0 DUP3 DUP3 MSTORE PUSH1 0x20 DUP3 ADD SWAP1 POP SWAP3 SWAP2 POP POP JUMP JUMPDEST PUSH0 PUSH2 0x1FB5 DUP3 PUSH2 0x1F91 JUMP JUMPDEST PUSH2 0x1FBF DUP2 DUP6 PUSH2 0x1F9B JUMP JUMPDEST SWAP4 POP PUSH2 0x1FCF DUP2 DUP6 PUSH1 0x20 DUP7 ADD PUSH2 0x18A6 JUMP JUMPDEST PUSH2 0x1FD8 DUP2 PUSH2 0x18CE JUMP JUMPDEST DUP5 ADD SWAP2 POP POP SWAP3 SWAP2 POP POP JUMP JUMPDEST PUSH0 PUSH1 0x80 DUP3 ADD SWAP1 POP PUSH2 0x1FF6 PUSH0 DUP4 ADD DUP8 PUSH2 0x19C4 JUMP JUMPDEST PUSH2 0x2003 PUSH1 0x20 DUP4 ADD DUP7 PUSH2 0x19C4 JUMP JUMPDEST PUSH2 0x2010 PUSH1 0x40 DUP4 ADD DUP6 PUSH2 0x1ACF JUMP JUMPDEST DUP2 DUP2 SUB PUSH1 0x60 DUP4 ADD MSTORE PUSH2 0x2022 DUP2 DUP5 PUSH2 0x1FAB JUMP JUMPDEST SWAP1 POP SWAP6 SWAP5 POP POP POP POP POP JUMP JUMPDEST PUSH0 DUP2 MLOAD SWAP1 POP PUSH2 0x203B DUP2 PUSH2 0x1804 JUMP JUMPDEST SWAP3 SWAP2 POP POP JUMP JUMPDEST PUSH0 PUSH1 0x20 DUP3 DUP5 SUB SLT ISZERO PUSH2 0x2056 JUMPI PUSH2 0x2055 PUSH2 0x17D1 JUMP JUMPDEST JUMPDEST PUSH0 PUSH2 0x2063 DUP5 DUP3 DUP6 ADD PUSH2 0x202D JUMP JUMPDEST SWAP2 POP POP SWAP3 SWAP2 POP POP JUMP JUMPDEST PUSH0 DUP2 SWAP1 POP DUP2 PUSH0 MSTORE PUSH1 0x20 PUSH0 KECCAK256 SWAP1 POP SWAP2 SWAP1 POP JUMP JUMPDEST PUSH0 PUSH1 0x20 PUSH1 0x1F DUP4 ADD DIV SWAP1 POP SWAP2 SWAP1 POP JUMP JUMPDEST PUSH0 DUP3 DUP3 SHL SWAP1 POP SWAP3 SWAP2 POP POP JUMP JUMPDEST PUSH0 PUSH1 0x8 DUP4 MUL PUSH2 0x20C8 PUSH32 0xFFFFFFFFFFFFFFFFFFFFFFFFFFFFFFFFFFFFFFFFFFFFFFFFFFFFFFFFFFFFFFFF DUP3 PUSH2 0x208D JUMP JUMPDEST PUSH2 0x20D2 DUP7 DUP4 PUSH2 0x208D JUMP JUMPDEST SWAP6 POP DUP1 NOT DUP5 AND SWAP4 POP DUP1 DUP7 AND DUP5 OR SWAP3 POP POP POP SWAP4 SWAP3 POP POP POP JUMP JUMPDEST PUSH0 DUP2 SWAP1 POP SWAP2 SWAP1 POP JUMP JUMPDEST PUSH0 PUSH2 0x210D PUSH2 0x2108 PUSH2 0x2103 DUP5 PUSH2 0x1936 JUMP JUMPDEST PUSH2 0x20EA JUMP JUMPDEST PUSH2 0x1936 JUMP JUMPDEST SWAP1 POP SWAP2 SWAP1 POP JUMP JUMPDEST PUSH0 DUP2 SWAP1 POP SWAP2 SWAP1 POP JUMP JUMPDEST PUSH2 0x2126 DUP4 PUSH2 0x20F3 JUMP JUMPDEST PUSH2 0x213A PUSH2 0x2132 DUP3 PUSH2 0x2114 JUMP JUMPDEST DUP5 DUP5 SLOAD PUSH2 0x2099 JUMP JUMPDEST DUP3 SSTORE POP POP POP POP JUMP JUMPDEST PUSH0 SWAP1 JUMP JUMPDEST PUSH2 0x214E PUSH2 0x2142 JUMP JUMPDEST PUSH2 0x2159 DUP2 DUP5 DUP5 PUSH2 0x211D JUMP JUMPDEST POP POP POP JUMP JUMPDEST JUMPDEST DUP2 DUP2 LT ISZERO PUSH2 0x217C JUMPI PUSH2 0x2171 PUSH0 DUP3 PUSH2 0x2146 JUMP JUMPDEST PUSH1 0x1 DUP2 ADD SWAP1 POP PUSH2 0x215F JUMP JUMPDEST POP POP JUMP JUMPDEST PUSH1 0x1F DUP3 GT ISZERO PUSH2 0x21C1 JUMPI PUSH2 0x2192 DUP2 PUSH2 0x206C JUMP JUMPDEST PUSH2 0x219B DUP5 PUSH2 0x207E JUMP JUMPDEST DUP2 ADD PUSH1 0x20 DUP6 LT ISZERO PUSH2 0x21AA JUMPI DUP2 SWAP1 POP JUMPDEST PUSH2 0x21BE PUSH2 0x21B6 DUP6 PUSH2 0x207E JUMP JUMPDEST DUP4 ADD DUP3 PUSH2 0x215E JUMP JUMPDEST POP POP JUMPDEST POP POP POP JUMP JUMPDEST PUSH0 DUP3 DUP3 SHR SWAP1 POP SWAP3 SWAP2 POP POP JUMP JUMPDEST PUSH0 PUSH2 0x21E1 PUSH0 NOT DUP5 PUSH1 0x8 MUL PUSH2 0x21C6 JUMP JUMPDEST NOT DUP1 DUP4 AND SWAP2 POP POP SWAP3 SWAP2 POP POP JUMP JUMPDEST PUSH0 PUSH2 0x21F9 DUP4 DUP4 PUSH2 0x21D2 JUMP JUMPDEST SWAP2 POP DUP3 PUSH1 0x2 MUL DUP3 OR SWAP1 POP SWAP3 SWAP2 POP POP JUMP JUMPDEST PUSH2 0x2212 DUP3 PUSH2 0x188C JUMP JUMPDEST PUSH8 0xFFFFFFFFFFFFFFFF DUP2 GT ISZERO PUSH2 0x222B JUMPI PUSH2 0x222A PUSH2 0x1B67 JUMP JUMPDEST JUMPDEST PUSH2 0x2235 DUP3 SLOAD PUSH2 0x1E5B JUMP JUMPDEST PUSH2 0x2240 DUP3 DUP3 DUP6 PUSH2 0x2180 JUMP JUMPDEST PUSH0 PUSH1 0x20 SWAP1 POP PUSH1 0x1F DUP4 GT PUSH1 0x1 DUP2 EQ PUSH2 0x2271 JUMPI PUSH0 DUP5 ISZERO PUSH2 0x225F JUMPI DUP3 DUP8 ADD MLOAD SWAP1 POP JUMPDEST PUSH2 0x2269 DUP6 DUP3 PUSH2 0x21EE JUMP JUMPDEST DUP7 SSTORE POP PUSH2 0x22D0 JUMP JUMPDEST PUSH1 0x1F NOT DUP5 AND PUSH2 0x227F DUP7 PUSH2 0x206C JUMP JUMPDEST PUSH0 JUMPDEST DUP3 DUP2 LT ISZERO PUSH2 0x22A6 JUMPI DUP5 DUP10 ADD MLOAD DUP3 SSTORE PUSH1 0x1 DUP3 ADD SWAP2 POP PUSH1 0x20 DUP6 ADD SWAP5 POP PUSH1 0x20 DUP2 ADD SWAP1 POP PUSH2 0x2281 JUMP JUMPDEST DUP7 DUP4 LT ISZERO PUSH2 0x22C3 JUMPI DUP5 DUP10 ADD MLOAD PUSH2 0x22BF PUSH1 0x1F DUP10 AND DUP3 PUSH2 0x21D2 JUMP JUMPDEST DUP4 SSTORE POP JUMPDEST PUSH1 0x1 PUSH1 0x2 DUP9 MUL ADD DUP9 SSTORE POP POP POP JUMPDEST POP POP POP POP POP POP JUMP JUMPDEST PUSH0 PUSH1 0x40 DUP3 ADD SWAP1 POP PUSH2 0x22EB PUSH0 DUP4 ADD DUP6 PUSH2 0x19C4 JUMP JUMPDEST PUSH2 0x22F8 PUSH1 0x20 DUP4 ADD DUP5 PUSH2 0x1ACF JUMP JUMPDEST SWAP4 SWAP3 POP POP POP JUMP JUMPDEST PUSH32 0x4E487B7100000000000000000000000000000000000000000000000000000000 PUSH0 MSTORE PUSH1 0x12 PUSH1 0x4 MSTORE PUSH1 0x24 PUSH0 REVERT INVALID LOG2 PUSH5 0x6970667358 0x22 SLT KECCAK256 0xD2 0xE6 SELFDESTRUCT 0xB4 RETURNDATACOPY XOR PC 0xA6 0xDD STATICCALL BASEFEE 0xAE DUP7 PUSH29 0xF9CBB7E49452B5022155F4EB02B7C827B7FE64736F6C63430008160033 "
				},
				"gasEstimates": {
					"creation": {
						"codeDepositCost": "1811600",
						"executionCost": "infinite",
						"totalCost": "infinite"
					},
					"external": {
						"approve(address,uint256)": "infinite",
						"balanceOf(address)": "infinite",
						"getApproved(uint256)": "infinite",
						"isApprovedForAll(address,address)": "infinite",
						"mint(string)": "infinite",
						"name()": "infinite",
						"ownerOf(uint256)": "infinite",
						"safeTransferFrom(address,address,uint256)": "infinite",
						"safeTransferFrom(address,address,uint256,bytes)": "infinite",
						"setApprovalForAll(address,bool)": "infinite",
						"supportsInterface(bytes4)": "881",
						"symbol()": "infinite",
						"tokenURI(uint256)": "infinite",
						"transferFrom(address,address,uint256)": "infinite"
					}
				},
				"methodIdentifiers": {
					"approve(address,uint256)": "095ea7b3",
					"balanceOf(address)": "70a08231",
					"getApproved(uint256)": "081812fc",
					"isApprovedForAll(address,address)": "e985e9c5",
					"mint(string)": "d85d3d27",
					"name()": "06fdde03",
					"ownerOf(uint256)": "6352211e",
					"safeTransferFrom(address,address,uint256)": "42842e0e",
					"safeTransferFrom(address,address,uint256,bytes)": "b88d4fde",
					"setApprovalForAll(address,bool)": "a22cb465",
					"supportsInterface(bytes4)": "01ffc9a7",
					"symbol()": "95d89b41",
					"tokenURI(uint256)": "c87b56dd",
					"transferFrom(address,address,uint256)": "23b872dd"
				}
			},
			"storageLayout": {
				"storage": [
					{
						"astId": 201,
						"contract": "contracts/Marketplace_Simple.sol:BoredPetsNFT",
						"label": "_name",
						"offset": 0,
						"slot": "0",
						"type": "t_string_storage"
					},
					{
						"astId": 203,
						"contract": "contracts/Marketplace_Simple.sol:BoredPetsNFT",
						"label": "_symbol",
						"offset": 0,
						"slot": "1",
						"type": "t_string_storage"
					},
					{
						"astId": 207,
						"contract": "contracts/Marketplace_Simple.sol:BoredPetsNFT",
						"label": "_owners",
						"offset": 0,
						"slot": "2",
						"type": "t_mapping(t_uint256,t_address)"
					},
					{
						"astId": 211,
						"contract": "contracts/Marketplace_Simple.sol:BoredPetsNFT",
						"label": "_balances",
						"offset": 0,
						"slot": "3",
						"type": "t_mapping(t_address,t_uint256)"
					},
					{
						"astId": 215,
						"contract": "contracts/Marketplace_Simple.sol:BoredPetsNFT",
						"label": "_tokenApprovals",
						"offset": 0,
						"slot": "4",
						"type": "t_mapping(t_uint256,t_address)"
					},
					{
						"astId": 221,
						"contract": "contracts/Marketplace_Simple.sol:BoredPetsNFT",
						"label": "_operatorApprovals",
						"offset": 0,
						"slot": "5",
						"type": "t_mapping(t_address,t_mapping(t_address,t_bool))"
					},
					{
						"astId": 1340,
						"contract": "contracts/Marketplace_Simple.sol:BoredPetsNFT",
						"label": "_tokenURIs",
						"offset": 0,
						"slot": "6",
						"type": "t_mapping(t_uint256,t_string_storage)"
					},
					{
						"astId": 2946,
						"contract": "contracts/Marketplace_Simple.sol:BoredPetsNFT",
						"label": "_tokenIds",
						"offset": 0,
						"slot": "7",
						"type": "t_uint256"
					},
					{
						"astId": 2948,
						"contract": "contracts/Marketplace_Simple.sol:BoredPetsNFT",
						"label": "marketplaceContract",
						"offset": 0,
						"slot": "8",
						"type": "t_address"
					}
				],
				"types": {
					"t_address": {
						"encoding": "inplace",
						"label": "address",
						"numberOfBytes": "20"
					},
					"t_bool": {
						"encoding": "inplace",
						"label": "bool",
						"numberOfBytes": "1"
					},
					"t_mapping(t_address,t_bool)": {
						"encoding": "mapping",
						"key": "t_address",
						"label": "mapping(address => bool)",
						"numberOfBytes": "32",
						"value": "t_bool"
					},
					"t_mapping(t_address,t_mapping(t_address,t_bool))": {
						"encoding": "mapping",
						"key": "t_address",
						"label": "mapping(address => mapping(address => bool))",
						"numberOfBytes": "32",
						"value": "t_mapping(t_address,t_bool)"
					},
					"t_mapping(t_address,t_uint256)": {
						"encoding": "mapping",
						"key": "t_address",
						"label": "mapping(address => uint256)",
						"numberOfBytes": "32",
						"value": "t_uint256"
					},
					"t_mapping(t_uint256,t_address)": {
						"encoding": "mapping",
						"key": "t_uint256",
						"label": "mapping(uint256 => address)",
						"numberOfBytes": "32",
						"value": "t_address"
					},
					"t_mapping(t_uint256,t_string_storage)": {
						"encoding": "mapping",
						"key": "t_uint256",
						"label": "mapping(uint256 => string)",
						"numberOfBytes": "32",
						"value": "t_string_storage"
					},
					"t_string_storage": {
						"encoding": "bytes",
						"label": "string",
						"numberOfBytes": "32"
					},
					"t_uint256": {
						"encoding": "inplace",
						"label": "uint256",
						"numberOfBytes": "32"
					}
				}
			},
			"userdoc": {
				"kind": "user",
				"methods": {},
				"version": 1
			}
		}
	}
}