{
  "contractName": "ClubBlockchainers",
  "abi": [
    {
      "inputs": [
        {
          "internalType": "address",
          "name": "_marketplaceContract",
          "type": "address"
        }
      ],
      "stateMutability": "nonpayable",
      "type": "constructor"
    },
    {
      "inputs": [
        {
          "internalType": "address",
          "name": "sender",
          "type": "address"
        },
        {
          "internalType": "uint256",
          "name": "tokenId",
          "type": "uint256"
        },
        {
          "internalType": "address",
          "name": "owner",
          "type": "address"
        }
      ],
      "name": "ERC721IncorrectOwner",
      "type": "error"
    },
    {
      "inputs": [
        {
          "internalType": "address",
          "name": "operator",
          "type": "address"
        },
        {
          "internalType": "uint256",
          "name": "tokenId",
          "type": "uint256"
        }
      ],
      "name": "ERC721InsufficientApproval",
      "type": "error"
    },
    {
      "inputs": [
        {
          "internalType": "address",
          "name": "approver",
          "type": "address"
        }
      ],
      "name": "ERC721InvalidApprover",
      "type": "error"
    },
    {
      "inputs": [
        {
          "internalType": "address",
          "name": "operator",
          "type": "address"
        }
      ],
      "name": "ERC721InvalidOperator",
      "type": "error"
    },
    {
      "inputs": [
        {
          "internalType": "address",
          "name": "owner",
          "type": "address"
        }
      ],
      "name": "ERC721InvalidOwner",
      "type": "error"
    },
    {
      "inputs": [
        {
          "internalType": "address",
          "name": "receiver",
          "type": "address"
        }
      ],
      "name": "ERC721InvalidReceiver",
      "type": "error"
    },
    {
      "inputs": [
        {
          "internalType": "address",
          "name": "sender",
          "type": "address"
        }
      ],
      "name": "ERC721InvalidSender",
      "type": "error"
    },
    {
      "inputs": [
        {
          "internalType": "uint256",
          "name": "tokenId",
          "type": "uint256"
        }
      ],
      "name": "ERC721NonexistentToken",
      "type": "error"
    },
    {
      "anonymous": false,
      "inputs": [
        {
          "indexed": true,
          "internalType": "address",
          "name": "owner",
          "type": "address"
        },
        {
          "indexed": true,
          "internalType": "address",
          "name": "approved",
          "type": "address"
        },
        {
          "indexed": true,
          "internalType": "uint256",
          "name": "tokenId",
          "type": "uint256"
        }
      ],
      "name": "Approval",
      "type": "event"
    },
    {
      "anonymous": false,
      "inputs": [
        {
          "indexed": true,
          "internalType": "address",
          "name": "owner",
          "type": "address"
        },
        {
          "indexed": true,
          "internalType": "address",
          "name": "operator",
          "type": "address"
        },
        {
          "indexed": false,
          "internalType": "bool",
          "name": "approved",
          "type": "bool"
        }
      ],
      "name": "ApprovalForAll",
      "type": "event"
    },
    {
      "anonymous": false,
      "inputs": [
        {
          "indexed": false,
          "internalType": "uint256",
          "name": "_fromTokenId",
          "type": "uint256"
        },
        {
          "indexed": false,
          "internalType": "uint256",
          "name": "_toTokenId",
          "type": "uint256"
        }
      ],
      "name": "BatchMetadataUpdate",
      "type": "event"
    },
    {
      "anonymous": false,
      "inputs": [
        {
          "indexed": false,
          "internalType": "uint256",
          "name": "_tokenId",
          "type": "uint256"
        }
      ],
      "name": "MetadataUpdate",
      "type": "event"
    },
    {
      "anonymous": false,
      "inputs": [
        {
          "indexed": false,
          "internalType": "uint256",
          "name": "",
          "type": "uint256"
        }
      ],
      "name": "NFTMinted",
      "type": "event"
    },
    {
      "anonymous": false,
      "inputs": [
        {
          "indexed": true,
          "internalType": "address",
          "name": "from",
          "type": "address"
        },
        {
          "indexed": true,
          "internalType": "address",
          "name": "to",
          "type": "address"
        },
        {
          "indexed": true,
          "internalType": "uint256",
          "name": "tokenId",
          "type": "uint256"
        }
      ],
      "name": "Transfer",
      "type": "event"
    },
    {
      "inputs": [
        {
          "internalType": "address",
          "name": "to",
          "type": "address"
        },
        {
          "internalType": "uint256",
          "name": "tokenId",
          "type": "uint256"
        }
      ],
      "name": "approve",
      "outputs": [],
      "stateMutability": "nonpayable",
      "type": "function"
    },
    {
      "inputs": [
        {
          "internalType": "address",
          "name": "owner",
          "type": "address"
        }
      ],
      "name": "balanceOf",
      "outputs": [
        {
          "internalType": "uint256",
          "name": "",
          "type": "uint256"
        }
      ],
      "stateMutability": "view",
      "type": "function"
    },
    {
      "inputs": [
        {
          "internalType": "uint256",
          "name": "tokenId",
          "type": "uint256"
        }
      ],
      "name": "getApproved",
      "outputs": [
        {
          "internalType": "address",
          "name": "",
          "type": "address"
        }
      ],
      "stateMutability": "view",
      "type": "function"
    },
    {
      "inputs": [
        {
          "internalType": "address",
          "name": "owner",
          "type": "address"
        },
        {
          "internalType": "address",
          "name": "operator",
          "type": "address"
        }
      ],
      "name": "isApprovedForAll",
      "outputs": [
        {
          "internalType": "bool",
          "name": "",
          "type": "bool"
        }
      ],
      "stateMutability": "view",
      "type": "function"
    },
    {
      "inputs": [],
      "name": "name",
      "outputs": [
        {
          "internalType": "string",
          "name": "",
          "type": "string"
        }
      ],
      "stateMutability": "view",
      "type": "function"
    },
    {
      "inputs": [
        {
          "internalType": "uint256",
          "name": "tokenId",
          "type": "uint256"
        }
      ],
      "name": "ownerOf",
      "outputs": [
        {
          "internalType": "address",
          "name": "",
          "type": "address"
        }
      ],
      "stateMutability": "view",
      "type": "function"
    },
    {
      "inputs": [
        {
          "internalType": "address",
          "name": "from",
          "type": "address"
        },
        {
          "internalType": "address",
          "name": "to",
          "type": "address"
        },
        {
          "internalType": "uint256",
          "name": "tokenId",
          "type": "uint256"
        }
      ],
      "name": "safeTransferFrom",
      "outputs": [],
      "stateMutability": "nonpayable",
      "type": "function"
    },
    {
      "inputs": [
        {
          "internalType": "address",
          "name": "from",
          "type": "address"
        },
        {
          "internalType": "address",
          "name": "to",
          "type": "address"
        },
        {
          "internalType": "uint256",
          "name": "tokenId",
          "type": "uint256"
        },
        {
          "internalType": "bytes",
          "name": "data",
          "type": "bytes"
        }
      ],
      "name": "safeTransferFrom",
      "outputs": [],
      "stateMutability": "nonpayable",
      "type": "function"
    },
    {
      "inputs": [
        {
          "internalType": "address",
          "name": "operator",
          "type": "address"
        },
        {
          "internalType": "bool",
          "name": "approved",
          "type": "bool"
        }
      ],
      "name": "setApprovalForAll",
      "outputs": [],
      "stateMutability": "nonpayable",
      "type": "function"
    },
    {
      "inputs": [
        {
          "internalType": "bytes4",
          "name": "interfaceId",
          "type": "bytes4"
        }
      ],
      "name": "supportsInterface",
      "outputs": [
        {
          "internalType": "bool",
          "name": "",
          "type": "bool"
        }
      ],
      "stateMutability": "view",
      "type": "function"
    },
    {
      "inputs": [],
      "name": "symbol",
      "outputs": [
        {
          "internalType": "string",
          "name": "",
          "type": "string"
        }
      ],
      "stateMutability": "view",
      "type": "function"
    },
    {
      "inputs": [
        {
          "internalType": "uint256",
          "name": "tokenId",
          "type": "uint256"
        }
      ],
      "name": "tokenURI",
      "outputs": [
        {
          "internalType": "string",
          "name": "",
          "type": "string"
        }
      ],
      "stateMutability": "view",
      "type": "function"
    },
    {
      "inputs": [
        {
          "internalType": "address",
          "name": "from",
          "type": "address"
        },
        {
          "internalType": "address",
          "name": "to",
          "type": "address"
        },
        {
          "internalType": "uint256",
          "name": "tokenId",
          "type": "uint256"
        }
      ],
      "name": "transferFrom",
      "outputs": [],
      "stateMutability": "nonpayable",
      "type": "function"
    },
    {
      "inputs": [
        {
          "internalType": "string",
          "name": "_tokenURI",
          "type": "string"
        }
      ],
      "name": "mint",
      "outputs": [],
      "stateMutability": "nonpayable",
      "type": "function"
    }
  ],
  "bytecode": "0x608060405234801562000010575f80fd5b506040516200285b3803806200285b833981810160405281019062000036919062000173565b6040518060400160405280601281526020017f436c756220426c6f636b636861696e65727300000000000000000000000000008152506040518060400160405280600281526020017f4342000000000000000000000000000000000000000000000000000000000000815250815f9081620000b2919062000407565b508060019081620000c4919062000407565b5050508060085f6101000a81548173ffffffffffffffffffffffffffffffffffffffff021916908373ffffffffffffffffffffffffffffffffffffffff16021790555050620004eb565b5f80fd5b5f73ffffffffffffffffffffffffffffffffffffffff82169050919050565b5f6200013d8262000112565b9050919050565b6200014f8162000131565b81146200015a575f80fd5b50565b5f815190506200016d8162000144565b92915050565b5f602082840312156200018b576200018a6200010e565b5b5f6200019a848285016200015d565b91505092915050565b5f81519050919050565b7f4e487b71000000000000000000000000000000000000000000000000000000005f52604160045260245ffd5b7f4e487b71000000000000000000000000000000000000000000000000000000005f52602260045260245ffd5b5f60028204905060018216806200021f57607f821691505b602082108103620002355762000234620001da565b5b50919050565b5f819050815f5260205f209050919050565b5f6020601f8301049050919050565b5f82821b905092915050565b5f60088302620002997fffffffffffffffffffffffffffffffffffffffffffffffffffffffffffffffff826200025c565b620002a586836200025c565b95508019841693508086168417925050509392505050565b5f819050919050565b5f819050919050565b5f620002ef620002e9620002e384620002bd565b620002c6565b620002bd565b9050919050565b5f819050919050565b6200030a83620002cf565b620003226200031982620002f6565b84845462000268565b825550505050565b5f90565b620003386200032a565b62000345818484620002ff565b505050565b5b818110156200036c57620003605f826200032e565b6001810190506200034b565b5050565b601f821115620003bb5762000385816200023b565b62000390846200024d565b81016020851015620003a0578190505b620003b8620003af856200024d565b8301826200034a565b50505b505050565b5f82821c905092915050565b5f620003dd5f1984600802620003c0565b1980831691505092915050565b5f620003f78383620003cc565b9150826002028217905092915050565b6200041282620001a3565b67ffffffffffffffff8111156200042e576200042d620001ad565b5b6200043a825462000207565b6200044782828562000370565b5f60209050601f8311600181146200047d575f841562000468578287015190505b620004748582620003ea565b865550620004e3565b601f1984166200048d866200023b565b5f5b82811015620004b6578489015182556001820191506020850194506020810190506200048f565b86831015620004d65784890151620004d2601f891682620003cc565b8355505b6001600288020188555050505b505050505050565b61236280620004f95f395ff3fe608060405234801561000f575f80fd5b50600436106100e8575f3560e01c806370a082311161008a578063b88d4fde11610064578063b88d4fde14610258578063c87b56dd14610274578063d85d3d27146102a4578063e985e9c5146102c0576100e8565b806370a08231146101ee57806395d89b411461021e578063a22cb4651461023c576100e8565b8063095ea7b3116100c6578063095ea7b31461016a57806323b872dd1461018657806342842e0e146101a25780636352211e146101be576100e8565b806301ffc9a7146100ec57806306fdde031461011c578063081812fc1461013a575b5f80fd5b6101066004803603810190610101919061182e565b6102f0565b6040516101139190611873565b60405180910390f35b610124610350565b6040516101319190611916565b60405180910390f35b610154600480360381019061014f9190611969565b6103df565b60405161016191906119d3565b60405180910390f35b610184600480360381019061017f9190611a16565b6103fa565b005b6101a0600480360381019061019b9190611a54565b610410565b005b6101bc60048036038101906101b79190611a54565b61050f565b005b6101d860048036038101906101d39190611969565b61052e565b6040516101e591906119d3565b60405180910390f35b61020860048036038101906102039190611aa4565b61053f565b6040516102159190611ade565b60405180910390f35b6102266105f5565b6040516102339190611916565b60405180910390f35b61025660048036038101906102519190611b21565b610685565b005b610272600480360381019061026d9190611c8b565b61069b565b005b61028e60048036038101906102899190611969565b6106b8565b60405161029b9190611916565b60405180910390f35b6102be60048036038101906102b99190611da9565b6107c3565b005b6102da60048036038101906102d59190611df0565b61085b565b6040516102e79190611873565b60405180910390f35b5f634906490660e01b7bffffffffffffffffffffffffffffffffffffffffffffffffffffffff1916827bffffffffffffffffffffffffffffffffffffffffffffffffffffffff191614806103495750610348826108e9565b5b9050919050565b60605f805461035e90611e5b565b80601f016020809104026020016040519081016040528092919081815260200182805461038a90611e5b565b80156103d55780601f106103ac576101008083540402835291602001916103d5565b820191905f5260205f20905b8154815290600101906020018083116103b857829003601f168201915b5050505050905090565b5f6103e9826109ca565b506103f382610a50565b9050919050565b61040c8282610407610a89565b610a90565b5050565b5f73ffffffffffffffffffffffffffffffffffffffff168273ffffffffffffffffffffffffffffffffffffffff1603610480575f6040517f64a0ae9200000000000000000000000000000000000000000000000000000000815260040161047791906119d3565b60405180910390fd5b5f610493838361048e610a89565b610aa2565b90508373ffffffffffffffffffffffffffffffffffffffff168173ffffffffffffffffffffffffffffffffffffffff1614610509578382826040517f64283d7b00000000000000000000000000000000000000000000000000000000815260040161050093929190611e8b565b60405180910390fd5b50505050565b61052983838360405180602001604052805f81525061069b565b505050565b5f610538826109ca565b9050919050565b5f8073ffffffffffffffffffffffffffffffffffffffff168273ffffffffffffffffffffffffffffffffffffffff16036105b0575f6040517f89c62b640000000000000000000000000000000000000000000000000000000081526004016105a791906119d3565b60405180910390fd5b60035f8373ffffffffffffffffffffffffffffffffffffffff1673ffffffffffffffffffffffffffffffffffffffff1681526020019081526020015f20549050919050565b60606001805461060490611e5b565b80601f016020809104026020016040519081016040528092919081815260200182805461063090611e5b565b801561067b5780601f106106525761010080835404028352916020019161067b565b820191905f5260205f20905b81548152906001019060200180831161065e57829003601f168201915b5050505050905090565b610697610690610a89565b8383610cad565b5050565b6106a6848484610410565b6106b284848484610e16565b50505050565b60606106c3826109ca565b505f60065f8481526020019081526020015f2080546106e190611e5b565b80601f016020809104026020016040519081016040528092919081815260200182805461070d90611e5b565b80156107585780601f1061072f57610100808354040283529160200191610758565b820191905f5260205f20905b81548152906001019060200180831161073b57829003601f168201915b505050505090505f610768610fc8565b90505f81510361077c5781925050506107be565b5f825111156107b0578082604051602001610798929190611efa565b604051602081830303815290604052925050506107be565b6107b984610fde565b925050505b919050565b60075f8154809291906107d590611f4a565b91905055505f60075490506107ea3382611044565b6107f48183611061565b61082060085f9054906101000a900473ffffffffffffffffffffffffffffffffffffffff166001610685565b7fd9dc24857f317ed9abbbb42e920ede0104231eb1d3d70236a74887ffaf1598688160405161084f9190611ade565b60405180910390a15050565b5f60055f8473ffffffffffffffffffffffffffffffffffffffff1673ffffffffffffffffffffffffffffffffffffffff1681526020019081526020015f205f8373ffffffffffffffffffffffffffffffffffffffff1673ffffffffffffffffffffffffffffffffffffffff1681526020019081526020015f205f9054906101000a900460ff16905092915050565b5f7f80ac58cd000000000000000000000000000000000000000000000000000000007bffffffffffffffffffffffffffffffffffffffffffffffffffffffff1916827bffffffffffffffffffffffffffffffffffffffffffffffffffffffff191614806109b357507f5b5e139f000000000000000000000000000000000000000000000000000000007bffffffffffffffffffffffffffffffffffffffffffffffffffffffff1916827bffffffffffffffffffffffffffffffffffffffffffffffffffffffff1916145b806109c357506109c2826110bb565b5b9050919050565b5f806109d583611124565b90505f73ffffffffffffffffffffffffffffffffffffffff168173ffffffffffffffffffffffffffffffffffffffff1603610a4757826040517f7e273289000000000000000000000000000000000000000000000000000000008152600401610a3e9190611ade565b60405180910390fd5b80915050919050565b5f60045f8381526020019081526020015f205f9054906101000a900473ffffffffffffffffffffffffffffffffffffffff169050919050565b5f33905090565b610a9d838383600161115d565b505050565b5f80610aad84611124565b90505f73ffffffffffffffffffffffffffffffffffffffff168373ffffffffffffffffffffffffffffffffffffffff1614610aee57610aed81848661131c565b5b5f73ffffffffffffffffffffffffffffffffffffffff168173ffffffffffffffffffffffffffffffffffffffff1614610b7957610b2d5f855f8061115d565b600160035f8373ffffffffffffffffffffffffffffffffffffffff1673ffffffffffffffffffffffffffffffffffffffff1681526020019081526020015f205f82825403925050819055505b5f73ffffffffffffffffffffffffffffffffffffffff168573ffffffffffffffffffffffffffffffffffffffff1614610bf857600160035f8773ffffffffffffffffffffffffffffffffffffffff1673ffffffffffffffffffffffffffffffffffffffff1681526020019081526020015f205f82825401925050819055505b8460025f8681526020019081526020015f205f6101000a81548173ffffffffffffffffffffffffffffffffffffffff021916908373ffffffffffffffffffffffffffffffffffffffff160217905550838573ffffffffffffffffffffffffffffffffffffffff168273ffffffffffffffffffffffffffffffffffffffff167fddf252ad1be2c89b69c2b068fc378daa952ba7f163c4a11628f55a4df523b3ef60405160405180910390a4809150509392505050565b5f73ffffffffffffffffffffffffffffffffffffffff168273ffffffffffffffffffffffffffffffffffffffff1603610d1d57816040517f5b08ba18000000000000000000000000000000000000000000000000000000008152600401610d1491906119d3565b60405180910390fd5b8060055f8573ffffffffffffffffffffffffffffffffffffffff1673ffffffffffffffffffffffffffffffffffffffff1681526020019081526020015f205f8473ffffffffffffffffffffffffffffffffffffffff1673ffffffffffffffffffffffffffffffffffffffff1681526020019081526020015f205f6101000a81548160ff0219169083151502179055508173ffffffffffffffffffffffffffffffffffffffff168373ffffffffffffffffffffffffffffffffffffffff167f17307eab39ab6107e8899845ad3d59bd9653f200f220920489ca2b5937696c3183604051610e099190611873565b60405180910390a3505050565b5f8373ffffffffffffffffffffffffffffffffffffffff163b1115610fc2578273ffffffffffffffffffffffffffffffffffffffff1663150b7a02610e59610a89565b8685856040518563ffffffff1660e01b8152600401610e7b9493929190611fe3565b6020604051808303815f875af1925050508015610eb657506040513d601f19601f82011682018060405250810190610eb39190612041565b60015b610f37573d805f8114610ee4576040519150601f19603f3d011682016040523d82523d5f602084013e610ee9565b606091505b505f815103610f2f57836040517f64a0ae92000000000000000000000000000000000000000000000000000000008152600401610f2691906119d3565b60405180910390fd5b805181602001fd5b63150b7a0260e01b7bffffffffffffffffffffffffffffffffffffffffffffffffffffffff1916817bffffffffffffffffffffffffffffffffffffffffffffffffffffffff191614610fc057836040517f64a0ae92000000000000000000000000000000000000000000000000000000008152600401610fb791906119d3565b60405180910390fd5b505b50505050565b606060405180602001604052805f815250905090565b6060610fe9826109ca565b505f610ff3610fc8565b90505f8151116110115760405180602001604052805f81525061103c565b8061101b846113df565b60405160200161102c929190611efa565b6040516020818303038152906040525b915050919050565b61105d828260405180602001604052805f8152506114a9565b5050565b8060065f8481526020019081526020015f20908161107f9190612209565b507ff8e1a15aba9398e019f0b49df1a4fde98ee17ae345cb5f6b5e2c27f5033e8ce7826040516110af9190611ade565b60405180910390a15050565b5f7f01ffc9a7000000000000000000000000000000000000000000000000000000007bffffffffffffffffffffffffffffffffffffffffffffffffffffffff1916827bffffffffffffffffffffffffffffffffffffffffffffffffffffffff1916149050919050565b5f60025f8381526020019081526020015f205f9054906101000a900473ffffffffffffffffffffffffffffffffffffffff169050919050565b808061119557505f73ffffffffffffffffffffffffffffffffffffffff168273ffffffffffffffffffffffffffffffffffffffff1614155b156112c7575f6111a4846109ca565b90505f73ffffffffffffffffffffffffffffffffffffffff168373ffffffffffffffffffffffffffffffffffffffff161415801561120e57508273ffffffffffffffffffffffffffffffffffffffff168173ffffffffffffffffffffffffffffffffffffffff1614155b8015611221575061121f818461085b565b155b1561126357826040517fa9fbf51f00000000000000000000000000000000000000000000000000000000815260040161125a91906119d3565b60405180910390fd5b81156112c557838573ffffffffffffffffffffffffffffffffffffffff168273ffffffffffffffffffffffffffffffffffffffff167f8c5be1e5ebec7d5bd14f71427d1e84f3dd0314c0f7b2291e5b200ac8c7c3b92560405160405180910390a45b505b8360045f8581526020019081526020015f205f6101000a81548173ffffffffffffffffffffffffffffffffffffffff021916908373ffffffffffffffffffffffffffffffffffffffff16021790555050505050565b6113278383836114c4565b6113da575f73ffffffffffffffffffffffffffffffffffffffff168373ffffffffffffffffffffffffffffffffffffffff160361139b57806040517f7e2732890000000000000000000000000000000000000000000000000000000081526004016113929190611ade565b60405180910390fd5b81816040517f177e802f0000000000000000000000000000000000000000000000000000000081526004016113d19291906122d8565b60405180910390fd5b505050565b60605f60016113ed84611584565b0190505f8167ffffffffffffffff81111561140b5761140a611b67565b5b6040519080825280601f01601f19166020018201604052801561143d5781602001600182028036833780820191505090505b5090505f82602001820190505b60011561149e578080600190039150507f3031323334353637383961626364656600000000000000000000000000000000600a86061a8153600a8581611493576114926122ff565b5b0494505f850361144a575b819350505050919050565b6114b383836116d5565b6114bf5f848484610e16565b505050565b5f8073ffffffffffffffffffffffffffffffffffffffff168373ffffffffffffffffffffffffffffffffffffffff161415801561157b57508273ffffffffffffffffffffffffffffffffffffffff168473ffffffffffffffffffffffffffffffffffffffff16148061153c575061153b848461085b565b5b8061157a57508273ffffffffffffffffffffffffffffffffffffffff1661156283610a50565b73ffffffffffffffffffffffffffffffffffffffff16145b5b90509392505050565b5f805f90507a184f03e93ff9f4daa797ed6e38ed64bf6a1f01000000000000000083106115e0577a184f03e93ff9f4daa797ed6e38ed64bf6a1f01000000000000000083816115d6576115d56122ff565b5b0492506040810190505b6d04ee2d6d415b85acef8100000000831061161d576d04ee2d6d415b85acef81000000008381611613576116126122ff565b5b0492506020810190505b662386f26fc10000831061164c57662386f26fc100008381611642576116416122ff565b5b0492506010810190505b6305f5e1008310611675576305f5e100838161166b5761166a6122ff565b5b0492506008810190505b612710831061169a5761271083816116905761168f6122ff565b5b0492506004810190505b606483106116bd57606483816116b3576116b26122ff565b5b0492506002810190505b600a83106116cc576001810190505b80915050919050565b5f73ffffffffffffffffffffffffffffffffffffffff168273ffffffffffffffffffffffffffffffffffffffff1603611745575f6040517f64a0ae9200000000000000000000000000000000000000000000000000000000815260040161173c91906119d3565b60405180910390fd5b5f61175183835f610aa2565b90505f73ffffffffffffffffffffffffffffffffffffffff168173ffffffffffffffffffffffffffffffffffffffff16146117c3575f6040517f73c6ac6e0000000000000000000000000000000000000000000000000000000081526004016117ba91906119d3565b60405180910390fd5b505050565b5f604051905090565b5f80fd5b5f80fd5b5f7fffffffff0000000000000000000000000000000000000000000000000000000082169050919050565b61180d816117d9565b8114611817575f80fd5b50565b5f8135905061182881611804565b92915050565b5f60208284031215611843576118426117d1565b5b5f6118508482850161181a565b91505092915050565b5f8115159050919050565b61186d81611859565b82525050565b5f6020820190506118865f830184611864565b92915050565b5f81519050919050565b5f82825260208201905092915050565b5f5b838110156118c35780820151818401526020810190506118a8565b5f8484015250505050565b5f601f19601f8301169050919050565b5f6118e88261188c565b6118f28185611896565b93506119028185602086016118a6565b61190b816118ce565b840191505092915050565b5f6020820190508181035f83015261192e81846118de565b905092915050565b5f819050919050565b61194881611936565b8114611952575f80fd5b50565b5f813590506119638161193f565b92915050565b5f6020828403121561197e5761197d6117d1565b5b5f61198b84828501611955565b91505092915050565b5f73ffffffffffffffffffffffffffffffffffffffff82169050919050565b5f6119bd82611994565b9050919050565b6119cd816119b3565b82525050565b5f6020820190506119e65f8301846119c4565b92915050565b6119f5816119b3565b81146119ff575f80fd5b50565b5f81359050611a10816119ec565b92915050565b5f8060408385031215611a2c57611a2b6117d1565b5b5f611a3985828601611a02565b9250506020611a4a85828601611955565b9150509250929050565b5f805f60608486031215611a6b57611a6a6117d1565b5b5f611a7886828701611a02565b9350506020611a8986828701611a02565b9250506040611a9a86828701611955565b9150509250925092565b5f60208284031215611ab957611ab86117d1565b5b5f611ac684828501611a02565b91505092915050565b611ad881611936565b82525050565b5f602082019050611af15f830184611acf565b92915050565b611b0081611859565b8114611b0a575f80fd5b50565b5f81359050611b1b81611af7565b92915050565b5f8060408385031215611b3757611b366117d1565b5b5f611b4485828601611a02565b9250506020611b5585828601611b0d565b9150509250929050565b5f80fd5b5f80fd5b7f4e487b71000000000000000000000000000000000000000000000000000000005f52604160045260245ffd5b611b9d826118ce565b810181811067ffffffffffffffff82111715611bbc57611bbb611b67565b5b80604052505050565b5f611bce6117c8565b9050611bda8282611b94565b919050565b5f67ffffffffffffffff821115611bf957611bf8611b67565b5b611c02826118ce565b9050602081019050919050565b828183375f83830152505050565b5f611c2f611c2a84611bdf565b611bc5565b905082815260208101848484011115611c4b57611c4a611b63565b5b611c56848285611c0f565b509392505050565b5f82601f830112611c7257611c71611b5f565b5b8135611c82848260208601611c1d565b91505092915050565b5f805f8060808587031215611ca357611ca26117d1565b5b5f611cb087828801611a02565b9450506020611cc187828801611a02565b9350506040611cd287828801611955565b925050606085013567ffffffffffffffff811115611cf357611cf26117d5565b5b611cff87828801611c5e565b91505092959194509250565b5f67ffffffffffffffff821115611d2557611d24611b67565b5b611d2e826118ce565b9050602081019050919050565b5f611d4d611d4884611d0b565b611bc5565b905082815260208101848484011115611d6957611d68611b63565b5b611d74848285611c0f565b509392505050565b5f82601f830112611d9057611d8f611b5f565b5b8135611da0848260208601611d3b565b91505092915050565b5f60208284031215611dbe57611dbd6117d1565b5b5f82013567ffffffffffffffff811115611ddb57611dda6117d5565b5b611de784828501611d7c565b91505092915050565b5f8060408385031215611e0657611e056117d1565b5b5f611e1385828601611a02565b9250506020611e2485828601611a02565b9150509250929050565b7f4e487b71000000000000000000000000000000000000000000000000000000005f52602260045260245ffd5b5f6002820490506001821680611e7257607f821691505b602082108103611e8557611e84611e2e565b5b50919050565b5f606082019050611e9e5f8301866119c4565b611eab6020830185611acf565b611eb860408301846119c4565b949350505050565b5f81905092915050565b5f611ed48261188c565b611ede8185611ec0565b9350611eee8185602086016118a6565b80840191505092915050565b5f611f058285611eca565b9150611f118284611eca565b91508190509392505050565b7f4e487b71000000000000000000000000000000000000000000000000000000005f52601160045260245ffd5b5f611f5482611936565b91507fffffffffffffffffffffffffffffffffffffffffffffffffffffffffffffffff8203611f8657611f85611f1d565b5b600182019050919050565b5f81519050919050565b5f82825260208201905092915050565b5f611fb582611f91565b611fbf8185611f9b565b9350611fcf8185602086016118a6565b611fd8816118ce565b840191505092915050565b5f608082019050611ff65f8301876119c4565b61200360208301866119c4565b6120106040830185611acf565b81810360608301526120228184611fab565b905095945050505050565b5f8151905061203b81611804565b92915050565b5f60208284031215612056576120556117d1565b5b5f6120638482850161202d565b91505092915050565b5f819050815f5260205f209050919050565b5f6020601f8301049050919050565b5f82821b905092915050565b5f600883026120c87fffffffffffffffffffffffffffffffffffffffffffffffffffffffffffffffff8261208d565b6120d2868361208d565b95508019841693508086168417925050509392505050565b5f819050919050565b5f61210d61210861210384611936565b6120ea565b611936565b9050919050565b5f819050919050565b612126836120f3565b61213a61213282612114565b848454612099565b825550505050565b5f90565b61214e612142565b61215981848461211d565b505050565b5b8181101561217c576121715f82612146565b60018101905061215f565b5050565b601f8211156121c1576121928161206c565b61219b8461207e565b810160208510156121aa578190505b6121be6121b68561207e565b83018261215e565b50505b505050565b5f82821c905092915050565b5f6121e15f19846008026121c6565b1980831691505092915050565b5f6121f983836121d2565b9150826002028217905092915050565b6122128261188c565b67ffffffffffffffff81111561222b5761222a611b67565b5b6122358254611e5b565b612240828285612180565b5f60209050601f831160018114612271575f841561225f578287015190505b61226985826121ee565b8655506122d0565b601f19841661227f8661206c565b5f5b828110156122a657848901518255600182019150602085019450602081019050612281565b868310156122c357848901516122bf601f8916826121d2565b8355505b6001600288020188555050505b505050505050565b5f6040820190506122eb5f8301856119c4565b6122f86020830184611acf565b9392505050565b7f4e487b71000000000000000000000000000000000000000000000000000000005f52601260045260245ffdfea2646970667358221220f4e1d526991e1d81f71e2d06fbcba0ea92a2b83a94728b580165eb041f535b7e64736f6c63430008140033",
  "immutableReferences": {},
  "source": "// SPDX-License-Identifier: MIT\r\npragma solidity ^0.8.13;\r\n\r\nimport \"@openzeppelin/contracts/token/ERC721/ERC721.sol\";\r\nimport \"@openzeppelin/contracts/token/ERC721/extensions/ERC721URIStorage.sol\";\r\n\r\ncontract ClubBlockchainers is ERC721URIStorage {\r\n  uint256 private _tokenIds;\r\n  address marketplaceContract;\r\n  event NFTMinted(uint256);\r\n\r\n  constructor(address _marketplaceContract) ERC721(\"Club Blockchainers\", \"CB\") {\r\n    marketplaceContract = _marketplaceContract;\r\n  }\r\n\r\n  function mint(string memory _tokenURI) public {\r\n    _tokenIds++;\r\n    uint256 newTokenId = _tokenIds;\r\n    _safeMint(msg.sender, newTokenId);\r\n    _setTokenURI(newTokenId, _tokenURI);\r\n    setApprovalForAll(marketplaceContract, true);\r\n    emit NFTMinted(newTokenId);\r\n  }\r\n}\r\n",
  "sourcePath": "C:\\Users\\dbbal\\Desktop\\Singapore\\blockchain\\DAPP-Blockchainers\\contracts\\ClubBlockchainers.sol",
  "compiler": {
    "name": "solc",
    "version": "0.8.20+commit.a1b79de6.Emscripten.clang"
  },
  "schemaVersion": "3.4.16",
  "updatedAt": "2023-12-04T10:48:54.777Z",
  "devdoc": {
    "errors": {
      "ERC721IncorrectOwner(address,uint256,address)": [
        {
          "details": "Indicates an error related to the ownership over a particular token. Used in transfers.",
          "params": {
            "owner": "Address of the current owner of a token.",
            "sender": "Address whose tokens are being transferred.",
            "tokenId": "Identifier number of a token."
          }
        }
      ],
      "ERC721InsufficientApproval(address,uint256)": [
        {
          "details": "Indicates a failure with the `operator`s approval. Used in transfers.",
          "params": {
            "operator": "Address that may be allowed to operate on tokens without being their owner.",
            "tokenId": "Identifier number of a token."
          }
        }
      ],
      "ERC721InvalidApprover(address)": [
        {
          "details": "Indicates a failure with the `approver` of a token to be approved. Used in approvals.",
          "params": {
            "approver": "Address initiating an approval operation."
          }
        }
      ],
      "ERC721InvalidOperator(address)": [
        {
          "details": "Indicates a failure with the `operator` to be approved. Used in approvals.",
          "params": {
            "operator": "Address that may be allowed to operate on tokens without being their owner."
          }
        }
      ],
      "ERC721InvalidOwner(address)": [
        {
          "details": "Indicates that an address can't be an owner. For example, `address(0)` is a forbidden owner in EIP-20. Used in balance queries.",
          "params": {
            "owner": "Address of the current owner of a token."
          }
        }
      ],
      "ERC721InvalidReceiver(address)": [
        {
          "details": "Indicates a failure with the token `receiver`. Used in transfers.",
          "params": {
            "receiver": "Address to which tokens are being transferred."
          }
        }
      ],
      "ERC721InvalidSender(address)": [
        {
          "details": "Indicates a failure with the token `sender`. Used in transfers.",
          "params": {
            "sender": "Address whose tokens are being transferred."
          }
        }
      ],
      "ERC721NonexistentToken(uint256)": [
        {
          "details": "Indicates a `tokenId` whose `owner` is the zero address.",
          "params": {
            "tokenId": "Identifier number of a token."
          }
        }
      ]
    },
    "events": {
      "Approval(address,address,uint256)": {
        "details": "Emitted when `owner` enables `approved` to manage the `tokenId` token."
      },
      "ApprovalForAll(address,address,bool)": {
        "details": "Emitted when `owner` enables or disables (`approved`) `operator` to manage all of its assets."
      },
      "BatchMetadataUpdate(uint256,uint256)": {
        "details": "This event emits when the metadata of a range of tokens is changed. So that the third-party platforms such as NFT market could timely update the images and related attributes of the NFTs."
      },
      "MetadataUpdate(uint256)": {
        "details": "This event emits when the metadata of a token is changed. So that the third-party platforms such as NFT market could timely update the images and related attributes of the NFT."
      },
      "Transfer(address,address,uint256)": {
        "details": "Emitted when `tokenId` token is transferred from `from` to `to`."
      }
    },
    "kind": "dev",
    "methods": {
      "approve(address,uint256)": {
        "details": "See {IERC721-approve}."
      },
      "balanceOf(address)": {
        "details": "See {IERC721-balanceOf}."
      },
      "getApproved(uint256)": {
        "details": "See {IERC721-getApproved}."
      },
      "isApprovedForAll(address,address)": {
        "details": "See {IERC721-isApprovedForAll}."
      },
      "name()": {
        "details": "See {IERC721Metadata-name}."
      },
      "ownerOf(uint256)": {
        "details": "See {IERC721-ownerOf}."
      },
      "safeTransferFrom(address,address,uint256)": {
        "details": "See {IERC721-safeTransferFrom}."
      },
      "safeTransferFrom(address,address,uint256,bytes)": {
        "details": "See {IERC721-safeTransferFrom}."
      },
      "setApprovalForAll(address,bool)": {
        "details": "See {IERC721-setApprovalForAll}."
      },
      "supportsInterface(bytes4)": {
        "details": "See {IERC165-supportsInterface}"
      },
      "symbol()": {
        "details": "See {IERC721Metadata-symbol}."
      },
      "tokenURI(uint256)": {
        "details": "See {IERC721Metadata-tokenURI}."
      },
      "transferFrom(address,address,uint256)": {
        "details": "See {IERC721-transferFrom}."
      }
    },
    "version": 1
  },
  "userdoc": {
    "kind": "user",
    "methods": {},
    "version": 1
  }
}