{
  "contractName": "Item",
  "abi": [
    {
      "inputs": [
        {
          "internalType": "string",
          "name": "_itemName",
          "type": "string"
        },
        {
          "internalType": "uint256",
          "name": "_initialPrice",
          "type": "uint256"
        }
      ],
      "stateMutability": "nonpayable",
      "type": "constructor"
    },
    {
      "inputs": [
        {
          "internalType": "address",
          "name": "owner",
          "type": "address"
        }
      ],
      "name": "OwnableInvalidOwner",
      "type": "error"
    },
    {
      "inputs": [
        {
          "internalType": "address",
          "name": "account",
          "type": "address"
        }
      ],
      "name": "OwnableUnauthorizedAccount",
      "type": "error"
    },
    {
      "anonymous": false,
      "inputs": [
        {
          "indexed": false,
          "internalType": "uint256",
          "name": "newPrice",
          "type": "uint256"
        }
      ],
      "name": "ItemPriceUpdated",
      "type": "event"
    },
    {
      "anonymous": false,
      "inputs": [
        {
          "indexed": false,
          "internalType": "bool",
          "name": "forSaleStatus",
          "type": "bool"
        }
      ],
      "name": "ItemStatusChanged",
      "type": "event"
    },
    {
      "anonymous": false,
      "inputs": [
        {
          "indexed": true,
          "internalType": "address",
          "name": "previousOwner",
          "type": "address"
        },
        {
          "indexed": true,
          "internalType": "address",
          "name": "newOwner",
          "type": "address"
        },
        {
          "indexed": false,
          "internalType": "uint256",
          "name": "price",
          "type": "uint256"
        }
      ],
      "name": "ItemTransferred",
      "type": "event"
    },
    {
      "anonymous": false,
      "inputs": [
        {
          "indexed": true,
          "internalType": "address",
          "name": "previousOwner",
          "type": "address"
        },
        {
          "indexed": true,
          "internalType": "address",
          "name": "newOwner",
          "type": "address"
        }
      ],
      "name": "OwnershipTransferred",
      "type": "event"
    },
    {
      "inputs": [],
      "name": "forSale",
      "outputs": [
        {
          "internalType": "bool",
          "name": "",
          "type": "bool"
        }
      ],
      "stateMutability": "view",
      "type": "function",
      "constant": true
    },
    {
      "inputs": [],
      "name": "itemName",
      "outputs": [
        {
          "internalType": "string",
          "name": "",
          "type": "string"
        }
      ],
      "stateMutability": "view",
      "type": "function",
      "constant": true
    },
    {
      "inputs": [],
      "name": "owner",
      "outputs": [
        {
          "internalType": "address",
          "name": "",
          "type": "address"
        }
      ],
      "stateMutability": "view",
      "type": "function",
      "constant": true
    },
    {
      "inputs": [],
      "name": "price",
      "outputs": [
        {
          "internalType": "uint256",
          "name": "",
          "type": "uint256"
        }
      ],
      "stateMutability": "view",
      "type": "function",
      "constant": true
    },
    {
      "inputs": [],
      "name": "renounceOwnership",
      "outputs": [],
      "stateMutability": "nonpayable",
      "type": "function"
    },
    {
      "inputs": [
        {
          "internalType": "address",
          "name": "newOwner",
          "type": "address"
        }
      ],
      "name": "transferOwnership",
      "outputs": [],
      "stateMutability": "nonpayable",
      "type": "function"
    },
    {
      "inputs": [
        {
          "internalType": "address",
          "name": "newOwner",
          "type": "address"
        }
      ],
      "name": "transferOwnershipNewAddress",
      "outputs": [],
      "stateMutability": "nonpayable",
      "type": "function"
    },
    {
      "inputs": [
        {
          "internalType": "uint256",
          "name": "_newPrice",
          "type": "uint256"
        }
      ],
      "name": "changePrice",
      "outputs": [],
      "stateMutability": "nonpayable",
      "type": "function"
    },
    {
      "inputs": [
        {
          "internalType": "bool",
          "name": "_forSale",
          "type": "bool"
        }
      ],
      "name": "changeSaleStatus",
      "outputs": [],
      "stateMutability": "nonpayable",
      "type": "function"
    },
    {
      "inputs": [],
      "name": "buyItem",
      "outputs": [],
      "stateMutability": "payable",
      "type": "function",
      "payable": true
    },
    {
      "inputs": [],
      "name": "getItemDetails",
      "outputs": [
        {
          "internalType": "string",
          "name": "",
          "type": "string"
        },
        {
          "internalType": "address",
          "name": "",
          "type": "address"
        },
        {
          "internalType": "uint256",
          "name": "",
          "type": "uint256"
        },
        {
          "internalType": "bool",
          "name": "",
          "type": "bool"
        }
      ],
      "stateMutability": "view",
      "type": "function",
      "constant": true
    }
  ],
  "bytecode": "0x608060405234801562000010575f80fd5b506040516200134938038062001349833981810160405281019062000036919062000374565b335f73ffffffffffffffffffffffffffffffffffffffff168173ffffffffffffffffffffffffffffffffffffffff1603620000aa575f6040517f1e4fbdf7000000000000000000000000000000000000000000000000000000008152600401620000a191906200041b565b60405180910390fd5b620000bb81620000f660201b60201c565b508160019081620000cd919062000664565b50806002819055505f60035f6101000a81548160ff021916908315150217905550505062000748565b5f805f9054906101000a900473ffffffffffffffffffffffffffffffffffffffff169050815f806101000a81548173ffffffffffffffffffffffffffffffffffffffff021916908373ffffffffffffffffffffffffffffffffffffffff1602179055508173ffffffffffffffffffffffffffffffffffffffff168173ffffffffffffffffffffffffffffffffffffffff167f8be0079c531659141344cd1fd0a4f28419497f9722a3daafe3b4186f6b6457e060405160405180910390a35050565b5f604051905090565b5f80fd5b5f80fd5b5f80fd5b5f80fd5b5f601f19601f8301169050919050565b7f4e487b71000000000000000000000000000000000000000000000000000000005f52604160045260245ffd5b6200021882620001d0565b810181811067ffffffffffffffff821117156200023a5762000239620001e0565b5b80604052505050565b5f6200024e620001b7565b90506200025c82826200020d565b919050565b5f67ffffffffffffffff8211156200027e576200027d620001e0565b5b6200028982620001d0565b9050602081019050919050565b5f5b83811015620002b557808201518184015260208101905062000298565b5f8484015250505050565b5f620002d6620002d08462000261565b62000243565b905082815260208101848484011115620002f557620002f4620001cc565b5b6200030284828562000296565b509392505050565b5f82601f830112620003215762000320620001c8565b5b815162000333848260208601620002c0565b91505092915050565b5f819050919050565b62000350816200033c565b81146200035b575f80fd5b50565b5f815190506200036e8162000345565b92915050565b5f80604083850312156200038d576200038c620001c0565b5b5f83015167ffffffffffffffff811115620003ad57620003ac620001c4565b5b620003bb858286016200030a565b9250506020620003ce858286016200035e565b9150509250929050565b5f73ffffffffffffffffffffffffffffffffffffffff82169050919050565b5f6200040382620003d8565b9050919050565b6200041581620003f7565b82525050565b5f602082019050620004305f8301846200040a565b92915050565b5f81519050919050565b7f4e487b71000000000000000000000000000000000000000000000000000000005f52602260045260245ffd5b5f60028204905060018216806200048557607f821691505b6020821081036200049b576200049a62000440565b5b50919050565b5f819050815f5260205f209050919050565b5f6020601f8301049050919050565b5f82821b905092915050565b5f60088302620004ff7fffffffffffffffffffffffffffffffffffffffffffffffffffffffffffffffff82620004c2565b6200050b8683620004c2565b95508019841693508086168417925050509392505050565b5f819050919050565b5f6200054c6200054662000540846200033c565b62000523565b6200033c565b9050919050565b5f819050919050565b62000567836200052c565b6200057f620005768262000553565b848454620004ce565b825550505050565b5f90565b6200059562000587565b620005a28184846200055c565b505050565b5b81811015620005c957620005bd5f826200058b565b600181019050620005a8565b5050565b601f8211156200061857620005e281620004a1565b620005ed84620004b3565b81016020851015620005fd578190505b620006156200060c85620004b3565b830182620005a7565b50505b505050565b5f82821c905092915050565b5f6200063a5f19846008026200061d565b1980831691505092915050565b5f62000654838362000629565b9150826002028217905092915050565b6200066f8262000436565b67ffffffffffffffff8111156200068b576200068a620001e0565b5b6200069782546200046d565b620006a4828285620005cd565b5f60209050601f831160018114620006da575f8415620006c5578287015190505b620006d1858262000647565b86555062000740565b601f198416620006ea86620004a1565b5f5b828110156200071357848901518255600182019150602085019450602081019050620006ec565b868310156200073357848901516200072f601f89168262000629565b8355505b6001600288020188555050505b505050505050565b610bf380620007565f395ff3fe60806040526004361061009b575f3560e01c80638aca1205116100635780638aca1205146101405780638da5cb5b14610168578063a035b1fe14610192578063a2b40d19146101bc578063a70c1dde146101e4578063f2fde38b1461020c5761009b565b806340401fea1461009f578063466ccac0146100c9578063715018a6146100f3578063795612d6146101095780637c81d12314610113575b5f80fd5b3480156100aa575f80fd5b506100b3610234565b6040516100c09190610867565b60405180910390f35b3480156100d4575f80fd5b506100dd6102c0565b6040516100ea91906108a1565b60405180910390f35b3480156100fe575f80fd5b506101076102d2565b005b6101116102e5565b005b34801561011e575f80fd5b50610127610453565b6040516101379493929190610911565b60405180910390f35b34801561014b575f80fd5b5061016660048036038101906101619190610989565b61050c565b005b348015610173575f80fd5b5061017c610539565b60405161018991906109b4565b60405180910390f35b34801561019d575f80fd5b506101a6610560565b6040516101b391906109cd565b60405180910390f35b3480156101c7575f80fd5b506101e260048036038101906101dd9190610a10565b610566565b005b3480156101ef575f80fd5b5061020a60048036038101906102059190610a65565b6105af565b005b348015610217575f80fd5b50610232600480360381019061022d9190610989565b61060a565b005b6001805461024190610abd565b80601f016020809104026020016040519081016040528092919081815260200182805461026d90610abd565b80156102b85780601f1061028f576101008083540402835291602001916102b8565b820191905f5260205f20905b81548152906001019060200180831161029b57829003601f168201915b505050505081565b60035f9054906101000a900460ff1681565b6102da61068e565b6102e35f610715565b565b60035f9054906101000a900460ff16610333576040517f08c379a000000000000000000000000000000000000000000000000000000000815260040161032a90610b37565b60405180910390fd5b600254341015610378576040517f08c379a000000000000000000000000000000000000000000000000000000000815260040161036f90610b9f565b60405180910390fd5b5f610381610539565b90505f60035f6101000a81548160ff0219169083151502179055508073ffffffffffffffffffffffffffffffffffffffff166108fc60025490811502906040515f60405180830381858888f193505050501580156103e1573d5f803e3d5ffd5b503373ffffffffffffffffffffffffffffffffffffffff16610401610539565b73ffffffffffffffffffffffffffffffffffffffff167f59fd71f186972d8c7ae2506b28030f0dcf9fb2357a61d2004fa5fd53333b27df60025460405161044891906109cd565b60405180910390a350565b60605f805f6001610462610539565b60025460035f9054906101000a900460ff1683805461048090610abd565b80601f01602080910402602001604051908101604052809291908181526020018280546104ac90610abd565b80156104f75780601f106104ce576101008083540402835291602001916104f7565b820191905f5260205f20905b8154815290600101906020018083116104da57829003601f168201915b50505050509350935093509350935090919293565b61051461068e565b5f60035f6101000a81548160ff0219169083151502179055506105368161060a565b50565b5f805f9054906101000a900473ffffffffffffffffffffffffffffffffffffffff16905090565b60025481565b61056e61068e565b806002819055507f2a1e389e63b71f6266c42f7d1cb8cb6055b3041628ad15e02016e2542c072eb6816040516105a491906109cd565b60405180910390a150565b6105b761068e565b8060035f6101000a81548160ff0219169083151502179055507f08713aa0295a698db01fa2ce0a14257bd2223f4f63ac2bf1fc571b9ac9f59fba816040516105ff91906108a1565b60405180910390a150565b61061261068e565b5f73ffffffffffffffffffffffffffffffffffffffff168173ffffffffffffffffffffffffffffffffffffffff1603610682575f6040517f1e4fbdf700000000000000000000000000000000000000000000000000000000815260040161067991906109b4565b60405180910390fd5b61068b81610715565b50565b6106966107d6565b73ffffffffffffffffffffffffffffffffffffffff166106b4610539565b73ffffffffffffffffffffffffffffffffffffffff1614610713576106d76107d6565b6040517f118cdaa700000000000000000000000000000000000000000000000000000000815260040161070a91906109b4565b60405180910390fd5b565b5f805f9054906101000a900473ffffffffffffffffffffffffffffffffffffffff169050815f806101000a81548173ffffffffffffffffffffffffffffffffffffffff021916908373ffffffffffffffffffffffffffffffffffffffff1602179055508173ffffffffffffffffffffffffffffffffffffffff168173ffffffffffffffffffffffffffffffffffffffff167f8be0079c531659141344cd1fd0a4f28419497f9722a3daafe3b4186f6b6457e060405160405180910390a35050565b5f33905090565b5f81519050919050565b5f82825260208201905092915050565b5f5b838110156108145780820151818401526020810190506107f9565b5f8484015250505050565b5f601f19601f8301169050919050565b5f610839826107dd565b61084381856107e7565b93506108538185602086016107f7565b61085c8161081f565b840191505092915050565b5f6020820190508181035f83015261087f818461082f565b905092915050565b5f8115159050919050565b61089b81610887565b82525050565b5f6020820190506108b45f830184610892565b92915050565b5f73ffffffffffffffffffffffffffffffffffffffff82169050919050565b5f6108e3826108ba565b9050919050565b6108f3816108d9565b82525050565b5f819050919050565b61090b816108f9565b82525050565b5f6080820190508181035f830152610929818761082f565b905061093860208301866108ea565b6109456040830185610902565b6109526060830184610892565b95945050505050565b5f80fd5b610968816108d9565b8114610972575f80fd5b50565b5f813590506109838161095f565b92915050565b5f6020828403121561099e5761099d61095b565b5b5f6109ab84828501610975565b91505092915050565b5f6020820190506109c75f8301846108ea565b92915050565b5f6020820190506109e05f830184610902565b92915050565b6109ef816108f9565b81146109f9575f80fd5b50565b5f81359050610a0a816109e6565b92915050565b5f60208284031215610a2557610a2461095b565b5b5f610a32848285016109fc565b91505092915050565b610a4481610887565b8114610a4e575f80fd5b50565b5f81359050610a5f81610a3b565b92915050565b5f60208284031215610a7a57610a7961095b565b5b5f610a8784828501610a51565b91505092915050565b7f4e487b71000000000000000000000000000000000000000000000000000000005f52602260045260245ffd5b5f6002820490506001821680610ad457607f821691505b602082108103610ae757610ae6610a90565b5b50919050565b7f4974656d206973206e6f7420666f722073616c650000000000000000000000005f82015250565b5f610b216014836107e7565b9150610b2c82610aed565b602082019050919050565b5f6020820190508181035f830152610b4e81610b15565b9050919050565b7f496e73756666696369656e742066756e647300000000000000000000000000005f82015250565b5f610b896012836107e7565b9150610b9482610b55565b602082019050919050565b5f6020820190508181035f830152610bb681610b7d565b905091905056fea2646970667358221220bf8603293eb767265b94fe9fc02527d5b828f5c215891c86927568b8906cfee364736f6c63430008170033",
  "immutableReferences": {},
  "source": "// SPDX-License-Identifier: GPL-3.0\r\n\r\npragma solidity >=0.7.0 <0.9.0;\r\n\r\nimport \"@openzeppelin/contracts/access/Ownable.sol\";\r\n\r\ncontract Item is Ownable {\r\n    // Variables\r\n    string public itemName;\r\n    uint256 public price;\r\n    bool public forSale;\r\n\r\n    // Events\r\n    event ItemTransferred(address indexed previousOwner, address indexed newOwner, uint256 price);\r\n    event ItemPriceUpdated(uint256 newPrice);\r\n    event ItemStatusChanged(bool forSaleStatus);\r\n\r\n    // Constructor\r\n    constructor(string memory _itemName, uint256 _initialPrice) Ownable(msg.sender){\r\n        itemName = _itemName;\r\n        price = _initialPrice;\r\n        forSale = false;\r\n    }\r\n\r\n    function transferOwnershipNewAddress(address newOwner) external onlyOwner {\r\n        //require(msg.sender == this.currentOwner);\r\n        forSale = false;\r\n        transferOwnership(newOwner);\r\n\r\n        \r\n        //also is there really a need for currentOwner if we are using the Ownable module? removed it and used owner() instead each time.\r\n    }\r\n\r\n\r\n\r\n\r\n    function changePrice(uint256 _newPrice) external onlyOwner {\r\n        price = _newPrice;\r\n        emit ItemPriceUpdated(_newPrice);\r\n    }\r\n\r\n    function changeSaleStatus(bool _forSale) external onlyOwner {\r\n        forSale = _forSale;\r\n        emit ItemStatusChanged(_forSale);\r\n    }\r\n\r\n    function buyItem() external payable {\r\n        require(forSale, \"Item is not for sale\");\r\n        require(msg.value >= price, \"Insufficient funds\");\r\n\r\n        address payable previousOwner = payable(owner());\r\n        //transferOwnership(address(this));\r\n        //this.transferOwnership(msg.sender);\r\n        forSale = false;\r\n        previousOwner.transfer(price);\r\n\r\n        //need to transfer ownership but cant because it needs to be done by ownable! :(\r\n        //transferOwnership(msg.sender);\r\n        emit ItemTransferred(owner(), msg.sender, price);\r\n    }\r\n\r\n    function getItemDetails() external view returns (\r\n        string memory,\r\n        address,\r\n        uint256,\r\n        bool\r\n    ) {\r\n        return (itemName, owner(), price, forSale);\r\n    }\r\n}",
  "sourcePath": "C:\\Users\\dbbal\\Desktop\\Singapore\\blockchain\\DAPP-Blockchainers\\contracts\\Item.sol",
  "compiler": {
    "name": "solc",
    "version": "0.8.23+commit.f704f362.Emscripten.clang"
  },
  "schemaVersion": "3.4.16",
  "updatedAt": "2023-12-01T10:05:03.728Z",
  "networkType": "ethereum",
  "devdoc": {
    "errors": {
      "OwnableInvalidOwner(address)": [
        {
          "details": "The owner is not a valid owner account. (eg. `address(0)`)"
        }
      ],
      "OwnableUnauthorizedAccount(address)": [
        {
          "details": "The caller account is not authorized to perform an operation."
        }
      ]
    },
    "kind": "dev",
    "methods": {
      "owner()": {
        "details": "Returns the address of the current owner."
      },
      "renounceOwnership()": {
        "details": "Leaves the contract without owner. It will not be possible to call `onlyOwner` functions. Can only be called by the current owner. NOTE: Renouncing ownership will leave the contract without an owner, thereby disabling any functionality that is only available to the owner."
      },
      "transferOwnership(address)": {
        "details": "Transfers ownership of the contract to a new account (`newOwner`). Can only be called by the current owner."
      }
    },
    "version": 1
  },
  "userdoc": {
    "kind": "user",
    "methods": {},
    "version": 1
  }
}