{
  "contractName": "Marketplace",
  "abi": [
    {
      "inputs": [],
      "stateMutability": "nonpayable",
      "type": "constructor"
    },
    {
      "inputs": [],
      "name": "ReentrancyGuardReentrantCall",
      "type": "error"
    },
    {
      "anonymous": false,
      "inputs": [
        {
          "indexed": false,
          "internalType": "address",
          "name": "itemContract",
          "type": "address"
        },
        {
          "indexed": false,
          "internalType": "uint256",
          "name": "tokenId",
          "type": "uint256"
        },
        {
          "indexed": false,
          "internalType": "address",
          "name": "seller",
          "type": "address"
        },
        {
          "indexed": false,
          "internalType": "address",
          "name": "owner",
          "type": "address"
        },
        {
          "indexed": false,
          "internalType": "uint256",
          "name": "price",
          "type": "uint256"
        }
      ],
      "name": "ItemListed",
      "type": "event"
    },
    {
      "anonymous": false,
      "inputs": [
        {
          "indexed": false,
          "internalType": "address",
          "name": "itemContract",
          "type": "address"
        },
        {
          "indexed": false,
          "internalType": "uint256",
          "name": "tokenId",
          "type": "uint256"
        },
        {
          "indexed": false,
          "internalType": "address",
          "name": "seller",
          "type": "address"
        },
        {
          "indexed": false,
          "internalType": "address",
          "name": "owner",
          "type": "address"
        },
        {
          "indexed": false,
          "internalType": "uint256",
          "name": "price",
          "type": "uint256"
        },
        {
          "indexed": false,
          "internalType": "uint256",
          "name": "duration",
          "type": "uint256"
        }
      ],
      "name": "ItemListedRent",
      "type": "event"
    },
    {
      "anonymous": false,
      "inputs": [
        {
          "indexed": false,
          "internalType": "address",
          "name": "itemContract",
          "type": "address"
        },
        {
          "indexed": false,
          "internalType": "uint256",
          "name": "tokenId",
          "type": "uint256"
        },
        {
          "indexed": false,
          "internalType": "address",
          "name": "seller",
          "type": "address"
        },
        {
          "indexed": false,
          "internalType": "address",
          "name": "owner",
          "type": "address"
        },
        {
          "indexed": false,
          "internalType": "uint256",
          "name": "price",
          "type": "uint256"
        },
        {
          "indexed": false,
          "internalType": "uint256",
          "name": "duration",
          "type": "uint256"
        }
      ],
      "name": "ItemRented",
      "type": "event"
    },
    {
      "anonymous": false,
      "inputs": [
        {
          "indexed": false,
          "internalType": "address",
          "name": "itemContract",
          "type": "address"
        },
        {
          "indexed": false,
          "internalType": "uint256",
          "name": "tokenId",
          "type": "uint256"
        },
        {
          "indexed": false,
          "internalType": "address",
          "name": "seller",
          "type": "address"
        },
        {
          "indexed": false,
          "internalType": "address",
          "name": "owner",
          "type": "address"
        },
        {
          "indexed": false,
          "internalType": "uint256",
          "name": "price",
          "type": "uint256"
        }
      ],
      "name": "ItemSold",
      "type": "event"
    },
    {
      "inputs": [],
      "name": "LISTING_FEE",
      "outputs": [
        {
          "internalType": "uint256",
          "name": "",
          "type": "uint256"
        }
      ],
      "stateMutability": "view",
      "type": "function"
    },
    {
      "inputs": [
        {
          "internalType": "address",
          "name": "_itemContract",
          "type": "address"
        },
        {
          "internalType": "uint256",
          "name": "_tokenId",
          "type": "uint256"
        },
        {
          "internalType": "uint256",
          "name": "_price",
          "type": "uint256"
        }
      ],
      "name": "listItem",
      "outputs": [],
      "stateMutability": "payable",
      "type": "function"
    },
    {
      "inputs": [
        {
          "internalType": "address",
          "name": "_itemContract",
          "type": "address"
        },
        {
          "internalType": "uint256",
          "name": "_tokenId",
          "type": "uint256"
        },
        {
          "internalType": "uint256",
          "name": "_price",
          "type": "uint256"
        },
        {
          "internalType": "uint256",
          "name": "rentSeconds",
          "type": "uint256"
        }
      ],
      "name": "listItemForRent",
      "outputs": [],
      "stateMutability": "payable",
      "type": "function"
    },
    {
      "inputs": [
        {
          "internalType": "address",
          "name": "_itemContract",
          "type": "address"
        },
        {
          "internalType": "uint256",
          "name": "_tokenId",
          "type": "uint256"
        }
      ],
      "name": "buyItem",
      "outputs": [],
      "stateMutability": "payable",
      "type": "function"
    },
    {
      "inputs": [
        {
          "internalType": "address",
          "name": "_itemContract",
          "type": "address"
        },
        {
          "internalType": "uint256",
          "name": "_tokenId",
          "type": "uint256"
        }
      ],
      "name": "rentItem",
      "outputs": [],
      "stateMutability": "payable",
      "type": "function"
    },
    {
      "inputs": [
        {
          "internalType": "uint256",
          "name": "_tokenId",
          "type": "uint256"
        }
      ],
      "name": "recallItem",
      "outputs": [],
      "stateMutability": "payable",
      "type": "function"
    },
    {
      "inputs": [
        {
          "internalType": "address",
          "name": "_itemContract",
          "type": "address"
        },
        {
          "internalType": "uint256",
          "name": "_tokenId",
          "type": "uint256"
        },
        {
          "internalType": "uint256",
          "name": "_price",
          "type": "uint256"
        }
      ],
      "name": "resellItem",
      "outputs": [],
      "stateMutability": "payable",
      "type": "function"
    },
    {
      "inputs": [],
      "name": "getListedItems",
      "outputs": [
        {
          "components": [
            {
              "internalType": "address",
              "name": "itemContract",
              "type": "address"
            },
            {
              "internalType": "uint256",
              "name": "tokenId",
              "type": "uint256"
            },
            {
              "internalType": "address payable",
              "name": "seller",
              "type": "address"
            },
            {
              "internalType": "address payable",
              "name": "owner",
              "type": "address"
            },
            {
              "internalType": "uint256",
              "name": "price",
              "type": "uint256"
            },
            {
              "internalType": "bool",
              "name": "listed",
              "type": "bool"
            },
            {
              "internalType": "bool",
              "name": "rentable",
              "type": "bool"
            },
            {
              "internalType": "uint256",
              "name": "duration",
              "type": "uint256"
            }
          ],
          "internalType": "struct Marketplace.Item[]",
          "name": "",
          "type": "tuple[]"
        }
      ],
      "stateMutability": "view",
      "type": "function"
    },
    {
      "inputs": [],
      "name": "getMyItems",
      "outputs": [
        {
          "components": [
            {
              "internalType": "address",
              "name": "itemContract",
              "type": "address"
            },
            {
              "internalType": "uint256",
              "name": "tokenId",
              "type": "uint256"
            },
            {
              "internalType": "address payable",
              "name": "seller",
              "type": "address"
            },
            {
              "internalType": "address payable",
              "name": "owner",
              "type": "address"
            },
            {
              "internalType": "uint256",
              "name": "price",
              "type": "uint256"
            },
            {
              "internalType": "bool",
              "name": "listed",
              "type": "bool"
            },
            {
              "internalType": "bool",
              "name": "rentable",
              "type": "bool"
            },
            {
              "internalType": "uint256",
              "name": "duration",
              "type": "uint256"
            }
          ],
          "internalType": "struct Marketplace.Item[]",
          "name": "",
          "type": "tuple[]"
        }
      ],
      "stateMutability": "view",
      "type": "function"
    },
    {
      "inputs": [],
      "name": "getMyListedItems",
      "outputs": [
        {
          "components": [
            {
              "internalType": "address",
              "name": "itemContract",
              "type": "address"
            },
            {
              "internalType": "uint256",
              "name": "tokenId",
              "type": "uint256"
            },
            {
              "internalType": "address payable",
              "name": "seller",
              "type": "address"
            },
            {
              "internalType": "address payable",
              "name": "owner",
              "type": "address"
            },
            {
              "internalType": "uint256",
              "name": "price",
              "type": "uint256"
            },
            {
              "internalType": "bool",
              "name": "listed",
              "type": "bool"
            },
            {
              "internalType": "bool",
              "name": "rentable",
              "type": "bool"
            },
            {
              "internalType": "uint256",
              "name": "duration",
              "type": "uint256"
            }
          ],
          "internalType": "struct Marketplace.Item[]",
          "name": "",
          "type": "tuple[]"
        }
      ],
      "stateMutability": "view",
      "type": "function"
    }
  ],
  "bytecode": "0x60806040525f600355348015610013575f80fd5b5060015f819055503360045f6101000a81548173ffffffffffffffffffffffffffffffffffffffff021916908373ffffffffffffffffffffffffffffffffffffffff16021790555061263e806100685f395ff3fe608060405260043610610090575f3560e01c806389bfd38f1161005857806389bfd38f1461013c5780638f0af0f9146101585780639f37092a14610174578063c5fb207d14610190578063caf50690146101ba57610090565b80632b86ae381461009457806336a4009c146100be57806349b5d297146100e85780635e2107ff146101045780638749e2a014610120575b5f80fd5b34801561009f575f80fd5b506100a86101e4565b6040516100b59190611b38565b60405180910390f35b3480156100c9575f80fd5b506100d26101ea565b6040516100df9190611d22565b60405180910390f35b61010260048036038101906100fd9190611d9a565b610597565b005b61011e60048036038101906101199190611dfe565b6108cd565b005b61013a60048036038101906101359190611e29565b610b0e565b005b61015660048036038101906101519190611e67565b610cdc565b005b610172600480360381019061016d9190611e67565b611060565b005b61018e60048036038101906101899190611e29565b611279565b005b34801561019b575f80fd5b506101a461149d565b6040516101b19190611d22565b60405180910390f35b3480156101c5575f80fd5b506101ce6117de565b6040516101db9190611d22565b60405180910390f35b60035481565b60605f60025490505f805b828110156102c7573373ffffffffffffffffffffffffffffffffffffffff1660055f6001846102249190611ee4565b81526020019081526020015f206002015f9054906101000a900473ffffffffffffffffffffffffffffffffffffffff1673ffffffffffffffffffffffffffffffffffffffff161480156102a0575060055f6001836102829190611ee4565b81526020019081526020015f206005015f9054906101000a900460ff165b156102b45781806102b090611f17565b9250505b80806102bf90611f17565b9150506101f5565b505f8167ffffffffffffffff8111156102e3576102e2611f5e565b5b60405190808252806020026020018201604052801561031c57816020015b610309611a9d565b8152602001906001900390816103015790505b5090505f805b8481101561058c573373ffffffffffffffffffffffffffffffffffffffff1660055f6001846103519190611ee4565b81526020019081526020015f206002015f9054906101000a900473ffffffffffffffffffffffffffffffffffffffff1673ffffffffffffffffffffffffffffffffffffffff161480156103cd575060055f6001836103af9190611ee4565b81526020019081526020015f206005015f9054906101000a900460ff165b156105795760055f6001836103e29190611ee4565b81526020019081526020015f20604051806101000160405290815f82015f9054906101000a900473ffffffffffffffffffffffffffffffffffffffff1673ffffffffffffffffffffffffffffffffffffffff1673ffffffffffffffffffffffffffffffffffffffff16815260200160018201548152602001600282015f9054906101000a900473ffffffffffffffffffffffffffffffffffffffff1673ffffffffffffffffffffffffffffffffffffffff1673ffffffffffffffffffffffffffffffffffffffff168152602001600382015f9054906101000a900473ffffffffffffffffffffffffffffffffffffffff1673ffffffffffffffffffffffffffffffffffffffff1673ffffffffffffffffffffffffffffffffffffffff16815260200160048201548152602001600582015f9054906101000a900460ff161515151581526020016005820160019054906101000a900460ff1615151515815260200160068201548152505083838151811061055f5761055e611f8b565b5b6020026020010181905250818061057590611f17565b9250505b808061058490611f17565b915050610322565b508194505050505090565b61059f611a50565b5f82116105e1576040517f08c379a00000000000000000000000000000000000000000000000000000000081526004016105d890612012565b60405180910390fd5b6003543414610625576040517f08c379a000000000000000000000000000000000000000000000000000000000815260040161061c906120a0565b60405180910390fd5b8373ffffffffffffffffffffffffffffffffffffffff166323b872dd3330866040518463ffffffff1660e01b8152600401610662939291906120cd565b5f604051808303815f87803b158015610679575f80fd5b505af115801561068b573d5f803e3d5ffd5b5050505060045f9054906101000a900473ffffffffffffffffffffffffffffffffffffffff1673ffffffffffffffffffffffffffffffffffffffff166108fc60035490811502906040515f60405180830381858888f193505050501580156106f5573d5f803e3d5ffd5b5060025f81548092919061070890611f17565b91905055506040518060c001604052808573ffffffffffffffffffffffffffffffffffffffff1681526020018481526020013373ffffffffffffffffffffffffffffffffffffffff1681526020013073ffffffffffffffffffffffffffffffffffffffff1681526020018381526020018281525060065f8581526020019081526020015f205f820151815f015f6101000a81548173ffffffffffffffffffffffffffffffffffffffff021916908373ffffffffffffffffffffffffffffffffffffffff160217905550602082015181600101556040820151816002015f6101000a81548173ffffffffffffffffffffffffffffffffffffffff021916908373ffffffffffffffffffffffffffffffffffffffff1602179055506060820151816003015f6101000a81548173ffffffffffffffffffffffffffffffffffffffff021916908373ffffffffffffffffffffffffffffffffffffffff1602179055506080820151816004015560a082015181600501559050507f09ce421b5f2d8e5ca3ee4b485d57badf4a3bb65a899a9d6db9fc4e34ed30a7408484333086866040516108b796959493929190612102565b60405180910390a16108c7611a94565b50505050565b6108d5611a50565b60065f8281526020019081526020015f206002015f9054906101000a900473ffffffffffffffffffffffffffffffffffffffff1673ffffffffffffffffffffffffffffffffffffffff163373ffffffffffffffffffffffffffffffffffffffff1614610976576040517f08c379a000000000000000000000000000000000000000000000000000000000815260040161096d906121d1565b60405180910390fd5b60065f8281526020019081526020015f20600501544210156109cd576040517f08c379a00000000000000000000000000000000000000000000000000000000081526004016109c490612239565b60405180910390fd5b60065f8281526020019081526020015f206002015f9054906101000a900473ffffffffffffffffffffffffffffffffffffffff1660065f8381526020019081526020015f206003015f6101000a81548173ffffffffffffffffffffffffffffffffffffffff021916908373ffffffffffffffffffffffffffffffffffffffff16021790555060015f815480929190610a6490612257565b919050555060065f8281526020019081526020015f205f8082015f6101000a81549073ffffffffffffffffffffffffffffffffffffffff0219169055600182015f9055600282015f6101000a81549073ffffffffffffffffffffffffffffffffffffffff0219169055600382015f6101000a81549073ffffffffffffffffffffffffffffffffffffffff0219169055600482015f9055600582015f90555050610b0b611a94565b50565b610b16611a50565b5f60065f8381526020019081526020015f2090508060040154341015610b71576040517f08c379a0000000000000000000000000000000000000000000000000000000008152600401610b68906122c8565b60405180910390fd5b5f339050816002015f9054906101000a900473ffffffffffffffffffffffffffffffffffffffff1673ffffffffffffffffffffffffffffffffffffffff166108fc3490811502906040515f60405180830381858888f19350505050158015610bdb573d5f803e3d5ffd5b5080826003015f6101000a81548173ffffffffffffffffffffffffffffffffffffffff021916908373ffffffffffffffffffffffffffffffffffffffff1602179055505f826005015442610c2f9190611ee4565b90508060065f8681526020019081526020015f206005018190555060015f815480929190610c5c90611f17565b91905055507f0e2430177b2347616438e96003fab41769a8a7275e03e8622da459fe268e5570858460010154856002015f9054906101000a900473ffffffffffffffffffffffffffffffffffffffff1685348860050154604051610cc596959493929190612341565b60405180910390a1505050610cd8611a94565b5050565b610ce4611a50565b5f8111610d26576040517f08c379a0000000000000000000000000000000000000000000000000000000008152600401610d1d90612012565b60405180910390fd5b6003543414610d6a576040517f08c379a0000000000000000000000000000000000000000000000000000000008152600401610d61906120a0565b60405180910390fd5b8273ffffffffffffffffffffffffffffffffffffffff166323b872dd3330856040518463ffffffff1660e01b8152600401610da7939291906120cd565b5f604051808303815f87803b158015610dbe575f80fd5b505af1158015610dd0573d5f803e3d5ffd5b5050505060045f9054906101000a900473ffffffffffffffffffffffffffffffffffffffff1673ffffffffffffffffffffffffffffffffffffffff166108fc60035490811502906040515f60405180830381858888f19350505050158015610e3a573d5f803e3d5ffd5b5060025f815480929190610e4d90611f17565b91905055506040518061010001604052808473ffffffffffffffffffffffffffffffffffffffff1681526020018381526020013373ffffffffffffffffffffffffffffffffffffffff1681526020013073ffffffffffffffffffffffffffffffffffffffff1681526020018281526020016001151581526020015f151581526020015f81525060055f8481526020019081526020015f205f820151815f015f6101000a81548173ffffffffffffffffffffffffffffffffffffffff021916908373ffffffffffffffffffffffffffffffffffffffff160217905550602082015181600101556040820151816002015f6101000a81548173ffffffffffffffffffffffffffffffffffffffff021916908373ffffffffffffffffffffffffffffffffffffffff1602179055506060820151816003015f6101000a81548173ffffffffffffffffffffffffffffffffffffffff021916908373ffffffffffffffffffffffffffffffffffffffff1602179055506080820151816004015560a0820151816005015f6101000a81548160ff02191690831515021790555060c08201518160050160016101000a81548160ff02191690831515021790555060e082015181600601559050507f11c21af595f44fac6eedae35c674772188a2ece1a360e7e45b9632d80b53a196838333308560405161104b9594939291906123a0565b60405180910390a161105b611a94565b505050565b611068611a50565b5f81116110aa576040517f08c379a00000000000000000000000000000000000000000000000000000000081526004016110a19061243b565b60405180910390fd5b60035434146110ee576040517f08c379a00000000000000000000000000000000000000000000000000000000081526004016110e5906124a3565b60405180910390fd5b8273ffffffffffffffffffffffffffffffffffffffff166323b872dd3330856040518463ffffffff1660e01b815260040161112b939291906120cd565b5f604051808303815f87803b158015611142575f80fd5b505af1158015611154573d5f803e3d5ffd5b505050505f60055f8481526020019081526020015f20905033816002015f6101000a81548173ffffffffffffffffffffffffffffffffffffffff021916908373ffffffffffffffffffffffffffffffffffffffff16021790555030816003015f6101000a81548173ffffffffffffffffffffffffffffffffffffffff021916908373ffffffffffffffffffffffffffffffffffffffff1602179055506001816005015f6101000a81548160ff02191690831515021790555081816004018190555060015f81548092919061122790612257565b91905055507f11c21af595f44fac6eedae35c674772188a2ece1a360e7e45b9632d80b53a19684843330866040516112639594939291906123a0565b60405180910390a150611274611a94565b505050565b611281611a50565b5f60055f8381526020019081526020015f20905080600401543410156112dc576040517f08c379a00000000000000000000000000000000000000000000000000000000081526004016112d390612531565b60405180910390fd5b5f339050816002015f9054906101000a900473ffffffffffffffffffffffffffffffffffffffff1673ffffffffffffffffffffffffffffffffffffffff166108fc3490811502906040515f60405180830381858888f19350505050158015611346573d5f803e3d5ffd5b508373ffffffffffffffffffffffffffffffffffffffff166323b872dd308385600101546040518463ffffffff1660e01b81526004016113889392919061254f565b5f604051808303815f87803b15801561139f575f80fd5b505af11580156113b1573d5f803e3d5ffd5b5050505080826003015f6101000a81548173ffffffffffffffffffffffffffffffffffffffff021916908373ffffffffffffffffffffffffffffffffffffffff1602179055505f826005015f6101000a81548160ff02191690831515021790555060015f81548092919061142490611f17565b91905055507fbcf10c39f62b09d50efa1e275c1297b15ef10efd0e4e9b54883d782eef4ef564848360010154846002015f9054906101000a900473ffffffffffffffffffffffffffffffffffffffff168434604051611487959493929190612584565b60405180910390a15050611499611a94565b5050565b60605f60025490505f805b82811015611544573373ffffffffffffffffffffffffffffffffffffffff1660055f6001846114d79190611ee4565b81526020019081526020015f206003015f9054906101000a900473ffffffffffffffffffffffffffffffffffffffff1673ffffffffffffffffffffffffffffffffffffffff160361153157818061152d90611f17565b9250505b808061153c90611f17565b9150506114a8565b505f8167ffffffffffffffff8111156115605761155f611f5e565b5b60405190808252806020026020018201604052801561159957816020015b611586611a9d565b81526020019060019003908161157e5790505b5090505f805b848110156117d3573373ffffffffffffffffffffffffffffffffffffffff1660055f6001846115ce9190611ee4565b81526020019081526020015f206003015f9054906101000a900473ffffffffffffffffffffffffffffffffffffffff1673ffffffffffffffffffffffffffffffffffffffff16036117c05760055f6001836116299190611ee4565b81526020019081526020015f20604051806101000160405290815f82015f9054906101000a900473ffffffffffffffffffffffffffffffffffffffff1673ffffffffffffffffffffffffffffffffffffffff1673ffffffffffffffffffffffffffffffffffffffff16815260200160018201548152602001600282015f9054906101000a900473ffffffffffffffffffffffffffffffffffffffff1673ffffffffffffffffffffffffffffffffffffffff1673ffffffffffffffffffffffffffffffffffffffff168152602001600382015f9054906101000a900473ffffffffffffffffffffffffffffffffffffffff1673ffffffffffffffffffffffffffffffffffffffff1673ffffffffffffffffffffffffffffffffffffffff16815260200160048201548152602001600582015f9054906101000a900460ff161515151581526020016005820160019054906101000a900460ff161515151581526020016006820154815250508383815181106117a6576117a5611f8b565b5b602002602001018190525081806117bc90611f17565b9250505b80806117cb90611f17565b91505061159f565b508194505050505090565b60605f60025490505f600154826117f591906125d5565b90505f8167ffffffffffffffff81111561181257611811611f5e565b5b60405190808252806020026020018201604052801561184b57816020015b611838611a9d565b8152602001906001900390816118305790505b5090505f805b84811015611a455760055f6001836118699190611ee4565b81526020019081526020015f206005015f9054906101000a900460ff1615611a325760055f60018361189b9190611ee4565b81526020019081526020015f20604051806101000160405290815f82015f9054906101000a900473ffffffffffffffffffffffffffffffffffffffff1673ffffffffffffffffffffffffffffffffffffffff1673ffffffffffffffffffffffffffffffffffffffff16815260200160018201548152602001600282015f9054906101000a900473ffffffffffffffffffffffffffffffffffffffff1673ffffffffffffffffffffffffffffffffffffffff1673ffffffffffffffffffffffffffffffffffffffff168152602001600382015f9054906101000a900473ffffffffffffffffffffffffffffffffffffffff1673ffffffffffffffffffffffffffffffffffffffff1673ffffffffffffffffffffffffffffffffffffffff16815260200160048201548152602001600582015f9054906101000a900460ff161515151581526020016005820160019054906101000a900460ff16151515158152602001600682015481525050838381518110611a1857611a17611f8b565b5b60200260200101819052508180611a2e90611f17565b9250505b8080611a3d90611f17565b915050611851565b508194505050505090565b60025f5403611a8b576040517f3ee5aeb500000000000000000000000000000000000000000000000000000000815260040160405180910390fd5b60025f81905550565b60015f81905550565b6040518061010001604052805f73ffffffffffffffffffffffffffffffffffffffff1681526020015f81526020015f73ffffffffffffffffffffffffffffffffffffffff1681526020015f73ffffffffffffffffffffffffffffffffffffffff1681526020015f81526020015f151581526020015f151581526020015f81525090565b5f819050919050565b611b3281611b20565b82525050565b5f602082019050611b4b5f830184611b29565b92915050565b5f81519050919050565b5f82825260208201905092915050565b5f819050602082019050919050565b5f73ffffffffffffffffffffffffffffffffffffffff82169050919050565b5f611ba382611b7a565b9050919050565b611bb381611b99565b82525050565b611bc281611b20565b82525050565b5f611bd282611b7a565b9050919050565b611be281611bc8565b82525050565b5f8115159050919050565b611bfc81611be8565b82525050565b61010082015f820151611c175f850182611baa565b506020820151611c2a6020850182611bb9565b506040820151611c3d6040850182611bd9565b506060820151611c506060850182611bd9565b506080820151611c636080850182611bb9565b5060a0820151611c7660a0850182611bf3565b5060c0820151611c8960c0850182611bf3565b5060e0820151611c9c60e0850182611bb9565b50505050565b5f611cad8383611c02565b6101008301905092915050565b5f602082019050919050565b5f611cd082611b51565b611cda8185611b5b565b9350611ce583611b6b565b805f5b83811015611d15578151611cfc8882611ca2565b9750611d0783611cba565b925050600181019050611ce8565b5085935050505092915050565b5f6020820190508181035f830152611d3a8184611cc6565b905092915050565b5f80fd5b611d4f81611b99565b8114611d59575f80fd5b50565b5f81359050611d6a81611d46565b92915050565b611d7981611b20565b8114611d83575f80fd5b50565b5f81359050611d9481611d70565b92915050565b5f805f8060808587031215611db257611db1611d42565b5b5f611dbf87828801611d5c565b9450506020611dd087828801611d86565b9350506040611de187828801611d86565b9250506060611df287828801611d86565b91505092959194509250565b5f60208284031215611e1357611e12611d42565b5b5f611e2084828501611d86565b91505092915050565b5f8060408385031215611e3f57611e3e611d42565b5b5f611e4c85828601611d5c565b9250506020611e5d85828601611d86565b9150509250929050565b5f805f60608486031215611e7e57611e7d611d42565b5b5f611e8b86828701611d5c565b9350506020611e9c86828701611d86565b9250506040611ead86828701611d86565b9150509250925092565b7f4e487b71000000000000000000000000000000000000000000000000000000005f52601160045260245ffd5b5f611eee82611b20565b9150611ef983611b20565b9250828201905080821115611f1157611f10611eb7565b5b92915050565b5f611f2182611b20565b91507fffffffffffffffffffffffffffffffffffffffffffffffffffffffffffffffff8203611f5357611f52611eb7565b5b600182019050919050565b7f4e487b71000000000000000000000000000000000000000000000000000000005f52604160045260245ffd5b7f4e487b71000000000000000000000000000000000000000000000000000000005f52603260045260245ffd5b5f82825260208201905092915050565b7f5072696365206d7573742062652067726561746572207468616e20302e0000005f82015250565b5f611ffc601d83611fb8565b915061200782611fc8565b602082019050919050565b5f6020820190508181035f83015261202981611ff0565b9050919050565b7f506c656173652072656d6f76652076616c7565206265666f7265206c697374695f8201527f6e67206974656d2c206c697374696e672066656520697320667265652e000000602082015250565b5f61208a603d83611fb8565b915061209582612030565b604082019050919050565b5f6020820190508181035f8301526120b78161207e565b9050919050565b6120c781611b99565b82525050565b5f6060820190506120e05f8301866120be565b6120ed60208301856120be565b6120fa6040830184611b29565b949350505050565b5f60c0820190506121155f8301896120be565b6121226020830188611b29565b61212f60408301876120be565b61213c60608301866120be565b6121496080830185611b29565b61215660a0830184611b29565b979650505050505050565b7f4d757374206f776e20746865206974656d20746f20726563616c6c20697420665f8201527f726f6d2072656e7465722e000000000000000000000000000000000000000000602082015250565b5f6121bb602b83611fb8565b91506121c682612161565b604082019050919050565b5f6020820190508181035f8301526121e8816121af565b9050919050565b7f43616e6e6f7420726563616c6c206974656d207965742e0000000000000000005f82015250565b5f612223601783611fb8565b915061222e826121ef565b602082019050919050565b5f6020820190508181035f83015261225081612217565b9050919050565b5f61226182611b20565b91505f820361227357612272611eb7565b5b600182039050919050565b7f496e73756666696369656e742066756e647320746f2072656e74206974656d2e5f82015250565b5f6122b2602083611fb8565b91506122bd8261227e565b602082019050919050565b5f6020820190508181035f8301526122df816122a6565b9050919050565b5f819050919050565b5f6123096123046122ff84611b7a565b6122e6565b611b7a565b9050919050565b5f61231a826122ef565b9050919050565b5f61232b82612310565b9050919050565b61233b81612321565b82525050565b5f60c0820190506123545f8301896120be565b6123616020830188611b29565b61236e6040830187612332565b61237b6060830186612332565b6123886080830185611b29565b61239560a0830184611b29565b979650505050505050565b5f60a0820190506123b35f8301886120be565b6123c06020830187611b29565b6123cd60408301866120be565b6123da60608301856120be565b6123e76080830184611b29565b9695505050505050565b7f5072696365206d757374206265206174206c65617374203120776569000000005f82015250565b5f612425601c83611fb8565b9150612430826123f1565b602082019050919050565b5f6020820190508181035f83015261245281612419565b9050919050565b7f4e6f7420656e6f75676820657468657220666f72206c697374696e67206665655f82015250565b5f61248d602083611fb8565b915061249882612459565b602082019050919050565b5f6020820190508181035f8301526124ba81612481565b9050919050565b7f496e73756666696369656e742066756e647320746f20707572636861736520695f8201527f74656d2e00000000000000000000000000000000000000000000000000000000602082015250565b5f61251b602483611fb8565b9150612526826124c1565b604082019050919050565b5f6020820190508181035f8301526125488161250f565b9050919050565b5f6060820190506125625f8301866120be565b61256f6020830185612332565b61257c6040830184611b29565b949350505050565b5f60a0820190506125975f8301886120be565b6125a46020830187611b29565b6125b16040830186612332565b6125be6060830185612332565b6125cb6080830184611b29565b9695505050505050565b5f6125df82611b20565b91506125ea83611b20565b925082820390508181111561260257612601611eb7565b5b9291505056fea2646970667358221220d478288ea1322f3bb287a708902a757073499f809512d3c358913ef9cb708e8264736f6c63430008140033",
  "immutableReferences": {},
  "source": "// SPDX-License-Identifier: MIT\r\npragma solidity ^0.8.13;\r\n\r\nimport \"@openzeppelin/contracts/token/ERC721/ERC721.sol\";\r\nimport \"@openzeppelin/contracts/utils/ReentrancyGuard.sol\";\r\n\r\ncontract Marketplace is ReentrancyGuard {\r\n  uint256 private _itemsSold;\r\n  uint256 private _itemCount;\r\n  uint256 public LISTING_FEE = 0 ether;\r\n  address payable private _marketOwner;\r\n  mapping(uint256 => Item) private _idToItem;\r\n  mapping(uint256 => Rentable) private _idToRent;\r\n\r\n  struct Item {\r\n    address itemContract;\r\n    uint256 tokenId;\r\n    address payable seller;\r\n    address payable owner;\r\n    uint256 price;\r\n    bool listed;\r\n    bool rentable;\r\n    uint256 duration;\r\n  }\r\n\r\n  struct Rentable{\r\n    address itemContract;\r\n    uint256 tokenId;\r\n    address payable seller;\r\n    address payable renter;\r\n    uint256 price;\r\n    uint256 duration;\r\n  }\r\n\r\n  event ItemListed(\r\n    address itemContract, uint256 tokenId, address seller, address owner, uint256 price\r\n  );\r\n\r\n  event ItemListedRent(\r\n    address itemContract, uint256 tokenId, address seller, address owner, uint256 price, uint256 duration\r\n  );\r\n\r\n  event ItemSold(\r\n    address itemContract, uint256 tokenId, address seller, address owner, uint256 price\r\n  );\r\n\r\n  event ItemRented(\r\n    address itemContract, uint256 tokenId, address seller, address owner, uint256 price, uint256 duration\r\n  );\r\n\r\n  constructor() {\r\n    _marketOwner = payable(msg.sender);\r\n  }\r\n\r\n  // List item on marketplace\r\n  function listItem(address _itemContract, uint256 _tokenId, uint256 _price) public payable nonReentrant {\r\n    require(_price > 0, \"Price must be greater than 0.\");\r\n    require(msg.value == LISTING_FEE, \"Please remove value before listing item, listing fee is free.\");\r\n\r\n    IERC721(_itemContract).transferFrom(msg.sender, address(this), _tokenId);\r\n    _marketOwner.transfer(LISTING_FEE);\r\n    _itemCount++;\r\n\r\n    _idToItem[_tokenId] = Item(\r\n      _itemContract,\r\n      _tokenId, \r\n      payable(msg.sender),\r\n      payable(address(this)),\r\n      _price,\r\n      true,\r\n      false,\r\n      0\r\n    );\r\n\r\n    emit ItemListed(_itemContract, _tokenId, msg.sender, address(this), _price);\r\n  }\r\n\r\n    // List item for rent on marketplace\r\n  function listItemForRent(address _itemContract, uint256 _tokenId, uint256 _price, uint256 rentSeconds) public payable nonReentrant {\r\n    require(_price > 0, \"Price must be greater than 0.\");\r\n    require(msg.value == LISTING_FEE, \"Please remove value before listing item, listing fee is free.\");\r\n\r\n    IERC721(_itemContract).transferFrom(msg.sender, address(this), _tokenId);\r\n    _marketOwner.transfer(LISTING_FEE);\r\n    _itemCount++;\r\n\r\n    _idToRent[_tokenId] = Rentable(\r\n      _itemContract,\r\n      _tokenId, \r\n      payable(msg.sender),\r\n      payable(address(this)),\r\n      _price,\r\n      rentSeconds\r\n    );\r\n\r\n    emit ItemListedRent(_itemContract, _tokenId, msg.sender, address(this), _price, rentSeconds);\r\n  }\r\n\r\n\r\n  // Buy item\r\n  function buyItem(address _itemContract, uint256 _tokenId) public payable nonReentrant {\r\n    Item storage item = _idToItem[_tokenId];\r\n    require(msg.value >= item.price, \"Insufficient funds to purchase item.\");\r\n\r\n    address payable buyer = payable(msg.sender);\r\n    payable(item.seller).transfer(msg.value);\r\n    IERC721(_itemContract).transferFrom(address(this), buyer, item.tokenId);\r\n    item.owner = buyer;\r\n    item.listed = false;\r\n\r\n    _itemsSold++;\r\n    emit ItemSold(_itemContract, item.tokenId, item.seller, buyer, msg.value);\r\n  }\r\n\r\n  // Rent item\r\n  function rentItem(address _itemContract, uint256 _tokenId) public payable nonReentrant {\r\n    Rentable storage rentable = _idToRent[_tokenId];\r\n    require(msg.value >= rentable.price, \"Insufficient funds to rent item.\");\r\n\r\n    address payable buyer = payable(msg.sender);\r\n    payable(rentable.seller).transfer(msg.value);\r\n\r\n    rentable.renter = buyer;\r\n    uint256 deadline = block.timestamp + rentable.duration;\r\n    _idToRent[_tokenId].duration = deadline;\r\n\r\n    _itemsSold++;\r\n    emit ItemRented(_itemContract, rentable.tokenId, rentable.seller, buyer, msg.value, rentable.duration);\r\n  }\r\n\r\n  // Recall rented item\r\n  function recallItem(uint256 _tokenId) public payable nonReentrant {\r\n    require(msg.sender == _idToRent[_tokenId].seller, \"Must own the item to recall it from renter.\");\r\n    require(block.timestamp >= _idToRent[_tokenId].duration, \"Cannot recall item yet.\");\r\n\r\n    _idToRent[_tokenId].renter = _idToRent[_tokenId].seller;\r\n\r\n    _itemsSold--;\r\n    delete _idToRent[_tokenId];\r\n  }\r\n\r\n\r\n  // Resell item\r\n  function resellItem(address _itemContract, uint256 _tokenId, uint256 _price) public payable nonReentrant {\r\n    require(_price > 0, \"Price must be at least 1 wei\");\r\n    require(msg.value == LISTING_FEE, \"Not enough ether for listing fee\");\r\n\r\n    IERC721(_itemContract).transferFrom(msg.sender, address(this), _tokenId);\r\n\r\n    Item storage item = _idToItem[_tokenId];\r\n    item.seller = payable(msg.sender);\r\n    item.owner = payable(address(this));\r\n    item.listed = true;\r\n    item.price = _price;\r\n\r\n    _itemsSold--;\r\n    emit ItemListed(_itemContract, _tokenId, msg.sender, address(this), _price);\r\n  }\r\n\r\n  function getListedItems() public view returns (Item[] memory) {\r\n    uint256 itemCount = _itemCount;\r\n    uint256 unsoldItemsCount = itemCount - _itemsSold;\r\n\r\n    Item[] memory items = new Item[](unsoldItemsCount);\r\n    uint itemsIndex = 0;\r\n    for (uint i = 0; i < itemCount; i++) {\r\n      if (_idToItem[i + 1].listed) {\r\n        items[itemsIndex] = _idToItem[i + 1];\r\n        itemsIndex++;\r\n      }\r\n    }\r\n    return items;\r\n  }\r\n\r\n  function getMyItems() public view returns (Item[] memory) {\r\n    uint itemCount = _itemCount;\r\n    uint myItemCount = 0;\r\n    for (uint i = 0; i < itemCount; i++) {\r\n      if (_idToItem[i + 1].owner == msg.sender) {\r\n        myItemCount++;\r\n      }\r\n    }\r\n\r\n    Item[] memory items = new Item[](myItemCount);\r\n    uint itemsIndex = 0;\r\n    for (uint i = 0; i < itemCount; i++) {\r\n      if (_idToItem[i + 1].owner == msg.sender) {\r\n        items[itemsIndex] = _idToItem[i + 1];\r\n        itemsIndex++;\r\n      }\r\n    }\r\n    return items;\r\n  }\r\n\r\n  function getMyListedItems() public view returns (Item[] memory) {\r\n    uint itemCount = _itemCount;\r\n    uint myListedItemCount = 0;\r\n    for (uint i = 0; i < itemCount; i++) {\r\n      if (_idToItem[i + 1].seller == msg.sender && _idToItem[i + 1].listed) {\r\n        myListedItemCount++;\r\n      }\r\n    }\r\n\r\n    Item[] memory items = new Item[](myListedItemCount);\r\n    uint itemsIndex = 0;\r\n    for (uint i = 0; i < itemCount; i++) {\r\n      if (_idToItem[i + 1].seller == msg.sender && _idToItem[i + 1].listed) {\r\n        items[itemsIndex] = _idToItem[i + 1];\r\n        itemsIndex++;\r\n      }\r\n    }\r\n    return items;\r\n  }\r\n}\r\n",
  "sourcePath": "C:\\Users\\dbbal\\Desktop\\Singapore\\blockchain\\DAPP-Blockchainers\\contracts\\NewMarketplace.sol",
  "compiler": {
    "name": "solc",
    "version": "0.8.20+commit.a1b79de6.Emscripten.clang"
  },
  "schemaVersion": "3.4.16",
  "updatedAt": "2023-12-04T11:16:07.859Z",
  "devdoc": {
    "errors": {
      "ReentrancyGuardReentrantCall()": [
        {
          "details": "Unauthorized reentrant call."
        }
      ]
    },
    "kind": "dev",
    "methods": {},
    "version": 1
  },
  "userdoc": {
    "kind": "user",
    "methods": {},
    "version": 1
  }
}