{
  "contractName": "Time",
  "abi": [
    {
      "inputs": [
        {
          "internalType": "uint256",
          "name": "_Time",
          "type": "uint256"
        }
      ],
      "stateMutability": "nonpayable",
      "type": "constructor"
    },
    {
      "inputs": [],
      "name": "Time",
      "outputs": [
        {
          "internalType": "uint256",
          "name": "",
          "type": "uint256"
        }
      ],
      "stateMutability": "view",
      "type": "function"
    },
    {
      "inputs": [],
      "name": "getCurrentTime",
      "outputs": [
        {
          "internalType": "uint256",
          "name": "",
          "type": "uint256"
        }
      ],
      "stateMutability": "view",
      "type": "function"
    }
  ],
  "bytecode": "0x608060405234801561000f575f80fd5b5060405161018238038061018283398181016040528101906100319190610074565b805f819055505061009f565b5f80fd5b5f819050919050565b61005381610041565b811461005d575f80fd5b50565b5f8151905061006e8161004a565b92915050565b5f602082840312156100895761008861003d565b5b5f61009684828501610060565b91505092915050565b60d7806100ab5f395ff3fe6080604052348015600e575f80fd5b50600436106030575f3560e01c806329cb924d146034578063f8e157ea14604e575b5f80fd5b603a6068565b60405160459190608a565b60405180910390f35b6054606f565b604051605f9190608a565b60405180910390f35b5f42905090565b5f5481565b5f819050919050565b6084816074565b82525050565b5f602082019050609b5f830184607d565b9291505056fea2646970667358221220b32df637cdd6849527623bcae7d41bc61424664dd19e5fe5f843324edbb5f9b564736f6c63430008140033",
  "immutableReferences": {},
  "source": "// SPDX-License-Identifier: GPL-3.0\r\npragma solidity ^0.8.10;\r\n\r\ncontract Time{\r\n\r\n    uint public Time;\r\n\r\n    constructor(uint _Time){\r\n        Time = _Time;\r\n    }\r\n\r\n    function getCurrentTime()public view returns(uint){\r\n        return block.timestamp;\r\n    }\r\n\r\n}",
  "sourcePath": "C:\\Users\\dbbal\\Desktop\\Singapore\\blockchain\\DAPP-Blockchainers\\contracts\\Time.sol",
  "compiler": {
    "name": "solc",
    "version": "0.8.20+commit.a1b79de6.Emscripten.clang"
  },
  "schemaVersion": "3.4.16",
  "updatedAt": "2023-12-04T11:16:07.869Z",
  "devdoc": {
    "kind": "dev",
    "methods": {},
    "version": 1
  },
  "userdoc": {
    "kind": "user",
    "methods": {},
    "version": 1
  }
}